:100000000C9443080C9474080C9474080C947408B1
:100010000C9474080C9474080C9474080C94740870
:100020000C9474080C9474080C9474080C94740860
:100030000C9474080C9474080C9474080C94740850
:100040000C9474080C9474080C9474080C94740840
:100050000C9474080C9474080C9474080C943A2F43
:100060000C9474080C94042F0C94DA2E0C947408DD
:100070000C9474080C9474080C9474080C94740810
:100080000C9474080C9474080C9474080C94740800
:100090000C9474080C9474080C9474080C947408F0
:1000A0000C9474080C9474080C9474080C947408E0
:1000B0000C9474080C9474080C9474080C947408D0
:1000C0000C9474080C9474080C9474080C947408C0
:1000D0000C9474080C9474080C9474080C947408B0
:1000E0000C947408072C7AA5BA6CC590DA3B93651A
:1000F000FC8BBC53F810FD3C5692834DBD879D3A56
:10010000B63DCBC9BF5BBE73DA0FC93F05A84CCD66
:10011000B2D44EB93836A9020C50B9918688083C41
:10012000A6AAAA2ABE000000803F0664EC1B3C047D
:10013000BC163E3BE5B93CC93C37C29E5A3D6604FD
:1001400098083EEA69AAAA3E000000803F000040ED
:100150007A10F35A00A0724E18090010A5D4E800D6
:1001600000E87648170000E40B54020000CA9A3BEE
:10017000000000E1F5050000809698000000404274
:100180000F000000A0860100000010270000000002
:10019000E803000000006400000000000A00000006
:1001A00000000100000000002C76D888DC674F08B2
:1001B00023DFC1DFAE59E1B1B796E5E3E453C63AB8
:1001C000E651997696E8E6C28426EB898C9B62ED2F
:1001D000407C6FFCEFBC9C9F40F2BAA56FA5F490E9
:1001E000055A2AF75C936B6CF9676DC11BFCE0E460
:1001F0000D47FEF520E6B500D0ED902E03009435B6
:1002000077050080841E080000204E0A000000C808
:100210000C333333330F986E12831141EF8D211459
:10022000893BE65516CFFEE6DB18D1844B381BF729
:100230007C1D901DA4BBE424203284725E228100C8
:10024000C9F124ECA1E53D273C2F626F64793E3C67
:100250002F68746D6C3E003C6120687265663D22BB
:100260002F6E6F7468696E67223E3C627574746F9E
:100270006E20636C6173733D22627574746F6E20BF
:10028000627574746F6E32223E5265667265736871
:10029000203C2F627574746F6E3E3C2F613E3C2F84
:1002A000703E003C2F627574746F6E3E3C2F613E51
:1002B0003C2F703E003C6120687265663D222F3104
:1002C000342F6F6666223E3C627574746F6E2063D5
:1002D0006C6173733D22627574746F6E2062757405
:1002E000746F6E32223E53746F70205A32207A61DE
:1002F00020003C6120687265663D222F31342F6FEB
:100300006E223E3C627574746F6E20636C61737311
:100310003D22627574746F6E223E53746172742054
:100320005A323C2F627574746F6E3E3C2F613E3CB6
:100330002F703E003C2F627574746F6E3E3C2F61CF
:100340003E003C6120687265663D222F31332F6F7D
:100350006666223E3C627574746F6E20636C6173D6
:10036000733D22627574746F6E20627574746F6E63
:1003700032223E53746F70205A31207A6120003C43
:100380006120687265663D222F31332F6F6E223EE9
:100390003C627574746F6E20636C6173733D22628E
:1003A0007574746F6E223E5374617274205A313CBE
:1003B0002F627574746F6E3E3C2F613E003C2F625D
:1003C0007574746F6E3E3C2F613E003C6120687214
:1003D00065663D222F31322F6F6666223E3C627584
:1003E00074746F6E20636C6173733D2262757474F4
:1003F0006F6E20627574746F6E32223E53746F702C
:10040000204C4B207A6120003C6120687265663D7B
:10041000222F31322F6F6E223E3C627574746F6EE4
:1004200020636C6173733D22627574746F6E223E3B
:100430005374617274204C4B3C2F627574746F6EF0
:100440003E3C2F613E003C6120687265663D222F74
:1004500031312F6F6666223E3C627574746F6E2078
:10046000636C6173733D22627574746F6E20627584
:1004700074746F6E32223E43796B6C20706F646CC3
:100480006577616E69652077207472616B63696559
:100490002C206E61647A69736E696A206279207AB1
:1004A0006174727A796D61633C2F627574746F6EDA
:1004B0003E3C2F613E003C6120687265663D222F04
:1004C00031312F6F6E223E3C627574746F6E206303
:1004D0006C6173733D22627574746F6E223E537447
:1004E0006172742063796B6C7520706F646C6577D2
:1004F000616E69613C2F627574746F6E3E3C2F6152
:100500003E003C703E3C6120687265663D222F31A2
:10051000302F6F6E223E3C627574746F6E20636C78
:100520006173733D22627574746F6E20223E506F4A
:10053000646C6577616E6965205265637A6E653CAF
:100540002F627574746F6E3E3C2F613E003C703EAE
:100550003C6120687265663D222F31302F6F6666E0
:10056000223E3C627574746F6E20636C6173733DE0
:1005700022627574746F6E20627574746F6E3222AD
:100580003E506F646C6577616E6965204175746F6C
:100590003C2F627574746F6E3E3C2F613E003C2FA1
:1005A00048353E003C2F48353E3C68353E437A6135
:1005B0007320706F646C6577616E6961205A323A9E
:1005C00020003C2F48353E3C68353E437A6173201D
:1005D000706F646C6577616E6961205A313A2000F2
:1005E0003C68353E437A617320706F646C65776157
:1005F0006E6961204C4B3A20003C48333E506F649A
:100600006C6577616E69653C2F48333E0020433C42
:100610002F48353E0020433C2F48353E3C48353E70
:1006200054656D7065726174757261206E6F636E72
:10063000613A20003C68353E54656D7065726174A6
:1006400075726120647A69656E6E613A20003C6162
:1006500020687265663D222F392F6F6666223E3C08
:10066000627574746F6E20636C6173733D22627582
:1006700074746F6E223E53544F50213C2F62757438
:10068000746F6E3E3C2F613E3C2F703E003C2F62EB
:100690007574746F6E3E3C2F613E003C6120687241
:1006A00065663D222F392F6F6E223E3C6275747451
:1006B0006F6E20636C6173733D22627574746F6E2C
:1006C00020627574746F6E32223E003C6120687245
:1006D00065663D222F392F6F6E223E3C6275747421
:1006E0006F6E20636C6173733D22627574746F6EFC
:1006F000223E3130206D696E2E204F6E3C2F627588
:1007000074746F6E3E3C2F613E3C2F703E00274359
:10071000206E6F633C2F627574746F6E3E3C2F6168
:100720003E003C703E3C6120687265663D222F3879
:100730002F6F6E223E3C627574746F6E20636C6125
:1007400073733D22627574746F6E20627574746F7A
:100750006E32223E5061727465722000274320641D
:100760007A69656E3C2F627574746F6E3E3C2F61C2
:100770003E003C703E3C6120687265663D222F3829
:100780002F6F6666223E3C627574746F6E20636CD8
:100790006173733D22627574746F6E223E50617294
:1007A00074657220003C6120687265663D222F37B7
:1007B0002F6F6666223E3C627574746F6E20636CA8
:1007C0006173733D22627574746F6E223E53544F91
:1007D00050213C2F627574746F6E3E3C2F613E3C1D
:1007E0002F703E003C2F627574746F6E3E3C2F611B
:1007F0003E003C6120687265663D222F372F6F6E88
:10080000223E3C627574746F6E20636C6173733D3D
:1008100022627574746F6E20627574746F6E32220A
:100820003E003C6120687265663D222F372F6F6E57
:10083000223E3C627574746F6E20636C6173733D0D
:1008400022627574746F6E223E3130206D696E2E97
:10085000204F6E3C2F627574746F6E3E3C2F613E6C
:100860003C2F703E002743206E6F633C2F627574EF
:10087000746F6E3E3C2F613E003C703E3C612068D0
:100880007265663D222F362F6F6E223E3C62757474
:10089000746F6E20636C6173733D22627574746F44
:1008A0006E20627574746F6E32223E506965747288
:1008B0006F2000274320647A69656E3C2F6275744F
:1008C000746F6E3E3C2F613E003C703E3C61206880
:1008D0007265663D222F362F6F6666223E3C62753A
:1008E00074746F6E20636C6173733D2262757474EF
:1008F0006F6E223E50696574726F200020433C2F5A
:10090000423E3C2F48353E003C68353E54656D7094
:1009100065726174757261207A65776E6574727A3A
:100920006E613A203C423E003C48333E4F67727A4B
:100930006577616E69653C2F48333E003C612068F5
:100940007265663D222F332F6F6E223E3C627574B6
:10095000746F6E20636C6173733D22627574746F83
:100960006E223E526F6C6574792073746F703C2FE9
:10097000627574746F6E3E3C2F613E3C2F703E007A
:100980003C6120687265663D222F342F6F6E223ED7
:100990003C627574746F6E20636C6173733D226288
:1009A0007574746F6E223E4F7075736320726F6C36
:1009B0006574793C2F627574746F6E3E3C2F613E96
:1009C0003C2F703E003C703E3C6120687265663D85
:1009D000222F332F6F6E223E3C627574746F6E202F
:1009E000636C6173733D22627574746F6E223E5244
:1009F0006F6C6574792073746F703C2F62757474BA
:100A00006F6E3E3C2F613E003C703E3C6120687240
:100A100065663D222F352F6F6E223E3C62757474E1
:100A20006F6E20636C6173733D22627574746F6EB8
:100A3000223E506F646E69657320726F6C657479C5
:100A40003C2F627574746F6E3E3C2F613E003C61BA
:100A500020687265663D222F322F6F6666223E3C0B
:100A6000627574746F6E20636C6173733D2262757E
:100A700074746F6E20627574746F6E32223E526FA2
:100A80006C65747920737465726F77616E65207020
:100A9000727A657A2074696D65723C2F6275747420
:100AA0006F6E3E3C2F613E3C2F703E003C612068E3
:100AB0007265663D222F322F6F6E223E3C62757446
:100AC000746F6E20636C6173733D22627574746F12
:100AD0006E223E526F6C65747920737465726F7705
:100AE000616E65207265637A6E69653C2F6275740C
:100AF000746F6E3E3C2F613E3C2F703E003C2F6277
:100B00007574746F6E3E3C2F613E003C61206872CC
:100B100065663D222F31352F6F6E223E3C62757423
:100B2000746F6E20636C6173733D22627574746FB1
:100B30006E223E506F7A696F6D2073776961746CB5
:100B4000613A003C703E3C6120687265663D222F30
:100B500031362F6F6666223E3C627574746F6E206C
:100B6000636C6173733D22627574746F6E2062757D
:100B700074746F6E32223E437A756A6E696B2073AD
:100B8000776961746C6120776C61637A6F6E793C10
:100B90002F627574746F6E3E3C2F613E003C703E58
:100BA0003C6120687265663D222F31362F6F6E22C0
:100BB0003E3C627574746F6E20636C6173733D228A
:100BC000627574746F6E223E437A756A6E696B202B
:100BD00073776961746C612077796C61637A6F6E89
:100BE000793C2F627574746F6E3E3C2F613E00201D
:100BF0003C2F68353E00203C2F68353E3C68353E32
:100C00002053656E736F722073776961746C613AFB
:100C100020003A003C2F68353E3C68353E205A6142
:100C200063686F6420736C6F6E63613A20003A00F2
:100C3000203C68353E20577363686F6420736C6F87
:100C40006E63613A2000203C2F68353E0020676FBC
:100C5000647A696E613A200020003C68353E204489
:100C60007A6973206A6573743A20003C48333E52B7
:100C70006F6C6574793C2F48333E003C626F647939
:100C80003E3C48313E486F6D6520436F6E74726F15
:100C90006C20446F6D656B204F7A61726F772056C0
:100CA000302E3037413C2F48313E002E627574742F
:100CB0006F6E32207B6261636B67726F756E642D3D
:100CC000636F6C6F723A20233737383738413B7D7A
:100CD0003C2F7374796C653E3C2F686561643E00FF
:100CE000746578742D6465636F726174696F6E3AB0
:100CF000206E6F6E653B20666F6E742D73697A652A
:100D00003A20333070783B206D617267696E3A200B
:100D10003270783B20637572736F723A20706F691E
:100D20006E7465723B7D002E627574746F6E207BED
:100D3000206261636B67726F756E642D636F6C6F99
:100D4000723A20233139354236413B20626F72645A
:100D500065723A206E6F6E653B20636F6C6F723AFE
:100D60002077686974653B2070616464696E673AD6
:100D7000203136707820343070783B003C737479C1
:100D80006C653E68746D6C207B20666F6E742D669A
:100D9000616D696C793A2048656C76657469636148
:100DA0003B20646973706C61793A20696E6C696E7E
:100DB000652D626C6F636B3B206D617267696E3A83
:100DC00020307078206175746F3B20746578742DC5
:100DD000616C69676E3A2063656E7465723B7D0075
:100DE0003C6C696E6B2072656C3D2269636F6E228C
:100DF00020687265663D22646174613A2C223E006F
:100E00003C686561643E3C6D657461206E616D6532
:100E10003D2276696577706F72742220636F6E74FD
:100E2000656E743D2277696474683D6465766963B4
:100E3000652D77696474682C20696E697469616CCA
:100E40002D7363616C653D31223E003C21444F436C
:100E5000545950452068746D6C3E3C68746D6C3E0E
:100E60000000002100240027002A002D003000335C
:100E70000001010000040107010A01000022002511
:100E80000028002B002E0031003400020100000574
:100E90000108010B0100000A0B02090C0D0E0807E6
:100EA000030401000000000000000000000000003A
:100EB0000000000000000000000000000000000032
:100EC00000121110000000000000000000000000EF
:100ED0000000000000000000000000005EBCE261B5
:100EE0003FDD83C29C7E20A3FD1F419DC3217FFC6B
:100EF000A2401E5F01E3BD3E6082DC237D9FC142B4
:100F00001CFEA0E1BF5D0380DE3C62BEE0025CDF50
:100F100081633D7C22C09E1D43A1FF4618FAA42791
:100F2000799BC584DA3866E5BB5907DB856739BA32
:100F3000E406581947A5FB7826C49A653BD987046F
:100F40005AB8E6A7F91B45C6987A24F8A6441A9918
:100F5000C7257B3A6486D85B05E7B98CD2306EED45
:100F6000B3510F4E10F2AC2F7193CD114FADF37002
:100F70002ECC92D38D6F31B2EC0E50AFF1134DCE1B
:100F800090722C6D33D18F0C52B0EE326C8ED053E8
:100F90000DEFB1F0AE4C1291CF2D73CA947628AB01
:100FA000F517490856B4EA6937D58B5709EBB536BA
:100FB000688AD495CB2977F4AA4816E9B7550B88E7
:100FC000D6346A2B7597C94A14F6A8742AC89615A0
:100FD0004BA9F7B6E80A54D7896B350000200023E7
:100FE00000260029002C002F003200000100000321
:100FF000010601090105050505070508080808029D
:101000000202020A0A0808040404040101010101A1
:101010000101010303030303030303040707070C90
:101020000C0C0C0C0C0C0C02020202060606060646
:101030000606060B0B0B0B0B0B0B0B0102102020F3
:10104000080810204010204080020102010804021C
:101050000101020408102040808040201008040292
:1010600001800402018040201008040201080402EB
:1010700001010204081020408001020408102040F1
:101080008000842FBC3311241FBECFEFD1E2DEBF1E
:10109000CDBF00E00CBF14E0A0E0B2E0EAE6F9E763
:1010A00000E00BBF02C007900D92AE37B107D9F731
:1010B00026E0AEE7B4E001C01D92AC3CB207E1F718
:1010C00018E0C2E4D8E000E006C021970109802FB3
:1010D000FE010E944A3AC134D10780E00807A9F70F
:1010E0000E940F310C94A43C0C94000020912E021D
:1010F00090912D029230C1F430E02053384FC90155
:1011000083709927892B39F4C90164E670E00E9445
:10111000373A892B89F4C90160E971E00E94373AB6
:10112000892B51F08CE10895983020F4917031F4BE
:101130008EE108959095FACF8DE108958FE108959D
:101140008F929F92AF92BF92CF92DF92EF92FF92D7
:10115000CF93DF9320912A026B017C01C20ED11C38
:10116000E11CF11CC701B6012CE330E040E050E087
:101170000E94B03749015A019601C601D7FE04C04A
:10118000882799278C199D096CE370E00E94373AF3
:1011900037FD78C021E0022E000C330BDC010E94E9
:1011A000523A645C7F4F8F4F9F4F2CE330E040E01A
:1011B00050E00E94B03760932A0280912B02880E83
:1011C000911CA11CB11CC501B40128E130E040E034
:1011D00050E00E94B03769017A019401C40197FE82
:1011E00004C0882799278819990968E170E00E944E
:1011F000373A37FD49C021E0022E000C330BDC01E9
:101200000E94523A685E7F4F8F4F9F4F28E130E037
:1012100040E050E00E94B03760932B0280912C0296
:10122000C80ED11CE11CF11C61DF90E0B0E0A0E031
:10123000C0922C028C159D05AE05BF0594F5C1E04A
:10124000D4E6C81AD90AEA0AFB0A80912D028F5FF8
:101250008D30E0F480932D0249DF90E0B0E0A0E013
:101260008C159D05AE05BF0564F3C0922C02DF917D
:10127000CF91FF90EF90DF90CF90BF90AF909F9075
:101280008F9008952FEF87CF2FEFB6CFC0932D0209
:1012900080912E028B596D2F0E941E3A90932E0240
:1012A000DBCF1C141D041E041F040CF3CCE0D4E699
:1012B00080912D02815089F080932D0217DF982FA5
:1012C0009C0D90932C02C80ED11CE11CF11C1C1427
:1012D0001D041E041F0464F7CACFC0932D02809121
:1012E0002E028D596D2F0E941E3A90932E02E6CF4A
:1012F000E0912E02F0E080912D0220912C028330AB
:1013000088F1E053F84F3DE0839FC001112403961C
:1013100065E070E00E94373A260F372F311D2E0FFF
:101320003F1FBF017595679575956795260F371F08
:10133000CF016CE97FEF0E94373A260F371FCF01AC
:1013400060E971E00E94373AC901860F971F27E0D4
:1013500030E0B9010E94373A0196B9010E94373A4C
:101360008F5F0895845FE153F84FCDCFCF93DF9324
:10137000C0912D02D091F405CD1740F18091F60572
:101380008C1720F1DC1710F4C817A0F1B1DF482F3B
:1013900080912C028F5F841B1816DCF467E00E949A
:1013A0002A3A8F5F082E000C990BCD1314C02091A0
:1013B000F50530E0821793074CF028173907D4F071
:1013C0004230C4F480912B028230A0F4DF91CF919F
:1013D000089580E0E7CF2091F70530E0821793076A
:1013E0004CF02817390794F3423084F780912B0290
:1013F000823060F76091F80570E090E080E0DF9166
:10140000CF919ECE8CBD9DBD0895FC01818D928DA6
:1014100008950895AF92BF92CF92DF92EF92FF921C
:101420000F931F93CF93DF936C017B018B01040F0C
:10143000151FEB015E01AE18BF08C017D10759F0A8
:101440006991D601ED91FC910190F081E02DC601EA
:101450001995892B79F7C501DF91CF911F910F91D4
:10146000FF90EF90DF90CF90BF90AF900895FC0178
:10147000538D448D252F30E0842F90E0821B930BF9
:10148000541710F0CF96089501970895FC01918D9F
:10149000828D981761F0A28DAE0FBF2FB11D5D96A2
:1014A0008C91928D9F5F9F73928F90E008958FEF44
:1014B0009FEF0895FC01918D828D981731F0828DF8
:1014C000E80FF11D858D90E008958FEF9FEF08954F
:1014D000FC01918D228D892F90E0805C9F4F821BB3
:1014E00091098F73992708958CEE94E0F1DF21E044
:1014F000892B09F420E0822F0895FC01A48DA80F08
:10150000B92FB11DA35ABF4F2C91848D90E0019645
:101510008F739927848FA689B7892C93A089B18965
:101520008C91837080648C93938D848D981306C006
:101530000288F389E02D80818F7D80830895EF926A
:10154000FF920F931F93CF93DF93EC0181E0888F7D
:101550009B8D8C8D98131AC0E889F989808185FF4D
:1015600015C09FB7F894EE89FF896083E889F989EF
:1015700080818370806480839FBF81E090E0DF91F1
:10158000CF911F910F91FF90EF900895F62E0B8D44
:1015900010E00F5F1F4F0F731127E02E8C8D8E11FF
:1015A0000BC00FB607FCFACFE889F989808185FF67
:1015B000F5CFCE01A2DFF2CFEB8DEC0FFD2FF11DA9
:1015C000E35AFF4FF0829FB7F8940B8FEA89FB89AB
:1015D00080818062D0CFCF93DF93EC01888D882308
:1015E000B1F0AA89BB89E889F9898C9185FD03C08E
:1015F000808186FD0CC00FB607FCF7CF8C9185FF6C
:10160000F2CF808185FFEDCFCE0177DFEACFDF918A
:10161000CF91089580E090E0892B21F065DF811162
:101620000E94000080E090E0892B49F080E090E08B
:10163000892B29F00E94000081110E94000080E0A7
:1016400090E0892B49F080E090E0892B29F00E94FE
:10165000000081110E94000080E090E0892B49F099
:1016600080E090E0892B29F00E94000081110C9409
:1016700000000895282F30E0F901EB56F14F9491C6
:10168000F901E55CFF4E44912B50304FF901249154
:10169000222309F435C0992311F191509231F8F4C5
:1016A000E92FF0E08827E85AF44F8F4F0C944A3A1C
:1016B000890B8D0B6A0B810B850B6F0B900B960BB7
:1016C0009A0BA00BA40BA80BAE0BB20B6F0BB60BB7
:1016D000BC0BC00B809180008F7780938000E22F3D
:1016E000F0E0EE0FFF1FE558F14FA591B4918FB7D1
:1016F000F894EC91611148C040954E234C938FBFF4
:101700000895809180008F7DE8CF80918000877F51
:10171000E4CF84B58F7784BDE2CF84B58F7DFBCFD6
:101720008091B0008F778093B000D9CF8091B000C6
:101730008F7DF9CF809190008F7780939000CFCFED
:10174000809190008F7DF9CF80919000877FF5CFB9
:101750008091A0008F778093A000C1CF8091A000DE
:101760008F7DF9CF8091A000877FF5CF80912001F8
:101770008F7780932001B3CF809120018F7DF9CFA7
:1017800080912001877FF5CF4E2BB8CFCF93DF9389
:1017900090E0FC01E55CFF4E24918B50904FFC01E2
:1017A00084918823D1F090E0880F991FFC01EF59B4
:1017B000F14FA591B491FC01E558F14FC591D49139
:1017C00061110EC09FB7F8948C91E22FE0958E23A3
:1017D0008C932881E223E8839FBFDF91CF91089506
:1017E0008FB7F894EC91E22BEC938FBFF6CF3FB715
:1017F000F8948091990490919A04A0919B04B091DF
:101800009C0426B5A89B05C02F3F19F00196A11D89
:10181000B11D3FBFBA2FA92F982F8827BC01CD013A
:10182000620F711D811D911D42E0660F771F881F99
:10183000991F4A95D1F708958F929F92AF92BF92C8
:10184000CF92DF92EF92FF924B015C01D0DF6B01F0
:101850007C01CDDF6C197D098E099F09683E7340BC
:1018600081059105B0F321E0821A9108A108B10821
:1018700088EEC80E83E0D81EE11CF11C811491048F
:10188000A104B10431F7FF90EF90DF90CF90BF90AB
:10189000AF909F908F9008952FB7F8946091950422
:1018A0007091960480919704909198042FBF0895A9
:1018B0000F931F93CF93DF93C82FD0E0EDDFFE018E
:1018C000EE0FFF1FEE0FFF1FE358F94F6083718388
:1018D00082839383CC0FDD1FCC0FDD1FCF5BD94FED
:1018E00041E0088119812A813B81061717072807E3
:1018F000390708F440E0842FDF91CF911F910F91B9
:1019000008958F929F92AF92BF92CF92DF92EF9203
:10191000FF920F931F93CF93DF936B017C01C42F32
:10192000D0E0BADFFE01EE0FFF1FEE0FFF1FE358FE
:10193000F94F60837183828393838E01000F111F9F
:10194000000F111F0F5B194FF80180809180A2805A
:10195000B380681579058A059B0508F19DDFCC0FDA
:10196000DD1FCC0FDD1FCB5FD94F688379838A835E
:101970009B83C60ED71EE81EF91EF801C082D182D5
:10198000E282F382DF91CF911F910F91FF90EF9050
:10199000DF90CF90BF90AF909F908F900895D5012A
:1019A000C4018C0D9D1DAE1DBF1D80839183A2833C
:1019B000B383E8CFCF93DF93C82FD0E06DDFFE0174
:1019C000EE0FFF1FEE0FFF1FEF5BF94F6083718378
:1019D0008283938361DFCC0FDD1FCC0FDD1FCB5FD4
:1019E000D94F688379838A839B83DF91CF91089550
:1019F000DC012C911196ED91FC91F8948181822B60
:101A000081839281322F30959323928387E090E0F7
:101A10000197F1F781818323818383E290E001972D
:101A2000F1F790817894EFECF0E03197F1F79223A1
:101A300081E009F480E00895FC0190810180F28149
:101A4000E02D292F209560FF14C0F8948281822315
:101A500082838181892B8183A3E2B0E01197F1F722
:101A60008281982B9283789487ED90E00197F1F72B
:101A70000895F8948281822382838181892B8183D6
:101A8000AFEFB0E01197F1F78281982B92837894B1
:101A90008FE090E0EBCFDF92EF92FF920F931F93D6
:101AA000CF93DF93EC01D62EE42E08E010E0FF2464
:101AB000F39461E08D2D8F2109F460E0CE01BCDF4D
:101AC000FF0C01501109A9F7E11010C0F894E98149
:101AD000FA8191818881809589238183E981FA81C6
:101AE000928188818095892382837894DF91CF9138
:101AF0001F910F91FF90EF90DF900895FC0190816E
:101B00000180F281E02DF8948181292F2095822394
:101B1000818378943DE743E050E0315029F1DA01C8
:101B20001197F1F780818923C1F3F8948281822390
:101B300082838181892B81837894ABE7B7E0119709
:101B4000F1F7F894818182238183A3E1B1E01197B9
:101B5000F1F78081982381E009F080E07894E3E652
:101B6000F6E03197F1F7089580E00895CF93C091A2
:101B7000D605C11104C0C0E08C2FCF91089580918B
:101B8000D3059091D405BADF8823A9F340E06CEC2B
:101B90008091D3059091D4057EDF4091D70581E0F7
:101BA000482764E48091D3059091D40574DF74DEF6
:101BB0006093D8057093D9058093DA059093DB057F
:101BC000DBCFCF92DF92FF920F931F93CF93DF93E0
:101BD0006C01F62E8091D3059091D4058FDF882378
:101BE00019F10091D3051091D40540E065E5C801D5
:101BF00052DFE60188E0C80ED11C699140E0C801BF
:101C00004ADFCC15DD05C9F740E06F2D8091D30583
:101C10009091D40540DF81E0DF91CF911F910F912A
:101C2000FF90DF90CF90089580E0F6CF6F927F9283
:101C30008F929F92AF92BF92CF92DF92EF92FF92DC
:101C40000F931F93CF93DF93CDB7DEB76D970FB68A
:101C5000F894DEBF0FBECDBF6EEBB3DF882309F46F
:101C600080C08090D3059090D4058E010F5E1F4FE9
:101C70007E018AE1E80EF11C680138E0632E712CC8
:101C8000B12CAA24A394C401B3DE8111BA28AA0CF2
:101C9000A1E06A1A7108B9F7F601B1926F01EE1569
:101CA000FF0559F799E080E0915049F0D801ED9196
:101CB0008D01E827F0E0E552F14F8491F5CF998D41
:101CC00098134FC080E1E5E3F2E0DE011196019048
:101CD0000D928A95E1F78091450290914602A0917C
:101CE0004702B09148028A8F9B8FAC8FBD8F0091C5
:101CF000D5050950110BF701E00FF11F80816989AB
:101D00007A8902C0759567958A95E2F7072E000CCF
:101D1000880B990B0E949D36000F111F000F111F99
:101D2000E1E0F0E0EC0FFD1FE00FF11F20813181B9
:101D3000428153810E94FC366D960FB6F894DEBF47
:101D40000FBECDBFDF91CF911F910F91FF90EF900C
:101D5000DF90CF90BF90AF909F908F907F906F90CB
:101D6000089563E373E988E893ECE6CFFC012081F2
:101D70002EBD9B012150310941F051810DB407FE68
:101D8000FDCF4EB55EBD4193F5CF61507109860F11
:101D9000971F0DB407FEFDCF2EB5FC0120830895DB
:101DA000E0919004F0919104808190918F04892BAF
:101DB00080830895E0919004F09191049081809146
:101DC0008F0480958923808308958EBD00000DB413
:101DD00007FEFDCF8EB50895AF92BF92CF92DF92EE
:101DE000EF92FF920F931F93CF93DF9300D000D019
:101DF0001F921F92CDB7DEB78C017B016A018091E3
:101E0000EA048333B1F45801A40EB51EA016B1063E
:101E100009F463C0CFDF80EFD8DF812FD6DF802FBA
:101E2000D4DF0F5F1F4FF70181917F01CEDFB8DF55
:101E3000EDCF5B01A40EB51E8433A9F4BBDF19837B
:101E40000A838D2D80688B83CC8264E070E0CE01A4
:101E500001968CDFAE14BF0409F43EC0F7018191F6
:101E60007F01B3DFF7CFA6DF0F3F110509F028F49C
:101E700019820A8384E08B830CC017FD17C0198276
:101E80000A8333E0169507953A95E1F7007E0C60DA
:101E90000B8386E0C816D10490F5F701DE01149695
:101EA000EA15FB0599F081918D93FACFC80126E0E0
:101EB000969587952A95E1F7807E19830A83011507
:101EC000104C10F48461D7CF8C61D5CFB6016D5F13
:101ED0007F4FCE0101964ADF63DFC60128960FB619
:101EE000F894DEBF0FBECDBFDF91CF911F910F9150
:101EF000FF90EF90DF90CF90BF90AF90089563E098
:101F000070E0CE01019632DFF70181917F015DDF44
:101F1000AE14BF04C9F7E0CFCF93DF931F92CDB7C4
:101F2000DEB7898341E050E0BE016F5F7F4F90E0F4
:101F300080E052DF0F90DF91CF91089590E02091E3
:101F4000EA04233339F40C96982F990F990F990FBF
:101F500080E008954896F8CFDA01E0919304F0E02C
:101F6000FE2FEE27E60FF71F90E0982F8827A90194
:101F7000BD018E0F9F1F30CFCF93DF931F921F9213
:101F8000CDB7DEB779836A8322E030E0AE014F5FE0
:101F90005F4F60E170E0E0DF0F900F90DF91CF9135
:101FA0000895CF93DF931F921F92CDB7DEB7798349
:101FB0006A8322E030E0AE014F5F5F4F64E070E083
:101FC000CBDF0F900F90DF91CF910895CF93DF93E8
:101FD0001F92CDB7DEB72091930430E0322F222735
:101FE000260F371F90E0982F8827498341E050E063
:101FF000BE016F5F7F4F820F931FEEDE0F90DF9168
:10200000CF910895CF93DF931F92CDB7DEB7698349
:10201000DC01ED91FC910280F381E02D41E050E084
:10202000BE016F5F7F4F19950F90DF91CF9108959B
:10203000CF93DF931F92CDB7DEB76983DC01ED91BB
:10204000FC910280F381E02D41E050E0BE016F5F22
:102050007F4F19950F90DF91CF910895FC019485E2
:10206000FB018485981303C081E0983008F080E07C
:102070000895CF93DF931F92CDB7DEB76983DC015C
:10208000ED91FC910280F381E02D41E050E0BE0132
:102090006F5F7F4F19950F90DF91CF910895FC01ED
:1020A000768765870895DC01ED91FC91068CF78DAC
:1020B000E02D199591E089270895862F089581E0F4
:1020C0008627089521E0FC018485883008F020E00F
:1020D000822F08950895FF920F931F93CF93DF935C
:1020E000EB01FC01178A168A2A81211109C02B8174
:1020F000211106C02C81211103C02D812223E9F07A
:1021000041155105D1F08A01FC01F08C80E591E088
:1021100079D9AE014E5F5F4F24E030E06CE070E0B3
:102120008F2D1ADFB8018F2D27DF81E090E0DF913E
:10213000CF911F910F91FF90089580E0F7CFFC01A0
:10214000848595850895FC0184899589089522ECFC
:1021500032E0FC0131832083FB014089518962898F
:102160007389FC0142835383648375830895DC0182
:10217000ED91FC91048CF58DE02D1994089590E07B
:1021800080E008954F925F926F927F928F929F921C
:10219000AF92BF92CF92DF92EF92FF92CF93DF93F5
:1021A000CDB7DEB765970FB6F894DEBF0FBECDBFD3
:1021B0008D8B60912D02FF24FA94F60E60912C0213
:1021C000EE24EA94E60E21EE3EE245E652E460910A
:1021D000EA057091EB058091EC059091ED050E9468
:1021E00073384B015C012D89222309F4D3C182E1AC
:1021F00089836F2D70E090E080E00E949D3620E0A2
:1022000030E843EF51E40E94FC362B013C016E2D77
:1022100070E090E080E00E949D369B01AC01C3011C
:10222000B2010E940C386B017C012981622F70E0A1
:1022300090E080E00E949D3620E030E040EC51E4E8
:102240000E9473389B01AC01C701B6010E940C3893
:1022500022E43DEC4CE85CE30E94FC366B017C011F
:102260000E9470386D837E838F839887C701B60183
:102270000E94893969877A878B879C87A701960195
:10228000C701B6010E940C382B013C010E94703836
:102290006D877E878F87988BC301B2010E94893931
:1022A000698B7A8B8B8B9C8B20E030E040E450E490
:1022B000C701B6010E94FC366B017C010E94703898
:1022C0002B013C01C701B6010E94893969837A83D9
:1022D0008B839C8324E431EC4CEC5EE36D817E8146
:1022E0008F8198850E94FC369B01AC0164E670EBFF
:1022F00082EE9BE30E940B386B017C0127EE32EEED
:102300004FE85DE369857A858B859C850E94FC3664
:102310009B01AC01C701B6010E940C386B017C0126
:1023200026E332E74DED5BE36D857E858F859889E9
:102330000E94FC369B01AC01C701B6010E940B381C
:102340006B017C012DEB33EC4DE65AE369897A8908
:102350008B899C890E94FC369B01AC01C701B601A8
:102360000E940C386B017C0127E230EC40E35BE318
:10237000C301B2010E94FC369B01AC01C701B6014A
:102380000E940B386B017C012FE83CEF41EC5AE3D3
:1023900069817A818B819C810E94FC369B01AC0112
:1023A000C701B6010E940C386B017C01C501B40164
:1023B0000E9470382B013C01C701B6010E947038A1
:1023C00069837A838B839C83C501B4010E94D139D0
:1023D0004B015C01C701B6010E94D1396B017C0140
:1023E00029813A814B815C81C301B2010E94FC3694
:1023F0009B01AC0168E879E48EE69CEB0E9473389F
:102400002B013C01A7019601C501B4010E94FC36D5
:102410009B01AC01C301B2010E940B386B017C012E
:102420009F7720E030E040E85FE30E94853918168E
:102430000CF4B3C0C701B6010E94FD376B017C01EB
:102440008D89811104C0F7FAF094F7F8F094609147
:10245000EE057091EF058091F0059091F10590588F
:1024600021EE3EE245E652E40E947338A701960150
:102470000E940B3820E030E040E850E40E94FC3637
:1024800021EE3EE245E652E40E94FC3620E030E0D8
:1024900044E354E40E940C386B017C012EEA37EDD2
:1024A00044EF5AE36D817E818F8198850E94FC36CE
:1024B00022E539E44DE958E30E940C384B015C01F8
:1024C0002CE233E643E05DE369857A858B859C8564
:1024D0000E94FC369B01AC01C501B4010E940B387F
:1024E0004B015C0121EC33E74FE65CE36D857E85B3
:1024F0008F8598890E94FC369B01AC01C501B4010F
:102500000E940B384B015C0128E431E547E25DE3B2
:1025100069897A898B899C890E94FC369B01AC0170
:10252000C501B4010E940B3824E13EE245E653E4C4
:102530000E94FC369B01AC01C701B6010E940B381A
:102540000E94DB382091F2053091F305620F731F72
:1025500010922B0210922A0210922902072E000CD0
:10256000880B990B0E94A00881E065960FB6F8943D
:10257000DEBF0FBECDBFDF91CF91FF90EF90DF9018
:10258000CF90BF90AF909F908F907F906F905F9013
:102590004F90089526E029832CCE80E0E6CFCF929D
:1025A000EF92FF920F931F93CF93DF939091CF05FC
:1025B00091110CC09091D005911108C09091D10556
:1025C000911104C09091D205992341F0811104C06A
:1025D000411102C0653011F0CC20C1F1F22EC42FA0
:1025E000D62F182F8093290260932A0240932B0242
:1025F00020932C0200932D02E0922E0281E0C2DD96
:10260000882351F00E94B60980912B028093CF0558
:1026100080912A028093D00510932902D0932A0238
:10262000C0932B02F0922C0200932D02E0922E0216
:1026300080E0A8DD882351F00E94B60980912B022A
:102640008093D10580912A028093D205DF91CF91AA
:102650001F910F91FF90EF90CF900895CF93DF934C
:102660002091C0063091C106232B89F0FC01C09156
:10267000BC06D091BD0660817181CE010E948A3C6A
:10268000009729F08C1B9D0BDF91CF9108958FEF60
:102690009FEFFACFFB0101900020E9F73197AF01DE
:1026A000461B570BDC01ED91FC910280F381E02D7C
:1026B00019948F929F92AF92BF92EF92FF920F93D5
:1026C0001F93CF93DF93CDB7DEB7A1970FB6F894E2
:1026D000DEBF0FBECDBF7C01FA01CB0119A22230B3
:1026E00008F42AE08E010F5D1F4F822E912CB12C31
:1026F000A12CBF01A50194010E94CC37F901CA01A8
:102700006A3004F5605DD8016E938D01232B242B74
:10271000252B79F790E080E0109719F0BD01C701F3
:10272000B9DFA1960FB6F894DEBF0FBECDBFDF9123
:10273000CF911F910F91FF90EF90BF90AF909F901E
:102740008F900895695CDFCF8F929F92AF92BF9276
:10275000CF92DF92EF92FF920F931F93CF93DF936D
:102760007C01EB016C0182E0C80ED11C4701E5E061
:102770008E0E911C10E000E0F60141916F0150E0D7
:1027800070E060E02AE0CE0194DF5C01E881F9812D
:102790000190F081E02D6EE2CE0119958A0D9B1D0E
:1027A000080F191FC814D90439F7F701458150E003
:1027B00070E060E02AE0CE017CDF800F911FDF91A6
:1027C000CF911F910F91FF90EF90DF90CF90BF902E
:1027D000AF909F908F90089564ED72E05BCF0F9360
:1027E0001F93CF93DF93EC0155DF8C01CE01F4DF13
:1027F000800F911FDF91CF911F910F910895EF925C
:10280000FF920F931F93CF93DF938C017B01D0E056
:10281000C0E0F701EC0FFD1F6491662331F0C801A1
:1028200028DC892B11F02196F4CFC801D5DF8C0F5D
:102830009D1FDF91CF911F910F91FF90EF90089511
:10284000FC0180819181009711F00C94DD3360E0F0
:1028500070E0CB0108950F931F93CF93DF93EC01AA
:1028600088819981009759F02A813B812617370783
:1028700030F081E0DF91CF911F910F9108958B018E
:102880006F5F7F4F0E94973B009759F09983888331
:102890001B830A832C813D81232B59F7FC01108275
:1028A000E8CF80E0E7CFEF92FF920F931F93CF9393
:1028B000DF936115710541F480E0DF91CF911F91A5
:1028C0000F91FF90EF90089541155105A9F07B01FC
:1028D000EC010C811D81040F151FB801BCDF88239A
:1028E00059F3288139818C819D81B701820F931F13
:1028F0000E94833C1D830C8381E0DFCFCF93DF9365
:10290000EC0188819981009711F00E940E3B198299
:1029100018821D821C821B821A82DF91CF9108953A
:10292000CF93DF93EC01FB0101900020E9F7319791
:10293000AF01461B570BB7DF811102C0CE01DEDFAE
:10294000CE01DF91CF910895CF93DF93EC01FB018E
:102950004481558160817181A6DF811102C0CE0161
:10296000CDDFCE01DF91CF910895EF92FF920F93CB
:102970001F93CF93DF93EC017B018A01BA016BDFD8
:1029800081110AC0CE01BADFCE01DF91CF911F9134
:102990000F91FF90EF9008951D830C83B7018881FC
:1029A00099810E94833CF0CFFB0101900020E9F760
:1029B0003197AF01461B570BD8CF0F931F93CF937F
:1029C000DF9300D000D000D0CDB7DEB78C01862FCA
:1029D000F8011182108213821282158214824AE059
:1029E000BE016F5F7F4F90E00E942234BE016F5F97
:1029F0007F4FC801D9DF29960FB6F894DEBF0FBE0E
:102A0000CDBFDF91CF911F910F9108950F931F9329
:102A1000CF93DF93CDB7DEB762970FB6F894DEBFE2
:102A20000FBECDBF8C01CB01F80111821082138241
:102A30001282158214824AE0BE016F5F7F4F0E94AE
:102A40000334BE016F5F7F4FC801AEDF62960FB6E1
:102A5000F894DEBF0FBECDBFDF91CF911F910F91D4
:102A60000895EF92FF920F931F93CF93DF93CDB70B
:102A7000DEB7A1970FB6F894DEBF0FBECDBF7C01C5
:102A8000CB01BA01F70111821082138212821582E2
:102A900014828E010F5F1F4F22E044E00E94C0337A
:102AA000009781F0BC01C7017FDFA1960FB6F894B3
:102AB000DEBF0FBECDBFDF91CF911F910F91FF9071
:102AC000EF900895C7011ADFF0CFFB01DC011196EA
:102AD0001C921E9213961C921E92129715961C928F
:102AE0001E9214978617970741F0608171816115D6
:102AF000710519F04481558138CF0895FC01118288
:102B000010821382128215821482FB010190002030
:102B1000E9F73197AF01461B570B27CFCF92DF92D2
:102B2000EF92FF920F931F93CF93DF936C017B0182
:102B30008A014617570720F48F2D7A01062F182F88
:102B400066ED72E0C601DADFC091C006D091C10621
:102B5000EC16FD06F0F40C171D0708F4E801E091EF
:102B6000BC06F091BD06EC0FFD1F10811082609134
:102B7000BC067091BD066E0D7F1DC6016115710505
:102B800091F012DF8091BC069091BD06C80FD91F4D
:102B90001883C601DF91CF911F910F91FF90EF90A5
:102BA000DF90CF900895AADEEDCFFC018081918166
:102BB000009711F00C940E3B08950F931F93CF9341
:102BC000DF93CDB7DEB72C970FB6F894DEBF0FBEFC
:102BD000CDBF8C016A3068F0F0DEC8012C960FB6CC
:102BE000F894DEBF0FBECDBFDF91CF911F910F9143
:102BF0000895CE010196E1DE67ED72E0CE01079601
:102C00007DDFBE016F5F7F4FCE0107969DDEBC0169
:102C1000C8015BDFCE010796C8DFCE010196C5DF94
:102C2000DCCF8F929F92AF92BF92CF92DF92EF92C2
:102C3000FF920F931F93CF93DF93CDB7DEB76897C3
:102C40000FB6F894DEBF0FBECDBF7C01062F10E09B
:102C50000E944C0CF801EE0FFF1FEE0FFF1FE35810
:102C6000F94F6083718382839383000F111F000FDC
:102C7000111FF801EF5BF94F00811181228133812F
:102C800058016901A61AB70AC80AD90AC601B501CE
:102C900028EE33E040E050E00E94CC3749010CE3DD
:102CA00010E0C901B8010E94373AAC01C401841B8D
:102CB000950BB8010E94373A6B01CB01B8010E9415
:102CC000373A5C01C81AD90A642FCE01019675DF24
:102CD0006A2DCE01079671DFC601B8010E94373A0E
:102CE000CE0143966ADFBE016D5E7F4FCE010D9629
:102CF000ECDE69ED72E0CE010D9612DEBE01695F79
:102D00007F4F22DE69ED72E00BDEBE016F5F7F4F09
:102D10001BDEBC01C701D9DECE010D9646DFCE0118
:102D2000439643DFCE01079640DFCE0101963DDF9B
:102D3000C70168960FB6F894DEBF0FBECDBFDF9116
:102D4000CF911F910F91FF90EF90DF90CF90BF90A8
:102D5000AF909F908F900895AF92BF92CF92DF92E5
:102D6000EF92FF920F931F93CF93DF9300D01F92A8
:102D7000CDB7DEB78C016B017A018091EA04833311
:102D8000C1F45B016801C40ED51EC016D10681F1E5
:102D900011D88FE01AD8812F18D8802F16D80F5F3E
:102DA0001F4F80E012D8F50181935F010E94D00E81
:102DB000ECCF843369F50E94DA0E19830A838F2DD4
:102DC0008F778B83EC8264E070E0CE0101960E94E5
:102DD000B60EA70170E060E0C6010E947C3CE114E1
:102DE000F10421F0B701C6010E94B60E0E94D00E78
:102DF000C7010F900F900F900F90DF91CF911F910F
:102E00000F91FF90EF90DF90CF90BF90AF9008951B
:102E10000E94DA0E0F3F110509F030F419820A837F
:102E20001B8263E070E0D1CF17FD0BC019820A83CB
:102E300033E0169507953A95E1F7007E08600B831D
:102E4000F0CFC80126E0969587952A95E1F7807E18
:102E500019830A830115104C18F480618B83E1CF2C
:102E60008861FCCF1F93CF93DF931F92CDB7DEB75E
:102E7000182F80E591E00E94020A812F5FD827E099
:102E8000129FF0011124EE55FB4F228133813770E0
:102E900041E050E0BE016F5F7F4F820F931F5CDF08
:102EA00089810F90DF91CF911F910895FC01808D52
:102EB000883038F4218D328D232B19F0D3DF90E048
:102EC00008958FEF9FEF0895CF93DF93FC01248542
:102ED000283028F08FEF9FEFDF91CF910895EC011C
:102EE0000190F081E02D0084F185E02D1995892B6A
:102EF00089F38C85B7DF90E0EFCFCF93DF931F92FC
:102F0000CDB7DEB741E050E0BE016F5F7F4F24DFF9
:102F100089810F90DF91CF91089590E080E0EDCF0F
:102F2000CF93DF93C4E1D0E0F8DF882361F061E064
:102F300070E080E090E00E941C0C2197A9F780E0EF
:102F4000DF91CF91089581E0FBCF1F93CF93DF9363
:102F50001F921F92CDB7DEB760E372E080E090E091
:102F60000E941C0C1FB7F89480919204811127C015
:102F7000EAE2F0E18491E0E7F0E19491E82FF0E0FB
:102F8000EE0FFF1FEF59F14FA591B491EC91E9239A
:102F900021F461E085E30E943A0B61E085E30E9441
:102FA000C60B8CB580618CBD8CB580648CBD61E036
:102FB00084E30E94C60B61E083E30E94C60B80910C
:102FC00092048F5F809392041FBFEFEFFFE0E491C4
:102FD000F0E0EE0FFF1FE558F14F8591949190932B
:102FE000910480939004E5E4F0E1E491E0938F0490
:102FF00061E08AE00E94C60B0E94D00E80E591E05D
:103000000E94020A84E38093EA0480E80E948C0F05
:1030100087DF882371F188E00E948C0F7EDF883083
:1030200041F580E10E948C0F78DF803111F580E05E
:103030000E948C0F72DF182F81111BC08FE190E06E
:103040005CDF8330B1F480E48093930442E06EE16E
:1030500070E0812F0E94E60F42E06FE170E0812F67
:103060000E94E60F1F5F183089F781E08093EB0420
:103070005BC087E38093EA0480E80E948C0F50DFF6
:103080008823D9F088E00E948C0F47DF8830A9F4AC
:1030900080E10E948C0F41DF182F803171F480E0B5
:1030A0000E948C0F3ADF811108C089E390E025DF90
:1030B000843019F410939304D8CF83E38093EA0407
:1030C00080E80E948C0F2CDF882359F180E10E9458
:1030D0008C0F23DF803129F582E10E948C0F1DDFE8
:1030E0008231F9F480E00E948C0F17DF811119C042
:1030F00084E08093930415E51A8341E050E0BE011B
:103100006E5F7F4F8BE190E00E94EC0E198341E0EF
:1031100050E0BE016F5F7F4F8AE190E00E94EC0EAD
:10312000A4CF1092EA0480E00F900F90DF91CF912E
:103130001F910895CF92DF92EF92FF92CF93DF938A
:10314000CDB7DEB7C254D1090FB6F894DEBF0FBEBB
:10315000CDBFFC01428153816481758123964CAFC0
:103160005DAF6EAF7FAF239781E023968FAF23973C
:103170002396CCACDDACEEACFFAC2397CBAADCAA9B
:10318000EDAAFEAA4DA75EA76FA778AB88ABCDA42A
:10319000DEA4EFA4F8A8CFA2D8A6E9A6FAA68EAB23
:1031A000CBA8DCA8EDA8FEA8C9A2DAA2EBA2FCA2DB
:1031B00022EC32E03C8B2B8B9FEF9D8B9E8B9F8B69
:1031C000188E3E872D878AA7CFA0D8A4E9A4FAA499
:1031D000CF86D88AE98AFA8A8CA389A19AA1ABA161
:1031E000BCA189879A87AB87BC873A8329834B83A5
:1031F0005C836D837E838091EB04882309F443C054
:1032000080E591E00E94020A46E050E063E272E04D
:1032100089E090E00E94EC0E44E050E0BE016D5F5A
:103220007F4F8FE090E00E94EC0E44E050E0BE0142
:10323000615F7F4F81E090E00E94EC0E44E050E03F
:10324000BE016B5E7F4F85E090E00E94EC0E81E056
:103250008C8789859A85AB85BC858093A9059093D9
:10326000AA05A093AB05B093AC05CE5BDF4F0FB6BC
:10327000F894DEBF0FBECDBFDF91CF91FF90EF90EE
:10328000DF90CF90089561DE882379F3B9CF209144
:10329000930430E0322F2227620F731F90E0982FA3
:1032A0008827860F971F29CECF93C82F462F61E01E
:1032B00070E00E94E60F61E070E08C2FE8DF811182
:1032C000FACFCF910895CF93C82F80E591E00E9467
:1032D000020A68E070E08C2FCF91E6CFCF93C82F21
:1032E00080E591E00E94020A60E170E08C2FCF91AE
:1032F000DBCFCF93DF93EC01888D883018F4EEDFBD
:1033000088E0888FDF91CF91089563E070E0BFCFB0
:10331000CF93C82F80E591E00E94020A8C2FCF91B5
:10332000F4CFEF92FF920F931F93CF93DF937C0123
:103330008091EA04D4E0833309F0D8E00AED14E088
:10334000C0E0F801219131918F01F70184819581CD
:103350002817390729F0CF5FDC13F3CF80E005C0D1
:103360008C2FD6DF8431B9F781E0DF91CF911F91A7
:103370000F91FF90EF900895CF93DF93EC018C8530
:103380008830C8F4C5DF843189F0882379F088312A
:1033900069F021E08C3159F4E881F9810084F185EC
:1033A000E02DCE01199521E0892B09F420E0822F30
:1033B000DF91CF91089580E0FBCFCF92DF92EF9223
:1033C000FF92CF93DF93EC018C85883058F47BDF3C
:1033D0000E944C0C6B017C018C859ADF811109C025
:1033E00088E08C87DF91CF91FF90EF90DF90CF90B6
:1033F000089561E070E080E090E00E941C0C0E9463
:103400004C0CAB01BC014C195D096E097F098D851F
:103410009E85B0E0A0E0481759076A077B07E0F2F5
:103420008C855CDFDDCFCF93FC01C08D80E591E022
:103430000E94020A60E270E08C2F36DF62E070E0EA
:103440008C2F25DF84FD15C062E070E08C2F1FDF1C
:1034500083FF0AC048E162E070E08C2F0E94E60F13
:1034600080E090E0CF91089580E591E00E94020A0B
:10347000E5CF40E162E070E08C2F0E94E60F81E032
:10348000F0CFDA01E0919304F0E0FE2FEE27E60F93
:10349000F71F90E0982F8827A901BD018E0F9F1F6D
:1034A0005BCC8F929F92AF92BF92CF92DF92EF92BE
:1034B000FF920F931F93CF93DF93CDB7DEB7609743
:1034C0000FB6F894DEBF0FBECDBF7C019091EA0429
:1034D000911115C018E0812F60960FB6F894DEBFE9
:1034E0000FBECDBFDF91CF911F910F91FF90EF9055
:1034F000DF90CF90BF90AF909F908F90089508E09D
:10350000933309F404E06B0180E591E00E94020A24
:103510009E012F5F3F4F5901490110E0812FF5DED9
:10352000F40181934F018823B9F01F5F0113F6CF97
:1035300000E0F50181915F018D3149F0883139F06A
:103540008A51823020F00F5F1013F3CFC3CF60E1B8
:1035500070E0802FA9DE102FA12EB12CF501EE0F07
:10356000FF1FE652FB4F1182108283EE93E001971A
:10357000F1F742E870E060E0812F0E94E60F4FEF24
:1035800062E070E0812F0E94E60FB601C114D10401
:1035900091F4809121029091220201968115F0EC24
:1035A0009F0708F45AC090932202809321026091F1
:1035B000210270912202812F0E94D10F86E0E9E45E
:1035C000F2E0DE01199601900D928A95E1F7F7017C
:1035D00083818F778C8784818D8785818E87A701F2
:1035E0004E5F5F4F24E030E06CE070E0812F0E947E
:1035F000AC0FB601812F0E94BC0F26E030E0AE0177
:10360000475F5F4F66E070E0812F0E94AC0F61E082
:1036100070E0812F49DE27E02A9DC0012B9D900D8F
:1036200011249C012E553B4F7901F9011182108222
:1036300022E030E0AE01415F5F4F68E270E0812F31
:1036400020DF8F859889982789279827F70193830A
:1036500082831682158214823ECF80E090ECA3CF45
:10366000CF92DF92EF92FF920F931F93CF93DF934E
:1036700000D000D0CDB7DEB78C016B017A01FC0120
:10368000808D883008F42ADE82EC92E09A83898368
:10369000F60182819381A481B5818B839C83AD8364
:1036A000BE83B701CE010196FCDEF801808F883021
:1036B000A0F4F586E486128E118E81E026960FB670
:1036C000F894DEBF0FBECDBFDF91CF911F910F9158
:1036D000FF90EF90DF90CF90089580E0EFCF7F9242
:1036E0008F929F92AF92BF92CF92DF92EF92FF9212
:1036F0000F931F93CF93DF931F921F92CDB7DEB727
:10370000782E8B014A01590122E030E0AE014F5F73
:103710005F4F64E270E0B5DEE980FA80FE24EF24BA
:10372000FE24E00EF11E970137704091EA04072D48
:1037300010E0433309F042C0085F1F4F102F0027ED
:10374000110F110F110FC901800F911F4733C9F1DC
:10375000A9014A0D5B1D4130584098F160E078E0C6
:103760006B01C21AD30AA601B4010E94EC0EA50196
:103770004C195D09B4016C0D7D1DC8010E94EC0E51
:10378000EA0CFB1CF982EA8222E030E0AE014F5FD6
:103790005F4F64E270E0872D0E94AC0F0F900F9096
:1037A000DF91CF911F910F91FF90EF90DF90CF901D
:1037B000BF90AF909F908F907F900895005F1F4FB4
:1037C000BDCFA501B401DACFEF92FF921F93CF9343
:1037D000DF931F921F92CDB7DEB7182F22E030E0A3
:1037E000AE014F5F5F4F60E270E04BDEE980FA8030
:1037F000FE24EF24FE2422E030E0AE014F5F5F4F55
:1038000060E270E0812F3DDE89819A8198278927C7
:103810009827E816F90689F487E0189FF00111242B
:10382000EE55FB4FF582E482C7010F900F90DF91B8
:10383000CF911F91FF90EF9008957C01DCCF1F93F3
:10384000CF93DF93182F80E591E00E94020A812F29
:10385000BBDFEC01812F59DD873121F08C3111F074
:10386000D0E0C0E0CE01DF91CF911F910895CF93BA
:10387000DF93EC018C85883050F44ADD873111F0FC
:103880008C3129F48C85DBDF8115984098F3DF912A
:10389000CF910895FC018485883008F4D0CF90E062
:1038A00080E00895CF92DF92EF92FF921F93CF9323
:1038B000DF93182F7B01EA014130584010F0C0E03F
:1038C000D8E080E591E00E94020A812F7DDF6C0143
:1038D000812F1BDD873111F08C3101F5CC16DD060F
:1038E00080F380E591E00E94020A9E01A70170E04A
:1038F00060E0812FF4DE60E270E0812FD5DC62E0D1
:1039000070E0812FC4DC84FD0CC0812FFEDC882395
:10391000B9F080E591E00E94020AF1CFD0E0C0E06A
:10392000E0CF40E162E070E0812F0E94E60FCE011F
:10393000DF91CF911F91FF90EF90DF90CF9008958E
:10394000D0E0C0E0F4CF0F931F93CF93DF938C01AF
:10395000EA01FC018485883040F4A4DF892B39F426
:1039600081E090E0F80193838283D0E0C0E0CE0153
:10397000DF91CF911F910F9108950F931F93CF93D4
:10398000DF93EC01FB014481558160817181DBDFB4
:103990008C01CE010E94EC13800F911FDF91CF911B
:1039A0001F910F9108959F92AF92BF92CF92DF9295
:1039B000EF92FF920F931F93CF93DF938C015B01E4
:1039C000942EE52EFC01C688D788F08C80E591E026
:1039D0000E94020A8F2DF8DEC92DDE2D8C179D075F
:1039E00008F4EC019E01A501B6018F2D78DEF801E7
:1039F000868997898C0F9D1F978B868BCE01DF91CF
:103A0000CF911F910F91FF90EF90DF90CF90BF90DB
:103A1000AF909F900895FF920F931F93CF93DF93E2
:103A20001F921F92CDB7DEB7F82E22E030E0AE0134
:103A30004F5F5F4F66E270E024DD09811A81102735
:103A40000127102722E030E0AE014F5F5F4F66E2B2
:103A500070E08F2D16DD89819A8198278927982714
:103A60000817190749F4C8010F900F90DF91CF9103
:103A70001F910F91FF9008958C01E4CF1F93CF9376
:103A8000DF93182F87E0189FE0011124CE55DB4FFC
:103A900088819981009759F480E591E00E94020A9B
:103AA000812FB9DF2E81821B910999838883DF9151
:103AB000CF911F9108959F92AF92BF92CF92DF92C4
:103AC000EF92FF920F931F93CF93DF93EC017B0153
:103AD0008091EA04811121C01B821A8288EE93E052
:103AE000A0E0B0E08C839D83AE83BF8383E592E04A
:103AF0009983888388E08C8788EE93E09E878D8702
:103B0000CE01DF91CF911F910F91FF90EF90DF9049
:103B1000CF90BF90AF909F90089534E0932E833361
:103B200011F028E0922E8AEDC82E84E0D82E10E005
:103B300098E0B92EA12CD6012D913D916D01F70190
:103B4000848195812817390779F4812FE1DB082FCB
:103B5000873111F08C3129F5812F90DF892B51F5B8
:103B60000C3111F4812FAFDB1F5F9112E4CFA11054
:103B700008C0D701ED91FC910084F185E02DC701CB
:103B800019951B821A8288EE93E0A0E0B0E08C8346
:103B90009D83AE83BF8383E592E099838883BC864F
:103BA000ABCF843149F08111DFCFF601329711821A
:103BB0001082DACFB12ED8CFAA24A394D5CF8F927A
:103BC0009F92AF92BF92CF92DF92EF92FF920F93AC
:103BD0001F93CF93DF93CDB7DEB72F970FB6F8942F
:103BE000DEBF0FBECDBF5C014B017A018091EA04BC
:103BF0008823B1F104E0833309F008E0B501CE0178
:103C0000019659DF8AEDC82E84E0D82E10E0F60127
:103C1000219131916F01F501848195812817390730
:103C200041F4812F75DB873121F4A701B401812F85
:103C300039DE1F5F0113EBCFC7012F960FB6F89443
:103C4000DEBF0FBECDBFDF91CF911F910F91FF90CF
:103C5000EF90DF90CF90BF90AF909F908F9008959E
:103C6000F12CE12CE9CFFC018485883008F406CFE3
:103C700090E080E008954F925F927F928F929F92A2
:103C8000AF92BF92CF92DF92EF92FF920F931F936A
:103C9000CF93DF931F921F92CDB7DEB7782E6B01C3
:103CA0004A01A82EB12C27E0829FC0011124FC01FB
:103CB000EE55FB4F7F010081118180E591E00E946C
:103CC000020A081519054CF4872DA5DEF701268197
:103CD0008C01021B1109118300830115110511F5D7
:103CE000872D13DB843159F0882349F001E010E07F
:103CF0008C3111F410E000E0119501951109C80113
:103D00000F900F90DF91CF911F910F91FF90EF9047
:103D1000DF90CF90BF90AF909F908F907F905F90FB
:103D20004F900895801691060CF4840187E08A9DD7
:103D3000F0018B9DF00D1124EE55FB4FE280F380D6
:103D4000C114D10451F12701F7E05F22872D0E94B1
:103D50009E0F840D951D2091EA04273309F452C06B
:103D60009801240D351D2130384008F44BC020E067
:103D700038E0490184189508A401B6010E94AC16E8
:103D80002601480C591C6801C818D908872D0E94C3
:103D90009E0FA601B2010E94AC16E00EF11E87E054
:103DA0008A9DF0018B9DF00D1124EE55FB4FF3829F
:103DB000E28220813181201B310B31832083868177
:103DC000800F912F911D8A3F910510F4232BE9F468
:103DD00087E08A9DF0018B9DF00D1124EE55FB4F7D
:103DE0001682F982EA8222E030E0AE014F5F5F4F37
:103DF00068E270E0872D0E94AC0F60E470E0872DD0
:103E000053DA7DCFA801B601C6CF868378CFCF9392
:103E1000DF93FC01218D328D2115310529F48FEFBF
:103E20009FEFDF91CF910895EC01808D42175307EA
:103E300008F0A90120DF181619068CF7298D3A8D94
:103E4000281B390B3A8F298FECCF0F931F93CF93F9
:103E5000DF931F92CDB7DEB7FC01218D328D232B6E
:103E600041F48FEF9FEF0F90DF91CF911F910F9152
:103E700008958C0141E050E0BE016F5F7F4FFC016F
:103E8000808DF9DE1816190664F7F801818D928D80
:103E90000197928F818F898190E0E5CFCF93DF9357
:103EA0001F92CDB7DEB741E050E0BE016F5F7F4F9C
:103EB000FC018485E0DE1816190634F4898190E04F
:103EC0000F90DF91CF9108958FEF9FEFF9CFCF92B1
:103ED000DF92EF92FF920F931F93CF93DF93CDB7B3
:103EE000DEB7EE970FB6F894DEBF0FBECDBF6FEB17
:103EF00075E0CE014296DFDD8E8D883008F02CC74C
:103F000066ED72E0CE01C3960E947E150E944C0CB5
:103F10006093CB057093CC058093CD059093CE052F
:103F200060938B0470938C0480938D0490938E0423
:103F3000CE01429621DA882309F400C78091CB058F
:103F40009091CC05A091CD05B091CE0540918B0408
:103F500050918C0460918D0470918E04841B950B9C
:103F6000A60BB70B813D9740A105B10508F0E6C649
:103F70000E944C0C6093CB057093CC058093CD05CB
:103F80009093CE05CE0142966EDE892B89F2CE014A
:103F9000429684DF182F89831A8241E050E0BE01E7
:103FA0006F5F7F4F8CEB96E00E9453141A3009F03C
:103FB000D4C78FA998AD892B09F0C7C76BED72E004
:103FC000CE0142960E94EF136BEE72E0CE01429654
:103FD0000E94EF1362E073E0CE0142960E94EF135D
:103FE000CE0142960E94EC1364E173E0CE0101968B
:103FF0000E947E15CE0101960E942E138C01CE01E7
:1040000001960E94D51517FD03C081E08093200220
:104010006FE173E0CE0101960E947E15CE010196FC
:104020000E942E138C01CE0101960E94D51517FF18
:10403000109220026BE273E0CE0101960E947E1581
:10404000CE0101960E942E138C01CE0101960E9492
:10405000D51517FD08C080911E0290911F02909304
:104060001D0280931C0266E373E0CE0101960E945C
:104070007E15CE0101960E942E138C01CE01019671
:104080000E94D51517FD03C08EE00E94DA0C62E491
:1040900073E0CE0101960E947E15CE0101960E942A
:1040A0002E138C01CE0101960E94D51517FD07C075
:1040B0004EE060EC77E289E090E00E94810C6DE4D4
:1040C00073E0CE0101960E947E15CE0101960E94FA
:1040D0002E138C01CE0101960E94D51517FD03C049
:1040E0008DE00E94DA0C69E573E0CE0101960E9432
:1040F0007E15CE0101960E942E138C01CE010196F1
:104100000E94D51517FD07C04DE060EC77E289E00D
:1041100090E00E94810C64E673E0CE0101960E945B
:104120007E15CE0101960E942E138C01CE010196C0
:104130000E94D51517FD03C08CE00E94DA0C60E7E1
:1041400073E0CE0101960E947E15CE0101960E9479
:104150002E138C01CE0101960E94D51517FD07C0C4
:104160004CE060E87FE482E190E00E94810C6BE724
:1041700073E0CE0101960E947E15CE0101960E9449
:104180002E138C01CE0101960E94D51517FD03C098
:1041900081E080938A0466E873E0CE0101960E9474
:1041A0007E15CE0101960E942E138C01CE01019640
:1041B0000E94D51517FF10928A0462E973E0CE01C0
:1041C00001960E947E15CE0101960E942E138C014D
:1041D000CE0101960E94D51517FD03C081E08093A2
:1041E0001B026DE973E0CE0101960E947E15CE019F
:1041F00001960E942E138C01CE0101960E94D515C6
:1042000017FF10921B0269EA73E0CE0101960E942B
:104210007E15CE0101960E942E138C01CE010196CF
:104220000E94D51517FD03C089E00E94DA0C64EBEB
:1042300073E0CE0101960E947E15CE0101960E9488
:104240002E138C01CE0101960E94D51517FD07C0D3
:1042500049E060EC77E289E090E00E94810C6EEB2F
:1042600073E0CE0101960E947E15CE0101960E9458
:104270002E138C01CE0101960E94D51517FF1092C6
:104280001A0269EC73E0CE0101960E947E15CE0100
:1042900001960E942E138C01CE0101960E94D51525
:1042A00017FD03C081E080931A0263ED73E0CE0135
:1042B00001960E947E15CE0101960E942E138C015C
:1042C000CE0101960E94D51517FD03C087E00E941C
:1042D000DA0C6EED73E0CE0101960E947E15CE01E0
:1042E00001960E942E138C01CE0101960E94D515D5
:1042F00017FD07C047E060EC77E289E090E00E949C
:10430000810C68EE73E0CE0101960E947E15CE010D
:1043100001960E942E138C01CE0101960E94D515A4
:1043200017FF1092190263EF73E0CE0101960E940D
:104330007E15CE0101960E942E138C01CE010196AE
:104340000E94D51517FD03C081E0809319026DEF1F
:1043500073E0CE0101960E947E15CE0101960E9467
:104360002E138C01CE0101960E94D51517FD07C0B2
:1043700045E06CED75E080E090E00E94810C67E024
:1043800074E0CE0101960E947E15CE0101960E9436
:104390002E138C01CE0101960E94D51517FD07C082
:1043A00044E06CED75E080E090E00E94810C61E1FA
:1043B00074E0CE0101960E947E15CE0101960E9406
:1043C0002E138C01CE0101960E94D51517FD07C052
:1043D00043E06CED75E080E090E00E94810C6BE1C1
:1043E00074E0CE0101960E947E15CE0101960E94D6
:1043F0002E138C01CE0101960E94D51517FD03C026
:1044000081E08093180265E274E0CE0101960E947B
:104410007E15CE0101960E942E138C01CE010196CD
:104420000E94D51517FF1092180260E374E0CE01C8
:1044300001960E947E15CE0101960E942E138C01DA
:10444000CE0101960E94D51517FDB1C04FE050E096
:104450006BE070E0CE0101960E948E15CE010196B0
:104460000E9420147093FA056093F905CE0101961D
:104470000E94D51542E150E060E170E0CE01019666
:104480000E948E15CE0101960E9420146093FB05B8
:10449000CE0101960E94D51545E150E063E170E040
:1044A000CE0101960E948E15CE0101960E94201425
:1044B0006093FC05CE0101960E94D51548E150E0BD
:1044C00066E170E0CE0101960E948E15CE01019644
:1044D0000E9420146093FE05CE0101960E94D5151E
:1044E0004BE150E069E170E0CE0101960E948E152B
:1044F000CE0101960E9420146093FF05CE01019623
:104500000E94D515109229021091FF0510932A02DE
:10451000F090FE05F0922B02D090FC05D0922C0278
:104520000091FB0500932D02E090F90580E3E80E71
:10453000E0922E020E947809813009F0ECC087E0F9
:104540008093FD058CE390E09093F3058093F20552
:1045500085E39DEDA0E5B2E48093EA059093EB0539
:10456000A093EC05B093ED058AE69AE5A6EAB1E4DE
:104570008093EE059093EF05A093F005B093F105BD
:1045800083E08093F40584E08093F5059AE09093AE
:10459000F6058093F7058CE38093F805CC24C3944B
:1045A0002D2D4F2D612F809100060E94CF126BE4BC
:1045B0007EE0CE0142960E94FF1360E07EE0CE01D5
:1045C00042960E94FF1360EE7DE0CE0142960E946B
:1045D000FF136CE77DE0CE0142960E94FF1367E275
:1045E0007DE0CE0142960E94FF1360EE7CE0CE019A
:1045F00042960E94FF136BEA7CE0CE0142960E9435
:10460000FF136BE77CE0CE0142960E94FF136BE63E
:104610007CE0CE0142960E94FF136AE57CE0CE0169
:1046200042960E94FF136091FC05CE018D960E9478
:10463000DD156091FB05CE0187960E94DD15809106
:10464000F9059091FA051AA219A21CA21BA21EA29A
:104650001DA24AE0BE016F5F7F4F0E942234BE015F
:104660006F5F7F4FCE0181960E94D414BE016F5DB3
:104670007F4FCE0101960E9465156CE374E0CE0178
:1046800001960E949014BE01695D7F4F0E94A414A0
:104690006CE374E00E949014BE01635D7F4F0E9442
:1046A000A414BC01CE01C9960E946515CE010196E5
:1046B0000E94D515CE0181960E94D515CE01879610
:1046C0000E94D515CE018D960E94D515BE01675C5E
:1046D0007F4FCE01429651D9CE01C9960E94D51581
:1046E00068E57CE0CE0142960E94FF13E091FD0553
:1046F000E15069E774E0E73090F4F0E08827EC5788
:10470000FC4D8F4F0C944A3A8D2353275627592737
:104710005C275F276227815013CF6EE374E0CE01E0
:1047200001960E947E15BE016F5F7F4FCE014296BB
:1047300024D9CE0101960E94D5156DE47CE0CE010E
:1047400042960E94FF1360910006CE018D960E9452
:10475000DD156091FF05CE0187960E94DD15609101
:10476000FE05CE0101960E94DD15BE016F5F7F4FF1
:10477000CE0181960E94651569ED72E0CE018196A9
:104780000E949014BE01695D7F4F0E94A41469EDE0
:1047900072E00E949014BE01635D7F4F0E94A414DA
:1047A000BC01CE01C9960E946515CE0181960E947A
:1047B000D515CE0101960E94D515CE0187960E948F
:1047C000D515CE018D960E94D515BE01675C7F4F31
:1047D000CE014296D2D8CE01C9960E94D51566E484
:1047E0007CE0CE0142960E94FF1360E37CE0CE01A4
:1047F00042960E94FF136091CF05CE0101960E9460
:10480000DD14BE016F5F7F4FCE014296B6D8CE0158
:1048100001960E94D5156EE27CE0CE0142960E9480
:10482000FF136091D005CE0101960E94DD14BE01F8
:104830006F5F7F4FCE014296A0D8CE0101960E94B5
:10484000D51564E17CE0CE0142960E94FF13609191
:10485000D105CE0101960E94DD14BE016F5F7F4F2E
:10486000CE0142968AD8CE0101960E94D51562E10A
:104870007CE0CE0142960E94FF136091D205CE01EA
:1048800001960E94DD14BE016F5F7F4FCE014296FC
:1048900074D8CE0101960E94D51566EF7BE0CE015B
:1048A00042960E94FF1360911E0270911F02CE017A
:1048B00001960E940615BE016F5F7F4FCE014296A2
:1048C0005CD8CE0101960E94D5156FEE7BE0CE013B
:1048D00042960E94FF13809120026DE97BE08823BD
:1048E00011F063E47BE0CE0142960E94FF136BE07F
:1048F0007BE0CE0142960E94FF1360911C027091F2
:104900001D02CE0101960E940615BE016F5F7F4F0A
:10491000CE01429632D8CE0101960E94D5156DEF98
:104920007AE0CE0142960E94FF13809118026CEA51
:104930007AE0882311F06EE47AE0CE0142960E947C
:10494000FF1385E00E94580C68E07AE0882311F09C
:1049500065EC79E0CE0142960E94FF1384E00E944C
:10496000580C60E879E0882311F06CE379E0CE011F
:1049700042960E94FF1368E279E0CE0142960E94BF
:10498000FF1368E079E0CE0142960E94FF13409148
:104990008604509187046091880470918904CE0147
:1049A00001960E943115BE016F5F7F4FCE01429686
:1049B0000E94BD1CCE0101960E94D5156CEF78E0D7
:1049C000CE0142960E94FF1380911902882309F4B8
:1049D0007CC269EC78E0CE0142960E94FF134091C0
:1049E0008204509183046091840470918504CE0107
:1049F00001960E943115BE016F5F7F4FCE01429636
:104A00000E94BD1CCE0101960E94D51563EB78E093
:104A1000CE0142960E94FF1387E00E94580C62E28A
:104A200078E08823F1F062EF77E0CE0142960E94B1
:104A3000FF1367E0CE0101960E941116BE016F5F61
:104A40007F4FCE0142960E94BD1CCE0101960E946E
:104A5000D51564EE77E0CE0142960E94FF1365EA19
:104A600077E0CE0142960E94FF1380911A028823BC
:104A700009F44BC262E777E0CE0142960E94FF1331
:104A800040917E0450917F04609180047091810474
:104A9000CE0101960E943115BE016F5F7F4FCE019E
:104AA00042960E94BD1CCE0101960E94D5156CE570
:104AB00077E0CE0142960E94FF1389E00E94580CD5
:104AC0006BEC76E08823F1F06BE976E0CE0142965C
:104AD0000E94FF1369E0CE0101960E941116BE01EB
:104AE0006F5F7F4FCE0142960E94BD1CCE010196A2
:104AF0000E94D5156DE876E0CE0142960E94FF1324
:104B00006EE476E0CE0142960E94FF1364E376E005
:104B1000CE0142960E94FF1366E1CE0101960E94EB
:104B2000DD14BE016F5F7F4FCE0142960E94BD1C17
:104B3000CE0101960E94D51565E176E0CE01429640
:104B40000E94FF1362E1CE0101960E94DD14BE01B6
:104B50006F5F7F4FCE0142960E94BD1CCE01019631
:104B60000E94D5156DE076E0CE0142960E94FF13BB
:104B700069EF75E0CE0142960E94FF1360EE75E08A
:104B8000CE0142960E94FF1360EB74E0CE010196C5
:104B90000E940615BE016F5F7F4FCE0142960E94B4
:104BA000BD1CCE0101960E94D51562EC75E0CE01C8
:104BB00042960E94FF1368E572E0CE0101960E94C2
:104BC0000615BE016F5F7F4FCE0142960E94BD1C4D
:104BD000CE0101960E94D51564EA75E0CE01429699
:104BE0000E94FF1368E572E0CE0101960E9406154F
:104BF000BE016F5F7F4FCE0142960E94BD1CCE0169
:104C000001960E94D5156EE975E0CE0142960E948C
:104C1000FF1380911B026DE475E0811102C062E018
:104C200075E0CE0142960E94FF1380918A0466EBE4
:104C300074E0882311F066E474E0CE0142960E948D
:104C4000FF138CE00E94580C68E074E08823C1F0E8
:104C50006BEC73E0CE0142960E94FF136CE0CE0134
:104C600001960E941116BE016F5F7F4FCE014296E2
:104C70000E94BD1CCE0101960E94D5156DEB73E01C
:104C8000CE0142960E94FF138DE00E94580C6FE700
:104C900073E08823C1F062E473E0CE0142960E9483
:104CA000FF136DE0CE0101960E941116BE016F5FE9
:104CB0007F4FCE0142960E94BD1CCE0101960E94FC
:104CC000D51564E373E0CE0142960E94FF138EE097
:104CD0000E94580C62EF72E08823C1F065EB72E02D
:104CE000CE0142960E94FF136EE0CE0101960E9413
:104CF0001116BE016F5F7F4FCE0142960E94BD1C10
:104D0000CE0101960E94D51563EA72E0CE0142966B
:104D10000E94FF1367E572E0CE0142960E94FF13E6
:104D2000CE0142960E94EC1368E472E0CE014296F6
:104D30000E94FF13CE0142960E94EC1366ED72E0D2
:104D40008CEB96E00E94D414CE0142960E94DD19AD
:104D5000CE01C3960E94D5158EE00E94580C60E0EB
:104D6000811101C061E089E10E943A0B8DE00E944F
:104D7000580C60E0811101C061E086E10E943A0BAD
:104D80008CE00E94580C60E0811101C061E087E175
:104D90000E943A0B89E00E94580C60E0811101C02A
:104DA00061E08CE10E943A0B87E00E94580C60E0C1
:104DB000811101C061E08DE10E943A0B85E00E9403
:104DC000580C60E0811101C061E08BE10E943A0B58
:104DD00084E00E94580C60E0811101C061E08AE12A
:104DE0000E943A0B83E00E94580C60E0811101C0E0
:104DF00061E088E10E943A0B80918A04813051F48D
:104E00004CE060E87FE482E190E00E94810C82E067
:104E100080938A048CE00E94580C81110EC080910E
:104E20008A04823051F44DE060EC77E289E090E052
:104E30000E94810C83E080938A048DE00E94580CCC
:104E400081110DC080918A04833049F44EE060ECFA
:104E500077E289E090E00E94810C10928A048091B0
:104E600000062091FE059091CF05291387C020915F
:104E7000FF059091D005291381C0811180C08091D8
:104E80009E0481117EC081E080939E04809118026F
:104E9000882309F476C045E06CED75E080E090E091
:104EA0000E94810C6EC06BE474E039CC62E574E062
:104EB00036CC68E574E033CC61E674E030CC68E66B
:104EC00074E02DCC6FE674E02ACC69E778E0CE017F
:104ED00042960E94FF134091820450918304609196
:104EE000840470918504CE0101960E943115BE01A3
:104EF0006F5F7F4FCE0142960E94BD1CCE0101968E
:104F00000E94D51565E678E083CD62E277E0CE01B8
:104F100042960E94FF1340917E0450917F0460915D
:104F2000800470918104CE0101960E943115BE016A
:104F30006F5F7F4FCE0142960E94BD1CCE0101964D
:104F40000E94D5156EE077E0B4CD66ED72E0CE013B
:104F5000C3960E94D4140C94981F1D3011F40C9425
:104F6000981F19831A8241E050E0BE016F5F7F4FA6
:104F7000CE01C3960E9453140C94981F8111109275
:104F80009E04809100062091FE059091D105291381
:104F90001BC02091FF059091D205291315C08111E6
:104FA00014C080919F04811112C081E080939F04FE
:104FB00080911802882359F044E06CED75E080E0A0
:104FC00090E00E94810C03C0811110929F04809197
:104FD00000069091FE05943109F00DC19091FF05F6
:104FE0009F3009F008C1811109C18091A00481118D
:104FF00007C081E08093A00490911B02911101C130
:105000000E944C0C009101061091020620910306AB
:1050100030910406601771078207930798F0D90151
:10502000C80188519C4FAF4FBF4F809301069093AA
:105030000206A0930306B0930406809100068F5FDA
:1050400080930006809100068C3338F08091FF0534
:105050008F5F8093FF05109200068091FF058C33CF
:1050600038F08091FE058F5F8093FE051092FF055A
:105070008091FE05883160F08091FD059091FC05DE
:105080009F5F9093FC058F5F8093FD051092FE0556
:105090008091FD05883018F081E08093FD058091B6
:1050A000FB05823051F48091FC058D3131F483E0B1
:1050B0008093FB0581E08093FC058091FB05982F90
:1050C0009D7F943011F0993051F49091FC059F31FF
:1050D00030F08F5F8093FB0581E08093FC05809129
:1050E000FB05982F9D7F913051F0853041F099EF6D
:1050F000980F923020F08A3011F08C3051F490915A
:10510000FC05903230F08F5F8093FB0581E0809347
:10511000FC058091FB058D3060F08091F905909140
:10512000FA0521E02093FB0501969093FA05809300
:10513000F905E090F90520E3E20EC12C0091FB0592
:105140002091FC054091FE056091FF0580910006CD
:105150000E94CF120E94B60D80E192E00E94160ECE
:1051600060938604709387048093880490938904E5
:1051700088E092E00E94160E60937E0470937F0494
:10518000809380049093810480E092E00E94160E48
:1051900060938204709383048093840490938504C5
:1051A00080917B00877F80937B0080E480937C00EC
:1051B00080917A00806480937A0080917A0086FDE5
:1051C000FCCF9091780080917900892798278927D2
:1051D00090931F0280931E02EE960FB6F894DEBFE6
:1051E0000FBECDBFDF91CF911F910F91FF90EF9038
:1051F000DF90CF900895882309F402CF1092A00485
:10520000FFCE80938A04FCCEFC018485883010F4A4
:105210000C943B1E90E080E008958F929F92AF9295
:10522000BF92CF92DF92EF92FF920F931F93CF9393
:10523000DF9300D000D000D01F92CDB7DEB79091A1
:10524000EA04911115C018E0812F2A960FB6F89440
:10525000DEBF0FBECDBFDF91CF911F910F91FF90A9
:10526000EF90DF90CF90BF90AF909F908F90089578
:1052700028E0F22E933311F494E0F92E6B01082FFD
:1052800080E591E00E94020A9E012F5F3F4F590185
:10529000490110E0812F0E948519F40181934F018B
:1052A0008823C1F01F5FF112F5CFF12CF501919128
:1052B0005F019D3149F0983139F09A51923020F0D8
:1052C000F3941F11F3CFBFCF60E170E08F2D0E94E8
:1052D00054191F2DE12EF12CF701EE0FFF1FE6529E
:1052E000FB4F1182108283EE93E00197F1F7402F7C
:1052F00070E060E0812F0E94E60F4FEF62E070E007
:10530000812F0E94E60FB601CD2889F480912102F9
:105310009091220201968115F0EC9F0798F19093ED
:105320002202809321026091210270912202812F3A
:105330000E94D10F61E070E0812F0E94541927E094
:105340002E9DC0012F9D900D11249C012E553B4F89
:105350007901F9011182108222E030E0AE01475F4D
:105360005F4F68E270E0812F0E94411A89859A851B
:10537000982789279827F7019383828316821582BD
:10538000148262CF80E090ECCACF0F931F93CF932B
:10539000DF93EC018B01888D883010F40E946E1928
:1053A000B80182E03ADF888F883050F41D870C877F
:1053B0001A8E198E81E0DF91CF911F910F91089580
:1053C00080E0F9CF0F931F93CF938C01FC01648190
:1053D000758181E222DFC82F8830F8F480E591E002
:1053E0000E94020A8C2F0E948519833131F08C2F84
:1053F000CF911F910F910C94631962E070E08C2F94
:105400000E945419F80184819581EC2FF0E0EE0F91
:10541000FF1FE652FB4F91838083CF911F910F9125
:105420000895CF92DF92EF92FF921F93CF93DF9375
:10543000EC017B016A018C85883048F40E94881950
:10544000882319F08C850E94631988E08C87F70106
:1054500082819381A481B5810097A105B10551F4A2
:1054600090E080E0DF91CF911F91FF90EF90DF906F
:10547000CF9008958F3F9F4FAF4FBF4F89F370E09C
:1054800060E081E2CADE182F8C87883048F780E51B
:1054900091E00E94020AA7014E5F5F4F24E030E0D6
:1054A0006CE070E0812F0E94AC0FB601812F0E944A
:1054B000BC0F64E070E0812F0E9454190E944C0CD4
:1054C0006B017C018C850E948819873111F18C3128
:1054D00001F1882329F20E944C0CAB01BC014C194C
:1054E0005D096E097F098D859E85B0E0A0E0841777
:1054F0009507A607B70738F061E070E080E090E01C
:105500000E941C0CDFCF8C850E946E1988E08C876E
:10551000A7CF81E090E0A6CF0F931F93CF93DF93A7
:105520001F921F92CDB7DEB7FC0124852830E0F42E
:105530008C0180E591E00E94020A22E030E0AE0199
:105540004F5F5F4F60E170E0F80184850E94411A6F
:1055500089819A819827892798270F900F90DF914A
:10556000CF911F910F91089590E080E0F6CF0F93B7
:105570001F93CF93DF931F921F92CDB7DEB7FC012D
:1055800024852830E0F48C0180E591E00E94020A35
:1055900022E030E0AE014F5F5F4F64E070E0F80161
:1055A00084850E94411A89819A81982789279827A2
:1055B0000F900F90DF91CF911F910F91089590E080
:1055C00080E0F6CF0F931F93CF93DF9300D000D0EE
:1055D0001F921F92CDB7DEB78C01D80159964D911D
:1055E0005C915A974115510551F0ED91FC91048C55
:1055F000F58DE02D70E060E0C8011995EECFF8015F
:10560000808D0E943E1D892BB1F148E050E0BE0123
:105610006F5F7F4FD80158968C910E943B1E1816E1
:105620001906F4F4D801509684E0FE0131960190F9
:105630000D928A95E1F78D8190E0982F88272E8131
:10564000820F911DF801958B848B8F81282F30E07C
:10565000322F22278885820F932F911D928F818F61
:1056600028960FB6F894DEBF0FBECDBFDF91CF9165
:105670001F910F91089590E080E0F2CF4F925F92DA
:105680006F927F928F929F92AF92BF92CF92DF9252
:10569000EF92FF920F931F93CF93DF93CDB7DEB7B7
:1056A00063970FB6F894DEBF0FBECDBF7C016B01D0
:1056B0003A01FB0120E090E080E06AE03191332381
:1056C00009F460C040ED430F4A3008F04CC0689FB9
:1056D000A001699F500D1124CA01C097830F911D2D
:1056E00037FD9A958F3F910549F340F3F7014281C9
:1056F0005381648175818091B5059091B605A09123
:10570000B705B091B805481759076A077B0709F430
:105710000BC28701085F1F4F0E944C0C6F707727E8
:105720007C5FC80132DE813009F003C282EC92E076
:105730009A838983F70182819381A481B5818B83C8
:105740009C83AD83BE8345E350E0BE016F5F7F4F16
:10575000C8010E946B10892BA9F5D12CC12CC8015E
:105760000E94791917C03E3209F0C0CF233009F4E6
:10577000BDCFD301A20FB11D12968C932F5F90E085
:1057800080E09CCF233009F0B1CFF3018583CC2496
:10579000C394D12CC60163960FB6F894DEBF0FBE3A
:1057A000CDBFDF91CF911F910F91FF90EF90DF90D0
:1057B000CF90BF90AF909F908F907F906F905F90B1
:1057C0004F9008950E944C0CF7017783668342E066
:1057D00050E0B7016A5F7F4FC8010E94D31C81E08F
:1057E00090E09A83898342E050E0BE016F5F7F4F73
:1057F000C8010E94D31C80E091E09A83898342E033
:1058000050E0BE016F5F7F4FC8010E94D31C1A8217
:10581000198242E050E0BE016F5F7F4FC8010E94D5
:10582000D31C42E050E0BE016F5F7F4FC8010E9471
:10583000D31C42E050E0BE016F5F7F4FC8010E9461
:10584000D31C5601F6018081882301F16501F60120
:1058500081912F01882311F08E32B1F446018A180C
:105860009B081814190474F48D8641E050E0BE01C1
:10587000635F7F4FC8010E94D31CA401B501C8011A
:105880000E94D31C5201DECF6201E1CF1D8641E0B0
:1058900050E0BE01635F7F4FC8010E94D31CC12C42
:1058A000DD24D394DA82C98242E050E0BE016F5F0A
:1058B0007F4FC8010E94D31CDA82C98242E050E0C7
:1058C000BE016F5F7F4FC8010E94D31CC8010E94B8
:1058D000131A892B09F441CFF3E0AF2EB12C230129
:1058E00022E0420E511CD4C0F701428153816481F1
:1058F0007581808D918DA28DB38D481759076A07E8
:105900007B0709F007C1848D958DC59709F002C109
:1059100081A192A15DEFC52EDD24DA940C970CF4E1
:10592000ADC04CE050E0BE016F5F7F4FC8010E94E8
:10593000071F8B819C819827892798279A8B898BB1
:10594000F7014681578129813A814217530709F0AF
:10595000E6C097FFE4C08F7092703BEFC32EDD244A
:10596000DA94892B09F08AC06F80788476246724C2
:1059700076242AEFC22EDD24DA946114710409F42E
:105980007DC0D12CC12C8D819E8198278927982795
:10599000C816D906F8F441E050E0BE01635F7F4FBE
:1059A000C8010E94071F4D85442331F050E070E08C
:1059B00060E0C8010E94071F8D858111ECCF44E093
:1059C00050E070E060E0C8010E94071FFFEFCF1AAF
:1059D000DF0AD9CF912C812C41E050E0BE016D5EF1
:1059E0007F4FC8010E94071F4B89842F807C09F0DC
:1059F0006BC0442331F050E070E060E0C8010E94C9
:105A0000071F8B898111E8CF42E050E0BE01615F42
:105A10007F4FC8010E94071F42E050E0BE01635F54
:105A20007F4FC8010E94071F44E050E070E060E033
:105A3000C8010E94071F42E050E0BE016F5E7F4F29
:105A4000C8010E94071F8F85988949895A89811545
:105A5000914009F042C0CD84DE84DC24CD24DC24D6
:105A600081E0C816D104C9F54115544009F049C078
:105A700044E050E0B201C8010E94071F21E0A21AD1
:105A8000B10809F46CCEFFEFCF16DF0609F067CE40
:105A90000E944C0C3B014C01C80194DD18161906FC
:105AA0000CF422CF0E944C0C6619770988099909D9
:105AB000693873418105910548F562E370E080E043
:105AC00090E00E941C0CE8CF41E050E070E060E004
:105AD000C8010E94071F1B8A94CF542745275427CB
