:100000000C94D20D0C94030E0C94030E0C94030E5E
:100010000C94030E0C94030E0C94030E0C94030E1C
:100020000C94030E0C94030E0C94030E0C94030E0C
:100030000C94030E0C94030E0C94030E0C94030EFC
:100040000C94030E0C94030E0C94030E0C94030EEC
:100050000C94030E0C94030E0C94030E0C94BF3AF4
:100060000C94030E0C94893A0C945F3A0C94030E92
:100070000C94030E0C94030E0C94030E0C94030EBC
:100080000C94030E0C94030E0C94030E0C94030EAC
:100090000C94030E0C94030E0C94030E0C94030E9C
:1000A0000C94030E0C94030E0C94030E0C94030E8C
:1000B0000C94030E0C94030E0C94030E0C94030E7C
:1000C0000C94030E0C94030E0C94030E0C94030E6C
:1000D0000C94030E0C94030E0C94030E0C94030E5C
:1000E0000C94030E072C7AA5BA6CC590DA3B936585
:1000F000FC8BBC53F810FD3C5692834DBD879D3A56
:10010000B63DCBC9BF5BBE73DA0FC93F05A84CCD66
:10011000B2D44EB93836A9020C50B9918688083C41
:10012000A6AAAA2ABE000000803F0664EC1B3C047D
:10013000BC163E3BE5B93CC93C37C29E5A3D6604FD
:1001400098083EEA69AAAA3E000000803F000040ED
:100150007A10F35A00A0724E18090010A5D4E800D6
:1001600000E87648170000E40B54020000CA9A3BEE
:10017000000000E1F5050000809698000000404274
:100180000F000000A0860100000010270000000002
:10019000E803000000006400000000000A00000006
:1001A00000000100000000002C76D888DC674F08B2
:1001B00023DFC1DFAE59E1B1B796E5E3E453C63AB8
:1001C000E651997696E8E6C28426EB898C9B62ED2F
:1001D000407C6FFCEFBC9C9F40F2BAA56FA5F490E9
:1001E000055A2AF75C936B6CF9676DC11BFCE0E460
:1001F0000D47FEF520E6B500D0ED902E03009435B6
:1002000077050080841E080000204E0A000000C808
:100210000C333333330F986E12831141EF8D211459
:10022000893BE65516CFFEE6DB18D1844B381BF729
:100230007C1D901DA4BBE424203284725E228100C8
:10024000C9F124ECA1E53D273C2F626F64793E3C67
:100250002F68746D6C3E003C6120687265663D22BB
:100260002F6E6F7468696E67223E3C627574746F9E
:100270006E20636C6173733D22627574746F6E20BF
:10028000627574746F6E32223E5265667265736871
:10029000203C2F627574746F6E3E3C2F613E3C2F84
:1002A000703E003C6120687265663D222F35352F17
:1002B0006F6E223E3C627574746F6E20636C617366
:1002C000733D22627574746F6E20627574746F6E04
:1002D000223E53544F50213C2F627574746F6E3E12
:1002E0003C2F613E3C2F703E003C61206872656689
:1002F0003D222F35342F6F6E223E3C627574746F31
:100300006E20636C6173733D22627574746F6E202E
:10031000627574746F6E223E5720646F6C3C2F625E
:100320007574746F6E3E3C2F613E003C703E3C61C4
:1003300020687265663D222F35332F6F6E223E3C5A
:10034000627574746F6E20636C6173733D226275A5
:1003500074746F6E20627574746F6E223E526F6C8F
:10036000657479203133207720676F72653C2F6286
:100370007574746F6E3E3C2F613E003C6120687264
:1003800065663D222F35322F6F6E223E3C627574BA
:10039000746F6E20636C6173733D22627574746F49
:1003A0006E20627574746F6E223E53544F50213C20
:1003B0002F627574746F6E3E3C2F613E3C2F703E11
:1003C000003C6120687265663D222F35312F6F6ECB
:1003D000223E3C627574746F6E20636C6173733D72
:1003E00022627574746F6E20627574746F6E223E33
:1003F0005720646F6C3C2F627574746F6E3E3C2F97
:10040000613E003C703E3C6120687265663D222F73
:1004100035302F6F6E223E3C627574746F6E2063B0
:100420006C6173733D22627574746F6E20627574B3
:10043000746F6E223E526F6C657479203132207772
:1004400020676F72653C2F627574746F6E3E3C2F2F
:10045000613E003C6120687265663D222F34392F71
:100460006F6E223E3C627574746F6E20636C6173B4
:10047000733D22627574746F6E20627574746F6E52
:10048000223E53544F50213C2F627574746F6E3E60
:100490003C2F613E3C2F703E003C612068726566D7
:1004A0003D222F34382F6F6E223E3C627574746F7C
:1004B0006E20636C6173733D22627574746F6E207D
:1004C000627574746F6E223E5720646F6C3C2F62AD
:1004D0007574746F6E3E3C2F613E003C703E3C6113
:1004E00020687265663D222F34372F6F6E223E3CA6
:1004F000627574746F6E20636C6173733D226275F4
:1005000074746F6E20627574746F6E223E526F6CDD
:10051000657479203131207720676F72653C2F62D6
:100520007574746F6E3E3C2F613E003C61206872B2
:1005300065663D222F34362F6F6E223E3C62757405
:10054000746F6E20636C6173733D22627574746F97
:100550006E20627574746F6E223E53544F50213C6E
:100560002F627574746F6E3E3C2F613E3C2F703E5F
:10057000003C6120687265663D222F34352F6F6E16
:10058000223E3C627574746F6E20636C6173733DC0
:1005900022627574746F6E20627574746F6E223E81
:1005A0005720646F6C3C2F627574746F6E3E3C2FE5
:1005B000613E003C703E3C6120687265663D222FC2
:1005C00034342F6F6E223E3C627574746F6E2063FC
:1005D0006C6173733D22627574746F6E2062757402
:1005E000746F6E223E526F6C6574792031302077C3
:1005F00020676F72653C2F627574746F6E3E3C2F7E
:10060000613E003C6120687265663D222F34332FC5
:100610006F6E223E3C627574746F6E20636C617302
:10062000733D22627574746F6E20627574746F6EA0
:10063000223E53544F50213C2F627574746F6E3EAE
:100640003C2F613E3C2F703E003C61206872656625
:100650003D222F34322F6F6E223E3C627574746FD0
:100660006E20636C6173733D22627574746F6E20CB
:10067000627574746F6E223E5720646F6C3C2F62FB
:100680007574746F6E3E3C2F613E003C703E3C6161
:1006900020687265663D222F34312F6F6E223E3CFA
:1006A000627574746F6E20636C6173733D22627542
:1006B00074746F6E20627574746F6E223E526F6C2C
:1006C0006574792039207720676F72653C2F6275D9
:1006D00074746F6E3E3C2F613E003C612068726511
:1006E000663D222F34302F6F6E223E3C627574744B
:1006F0006F6E20636C6173733D22627574746F6EEC
:1007000020627574746F6E223E53544F50213C2FFB
:10071000627574746F6E3E3C2F613E3C2F703E00DC
:100720003C6120687265663D222F33392F6F6E223F
:100730003E3C627574746F6E20636C6173733D220E
:10074000627574746F6E20627574746F6E223E579A
:1007500020646F6C3C2F627574746F6E3E3C2F6129
:100760003E003C703E3C6120687265663D222F333E
:10077000382F6F6E223E3C627574746F6E20636C0E
:100780006173733D22627574746F6E206275747448
:100790006F6E223E526F6C65747920382077206727
:1007A0006F72653C2F627574746F6E3E3C2F613EB4
:1007B000003C6120687265663D222F33372F6F6ED3
:1007C000223E3C627574746F6E20636C6173733D7E
:1007D00022627574746F6E20627574746F6E223E3F
:1007E00053544F50213C2F627574746F6E3E3C2FF2
:1007F000613E3C2F703E003C6120687265663D2280
:100800002F33362F6F6E223E3C627574746F6E20EC
:10081000636C6173733D22627574746F6E206275D0
:1008200074746F6E223E5720646F6C3C2F62757437
:10083000746F6E3E3C2F613E003C703E3C61206810
:100840007265663D222F33352F6F6E223E3C6275F6
:1008500074746F6E20636C6173733D22627574747F
:100860006F6E20627574746F6E223E526F6C657489
:10087000792037207720676F72653C2F627574741A
:100880006F6E3E3C2F613E003C6120687265663DA4
:10089000222F33342F6F6E223E3C627574746F6E5C
:1008A00020636C6173733D22627574746F6E206295
:1008B0007574746F6E223E53544F50213C2F6275F5
:1008C00074746F6E3E3C2F613E3C2F703E003C6165
:1008D00020687265663D222F33332F6F6E223E3CB7
:1008E000627574746F6E20636C6173733D22627500
:1008F00074746F6E20627574746F6E223E5720643C
:100900006F6C3C2F627574746F6E3E3C2F613E00BD
:100910003C703E3C6120687265663D222F33322F69
:100920006F6E223E3C627574746F6E20636C6173EF
:10093000733D22627574746F6E20627574746F6E8D
:10094000223E526F6C6574792036207720676F7273
:10095000653C2F627574746F6E3E3C2F613E003CA7
:100960006120687265663D222F33312F6F6E223E03
:100970003C627574746F6E20636C6173733D2262A8
:100980007574746F6E20627574746F6E223E53546A
:100990004F50213C2F627574746F6E3E3C2F613E48
:1009A0003C2F703E003C6120687265663D222F330B
:1009B000302F6F6E223E3C627574746F6E20636CD4
:1009C0006173733D22627574746F6E206275747406
:1009D0006F6E223E5720646F6C3C2F627574746F8B
:1009E0006E3E3C2F613E003C703E3C61206872656B
:1009F000663D222F32392F6F6E223E3C6275747431
:100A00006F6E20636C6173733D22627574746F6ED8
:100A100020627574746F6E223E526F6C657479201B
:100A200035207720676F72653C2F627574746F6E26
:100A30003E3C2F613E003C6120687265663D222F7E
:100A400032382F6F6E223E3C627574746F6E206375
:100A50006C6173733D22627574746F6E206275747D
:100A6000746F6E223E53544F50213C2F6275747444
:100A70006F6E3E3C2F613E3C2F703E003C61206813
:100A80007265663D222F32372F6F6E223E3C6275B3
:100A900074746F6E20636C6173733D22627574743D
:100AA0006F6E20627574746F6E223E5720646F6C97
:100AB0003C2F627574746F6E3E3C2F613E003C703B
:100AC0003E3C6120687265663D222F32362F6F6E84
:100AD000223E3C627574746F6E20636C6173733D6B
:100AE00022627574746F6E20627574746F6E223E2C
:100AF000526F6C6574792034207720676F72653C83
:100B00002F627574746F6E3E3C2F613E003C612015
:100B1000687265663D222F32352F6F6E223E3C6231
:100B20007574746F6E20636C6173733D22627574AB
:100B3000746F6E20627574746F6E223E53544F5002
:100B4000213C2F627574746F6E3E3C2F613E3C2FCA
:100B5000703E003C6120687265663D222F32342F62
:100B60006F6E223E3C627574746F6E20636C6173AD
:100B7000733D22627574746F6E20627574746F6E4B
:100B8000223E5720646F6C3C2F627574746F6E3E0A
:100B90003C2F613E003C703E3C6120687265663DC2
:100BA000222F32332F6F6E223E3C627574746F6E4B
:100BB00020636C6173733D22627574746F6E206282
:100BC0007574746F6E223E526F6C65747920332099
:100BD0007720676F72653C2F627574746F6E3E3C50
:100BE0002F613E003C6120687265663D222F3232E3
:100BF0002F6F6E223E3C627574746F6E20636C6161
:100C000073733D22627574746F6E20627574746FB5
:100C10006E223E53544F50213C2F627574746F6E98
:100C20003E3C2F613E3C2F703E003C612068726567
:100C3000663D222F32312F6F6E223E3C62757474F6
:100C40006F6E20636C6173733D22627574746F6E96
:100C500020627574746F6E223E5720646F6C3C2F57
:100C6000627574746F6E3E3C2F613E003C703E3C7A
:100C70006120687265663D222F32302F6F6E223EF2
:100C80003C627574746F6E20636C6173733D226295
:100C90007574746F6E20627574746F6E223E526F3D
:100CA0006C6574792032207720676F72653C2F6203
:100CB0007574746F6E3E3C2F613E003C612068721B
:100CC00065663D222F31392F6F6E223E3C6275746E
:100CD000746F6E20636C6173733D22627574746F00
:100CE0006E20627574746F6E223E53544F50213CD7
:100CF0002F627574746F6E3E3C2F613E3C2F703EC8
:100D0000003C6120687265663D222F31382F6F6E7E
:100D1000223E3C627574746F6E20636C6173733D28
:100D200022627574746F6E20627574746F6E223EE9
:100D30005720646F6C3C2F627574746F6E3E3C2F4D
:100D4000613E003C703E3C6120687265663D222F2A
:100D500031372F6F6E223E3C627574746F6E206364
:100D60006C6173733D22627574746F6E206275746A
:100D7000746F6E223E526F6C6574792077207379A0
:100D80007069616C6E69207720676F72653C2F62B5
:100D90007574746F6E3E3C2F613E003C48333E528A
:100DA0006F6C6574793C2F48333E003C2F6275743C
:100DB000746F6E3E3C2F613E3C2F703E003C6120C4
:100DC000687265663D222F31342F6F6666223E3C85
:100DD000627574746F6E20636C6173733D2262750B
:100DE00074746F6E20627574746F6E32223E537429
:100DF0006F70205A32207A6120003C612068726551
:100E0000663D222F31342F6F6E223E3C6275747422
:100E10006F6E20636C6173733D22627574746F6EC4
:100E2000223E5374617274205A323C2F627574747E
:100E30006F6E3E3C2F613E3C2F703E003C2F627532
:100E400074746F6E3E3C2F613E003C612068726599
:100E5000663D222F31332F6F6666223E3C627574E9
:100E6000746F6E20636C6173733D22627574746F6E
:100E70006E20627574746F6E32223E53746F7020F0
:100E80005A31207A6120003C6120687265663D22FB
:100E90002F31332F6F6E223E3C627574746F6E205B
:100EA000636C6173733D22627574746F6E223E537E
:100EB00074617274205A313C2F627574746F6E3E87
:100EC0003C2F613E003C2F627574746F6E3E3C2F68
:100ED000613E003C6120687265663D222F31322FF1
:100EE0006F6666223E3C627574746F6E20636C613F
:100EF00073733D22627574746F6E20627574746FC3
:100F00006E32223E53746F70204C4B207A61200069
:100F10003C6120687265663D222F31322F6F6E2250
:100F20003E3C627574746F6E20636C6173733D2216
:100F3000627574746F6E223E5374617274204C4BF0
:100F40003C2F627574746F6E3E3C2F613E003C61B5
:100F500020687265663D222F31312F6F6666223E12
:100F60003C627574746F6E20636C6173733D2262B2
:100F70007574746F6E20627574746F6E32223E43A6
:100F8000796B6C20706F646C6577616E6965207732
:100F9000207472616B6369652C206E61647A697379
:100FA0006E696A206279207A6174727A796D616300
:100FB0003C2F627574746F6E3E3C2F613E003C6145
:100FC00020687265663D222F31312F6F6E223E3CC4
:100FD000627574746F6E20636C6173733D22627509
:100FE00074746F6E223E53746172742063796B6CFB
:100FF0007520706F646C6577616E69613C2F6275F6
:1010000074746F6E3E3C2F613E003C6120687265D7
:10101000663D222F31302F6F6E223E3C6275747414
:101020006F6E20636C6173733D22627574746F6EB2
:1010300020223E506F646C6577616E696520526551
:10104000637A6E653C2F627574746F6E3E3C2F61DF
:101050003E003C6120687265663D222F31302F6F63
:101060006666223E3C627574746F6E20636C6173B9
:10107000733D22627574746F6E20627574746F6E46
:1010800032223E506F646C6577616E6965204175F0
:10109000746F3C2F627574746F6E3E3C2F613E001E
:1010A0003C703E3C696E70757420747970653D6368
:1010B0006865636B626F78206F6E636C69636B3D0C
:1010C00072657475726E2066616C736520756E63EF
:1010D0006865636B65643E204465737A637A003C9F
:1010E000703E3C696E70757420747970653D6368FC
:1010F00065636B626F78206F6E636C69636B3D72C2
:10110000657475726E2066616C73652063686563D3
:101110006B65643E204465737A637A003C48333ED5
:10112000506F646C6577616E69653C2F48333E0093
:1011300020433C2F48353E0020433C2F48353E3C61
:1011400048353E54656D7065726174757261206ECC
:101150006F636E613A20003C68353E54656D706582
:1011600072617475726120647A69656E6E613A208D
:10117000003C6120687265663D222F392F6F6666DC
:10118000223E3C627574746F6E20636C6173733DB4
:1011900022627574746F6E223E53544F50213C2F5F
:1011A000627574746F6E3E3C2F613E3C2F703E0042
:1011B0003C2F627574746F6E3E3C2F613E003C6143
:1011C00020687265663D222F392F6F6E223E3C6289
:1011D0007574746F6E20636C6173733D22627574F5
:1011E000746F6E20627574746F6E32223E003C61C3
:1011F00020687265663D222F392F6F6E223E3C6259
:101200007574746F6E20636C6173733D22627574C4
:10121000746F6E223E3130206D696E2E204F6E3C11
:101220002F627574746F6E3E3C2F613E3C2F703E92
:10123000002743206E6F633C2F627574746F6E3E9F
:101240003C2F613E003C703E3C6120687265663D0B
:10125000222F382F6F6E223E3C627574746F6E20A1
:10126000636C6173733D22627574746F6E20627576
:1012700074746F6E32223E50617274657220002762
:101280004320647A69656E3C2F627574746F6E3E9C
:101290003C2F613E003C703E3C6120687265663DBB
:1012A000222F382F6F6666223E3C627574746F6E13
:1012B00020636C6173733D22627574746F6E223E9D
:1012C00050617274657220003C6120687265663DF1
:1012D000222F372F6F6666223E3C627574746F6EE4
:1012E00020636C6173733D22627574746F6E223E6D
:1012F00053544F50213C2F627574746F6E3E3C2FD7
:10130000613E3C2F703E003C2F627574746F6E3EE0
:101310003C2F613E003C6120687265663D222F379C
:101320002F6F6E223E3C627574746F6E20636C6129
:1013300073733D22627574746F6E20627574746F7E
:101340006E32223E003C6120687265663D222F3776
:101350002F6F6E223E3C627574746F6E20636C61F9
:1013600073733D22627574746F6E223E3130206D4E
:10137000696E2E204F6E3C2F627574746F6E3E3C0A
:101380002F613E3C2F703E002743206E6F633C2F41
:10139000627574746F6E3E3C2F613E003C703E3C43
:1013A0006120687265663D222F362F6F6E223E3CAB
:1013B000627574746F6E20636C6173733D22627525
:1013C00074746F6E20627574746F6E32223E506951
:1013D0006574726F2000274320647A69656E3C2F24
:1013E000627574746F6E3E3C2F613E003C703E3CF3
:1013F0006120687265663D222F362F6F6666223E39
:101400003C627574746F6E20636C6173733D22620D
:101410007574746F6E223E50696574726F2000207F
:10142000433C2F423E3C2F48353E003C68353E54FD
:10143000656D7065726174757261207A65776E652D
:1014400074727A6E613A203C423E003C48333E4F13
:1014500067727A6577616E69653C2F48333E003C60
:101460006120687265663D222F332F6F6E223E3CED
:10147000627574746F6E20636C6173733D22627564
:1014800074746F6E223E526F6C6574792073746F42
:10149000703C2F627574746F6E3E3C2F613E3C2F22
:1014A000703E003C6120687265663D222F342F6FCC
:1014B0006E223E3C627574746F6E20636C61737350
:1014C0003D22627574746F6E223E4F707573632097
:1014D000726F6C6574793C2F627574746F6E3E3CEC
:1014E0002F613E3C2F703E003C703E3C6120687294
:1014F00065663D222F332F6F6E223E3C62757474F9
:101500006F6E20636C6173733D22627574746F6ECD
:10151000223E526F6C6574792073746F703C2F6239
:101520007574746F6E3E3C2F613E003C703E3C61B2
:1015300020687265663D222F352F6F6E223E3C6219
:101540007574746F6E20636C6173733D2262757481
:10155000746F6E223E506F646E69657320726F6C9B
:101560006574793C2F627574746F6E3E3C2F613EDA
:10157000003C2F627574746F6E3E3C2F613E3C2FB1
:10158000703E003C6120687265663D222F31352F28
:101590006F6E223E3C627574746F6E20636C617373
:1015A000733D22627574746F6E223E536574206CB5
:1015B00069676874206C6576656C3A003C612068E8
:1015C0007265663D222F31362F6F6666223E3C6281
:1015D0007574746F6E20636C6173733D22627574F1
:1015E000746F6E20627574746F6E32223E4C696740
:1015F00068742073656E736F72206F6E3C2F627516
:1016000074746F6E3E3C2F613E003C6120687265D1
:10161000663D222F31362F6F6E223E3C6275747408
:101620006F6E20636C6173733D22627574746F6EAC
:10163000223E4C696768742073656E736F72206F09
:1016400066663C2F627574746F6E3E3C2F613E007F
:101650003C703E3C6120687265663D222F322F6FE0
:101660006666223E3C627574746F6E20636C6173B3
:10167000733D22627574746F6E20627574746F6E40
:1016800032223E426C696E64732054696D6572202B
:101690004F6E3C2F627574746F6E3E3C2F613E003E
:1016A0003C703E3C6120687265663D222F322F6F90
:1016B0006E223E3C627574746F6E20636C6173734E
:1016C0003D22627574746F6E223E426C696E647363
:1016D0002054696D6572204F66663C2F6275747484
:1016E0006F6E3E3C2F613E00203C2F68353E00204F
:1016F0003C2F68353E3C68353E204C616D7079204A
:1017000077206F67726F647A69653A2000203C2FFA
:1017100068353E00203C2F68353E3C68353E2053FE
:10172000656E736F722073776961746C613A200023
:101730003A003C2F68353E3C68353E205A6163686C
:101740006F6420736C6F6E63613A20003A00203C36
:1017500068353E20577363686F6420736C6F6E63E7
:10176000613A2000203C2F68353E0020676F647A84
:10177000696E613A200020003C68353E20447A6959
:1017800073206A6573743A20003C48333E526F6C94
:101790006574793C2F48333E003C626F64793E3C6F
:1017A00048313E486F6D6520436F6E74726F6C20D8
:1017B000446F6D656B204F7A61726F772056302EC3
:1017C0003037413C2F48313E002E627574746F6E85
:1017D00032207B6261636B67726F756E642D636F1D
:1017E0006C6F723A20233737383738413B7D3C2FB6
:1017F0007374796C653E3C2F686561643E00746566
:1018000078742D6465636F726174696F6E3A206ECF
:101810006F6E653B20666F6E742D73697A653A2032
:10182000333070783B206D617267696E3A20327098
:10183000783B20637572736F723A20706F696E74B3
:1018400065723B7D002E627574746F6E207B206222
:1018500061636B67726F756E642D636F6C6F723A44
:1018600020233139354236413B20626F7264657204
:101870003A206E6F6E653B20636F6C6F723A207713
:10188000686974653B2070616464696E673A2031F1
:1018900036707820343070783B003C7374796C6516
:1018A0003E68746D6C207B20666F6E742D66616D72
:1018B000696C793A2048656C7665746963613B2090
:1018C000646973706C61793A20696E6C696E652D1C
:1018D000626C6F636B3B206D617267696E3A20309A
:1018E0007078206175746F3B20746578742D616C1D
:1018F00069676E3A2063656E7465723B7D003C6C6F
:10190000696E6B2072656C3D2269636F6E22206880
:101910007265663D22646174613A2C223E003C6827
:101920006561643E3C6D657461206E616D653D224C
:1019300076696577706F72742220636F6E74656E5E
:10194000743D2277696474683D6465766963652DCA
:1019500077696474682C20696E697469616C2D7391
:1019600063616C653D31223E003C21444F43545934
:1019700050452068746D6C3E3C68746D6C3E000090
:10198000002100240027002A002D00300033000130
:10199000010000040107010A0100002200250028BF
:1019A000002B002E00310034000201000005010868
:1019B000010B0100000A0B02090C0D0E08070304BD
:1019C0000100000000000000000000000000000016
:1019D00000000000000000000000000000000012F5
:1019E00011100000000000000000000000000000D6
:1019F000000000000000000000005EBCE2613FDD6E
:101A000083C29C7E20A3FD1F419DC3217FFCA24079
:101A10001E5F01E3BD3E6082DC237D9FC1421CFE50
:101A2000A0E1BF5D0380DE3C62BEE0025CDF81635B
:101A30003D7C22C09E1D43A1FF4618FAA427799B36
:101A4000C584DA3866E5BB5907DB856739BAE40631
:101A5000581947A5FB7826C49A653BD987045AB81C
:101A6000E6A7F91B45C6987A24F8A6441A99C72513
:101A70007B3A6486D85B05E7B98CD2306EEDB35102
:101A80000F4E10F2AC2F7193CD114FADF3702ECCE1
:101A900092D38D6F31B2EC0E50AFF1134DCE9072E8
:101AA0002C6D33D18F0C52B0EE326C8ED0530DEFC3
:101AB000B1F0AE4C1291CF2D73CA947628ABF517C6
:101AC000490856B4EA6937D58B5709EBB536688AA9
:101AD000D495CB2977F4AA4816E9B7550B88D634A4
:101AE0006A2B7597C94A14F6A8742AC896154BA98B
:101AF000F7B6E80A54D7896B35000020002300268A
:101B00000029002C002F0032000001000003010614
:101B10000109010505050507050808080802020274
:101B2000020A0A0808040404040101010101010178
:101B3000010303030303030303040707070C0C0C4F
:101B40000C0C0C0C0C020202020606060606060627
:101B5000060B0B0B0B0B0B0B0B01021020200808C4
:101B600010204010204080020102010804020101FF
:101B700002040810204080804020100804020180E8
:101B8000040201804020100804020108040201013F
:101B90000204081020408001020408102040800048
:101BA000093B543F11241FBECFEFD1E2DEBFCDBFB2
:101BB00000E00CBF16E0A0E0B2E0EAE9F0E900E0E6
:101BC0000BBF02C007900D92A438B107D9F729E0E6
:101BD000A4E8B6E001C01D92A838B207E1F71DE005
:101BE000C1EDDDE000E006C021970109802FFE0174
:101BF0000E94E245C03DD10780E00807A9F70E9496
:101C0000973C0C943C480C94000020912E0290913B
:101C10002D029230C1F430E02053384FC901837057
:101C20009927892B39F4C90164E670E00E94CF45F9
:101C3000892B89F4C90160E971E00E94CF45892BA5
:101C400051F08CE10895983020F4917031F48EE1D8
:101C500008959095FACF8DE108958FE108958F92C0
:101C60009F92AF92BF92CF92DF92EF92FF92CF936B
:101C7000DF9320912A026B017C01C20ED11CE11C72
:101C8000F11CC701B6012CE330E040E050E00E94B7
:101C9000484349015A019601C601D7FE04C088276E
:101CA00099278C199D096CE370E00E94CF4537FDA0
:101CB00078C021E0022E000C330BDC010E94EA45C3
:101CC000645C7F4F8F4F9F4F2CE330E040E050E04B
:101CD0000E94484360932A0280912B02880E911C37
:101CE000A11CB11CC501B40128E130E040E050E086
:101CF0000E94484369017A019401C40197FE04C01F
:101D0000882799278819990968E170E00E94CF45D2
:101D100037FD49C021E0022E000C330BDC010E948C
:101D2000EA45685E7F4F8F4F9F4F28E130E040E0EB
:101D300050E00E94484360932B0280912C02C80E11
:101D4000D11CE11CF11C61DF90E0B0E0A0E0C0928A
:101D50002C028C159D05AE05BF0594F5C1E0D4E6B7
:101D6000C81AD90AEA0AFB0A80912D028F5F8D30CA
:101D7000E0F480932D0249DF90E0B0E0A0E08C1504
:101D80009D05AE05BF0564F3C0922C02DF91CF9193
:101D9000FF90EF90DF90CF90BF90AF909F908F908B
:101DA00008952FEF87CF2FEFB6CFC0932D028091EC
:101DB0002E028B596D2F0E94B64590932E02DBCFD9
:101DC0001C141D041E041F040CF3CCE0D4E6809107
:101DD0002D02815089F080932D0217DF982F9C0DE2
:101DE00090932C02C80ED11CE11CF11C1C141D0484
:101DF0001E041F0464F7CACFC0932D0280912E02E7
:101E00008D596D2F0E94B64590932E02E6CFE0913A
:101E10002E02F0E080912D0220912C02833088F177
:101E2000E053F84F3DE0839FC0011124039665E025
:101E300070E00E94CF45260F372F311D2E0F3F1F18
:101E4000BF017595679575956795260F371FCF016B
:101E50006CE97FEF0E94CF45260F371FCF0160E965
:101E600071E00E94CF45C901860F971F27E030E03F
:101E7000B9010E94CF450196B9010E94CF458F5FFD
:101E80000895845FE153F84FCDCFCF93DF93C09196
:101E90002D02D091FC07CD1740F18091FE078C17E1
:101EA00020F1DC1710F4C817A0F1B1DF482F8091A2
:101EB0002C028F5F841B1816DCF467E00E94C24579
:101EC0008F5F082E000C990BCD1314C02091FD07D5
:101ED00030E0821793074CF028173907D4F04230CE
:101EE000C4F480912B028230A0F4DF91CF91089549
:101EF00080E0E7CF2091FF0730E0821793074CF096
:101F00002817390794F3423084F780912B028230EE
:101F100060F76091000870E090E080E0DF91CF9181
:101F20009ECE8CBD9DBD0895FC01818D928D08953E
:101F30000895AF92BF92CF92DF92EF92FF920F93EC
:101F40001F93CF93DF936C017B018B01040F151F4F
:101F5000EB015E01AE18BF08C017D10759F06991B7
:101F6000D601ED91FC910190F081E02DC60119950B
:101F7000892B79F7C501DF91CF911F910F91FF90C8
:101F8000EF90DF90CF90BF90AF900895FC01538DFC
:101F9000448D252F30E0842F90E0821B930B541743
:101FA00010F0CF96089501970895FC01918D828DD0
:101FB000981761F0A28DAE0FBF2FB11D5D968C9169
:101FC000928D9F5F9F73928F90E008958FEF9FEFA8
:101FD0000895FC01918D828D981731F0828DE80F64
:101FE000F11D858D90E008958FEF9FEF0895FC011E
:101FF000918D228D892F90E0805C9F4F821B9109EB
:102000008F739927089584EF96E0F1DF21E0892B03
:1020100009F420E0822F0895FC01A48DA80FB92FA8
:10202000B11DA35ABF4F2C91848D90E001968F7300
:102030009927848FA689B7892C93A089B1898C911F
:10204000837080648C93938D848D981306C002886E
:10205000F389E02D80818F7D80830895EF92FF9238
:102060000F931F93CF93DF93EC0181E0888F9B8DBB
:102070008C8D98131AC0E889F989808185FF15C075
:102080009FB7F894EE89FF896083E889F989808198
:102090008370806480839FBF81E090E0DF91CF9167
:1020A0001F910F91FF90EF900895F62E0B8D10E089
:1020B0000F5F1F4F0F731127E02E8C8D8E110BC0F9
:1020C0000FB607FCFACFE889F989808185FFF5CF43
:1020D000CE01A2DFF2CFEB8DEC0FFD2FF11DE35A05
:1020E000FF4FF0829FB7F8940B8FEA89FB898081BC
:1020F0008062D0CFCF93DF93EC01888D8823B1F03D
:10210000AA89BB89E889F9898C9185FD03C0808102
:1021100086FD0CC00FB607FCF7CF8C9185FFF2CF80
:10212000808185FFEDCFCE0177DFEACFDF91CF91C0
:10213000089580E090E0892B21F065DF81110E94F5
:10214000000080E090E0892B49F080E090E0892B4E
:1021500029F00E94000081110E94000080E090E0C0
:10216000892B49F080E090E0892B29F00E94000043
:1021700081110E94000080E090E0892B49F080E00E
:1021800090E0892B29F00E94000081110C9400003E
:1021900008958150823108F05AC0E82FF0E0882776
:1021A000EB52FF4E8F4F0C94E245F510F910E710FB
:1021B000ED10F1102711FC10021106110C11101175
:1021C00014111A111E112711221128112C1180919E
:1021D00080008F77809380000895809180008F7DAC
:1021E000F9CF80918000877FF5CF84B58F7784BD4C
:1021F000089584B58F7DFBCF8091B0008F77809359
:10220000B00008958091B0008F7DF9CF809190004B
:102210008F77809390000895809190008F7DF9CF03
:1022200080919000877FF5CF8091A0008F77809379
:10223000A00008958091A0008F7DF9CF8091A0002B
:10224000877FF5CF809120018F77809320010895BB
:10225000809120018F7DF9CF80912001877FF5CF7C
:102260001F93CF93DF93282F30E0F901ED54F64E02
:102270008491F901E75AF44ED491F901ED5EF44EE0
:10228000C491CC23A1F0162F811183DFEC2FF0E055
:10229000EE0FFF1FE756F64EA591B4918FB7F89455
:1022A000EC91111108C0D095DE23DC938FBFDF9134
:1022B000CF911F910895DE2BF8CF61E082E0D0DF4F
:1022C0008BEF94E00197F1F760E082E0C9DF8BEDDE
:1022D0009BE00197F1F70895F0DFEFDFEEDFEDCF40
:1022E00061E082E0BDDF8BE39BE00197F1F760E006
:1022F00082E0B6DF8BE995E00197F1F70895F0DF12
:10230000DCDFDBDFDACFD9DFEBDFD7DFD6CFE8DF0B
:10231000E7DFD3DFD2CFD1DFD0DFE2DFCECFE0DF28
:10232000CCDFDEDFCACFC9DFDBDFDADFC6CFD8DF45
:10233000D7DFD6DFC2CFC1DFC0DFBFDFD1CFD0DF75
:10234000BCDFBBDFCDCFB9DFCBDFB7DFC9CFC8DFA5
:10235000C7DFB3DFC5CFB1DFB0DFC2DFC1CFC0DFC2
:10236000ACDFBEDFBDCFCF93DF9390E0FC01E75A37
:10237000F44E24918D5E944EFC0184918823D1F01B
:1023800090E0880F991FFC01E158F64EA591B49199
:10239000FC01E756F64EC591D49161110EC09FB76E
:1023A000F8948C91E22FE0958E238C932881E22380
:1023B000E8839FBFDF91CF9108958FB7F894EC9198
:1023C000E22BEC938FBFF6CF3FB7F8948091A10634
:1023D0009091A206A091A306B091A40626B5A89B51
:1023E00005C02F3F19F00196A11DB11D3FBFBA2FA7
:1023F000A92F982F8827BC01CD01620F711D811D67
:10240000911D42E0660F771F881F991F4A95D1F7EB
:1024100008958F929F92AF92BF92CF92DF92EF92E8
:10242000FF924B015C01D0DF6B017C01CDDF6C19A9
:102430007D098E099F09683E734081059105B0F3BF
:1024400021E0821A9108A108B10888EEC80E83E045
:10245000D81EE11CF11C81149104A104B10431F7D0
:10246000FF90EF90DF90CF90BF90AF909F908F90B4
:1024700008956AE070E080E090E0CBDF61E082E008
:10248000EFDE8BE59AE40197F1F760E082E0E8DEA9
:102490008BEB97E10197F1F710DF0FDF21DF0DDF05
:1024A0001FDF1EDF0ADF09DF08DF07DF19DF05DFB7
:1024B00004DF03DF02DF01DF13DF12DFFEDEFDDEFC
:1024C0000FDFFBDE0DDF0CDFF8DE0ADF09DF08CFF0
:1024D000EF92FF921F93CF93DF93CAE0D0E01FEFFC
:1024E000180FE12EF12CC5DF1D30A0F4F70188276D
:1024F000E358FD4E8F4F0C94E2459B129D129F12A4
:10250000A112A312A512A712A912AB12AD12AF12FB
:10251000B112B312E1DED1DED0DECFDEE1DECDDE00
:10252000CCDECBDEDDDE2197F1F6DF91CF911F917E
:10253000FF90EF900895E3DEEECFE5DEECCFE7DE2F
:10254000EACFE9DEE8CFEBDEE6CFEDDEE4CFEFDE8B
:10255000E2CFF1DEE0CFF3DEDECFF5DEDCCFF7DE7B
:10256000DACFF9DED8CFFBDED6CFEF92FF921F9302
:10257000CF93DF93CAE0D0E01FEF180FE12EF12CCC
:1025800078DF1D30A0F4F7018827E653FD4E8F4F0A
:102590000C94E245E812EA12EC12EE12F012F2127A
:1025A000F412F612F812FA12FC12FE12001394DE64
:1025B00084DE83DE95DE94DE80DE7FDE91DE90DEDB
:1025C0002197F1F6DF91CF911F91FF90EF90089541
:1025D00096DEEECF98DEECCF9ADEEACF9CDEE8CF37
:1025E0009EDEE6CFA0DEE4CFA2DEE2CFA4DEE0CF27
:1025F000A6DEDECFA8DEDCCFAADEDACFACDED8CF17
:10260000AEDED6CFEF92FF921F93CF93DF93CAE057
:10261000D0E01FEF180FE12EF12C2BDF1D30A0F4BE
:10262000F7018827E95EFC4E8F4F0C94E245351385
:10263000371339133B133D133F1341134313451312
:10264000471349134B134D1347DE37DE49DE35DEA2
:1026500047DE33DE45DE31DE43DE2197F1F6DF91E2
:10266000CF911F91FF90EF90089549DEEECF4BDEA2
:10267000ECCF4DDEEACF4FDEE8CF51DEE6CF53DEC2
:10268000E4CF55DEE2CF57DEE0CF59DEDECF5BDEB2
:10269000DCCF5DDEDACF5FDED8CF61DED6CF2FB7FD
:1026A000F89460919D0670919E0680919F0690918E
:1026B000A0062FBF08950F931F93CF93DF93C82FCA
:1026C000D0E0EDDFFE01EE0FFF1FEE0FFF1FE35026
:1026D000F74F6083718382839383CC0FDD1FCC0F10
:1026E000DD1FCB57D74F41E0088119812A813B81FB
:1026F000061717072807390708F440E0842FDF91F1
:10270000CF911F910F9108958F929F92AF92BF9298
:10271000CF92DF92EF92FF920F931F93CF93DF93AD
:102720006B017C01C42FD0E0BADFFE01EE0FFF1F6A
:10273000EE0FFF1FE350F74F608371838283938313
:102740008E01000F111F000F111F0B57174FF801BB
:1027500080809180A280B380681579058A059B05E9
:1027600008F19DDFCC0FDD1FCC0FDD1FC35FD74FFE
:10277000688379838A839B83C60ED71EE81EF91E61
:10278000F801C082D182E282F382DF91CF911F9162
:102790000F91FF90EF90DF90CF90BF90AF909F9000
:1027A0008F900895D501C4018C0D9D1DAE1DBF1DD8
:1027B00080839183A283B383E8CFCF93DF93C82F25
:1027C000D0E06DDFFE01EE0FFF1FEE0FFF1FEB5796
:1027D000F74F608371838283938361DFCC0FDD1FAA
:1027E000CC0FDD1FC35FD74F688379838A839B83B8
:1027F000DF91CF910895DC012C911196ED91FC9120
:10280000F8948181822B81839281322F309593239A
:10281000928387E090E00197F1F7818183238183A0
:1028200083E290E00197F1F790817894EFECF0E08B
:102830003197F1F7922381E009F480E00895FC01DB
:1028400090810180F281E02D292F209560FF14C036
:10285000F8948281822382838181892B8183A3E200
:10286000B0E01197F1F78281982B9283789487EDED
:1028700090E00197F1F70895F89482818223828392
:102880008181892B8183AFEFB0E01197F1F78281CD
:10289000982B928378948FE090E0EBCFDF92EF92C9
:1028A000FF920F931F93CF93DF93EC01D62EE42E6C
:1028B00008E010E0FF24F39461E08D2D8F2109F4EE
:1028C00060E0CE01BCDFFF0C01501109A9F7E11057
:1028D00010C0F894E981FA819181888180958923DB
:1028E0008183E981FA81928188818095892382831D
:1028F0007894DF91CF911F910F91FF90EF90DF902F
:102900000895FC0190810180F281E02DF89481818D
:10291000292F20958223818378943DE743E050E07E
:10292000315029F1DA011197F1F780818923C1F340
:10293000F8948281822382838181892B8183789498
:10294000ABE7B7E01197F1F7F89481818223818397
:10295000A3E1B1E01197F1F78081982381E009F0BC
:1029600080E07894E3E6F6E03197F1F7089580E0AF
:102970000895CF93C091DE07C11104C0C0E08C2F31
:10298000CF9108958091DB079091DC07BADF88230F
:10299000A9F340E06CEC8091DB079091DC077EDFCF
:1029A0004091DF0781E0482764E48091DB07909144
:1029B000DC0774DF74DE6093E0077093E1078093B7
:1029C000E2079093E307DBCFCF92DF92FF920F9362
:1029D0001F93CF93DF936C01F62E8091DB079091CC
:1029E000DC078FDF882319F10091DB071091DC07EA
:1029F00040E065E5C80152DFE60188E0C80ED11C61
:102A0000699140E0C8014ADFCC15DD05C9F740E017
:102A10006F2D8091DB079091DC0740DF81E0DF9133
:102A2000CF911F910F91FF90DF90CF90089580E09C
:102A3000F6CF6F927F928F929F92AF92BF92CF927A
:102A4000DF92EF92FF920F931F93CF93DF93CDB757
:102A5000DEB76D970FB6F894DEBF0FBECDBF6EEB3D
:102A6000B3DF882309F480C08090DB079090DC07F7
:102A70008E010F5E1F4F7E018AE1E80EF11C680196
:102A800038E0632E712CB12CAA24A394C401B3DEC8
:102A90008111BA28AA0CA1E06A1A7108B9F7F601E7
:102AA000B1926F01EE15FF0559F799E080E0915062
:102AB00049F0D801ED918D01E827F0E0E750F64E9E
:102AC0008491F5CF998D98134FC080E1E5E3F2E052
:102AD000DE01119601900D928A95E1F780914502F1
:102AE00090914602A0914702B09148028A8F9B8F35
:102AF000AC8FBD8F0091DD070950110BF701E00F7E
:102B0000F11F808169897A8902C0759567958A95D8
:102B1000E2F7072E000C880B990B0E943542000F3C
:102B2000111F000F111FE1E0F0E0EC0FFD1FE00F9F
:102B3000F11F20813181428153810E9494426D9620
:102B40000FB6F894DEBF0FBECDBFDF91CF911F91BE
:102B50000F91FF90EF90DF90CF90BF90AF909F903C
:102B60008F907F906F90089563E373E988E893EC0A
:102B7000E6CFFC0120812EBD9B012150310941F09F
:102B800051810DB407FEFDCF4EB55EBD4193F5CF2B
:102B900061507109860F971F0DB407FEFDCF2EB54A
:102BA000FC0120830895E0919806F09199068081B8
:102BB00090919706892B80830895E0919806F09173
:102BC0009906908180919706809589238083089546
:102BD0008EBD00000DB407FEFDCF8EB50895AF92F7
:102BE000BF92CF92DF92EF92FF920F931F93CF93FA
:102BF000DF9300D000D01F921F92CDB7DEB78C01BB
:102C00007B016A018091F2068333B1F45801A40E6E
:102C1000B51EA016B10609F463C0CFDF80EFD8DF80
:102C2000812FD6DF802FD4DF0F5F1F4FF7018191F7
:102C30007F01CEDFB8DFEDCF5B01A40EB51E84337C
:102C4000A9F4BBDF19830A838D2D80688B83CC8226
:102C500064E070E0CE0101968CDFAE14BF0409F48D
:102C60003EC0F70181917F01B3DFF7CFA6DF0F3FB1
:102C7000110509F028F419820A8384E08B830CC0C3
:102C800017FD17C019820A8333E0169507953A9508
:102C9000E1F7007E0C600B8386E0C816D10490F546
:102CA000F701DE011496EA15FB0599F081918D93E9
:102CB000FACFC80126E0969587952A95E1F7807EA0
:102CC00019830A830115104C10F48461D7CF8C61ED
:102CD000D5CFB6016D5F7F4FCE0101964ADF63DF2E
:102CE000C60128960FB6F894DEBF0FBECDBFDF91A8
:102CF000CF911F910F91FF90EF90DF90CF90BF90F9
:102D0000AF90089563E070E0CE01019632DFF701E5
:102D100081917F015DDFAE14BF04C9F7E0CFCF938F
:102D2000DF931F92CDB7DEB7898341E050E0BE014B
:102D30006F5F7F4F90E080E052DF0F90DF91CF9187
:102D4000089590E02091F206233339F40C96982FE1
:102D5000990F990F990F80E008954896F8CFDA01FE
:102D6000E0919B06F0E0FE2FEE27E60FF71F90E0C4
:102D7000982F8827A901BD018E0F9F1F30CFCF93B9
:102D8000DF931F921F92CDB7DEB779836A8322E06B
:102D900030E0AE014F5F5F4F60E170E0E0DF0F9029
:102DA0000F90DF91CF910895CF93DF931F921F92E1
:102DB000CDB7DEB779836A8322E030E0AE014F5FA2
:102DC0005F4F64E070E0CBDF0F900F90DF91CF9109
:102DD0000895CF93DF931F92CDB7DEB720919B0666
:102DE00030E0322F2227260F371F90E0982F8827B8
:102DF000498341E050E0BE016F5F7F4F820F931F18
:102E0000EEDE0F90DF91CF910895CF93DF931F9265
:102E1000CDB7DEB76983DC01ED91FC910280F381CF
:102E2000E02D41E050E0BE016F5F7F4F19950F909C
:102E3000DF91CF910895CF93DF931F92CDB7DEB787
:102E40006983DC01ED91FC910280F381E02D41E08A
:102E500050E0BE016F5F7F4F19950F90DF91CF91CA
:102E60000895FC019485FB018485981303C081E0DB
:102E7000983008F080E00895CF93DF931F92CDB78C
:102E8000DEB76983DC01ED91FC910280F381E02DD6
:102E900041E050E0BE016F5F7F4F19950F90DF91C9
:102EA000CF910895FC01768765870895DC01ED9147
:102EB000FC91068CF78DE02D199591E089270895F6
:102EC000862F089581E08627089521E0FC018485FE
:102ED000883008F020E0822F08950895FF920F9324
:102EE0001F93CF93DF93EB01FC01178A168A2A8187
:102EF000211109C02B81211106C02C81211103C091
:102F00002D812223E9F041155105D1F08A01FC0100
:102F1000F08C80E591E005D8AE014E5F5F4F24E074
:102F200030E06CE070E08F2D1ADFB8018F2D27DFC5
:102F300081E090E0DF91CF911F910F91FF90089574
:102F400080E0F7CFFC01848595850895FC01848994
:102F50009589089522EC32E0FC0131832083FB0146
:102F60004089518962897389FC0142835383648358
:102F700075830895DC01ED91FC91048CF58DE02DB5
:102F80001994089590E080E008954F925F926F92B7
:102F90007F928F929F92AF92BF92CF92DF92EF92E9
:102FA000FF92CF93DF93CDB7DEB765970FB6F89456
:102FB000DEBF0FBECDBF8D8B60912D02FF24FA9432
:102FC000F60E60912C02EE24EA94E60E21EE3EE22B
:102FD00045E652E46091F2077091F3078091F4079F
:102FE0009091F5070E940B444B015C012D8922232F
:102FF00009F4D3C182E189836F2D70E090E080E015
:103000000E94354220E030E843EF51E40E949442B0
:103010002B013C016E2D70E090E080E00E94354273
:103020009B01AC01C301B2010E94A4436B017C016E
:103030002981622F70E090E080E00E94354220E01C
:1030400030E040EC51E40E940B449B01AC01C7010D
:10305000B6010E94A44322E43DEC4CE85CE30E94EC
:1030600094426B017C010E9408446D837E838F83B0
:103070009887C701B6010E94214569877A878B87A7
:103080009C87A7019601C701B6010E94A4432B01AA
:103090003C010E9408446D877E878F87988BC3010F
:1030A000B2010E942145698B7A8B8B8B9C8B20E02F
:1030B00030E040E450E4C701B6010E9494426B0145
:1030C0007C010E9408442B013C01C701B6010E940B
:1030D000214569837A838B839C8324E431EC4CEC17
:1030E0005EE36D817E818F8198850E9494429B0171
:1030F000AC0164E670EB82EE9BE30E94A3436B019C
:103100007C0127EE32EE4FE85DE369857A858B8599
:103110009C850E9494429B01AC01C701B6010E94AC
:10312000A4436B017C0126E332E74DED5BE36D8543
:103130007E858F8598890E9494429B01AC01C701CE
:10314000B6010E94A3436B017C012DEB33EC4DE6ED
:103150005AE369897A898B899C890E9494429B01F0
:10316000AC01C701B6010E94A4436B017C0127E2B8
:1031700030EC40E35BE3C301B2010E9494429B0147
:10318000AC01C701B6010E94A3436B017C012FE88B
:103190003CEF41EC5AE369817A818B819C810E94EA
:1031A00094429B01AC01C701B6010E94A4436B018C
:1031B0007C01C501B4010E9408442B013C01C701F8
:1031C000B6010E94084469837A838B839C83C5017E
:1031D000B4010E9469454B015C01C701B6010E9420
:1031E00069456B017C0129813A814B815C81C30176
:1031F000B2010E9494429B01AC0168E879E48EE63A
:103200009CEB0E940B442B013C01A7019601C501D8
:10321000B4010E9494429B01AC01C301B2010E941F
:10322000A3436B017C019F7720E030E040E85FE33F
:103230000E941D4518160CF4B3C0C701B6010E94C8
:1032400095436B017C018D89811104C0F7FAF094DC
:10325000F7F8F0946091F6077091F7078091F807FE
:103260009091F907905821EE3EE245E652E40E9423
:103270000B44A70196010E94A34320E030E040E800
:1032800050E40E94944221EE3EE245E652E40E9460
:10329000944220E030E044E354E40E94A4436B01F4
:1032A0007C012EEA37ED44EF5AE36D817E818F81F8
:1032B00098850E94944222E539E44DE958E30E9442
:1032C000A4434B015C012CE233E643E05DE36985F6
:1032D0007A858B859C850E9494429B01AC01C50137
:1032E000B4010E94A3434B015C0121EC33E74FE69C
:1032F0005CE36D857E858F8598890E9494429B0151
:10330000AC01C501B4010E94A3434B015C0128E458
:1033100031E547E25DE369897A898B899C890E945E
:1033200094429B01AC01C501B4010E94A34324E176
:103330003EE245E653E40E9494429B01AC01C70182
:10334000B6010E94A3430E9473442091FA07309172
:10335000FB07620F731F10922B0210922A02109229
:103360002902072E000C880B990B0E942F0E81E07A
:1033700065960FB6F894DEBF0FBECDBFDF91CF913B
:10338000FF90EF90DF90CF90BF90AF909F908F9085
:103390007F906F905F904F90089526E029832CCE08
:1033A00080E0E6CFCF92EF92FF920F931F93CF93DF
:1033B000DF939091D70791110CC09091D80791118C
:1033C00008C09091D907911104C09091DA07992310
:1033D00041F0811104C0411102C0653011F0CC20D0
:1033E000C1F1F22EC42FD62F182F8093290260939B
:1033F0002A0240932B0220932C0200932D02E0928C
:103400002E0281E0C2DD882351F00E94450F809199
:103410002B028093D70780912A028093D8071093BC
:103420002902D0932A02C0932B02F0922C0200931F
:103430002D02E0922E0280E0A8DD882351F00E9448
:10344000450F80912B028093D90780912A028093A7
:10345000DA07DF91CF911F910F91FF90EF90CF90FE
:103460000895CF93DF9320917C0930917D09232B20
:1034700089F0FC01C0917809D0917909608171814E
:10348000CE010E942248009729F08C1B9D0BDF91F2
:10349000CF9108958FEF9FEFFACFFB0101900020AD
:1034A000E9F73197AF01461B570BDC01ED91FC9119
:1034B0000280F381E02D19948F929F92AF92BF9278
:1034C000EF92FF920F931F93CF93DF93CDB7DEB7A9
:1034D000A1970FB6F894DEBF0FBECDBF7C01FA01F5
:1034E000CB0119A2223008F42AE08E010F5D1F4F94
:1034F000822E912CB12CA12CBF01A50194010E9418
:103500006443F901CA016A3004F5605DD8016E9325
:103510008D01232B242B252B79F790E080E0109749
:1035200019F0BD01C701B9DFA1960FB6F894DEBF4F
:103530000FBECDBFDF91CF911F910F91FF90EF9004
:10354000BF90AF909F908F900895695CDFCF8F926E
:103550009F92AF92BF92CF92DF92EF92FF920F9322
:103560001F93CF93DF937C01EB016C0182E0C80EC7
:10357000D11C4701E5E08E0E911C10E000E0F60141
:1035800041916F0150E070E060E02AE0CE0194DFED
:103590005C01E881F9810190F081E02D6EE2CE01BD
:1035A00019958A0D9B1D080F191FC814D90439F7E6
:1035B000F701458150E070E060E02AE0CE017CDF59
:1035C000800F911FDF91CF911F910F91FF90EF908E
:1035D000DF90CF90BF90AF909F908F90089564ED53
:1035E00072E05BCF0F931F93CF93DF93EC0155DF16
:1035F0008C01CE01F4DF800F911FDF91CF911F91DD
:103600000F910895EF92FF920F931F93CF93DF9343
:103610008C017B01D0E0C0E0F701EC0FFD1F64914D
:10362000662331F0C80128DC892B11F02196F4CFF4
:10363000C801D5DF8C0F9D1FDF91CF911F910F9196
:10364000FF90EF900895FC0180819181009711F027
:103650000C94753F60E070E0CB0108950F931F93C9
:10366000CF93DF93EC0188819981009759F02A81EB
:103670003B812617370730F081E0DF91CF911F9112
:103680000F9108958B016F5F7F4F0E942F47009726
:1036900059F0998388831B830A832C813D81232BD6
:1036A00059F7FC011082E8CF80E0E7CFEF92FF925C
:1036B0000F931F93CF93DF936115710541F480E061
:1036C000DF91CF911F910F91FF90EF9008954115D9
:1036D0005105A9F07B01EC010C811D81040F151F20
:1036E000B801BCDF882359F3288139818C819D8101
:1036F000B701820F931F0E941B481D830C8381E03A
:10370000DFCFCF93DF93EC0188819981009711F08F
:103710000E94A646198218821D821C821B821A8270
:10372000DF91CF910895CF93DF93EC01FB010190DE
:103730000020E9F73197AF01461B570BB7DF811126
:1037400002C0CE01DEDFCE01DF91CF910895CF938D
:10375000DF93EC01FB014481558160817181A6DF1B
:10376000811102C0CE01CDDFCE01DF91CF9108954E
:10377000EF92FF920F931F93CF93DF93EC017B01A6
:103780008A01BA016BDF81110AC0CE01BADFCE0116
:10379000DF91CF911F910F91FF90EF9008951D83BE
:1037A0000C83B701888199810E941B48F0CFFB01EF
:1037B00001900020E9F73197AF01461B570BD8CF96
:1037C0000F931F93CF93DF9300D000D000D0CDB7DD
:1037D000DEB78C01862FF8011182108213821282CB
:1037E000158214824AE0BE016F5F7F4F90E00E9415
:1037F000BA3FBE016F5F7F4FC801D9DF29960FB670
:10380000F894DEBF0FBECDBFDF91CF911F910F9116
:103810000895EF92FF920F931F93CF93DF93CDB74D
:10382000DEB7A1970FB6F894DEBF0FBECDBF7C0107
:10383000CB01BA01F7011182108213821282158224
:1038400014828E010F5F1F4F22E044E00E94583F18
:10385000009781F0BC01C701AADFA1960FB6F894CA
:10386000DEBF0FBECDBFDF91CF911F910F91FF90B3
:10387000EF900895C70145DFF0CF0F931F93CF93CB
:10388000DF93CDB7DEB762970FB6F894DEBF0FBEF9
:10389000CDBF8C01CB01F8011182108213821282FC
:1038A000158214824AE0BE016F5F7F4F0E949B3FEA
:1038B000BE016F5F7F4FC8017ADF62960FB6F89442
:1038C000DEBF0FBECDBFDF91CF911F910F91089545
:1038D000FB01DC0111961C921E9213961C921E9203
:1038E000129715961C921E9214978617970741F00F
:1038F000608171816115710519F04481558138CF5E
:103900000895FC01118210821382128215821482A2
:10391000FB0101900020E9F73197AF01461B570BDF
:1039200027CFCF92DF92EF92FF920F931F93CF9307
:10393000DF936C017B018A014617570720F48F2D16
:103940007A01062F182F66ED72E0C601DADFC0910A
:103950007C09D0917D09EC16FD06F0F40C171D07CB
:1039600008F4E801E0917809F0917909EC0FFD1F66
:103970001081108260917809709179096E0D7F1D18
:10398000C6016115710591F012DF8091780990915F
:103990007909C80FD91F1883C601DF91CF911F91F4
:1039A0000F91FF90EF90DF90CF900895AADEEDCFBA
:1039B000FC0180819181009711F00C94A646089536
:1039C0000F931F93CF93DF93CDB7DEB72C970FB62E
:1039D000F894DEBF0FBECDBF8C016A3068F0F0DE18
:1039E000C8012C960FB6F894DEBF0FBECDBFDF9195
:1039F000CF911F910F910895CE010196E1DE67ED01
:103A000072E0CE0107967DDFBE016F5F7F4FCE0172
:103A100007969DDEBC01C8015BDFCE010796C8DFBB
:103A2000CE010196C5DFDCCF8F929F92AF92BF92FD
:103A3000CF92DF92EF92FF920F931F93CF93DF937A
:103A4000CDB7DEB768970FB6F894DEBF0FBECDBF17
:103A50007C01062F10E00E944F13F801EE0FFF1FAC
:103A6000EE0FFF1FE350F74F6083718382839383D0
:103A7000000F111F000F111FF801EB57F74F0081C6
:103A800011812281338158016901A61AB70AC80A37
:103A9000D90AC601B50128EE33E040E050E00E94AB
:103AA000644349010CE310E0C901B8010E94CF450D
:103AB000AC01C401841B950BB8010E94CF456B017A
:103AC000CB01B8010E94CF455C01C81AD90A642F06
:103AD000CE01019675DF6A2DCE01079671DFC60112
:103AE000B8010E94CF45CE0143966ADFBE016D5EEC
:103AF0007F4FCE010D96ECDE69ED72E0CE010D96A2
:103B000012DEBE01695F7F4F22DE69ED72E00BDEDF
:103B1000BE016F5F7F4F1BDEBC01C701D9DECE0146
:103B20000D9646DFCE01439643DFCE01079640DF78
:103B3000CE0101963DDFC70168960FB6F894DEBF4F
:103B40000FBECDBFDF91CF911F910F91FF90EF90EE
:103B5000DF90CF90BF90AF909F908F900895AF92DD
:103B6000BF92CF92DF92EF92FF920F931F93CF936A
:103B7000DF9300D01F92CDB7DEB78C016B017A01C5
:103B80008091F2068333C1F45B016801C40ED51E37
:103B9000C016D10681F111D88FE01AD8812F18D81C
:103BA000802F16D80F5F1F4F80E012D8F501819348
:103BB0005F010E94D315ECCF843369F50E94DD15B7
:103BC00019830A838F2D8F778B83EC8264E070E0FA
:103BD000CE0101960E94B915A70170E060E0C60110
:103BE0000E941448E114F10421F0B701C6010E94BB
:103BF000B9150E94D315C7010F900F900F900F9029
:103C0000DF91CF911F910F91FF90EF90DF90CF90B8
:103C1000BF90AF9008950E94DD150F3F110509F088
:103C200030F419820A831B8263E070E0D1CF17FD64
:103C30000BC019820A8333E0169507953A95E1F790
:103C4000007E08600B83F0CFC80126E0969587952B
:103C50002A95E1F7807E19830A830115104C18F428
:103C600080618B83E1CF8861FCCF1F93CF93DF937B
:103C70001F92CDB7DEB7182F80E591E00E94910F1B
:103C8000812F5FD827E0129FF0011124E655F94FEC
:103C900022813381377041E050E0BE016F5F7F4F7A
:103CA000820F931F5CDF89810F90DF91CF911F916D
:103CB0000895FC01808D883038F4218D328D232BBE
:103CC00019F0D3DF90E008958FEF9FEF0895CF9321
:103CD000DF93FC012485283028F08FEF9FEFDF91E0
:103CE000CF910895EC010190F081E02D0084F185E1
:103CF000E02D1995892B89F38C85B7DF90E0EFCF04
:103D0000CF93DF931F92CDB7DEB741E050E0BE0105
:103D10006F5F7F4F24DF89810F90DF91CF910895EE
:103D200090E080E0EDCFCF93DF93C4E1D0E0F8DF07
:103D3000882361F061E070E080E090E00E94091269
:103D40002197A9F780E0DF91CF91089581E0FBCF23
:103D50001F93CF93DF931F921F92CDB7DEB760E31F
:103D600072E080E090E00E9409121FB7F894809101
:103D70009A06811127C0E8E4FBE18491EEE8FBE1BB
:103D80009491E82FF0E0EE0FFF1FE158F64EA59159
:103D9000B491EC91E92321F461E085E30E943011B4
:103DA00061E085E30E94B3118CB580618CBD8CB558
:103DB00080648CBD61E084E30E94B31161E083E321
:103DC0000E94B31180919A068F5F80939A061FBF5D
:103DD000EDE1FBE1E491F0E0EE0FFF1FE756F64E58
:103DE000859194919093990680939806E3E6FBE180
:103DF000E491E093970661E08AE00E94B3110E948B
:103E0000D31580E591E00E94910F84E38093F20640
:103E100080E80E948F1687DF882371F188E00E9476
:103E20008F167EDF883041F580E10E948F1678DFA3
:103E3000803111F580E00E948F1672DF182F8111FA
:103E40001BC08FE190E05CDF8330B1F480E48093AD
:103E50009B0642E06EE170E0812F0E94E91642E08D
:103E60006FE170E0812F0E94E9161F5F183089F71B
:103E700081E08093F3065BC087E38093F20680E8DD
:103E80000E948F1650DF8823D9F088E00E948F1699
:103E900047DF8830A9F480E10E948F1641DF182F98
:103EA000803171F480E00E948F163ADF811108C0E2
:103EB00089E390E025DF843019F410939B06D8CF76
:103EC00083E38093F20680E80E948F162CDF88231C
:103ED00059F180E10E948F1623DF803129F582E1BC
:103EE0000E948F161DDF8231F9F480E00E948F1648
:103EF00017DF811119C084E080939B0615E51A83B2
:103F000041E050E0BE016E5F7F4F8BE190E00E9488
:103F1000EF15198341E050E0BE016F5F7F4F8AE1EA
:103F200090E00E94EF15A4CF1092F20680E00F906F
:103F30000F90DF91CF911F910895CF92DF92EF9272
:103F4000FF92CF93DF93CDB7DEB7C254D1090FB63E
:103F5000F894DEBF0FBECDBFFC0142815381648166
:103F6000758123964CAF5DAF6EAF7FAF239781E035
:103F700023968FAF23972396CCACDDACEEACFFAC91
:103F80002397CBAADCAAEDAAFEAA4DA75EA76FA72E
:103F900078AB88ABCDA4DEA4EFA4F8A8CFA2D8A6B6
:103FA000E9A6FAA68EABCBA8DCA8EDA8FEA8C9A20C
:103FB000DAA2EBA2FCA222EC32E03C8B2B8B9FEF2F
:103FC0009D8B9E8B9F8B188E3E872D878AA7CFA0B7
:103FD000D8A4E9A4FAA4CF86D88AE98AFA8A8CA35D
:103FE00089A19AA1ABA1BCA189879A87AB87BC871D
:103FF0003A8329834B835C836D837E838091F306B0
:10400000882309F443C080E591E00E94910F46E0C7
:1040100050E063E272E089E090E00E94EF1544E036
:1040200050E0BE016D5F7F4F8FE090E00E94EF1582
:1040300044E050E0BE01615F7F4F81E090E00E946C
:10404000EF1544E050E0BE016B5E7F4F85E090E0ED
:104050000E94EF1581E08C8789859A85AB85BC85A8
:104060008093B1079093B207A093B307B093B407BE
:10407000CE5BDF4F0FB6F894DEBF0FBECDBFDF9132
:10408000CF91FF90EF90DF90CF90089561DE88236D
:1040900079F3B9CF20919B0630E0322F2227620FAF
:1040A000731F90E0982F8827860F971F29CECF93F4
:1040B000C82F462F61E070E00E94E91661E070E0D1
:1040C0008C2FE8DF8111FACFCF910895CF93C82FBD
:1040D00080E591E00E94910F68E070E08C2FCF9115
:1040E000E6CFCF93C82F80E591E00E94910F60E169
:1040F00070E08C2FCF91DBCFCF93DF93EC01888DD5
:10410000883018F4EEDF88E0888FDF91CF91089532
:1041100063E070E0BFCFCF93C82F80E591E00E94AD
:10412000910F8C2FCF91F4CFEF92FF920F931F93AB
:10413000CF93DF937C018091F206D4E0833309F0C2
:10414000D8E002EE16E0C0E0F801219131918F0134
:10415000F701848195812817390729F0CF5FDC1397
:10416000F3CF80E005C08C2FD6DF8431B9F781E032
:10417000DF91CF911F910F91FF90EF900895CF9312
:10418000DF93EC018C858830C8F4C5DF843189F079
:10419000882379F0883169F021E08C3159F4E88185
:1041A000F9810084F185E02DCE01199521E0892B5C
:1041B00009F420E0822FDF91CF91089580E0FBCFBA
:1041C000CF92DF92EF92FF92CF93DF93EC018C8539
:1041D000883058F47BDF0E944F136B017C018C8583
:1041E0009ADF811109C088E08C87DF91CF91FF9021
:1041F000EF90DF90CF90089561E070E080E090E074
:104200000E9409120E944F13AB01BC014C195D09B9
:104210006E097F098D859E85B0E0A0E0481759079B
:104220006A077B07E0F28C855CDFDDCFCF93FC0172
:10423000C08D80E591E00E94910F60E270E08C2FCC
:1042400036DF62E070E08C2F25DF84FD15C062E070
:1042500070E08C2F1FDF83FF0AC048E162E070E04E
:104260008C2F0E94E91680E090E0CF91089580E5C0
:1042700091E00E94910FE5CF40E162E070E08C2F69
:104280000E94E91681E0F0CFDA01E0919B06F0E0B0
:10429000FE2FEE27E60FF71F90E0982F8827A90141
:1042A000BD018E0F9F1F5BCC8F929F92AF92BF92EA
:1042B000CF92DF92EF92FF920F931F93CF93DF93F2
:1042C000CDB7DEB760970FB6F894DEBF0FBECDBF97
:1042D0007C019091F206911115C018E0812F609633
:1042E0000FB6F894DEBF0FBECDBFDF91CF911F9107
:1042F0000F91FF90EF90DF90CF90BF90AF909F9085
:104300008F90089508E0933309F404E06B0180E591
:1043100091E00E94910F9E012F5F3F4F590149018B
:1043200010E0812FF5DEF40181934F018823B9F06D
:104330001F5F0113F6CF00E0F50181915F018D3120
:1043400049F0883139F08A51823020F00F5F101324
:10435000F3CFC3CF60E170E0802FA9DE102FA12E34
:10436000B12CF501EE0FFF1FEE51F94F11821082B3
:1043700083EE93E00197F1F742E870E060E0812F6F
:104380000E94E9164FEF62E070E0812F0E94E9166B
:10439000B601C114D10491F48091210290912202BE
:1043A00001968115F0EC9F0708F45AC09093220201
:1043B000809321026091210270912202812F0E943C
:1043C000D41686E0E9E4F2E0DE01199601900D9240
:1043D0008A95E1F7F70183818F778C8784818D87B8
:1043E00085818E87A7014E5F5F4F24E030E06CE04F
:1043F00070E0812F0E94AF16B601812F0E94BF1678
:1044000026E030E0AE01475F5F4F66E070E0812F4D
:104410000E94AF1661E070E0812F49DE27E02A9DFF
:10442000C0012B9D900D11249C012655394F790117
:10443000F9011182108222E030E0AE01415F5F4F4E
:1044400068E270E0812F20DF8F859889982789277F
:104450009827F701938382831682158214823ECFB8
:1044600080E090ECA3CFCF92DF92EF92FF920F9378
:104470001F93CF93DF9300D000D0CDB7DEB78C0170
:104480006B017A01FC01808D883008F42ADE82EC11
:1044900092E09A838983F60182819381A481B58118
:1044A0008B839C83AD83BE83B701CE010196FCDE76
:1044B000F801808F8830A0F4F586E486128E118E84
:1044C00081E026960FB6F894DEBF0FBECDBFDF9118
:1044D000CF911F910F91FF90EF90DF90CF900895B3
:1044E00080E0EFCF7F928F929F92AF92BF92CF9258
:1044F000DF92EF92FF920F931F93CF93DF931F9260
:104500001F92CDB7DEB7782E8B014A01590122E008
:1045100030E0AE014F5F5F4F64E270E0B5DEE980EE
:10452000FA80FE24EF24FE24E00EF11E970137707E
:104530004091F206072D10E0433309F042C0085FB6
:104540001F4F102F0027110F110F110FC901800FDE
:10455000911F4733C9F1A9014A0D5B1D41305840F5
:1045600098F160E078E06B01C21AD30AA601B401A9
:104570000E94EF15A5014C195D09B4016C0D7D1D5C
:10458000C8010E94EF15EA0CFB1CF982EA8222E0C6
:1045900030E0AE014F5F5F4F64E270E0872D0E9414
:1045A000AF160F900F90DF91CF911F910F91FF9059
:1045B000EF90DF90CF90BF90AF909F908F907F90C3
:1045C0000895005F1F4FBDCFA501B401DACFEF9270
:1045D000FF921F93CF93DF931F921F92CDB7DEB749
:1045E000182F22E030E0AE014F5F5F4F60E270E0D5
:1045F0004BDEE980FA80FE24EF24FE2422E030E046
:10460000AE014F5F5F4F60E270E0812F3DDE898138
:104610009A81982789279827E816F90689F487E070
:10462000189FF0011124E655F94FF582E482C70185
:104630000F900F90DF91CF911F91FF90EF90089511
:104640007C01DCCF1F93CF93DF93182F80E591E09F
:104650000E94910F812FBBDFEC01812F59DD873143
:1046600021F08C3111F0D0E0C0E0CE01DF91CF918C
:104670001F910895CF93DF93EC018C85883050F41F
:104680004ADD873111F08C3129F48C85DBDF81150F
:10469000984098F3DF91CF910895FC01848588308C
:1046A00008F4D0CF90E080E00895CF92DF92EF92AF
:1046B000FF921F93CF93DF93182F7B01EA014130C4
:1046C000584010F0C0E0D8E080E591E00E94910FE2
:1046D000812F7DDF6C01812F1BDD873111F08C3143
:1046E00001F5CC16DD0680F380E591E00E94910F84
:1046F0009E01A70170E060E0812FF4DE60E270E0CF
:10470000812FD5DC62E070E0812FC4DC84FD0CC019
:10471000812FFEDC8823B9F080E591E00E94910FA3
:10472000F1CFD0E0C0E0E0CF40E162E070E0812F67
:104730000E94E916CE01DF91CF911F91FF90EF907B
:10474000DF90CF900895D0E0C0E0F4CF0F931F9397
:10475000CF93DF938C01EA01FC018485883040F41B
:10476000A4DF892B39F481E090E0F8019383828300
:10477000D0E0C0E0CE01DF91CF911F910F9108955D
:104780000F931F93CF93DF93EC01FB01448155817D
:1047900060817181DBDF8C01CE010E94EF1A800FF6
:1047A000911FDF91CF911F910F9108959F92AF922A
:1047B000BF92CF92DF92EF92FF920F931F93CF930E
:1047C000DF938C015B01942EE52EFC01C688D7880F
:1047D000F08C80E591E00E94910F8F2DF8DEC92DBD
:1047E000DE2D8C179D0708F4EC019E01A501B60192
:1047F0008F2D78DEF801868997898C0F9D1F978B06
:10480000868BCE01DF91CF911F910F91FF90EF909A
:10481000DF90CF90BF90AF909F900895FF920F933D
:104820001F93CF93DF931F921F92CDB7DEB7F82E61
:1048300022E030E0AE014F5F5F4F66E270E024DDC2
:1048400009811A8110270127102722E030E0AE01EC
:104850004F5F5F4F66E270E08F2D16DD89819A8190
:104860009827892798270817190749F4C8010F9036
:104870000F90DF91CF911F910F91FF9008958C01C0
:10488000E4CF1F93CF93DF93182F87E0189FE001A9
:104890001124C655D94F88819981009759F480E534
:1048A00091E00E94910F812FB9DF2E81821B910927
:1048B00099838883DF91CF911F9108959F92AF9242
:1048C000BF92CF92DF92EF92FF920F931F93CF93FD
:1048D000DF93EC017B018091F206811121C01B82E4
:1048E0001A8288EE93E0A0E0B0E08C839D83AE83D3
:1048F000BF8383E592E09983888388E08C8788EE84
:1049000093E09E878D87CE01DF91CF911F910F910C
:10491000FF90EF90DF90CF90BF90AF909F90089561
:1049200034E0932E833311F028E0922E82EEC82ECD
:1049300086E0D82E10E098E0B92EA12CD6012D915A
:104940003D916D01F701848195812817390779F42C
:10495000812FE1DB082F873111F08C3129F5812F70
:1049600090DF892B51F50C3111F4812FAFDB1F5FE4
:104970009112E4CFA11008C0D701ED91FC91008401
:10498000F185E02DC70119951B821A8288EE93E00C
:10499000A0E0B0E08C839D83AE83BF8383E592E08B
:1049A00099838883BC86ABCF843149F08111DFCFF6
:1049B000F601329711821082DACFB12ED8CFAA2415
:1049C000A394D5CF8F929F92AF92BF92CF92DF9256
:1049D000EF92FF920F931F93CF93DF93CDB7DEB784
:1049E0002F970FB6F894DEBF0FBECDBF5C014B0111
:1049F0007A018091F2068823B1F104E0833309F053
:104A000008E0B501CE01019659DF82EEC82E86E09E
:104A1000D82E10E0F601219131916F01F5018481CA
:104A200095812817390741F4812F75DB873121F4EF
:104A3000A701B401812F39DE1F5F0113EBCFC7013E
:104A40002F960FB6F894DEBF0FBECDBFDF91CF918A
:104A50001F910F91FF90EF90DF90CF90BF90AF909C
:104A60009F908F900895F12CE12CE9CFFC01848573
:104A7000883008F406CF90E080E008954F925F926E
:104A80007F928F929F92AF92BF92CF92DF92EF92DE
:104A9000FF920F931F93CF93DF931F921F92CDB777
:104AA000DEB7782E6B014A01A82EB12C27E0829F39
:104AB000C0011124FC01E655F94F7F0100811181ED
:104AC00080E591E00E94910F081519054CF4872D9F
:104AD000A5DEF70126818C01021B110911830083D9
:104AE0000115110511F5872D13DB843159F0882349
:104AF00049F001E010E08C3111F410E000E0119574
:104B000001951109C8010F900F90DF91CF911F916E
:104B10000F91FF90EF90DF90CF90BF90AF909F905C
:104B20008F907F905F904F900895801691060CF4BF
:104B3000840187E08A9DF0018B9DF00D1124E655DC
:104B4000F94FE280F380C114D10451F12701F7E05D
:104B50005F22872D0E94A116840D951D2091F206DB
:104B6000273309F452C09801240D351D21303840F7
:104B700008F44BC020E038E0490184189508A401EE
:104B8000B6010E94AF1D2601480C591C6801C818C7
:104B9000D908872D0E94A116A601B2010E94AF1D5F
:104BA000E00EF11E87E08A9DF0018B9DF00D11242F
:104BB000E655F94FF382E28220813181201B310BCF
:104BC000318320838681800F912F911D8A3F91052B
:104BD00010F4232BE9F487E08A9DF0018B9DF00D02
:104BE0001124E655F94F1682F982EA8222E030E07C
:104BF000AE014F5F5F4F68E270E0872D0E94AF16F5
:104C000060E470E0872D53DA7DCFA801B601C6CFEE
:104C1000868378CFCF93DF93FC01218D328D2115D0
:104C2000310529F48FEF9FEFDF91CF910895EC01CB
:104C3000808D4217530708F0A90120DF18161906C6
:104C40008CF7298D3A8D281B390B3A8F298FECCFA1
:104C50000F931F93CF93DF931F92CDB7DEB7FC0165
:104C6000218D328D232B41F48FEF9FEF0F90DF9139
:104C7000CF911F910F9108958C0141E050E0BE014A
:104C80006F5F7F4FFC01808DF9DE1816190664F7FF
:104C9000F801818D928D0197928F818F898190E0AB
:104CA000E5CFCF93DF931F92CDB7DEB741E050E061
:104CB000BE016F5F7F4FFC018485E0DE1816190688
:104CC00034F4898190E00F90DF91CF9108958FEFB8
:104CD0009FEFF9CFCF92DF92EF92FF920F931F9346
:104CE000CF93DF93CDB7DEB7EE970FB6F894DEBF64
:104CF0000FBECDBF67EC77E0CE014296DFDD8E8D33
:104D0000883010F00C94B33166ED72E0CE01C3969A
:104D10000E94811C0E944F136093D3077093D407A5
:104D20008093D5079093D60760939306709394066B
:104D30008093950690939606CE01429620DA8823BA
:104D400011F40C94A5318091D3079091D407A091D0
:104D5000D507B091D6074091930650919406609183
:104D6000950670919606841B950BA60BB70B813D9B
:104D70009740A105B10510F00C94A5310E944F1386
:104D80006093D3077093D4078093D5079093D60789
:104D9000CE0142966BDE892B79F2CE01429681DFFD
:104DA000182F89831A8241E050E0BE016F5F7F4F68
:104DB00088E799E00E94561B1A3011F00C94CA3211
:104DC0008FA998AD892B11F00C94C2326BED72E073
:104DD000CE0142960E94F21A6BEE72E0CE0142962C
:104DE0000E94F21A62E073E0CE0142960E94F21A2B
:104DF000CE0142960E94EF1A64E173E0CE01019663
:104E00000E94811CCE0101960E94311A8C01CE01B4
:104E100001960E94D81C17FD03C08DE00E9402136A
:104E20006FE173E0CE0101960E94811CCE010196D4
:104E30000E94311A8C01CE0101960E94D81C17FDE8
:104E400003C08DE00E94B5126AE273E0CE010196C4
:104E50000E94811CCE0101960E94311A8C01CE0164
:104E600001960E94D81C17FD03C08DE00E946812B5
:104E700065E373E0CE0101960E94811CCE0101968C
:104E80000E94311A8C01CE0101960E94D81C17FD98
:104E900003C08CE00E94021360E473E0CE0101962F
:104EA0000E94811CCE0101960E94311A8C01CE0114
:104EB00001960E94D81C17FD03C08CE00E94B51219
:104EC0006BE473E0CE0101960E94811CCE01019635
:104ED0000E94311A8C01CE0101960E94D81C17FD48
:104EE00003C08CE00E94681266E573E0CE01019673
:104EF0000E94811CCE0101960E94311A8C01CE01C4
:104F000001960E94D81C17FD03C08BE00E9402137B
:104F100061E673E0CE0101960E94811CCE010196EC
:104F20000E94311A8C01CE0101960E94D81C17FDF7
:104F300003C08BE00E94B5126CE673E0CE010196CF
:104F40000E94811CCE0101960E94311A8C01CE0173
:104F500001960E94D81C17FD03C08BE00E946812C6
:104F600067E773E0CE0101960E94811CCE01019695
:104F70000E94311A8C01CE0101960E94D81C17FDA7
:104F800003C08AE00E94021362E873E0CE0101963A
:104F90000E94811CCE0101960E94311A8C01CE0123
:104FA00001960E94D81C17FD03C08AE00E94B5122A
:104FB0006DE873E0CE0101960E94811CCE0101963E
:104FC0000E94311A8C01CE0101960E94D81C17FD57
:104FD00003C08AE00E94681268E973E0CE0101967E
:104FE0000E94811CCE0101960E94311A8C01CE01D3
:104FF00001960E94D81C17FD03C089E00E9402138D
:1050000063EA73E0CE0101960E94811CCE010196F5
:105010000E94311A8C01CE0101960E94D81C17FD06
:1050200003C089E00E94B5126EEA73E0CE010196DA
:105030000E94811CCE0101960E94311A8C01CE0182
:1050400001960E94D81C17FD03C089E00E946812D7
:1050500069EB73E0CE0101960E94811CCE0101969E
:105060000E94311A8C01CE0101960E94D81C17FDB6
:1050700003C088E00E94021364EC73E0CE01019645
:105080000E94811CCE0101960E94311A8C01CE0132
:1050900001960E94D81C17FD03C088E00E94B5123B
:1050A0006FEC73E0CE0101960E94811CCE01019647
:1050B0000E94311A8C01CE0101960E94D81C17FD66
:1050C00003C088E00E9468126AED73E0CE01019689
:1050D0000E94811CCE0101960E94311A8C01CE01E2
:1050E00001960E94D81C17FD03C087E00E9402139E
:1050F00065EE73E0CE0101960E94811CCE010196FF
:105100000E94311A8C01CE0101960E94D81C17FD15
:1051100003C087E00E94B51260EF73E0CE010196F4
:105120000E94811CCE0101960E94311A8C01CE0191
:1051300001960E94D81C17FD03C087E00E946812E8
:105140006BEF73E0CE0101960E94811CCE010196A7
:105150000E94311A8C01CE0101960E94D81C17FDC5
:1051600003C086E00E94021366E074E0CE0101965F
:105170000E94811CCE0101960E94311A8C01CE0141
:1051800001960E94D81C17FD03C086E00E94B5124C
:1051900061E174E0CE0101960E94811CCE0101966E
:1051A0000E94311A8C01CE0101960E94D81C17FD75
:1051B00003C086E00E9468126CE174E0CE010196A3
:1051C0000E94811CCE0101960E94311A8C01CE01F1
:1051D00001960E94D81C17FD03C085E00E940213AF
:1051E00067E274E0CE0101960E94811CCE01019617
:1051F0000E94311A8C01CE0101960E94D81C17FD25
:1052000003C085E00E94B51262E374E0CE0101960E
:105210000E94811CCE0101960E94311A8C01CE01A0
:1052200001960E94D81C17FD03C085E00E946812F9
:105230006DE374E0CE0101960E94811CCE010196BF
:105240000E94311A8C01CE0101960E94D81C17FDD4
:1052500003C084E00E94021368E474E0CE0101966A
:105260000E94811CCE0101960E94311A8C01CE0150
:1052700001960E94D81C17FD03C084E00E94B5125D
:1052800063E574E0CE0101960E94811CCE01019677
:105290000E94311A8C01CE0101960E94D81C17FD84
:1052A00003C084E00E9468126EE574E0CE010196AE
:1052B0000E94811CCE0101960E94311A8C01CE0100
:1052C00001960E94D81C17FD03C083E00E940213C0
:1052D00069E674E0CE0101960E94811CCE01019620
:1052E0000E94311A8C01CE0101960E94D81C17FD34
:1052F00003C083E00E94B51264E774E0CE0101961A
:105300000E94811CCE0101960E94311A8C01CE01AF
:1053100001960E94D81C17FD03C083E00E9468120A
:105320006FE774E0CE0101960E94811CCE010196C8
:105330000E94311A8C01CE0101960E94D81C17FDE3
:1053400003C082E00E9402136AE874E0CE01019675
:105350000E94811CCE0101960E94311A8C01CE015F
:1053600001960E94D81C17FD03C082E00E94B5126E
:1053700065E974E0CE0101960E94811CCE01019680
:105380000E94311A8C01CE0101960E94D81C17FD93
:1053900003C082E00E94681260EA74E0CE010196C8
:1053A0000E94811CCE0101960E94311A8C01CE010F
:1053B00001960E94D81C17FD03C081E00E940213D1
:1053C0006BEA74E0CE0101960E94811CCE01019629
:1053D0000E94311A8C01CE0101960E94D81C17FD43
:1053E00003C081E00E94B51266EB74E0CE01019625
:1053F0000E94811CCE0101960E94311A8C01CE01BF
:1054000001960E94D81C17FD03C081E00E9468121B
:1054100061EC74E0CE0101960E94811CCE010196E0
:105420000E94311A8C01CE0101960E94D81C17FDF2
:1054300003C081E0809320026CEC74E0CE01019601
:105440000E94811CCE0101960E94311A8C01CE016E
:1054500001960E94D81C17FF1092200268ED74E09C
:10546000CE0101960E94811CCE0101960E94311A44
:105470008C01CE0101960E94D81C17FD08C08091B6
:105480001E0290911F0290931D0280931C0263EEF6
:1054900074E0CE0101960E94811CCE0101960E940B
:1054A000311A8C01CE0101960E94D81C17FD03C051
:1054B0008EE00E94DD136FEE74E0CE0101960E9433
:1054C000811CCE0101960E94311A8C01CE010196F9
:1054D0000E94D81C17FD07C04EE060EC77E289E01F
:1054E00090E00E9484136AEF74E0CE0101960E945E
:1054F000811CCE0101960E94311A8C01CE010196C9
:105500000E94D81C17FD03C08DE00E94DD1366E0E9
:1055100075E0CE0101960E94811CCE0101960E9489
:10552000311A8C01CE0101960E94D81C17FD07C0CC
:105530004DE060EC77E289E090E00E94841361E145
:1055400075E0CE0101960E94811CCE0101960E9459
:10555000311A8C01CE0101960E94D81C17FD03C0A0
:105560008CE00E94DD136DE175E0CE0101960E9492
:10557000811CCE0101960E94311A8C01CE01019648
:105580000E94D81C17FD07C04CE060E87FE482E170
:1055900090E00E94841368E275E0CE0101960E94BB
:1055A000811CCE0101960E94311A8C01CE01019618
:1055B0000E94D81C17FD03C081E08093920663E32C
:1055C00075E0CE0101960E94811CCE0101960E94D9
:1055D000311A8C01CE0101960E94D81C17FF10923F
:1055E00092066FE375E0CE0101960E94811CCE0108
:1055F00001960E94311A8C01CE0101960E94D81C9E
:1056000017FD03C081E080931B026AE475E0CE01C0
:1056100001960E94811CCE0101960E94311A8C01D4
:10562000CE0101960E94D81C17FF10921B0266E55E
:1056300075E0CE0101960E94811CCE0101960E9468
:10564000311A8C01CE0101960E94D81C17FD03C0AF
:1056500089E00E94DD1361E675E0CE0101960E94AB
:10566000811CCE0101960E94311A8C01CE01019657
:105670000E94D81C17FD07C049E060EC77E289E082
:1056800090E00E9484136BE675E0CE0101960E94C3
:10569000811CCE0101960E94311A8C01CE01019627
:1056A0000E94D81C17FF10921A0266E775E0CE011F
:1056B00001960E94811CCE0101960E94311A8C0134
:1056C000CE0101960E94D81C17FD03C081E0809393
:1056D0001A0260E875E0CE0101960E94811CCE019D
:1056E00001960E94311A8C01CE0101960E94D81CAD
:1056F00017FD03C087E00E94DD136BE875E0CE0163
:1057000001960E94811CCE0101960E94311A8C01E3
:10571000CE0101960E94D81C17FD07C047E060EC3F
:1057200077E289E090E00E94841365E975E0CE019C
:1057300001960E94811CCE0101960E94311A8C01B3
:10574000CE0101960E94D81C17FF1092190260EA40
:1057500075E0CE0101960E94811CCE0101960E9447
:10576000311A8C01CE0101960E94D81C17FD03C08E
:1057700081E0809319026AEA75E0CE0101960E94E9
:10578000811CCE0101960E94311A8C01CE01019636
:105790000E94D81C17FD10C064EB75E084EF96E002
:1057A0000E94F21A80E00E94681245E06CED75E0FC
:1057B00080E090E00E94841362EC75E0CE010196D7
:1057C0000E94811CCE0101960E94311A8C01CE01EB
:1057D00001960E94D81C17FD10C06CEC75E084EF98
:1057E00096E00E94F21A80E00E94B51244E06CED4F
:1057F00075E080E090E00E94841369ED75E0CE01D1
:1058000001960E94811CCE0101960E94311A8C01E2
:10581000CE0101960E94D81C17FD10C063EE75E002
:1058200084EF96E00E94F21A80E00E94021343E0A7
:105830006CED75E080E090E00E94841361EF75E00C
:10584000CE0101960E94811CCE0101960E94311A60
:105850008C01CE0101960E94D81C17FD03C081E087
:10586000809318026BEF75E0CE0101960E94811CB7
:10587000CE0101960E94311A8C01CE0101960E9440
:10588000D81C17FF1092180266E076E0CE01019650
:105890000E94811CCE0101960E94311A8C01CE011A
:1058A00001960E94D81C17FDB1C04FE050E06BE09C
:1058B00070E0CE0101960E94911CCE0101960E94DB
:1058C000231B7093020860930108CE0101960E9489
:1058D000D81C42E150E060E170E0CE0101960E94E8
:1058E000911CCE0101960E94231B60930308CE01F8
:1058F00001960E94D81C45E150E063E170E0CE01C2
:1059000001960E94911CCE0101960E94231B609378
:105910000408CE0101960E94D81C48E150E066E1DF
:1059200070E0CE0101960E94911CCE0101960E946A
:10593000231B60930608CE0101960E94D81C4BE100
:1059400050E069E170E0CE0101960E94911CCE0109
:1059500001960E94231B60930708CE0101960E94C6
:10596000D81C109229021091070810932A02F09077
:105970000608F0922B02D0900408D0922C020091DD
:10598000030800932D02E090010880E3E80EE09206
:105990002E020E94070F813009F0EDC087E080934E
:1059A00005088CE390E09093FB078093FA0785E36A
:1059B0009DEDA0E5B2E48093F2079093F307A093E6
:1059C000F407B093F5078AE69AE5A6EAB1E4809376
:1059D000F6079093F707A093F807B093F90783E0D1
:1059E0008093FC0784E08093FD079AE09093FE0784
:1059F0008093FF078CE380930008CC24C3942D2D63
:105A00004F2D612F809108080E94D21969E679E133
:105A1000CE0142960E94021B6EE179E1CE014296D0
:105A20000E94021B6EEF78E1CE0142960E94021B9B
:105A30006AE978E1CE0142960E94021B65E478E1B2
:105A4000CE0142960E94021B6EEF77E1CE01429694
:105A50000E94021B69EC77E1CE0142960E94021B74
:105A600069E977E1CE0142960E94021B69E877E17D
:105A7000CE0142960E94021B68E777E1CE01429672
:105A80000E94021B60910408CE018D960E94E01CCA
:105A900060910308CE0187960E94E01C8091010866
:105AA000909102081AA219A21CA21BA21EA21DA25A
:105AB0004AE0BE016F5F7F4F0E94BA3FBE016F5F39
:105AC0007F4FCE0181960E94D71BBE016F5D7F4F35
:105AD000CE0101960E94681C62E176E0CE0101963B
