:100000000C9406070C942E070C942E070C942E07C4
:100010000C942E070C942E070C942E070C942E078C
:100020000C942E070C942E070C942E070C942E077C
:100030000C942E070C942E070C942E070C942E076C
:100040000C94A32D0C942E070C94712D0C944B2D15
:100050000C942E070C942E070C942E070C942E074C
:100060000C942E070C942E07072C7AA5BA6CC59019
:10007000DA3B9365FC8BBC53F810FD3C5692834DE4
:10008000BD879D3AB63DCBC9BF5BBE73DA0FC93F92
:1000900005A84CCDB2D44EB93836A9020C50B9914E
:1000A0008688083CA6AAAA2ABE000000803F0664F3
:1000B000EC1B3C04BC163E3BE5B93CC93C37C29E38
:1000C0005A3D660498083EEA69AAAA3E00000080EC
:1000D0003F0000407A10F35A00A0724E1809001039
:1000E000A5D4E80000E87648170000E40B540200AD
:1000F00000CA9A3B000000E1F505000080969800D8
:10010000000040420F000000A08601000000102700
:1001100000000000E8030000000064000000000090
:100120000A00000000000100000000002C76D888C2
:10013000DC674F0823DFC1DFAE59E1B1B796E5E3D5
:10014000E453C63AE651997696E8E6C28426EB89EE
:100150008C9B62ED407C6FFCEFBC9C9F40F2BAA58B
:100160006FA5F490055A2AF75C936B6CF9676DC123
:100170001BFCE0E40D47FEF520E6B500D0ED902E27
:100180000300943577050080841E080000204E0A85
:10019000000000C80C333333330F986E12831141C3
:1001A000EF8D2114893BE65516CFFEE6DB18D1848E
:1001B0004B381BF77C1D901DA4BBE42420328472B5
:1001C0005E228100C9F124ECA1E53D273C2F626F3E
:1001D00064793E3C2F68746D6C3E003C612068720F
:1001E00065663D222F6E6F7468696E67223E3C62C1
:1001F0007574746F6E20636C6173733D22627574E5
:10020000746F6E20627574746F6E32223E52656632
:1002100072657368203C2F627574746F6E3E3C2F5C
:10022000613E3C2F703E003C2F627574746F6E3ED1
:100230003C2F613E3C2F703E003C61206872656639
:100240003D222F31342F6F6666223E3C62757474F6
:100250006F6E20636C6173733D22627574746F6E90
:1002600020627574746F6E32223E53746F70205A20
:1002700032207A6120003C6120687265663D222F41
:1002800031342F6F6E223E3C627574746F6E206342
:100290006C6173733D22627574746F6E223E537489
:1002A000617274205A323C2F627574746F6E3E3CDA
:1002B0002F613E3C2F703E003C2F627574746F6E50
:1002C0003E3C2F613E003C6120687265663D222FF6
:1002D00031332F6F6666223E3C627574746F6E20F8
:1002E000636C6173733D22627574746F6E20627506
:1002F00074746F6E32223E53746F70205A31207ABC
:100300006120003C6120687265663D222F31332FE9
:100310006F6E223E3C627574746F6E20636C617305
:10032000733D22627574746F6E223E5374617274F1
:10033000205A313C2F627574746F6E3E3C2F613EC3
:10034000003C2F627574746F6E3E3C2F613E003C22
:100350006120687265663D222F31322F6F666622FA
:100360003E3C627574746F6E20636C6173733D22E2
:10037000627574746F6E20627574746F6E32223E93
:1003800053746F70204C4B207A6120003C612068D0
:100390007265663D222F31322F6F6E223E3C6275B0
:1003A00074746F6E20636C6173733D226275747434
:1003B0006F6E223E5374617274204C4B3C2F6275F9
:1003C00074746F6E3E3C2F613E003C612068726524
:1003D000663D222F31312F6F6666223E3C62757476
:1003E000746F6E20636C6173733D22627574746FF9
:1003F0006E20627574746F6E32223E43796B6C208E
:10040000706F646C6577616E6965207720747261C6
:100410006B6369652C206E61647A69736E696A200A
:100420006279207A6174727A796D61633C2F6275AA
:1004300074746F6E3E3C2F613E003C6120687265B3
:10044000663D222F31312F6F6E223E3C62757474EF
:100450006F6E20636C6173733D22627574746F6E8E
:10046000223E53746172742063796B6C7520706FD7
:10047000646C6577616E69613C2F627574746F6E30
:100480003E3C2F613E003C703E3C612068726566D8
:100490003D222F31302F6F6E223E3C627574746F97
:1004A0006E20636C6173733D22627574746F6E208D
:1004B000223E506F646C6577616E6965205265639A
:1004C0007A6E653C2F627574746F6E3E3C2F613E90
:1004D000003C703E3C6120687265663D222F3130E1
:1004E0002F6F6666223E3C627574746F6E20636C7B
:1004F0006173733D22627574746F6E2062757474DB
:100500006F6E32223E506F646C6577616E69652054
:100510004175746F3C2F627574746F6E3E3C2F6131
:100520003E003C2F48353E003C2F48353E3C683568
:100530003E437A617320706F646C6577616E6961A8
:10054000205A323A20003C2F48353E3C68353E4325
:100550007A617320706F646C6577616E6961205A8F
:10056000313A20003C68353E437A617320706F64F5
:100570006C6577616E6961204C4B3A20003C4833D2
:100580003E506F646C6577616E69653C2F48333E01
:100590000020433C2F48353E0020433C2F48353E49
:1005A0003C48353E54656D706572617475726120AA
:1005B0006E6F636E613A20003C68353E54656D7025
:1005C0006572617475726120647A69656E6E613AF4
:1005D00020003C6120687265663D222F392F6F66CE
:1005E00066223E3C627574746F6E20636C61737337
:1005F0003D22627574746F6E223E53544F50213CFD
:100600002F627574746F6E3E3C2F613E3C2F703EBE
:10061000003C2F627574746F6E3E3C2F613E003C4F
:100620006120687265663D222F392F6F6E223E3C35
:10063000627574746F6E20636C6173733D226275B2
:1006400074746F6E20627574746F6E32223E003C5B
:100650006120687265663D222F392F6F6E223E3C05
:10066000627574746F6E20636C6173733D22627582
:1006700074746F6E223E3130206D696E2E204F6E85
:100680003C2F627574746F6E3E3C2F613E3C2F7040
:100690003E002743206E6F633C2F627574746F6E4B
:1006A0003E3C2F613E003C703E3C612068726566B6
:1006B0003D222F382F6F6E223E3C627574746F6E30
:1006C00020636C6173733D22627574746F6E206277
:1006D0007574746F6E32223E5061727465722000C0
:1006E000274320647A69656E3C2F627574746F6E5F
:1006F0003E3C2F613E003C703E3C61206872656666
:100700003D222F382F6F6666223E3C627574746FEF
:100710006E20636C6173733D22627574746F6E2218
:100720003E50617274657220003C6120687265669B
:100730003D222F372F6F6666223E3C627574746FC0
:100740006E20636C6173733D22627574746F6E22E8
:100750003E53544F50213C2F627574746F6E3E3C73
:100760002F613E3C2F703E003C2F627574746F6E9B
:100770003E3C2F613E003C6120687265663D222F41
:10078000372F6F6E223E3C627574746F6E20636CFF
:100790006173733D22627574746F6E206275747438
:1007A0006F6E32223E003C6120687265663D222FEA
:1007B000372F6F6E223E3C627574746F6E20636CCF
:1007C0006173733D22627574746F6E223E31302006
:1007D0006D696E2E204F6E3C2F627574746F6E3E85
:1007E0003C2F613E3C2F703E002743206E6F633CE0
:1007F0002F627574746F6E3E3C2F613E003C703EFC
:100800003C6120687265663D222F362F6F6E223E56
:100810003C627574746F6E20636C6173733D226209
:100820007574746F6E20627574746F6E32223E50F0
:10083000696574726F2000274320647A69656E3C95
:100840002F627574746F6E3E3C2F613E003C703EAB
:100850003C6120687265663D222F362F6F666622E6
:100860003E3C627574746F6E20636C6173733D22DD
:10087000627574746F6E223E50696574726F2000E9
:1008800020433C2F423E3C2F48353E003C68353EDD
:1008900054656D7065726174757261207A65776EEA
:1008A0006574727A6E613A203C423E003C48333EA9
:1008B0004F67727A6577616E69653C2F48333E00F9
:1008C0003C6120687265663D222F332F6F6E223E99
:1008D0003C627574746F6E20636C6173733D226249
:1008E0007574746F6E223E526F6C657479207374E8
:1008F0006F703C2F627574746F6E3E3C2F613E3C8E
:100900002F703E003C6120687265663D222F342FB7
:100910006F6E223E3C627574746F6E20636C6173FF
:10092000733D22627574746F6E223E4F70757363EF
:1009300020726F6C6574793C2F627574746F6E3EB3
:100940003C2F613E3C2F703E003C61206872656622
:100950003D222F332F6F6E223E3C627574746F6E92
:1009600020636C6173733D22627574746F6E223EF6
:10097000526F6C6574792073746F703C2F6275745C
:10098000746F6E3E3C2F613E003C6120687265666C
:100990003D222F352F6F6E223E3C627574746F6E50
:1009A00020636C6173733D22627574746F6E223EB6
:1009B000506F646E69657320726F6C6574793C2F3B
:1009C000627574746F6E3E3C2F613E003C703E3C1D
:1009D0006120687265663D222F322F6F6666223E67
:1009E0003C627574746F6E20636C6173733D226238
:1009F0007574746F6E20627574746F6E32223E521D
:100A00006F6C657479206175746F3C2F62757474B6
:100A10006F6E3E3C2F613E003C703E3C6120687230
:100A200065663D222F322F6F6E223E3C62757474D4
:100A30006F6E20636C6173733D22627574746F6EA8
:100A4000223E526F6C657479207265637A6E6965B7
:100A50003C2F627574746F6E3E3C2F613E00203CEB
:100A60002F68353E003A003C2F68353E3C68353EE5
:100A7000205A6163686F6420736C6F6E63613A2003
:100A8000003A00203C68353E20577363686F64204D
:100A9000736C6F6E63613A2000203C2F68353E0016
:100AA00020676F647A696E613A200020003C6835E7
:100AB0003E20447A6973206A6573743A20003C488A
:100AC000333E526F6C6574793C2F48333E003C6274
:100AD0006F64793E3C48313E486F6D6520436F6ED0
:100AE00074726F6C20446F6D656B204F7A61726F0A
:100AF000773C2F48313E002E627574746F6E322041
:100B00007B6261636B67726F756E642D636F6C6F70
:100B1000723A20233737383738413B7D3C2F737486
:100B2000796C653E3C2F686561643E00746578743D
:100B30002D6465636F726174696F6E3A206E6F6EBB
:100B4000653B20666F6E742D73697A653A20333089
:100B500070783B206D617267696E3A203270783B25
:100B600020637572736F723A20706F696E7465726C
:100B70003B7D002E627574746F6E207B2062616312
:100B80006B67726F756E642D636F6C6F723A2023A2
:100B90003139354236413B20626F726465723A20CA
:100BA0006E6F6E653B20636F6C6F723A2077686979
:100BB00074653B2070616464696E673A20313670F9
:100BC0007820343070783B003C7374796C653E68F3
:100BD000746D6C207B20666F6E742D66616D696C20
:100BE000793A2048656C7665746963613B20646975
:100BF00073706C61793A20696E6C696E652D626CF8
:100C00006F636B3B206D617267696E3A203070785C
:100C1000206175746F3B20746578742D616C696711
:100C20006E3A2063656E7465723B7D003C6C696E44
:100C30006B2072656C3D2269636F6E22206872655D
:100C4000663D22646174613A2C223E003C68656115
:100C5000643E3C6D657461206E616D653D22766910
:100C60006577706F72742220636F6E74656E743D69
:100C70002277696474683D6465766963652D776978
:100C80006474682C20696E697469616C2D7363618A
:100C90006C653D31223E003C21444F435459504540
:100CA0002068746D6C3E3C68746D6C3E0000000002
:100CB00000240027002A0000000000250028002B47
:100CC000000000000800020100000304070000000B
:100CD0000000000000005EBCE2613FDD83C29C7E3C
:100CE00020A3FD1F419DC3217FFCA2401E5F01E3A5
:100CF000BD3E6082DC237D9FC1421CFEA0E1BF5D42
:100D00000380DE3C62BEE0025CDF81633D7C22C08A
:100D10009E1D43A1FF4618FAA427799BC584DA38A3
:100D200066E5BB5907DB856739BAE406581947A55C
:100D3000FB7826C49A653BD987045AB8E6A7F91B05
:100D400045C6987A24F8A6441A99C7257B3A648642
:100D5000D85B05E7B98CD2306EEDB3510F4E10F26F
:100D6000AC2F7193CD114FADF3702ECC92D38D6F0C
:100D700031B2EC0E50AFF1134DCE90722C6D33D1D9
:100D80008F0C52B0EE326C8ED0530DEFB1F0AE4CF2
:100D90001291CF2D73CA947628ABF517490856B433
:100DA000EA6937D58B5709EBB536688AD495CB29D4
:100DB00077F4AA4816E9B7550B88D6346A2B75978D
:100DC000C94A14F6A8742AC896154BA9F7B6E80ABA
:100DD00054D7896B35000000002300260029000449
:100DE00004040404040404020202020202030303D2
:100DF00003030301020408102040800102040810CC
:100E00002001020408102000ED2D033211241FBE22
:100E1000CFEFD8E0DEBFCDBF13E0A0E0B1E0E8E85F
:100E2000F6E702C005900D92A635B107D9F725E087
:100E3000A6E5B3E001C01D92A038B207E1F717E0C4
:100E4000C5E0D7E004C02197FE010E94FB38C43002
:100E5000D107C9F70E94782F0C94373B0C940000FF
:100E600020912901909128019230C1F430E0205363
:100E7000384FC90183709927892B39F4C90164E679
:100E800070E00E94E738892B89F4C90160E971E0BC
:100E90000E94E738892B51F08CE10895983020F4B6
:100EA000917031F48EE108959095FACF8DE1089517
:100EB0008FE108958F929F92AF92BF92CF92DF926F
:100EC000EF92FF92CF93DF93209125016B017C017C
:100ED000C20ED11CE11CF11CC701B6012CE330E0AD
:100EE00040E050E00E94EC3549015A019601C601EC
:100EF000D7FE04C0882799278C199D096CE370E000
:100F00000E94E73837FD7AC021E0022E000C330B37
:100F1000DC010E940139645C7F4F8F4F9F4F2CE3AF
:100F200030E040E050E00E94EC3560932501809174
:100F30002601880E911CA11CB11CC501B40128E139
:100F400030E040E050E00E94EC3569017A01940104
:100F5000C40197FE04C0882799278819990968E178
:100F600070E00E94E73837FD4BC021E0022E000CF4
:100F7000330BDC010E940139685E7F4F8F4F9F4F1A
:100F800028E130E040E050E00E94EC35609326011B
:100F900080912701C80ED11CE11CF11C0E94300772
:100FA00090E0B0E0A0E0C09227018C159D05AE0551
:100FB000BF059CF5C1E0D4E6C81AD90AEA0AFB0AC3
:100FC000809128018F5F8D30E8F4809328010E9482
:100FD000300790E0B0E0A0E08C159D05AE05BF05A0
:100FE0005CF3C0922701DF91CF91FF90EF90DF90EB
:100FF000CF90BF90AF909F908F9008952FEF85CFA7
:101000002FEFB4CFC0932801809129018B596D2F08
:101010000E94CD3890932901DACF1C141D041E04C0
:101020001F040CF3CCE0D4E680912801815091F0AC
:10103000809328010E943007982F9C0D90932701E0
:10104000C80ED11CE11CF11C1C141D041E041F043D
:101050005CF7C9CFC0932801809129018D596D2F6C
:101060000E94CD3890932901E5CFE0912901F0E06D
:101070008091280120912701833088F1E053F84FB7
:101080003DE0839FC0011124039665E070E00E945B
:10109000E738260F372F311D2E0F3F1FBF017595E3
:1010A000679575956795260F371FCF016CE97FEF20
:1010B0000E94E738260F371FCF0160E971E00E94D8
:1010C000E738C901860F971F27E030E0B9010E9479
:1010D000E7380196B9010E94E7388F5F0895845F71
:1010E000E153F84FCDCFCF93DF93C0912801D0913A
:1010F000A804CD1748F18091AA048C1728F1DC17B9
:1011000010F4C817A8F10E943508482F80912701D4
:101110008F5F841B1816DCF467E00E94D9388F5F5C
:10112000082E000C990BCD1314C02091A90430E0B7
:10113000821793074CF028173907D4F04230C4F4D3
:10114000809126018230A0F4DF91CF91089580E054
:10115000E7CF2091AB0430E0821793074CF02817BB
:10116000390794F3423084F780912601823060F78A
:101170006091AC0470E090E080E0DF91CF910C943E
:101180005A078CBD9DBD0895FC01818D928D0895F7
:101190000895AF92BF92CF92DF92EF92FF920F939A
:1011A0001F93CF93DF936C017B018B01040F151FFD
:1011B000EB015E01AE18BF08C017D10759F0699165
:1011C000D601ED91FC910190F081E02DC6010995C9
:1011D000892B79F7C501DF91CF911F910F91FF9076
:1011E000EF90DF90CF90BF90AF900895FC01538DAA
:1011F000448D252F30E0842F90E0821B930B5417F1
:1012000010F0CF96089501970895FC01918D828D7D
:10121000981761F0A28DAE0FBF2FB11D5D968C9116
:10122000928D9F5F9F73928F90E008958FEF9FEF55
:101230000895FC01918D828D981731F0828DE80F11
:10124000F11D858D90E008958FEF9FEF0895FC01CB
:10125000918D228D892F90E0805C9F4F821B910998
:101260008F739927089580EA93E00E94270921E06F
:10127000892B09F420E0822F089580E090E0892BEB
:1012800029F00E94330981110C9400000895FC019B
:10129000A48DA80FB92FB11DA35ABF4F2C91848DD7
:1012A00090E001968F739927848FA689B7892C9334
:1012B000A089B1898C91837080648C93938D848D87
:1012C000981306C00288F389E02D80818F7D80838A
:1012D0000895EF92FF920F931F93CF93DF93EC014A
:1012E00081E0888F9B8D8C8D98131AC0E889F989CD
:1012F000808185FF15C09FB7F894EE89FF896083D0
:10130000E889F98980818370806480839FBF81E050
:1013100090E0DF91CF911F910F91FF90EF90089592
:10132000F62E0B8D10E00F5F1F4F0F731127E02E6D
:101330008C8D8E110CC00FB607FCFACFE889F989A5
:10134000808185FFF5CFCE010E944709F1CFEB8D5B
:10135000EC0FFD2FF11DE35AFF4FF0829FB7F89479
:101360000B8FEA89FB8980818062CFCFCF93DF9397
:10137000EC01888D8823B9F0AA89BB89E889F989AD
:101380008C9185FD03C0808186FD0DC00FB607FCE2
:10139000F7CF8C9185FFF2CF808185FFEDCFCE0115
:1013A0000E944709E9CFDF91CF91089590E0FC01B9
:1013B000EF53F34F2491FC01ED50F24F3491FC01B7
:1013C000E152F24FE491EE23C9F0222339F02330A9
:1013D00001F1A8F4213019F1223029F1F0E0EE0FEB
:1013E000FF1FE954F34FA591B4918FB7F894EC9196
:1013F000611126C030953E233C938FBF089527305E
:10140000A9F02830C9F0243049F7809180008F7D01
:1014100003C0809180008F7780938000DFCF84B5F8
:101420008F7784BDDBCF84B58F7DFBCF8091B000FB
:101430008F778093B000D2CF8091B0008F7DF9CFAD
:101440003E2BDACFCF93DF9390E0FC01ED50F24FCB
:1014500024918152924FFC0184918823D1F090E035
:10146000880F991FFC01E355F34FA591B491FC013E
:10147000E954F34FC591D49161110EC09FB7F89410
:101480008C91E22FE0958E238C932881E223E883D0
:101490009FBFDF91CF9108958FB7F894EC91E22B25
:1014A000EC938FBFF6CF3FB7F89480917103909182
:1014B0007203A0917303B091740326B5A89B05C075
:1014C0002F3F19F00196A11DB11D3FBFBA2FA92FC3
:1014D000982F8827BC01CD01620F711D811D911DC0
:1014E00042E0660F771F881F991F4A95D1F708952C
:1014F0008F929F92AF92BF92CF92DF92EF92FF9224
:101500004B015C010E94530A6B017C010E94530A4B
:101510006C197D098E099F09683E7340810591050C
:10152000A8F321E0821A9108A108B10888EEC80E3C
:1015300083E0D81EE11CF11C81149104A104B104C4
:1015400029F7FF90EF90DF90CF90BF90AF909F90E2
:101550008F9008952FB7F89460916D0370916E038A
:1015600080916F03909170032FBF08950F931F9385
:10157000CF93DF93C82FD0E00E94AA0AFE01EE0F9E
:10158000FF1FEE0FFF1FEF5CFA4F608371838283B2
:101590009383CC0FDD1FCC0FDD1FCB50DB4F41E021
:1015A000088119812A813B81061717072807390707
:1015B00008F440E0842FDF91CF911F910F9108959F
:1015C0008F929F92AF92BF92CF92DF92EF92FF9253
:1015D0000F931F93CF93DF936B017C01C42FD0E057
:1015E0000E94AA0AFE01EE0FFF1FEE0FFF1FEF5C25
:1015F000FA4F60837183828393838E01000F111FE2
:10160000000F111F0B501B4FF80180809180A280AA
:10161000B380681579058A059B0510F10E94AA0A16
:10162000CC0FDD1FCC0FDD1FC754DB4F68837983E0
:101630008A839B83C60ED71EE81EF91EF801C0825E
:10164000D182E282F382DF91CF911F910F91FF90BF
:10165000EF90DF90CF90BF90AF909F908F900895C4
:10166000D501C4018C0D9D1DAE1DBF1D80839183CE
:10167000A283B383E8CFCF93DF93C82FD0E00E943B
:10168000AA0AFE01EE0FFF1FEE0FFF1FEB50FB4FEC
:1016900060837183828393830E94AA0ACC0FDD1F2B
:1016A000CC0FDD1FC754DB4F688379838A839B830C
:1016B000DF91CF910895DC012C911196ED91FC9171
:1016C000F8948181822B81839281322F30959323EC
:1016D000928387E090E00197F1F7818183238183F2
:1016E00083E290E00197F1F790817894EFECF0E0DD
:1016F0003197F1F7922381E009F480E00895FC012D
:1017000090810180F281E02D292F209560FF14C087
:10171000F8948281822382838181892B8183A3E251
:10172000B0E01197F1F78281982B9283789487ED3E
:1017300090E00197F1F70895F894828182238283E3
:101740008181892B8183AFEFB0E01197F1F782811E
:10175000982B928378948FE090E0EBCFDF92EF921A
:10176000FF920F931F93CF93DF93EC01D62EE42EBD
:1017700008E010E0FF24F39461E08D2D8F2109F43F
:1017800060E0CE010E947F0BFF0C01501109A1F710
:10179000E11010C0F894E981FA81918188818095E7
:1017A00089238183E981FA819281888180958923C7
:1017B00082837894DF91CF911F910F91FF90EF90EA
:1017C000DF900895FC0190810180F281E02DF89472
:1017D0008181292F20958223818378943DE743E0FE
:1017E00050E0315029F1DA011197F1F78081892316
:1017F000C1F3F8948281822382838181892B818342
:101800007894ABE7B7E01197F1F7F89481818223E0
:101810008183A3E1B1E01197F1F78081982381E002
:1018200009F080E07894E3E6F6E03197F1F7089567
:1018300080E00895CF93C0918A04C11104C0C0E034
:101840008C2FCF91089580918704909188040E94F5
:10185000E20B8823A1F340E06CEC80918704909127
:1018600088040E94AE0B40918B0481E0482764E419
:1018700080918704909188040E94AE0B0E94AA0A6E
:1018800060938C0470938D0480938E0490938F04E6
:10189000D7CFCF92DF92FF920F931F93CF93DF9317
:1018A0006C01F62E80918704909188040E94E20BCF
:1018B000882331F1009187041091880440E065E5A8
:1018C000C8010E94AE0BE60188E0C80ED11C6991E8
:1018D00040E0C8010E94AE0BCC15DD05C1F740E029
:1018E0006F2D80918704909188040E94AE0B81E057
:1018F000DF91CF911F910F91FF90DF90CF900895CE
:1019000080E0F6CF6F927F928F929F92AF92BF92BC
:10191000CF92DF92EF92FF920F931F93CF93DF93BB
:10192000CDB7DEB76D970FB6F894DEBF0FBECDBF53
:101930006EEB0E94490C882309F481C080908704D3
:10194000909088048E010F5E1F4F7E018AE1E80EA1
:10195000F11C680138E0632E712CB12CAA24A394E9
:10196000C4010E945B0B8111BA28AA0CA1E06A1A7B
:101970007108B1F7F601B1926F01EE15FF0551F74D
:1019800099E080E0915049F0D801ED918D01E82770
:10199000F0E0EB52F34F8491F5CF998D98134FC03F
:1019A00080E1E0E3F1E0DE01119601900D928A956D
:1019B000E1F78091400190914101A0914201B091E5
:1019C00043018A8F9B8FAC8FBD8F00918904095092
:1019D000110BF701E00FF11F808169897A8902C03C
:1019E000759567958A95E2F7072E000C880B990B81
:1019F0000E94CF34000F111F000F111FE1E0F0E033
:101A0000EC0FFD1FE00FF11F2081318142815381D6
:101A10000E942E356D960FB6F894DEBF0FBECDBF77
:101A2000DF91CF911F910F91FF90EF90DF90CF90BA
:101A3000BF90AF909F908F907F906F90089563E3D9
:101A400073E988E893ECE6CFFC0120812EBD9B0171
:101A50002150310941F051810DB407FEFDCF4EB543
:101A60005EBD4193F5CF61507109860F971F0DB48C
:101A700007FEFDCF2EB5FC0120830895E091680399
:101A8000F0916903808190916703892B8083089589
:101A9000E0916803F09169039081809167038095DC
:101AA0008923808308958EBD00000DB407FEFDCF0D
:101AB0008EB50895AF92BF92CF92DF92EF92FF92D0
:101AC0000F931F93CF93DF93CDB7DEB728970FB651
:101AD000F894DEBF0FBECDBF8C017B016A018091FF
:101AE0009E038333E1F45801A40EB51EA016B1067F
:101AF00009F46FC00E94480D80EF0E94530D812FA2
:101B00000E94530D802F0E94530D0F5F1F4FF7014E
:101B100081917F010E94530D0E943E0DE7CF5B0132
:101B2000A40EB51E8433C1F40E94480D19830A83A4
:101B30008D2D80688B83CC8264E070E0CE010196AD
:101B40000E94240DAE14BF0409F441C0F701819135
:101B50007F010E94530DF6CF0E94480D0F3F1105E3
:101B600009F028F419820A8384E08B830CC017FDE6
:101B700017C019820A8333E0169507953A95E1F765
:101B8000007E0C600B8386E0C816D104A0F5F70137
:101B9000DE011496EA15FB0599F081918D93FACF39
:101BA000C80126E0969587952A95E1F7807E1983EE
:101BB0000A830115104C10F48461D7CF8C61D5CF06
:101BC000B6016D5F7F4FCE0101960E94240D0E94E9
:101BD0003E0DC60128960FB6F894DEBF0FBECDBFEE
:101BE000DF91CF911F910F91FF90EF90DF90CF90F9
:101BF000BF90AF90089563E070E0CE0101960E941F
:101C0000240DF70181917F010E94530DAE14BF0492
:101C1000C1F7DDCFCF93DF931F92CDB7DEB78983B6
:101C200041E050E0BE016F5F7F4F90E080E00E9496
:101C30005A0D0F90DF91CF91089590E020919E036F
:101C4000233339F40C96982F990F990F990F80E050
:101C500008954896F8CFDA01E0916B03F0E0FE2F8B
:101C6000EE27E60FF71F90E0982F8827A901BD0106
:101C70008E0F9F1F0C945A0DCF93DF9300D0CDB7DA
:101C8000DEB779836A8322E030E0AE014F5F5F4FB9
:101C900060E170E00E942B0E0F900F90DF91CF91CA
:101CA0000895CF93DF9300D0CDB7DEB779836A83F1
:101CB00022E030E0AE014F5F5F4F64E070E00E94D1
:101CC0002B0E0F900F90DF91CF910895CF93DF935C
:101CD0001F92CDB7DEB720916B0330E0322F222761
:101CE000260F371F90E0982F8827498341E050E066
:101CF000BE016F5F7F4F820F931F0E945A0D0F909E
:101D0000DF91CF910895CF93DF931F92CDB7DEB7C8
:101D10006983DC01ED91FC910280F381E02D41E0CB
:101D200050E0BE016F5F7F4F09950F90DF91CF911B
:101D30000895CF93DF931F92CDB7DEB76983DC019F
:101D4000ED91FC910280F381E02D41E050E0BE0175
:101D50006F5F7F4F09950F90DF91CF910895FC0140
:101D60009485FB018485981303C081E0943008F0CA
:101D700080E00895CF93DF931F92CDB7DEB76983DC
:101D8000DC01ED91FC910280F381E02D41E050E017
:101D9000BE016F5F7F4F09950F90DF91CF9108953E
:101DA000FC01768765870895DC01ED91FC91068C36
:101DB000F78DE02D099591E089270895862F0895E4
:101DC00081E08627089521E0FC018485843008F0B5
:101DD00020E0822F08950895FF920F931F93CF93D1
:101DE000DF93EB01FC01178A168A2A81211109C0B1
:101DF0002B81211106C02C81211103C02D812223AA
:101E000001F141155105E9F08A01FC01F08C80E5F2
:101E100091E00E94C108AE014E5F5F4F24E030E0C8
:101E20006CE070E08F2D0E942B0EB8018F2D0E9468
:101E30003C0E81E090E0DF91CF911F910F91FF90D8
:101E4000089580E0F7CFFC01848595850895FC0115
:101E50008489958908952DEB31E0FC01318320833D
:101E6000FB014089518962897389FC014283538354
:101E7000648375830895DC01ED91FC91048CF58DEC
:101E8000E02D0994089590E080E008954F925F92CC
:101E90006F927F928F929F92AF92BF92CF92DF927A
:101EA000EF92FF92CF93DF93CDB7DEB765970FB672
:101EB000F894DEBF0FBECDBF8D8B60912801FF244B
:101EC000FA94F60E60912701EE24EA94E60E21EED4
:101ED0003EE245E652E460919E0470919F04809139
:101EE000A0049091A1040E94F6364B015C012D895B
:101EF000222309F4D3C182E189836F2D70E090E041
:101F000080E00E94CF3420E030E843EF51E40E94AB
:101F10002E352B013C016E2D70E090E080E00E9498
:101F2000CF349B01AC01C301B2010E9485366B0125
:101F30007C012981622F70E090E080E00E94CF3424
:101F400020E030E040EC51E40E94F6369B01AC0109
:101F5000C701B6010E94853622E43DEC4CE85CE303
:101F60000E942E356B017C010E94F1366D837E83C9
:101F70008F839887C701B6010E94293869877A87BD
:101F80008B879C87A7019601C701B6010E94853601
:101F90002B013C010E94F1366D877E878F87988BDD
:101FA000C301B2010E942938698B7A8B8B8B9C8B81
:101FB00020E030E040E450E4C701B6010E942E3535
:101FC0006B017C010E94F1362B013C01C701B60177
:101FD0000E94293869837A838B839C8324E431ECC3
:101FE0004CEC5EE36D817E818F8198850E942E3559
:101FF0009B01AC0164E670EB82EE9BE30E948436A9
:102000006B017C0127EE32EE4FE85DE369857A854E
:102010008B859C850E942E359B01AC01C701B601C2
:102020000E9485366B017C0126E332E74DED5BE3D0
:102030006D857E858F8598890E942E359B01AC0128
:10204000C701B6010E9484366B017C012DEB33EC95
:102050004DE65AE369897A898B899C890E942E35DD
:102060009B01AC01C701B6010E9485366B017C0162
:1020700027E230EC40E35BE3C301B2010E942E355E
:102080009B01AC01C701B6010E9484366B017C0143
:102090002FE83CEF41EC5AE369817A818B819C8186
:1020A0000E942E359B01AC01C701B6010E94853606
:1020B0006B017C01C501B4010E94F1362B013C018A
:1020C000C701B6010E94F13669837A838B839C83B2
:1020D000C501B4010E9477384B015C01C701B6010C
:1020E0000E9477386B017C0129813A814B815C81A8
:1020F000C301B2010E942E359B01AC0168E879E46E
:102100008EE69CEB0E94F6362B013C01A70196015E
:10211000C501B4010E942E359B01AC01C301B2017F
:102120000E9484366B017C019F7720E030E040E81C
:102130005FE30E94243818160CF4B3C0C701B6013F
:102140000E9473366B017C018D89811104C0F7FAFE
:10215000F094F7F8F0946091A2047091A304809138
:10216000A4049091A504905821EE3EE245E652E485
:102170000E94F636A70196010E94843620E030E0E6
:1021800040E850E40E942E3521EE3EE245E652E45E
:102190000E942E3520E030E044E354E40E9485366E
:1021A0006B017C012EEA37ED44EF5AE36D817E81AD
:1021B0008F8198850E942E3522E539E44DE958E358
:1021C0000E9485364B015C012CE233E643E05DE37F
:1021D00069857A858B859C850E942E359B01AC0193
:1021E000C501B4010E9484364B015C0121EC33E748
:1021F0004FE65CE36D857E858F8598890E942E353C
:102200009B01AC01C501B4010E9484364B015C0105
:1022100028E431E547E25DE369897A898B899C8905
:102220000E942E359B01AC01C501B4010E94843689
:1022300024E13EE245E653E40E942E359B01AC01C9
:10224000C701B6010E9484360E9468372091A60417
:102250003091A704620F731F10922601109225017E
:1022600010922401072E000C880B990B0E945A072C
:1022700081E065960FB6F894DEBF0FBECDBFDF914B
:10228000CF91FF90EF90DF90CF90BF90AF909F9055
:102290008F907F906F905F904F90089526E02983F4
:1022A0002CCE80E0E6CFCF92EF92FF920F931F9358
:1022B000CF93DF939091830491110CC0909184048B
:1022C000911108C090918504911104C090918604E9
:1022D000992341F0811104C0411102C0653011F011
:1022E000CC20D1F1F22EC42FD62F182F80932401A9
:1022F0006093250140932601209327010093280134
:10230000E092290181E00E94460F882351F00E944B
:102310007308809126018093830480912501809326
:10232000840410932401D0932501C0932601F092D8
:10233000270100932801E092290180E00E94460FC6
:10234000882351F00E9473088091260180938504B0
:102350008091250180938604DF91CF911F910F9189
:10236000FF90EF90CF900895CF93DF932091740565
:1023700030917505232B89F0FC01C0917005D09137
:10238000710560817181CE010E941D3B009729F08B
:102390008C1B9D0BDF91CF9108958FEF9FEFFACFAC
:1023A000FB0101900020E9F73197AF01461B570B65
:1023B000DC01ED91FC910280F381E02D09948F9274
:1023C0009F92AF92BF92EF92FF920F931F93CF9382
:1023D000DF93CDB7DEB7A1970FB6F894DEBF0FBE7F
:1023E000CDBF7C01FA01CB0119A2223008F42AE00A
:1023F0008E010F5D1F4F822E912CB12CA12CBF019D
:10240000A50194010E944236F901CA016A300CF517
:10241000605DD8016E938D01232B242B252B79F73A
:1024200090E080E0109721F0BD01C7010E94D0111B
:10243000A1960FB6F894DEBF0FBECDBFDF91CF914E
:102440001F910F91FF90EF90BF90AF909F908F9052
:102450000895695CDECF8F929F92AF92BF92CF9228
:10246000DF92EF92FF920F931F93CF93DF937C0144
:10247000EB016C0182E0C80ED11C4701E5E08E0E35
:10248000911C10E000E0F60141916F0150E070E016
:1024900060E02AE0CE010E94DF115C01E881F98151
:1024A0000190F081E02D6EE2CE0109958A0D9B1D11
:1024B000080F191FC814D90431F7F701458150E0FE
:1024C00070E060E02AE0CE010E94DF11800F911FD2
:1024D000DF91CF911F910F91FF90EF90DF90CF9000
:1024E000BF90AF909F908F9008956FEC71E00C9427
:1024F000D0110F931F93CF93DF93EC010E94D01163
:102500008C01CE010E947512800F911FDF91CF9137
:102510001F910F910895EF92FF920F931F93CF9306
:10252000DF938C017B01D0E0C0E0F701EC0FFD1FD1
:102530006491662339F0C8010E94BA0E892B11F00C
:102540002196F3CFC8010E9475128C0F9D1FDF9159
:10255000CF911F910F91FF90EF900895FC01808122
:102560009181009711F00C94253260E070E0CB016E
:1025700008950F931F93CF93DF93EC018881998186
:10258000009759F02A813B812617370730F081E008
:10259000DF91CF911F910F9108958B016F5F7F4F56
:1025A0000E94493A009759F0998388831B830A83D4
:1025B0002C813D81232B59F7FC011082E8CF80E06C
:1025C000E7CFEF92FF920F931F93CF93DF936115A5
:1025D000710541F480E0DF91CF911F910F91FF9041
:1025E000EF90089541155105B1F07B01EC010C818C
:1025F0001D81040F151FB8010E94B912882351F3E1
:10260000288139818C819D81B701820F931F0E949F
:10261000163B1D830C8381E0DECFCF93DF93EC016B
:1026200088819981009711F00E94C039198218821F
:102630001D821C821B821A82DF91CF910895CF9355
:10264000DF93EC01FB0101900020E9F73197AF0126
:10265000461B570B0E94E112811103C0CE010E945C
:102660000D13CE01DF91CF910895CF93DF93EC014D
:10267000FB0144815581608171810E94E1128111C9
:1026800003C0CE010E940D13CE01DF91CF910895BA
:10269000EF92FF920F931F93CF93DF93EC017B0197
:1026A0008A01BA010E94B91281110BC0CE010E94A9
:1026B0000D13CE01DF91CF911F910F91FF90EF90FD
:1026C00008951D830C83B701888199810E94163B70
:1026D000F0CFFB0101900020E9F73197AF01461BD5
:1026E000570B0C9448130F931F93CF93DF93CDB7E1
:1026F000DEB729970FB6F894DEBF0FBECDBF8C01B1
:10270000862FF801118210821382128215821482A0
:102710004AE0BE016F5F7F4F90E00E946C32BE01C5
:102720006F5F7F4FC8010E94691329960FB6F89416
:10273000DEBF0FBECDBFDF91CF911F910F910895E6
:102740000F931F93CF93DF93CDB7DEB762970FB68A
:10275000F894DEBF0FBECDBF8C01CB01F801118212
:10276000108213821282158214824AE0BE016F5FCA
:102770007F4F0E944C32BE016F5F7F4FC8010E94A5
:10278000691362960FB6F894DEBF0FBECDBFDF911E
:10279000CF911F910F910895EF92FF920F931F9386
:1027A000CF93DF93CDB7DEB7A1970FB6F894DEBF16
:1027B0000FBECDBF7C01CB01BA01F701118210829F
:1027C00013821282158214828E010F5F1F4F22E046
:1027D00044E00E940732009789F0BC01C7010E94C3
:1027E0006913A1960FB6F894DEBF0FBECDBFDF917F
:1027F000CF911F910F91FF90EF900895C7010E9414
:102800000D13EFCFFB01DC0111961C921E92139663
:102810001C921E92129715961C921E921497861760
:10282000970749F0608171816115710521F044813C
:1028300055810C9448130895FC0111821082138273
:10284000128215821482FB0101900020E9F7319772
:10285000AF01461B570B0C944813CF92DF92EF92B7
:10286000FF920F931F93CF93DF936C017B018A013B
:102870004617570720F48F2D7A01062F182F61ED88
:1028800071E0C6010E941C14C0917405D0917505B9
:10289000EC16FD06F8F40C171D0708F4E801E091AA
:1028A0007005F0917105EC0FFD1F10811082609191
:1028B0007005709171056E0D7F1DC6016115710562
:1028C00099F00E9469138091700590917105C80F6D
:1028D000D91F1883C601DF91CF911F910F91FF90EF
:1028E000EF90DF90CF9008950E940D13ECCFFC0184
:1028F00080819181009711F00C94C03908950F9355
:102900001F93CF93DF93CDB7DEB72C970FB6F89414
:10291000DEBF0FBECDBF8C016A3070F00E94731312
:10292000C8012C960FB6F894DEBF0FBECDBFDF9165
:10293000CF911F910F910895CE0101960E947313BC
:1029400062ED71E0CE0107960E941C14BE016F5F1C
:102950007F4FCE0107960E943513BC01C8010E942B
:102960000214CE0107960E947714CE0101960E94B0
:102970007714D6CF8F929F92AF92BF92CF92DF9271
:10298000EF92FF920F931F93CF93DF93CDB7DEB7F4
:1029900068970FB6F894DEBF0FBECDBF7C01062F3F
:1029A00010E00E94AA0AF801EE0FFF1FEE0FFF1FB2
:1029B000EF5CFA4F6083718382839383000F111F52
:1029C000000F111FF801EB50FB4F00811181228194
:1029D000338158016901A61AB70AC80AD90AC60183
:1029E000B50128EE33E040E050E00E944236490154
:1029F0000CE310E0C901B8010E94E738AC01C40142
:102A0000841B950BB8010E94E7386B01CB01B8011C
:102A10000E94E7385C01C81AD90A642FCE010196DA
:102A20000E947F146A2DCE0107960E947F14C60172
:102A3000B8010E94E738CE0143960E947F14BE0180
:102A40006D5E7F4FCE010D960E94021464ED71E021
:102A5000CE010D960E941F13BE01695F7F4F0E9439
:102A6000351364ED71E00E941F13BE016F5F7F4F4D
:102A70000E943513BC01C7010E940214CE010D96BD
:102A80000E947714CE0143960E947714CE010796D8
:102A90000E947714CE0101960E947714C7016896B0
:102AA0000FB6F894DEBF0FBECDBFDF91CF911F915F
:102AB0000F91FF90EF90DF90CF90BF90AF909F90DD
:102AC0008F900895AF92BF92CF92DF92EF92FF92D4
:102AD0000F931F93CF93DF9300D000D0CDB7DEB715
:102AE0008C016B017A0180919E038333E9F45B01D1
:102AF0006801C40ED51EC016D106A9F10E94480D6A
:102B00008FE00E94530D812F0E94530D802F0E9451
:102B1000530D0F5F1F4F80E00E94530DF50181930D
:102B20005F010E943E0DE7CF843369F50E94480D96
:102B300019830A838F2D8F778B83EC8264E070E09A
:102B4000CE0101960E94240DA70170E060E0C6014D
:102B50000E940F3BE114F10421F0B701C6010E946D
:102B6000240D0E943E0DC7010F900F900F900F9003
:102B7000DF91CF911F910F91FF90EF90DF90CF9059
:102B8000BF90AF9008950E94480D0F3F110509F0C6
:102B900030F419820A831B8263E070E0D1CF17FD05
:102BA0000BC019820A8333E0169507953A95E1F731
:102BB000007E08600B83F0CFC80126E096958795CC
:102BC0002A95E1F7807E19830A830115104C18F4C9
:102BD00080618B83E1CF8861FCCF1F93CF93DF931C
:102BE0001F92CDB7DEB7182F80E591E00E94C10893
:102BF000812F0E941D0E27E0129FF0011124E6583C
:102C0000FC4F22813381377041E050E0BE016F5F9D
:102C10007F4F820F931F0E94621589810F90DF9171
:102C2000CF911F910895FC01808D843040F4218D57
:102C3000328D232B21F00E94ED1590E008958FEF47
:102C40009FEF0895CF93DF93FC012485243028F073
:102C50008FEF9FEFDF91CF910895EC010190F0810C
:102C6000E02D0084F185E02D0995892B89F38C8571
:102C70000E94ED1590E0EECFCF93DF931F92CDB77A
:102C8000DEB741E050E0BE016F5F7F4F0E946215EA
:102C900089810F90DF91CF91089590E080E00C94AE
:102CA0003C16CF93DF93C4E1D0E00E944D168823F9
:102CB00061F061E070E080E090E00E94780A219786
:102CC000A1F780E0DF91CF91089581E0FBCFDF9203
:102CD000EF92FF920F931F93CF93DF9300D0CDB766
:102CE000DEB760E372E080E090E00E94780ADFB631
:102CF000F89409EE1DE03DEFE32E3DE0F32E8091C8
:102D00006A03811125C0F8018491F7019491E82F9D
:102D1000F0E0EE0FFF1FE355F34FA591B4918C91B6
:102D2000982321F461E08AE00E94D60961E08AE0FC
:102D30000E94220A8CB580618CBD8CB580648CBDEC
:102D400061E08DE00E94220A61E08BE00E94220A8D
:102D500080916A038F5F80936A03DFBEF80104915C
:102D6000E02FF0E0EE0FFF1FE954F34F85919491AF
:102D70009093690380936803F701E490E0926703FE
:102D800061E08AE00E94220A0E943E0D80E591E007
:102D90000E94C10884E380939E0380E80E940A0E8B
:102DA0000E945116882309F441C088E00E940A0E4F
:102DB0000E944D168830D1F580E10E940A0E0E94D3
:102DC0004D16803199F580E00E940A0E0E944D1642
:102DD000182F81112BC08FE190E00E943C168330A8
:102DE00029F580E480936B0342E06EE170E0812F6F
:102DF0000E94660E42E06FE170E0812F0E94660E35
:102E00001F5F143089F740E06EE170E0812F0E946F
:102E1000660E40E06FE170E0812F0E94660E1F5F3A
:102E2000183089F781E080939F0364C087E3809323
:102E30009E0380E80E940A0E0E9451168823F9F032
:102E400088E00E940A0E0E944D168830C1F480E18D
:102E50000E940A0E0E944D16182F803181F480E0E6
:102E60000E940A0E0E944D16811109C089E390E06C
:102E70000E943C16843019F410936B03D3CF83E384
:102E800080939E0380E80E940A0E0E9451168823B8
:102E900071F180E10E940A0E0E944D16803139F5D1
:102EA00082E10E940A0E0E944D16823101F580E0F7
:102EB0000E940A0E0E944D16811119C084E0809371
:102EC0006B0315E51A8341E050E0BE016E5F7F4F52
:102ED0008BE190E00E945A0D198341E050E0BE0161
:102EE0006F5F7F4F8AE190E00E945A0D9BCF109256
:102EF0009E0380E00F900F90DF91CF911F910F9173
:102F0000FF90EF90DF900895CF92DF92EF92FF92C3
:102F1000CF93DF93CDB7DEB7C254D1090FB6F89483
:102F2000DEBF0FBECDBFFC0142815381648175813C
:102F300023964CAF5DAF6EAF7FAF239781E02396B2
:102F40008FAF23972396CCACDDACEEACFFAC2397D0
:102F5000CBAADCAAEDAAFEAA4DA75EA76FA778AB05
:102F600088ABCDA4DEA4EFA4F8A8CFA2D8A6E9A68A
:102F7000FAA68EABCBA8DCA8EDA8FEA8C9A2DAA25F
:102F8000EBA2FCA22DEB31E03C8B2B8B9FEF9D8BBA
:102F90009E8B9F8B188E3E872D878AA7CFA0D8A4A3
:102FA000E9A4FAA4CF86D88AE98AFA8A8CA389A1EF
:102FB0009AA1ABA1BCA189879A87AB87BC873A83CA
:102FC00029834B835C836D837E8380919F03882359
:102FD00009F443C080E591E00E94C10846E050E05A
:102FE0006EE171E089E090E00E945A0D44E050E00B
:102FF000BE016D5F7F4F8FE090E00E945A0D44E06C
:1030000050E0BE01615F7F4F81E090E00E945A0D69
:1030100044E050E0BE016B5E7F4F85E090E00E948F
:103020005A0D81E08C8789859A85AB85BC85809314
:103030005D0490935E04A0935F04B0936004CE5B44
:10304000DF4F0FB6F894DEBF0FBECDBFDF91CF913B
:10305000FF90EF90DF90CF9008950E94671688232D
:1030600071F3B8CF20916B0330E0322F2227620F2B
:10307000731F90E0982F8827860F971F0C943C169B
:10308000CF93C82F462F61E070E00E94660E61E08A
:1030900070E08C2F0E9432188111F9CFCF910895E2
:1030A000CF93C82F80E591E00E94C10868E070E0EE
:1030B0008C2FCF910C944018CF93C82F80E591E0CE
:1030C0000E94C10860E170E08C2FCF910C944018F1
:1030D000CF93DF93EC01888D843020F40E945C183C
:1030E00084E0888FDF91CF91089563E070E00C94C5
:1030F0003218CF93C82F80E591E00E94C1088C2F31
:10310000CF910C947518EF92FF920F931F93CF936A
:103110007C0106E913E0C0E0F801219131918F01B3
:10312000F701848195812817390729F0CF5FC430D2
:1031300099F780E006C08C2F0E9479188431B1F78E
:1031400081E0CF911F910F91FF90EF900895CF9361
:10315000DF93EC018C858430D0F40E94791884319F
:1031600089F0882379F0883169F021E08C3159F4B5
:10317000E881F9810084F185E02DCE01099521E0F7
:10318000892B09F420E0822FDF91CF91089580E010
:10319000FBCFCF92DF92EF92FF92CF93DF93EC01C0
:1031A0008C85843068F40E9450180E94AA0A6B0132
:1031B0007C018C850E947918811109C084E08C877C
:1031C000DF91CF91FF90EF90DF90CF90089561E075
:1031D00070E080E090E00E94780A0E94AA0AAB01A9
:1031E000BC014C195D096E097F098D859E85B0E093
:1031F000A0E0481759076A077B07D8F28C850E9420
:103200005C18DCCFCF93FC01C08D80E591E00E947B
:10321000C10860E270E08C2F0E94401862E070E00C
:103220008C2F0E94321884FD16C062E070E08C2F53
:103230000E94321883FF0AC048E162E070E08C2FE0
:103240000E94660E80E090E0CF91089580E591E0C5
:103250000E94C108E3CF40E162E070E08C2F0E9441
:10326000660E81E0F0CFDA01E0916B03F0E0FE2F13
:10327000EE27E60FF71F90E0982F8827A901BD01E0
:103280008E0F9F1F0C9462158F929F92AF92BF92E8
:10329000CF92DF92EF92FF921F93CF93DF93CDB740
:1032A000DEB72C970FB6F894DEBF0FBECDBF2091CE
:1032B0009E0314E0222329F16B017C0180E591E05B
:1032C0000E94C1085E0127E0A20EB11C450110E07A
:1032D000812F0E947518F40181934F01882349F1D1
:1032E0001F5F1430A9F710E0F50181915F018D3166
:1032F000D9F08831C9F08A518230B0F01F5F1430A4
:1033000099F7812F2C960FB6F894DEBF0FBECDBF74
:10331000DF91CF911F91FF90EF90DF90CF90BF9002
:10332000AF909F908F90089560E170E0812F0E9490
:103330004018A12EB12CF501EE0FFF1FEA56FC4FED
:103340001182108283EE93E00197F1F742E870E07A
:1033500060E0812F0E94660E4FEF62E070E0812FE7
:103360000E94660EB601C114D10491F480911C0133
:1033700090911D0101968115F0EC9F0708F45CC047
:1033800090931D0180931C0160911C0170911D019F
:10339000812F0E94510E86E0E4E4F1E0DE011196F7
:1033A00001900D928A95E1F7F70183818F778C83E5
:1033B00084818D8385818E83A7014E5F5F4F24E0DA
:1033C00030E06CE070E0812F0E942B0EB601812F5F
:1033D0000E943C0E26E030E0AE014F5F5F4F66E09A
:1033E00070E0812F0E942B0E61E070E0812F0E941F
:1033F000401827E02A9DC0012B9D900D11249C01AF
:1034000026583C4F7901F9011182108222E030E008
:10341000AE01455F5F4F68E270E0812F0E94331973
:103420008B859C85982789279827F701938382832A
:1034300016821582148265CF80E090ECA1CFCF92E6
:10344000DF92EF92FF920F931F93CF93DF9300D001
:1034500000D000D0CDB7DEB78C016B017A01FC0142
:10346000808D843010F40E945C188DEB91E09A837B
:103470008983F60182819381A481B5818B839C83AA
:10348000AD83BE83B701CE0101960E944419F801B5
:10349000808F8430A0F4F586E486128E118E81E050
:1034A00026960FB6F894DEBF0FBECDBFDF91CF9149
:1034B0001F910F91FF90EF90DF90CF90089580E0E3
:1034C000EFCFAF92BF92CF92DF92EF92FF920F9326
:1034D0001F93CF93DF9300D000D000D0CDB7DEB7DD
:1034E000082F6B0180E591E00E94C1089E012F5FCB
:1034F0003F4F7901590110E0812F0E947518F501A5
:1035000081935F01882341F11F5F1430A9F710E018
:10351000F70181917F018D31D1F08831C1F08A515D
:103520008230A8F01F5F143099F7812F26960FB6CE
:10353000F894DEBF0FBECDBFDF91CF911F910F91E9
:10354000FF90EF90DF90CF90BF90AF90089560E133
:1035500070E0812F0E944018E12EF12CF701EE0F50
:10356000FF1FEA56FC4F1182108283EE93E0019711
:10357000F1F7402F70E060E0812F0E94660E4FEF60
:1035800062E070E0812F0E94660EB601CD2889F4BA
:1035900080911C0190911D0101968115F0EC9F070F
:1035A00098F190931D0180931C0160911C01709112
:1035B0001D01812F0E94510E61E070E0812F0E9459
:1035C000401827E02E9DC0012F9D900D11249C01D5
:1035D00026583C4F7901F9011182108222E030E037
:1035E000AE014B5F5F4F68E270E0812F0E9433199C
:1035F0008D819E81982789279827F701938382835D
:1036000016821582148291CF80E090ECCACFCF92BF
:10361000DF92EF92FF921F93CF93DF93EC017B0138
:103620006A018C85843048F40E947918882319F047
:103630008C850E94501884E08C87F70182819381E9
:10364000A481B5810097A105B10551F490E080E017
:10365000DF91CF911F91FF90EF90DF90CF90089571
:103660008F3F9F4FAF4FBF4F89F380919E038111D2
:1036700003C084E08C87EACF70E060E081E20E94C2
:10368000611A182F8C87843008F780E591E00E943A
:10369000C108A7014E5F5F4F24E030E06CE070E0AE
:1036A000812F0E942B0EB601812F0E943C0E64E0F8
:1036B00070E0812F0E9440180E94AA0A6B017C01D1
:1036C0008C850E947918873109F18C31F9F08823B3
:1036D00009F4BCCF0E94AA0AAB01BC014C195D09D8
:1036E0006E097F098D859E85B0E0A0E0841795075F
:1036F000A607B70738F061E070E080E090E00E9434
:10370000780ADECF8C850E945C18B3CF81E090E010
:103710009FCF0F931F93CF93DF93EC018B01888D85
:10372000843010F40E945C1880919E03811107C0C0
:1037300094E0988FDF91CF911F910F910895B80178
:1037400082E00E94611A888F843030F41D870C87D4
:103750001A8E198E81E0EECF80E0ECCF0F931F938D
:10376000CF9320919E03222349F18C01FC016481B7
:10377000758181E20E94611AC82F8430F8F480E5D7
:1037800091E00E94C1088C2F0E947518833131F09E
:103790008C2FCF911F910F910C94501862E070E024
:1037A0008C2F0E944018F80184819581EC2FF0E065
:1037B000EE0FFF1FEA56FC4F91838083CF911F913C
:1037C0000F9108957F928F929F92AF92BF92CF9266
:1037D000DF92EF92FF920F931F93CF93DF9300D06E
:1037E000CDB7DEB7782E8B014A01590122E030E0D7
:1037F000AE014F5F5F4F64E270E00E943319E980D1
:10380000FA80FE24EF24FE24E00EF11E97013770AB
:1038100040919E03072D10E0433309F042C0085F3A
:103820001F4F102F0027110F110F110FC901800F0B
:10383000911F4733C9F1A9014A0D5B1D4130584022
:1038400098F160E078E06B01C21AD30AA601B401D6
:103850000E945A0DA5014C195D09B4016C0D7D1D26
:10386000C8010E945A0DEA0CFB1CF982EA8222E090
:1038700030E0AE014F5F5F4F64E270E0872D0E9441
:103880002B0E0F900F90DF91CF911F910F91FF9012
:10389000EF90DF90CF90BF90AF909F908F907F90F0
:1038A0000895005F1F4FBDCFA501B401DACFEF929D
:1038B000FF921F93CF93DF9300D0CDB7DEB7182FC1
:1038C00022E030E0AE014F5F5F4F60E270E00E94A7
:1038D0003319E980FA80FE24EF24FE2422E030E050
:1038E000AE014F5F5F4F60E270E0812F0E9433199D
:1038F00089819A81982789279827E816F90689F4FB
:1039000087E0189FF0011124E658FC4FF582E4820D
:10391000C7010F900F90DF91CF911F91FF90EF9013
:1039200008957C01DBCF1F93CF93DF93182F80E5A1
:1039300091E00E94C108812F0E94571CEC01812F49
:103940000E947518873121F08C3111F0D0E0C0E071
:10395000CE01DF91CF911F910895CF93DF93EC01BA
:103960008C85843060F40E947918873111F08C3195
:1039700031F48C850E94931C8115984088F3DF9167
:10398000CF910895FC018485843010F40C94931C2D
:1039900090E080E00895CF92DF92EF92FF921F9324
:1039A000CF93DF93182F7B01EA014130584010F08C
:1039B000C0E0D8E080E591E00E94C108812F0E941C
:1039C000571C6C01812F0E947518873111F08C31C2
:1039D00021F5CC16DD0670F380E591E00E94C10868
:1039E0009E01A70170E060E0812F0E94E21B60E26F
:1039F00070E0812F0E94401862E070E0812F0E94E9
:103A0000321884FD0DC0812F0E9475188823B9F0EB
:103A100080E591E00E94C108EFCFD0E0C0E0DCCFAC
:103A200040E162E070E0812F0E94660ECE01DF91DE
:103A3000CF911F91FF90EF90DF90CF900895D0E04D
:103A4000C0E0F4CF0F931F93CF93DF938C01EA0173
:103A5000FC018485843048F40E94CB1C892B39F406
:103A600081E090E0F80193838283D0E0C0E0CE0152
:103A7000DF91CF911F910F9108950F931F93CF93D3
:103A8000DF93EC01FB0144815581608171810E94CB
:103A9000221D8C01CE010E947512800F911FDF91B3
:103AA000CF911F910F9108959F92AF92BF92CF92A5
:103AB000DF92EF92FF920F931F93CF93DF938C01CE
:103AC0005B01942EE52EFC01C688D788F08C80E53A
:103AD00091E00E94C1088F2D0E94571CC92DDE2D38
:103AE0008C179D0708F4EC019E01A501B6018F2DEE
:103AF0000E94E21BF801868997898C0F9D1F978B86
:103B0000868BCE01DF91CF911F910F91FF90EF90A7
:103B1000DF90CF90BF90AF909F900895FF920F934A
:103B20001F93CF93DF9300D0CDB7DEB7F82E22E0FE
:103B300030E0AE014F5F5F4F66E270E00E943319E4
:103B400009811A8110270127102722E030E0AE01F9
:103B50004F5F5F4F66E270E08F2D0E9433198981BD
:103B60009A819827892798270817190749F4C801C7
:103B70000F900F90DF91CF911F910F91FF900895BB
:103B80008C01E3CF1F93CF93DF93182F87E0189F0B
:103B9000E0011124C658DC4F88819981009761F4B7
:103BA00080E591E00E94C108812F0E948E1D2E8128
:103BB000821B910999838883DF91CF911F9108958A
:103BC000AF92BF92CF92DF92EF92FF920F931F932B
:103BD000CF93DF93EC017B0180919E03811120C084
:103BE0001B821A8288EE93E0A0E0B0E08C839D8374
:103BF000AE83BF838EE491E09983888384E08C87D1
:103C000088EE93E09E878D87CE01DF91CF911F9143
:103C10000F91FF90EF90DF90CF90BF90AF900895FD
:103C200086E9C82E83E0D82E10E094E0B92EA12CAE
:103C3000D6012D913D916D01F70184819581281761
:103C4000390791F4812F0E947918082F873111F0DC
:103C50008C3139F5812F0E94C21D892B59F50C3109
:103C600019F4812F0E9450181F5F143009F7A1101A
:103C700008C0D701ED91FC910084F185E02DC701CA
:103C800009951B821A8288EE93E0A0E0B0E08C8355
:103C90009D83AE83BF838EE491E099838883BC8645
:103CA000AFCF843149F08111DFCFF6013297118215
:103CB0001082DACFB12ED8CFAA24A394D5CF8F9279
:103CC0009F92AF92BF92CF92DF92EF92FF921F939B
:103CD000CF93DF93CDB7DEB72F970FB6F894DEBF43
:103CE0000FBECDBF5C014B017A0180919E038823FA
:103CF000A1F1B501CE0101960E94E01D86E9C82E12
:103D000083E0D82E10E0F601219131916F01F50189
:103D1000848195812817390751F4812F0E947918E1
:103D2000873129F4A701B401812F0E94CB1C1F5FAA
:103D3000143049F7C7012F960FB6F894DEBF0FBEB7
:103D4000CDBFDF91CF911F91FF90EF90DF90CF908B
:103D5000BF90AF909F908F900895F12CE12CEACF07
:103D6000FC018485843010F40C94C21D90E080E046
:103D700008954F925F927F928F929F92AF92BF92DF
:103D8000CF92DF92EF92FF920F931F93CF93DF9327
:103D900000D0CDB7DEB7782E6B014A01A82EB12C2A
:103DA00027E0829FC0011124FC01E658FC4F7F01EF
:103DB0000081118180E591E00E94C1080815190574
:103DC00054F4872D0E948E1DF70126818C01021B61
:103DD0001109118300830115110519F5872D0E9422
:103DE0007518843159F0882349F001E010E08C31D6
:103DF00011F410E000E0119501951109C8010F9030
:103E00000F90DF91CF911F910F91FF90EF90DF9076
:103E1000CF90BF90AF909F908F907F905F904F908A
:103E20000895801691060CF4840187E08A9DF001C4
:103E30008B9DF00D1124E658FC4FE280F380C114F5
:103E4000D10451F12701F7E05F22872D0E941D0E5A
:103E5000840D951D20919E03273309F453C09801CA
:103E6000240D351D2130384008F44CC020E038E0E6
:103E7000490184189508A401B6010E946215260123
:103E8000480C591C6801C818D908872D0E941D0EBE
:103E9000A601B2010E946215E00EF11E87E08A9D24
:103EA000F0018B9DF00D1124E658FC4FF382E28265
:103EB00020813181201B310B318320838681800F4B
:103EC000912F911D8A3F910510F4232BF1F487E087
:103ED0008A9DF0018B9DF00D1124E658FC4F16824F
:103EE000F982EA8222E030E0AE014F5F5F4F68E284
:103EF00070E0872D0E942B0E60E470E0872D0E94F9
:103F000040187CCFA801B601C5CF868377CFCF9369
:103F1000DF93FC01218D328D2115310529F48FEFBE
:103F20009FEFDF91CF910895EC01808D42175307E9
:103F300008F0A9010E94B91E1816190684F7298DE8
:103F40003A8D281B390B3A8F298FEBCF0F931F9394
:103F5000CF93DF931F92CDB7DEB7FC01218D328D59
:103F6000232B41F48FEF9FEF0F90DF91CF911F91A3
:103F70000F9108958C0141E050E0BE016F5F7F4FCB
:103F8000FC01808D0E94B91E181619065CF7F80115
:103F9000818D928D0197928F818F898190E0E4CFFE
:103FA000CF93DF931F92CDB7DEB741E050E0BE0163
:103FB0006F5F7F4FFC0184850E94B91E1816190699
:103FC00034F4898190E00F90DF91CF9108958FEFC5
:103FD0009FEFF9CFCF92DF92EF92FF920F931F9353
:103FE000CF93DF93CDB7DEB7EE970FB6F894DEBF71
:103FF0000FBECDBF63E774E0CE0142960E94E01D84
:104000008E8D843008F0B3C661ED71E0CE01C396A9
:104010000E941C140E94AA0A60937F04709380047B
:10402000809381049093820460936303709364038C
:104030008093650390936603CE0142960E94A71871
:10404000882309F486C680917F0490918004A09112
:104050008104B091820440916303509164036091A4
:10406000650370916603841B950BA60BB70B813D0E
:104070009740A105B10508F06CC60E94AA0A60939A
:104080007F04709380048093810490938204CE0116
:1040900042960E94B01E892B79F2CE0142960E9470
:1040A000D01F182F89831A8241E050E0BE016F5F54
:1040B0007F4F80E795E00E94E1121A3009F057C760
:1040C0008FA998AD892B09F04BC766ED71E0CE0141
:1040D00042960E94791266EE71E0CE0142960E94ED
:1040E00079126DEF71E0CE0142960E947912CE01F5
:1040F00042960E9475126FE072E0CE0101960E9416
:104100001C14CE0101960E94B4118C01CE010196BF
:104110000E94771417FD03C08EE00E943B0B6BE1F9
:1041200072E0CE0101960E941C14CE0101960E94FD
:10413000B4118C01CE0101960E94771417FD07C0BF
:104140004EE060EC77E289E090E00E94E00A66E2EF
:1041500072E0CE0101960E941C14CE0101960E94CD
:10416000B4118C01CE0101960E94771417FD03C093
:104170008DE00E943B0B62E372E0CE0101960E944B
:104180001C14CE0101960E94B4118C01CE0101963F
:104190000E94771417FD07C04DE060EC77E289E0DC
:1041A00090E00E94E00A6DE372E0CE0101960E9469
:1041B0001C14CE0101960E94B4118C01CE0101960F
:1041C0000E94771417FD03C08CE00E943B0B69E44A
:1041D00072E0CE0101960E941C14CE0101960E944D
:1041E000B4118C01CE0101960E94771417FD07C00F
:1041F0004CE060E87FE482E190E00E94E00A64E540
:1042000072E0CE0101960E941C14CE0101960E941C
:10421000B4118C01CE0101960E94771417FD03C0E2
:1042200081E0809362036FE572E0CE0101960E9407
:104230001C14CE0101960E94B4118C01CE0101968E
:104240000E94771417FF109262036BE672E0CE01B2
:1042500001960E941C14CE0101960E94B4118C019B
:10426000CE0101960E94771417FD03C081E0809370
:104270001B0166E772E0CE0101960E941C14CE017C
:1042800001960E94B4118C01CE0101960E94771410
:1042900017FF10921B0162E872E0CE0101960E94A6
:1042A0001C14CE0101960E94B4118C01CE0101961E
:1042B0000E94771417FD03C089E00E943B0B6DE854
:1042C00072E0CE0101960E941C14CE0101960E945C
:1042D000B4118C01CE0101960E94771417FD07C01E
:1042E00049E060EC77E289E090E00E94E00A67E94B
:1042F00072E0CE0101960E941C14CE0101960E942C
:10430000B4118C01CE0101960E94771417FF109210
:104310001A0162EA72E0CE0101960E941C14CE01DD
:1043200001960E94B4118C01CE0101960E9477146F
:1043300017FD03C081E080931A016CEA72E0CE01A0
:1043400001960E941C14CE0101960E94B4118C01AA
:10435000CE0101960E94771417FD03C087E00E94EA
:104360003B0B67EB72E0CE0101960E941C14CE015C
:1043700001960E94B4118C01CE0101960E9477141F
:1043800017FD07C047E060EC77E289E090E00E940B
:10439000E00A61EC72E0CE0101960E941C14CE018D
:1043A00001960E94B4118C01CE0101960E947714EF
:1043B00017FF109219016CEC72E0CE0101960E9479
:1043C0001C14CE0101960E94B4118C01CE010196FD
:1043D0000E94771417FD03C081E08093190166EDF8
:1043E00072E0CE0101960E941C14CE0101960E943B
:1043F000B4118C01CE0101960E94771417FD07C0FD
:1044000045E06CED75E080E090E00E94E00A60EE2F
:1044100072E0CE0101960E941C14CE0101960E940A
:10442000B4118C01CE0101960E94771417FD07C0CC
:1044300044E06CED75E080E090E00E94E00A6AEEF6
:1044400072E0CE0101960E941C14CE0101960E94DA
:10445000B4118C01CE0101960E94771417FD07C09C
:1044600043E06CED75E080E090E00E94E00A64EFCC
:1044700072E0CE0101960E941C14CE0101960E94AA
:10448000B4118C01CE0101960E94771417FD03C070
:1044900081E0809318016EEF72E0CE0101960E94D8
:1044A0001C14CE0101960E94B4118C01CE0101961C
:1044B0000E94771417FF1092180169E073E0CE0193
:1044C00001960E941C14CE0101960E94B4118C0129
:1044D000CE0101960E94771417FDB1C04FE050E065
:1044E0006BE070E0CE0101960E942D14CE01019682
:1044F0000E94AE127093AE046093AD04CE0101969B
:104500000E94771442E150E060E170E0CE01019634
:104510000E942D14CE0101960E94AE126093AF044A
:10452000CE0101960E94771445E150E063E170E00E
:10453000CE0101960E942D14CE0101960E94AE126A
:104540006093B004CE0101960E94771448E150E0D8
:1045500066E170E0CE0101960E942D14CE01019615
:104560000E94AE126093B204CE0101960E947714AD
:104570004BE150E069E170E0CE0101960E942D14FC
:10458000CE0101960E94AE126093B304CE01019653
:104590000E947714109224011091B3041093250106
:1045A000F090B204F0922601D090B004D09227018E
:1045B0000091AF0400932801E090AD0480E3E80E81
:1045C000E09229010E943508813009F0EBC087E0B4
:1045D0008093B1048CE390E09093A7048093A604A9
:1045E00085E39DEDA0E5B2E480939E0490939F0443
:1045F000A093A004B093A1048AE69AE5A6EAB1E4E8
:104600008093A2049093A304A093A404B093A50460
:1046100083E08093A80484E08093A9049AE09093B7
:10462000AA048093AB048CE38093AC04CC24C394A1
:104630002D2D4F2D612F8091B4040E94531167E9F5
:104640007CE0CE0142960E948B126CE47CE0CE01AD
:1046500042960E948B126CE27CE0CE0142960E9450
:104660008B1268EC7BE0CE0142960E948B1263E7CE
:104670007BE0CE0142960E948B126CE27BE0CE0181
:1046800042960E948B1267EF7AE0CE0142960E941A
:104690008B126EEC7AE0CE0142960E948B126EEB8A
:1046A0007AE0CE0142960E948B126DEA7AE0CE014A
:1046B00042960E948B126091B004CE018D960E94AA
:1046C0007F146091AF04CE0187960E947F14809181
:1046D000AD049091AE041AA219A21CA21BA21EA2A4
:1046E0001DA24AE0BE016F5F7F4F0E946C32BE0187
:1046F0006F5F7F4FCE0181960E946913BE016F5D8F
:104700007F4FCE0101960E94021465E173E0CE0155
:1047100001960E941F13BE01695D7F4F0E943513F1
:1047200065E173E00E941F13BE01635D7F4F0E942D
:104730003513BC01CE01C9960E940214CE01019628
:104740000E947714CE0181960E947714CE0187963D
:104750000E947714CE018D960E947714BE01675C8B
:104760007F4FCE0142960E943D1DCE01C9960E9408
:1047700077146BEA7AE0CE0142960E948B12E091A8
:10478000B104E15062E573E0E73080F4F0E0E55316
:10479000FC4D0C94FB38D4235E27612764276727E0
:1047A0006A276D27815014CF67E173E0CE0101962F
:1047B0000E941C14BE016F5F7F4FCE0142960E9483
:1047C0003D1DCE0101960E94771460EA7AE0CE0189
:1047D00042960E948B126091B404CE018D960E9485
:1047E0007F146091B304CE0187960E947F1460917C
:1047F000B204CE0101960E947F14BE016F5F7F4F0D
:10480000CE0181960E94021464ED71E0CE01819682
:104810000E941F13BE01695D7F4F0E94351364ED36
:1048200071E00E941F13BE01635D7F4F0E9435132C
:10483000BC01CE01C9960E940214CE0181960E944D
:104840007714CE0101960E947714CE0187960E94BC
:104850007714CE018D960E947714BE01675C7F4F5E
:10486000CE0142960E943D1DCE01C9960E9477144A
:1048700069E97AE0CE0142960E948B1263E87AE001
:10488000CE0142960E948B1260918304CE01019664
:104890000E947313BE016F5F7F4FCE0142960E944C
:1048A0003D1DCE0101960E94771461E87AE0CE01A9
:1048B00042960E948B1260918404CE0101960E9460
:1048C0007313BE016F5F7F4FCE0142960E943D1D64
:1048D000CE0101960E94771467E67AE0CE014296F7
:1048E0000E948B1260918504CE0101960E94731381
:1048F000BE016F5F7F4FCE0142960E943D1DCE01EB
:1049000001960E94771465E67AE0CE0142960E94F5
:104910008B1260918604CE0101960E947313BE0132
:104920006F5F7F4FCE0142960E943D1DCE010196E2
:104930000E9477146EE57AE0CE0142960E948B12B7
:104940008091180168E17AE0882311F06CEC79E03D
:10495000CE0142960E948B1285E00E94B60A69E859
:1049600079E0882311F069E479E0CE0142960E9453
:104970008B1284E00E94B60A64E079E0882311F08B
:1049800060EC78E0CE0142960E948B126CEA78E0EF
:10499000CE0142960E948B126CE878E0CE014296DE
:1049A0000E948B1240915E0350915F0360916003FF
:1049B00070916103CE0101960E94CC13BE016F5F1E
:1049C0007F4FCE0142960E943D1DCE0101960E946E
:1049D000771460E878E0CE0142960E948B128091B5
:1049E0001901882309F47CC26DE478E0CE01429677
:1049F0000E948B1240915A0350915B0360915C03BB
:104A000070915D03CE0101960E94CC13BE016F5FD1
:104A10007F4FCE0142960E943D1DCE0101960E941D
:104A2000771467E378E0CE0142960E948B1287E00C
:104A30000E94B60A66EA77E08823F1F066E777E03D
:104A4000CE0142960E948B1267E0CE0101960E9431
:104A5000BA14BE016F5F7F4FCE0142960E943D1D8A
:104A6000CE0101960E94771468E677E0CE01429667
:104A70000E948B1269E277E0CE0142960E948B126F
:104A800080911A01882309F44BC266EF76E0CE01CB
:104A900042960E948B1240915603509157036091A9
:104AA000580370915903CE0101960E94CC13BE01A8
:104AB0006F5F7F4FCE0142960E943D1DCE01019651
:104AC0000E94771460EE76E0CE0142960E948B122F
:104AD00089E00E94B60A6FE476E08823F1F06FE186
:104AE00076E0CE0142960E948B1269E0CE010196DB
:104AF0000E94BA14BE016F5F7F4FCE0142960E94A2
:104B00003D1DCE0101960E94771461E176E0CE0151
:104B100042960E948B1262ED75E0CE0142960E9491
:104B20008B1268EB75E0CE0142960E948B1266E113
:104B3000CE0101960E947313BE016F5F7F4FCE01BD
:104B400042960E943D1DCE0101960E94771469E9AC
:104B500075E0CE0142960E948B1262E1CE01019671
:104B60000E947313BE016F5F7F4FCE0142960E9479
:104B70003D1DCE0101960E94771461E975E0CE01DA
:104B800042960E948B126DE775E0CE0142960E941C
:104B90008B1264E675E0CE0142960E948B1260EBA8
:104BA00074E0CE0101960E94A013BE016F5F7F4F9B
:104BB000CE0142960E943D1DCE0101960E947714BF
:104BC00066E475E0CE0142960E948B1268E572E0C1
:104BD000CE0101960E94A013BE016F5F7F4FCE01F0
:104BE00042960E943D1DCE0101960E94771468E214
:104BF00075E0CE0142960E948B1268E572E0CE010C
:104C000001960E94A013BE016F5F7F4FCE014296B6
:104C10000E943D1DCE0101960E94771462E275E06C
:104C2000CE0142960E948B1280911B0161ED74E0CF
:104C3000811102C066E874E0CE0142960E948B1298
:104C4000809162036AE374E0882311F06AEC73E0F8
:104C5000CE0142960E948B128CE00E94B60A6CE84C
:104C600073E08823C1F06FE473E0CE0142960E94A6
:104C70008B126CE0CE0101960E94BA14BE016F5FE8
:104C80007F4FCE0142960E943D1DCE0101960E94AB
:104C9000771461E473E0CE0142960E948B128DE09E
:104CA0000E94B60A63E073E08823C1F066EC72E00C
:104CB000CE0142960E948B126DE0CE0101960E94B9
:104CC000BA14BE016F5F7F4FCE0142960E943D1D18
:104CD000CE0101960E94771468EB72E0CE014296F5
:104CE0000E948B128EE00E94B60A66E772E088236B
:104CF000C1F069E372E0CE0142960E948B126EE031
:104D0000CE0101960E94BA14BE016F5F7F4FCE01A3
:104D100042960E943D1DCE0101960E94771467E2E3
:104D200072E0CE0142960E948B126BED71E0CE01D3
:104D300042960E948B12CE0142960E9475126CEC34
:104D400071E0CE0142960E948B12CE0142960E94E3
:104D5000751261ED71E080E795E00E946913CE0164
:104D600042960E94C918CE01C3960E9477148EE025
:104D70000E94B60A60E0811101C061E082E00E94F9
:104D8000D6098DE00E94B60A60E0811101C061E0A1
:104D900081E00E94D6098CE00E94B60A60E0811191
:104DA00001C061E080E00E94D60989E00E94B60A55
:104DB00060E0811101C061E088E00E94D60987E0CF
:104DC0000E94B60A60E0811101C061E087E00E94A4
:104DD000D60985E00E94B60A60E0811101C061E059
:104DE00084E00E94D60984E00E94B60A60E0811146
:104DF00001C061E085E00E94D60983E00E94B60A06
:104E000060E0811101C061E083E00E94D6098091D9
:104E10006203813051F44CE060E87FE482E190E08D
:104E20000E94E00A82E0809362038CE00E94B60A4E
:104E300081110EC080916203823051F44DE060EC2C
:104E400077E289E090E00E94E00A83E080936203C9
:104E50008DE00E94B60A81110DC0809162038330FB
:104E600049F44EE060EC77E289E090E00E94E00ACD
:104E7000109262038091B4042091B2049091830453
:104E8000291384C02091B3049091840429137EC017
:104E900081117DC08091760381117BC081E0809378
:104EA000760380911801882309F473C045E06CED06
:104EB00075E080E090E00E94E00A6BC064E273E07D
:104EC00075CC6BE273E072CC61E373E06FCC6AE3A4
:104ED00073E06CCC61E473E069CC68E473E066CCA9
:104EE0006DEF77E0CE0142960E948B1240915A03FB
:104EF00050915B0360915C0370915D03CE0101965C
:104F00000E94CC13BE016F5F7F4FCE0142960E947C
:104F10003D1DCE0101960E94771469EE77E083CDA6
:104F200066EA76E0CE0142960E948B1240915603CB
:104F3000509157036091580370915903CE01019627
:104F40000E94CC13BE016F5F7F4FCE0142960E943C
:104F50003D1DCE0101960E94771462E976E0B4CD42
:104F600061ED71E0CE01C3960E94691365C81D30E2
:104F700009F462C819831A8241E050E0BE016F5FF4
:104F80007F4FCE01C3960E94E11256C88111109244
:104F900076038091B4042091B20490918504291382
:104FA0001BC02091B30490918604291315C0811170
:104FB00014C080917703811112C081E08093770340
:104FC00080911801882359F044E06CED75E080E091
:104FD00090E00E94E00A03C0811110927703809153
:104FE000B4049091B204943109F0F1C09091B304EB
:104FF0009F3009F0ECC08111EDC0809178038111E0
:1050000007C081E08093780390911B019111E5C066
:105010000E94AA0A0091B5041091B6042091B70429
:105020003091B804601771078207930798F0D9018F
:10503000C80188519C4FAF4FBF4F8093B5049093E8
:10504000B604A093B704B093B8048091B4048F5F02
:105050008093B4048091B4048C3338F08091B3040D
:105060008F5F8093B3041092B4048091B3048C33A7
:1050700038F08091B2048F5F8093B2041092B30431
:105080008091B204883160F08091B1049091B004B5
:105090009F5F9093B0048F5F8093B1041092B2042D
:1050A0008091B104883018F081E08093B104809140
:1050B000AF04823051F48091B0048D3131F483E03B
:1050C0008093AF0481E08093B0048091AF04982F67
:1050D0009D7F943011F0993051F49091B0049F313C
:1050E00030F08F5F8093AF0481E08093B0048091B3
:1050F000AF04982F9D7F913051F0853041F099EFAA
:10510000980F923020F08A3011F08C3051F4909149
:10511000B004903230F08F5F8093AF0481E08093D1
:10512000B0048091AF048D3060F08091AD04909117
:10513000AE0421E02093AF0401969093AE048093D7
:10514000AD04E090AD0420E3E20EC12C0091AF0469
:105150002091B0044091B2046091B3048091B404F2
:105160000E9453110E941A0C80E191E00E94820C6F
:1051700060935E0370935F03809360039093610379
:1051800088E091E00E94820C60935603709357036D
:10519000809358039093590380E091E00E94820C21
:1051A00060935A0370935B0380935C0390935D0359
:1051B000EE960FB6F894DEBF0FBECDBFDF91CF9154
:1051C0001F910F91FF90EF90DF90CF90089588236B
:1051D00009F41ECF109278031BCF8093620318CF7F
:1051E000FC018485843010F40C94B91E90E080E0BA
:1051F00008950F931F93CF93DF9300D0CDB7DEB701
:10520000FC0124852430E0F48C0180E591E00E94CB
:10521000C10822E030E0AE014F5F5F4F60E170E017
:10522000F80184850E94331989819A8198278927FA
:1052300098270F900F90DF91CF911F910F910895B4
:1052400090E080E0F6CF0F931F93CF93DF9300D0D1
:10525000CDB7DEB7FC0124852430E0F48C0180E575
:1052600091E00E94C10822E030E0AE014F5F5F4F45
:1052700064E070E0F80184850E94331989819A8185
:105280009827892798270F900F90DF91CF911F9132
:105290000F91089590E080E0F6CF0F931F93CF9386
:1052A000DF93CDB7DEB728970FB6F894DEBF0FBEF9
:1052B000CDBF8C01D80159964D915C915A974115FB
:1052C000510551F0ED91FC91048CF58DE02D70E0CD
:1052D00060E0C8010995EECFF801808D0E94C21DE3
:1052E000892BB1F148E050E0BE016F5F7F4FD801DC
:1052F00058968C910E94B91E18161906F4F4D8011C
:10530000509684E0FE01319601900D928A95E1F766
:105310008D8190E0982F88272E81820F911DF801B2
:10532000958B848B8F81282F30E0322F2227888520
:10533000820F932F911D928F818F28960FB6F8942C
:10534000DEBF0FBECDBFDF91CF911F910F910895AA
:1053500090E080E0F2CF4F925F926F927F928F92B7
:105360009F92AF92BF92CF92DF92EF92FF920F93F4
:105370001F93CF93DF93CDB7DEB763970FB6F89443
:10538000DEBF0FBECDBF7C016B013A01FB0120E007
:1053900090E080E06AE03191332309F461C040ED90
:1053A000430F4A3008F04DC0689FA001699F500D1F
:1053B0001124CA01C097830F911D37FD9A958F3F25
:1053C000910549F340F3F70142815381648175816E
:1053D0008091690490916A04A0916B04B0916C046F
:1053E000481759076A077B0709F40DC28701085F50
:1053F0001F4F0E94AA0A6F7077277C5FC8010E9426
:10540000891B813009F004C28DEB91E09A83898376
:10541000F70182819381A481B5818B839C83AD83C5
:10542000BE8345E350E0BE016F5F7F4FC8010E941D
:10543000EC0E892BA9F5D12CC12CC8010E9468184B
:1054400017C03E3209F0BFCF233009F4BCCFD301DF
:10545000A20FB11D12968C932F5F90E080E09BCF3E
:10546000233009F0B0CFF3018583CC24C394D12C31
:10547000C60163960FB6F894DEBF0FBECDBFDF91B5
:10548000CF911F910F91FF90EF90DF90CF90BF9041
:10549000AF909F908F907F906F905F904F90089506
:1054A0000E94AA0AF7017783668342E050E0B701C1
:1054B0006A5F7F4FC8010E94541D81E090E09A838B
:1054C000898342E050E0BE016F5F7F4FC8010E94B8
:1054D000541D80E091E09A83898342E050E0BE0150
:1054E0006F5F7F4FC8010E94541D1A82198242E0EB
:1054F00050E0BE016F5F7F4FC8010E94541D42E023
:1055000050E0BE016F5F7F4FC8010E94541D42E012
:1055100050E0BE016F5F7F4FC8010E94541D5601CD
:10552000F6018081882301F16501F60181912F0147
:10553000882311F08E32B1F446018A189B081814A2
:10554000190474F48D8641E050E0BE01635F7F4F23
:10555000C8010E94541DA401B501C8010E94541D38
:105560005201DECF6201E1CF1D8641E050E0BE0175
:10557000635F7F4FC8010E94541DC12CDD24D3946A
:10558000DA82C98242E050E0BE016F5F7F4FC801FE
:105590000E94541DDA82C98242E050E0BE016F5F72
:1055A0007F4FC8010E94541DC8010E940219892B17
:1055B00009F441CFF3E0AF2EB12C230122E0420EDB
:1055C000511CD4C0F7014281538164817581808D63
:1055D000918DA28DB38D481759076A077B0709F093
:1055E00008C1848D958DC59709F003C181A192A151
:1055F0005DEFC52EDD24DA940C970CF4ADC04CE0C1
:1056000050E0BE016F5F7F4FC8010E94871F8B81F2
:105610009C819827892798279A8B898BF701468147
:10562000578129813A814217530709F0E7C097FF54
:10563000E5C08F7092703BEFC32EDD24DA94892B86
:1056400009F08AC06F8078847624672476242AEF54
:10565000C22EDD24DA946114710409F47DC0D12CCA
:10566000C12C8D819E81982789279827C816D90635
:10567000F8F441E050E0BE01635F7F4FC8010E9433
:10568000871F4D85442331F050E070E060E0C80191
:105690000E94871F8D858111ECCF44E050E070E0BF
:1056A00060E0C8010E94871FFFEFCF1ADF0AD9CF41
:1056B000912C812C41E050E0BE016D5E7F4FC8010E
:1056C0000E94871F4B89842F807C09F06CC0442383
:1056D00031F050E070E060E0C8010E94871F8B89C4
:1056E0008111E8CF42E050E0BE01615F7F4FC80109
:1056F0000E94871F42E050E0BE01635F7F4FC801F8
:105700000E94871F44E050E070E060E0C8010E9402
:10571000871F42E050E0BE016F5E7F4FC8010E94CC
:10572000871F8F85988949895A898115914009F089
:1057300043C0CD84DE84DC24CD24DC2481E0C81683
:10574000D104D1F54115544009F04AC044E050E07D
:10575000B201C8010E94871F21E0A21AB10809F412
:105760006CCEFFEFCF16DF0609F067CE0E94AA0AC3
:105770003B014C01C8010E944D29181619060CF472
:1057800021CF0E94AA0A6619770988099909693800
:1057900073418105910548F562E370E080E090E097
:1057A0000E94780AE7CF41E050E070E060E0C80175
:1057B0000E94871F1B8A93CF54274527542770E0E8
:1057C00060E0C8010E94871FFFEF8F1A9F0A6814CC
:1057D000790409F06FCF96EFC92EDD24DA94BCCF9F
:1057E000E7EFCE2EDD24DA94B7CFCC24CA94DC2C9C
:1057F000B3CF6EEFC62EDD24DA94AECF4CEFC42EBD
:10580000DD24DA94A9CF8EEFC82EDD24DA9430CED1
:10581000D12CC12C2DCECF92DF92EF92FF920F931D
:105820001F93CF93DF93CDB7DEB7AF970FB6F89442
:10583000DEBF0FBECDBF7C016A010DEB11E01A8304
:1058400009831C861B8688EE93E0A0E0B0E08D877C
:105850009E87AF87B88B8CE791E09A878987188FEE
:105860000F8B198E1A8E1B8E1C8E84E089A31BA7AA
:105870000AA71CA61DA61EA61FA680915D049091D6
:105880005E04A0915F04B09160048EA39FA3A8A7BB
:10589000B9A78B839C83AD83BE8318861F82AE011C
:1058A000465D5F4FCE0101960E94AB298130910584
:1058B000B1F4D701ED91FC910488F589E02D1DA389
:1058C0000CA38CA59DA5AEA5BFA58EA39FA3A8A73D
:1058D000B9A7A601BE016C5D7F4FC7010995AF96C0
:1058E0000FB6F894DEBF0FBECDBFDF91CF911F91F1
:1058F0000F91FF90EF90DF90CF900895CF92DF92BD
:10590000EF92FF920F931F93CF93DF93CDB7DEB744
:10591000AF970FB6F894DEBF0FBECDBF8C016B0101
:105920007A018DEB91E09A8389831B821C821D8210
:105930001E821C861B8648EE53E060E070E04D87B7
:105940005E876F87788B2CE731E03A872987988FBD
:105950008F8B198E1A8E1B8E1C8E24E029A39BA779
:105960008AA71CA61DA61EA61FA6D8011C968C9150
:10597000843060F40E947918882321F0F80184852E
:105980000E94501884E0D8011C968C9380915D048D
:1059900090915E04A0915F04B09160048EA39FA3D8
:1059A000A8A7B9A78B839C83AD83BE8318861F826B
:1059B000AE01465D5F4FB601CE0101960E94AB2954
:1059C0000097C1F0D801ED91FC910684F785E02D98
:1059D0008DEB91E09DA38CA38CA59DA5AEA5BFA545
:1059E0008EA39FA3A8A7B9A7A701BE016C5D7F4F97
:1059F000C8010995AF960FB6F894DEBF0FBECDBFB4
:105A0000DF91CF911F910F91FF90EF90DF90CF909A
:105A10000895EF92FF920F931F93CF93DF9300D0DF
:105A200000D0CDB7DEB78C017B01FB0184858430CB
:105A3000A8F08DEB91E0F8019183808312821382AC
:105A400014821582C8010F900F900F900F90DF9174
:105A5000CF911F910F91FF90EF90089580E591E015
:105A60000E94C10824E030E0AE014F5F5F4F6CE060
:105A700070E0F70184850E9433198DEB91E0F80105
:105A80009183808389819A81AB81BC818283938356
:105A9000A483B583D7CF1F920F920FB60F92112414
:105AA0002F933F934F935F936F937F938F939F9326
:105AB000AF93BF93EF93FF9380EA93E00E9447096F
:105AC000FF91EF91BF91AF919F918F917F916F91D6
:105AD0005F914F913F912F910F900FBE0F901F90AC
