:100000000C9410100C9441100C9441100C9441105D
:100010000C9441100C9441100C9441100C9441101C
:100020000C9441100C9441100C9441100C9441100C
:100030000C9441100C9441100C9441100C944110FC
:100040000C9441100C9441100C9441100C944110EC
:100050000C9441100C9441100C9441100C94795F55
:100060000C9441100C94435F0C94195F0C94411054
:100070000C9441100C9441100C9441100C944110BC
:100080000C9441100C9441100C9441100C944110AC
:100090000C9441100C9441100C9441100C9441109C
:1000A0000C9441100C9441100C9441100C9441108C
:1000B0000C9441100C9441100C9441100C9441107C
:1000C0000C9441100C9441100C9441100C9441106C
:1000D0000C9441100C9441100C9441100C9441105C
:1000E0000C944110072C7AA5BA6CC590DA3B936545
:1000F000FC8BBC53F810FD3C5692834DBD879D3A56
:10010000B63DCBC9BF5BBE73DA0FC93F05A84CCD66
:10011000B2D44EB93836A9020C50B9918688083C41
:10012000A6AAAA2ABE000000803F0664EC1B3C047D
:10013000BC163E3BE5B93CC93C37C29E5A3D6604FD
:1001400098083EEA69AAAA3E000000803F000040ED
:100150007A10F35A00A0724E18090010A5D4E800D6
:1001600000E87648170000E40B54020000CA9A3BEE
:10017000000000E1F5050000809698000000404274
:100180000F000000A0860100000010270000000002
:10019000E803000000006400000000000A00000006
:1001A00000000100000000002C76D888DC674F08B2
:1001B00023DFC1DFAE59E1B1B796E5E3E453C63AB8
:1001C000E651997696E8E6C28426EB898C9B62ED2F
:1001D000407C6FFCEFBC9C9F40F2BAA56FA5F490E9
:1001E000055A2AF75C936B6CF9676DC11BFCE0E460
:1001F0000D47FEF520E6B500D0ED902E03009435B6
:1002000077050080841E080000204E0A000000C808
:100210000C333333330F986E12831141EF8D211459
:10022000893BE65516CFFEE6DB18D1844B381BF729
:100230007C1D901DA4BBE424203284725E228100C8
:10024000C9F124ECA1E53D273C2F626F64793E3C67
:100250002F68746D6C3E003C6120687265663D22BB
:100260002F6E6F7468696E67223E3C627574746F9E
:100270006E20636C6173733D22627574746F6E20BF
:10028000627574746F6E32223E5265667265736871
:10029000203C2F627574746F6E3E3C2F613E3C2F84
:1002A000703E003C6120687265663D222F37312F19
:1002B0006F6E223E3C627574746F6E20636C617366
:1002C000733D22627574746F6E20223E4F66663CE9
:1002D0002F627574746F6E3E3C2F613E003C61204E
:1002E000687265663D222F37312F6F6666223E3C6D
:1002F000627574746F6E20636C6173733D226275F6
:1003000074746F6E20627574746F6E32223E4F6E1D
:100310003C2F627574746F6E3E3C2F613E003C61F1
:1003200020687265663D222F37302F6F6E223E3C6B
:10033000627574746F6E20636C6173733D226275B5
:1003400074746F6E20223E6F73772E206F67726F0A
:100350006475205265637A6E653C2F627574746FA4
:100360006E3E3C2F613E003C6120687265663D2216
:100370002F37302F6F6666223E3C627574746F6E45
:1003800020636C6173733D22627574746F6E2062BA
:100390007574746F6E32223E6F73772E206F6772A2
:1003A0006F6475204175746F3C2F627574746F6E45
:1003B0003E3C2F613E003C7461626C652073747931
:1003C0006C653D6261636B67726F756E642D636F00
:1003D0006C6F723A234646464646463E3C74723E31
:1003E0003C74683E4E6F2E3C2F74683E3C74683EF1
:1003F000446174613C2F74683E3C74683E476F648E
:100400007A696E613C2F74683E3C74683E496E6642
:100410006F3C2F74683E3C2F74723E003C746162E6
:100420006C65207374796C653D6261636B67726F94
:10043000756E642D636F6C6F723A2346464646466E
:10044000463E3C74723E3C74683E4E6F2E3C2F74A8
:10045000683E3C74683E446174613C2F74683E3C65
:1004600074683E476F647A696E613C2F74683E3CE5
:1004700074683E4F73772E3C2F74683E3C74683E20
:1004800054656D70313C2F74683E3C74683E546511
:100490006D70323C2F74683E3C74683E54656D70DC
:1004A000333C2F74683E3C74683E4465737A637ACB
:1004B0003C2F74683E3C74683E4F73772E206F6704
:1004C000722E3C2F74683E3C2F74723E0020433CD9
:1004D0002F48353E0020433C2F48353E3C48353EB2
:1004E00054656D7065726174757261206E6F636EB4
:1004F000613A20003C68353E54656D7065726174E8
:1005000075726120647A69656E6E613A20003C61A3
:1005100020687265663D222F392F6F6666223E3C49
:10052000627574746F6E20636C6173733D226275C3
:1005300074746F6E223E53544F50213C2F62757479
:10054000746F6E3E3C2F613E3C2F703E003C2F622C
:100550007574746F6E3E3C2F613E003C6120687282
:1005600065663D222F392F6F6E223E3C6275747492
:100570006F6E20636C6173733D22627574746F6E6D
:1005800020627574746F6E32223E003C6120687286
:1005900065663D222F392F6F6E223E3C6275747462
:1005A0006F6E20636C6173733D22627574746F6E3D
:1005B000223E3130206D696E2E204F6E3C2F6275C9
:1005C00074746F6E3E3C2F613E3C2F703E0027439B
:1005D000206E6F633C2F627574746F6E3E3C2F61AA
:1005E0003E003C703E3C6120687265663D222F38BB
:1005F0002F6F6E223E3C627574746F6E20636C6167
:1006000073733D22627574746F6E20627574746FBB
:100610006E32223E5061727465722000274320645E
:100620007A69656E3C2F627574746F6E3E3C2F6103
:100630003E003C703E3C6120687265663D222F386A
:100640002F6F6666223E3C627574746F6E20636C19
:100650006173733D22627574746F6E223E506172D5
:1006600074657220003C6120687265663D222F37F8
:100670002F6F6666223E3C627574746F6E20636CE9
:100680006173733D22627574746F6E223E53544FD2
:1006900050213C2F627574746F6E3E3C2F613E3C5E
:1006A0002F703E003C2F627574746F6E3E3C2F615C
:1006B0003E003C6120687265663D222F372F6F6EC9
:1006C000223E3C627574746F6E20636C6173733D7F
:1006D00022627574746F6E20627574746F6E32224C
:1006E0003E003C6120687265663D222F372F6F6E99
:1006F000223E3C627574746F6E20636C6173733D4F
:1007000022627574746F6E223E3130206D696E2ED8
:10071000204F6E3C2F627574746F6E3E3C2F613EAD
:100720003C2F703E002743206E6F633C2F62757430
:10073000746F6E3E3C2F613E003C703E3C61206811
:100740007265663D222F362F6F6E223E3C627574B5
:10075000746F6E20636C6173733D22627574746F85
:100760006E20627574746F6E32223E5069657472C9
:100770006F2000274320647A69656E3C2F62757490
:10078000746F6E3E3C2F613E003C703E3C612068C1
:100790007265663D222F362F6F6666223E3C62757B
:1007A00074746F6E20636C6173733D226275747430
:1007B0006F6E223E50696574726F20003C48333E74
:1007C0004F67727A6577616E69653C2F48333E00EA
:1007D0003C2F627574746F6E3E3C2F613E3C2F70EF
:1007E0003E003C6120687265663D222F31342F6FD8
:1007F0006666223E3C627574746F6E20636C617332
:10080000733D22627574746F6E20627574746F6EBE
:1008100032223E53746F70205A32207A6120003C9D
:100820006120687265663D222F31342F6F6E223E43
:100830003C627574746F6E20636C6173733D2262E9
:100840007574746F6E223E5374617274205A323C18
:100850002F627574746F6E3E3C2F613E3C2F703E6C
:10086000003C2F627574746F6E3E3C2F613E003CFD
:100870006120687265663D222F31332F6F666622D4
:100880003E3C627574746F6E20636C6173733D22BD
:10089000627574746F6E20627574746F6E32223E6E
:1008A00053746F70205A31207A6120003C612068B7
:1008B0007265663D222F31332F6F6E223E3C62758A
:1008C00074746F6E20636C6173733D22627574740F
:1008D0006F6E223E5374617274205A313C2F6275E0
:1008E00074746F6E3E3C2F613E003C2F62757474D1
:1008F0006F6E3E3C2F613E003C6120687265663D34
:10090000222F31322F6F6666223E3C627574746FFF
:100910006E20636C6173733D22627574746F6E2018
:10092000627574746F6E32223E53746F70204C4B3C
:10093000207A6120003C6120687265663D222F317B
:10094000322F6F6E223E3C627574746F6E20636C42
:100950006173733D22627574746F6E223E537461CD
:100960007274204C4B3C2F627574746F6E3E3C2F3A
:10097000613E003C6120687265663D222F31312F57
:100980006F6666223E3C627574746F6E20636C61A4
:1009900073733D22627574746F6E20627574746F28
:1009A0006E32223E43796B6C20706F646C657761A8
:1009B0006E69652077207472616B6369652C206EA7
:1009C00061647A69736E696A206279207A617472EF
:1009D0007A796D61633C2F627574746F6E3E3C2F43
:1009E000613E003C6120687265663D222F31312FE7
:1009F0006F6E223E3C627574746F6E20636C61731F
:100A0000733D22627574746F6E223E53746172740A
:100A10002063796B6C7520706F646C6577616E69AB
:100A2000613C2F627574746F6E3E3C2F613E003CDA
:100A30006120687265663D222F31302F6F6E223E35
:100A40003C627574746F6E20636C6173733D2262D7
:100A50007574746F6E20223E506F646C6577616EA2
:100A60006965205265637A6E653C2F627574746F98
:100A70006E3E3C2F613E003C6120687265663D22FF
:100A80002F31302F6F6666223E3C627574746F6E34
:100A900020636C6173733D22627574746F6E2062A3
:100AA0007574746F6E32223E506F646C6577616E40
:100AB0006965204175746F3C2F627574746F6E3E6A
:100AC0003C2F613E003C703E3C696E707574207432
:100AD0007970653D636865636B626F78206F6E63E4
:100AE0006C69636B3D72657475726E2066616C73C0
:100AF0006520756E636865636B65643E204465734D
:100B00007A637A003C703E3C696E7075742074792B
:100B100070653D636865636B626F78206F6E636CB0
:100B200069636B3D72657475726E2066616C736586
:100B300020636865636B65643E204465737A637AFD
:100B4000003C48333E506F646C6577616E69653C6C
:100B50002F48333E003C6120687265663D222F338A
:100B60002F6F6E223E3C627574746F6E20636C61F1
:100B700073733D22627574746F6E223E526F6C65A2
:100B800074792073746F703C2F627574746F6E3E4D
:100B90003C2F613E3C2F703E003C612068726566D0
:100BA0003D222F342F6F6E223E3C627574746F6E3F
:100BB00020636C6173733D22627574746F6E223EA4
:100BC0004F7075736320726F6C6574793C2F62751A
:100BD00074746F6E3E3C2F613E3C2F703E003C7043
:100BE0003E3C6120687265663D222F332F6F6E2276
:100BF0003E3C627574746F6E20636C6173733D224A
:100C0000627574746F6E223E526F6C6574792073D6
:100C1000746F703C2F627574746F6E3E3C2F613E32
:100C2000003C703E3C6120687265663D222F352F86
:100C30006F6E223E3C627574746F6E20636C6173DC
:100C4000733D22627574746F6E223E506F646E69DC
:100C5000657320726F6C6574793C2F627574746F64
:100C60006E3E3C2F613E003C2F627574746F6E3E89
:100C70003C2F613E3C2F703E003C612068726566EF
:100C80003D222F31352F6F6E223E3C627574746F9A
:100C90006E20636C6173733D22627574746F6E2293
:100CA0003E536574206C69676874206C6576656C6A
:100CB0003A003C6120687265663D222F31362F6F05
:100CC0006666223E3C627574746F6E20636C61735D
:100CD000733D22627574746F6E20627574746F6EEA
:100CE00032223E4C696768742073656E736F7220A0
:100CF0006F6E3C2F627574746F6E3E3C2F613E00C8
:100D00003C6120687265663D222F31362F6F6E225E
:100D10003E3C627574746F6E20636C6173733D2228
:100D2000627574746F6E223E4C69676874207365D7
:100D30006E736F72206F66663C2F627574746F6E8F
:100D40003E3C2F613E003C703E3C6120687265660F
:100D50003D222F322F6F6666223E3C627574746F9F
:100D60006E20636C6173733D22627574746F6E20C4
:100D7000627574746F6E32223E426C696E647320C9
:100D800054696D6572204F6E3C2F627574746F6E7E
:100D90003E3C2F613E003C703E3C612068726566BF
:100DA0003D222F322F6F6E223E3C627574746F6E3F
:100DB00020636C6173733D22627574746F6E223EA2
:100DC000426C696E64732054696D6572204F66666B
:100DD0003C2F627574746F6E3E3C2F613E00203C68
:100DE0002F68353E00203C2F68353E3C68353E205C
:100DF0004C616D70792077206F67726F647A6965D6
:100E00003A2000203C2F68353E00203C2F68353EBC
:100E10003C68353E2053656E736F7220737769614D
:100E2000746C613A20003A003C2F68353E3C6835CE
:100E30003E205A6163686F6420736C6F6E63613A21
:100E400020003A00203C68353E20577363686F6489
:100E500020736C6F6E63613A20003C48333E526FE2
:100E60006C6574793C2F48333E003C6120687265A4
:100E7000663D222F34302F6F6E223E3C62757474B3
:100E80006F6E20636C6173733D22627574746F6E54
:100E900020627574746F6E223E53544F50213C2F64
:100EA000627574746F6E3E3C2F613E3C2F703E0045
:100EB0003C6120687265663D222F33392F6F6E22A8
:100EC0003E3C627574746F6E20636C6173733D2277
:100ED000627574746F6E20627574746F6E223E5703
:100EE00020646F6C3C2F627574746F6E3E3C2F6192
:100EF0003E003C703E3C6120687265663D222F33A7
:100F0000382F6F6E223E3C627574746F6E20636C76
:100F10006173733D22627574746F6E2062757474B0
:100F20006F6E223E526F6C657479207769617472BE
:100F30006F6C61702C206C617A69656E6B612070DA
:100F400061727465722028312C3229207720676FF6
:100F500072653C2F627574746F6E3E3C2F613E006B
:100F60003C6120687265663D222F35322F6F6E22FC
:100F70003E3C627574746F6E20636C6173733D22C6
:100F8000627574746F6E20627574746F6E223E5356
:100F9000544F50213C2F627574746F6E3E3C2F612C
:100FA0003E3C2F703E003C6120687265663D222FFA
:100FB00035312F6F6E223E3C627574746F6E206304
:100FC0006C6173733D22627574746F6E2062757408
:100FD000746F6E223E5720646F6C3C2F6275747480
:100FE0006F6E3E3C2F613E003C703E3C612068725B
:100FF00065663D222F35302F6F6E223E3C62757440
:10100000746F6E20636C6173733D22627574746FCC
:101010006E20627574746F6E223E526F6C657479C7
:10102000206B7563686E69612028332920772067FB
:101030006F72653C2F627574746F6E3E3C2F613E1B
:10104000003C6120687265663D222F32322F6F6E40
:10105000223E3C627574746F6E20636C6173733DE5
:1010600022627574746F6E20627574746F6E223EA6
:1010700053544F50213C2F627574746F6E3E3C2F59
:10108000613E3C2F703E003C6120687265663D22E7
:101090002F32312F6F6E223E3C627574746F6E205A
:1010A000636C6173733D22627574746F6E20627538
:1010B00074746F6E223E5720646F6C3C2F6275749F
:1010C000746F6E3E3C2F613E003C703E3C61206878
:1010D0007265663D222F32302F6F6E223E3C627564
:1010E00074746F6E20636C6173733D2262757474E7
:1010F0006F6E20627574746F6E223E526F6C6574F1
:10110000792073616C6F6E206F64206F67726F64FB
:101110007520283429207720676F72653C2F62750F
:1011200074746F6E3E3C2F613E003C6120687265B6
:10113000663D222F34362F6F6E223E3C62757474EA
:101140006F6E20636C6173733D22627574746F6E91
:1011500020627574746F6E223E53544F50213C2FA1
:10116000627574746F6E3E3C2F613E3C2F703E0082
:101170003C6120687265663D222F34352F6F6E22E8
:101180003E3C627574746F6E20636C6173733D22B4
:10119000627574746F6E20627574746F6E223E5740
:1011A00020646F6C3C2F627574746F6E3E3C2F61CF
:1011B0003E003C703E3C6120687265663D222F34E3
:1011C000342F6F6E223E3C627574746F6E20636CB8
:1011D0006173733D22627574746F6E2062757474EE
:1011E0006F6E223E526F6C6574792073616C6F6E06
:1011F000206F64207461726173752028352920770F
:1012000020676F72653C2F627574746F6E3E3C2F61
:10121000613E003C6120687265663D222F33342FA9
:101220006F6E223E3C627574746F6E20636C6173E6
:10123000733D22627574746F6E20627574746F6E84
:10124000223E53544F50213C2F627574746F6E3E92
:101250003C2F613E3C2F703E003C61206872656609
:101260003D222F33332F6F6E223E3C627574746FB4
:101270006E20636C6173733D22627574746F6E20AF
:10128000627574746F6E223E5720646F6C3C2F62DF
:101290007574746F6E3E3C2F613E003C703E3C6145
:1012A00020687265663D222F33322F6F6E223E3CDE
:1012B000627574746F6E20636C6173733D22627526
:1012C00074746F6E20627574746F6E223E526F6C10
:1012D0006574792073616C6F6E2074617261732024
:1012E00077656A7363696F776520283629207720D0
:1012F000676F72653C2F627574746F6E3E3C2F6130
:101300003E003C6120687265663D222F35382F6FA4
:101310006E223E3C627574746F6E20636C617373F1
:101320003D22627574746F6E20627574746F6E22E4
:101330003E53544F50213C2F627574746F6E3E3C87
:101340002F613E3C2F703E003C6120687265663D17
:10135000222F35372F6F6E223E3C627574746F6E8C
:1013600020636C6173733D22627574746F6E2062CA
:101370007574746F6E223E5720646F6C3C2F6275DB
:1013800074746F6E3E3C2F613E003C703E3C6120A9
:10139000687265663D222F35362F6F6E223E3C62A5
:1013A0007574746F6E20636C6173733D2262757423
:1013B000746F6E20627574746F6E223E526F6C652E
:1013C00074792073616C6F6E207461726173207325
:1013D0006C65706520283729207720676F72653C1F
:1013E0002F627574746F6E3E3C2F613E003C61202D
:1013F000687265663D222F31392F6F6E223E3C6246
:101400007574746F6E20636C6173733D22627574C2
:10141000746F6E20627574746F6E223E53544F5019
:10142000213C2F627574746F6E3E3C2F613E3C2FE1
:10143000703E003C6120687265663D222F31382F76
:101440006F6E223E3C627574746F6E20636C6173C4
:10145000733D22627574746F6E20627574746F6E62
:10146000223E5720646F6C3C2F627574746F6E3E21
:101470003C2F613E003C703E3C6120687265663DD9
:10148000222F31372F6F6E223E3C627574746F6E5F
:1014900020636C6173733D22627574746F6E206299
:1014A0007574746F6E223E526F6C6574792077206C
:1014B00073797069616C6E692028382920772067FC
:1014C0006F72653C2F627574746F6E3E3C2F613E87
:1014D000003C6120687265663D222F34332F6F6EA9
:1014E000223E3C627574746F6E20636C6173733D51
:1014F00022627574746F6E20627574746F6E223E12
:1015000053544F50213C2F627574746F6E3E3C2FC4
:10151000613E3C2F703E003C6120687265663D2252
:101520002F34322F6F6E223E3C627574746F6E20C2
:10153000636C6173733D22627574746F6E206275A3
:1015400074746F6E223E5720646F6C3C2F6275740A
:10155000746F6E3E3C2F613E003C703E3C612068E3
:101560007265663D222F34312F6F6E223E3C6275CC
:1015700074746F6E20636C6173733D226275747452
:101580006F6E20627574746F6E223E526F6C65745C
:101590007920707261636F776E69612062616C6B34
:1015A0006F6E20283929207720676F72653C2F6283
:1015B0007574746F6E3E3C2F613E003C6120687212
:1015C00065663D222F33312F6F6E223E3C6275746B
:1015D000746F6E20636C6173733D22627574746FF7
:1015E0006E20627574746F6E223E53544F50213CCE
:1015F0002F627574746F6E3E3C2F613E3C2F703EBF
:10160000003C6120687265663D222F33302F6F6E7B
:10161000223E3C627574746F6E20636C6173733D1F
:1016200022627574746F6E20627574746F6E223EE0
:101630005720646F6C3C2F627574746F6E3E3C2F44
:10164000613E003C703E3C6120687265663D222F21
:1016500032392F6F6E223E3C627574746F6E206358
:101660006C6173733D22627574746F6E2062757461
:10167000746F6E223E526F6C657479207072616374
:101680006F776E6961206D616C652028313029208B
:101690007720676F72653C2F627574746F6E3E3C85
:1016A0002F613E003C6120687265663D222F353512
:1016B0002F6F6E223E3C627574746F6E20636C6196
:1016C00073733D22627574746F6E20627574746FEB
:1016D0006E223E53544F50213C2F627574746F6ECE
:1016E0003E3C2F613E3C2F703E003C61206872659D
:1016F000663D222F35342F6F6E223E3C6275747426
:101700006F6E20636C6173733D22627574746F6ECB
:1017100020627574746F6E223E5720646F6C3C2F8C
:10172000627574746F6E3E3C2F613E003C703E3CAF
:101730006120687265663D222F35332F6F6E223E21
:101740003C627574746F6E20636C6173733D2262CA
:101750007574746F6E20627574746F6E223E526F72
:101760006C657479206C617A69656E6B6120706953
:101770006574726F2028313129207720676F726578
:101780003C2F627574746F6E3E3C2F613E003C616D
:1017900020687265663D222F32352F6F6E223E3CE7
:1017A000627574746F6E20636C6173733D22627531
:1017B00074746F6E20627574746F6E223E53544F52
:1017C00050213C2F627574746F6E3E3C2F613E3C1D
:1017D0002F703E003C6120687265663D222F3234D6
:1017E0002F6F6E223E3C627574746F6E20636C6165
:1017F00073733D22627574746F6E20627574746FBA
:101800006E223E5720646F6C3C2F627574746F6E4D
:101810003E3C2F613E003C703E3C61206872656634
:101820003D222F32332F6F6E223E3C627574746FEF
:101830006E20636C6173733D22627574746F6E20E9
:10184000627574746F6E223E526F6C657479204AB3
:1018500061676F64612028313229207720676F72B9
:10186000653C2F627574746F6E3E3C2F613E003C88
:101870006120687265663D222F34392F6F6E223EDB
:101880003C627574746F6E20636C6173733D226289
:101890007574746F6E20627574746F6E223E53544B
:1018A0004F50213C2F627574746F6E3E3C2F613E29
:1018B0003C2F703E003C6120687265663D222F34EB
:1018C000382F6F6E223E3C627574746F6E20636CAD
:1018D0006173733D22627574746F6E2062757474E7
:1018E0006F6E223E5720646F6C3C2F627574746F6C
:1018F0006E3E3C2F613E003C703E3C61206872654C
:10190000663D222F34372F6F6E223E3C6275747411
:101910006F6E20636C6173733D22627574746F6EB9
:1019200020627574746F6E223E526F6C65747920FC
:101930004D696B6F6C616A202831332920772067ED
:101940006F72653C2F627574746F6E3E3C2F613E02
:10195000003C48333E526F6C6574793C2F48333EEF
:10196000003C6120687265663D222F36382F6F6E0D
:10197000223E3C627574746F6E20636C6173733DBC
:1019800022627574746F6E20627574746F6E223E7D
:101990004C6F67693C2F627574746F6E3E3C2F61AB
:1019A0003E3C2F703E003C6120687265663D222FF0
:1019B00036322F6F6E223E3C627574746F6E2063F8
:1019C0006C6173733D22627574746F6E20627574FE
:1019D000746F6E223E4F64637A7974207061726115
:1019E0006D6574726F773C2F627574746F6E3E3CD8
:1019F0002F613E003C6120687265663D222F3637BC
:101A00002F6F6E223E3C627574746F6E20636C6142
:101A100073733D22627574746F6E20627574746F97
:101A20006E223E4F67727A6577616E69653C2F6200
:101A30007574746F6E3E3C2F613E003C612068728D
:101A400065663D222F36362F6F6E223E3C627574DE
:101A5000746F6E20636C6173733D22627574746F72
:101A60006E20627574746F6E223E506F646C657781
:101A7000616E69653C2F627574746F6E3E3C2F61B8
:101A80003E003C6120687265663D222F36392F6F1B
:101A90006E223E3C627574746F6E20636C6173736A
:101AA0003D22627574746F6E20627574746F6E225D
:101AB0003E4F73776965746C656E6965206F6772F8
:101AC0006F64753C2F627574746F6E3E3C2F613E7F
:101AD000003C6120687265663D222F36352F6F6E9F
:101AE000223E3C627574746F6E20636C6173733D4B
:101AF00022627574746F6E20627574746F6E223E0C
:101B000054696D65727920726F6C65743C2F6275D3
:101B100074746F6E3E3C2F613E003C703E3C612011
:101B2000687265663D222F36342F6F6E223E3C620E
:101B30007574746F6E20636C6173733D226275748B
:101B4000746F6E20627574746F6E223E526F6C6596
:101B500074793C2F627574746F6E3E3C2F613E0049
:101B600020433C2F423E3C2F48353E003C68353EEA
:101B700054656D7065726174757261207A65776EF7
:101B80006574727A6E613A203C423E00203C2F68B8
:101B9000353E003A003A0020557074696D653A2070
:101BA0000020676F647A696E613A200020003C680B
:101BB000353E20447A6973206A6573743A20003C8C
:101BC000626F64793E3C48313E486F6D6520436FDB
:101BD0006E74726F6C204F7A61726F772056302E60
:101BE0003037423C2F48313E002E627574746F6E60
:101BF00032207B6261636B67726F756E642D636FF9
:101C00006C6F723A20233737383738413B7D746127
:101C1000626C652C2074682C207464207B20206208
:101C20006F726465723A2031707820736F6C6964EA
:101C300020626C61636B3B6D617267696E2D6C65D0
:101C400066743A6175746F3B6D617267696E2D726F
:101C5000696768743A6175746F3B7D3C2F73747962
:101C60006C653E3C2F686561643E00746578742D38
:101C70006465636F726174696F6E3A206E6F6E6532
:101C80003B20666F6E742D73697A653A203330702D
:101C9000783B206D617267696E3A203270783B2024
:101CA000637572736F723A20706F696E7465723B00
:101CB0007D002E627574746F6E207B206261636B91
:101CC00067726F756E642D636F6C6F723A2023318B
:101CD00039354236413B20626F726465723A206E3C
:101CE0006F6E653B20636F6C6F723A207768697422
:101CF000653B2070616464696E673A2031367078A4
:101D000020343070783B003C7374796C653E6874A5
:101D10006D6C207B20666F6E742D66616D696C79C9
:101D20003A2048656C7665746963613B2064697329
:101D3000706C61793A20696E6C696E652D626C6FAA
:101D4000636B3B206D617267696E3A20307078205A
:101D50006175746F3B20746578742D616C69676E72
:101D60003A2063656E7465723B7D003C6C696E6BF6
:101D70002072656C3D2269636F6E22206872656611
:101D80003D22646174613A2C223E003C68656164C6
:101D90003E3C6D657461206E616D653D22766965BE
:101DA00077706F72742220636F6E74656E743D225B
:101DB00077696474683D6465766963652D776964E5
:101DC00074682C20696E697469616C2D7363616C31
:101DD000653D31223E003C21444F4354595045203B
:101DE00068746D6C3E3C68746D6C3E007C3C3E5E7D
:101DF0002B3D3F2F5B5D3B2C2A225C000000210025
:101E0000240027002A002D003000330001010000CB
:101E1000040107010A0100002200250028002B0010
:101E20002E003100340002010000050108010B0101
:101E300000000A0B02090C0D0E0807030401000044
:101E40000000000000000000000000000000000092
:101E5000000000000000000000000000121110004F
:101E60000000000000000000000000000000000072
:101E7000000000000000005EBCE2613FDD83C29C08
:101E80007E20A3FD1F419DC3217FFCA2401E5F0158
:101E9000E3BD3E6082DC237D9FC1421CFEA0E1BF0A
:101EA0005D0380DE3C62BEE0025CDF81633D7C223C
:101EB000C09E1D43A1FF4618FAA427799BC584DA6A
:101EC0003866E5BB5907DB856739BAE40658194718
:101ED000A5FB7826C49A653BD987045AB8E6A7F9CA
:101EE0001B45C6987A24F8A6441A99C7257B3A64FC
:101EF00086D85B05E7B98CD2306EEDB3510F4E102A
:101F0000F2AC2F7193CD114FADF3702ECC92D38DD7
:101F10006F31B2EC0E50AFF1134DCE90722C6D3389
:101F2000D18F0C52B0EE326C8ED0530DEFB1F0AEBB
:101F30004C1291CF2D73CA947628ABF517490856E9
:101F4000B4EA6937D58B5709EBB536688AD495CB97
:101F50002977F4AA4816E9B7550B88D6346A2B7549
:101F600097C94A14F6A8742AC896154BA9F7B6E87B
:101F70000A54D7896B350000200023002600290071
:101F80002C002F00320000010000030106010901AE
:101F900005050505070508080808020202020A0AE5
:101FA0000808040404040101010101010101030303
:101FB000030303030303040707070C0C0C0C0C0CAE
:101FC0000C0C0202020206060606060606060B0BAB
:101FD0000B0B0B0B0B0B01021020200808102040EC
:101FE00010204080020102010804020101020408DD
:101FF000102040808040201008040201800402016B
:1020000080402010080402010804020101020408B3
:102010001020408001020408102040806A60F962AC
:1020200011241FBECFEFD1E2DEBFCDBF00E00CBF59
:1020300013E1A0E0B2E0E8E8F8ED00E00BBF02C079
:1020400007900D92AE3AB107D9F729E1AEEAB3E1B4
:1020500001C01D92AD38B207E1F710E1CFE0D0E149
:1020600000E006C021970109802FFE010E94B2699D
:10207000CE30D10780E00807A9F70E9482620C9455
:10208000336C0C9400002091320290913102923016
:10209000C1F430E02053384FC90183709927892B50
:1020A00039F4C90164E670E00E949F69892B89F4C4
:1020B000C90160E971E00E949F69892B51F08CE1B0
:1020C0000895983020F4917031F48EE10895909540
:1020D000FACF8DE108958FE108958F929F92AF928C
:1020E000BF92CF92DF92EF92FF92CF93DF93209136
:1020F0002E026B017C01C20ED11CE11CF11CC70138
:10210000B6012CE330E040E050E00E940E67490148
:102110005A019601C601D7FE04C0882799278C1959
:102120009D096CE370E00E949F6937FD78C021E053
:10213000022E000C330BDC010E94BA69645C7F4FF5
:102140008F4F9F4F2CE330E040E050E00E940E673D
:1021500060932E0280912F02880E911CA11CB11C4D
:10216000C501B40128E130E040E050E00E940E6774
:1021700069017A019401C40197FE04C08827992758
:102180008819990968E170E00E949F6937FD49C08C
:1021900021E0022E000C330BDC010E94BA69685E5C
:1021A0007F4F8F4F9F4F28E130E040E050E00E948A
:1021B0000E6760932F0280913002C80ED11CE11C83
:1021C000F11C61DF90E0B0E0A0E0C09230028C151D
:1021D0009D05AE05BF0594F5C1E0D4E6C81AD90A3D
:1021E000EA0AFB0A809131028F5F8D30E0F4809320
:1021F000310249DF90E0B0E0A0E08C159D05AE050E
:10220000BF0564F3C0923002DF91CF91FF90EF9051
:10221000DF90CF90BF90AF909F908F9008952FEF59
:1022200087CF2FEFB6CFC0933102809132028B5906
:102230006D2F0E94866990933202DBCF1C141D041F
:102240001E041F040CF3CCE0D4E6809131028150CF
:1022500089F08093310217DF982F9C0D9093300204
:10226000C80ED11CE11CF11C1C141D041E041F040B
:1022700064F7CACFC0933102809132028D596D2F1D
:102280000E94866990933202E6CFE0913202F0E03C
:102290008091310220913002833088F1E053F84F71
:1022A0003DE0839FC0011124039665E070E00E9429
:1022B0009F69260F372F311D2E0F3F1FBF017595C8
:1022C000679575956795260F371FCF016CE97FEFEE
:1022D0000E949F69260F371FCF0160E971E00E94BD
:1022E0009F69C901860F971F27E030E0B9010E945E
:1022F0009F690196B9010E949F698F5F0895845F6D
:10230000E153F84FCDCFCF93DF93C0913102D091FD
:102310000118CD1740F1809103188C1720F1DC17BC
:1023200010F4C817A0F1B1DF482F809130028F5F01
:10233000841B1816DCF467E00E9492698F5F082EF8
:10234000000C990BCD1314C02091021830E08217B5
:1023500093074CF028173907D4F04230C4F4809129
:102360002F028230A0F4DF91CF91089580E0E7CF73
:102370002091041830E0821793074CF02817390792
:1023800094F3423084F780912F02823060F760919D
:10239000051870E090E080E0DF91CF919ECECF9362
:1023A000DF93FC0182819381909387178093861736
:1023B00084819581A681B78180938817909389172E
:1023C000A0938A17B0938B1780859185A285B385DA
:1023D00080938C1790938D17A0938E17B0938F17BF
:1023E000DF011C96CF014996C0E9D7E12D912993D1
:1023F000A817B907D9F7818D928D90939E17809376
:102400009D1784E897E1DF91CF910895FC01818DBC
:10241000928D08950895AF92BF92CF92DF92EF927E
:10242000FF920F931F93CF93DF936C017B018B017E
:10243000040F151FEB015E01AE18BF08C017D107CE
:1024400059F06991D601ED91FC910190F081E02D58
:10245000C6011995892B79F7C501DF91CF911F919D
:102460000F91FF90EF90DF90CF90BF90AF900895C5
:10247000FC01538D448D252F30E0842F90E0821B8A
:10248000930B541710F0CF96089501970895FC010F
:10249000918D828D981761F0A28DAE0FBF2FB11D67
:1024A0005D968C91928D9F5F9F73928F90E00895BF
:1024B0008FEF9FEF0895FC01918D828D981731F079
:1024C000828DE80FF11D858D90E008958FEF9FEFCD
:1024D0000895FC01918D228D892F90E0805C9F4FA3
:1024E000821B91098F739927089586E696E1F1DFA3
:1024F00021E0892B09F420E0822F0895FC01A48DAE
:10250000A80FB92FB11DA35ABF4F2C91848D90E015
:1025100001968F739927848FA689B7892C93A089F8
:10252000B1898C91837080648C93938D848D981382
:1025300006C00288F389E02D80818F7D8083089515
:10254000EF92FF920F931F93CF93DF93EC0181E003
:10255000888F9B8D8C8D98131AC0E889F9898081AA
:1025600085FF15C09FB7F894EE89FF896083E889DD
:10257000F98980818370806480839FBF81E090E0CF
:10258000DF91CF911F910F91FF90EF900895F62E5C
:102590000B8D10E00F5F1F4F0F731127E02E8C8DF6
:1025A0008E110BC00FB607FCFACFE889F98980813C
:1025B00085FFF5CFCE01A2DFF2CFEB8DEC0FFD2F23
:1025C000F11DE35AFF4FF0829FB7F8940B8FEA8911
:1025D000FB8980818062D0CFCF93DF93EC01888D1F
:1025E0008823B1F0AA89BB89E889F9898C9185FD96
:1025F00003C0808186FD0CC00FB607FCF7CF8C911D
:1026000085FFF2CF808185FFEDCFCE0177DFEACF66
:10261000DF91CF91089580E090E0892B21F065DF74
:1026200081110E94000080E090E0892B49F080E059
:1026300090E0892B29F00E94000081110E94000087
:1026400080E090E0892B49F080E090E0892B29F030
:102650000E94000081110E94000080E090E0892B20
:1026600049F080E090E0892B29F00E940000811160
:102670000C94000008958150823108F05AC0E82F70
:10268000F0E08827E95BFC4E8F4F0C94B26967132A
:102690006B1359135F13631399136E137413781329
:1026A0007E13821386138C139013991394139A1329
:1026B0009E13809180008F77809380000895809191
:1026C00080008F7DF9CF80918000877FF5CF84B522
:1026D0008F7784BD089584B58F7DFBCF8091B00046
:1026E0008F778093B00008958091B0008F7DF9CFEF
:1026F000809190008F778093900008958091900052
:102700008F7DF9CF80919000877FF5CF8091A000D9
:102710008F778093A00008958091A0008F7DF9CFDE
:102720008091A000877FF5CF809120018F778093E3
:1027300020010895809120018F7DF9CF80912001A3
:10274000877FF5CF1F93CF93DF93282F30E0F901D8
:10275000E05DF14E8491F901EA52F04ED491F90115
:10276000E057F04EC491CC23A1F0162F811183DFE6
:10277000EC2FF0E0EE0FFF1FEA5EF14EA591B49151
:102780008FB7F894EC91111108C0D095DE23DC933B
:102790008FBFDF91CF911F910895DE2BF8CF61E0BD
:1027A00082E0D0DF8BEF94E00197F1F760E082E008
:1027B000C9DF8BED9BE00197F1F70895F0DFEFDFC4
:1027C000EEDFEDCF61E082E0BDDF8BE39BE00197C0
:1027D000F1F760E082E0B6DF8BE995E00197F1F771
:1027E0000895F0DFDCDFDBDFDACFD9DFEBDFD7DF27
:1027F000D6CFE8DFE7DFD3DFD2CFD1DFD0DFE2DF34
:10280000CECFE0DFCCDFDEDFCACFC9DFDBDFDADF50
:10281000C6CFD8DFD7DFD6DFC2CFC1DFC0DFBFDF93
:10282000D1CFD0DFBCDFBBDFCDCFB9DFCBDFB7DFB0
:10283000C9CFC8DFC7DFB3DFC5CFB1DFB0DFC2DFCD
:10284000C1CFC0DFACDFBEDFBDCFA9DFBBDFBADFEA
:10285000B9CFB8DFB7DFB6DFB5CFCF93DF9390E066
:10286000FC01EA52F04E24918057904EFC01849175
:102870008823D1F090E0880F991FFC01E450F24EBC
:10288000A591B491FC01EA5EF14EC591D49161111C
:102890000EC09FB7F8948C91E22FE0958E238C9315
:1028A0002881E223E8839FBFDF91CF9108958FB7FE
:1028B000F894EC91E22BEC938FBFF6CF3FB7F894EE
:1028C0008091161490911714A0911814B0911914B6
:1028D00026B5A89B05C02F3F19F00196A11DB11D7B
:1028E0003FBFBA2FA92F982F8827BC01CD01620FB7
:1028F000711D811D911D42E0660F771F881F991F72
:102900004A95D1F708958F929F92AF92BF92CF923E
:10291000DF92EF92FF924B015C01D0DF6B017C01F3
:10292000CDDF6C197D098E099F09683E73408105D2
:102930009105B0F321E0821A9108A108B10888EE50
:10294000C80E83E0D81EE11CF11C81149104A1047F
:10295000B10431F7FF90EF90DF90CF90BF90AF9030
:102960009F908F9008956AE070E080E090E0CBDF68
:1029700061E082E0E7DE8BE59AE40197F1F760E041
:1029800082E0E0DE8BEB97E10197F1F708DF07DFEC
:1029900019DF05DF17DF16DF02DF01DF00DFFFDEF3
:1029A00011DFFDDEFCDEFBDEFADEF9DE0BDF0ADF27
:1029B000F6DEF5DE07DFF3DE05DF04DFF0DE02DF43
:1029C00001DF00CFEF92FF921F93CF93DF93CAE016
:1029D000D0E01FEF180FE12EF12CC5DF1F30B0F44F
:1029E000F7018827E950FB4E8F4F0C94B2691715F9
:1029F00019151B151D151F1521152315251527152F
:102A000029152B152D152F1531153315D7DEC7DEDA
:102A1000C6DEC5DED7DEC3DEC2DEC1DED3DE219771
:102A2000E1F6DF91CF911F91FF90EF900895D9DEED
:102A3000EECFDBDEECCFDDDEEACFDFDEE8CFE1DEBE
:102A4000E6CFE3DEE4CFE5DEE2CFE7DEE0CFE9DEAE
:102A5000DECFEBDEDCCFEDDEDACFEFDED8CFF1DE9E
:102A6000D6CFF3DED4CFF5DED2CFEF92FF921F9315
:102A7000CF93DF93CAE0D0E01FEF180FE12EF12CC7
:102A800072DF1F30B0F4F7018827E65BFA4E8F4FF4
:102A90000C94B2696A156C156E1570157215741563
:102AA000761578157A157C157E1580158215841596
:102AB000861584DE74DE73DE85DE84DE70DE6FDE16
:102AC00081DE80DE2197E1F6DF91CF911F91FF90AB
:102AD000EF90089586DEEECF88DEECCF8ADEEACF77
:102AE0008CDEE8CF8EDEE6CF90DEE4CF92DEE2CF62
:102AF00094DEE0CF96DEDECF98DEDCCF9ADEDACF52
:102B00009CDED8CF9EDED6CFA0DED4CFA2DED2CF41
:102B1000EF92FF921F93CF93DF93CAE0D0E01FEFB5
:102B2000180FE12EF12C1FDF1F30B0F4F7018827BA
:102B3000E356FA4E8F4F0C94B269BD15BF15C115FF
:102B4000C315C515C715C915CB15CD15CF15D1158D
:102B5000D315D515D715D91531DE21DE33DE1FDEAD
:102B600031DE1DDE2FDE1BDE2DDE2197E1F6DF914B
:102B7000CF911F91FF90EF90089533DEEECF35DEB9
:102B8000ECCF37DEEACF39DEE8CF3BDEE6CF3DDE05
:102B9000E4CF3FDEE2CF41DEE0CF43DEDECF45DEF5
:102BA000DCCF47DEDACF49DED8CF4BDED6CF4DDEE5
:102BB000D4CF4FDED2CF2FB7F8946091121470911A
:102BC000131480911414909115142FBF08950F932E
:102BD0001F93CF93DF93C82FD0E0EDDFFE01EE0F00
:102BE000FF1FEE0FFF1FEE5FF64E6083718382833F
:102BF0009383CC0FDD1FCC0FDD1FC657D74E41E0AE
:102C0000088119812A813B81061717072807390790
:102C100008F440E0842FDF91CF911F910F91089528
:102C20008F929F92AF92BF92CF92DF92EF92FF92DC
:102C30000F931F93CF93DF936B017C01C42FD0E0E0
:102C4000BADFFE01EE0FFF1FEE0FFF1FEE5FF64E25
:102C500060837183828393838E01000F111F000FA5
:102C6000111F0657174EF80180809180A280B38013
:102C7000681579058A059B0508F19DDFCC0FDD1FDE
:102C8000CC0FDD1FCE5ED74E688379838A839B830A
:102C9000C60ED71EE81EF91EF801C082D182E2825C
:102CA000F382DF91CF911F910F91FF90EF90DF9012
:102CB000CF90BF90AF909F908F900895D501C401A1
:102CC0008C0D9D1DAE1DBF1D80839183A283B38398
:102CD000E8CFCF93DF93C82FD0E06DDFFE01EE0F7A
:102CE000FF1FEE0FFF1FE657F74E6083718382834D
:102CF000938361DFCC0FDD1FCC0FDD1FCE5ED74E7F
:102D0000688379838A839B83DF91CF9108950F93A2
:102D10001F9351DF00910E1810910F182091101879
:102D200030911118601771078207930798F0D90145
:102D3000C80188519C4FAF4FBF4F80930E1890939E
:102D40000F18A0931018B093111880910D188F5F71
:102D500080930D1880910D188C3338F080910C18E9
:102D60008F5F80930C1810920D1880910C188C3383
:102D700038F080910B188F5F80930B1810920C180D
:102D800080910B18883160F080910A189091091891
:102D90009F5F909309188F5F80930A1810920B1809
:102DA00080910A18883018F081E080930A18809189
:102DB0000818823051F4809109188D3131F483E084
:102DC0008093081881E08093091880910818982F43
:102DD0009D7F943011F0993051F4909109189F31F2
:102DE00030F08F5F8093081881E0809309188091FC
:102DF0000818982F9D7F913051F0853041F099EF60
:102E0000980F923020F08A3011F08C3051F490916C
:102E10000918903230F08F5F8093081881E080931A
:102E20000918809108188D3060F081E080930818AF
:102E30008091061890910718019690930718809337
:102E400006181F910F910895FC01DB0112968D91D8
:102E50009C9113979383828388EB92E09183808384
:102E600014968C911497848315968C91159785836D
:102E700016964D915D916D917C911997468357837C
:102E8000608771871A964D915D916D917C911D9728
:102E900042875387648775871E964D915D916D912A
:102EA0007C91519746875787608B718B52968C9196
:102EB0005297828B53964D915D916D917C9156976F
:102EC000438B548B658B768B57964D915D916D91AD
:102ED0007C915A97478B508F618F728F5B968D9143
:102EE0009C91948F838F0895DC015996ED91FC910C
:102EF0003097B9F083899489A589B689428553852D
:102F000064857585841B950BA60BB70B811520E88E
:102F10009207A105B10538F08FEF9FE7A0E0B0E080
:102F2000089590E080E00895DC0159968D919C9180
:102F3000009739F0DC01ED91FC910480F581E02DE2
:102F4000199490E080E00895CF93DF931F92CDB75E
:102F5000DEB76983DC01ED91FC910280F381E02D05
:102F600041E050E0BE016F5F7F4F19950F90DF91F8
:102F7000CF9108954F925F926F927F928F929F921E
:102F8000AF92BF92CF92DF92EF92FF920F931F9377
:102F9000CF93DF934B015C0180910714909108144B
:102FA000A0910914B0910A1488159905AA05BB05CA
:102FB00009F4C6C08CE3C82ED12CE12CF12CC5013C
:102FC000A70196010E94346760930014CA01B901F9
:102FD000A70196010E94346760930114C501B401F2
:102FE00020E13EE040E050E00E943467CA01B901B0
:102FF00028E130E040E050E00E9434676093021422
:10300000C501B40120E831E541E050E00E94346799
:1030100069017A01CA01B9016C5F7F4F8F4F9F4FE1
:1030200027E030E040E050E00E9434676F5F60933B
:103030000314412C512C320140E004E610E0C0E9B9
:10304000D1E0242F30E02E54384FF901E370FF27F0
:103050003097F9F4C901B8010E949F69892B31F4B6
:10306000C901BE010E949F69892B99F48EE691E007
:10307000A0E0B0E0480E591E6A1E7B1ED301C201BB
:10308000AA27BB27C816D906EA06FB0638F04F5F09
:10309000D8CF8DE691E0A0E0B0E0ECCF40930614ED
:1030A000C90164E670E00E949F69EC01C90160E912
:1030B00071E00E949F69309721F42097D9F400971E
:1030C000C9F04DE651E060E070E0441A550A660A26
:1030D000770AC418D508E608F708A6E9B2E020E0A8
:1030E000213069F43097E9F5209711F40097C9F57C
:1030F0004DE106C04EE651E060E070E0E6CF4C9155
:1031000050E070E060E031E0320FC416D506E6060C
:10311000F70640F0C41AD50AE60AF70A1196232FDB
:103120003C30F1F62F5F20930514C394C092041431
:103130008092071490920814A0920914B0920A1475
:10314000DF91CF911F910F91FF90EF90DF90CF9083
:10315000BF90AF909F908F907F906F905F904F90B7
:1031600008954CE1CDCFDC012C911196ED91FC91AD
:10317000F8948181822B81839281322F3095932321
:10318000928387E090E00197F1F781818323818327
:1031900083E290E00197F1F790817894EFECF0E012
:1031A0003197F1F7922381E009F480E00895FC0162
:1031B00090810180F281E02D292F209560FF14C0BD
:1031C000F8948281822382838181892B8183A3E287
:1031D000B0E01197F1F78281982B9283789487ED74
:1031E00090E00197F1F70895F89482818223828319
:1031F0008181892B8183AFEFB0E01197F1F7828154
:10320000982B928378948FE090E0EBCFDF92EF924F
:10321000FF920F931F93CF93DF93EC01D62EE42EF2
:1032200008E010E0FF24F39461E08D2D8F2109F474
:1032300060E0CE01BCDFFF0C01501109A9F7E110DD
:1032400010C0F894E981FA81918188818095892361
:103250008183E981FA8192818881809589238283A3
:103260007894DF91CF911F910F91FF90EF90DF90B5
:103270000895FC0190810180F281E02DF894818114
:10328000292F20958223818378943DE743E050E005
:10329000315029F1DA011197F1F780818923C1F3C7
:1032A000F8948281822382838181892B818378941F
:1032B000ABE7B7E01197F1F7F8948181822381831E
:1032C000A3E1B1E01197F1F78081982381E009F043
:1032D00080E07894E3E6F6E03197F1F7089580E036
:1032E0000895CF93C091E317C11104C0C0E08C2FA3
:1032F000CF9108958091E0179091E117BADF88236C
:10330000A9F340E06CEC8091E0179091E1177EDF2B
:103310004091E41781E0482764E48091E0179091A0
:10332000E11774DF48DC6093E5177093E61780932C
:10333000E7179093E817DBCFCF92DF92FF920F93BE
:103340001F93CF93DF936C01F62E8091E01790913D
:10335000E1178FDF882319F10091E0171091E11731
:1033600040E065E5C80152DFE60188E0C80ED11CE7
:10337000699140E0C8014ADFCC15DD05C9F740E09E
:103380006F2D8091E0179091E11740DF81E0DF9190
:10339000CF911F910F91FF90DF90CF90089580E023
:1033A000F6CF6F927F928F929F92AF92BF92CF9201
:1033B000DF92EF92FF920F931F93CF93DF93CDB7DE
:1033C000DEB76D970FB6F894DEBF0FBECDBF6EEBC4
:1033D000B3DF882309F480C08090E0179090E11754
:1033E0008E010F5E1F4F7E018AE1E80EF11C68011D
:1033F00038E0632E712CB12CAA24A394C401B3DE4F
:103400008111BA28AA0CA1E06A1A7108B9F7F6016D
:10341000B1926F01EE15FF0559F799E080E09150E8
:1034200049F0D801ED918D01E827F0E0EA58F14E1E
:103430008491F5CF998D98134FC080E1E9E3F2E0D4
:10344000DE01119601900D928A95E1F78091490273
:1034500090914A02A0914B02B0914C028A8F9B8FAF
:10346000AC8FBD8F0091E2170950110BF701E00FEF
:10347000F11F808169897A8902C0759567958A955F
:10348000E2F7072E000C880B990B0E94FB65000FDA
:10349000111F000F111FE1E0F0E0EC0FFD1FE00F26
:1034A000F11F20813181428153810E945A666D96BD
:1034B0000FB6F894DEBF0FBECDBFDF91CF911F9145
:1034C0000F91FF90EF90DF90CF90BF90AF909F90C3
:1034D0008F907F906F90089563E373E988E893EC91
:1034E000E6CFFC0120812EBD9B012150310941F026
:1034F00051810DB407FEFDCF4EB55EBD4193F5CFB2
:1035000061507109860F971F0DB407FEFDCF2EB5D0
:10351000FC0120830895E091FD13F091FE1380815A
:103520009091FC13892B80830895E091FD13F09115
:10353000FE1390818091FC138095892380830895E8
:103540008EBD00000DB407FEFDCF8EB508958FEF40
:10355000F7CF0F931F93CF93DF93EC012CDB8B01FD
:10356000F6DF8F3F61F027DB601B710B6C177D0767
:10357000B8F380E0DF91CF911F910F91089581E022
:10358000F9CFAF92BF92CF92DF92EF92FF920F935B
:103590001F93CF93DF9300D000D01F921F92CDB71F
:1035A000DEB78C017B016A01809162148333B1F430
:1035B0005801A40EB51EA016B10609F463C0B5DF0C
:1035C00080EFBEDF812FBCDF802FBADF0F5F1F4F80
:1035D000F70181917F01B4DF9EDFEDCF5B01A40E87
:1035E000B51E8433A9F4A1DF19830A838D2D806869
:1035F0008B83CC8264E070E0CE01019672DFAE1462
:10360000BF0409F43EC0F70181917F0199DFF7CF34
:103610008CDF0F3F110509F028F419820A8384E03A
:103620008B830CC017FD17C019820A8333E01695EF
:1036300007953A95E1F7007E0C600B8386E0C8168B
:10364000D10490F5F701DE011496EA15FB0599F017
:1036500081918D93FACFC80126E0969587952A959A
:10366000E1F7807E19830A830115104C10F4846100
:10367000D7CF8C61D5CFB6016D5F7F4FCE0101965C
:1036800030DF49DFC60128960FB6F894DEBF0FBEC3
:10369000CDBFDF91CF911F910F91FF90EF90DF9001
:1036A000CF90BF90AF90089563E070E0CE01019697
:1036B00018DFF70181917F0143DFAE14BF04C9F722
:1036C000E0CFCF93DF931F92CDB7DEB7898341E080
:1036D00050E0BE016F5F7F4F90E080E052DF0F90BF
:1036E000DF91CF91089590E020916214233339F453
:1036F0000C96982F990F990F990F80E0089548968E
:10370000F8CFDA01E091FF13F0E0FE2FEE27E60F8D
:10371000F71F90E0982F8827A901BD018E0F9F1FEA
:1037200030CFCF93DF931F921F92CDB7DEB779834F
:103730006A8322E030E0AE014F5F5F4F60E170E0EE
:10374000E0DF0F900F90DF91CF910895CF93DF933B
:103750001F921F92CDB7DEB779836A8322E030E0F3
:10376000AE014F5F5F4F64E070E0CBDF0F900F90D2
:10377000DF91CF910895CF93DF931F92CDB7DEB73E
:103780002091FF1330E0322F2227260F371F90E0C1
:10379000982F8827498341E050E0BE016F5F7F4F3B
:1037A000820F931FEEDE0F90DF91CF910895CF939C
:1037B000DF931F92CDB7DEB76983DC01ED91FC91F9
:1037C0000280F381E02D41E050E0BE016F5F7F4F4A
:1037D00019950F90DF91CF910895CF93DF931F92AA
:1037E000CDB7DEB76983DC01ED91FC910280F381F6
:1037F000E02D41E050E0BE016F5F7F4F19950F90C3
:10380000DF91CF910895FC019485FB018485981385
:1038100003C081E0983008F080E00895CF93DF93F3
:103820001F92CDB7DEB76983DC01ED91FC91028078
:10383000F381E02D41E050E0BE016F5F7F4F1995AD
:103840000F90DF91CF910895FC01768765870895E9
:10385000DC01ED91FC91068CF78DE02D199591E03E
:1038600089270895862F089581E08627089521E00D
:10387000FC018485883008F020E0822F08950895A7
:1038800061E0FC0184810E94A21380910B148111DC
:1038900010920B1408958CBD9DBD0895CF93DF93B6
:1038A000EC0180910B14811108C081E080930B140E
:1038B0008091031790910417EEDF60E08C81DF9117
:1038C000CF910C94A2138F929F92AF92BF92FF92CE
:1038D0000F931F93CF93DF93EC01F62E49015A010A
:1038E0008E81882379F08F8198859C012F5F3F4FCF
:1038F00038872F838230924010F429DEF4CFCE0136
:10390000BFDF1E82CE01CADF8CE291E022DE8F2D66
:10391000806416DE08E110E0D501C401002E04C069
:10392000B695A795979587950A94D2F709DE085022
:103930001109083F8FEF180779F785E9FF2021F07B
:1039400028E087E8F2128FEFFBDD10E000DE8A87C7
:1039500087FF04C01F3F11F01F5FF8CFDF91CF91A9
:103960001F910F91FF90BF90AF909F908F900895FF
:10397000AF92BF92CF92DF92EF92FF920F931F937D
:10398000CF93DF93EC016901C801820F931F81304F
:10399000924048F58E81882379F088819981AA81A7
:1039A000BB8184179507A607B70731F48F819885E7
:1039B000C816D90608F03CC0488359836A837B83C4
:1039C0008B85833039F089E0440F551F661F771FC0
:1039D0008A95D1F79A01AB0161E1CE0174DF8823AA
:1039E00081F083E08D83CE014BDF80E0DF91CF91CA
:1039F0001F910F91FF90EF90DF90CF90BF90AF900D
:103A00000895D9D85B01A3DD8A878F3F59F4D3D8B5
:103A10006A197B096D327140B0F38FE08D83CE015E
:103A20002FDFE1CF8E3F81F418861F8281E08E83E5
:103A30008F8198858C159D0548F489DD8F81988547
:103A4000019698878F83F4CF8DE0E8CF6701E00E71
:103A5000F11E7DDDF60181936F01EE15FF05C9F7BB
:103A60008F819885080F191F18870F8389858823F0
:103A700019F00115124090F08E81882379F08F8122
:103A800098859C012F5F3F4F38872F83823092406B
:103A900010F45DDDF4CFCE01F3DE1E8281E0A6CF0F
:103AA000CF92DF92EF92FF920F93CF93DF93EC01CF
:103AB000690182E1411551056105710591F08B8520
:103AC000833039F089E0440F551F661F771F8A95B0
:103AD000D1F79A01AB0168E1CE01F5DE882319F038
:103AE00084E08D8326C08EEF2BDD76018EEFD81A11
:103AF000F70181917F0124DDEC14FD04C9F78FEFFC
:103B00001FDD8FEF1DDD23DD8A878F71853069F41E
:103B1000011113C0CE01B4DE81E0DF91CF910F918E
:103B2000FF90EF90DF90CF90089581E18D83CE01DB
:103B3000A7DECE01A5DE80E0F0CF88E592E009DDCA
:103B4000811102C085E1CDCF20E030E0A9016DE018
:103B5000CE01B9DE882311F084E1C3CFF8DC8111F6
:103B6000FBCFD8CF0F9340910D1450910E1460915C
:103B70000F1470911014411551056105710591F0F4
:103B8000082F23E634E1809163169091641688DF54
:103B9000882349F010920D1410920E1410920F14F5
:103BA0001092101481E00F9108950F93CF93C82FB6
:103BB00080910C14811105C0C1E08C2FCF910F9121
:103BC0000895409121025091220260912302709148
:103BD00024020C2F23E634E1809163169091641641
:103BE0005FDF811102C0C0E0E8CFCC2329F381E080
:103BF000B9DF8823C1F310920C14DFCF8F929F920C
:103C0000AF92BF92EF92FF920F931F93CF934B010E
:103C10005C01C42F8091210290912202A091230285
:103C2000B091240288159905AA05BB0541F181E0F0
:103C3000BCDF81110BC080E0CF911F910F91FF90ED
:103C4000EF90BF90AF909F908F90089583E6E82EFD
:103C500084E1F82E00E012E030E020E0B501A4019C
:103C6000809163169091641683DE882321F38092FD
:103C7000210290922202A0922302B092240240914B
:103C80000C144C2B40930C1481E0D6CF8F929F9252
:103C9000AF92BF92CF92DF92EF92FF92CF9325E047
:103CA00037E13093641620936316882309F46BC0C0
:103CB00040E060E070E0CB01A1DF81110BC080E04B
:103CC000CF91FF90EF90DF90CF90BF90AF909F90FB
:103CD0008F900895809121168F7789F780912D1606
:103CE00090912E16A0912F16B09130168436910522
:103CF000A105B10520F3C0902916D0902A16E090B6
:103D00002B16F0902C16C114D104E104F104B9F281
:103D100040E0C701B60172DF882389F280916E14FA
:103D200090916F148115924051F6A0917314AA23BB
:103D300031F260917114709172146115710509F47A
:103D4000BECF20917014222309F4B9CFA09323177A
:103D50002093151790E080E030E0E1E0F0E0C82F1C
:103D6000AF01082E02C0440F551F0A94E2F7241732
:103D7000350769F041E0480F01968930910579F7E0
:103D800040931E179CCFC12CD12C7601C1CF8093BC
:103D90001E172091791430917A1450E040E02115DB
:103DA000310541F420918714309188144091891491
:103DB00050918A14209316173093171740931817B1
:103DC0005093191746015701860E971EA11CB11C6E
:103DD0008092241790922517A0922617B092271749
:103DE000E0917414F0917514F0932A17E093291759
:103DF000B0E00E942A67DC01CB01880D991DAA1D45
:103E0000BB1D80932B1790932C17A0932D17B09365
:103E10002E1725E0EE0FFF1F2A95E1F7E150FE4F28
:103E2000EF2FFF27E6958E0F9F1FA11DB11D8093D9
:103E30001F1790932017A0932117B09322178090FB
:103E4000761490907714B12CA12C8114910441F434
:103E50008090831490908414A0908514B090861460
:103E6000C81AD90AEA0AFB0AC80CD91CEA1CFB1CAE
:103E700004C0F694E794D794C794CA95D2F7C09239
:103E80001A17D0921B17E0921C17F0921D1785EF9E
:103E9000C8168FE0D806E104F10428F48CE0809382
:103EA000281781E00DCF80E125EFC2162FEFD20653
:103EB000E104F104A0F380918F1490919014A091EB
:103EC0009114B091921480932B1790932C17A09378
:103ED0002D17B0932E1780E2E2CF4F925F926F9230
:103EE0007F928F929F92AF92BF92CF92DF92EF928A
:103EF000FF920F931F93CF93DF93EC014230510554
:103F00006105710590F480E0DF91CF911F910F91D1
:103F1000FF90EF90DF90CF90BF90AF909F908F90E9
:103F20007F906F905F904F90089589859A85AB85BB
:103F3000BC850196A11DB11D84179507A607B7077B
:103F400010F3CB88DC88ED88FE888F89803109F0FA
:103F500042C0BB27A72F962F852F480159012A0160
:103F60003B01C80ED91EEA1EFB1E809121029091D2
:103F70002202A0912302B0912402C816D906EA06B3
:103F8000FB0699F58F898031B9F5B301A201552758
:103F900066277727440F551F4D595B4EFA019182D2
:103FA000808280910C14816080930C148A89823005
:103FB00080F08D819E81AF81B8858C0D9D1DAE1DD9
:103FC000BF1D80930D1490930E14A0930F14B09303
:103FD000101481E099CFDB01CA01E7E0B695A795FF
:103FE00097958795EA95D1F7B8CF40E0C701B6011C
:103FF00005DE8111C7CF87CFB301A2014F775527C7
:1040000066277727440F551F440F551F4D595B4EA8
:10401000FA0180829182A282B382C3CF8F929F9253
:10402000AF92BF92CF92DF92EF92FF920F931F93C6
:10403000CF93DF93FC0181859285A385B48501969A
:10404000A11DB11D84179507A607B70770F480E07E
:10405000DF91CF911F910F91FF90EF90DF90CF9064
:10406000BF90AF909F908F90089583889488A58883
:10407000B6888789803189F5BB27A72F962F852F92
:10408000E9016A017B018F01BC01CD01680D791D39
:104090008A1D9B1D8090210290902202A0902302F5
:1040A000B090240286169706A806B90601F5F80115
:1040B0008789803109F5DD24EE24FF24F601EE0F17
:1040C000FF1FED59FB4E80819181B0E0A0E0888315
:1040D0009983AA83BB8381E0BBCFDB01CA01C7E020
:1040E000B695A79597958795CA95D1F7C9CF40E022
:1040F00085DD8111DCCFABCFE894C7F8DD24EE2459
:10410000FF24F601EE0FFF1FEE0FFF1FED59FB4ED0
:1041100080819181A281B381BF70D9CF4F925F928C
:104120006F927F92AF92BF92CF92DF92EF92FF9207
:104130000F931F93CF93DF9300D01F92CDB7DEB7BD
:104140008C0149835A836B837C835901C12CD12C08
:104150007601412C82E0582E612C712C49815A81C4
:104160006B817C819E012F5F3F4FC80157DF882301
:1041700039F1F8018585A301920104C0220F331F94
:10418000441F551F8A95D2F7DA01C901C80ED91EFE
:10419000EA1EFB1E49815A816B817C8187898031AF
:1041A00011F188EF9FEFAFEFBFE0481759076A079B
:1041B0007B07A0F2F501C082D182E282F38281E026
:1041C0000F900F900F900F90DF91CF911F910F9153
:1041D000FF90EF90DF90CF90BF90AF907F906F9067
:1041E0005F904F90089588EF9FEFA0E0B0E0DDCFA3
:1041F000CF93DF93FC012581222321F080E0DF9122
:10420000CF910895EC0180912817803159F582E013
:104210008583178A108E118E128E809129179091A6
:104220002A17B0E0A0E025E0880F991FAA1FBB1F46
:104230002A95D1F7838B948BA58BB68B81E197E17F
:104240009C8F8B8F81E08C831E821F82188619863B
:104250001A861B861C861D861E861F86188A198A4A
:104260001A8ACDCF803251F683E0858340912B1797
:1042700050912C1760912D1770912E17478B508FEE
:10428000618F728F9F012D5E3F4F81E197E146DF85
:104290008111D4CFB3CF8F929F92AF92BF92CF9222
:1042A000DF92EF92FF920F931F93CF93DF93EC0176
:1042B0008D8181110EC080E0DF91CF911F910F9110
:1042C000FF90EF90DF90CF90BF90AF909F908F9036
:1042D00008950B891C892D893E8904171507260727
:1042E000370748F34A015B01823031F48A869B86A6
:1042F000AC86BD8681E0E0CF81149104A104B104B5
:1043000049F41E821F82188619861A861B861C860F
:104310001D86F0CF0A851B852C853D85EB8DFC8D98
:10432000858590E00996B901A801415051096109BC
:104330007109082E04C076956795579547950A949C
:10434000D2F775016401E1E0CE1AD108E108F10865
:1043500004C0F694E794D794C7948A95D2F7C4160C
:10436000D506E606F70620F0012B022B032B09F5F4
:104370008F89988DA98DBA8D8E839F83A887B987E1
:104380008E010A5F1F4FC114D104E104F10409F446
:10439000ADCF4E815F816885798598018B8D9C8D2D
:1043A0003DDE91E0C91AD108E108F1088111EBCF97
:1043B00082CFC41AD50AE60AF70AE2CF20919D17E8
:1043C00030919E172115310539F0AB01BC01C901AF
:1043D00062DF91E0811101C090E0892F08953F9242
:1043E0004F925F926F927F928F929F92AF92BF9205
:1043F000CF92DF92EF92FF920F931F93CF93DF93B1
:10440000CDB7DEB72C970FB6F894DEBF0FBECDBF89
:104410005C01DC015B968D909C905C9716964D90AC
:104420005D906D907C901997411451046104710462
:1044300009F467C0BFEF4B1A5B0A6B0A7B0A312C89
:10444000F40181859285A385B4859C01AD012F5F20
:104450003F4F4F4F5F4F29873A874B875C877301E8
:1044600062011D821E821F821886F4018185928559
:10447000A385B4852D813E814F8158852817390742
:104480004A075B0708F054C089859A85AB85BC85CF
:104490008C159D05AE05BF0550F482E0C82ED12CC9
:1044A000E12CF12C92E0492E512C612C712C9E01B3
:1044B0002F5F3F4FB701A601C401B0DD8823C1F1D2
:1044C00089819A81AB81BC81892B8A2B8B2B09F145
:1044D000260137019FEF491A590A690A790A2D8185
:1044E0003E814F8158852F5F3F4F4F4F5F4F2D8348
:1044F0003E834F8358873FEFC31AD30AE30AF30A78
:10450000B4CFF401408051806280738033243394AF
:1045100097CFC414D504E604F70409F70FEF1FEF93
:104520002FEF3FE0B701A601C401D7DC811119C00C
:1045300080E02C960FB6F894DEBF0FBECDBFDF91A2
:10454000CF911F910F91FF90EF90DF90CF90BF9090
:10455000AF909F908F907F906F905F904F903F9023
:104560000895D50116964D915D916D917C911997A5
:10457000411551056105710531F097018601C401AE
:10458000ACDC8823A9F2D5011696CD92DD92ED928E
:10459000FC921997332051F0D701C6010196A11D55
:1045A000B11DF40180839183A283B383F5018789D0
:1045B000908DA18DB28D892B8A2B8B2B39F4848120
:1045C000C78AD08EE18EF28E80688483F501848163
:1045D0008062848381E0ADCF2F923F924F925F92B1
:1045E0006F927F928F929F92AF92BF92CF92DF9203
:1045F000EF92FF920F931F93CF93DF9300D0CDB72D
:10460000DEB7FC018581811118C08FEF9FEF0F90FD
:104610000F900F90DF91CF911F910F91FF90EF902E
:10462000DF90CF90BF90AF909F908F907F906F90D2
:104630005F904F903F902F900895848180FFE5CF49
:10464000438954896589768982859385A485B58552
:10465000312C212C481759076A077B0719F02224AF
:104660002394312C6F012101CE0101963C01DF0121
:104670001696BB83AA834114510409F4C2C0F60103
:1046800042855385648575854A01F1E09F22D601F4
:104690005B968D919C915C978A019B01E9E0369530
:1046A000279517950795EA95D1F71596EC91E23085
:1046B000E1F5FC01628D738D848D958D600F711F06
:1046C000821F931FA12C22E0B22EA818B9084A1409
:1046D0005B0408F45201F601248126FD04C0A114F4
:1046E000F2E0BF0671F400912102109122022091A4
:1046F000230230912402061717072807390709F00B
:104700005CC040E07BDA882309F47FCFC4018D5977
:104710009B4ED3019C012A0D3B1DFC012E173F0728
:1047200009F46AC041914D93F9CFDC011496BC9015
:10473000BA94B0228114910479F4B1100DC0452BC4
:10474000462B472B69F5F6018789908DA18DB28D97
:1047500086839783A087B187D6015B96ED91FC9104
:104760005C9716966D917D918D919C9119976250F1
:10477000710981099109258504C0660F771F881F7B
:10478000991F2A95D2F70685178520893189600FF0
:10479000711F821F931F6B0D711D811D911D92CF83
:1047A000D60116964D915D916D917C9119972A8154
:1047B0003B8134DC8111D0CF28CF73018501940176
:1047C000AB01BC018091631690916416D1D8882307
:1047D00009F41BCF6A0C7B1CF60182859385A485A6
:1047E000B5858A0D9B1DA11DB11D82879387A48766
:1047F000B5874A185B083FCF281B390B620E731E22
:10480000EBCF2A94232809F000CF898190E0FFCED6
:10481000FC01818D928D009709F0DECE8FEF9FEF26
:1048200008950F931F93CF93DF93EC01898D9A8D99
:1048300010E000E0009789F0CFDE8C010F3F1007F9
:1048400061F0898D9A8DFC0142855385648575855B
:1048500041505109610971091EDDC801DF91CF91F5
:104860001F910F9108951F93CF93DF93FC01258132
:104870002223C1F1162FEC01848187FF29C06685B0
:1048800077858089918941E0B9D9882359F1EA89EE
:1048900080E2E89FF0011124ED59FB4E309711F1B1
:1048A0008D81823040F48B899C89AD89BE89848F4B
:1048B000958FA68FB78F8F89988D938F828F8F89D1
:1048C000988DA98DBA8DB58BA48B8C818F778C83B5
:1048D000111103C08C818F7E8C83812FDF91CF914A
:1048E0001F9163C980E0DF91CF911F910895FF92DE
:1048F0000F931F93CF93DF93EC018D81813041F0B3
:1049000090E080E0DF91CF911F910F91FF9008958B
:104910008C8181FFF5CF82FD1AC000916316109142
:104920006416C8010E944E1C0E94A71AF82EC801E6
:104930000E94401C8FEFF812E3CF8C8185FF19C0D5
:1049400060E0CE0190DF8C818F7D8C83D9CF4B8945
:104950005C896D897E898A859B85AC85BD85841738
:104960009507A607B707C9F2CE0195DC8111D5CF0F
:10497000C7CF40910D1450910E1460910F14709197
:104980001014452B462B472B19F080E0EBD8B8CFFD
:1049900080618C832A853B85317080E092E0821BA8
:1049A000930BB0CFCF93DF93EC0161E05CDF882302
:1049B00011F01D8281E0DF91CF910895FC01818D7E
:1049C000928D009711F061E04ECF08952F923F92A3
:1049D0004F925F926F927F928F929F92AF92BF920F
:1049E000CF92DF92EF92FF920F931F93CF93DF93BB
:1049F00000D01F921F92CDB7DEB77C015B01342E31
:104A00005D83DC0115968C911597813009F0CCC03F
:104A100014962C9021FEC8C022FCB3C0C32CDD80AC
:104A200022947FE027222094B22DB1702B2ED70143
:104A30001A964D915D916D917C911D97C114D10491
:104A400009F425C15B968D919C915C97FC01748063
:104A50007A948A019B0169E0369527951795079509
:104A60006A95D1F770228A01117071101FC001156B
:104A70001105E1F416964D915D916D917C91199718
:104A8000411551056105710509F097C057968D9143
:104A90009D910D90BC91A02D0097A105B10509F045
:104AA000ADC0C7019CDC882309F47EC080E092E0A1
:104AB000801B910B46018C159D0508F44C01D70114
:104AC0005B964D915C915C9716968D919D910D90A2
:104AD000BC91A02D0297A109B109FA01258504C056
:104AE000880F991FAA1FBB1F2A95D2F746855785A5
:104AF00060897189840F951FA61FB71F9C01AD01A6
:104B0000270D311D411D511D29013A01811432E04B
:104B1000930609F079C08091210290912202A09120
:104B20002302B091240284159505A605B70559F412
:104B30008FEF9FEFDC018093210290932202A093DC
:104B40002302B0932402022D9501B301A2018091AA
:104B50006316909164160E94501D882329F19EEFE0
:104B6000B91AC818D908F70182859385A485B58537
:104B7000880D991DA11DB11D82879387A487B587D4
:104B800056CFF70143895489658976898285938553
:104B9000A485B585481759076A077B0709F43ECFF6
:104BA000C70179DB81113ACF81E090E0D7011396FC
:104BB0009C938E93129780E006C09E012F5F3F4F1B
:104BC0002DDA811102C090E079C089819A81AB8190
:104BD000BC81F701238D348DF901278948EF5FEF00
:104BE00060E070E0203121F048EF5FEF6FEF7FE091
:104BF00084179507A607B70708F053CFF7018683F8
:104C00009783A087B18752CF0115110599F5D70178
:104C10001A964D915D916D917C911D9753968D9152
:104C20009D910D90BC91A02D481759076A077B07ED
:104C300008F181E00E94D51D882309F4B5CF409288
:104C400021025092220260922302709224028091EB
:104C50000C14816080930C14C8018D599B4ED501B2
:104C60009C01280D391DFC012E173F0759F04D916D
:104C70004193FACF41E0C301B2010E94FE1D8111B0
:104C8000EBCF92CF281B390BA20EB31E6ACFF701D0
:104C900083899489A589B68984179507A607B707DC
:104CA00038F48481438B548B658B768B8068848346
:104CB000F701848183FD1AC0832D9D810F900F9091
:104CC0000F900F900F90DF91CF911F910F91FF9058
:104CD000EF90DF90CF90BF90AF909F908F907F909C
:104CE0006F905F904F903F902F90089561E0C701C3
:104CF000BADD882309F458CFDFCFCF93DF931F921B
:104D0000CDB7DEB7698341E050E0BE016F5F7F4FF2
:104D10005DDE0F90DF91CF910895CF93DF93EC018B
:104D2000E98DFA8D309749F481E090E09B838A8386
:104D300090E080E0DF91CF91089513821282898DF7
:104D40009A8D44DEE98DFA8D22813381232B61F720
:104D5000F1CFFF920F931F93CF93DF93EB01FC01F1
:104D6000178A168A2A81211109C02B81211106C0B8
:104D70002C81211103C02D81222301F14115510500
:104D8000E9F08A01FC01F08C80E591E00E944B1C67
:104D9000AE014E5F5F4F24E030E06CE070E08F2D9D
:104DA0000E94811BB8018F2D0E94911B81E090E031
:104DB000DF91CF911F910F91FF90089580E0F7CF81
:104DC000CF93CFB7F8948091FB13811127C0E5EC06
:104DD000FFE18491EBE0F0E29491E82FF0E0EE0F38
:104DE000FF1FE450F24EA591B491EC91E92321F418
:104DF00061E085E30E94A21361E085E30E942D1427
:104E00008CB580618CBD8CB580648CBD61E084E321
:104E10000E942D1461E083E30E942D148091FB1306
:104E20008F5F8093FB13CFBFCF910895FC018485E2
:104E300095850895FC0184899589089520E033E0E3
:104E4000FC0131832083FB01408951896289738988
:104E5000FC0142835383648375830895DC01ED91E3
:104E6000FC91048CF58DE02D1994089590E080E07C
:104E70000895CF92DF92EF92FF921F93CF93DF932B
:104E8000EC0180E2689FF0011124ED59FB4E9385FF
:104E9000917161F0842F827449F080E0DF91CF91AD
:104EA0001F91FF90EF90DF90CF900895142F6A8BA1
:104EB0008091210290912202A0912302B0912402BC
:104EC0008E879F87A88BB98BC488D588F12CE12C5D
:104ED0007601DD24CC24CF8AD88EE98EFA8E828D9D
:104EE000938DB0E0A0E0AC01BD014C295D296E2995
:104EF0007F294F8B588F698F7A8F83858871B1F4A2
:104F0000848D958DA68DB78D8B8B9C8BAD8BBE8B39
:104F100081E08D831F701C831E821F821886198674
:104F20001A861B861C861D8681E0B8CF803109F069
:104F3000B4CF9E012D5E3F4F8B8D9C8DEFD8882383
:104F400009F4ABCF84E0E5CF4F925F926F927F92EE
:104F50008F929F92AF92BF92CF92DF92EF92FF9289
:104F6000CF93DF93CDB7DEB765970FB6F894DEBF6A
:104F70000FBECDBF8D8B60913102FF24FA94F60EE7
:104F800060913002EE24EA94E60E21EE3EE245E620
:104F900052E46091F7177091F8178091F91790918A
:104FA000FA170E94DB674B015C012D89222309F46B
:104FB000D3C182E189836F2D70E090E080E00E9490
:104FC000FB6520E030E843EF51E40E945A662B0174
:104FD0003C016E2D70E090E080E00E94FB659B013B
:104FE000AC01C301B2010E9474676B017C0129818D
:104FF000622F70E090E080E00E94FB6520E030E0EE
:1050000040EC51E40E94DB679B01AC01C701B60193
:105010000E94746722E43DEC4CE85CE30E945A660F
:105020006B017C010E94D8676D837E838F83988794
:10503000C701B6010E94F16869877A878B879C87D0
:10504000A7019601C701B6010E9474672B013C01BC
:105050000E94D8676D877E878F87988BC301B201C6
:105060000E94F168698B7A8B8B8B9C8B20E030E0FF
:1050700040E450E4C701B6010E945A666B017C010E
:105080000E94D8672B013C01C701B6010E94F1685C
:1050900069837A838B839C8324E431EC4CEC5EE35C
:1050A0006D817E818F8198850E945A669B01AC013B
:1050B00064E670EB82EE9BE30E9473676B017C01F8
:1050C00027EE32EE4FE85DE369857A858B859C8516
:1050D0000E945A669B01AC01C701B6010E94746729
:1050E0006B017C0126E332E74DED5BE36D857E8548
:1050F0008F8598890E945A669B01AC01C701B60151
:105100000E9473676B017C012DEB33EC4DE65AE393
:1051100069897A898B899C890E945A669B01AC01B6
:10512000C701B6010E9474676B017C0127E230EC75
:1051300040E35BE3C301B2010E945A669B01AC01EC
:10514000C701B6010E9473676B017C012FE83CEF39
:1051500041EC5AE369817A818B819C810E945A6675
:105160009B01AC01C701B6010E9474676B017C0111
:10517000C501B4010E94D8672B013C01C701B601EB
:105180000E94D86769837A838B839C83C501B401AD
:105190000E9439694B015C01C701B6010E9439695F
:1051A0006B017C0129813A814B815C81C301B20191
:1051B0000E945A669B01AC0168E879E48EE69CEB9C
:1051C0000E94DB672B013C01A7019601C501B401D8
:1051D0000E945A669B01AC01C301B2010E94736731
:1051E0006B017C019F7720E030E040E85FE30E94A4
:1051F000ED6818160CF4B3C0C701B6010E946567CC
:105200006B017C018D89811104C0F7FAF094F7F8E5
:10521000F0946091FB177091FC178091FD179091AD
:10522000FE17905821EE3EE245E652E40E94DB670D
:10523000A70196010E94736720E030E040E850E447
:105240000E945A6621EE3EE245E652E40E945A660A
:1052500020E030E044E354E40E9474676B017C0179
:105260002EEA37ED44EF5AE36D817E818F81988578
:105270000E945A6622E539E44DE958E30E947467BA
:105280004B015C012CE233E643E05DE369857A85FE
:105290008B859C850E945A669B01AC01C501B401B7
:1052A0000E9473674B015C0121EC33E74FE65CE33E
:1052B0006D857E858F8598890E945A669B01AC0119
:1052C000C501B4010E9473674B015C0128E431E51C
:1052D00047E25DE369897A898B899C890E945A66D5
:1052E0009B01AC01C501B4010E94736724E13EE259
:1052F00045E653E40E945A669B01AC01C701B60122
:105300000E9473670E9443682091FF173091001834
:10531000620F731F10922F0210922E0210922D0214
:10532000072E000C880B990B0E946D1081E065968A
:105330000FB6F894DEBF0FBECDBFDF91CF91FF90C7
:10534000EF90DF90CF90BF90AF909F908F907F9025
:105350006F905F904F90089526E029832CCE80E0D7
:10536000E6CFCF92EF92FF920F931F93CF93DF93ED
:105370009091DC1791110CC09091DD17911108C02C
:105380009091DE17911104C09091DF17992341F09D
:10539000811104C0411102C0653011F0CC20C1F16F
:1053A000F22EC42FD62F182F80932D0260932E0239
:1053B00040932F022093300200933102E092320298
:1053C00081E0C2DD882351F00E94831180912F0279
:1053D0008093DC1780912E028093DD1710932D02AD
:1053E000D0932E02C0932F02F0923002009331022C
:1053F000E092320280E0A8DD882351F00E94831100
:1054000080912F028093DE1780912E028093DF1708
:10541000DF91CF911F910F91FF90EF90CF90089562
:1054200080919D1790919E17009759F0BBDA80915B
:105430009D1790919E170E94766A10929E17109267
:105440009D170895CF93DF93EC0188819981009790
:1054500011F00E94766A198218821D821C821B82BA
:105460001A82DF91CF910895FC018081918100978C
:1054700011F00C94766A0895CF93DF9320918119EF
:1054800030918219232B89F0FC01C0917D19D091B4
:105490007E1960817181CE010E94196C009729F0FC
:1054A0008C1B9D0BDF91CF9108958FEF9FEFFACF6B
:1054B000FB0101900020E9F73197AF01461B570B24
:1054C000DC01ED91FC910280F381E02D199462E101
:1054D00073E0EECF0F931F93CF93DF93EC01FB01AB
:1054E0004481558160817181E881F9810280F38175
:1054F000E02D19958C01CE01EADF800F911FDF911D
:10550000CF911F910F910895EF92FF920F931F93E8
:10551000CF93DF938C017B01D0E0C0E0F701EC0F6B
:10552000FD1F6491662339F0C8010E940E1C892B6F
:1055300011F02196F3CFC801CADF8C0F9D1FDF91B8
:10554000CF911F910F91FF90EF9008958F929F92AE
:10555000AF92BF92EF92FF920F931F93CF93DF937F
:10556000CDB7DEB7A1970FB6F894DEBF0FBECDBFA3
:105570007C01FA01CB0119A2223008F42AE08E0145
:105580000F5D1F4F822E912CB12CA12CBF01A501C4
:1055900094010E943467F901CA016A3004F5605D24
:1055A000D8016E938D01232B242B252B79F790E0C6
:1055B00080E0109719F0BD01C7017ADFA1960FB600
:1055C000F894DEBF0FBECDBFDF91CF911F910F9139
:1055D000FF90EF90BF90AF909F908F900895695C7F
:1055E000DFCF8F929F92AF92BF92CF92DF92EF92D6
:1055F000FF920F931F93CF93DF937C01EB016C011C
:1056000082E0C80ED11C4701E5E08E0E911C10E02F
:1056100000E0F60141916F0150E070E060E02AE0A7
:10562000CE0194DF5C01E881F9810190F081E02DE9
:105630006EE2CE0119958A0D9B1D080F191FC81423
:10564000D90439F7F701458150E070E060E02AE0C5
:10565000CE017CDF800F911FDF91CF911F910F91C1
:10566000FF90EF90DF90CF90BF90AF909F908F9082
:105670000895CF93DF9366E676E1B3DFEC0186E62B
:1056800096E125DF8C0F9D1FDF91CF9108950F9339
:105690001F93CF93DF93EC010BDF8C01CE0117DF5B
:1056A000800F911FDF91CF911F910F910895FC0101
:1056B00080819181009711F00C941A6360E070E092
:1056C000CB0108950F931F93CF93DF93EC01888153
:1056D0009981009759F02A813B812617370730F0CE
:1056E00081E0DF91CF911F910F9108958B016F5F42
:1056F0007F4F0E94FF6A009759F0998388831B832C
:105700000A832C813D81232B59F7FC011082E8CFBD
:1057100080E0E7CFEF92FF920F931F93CF93DF9339
:105720006115710541F480E0DF91CF911F910F91D8
:10573000FF90EF90089541155105A9F07B01EC0110
:105740000C811D81040F151FB801BCDF882359F39C
:10575000288139818C819D81B701820F931F0E941E
:10576000036C1D830C8381E0DFCFCF93DF93EC01CB
:10577000FB0101900020E9F73197AF01461B570B61
:10578000C9DF811102C0CE015DDECE01DF91CF9174
:105790000895CF93DF93EC01FB0144815581608133
:1057A0007181B8DF811102C0CE014CDECE01DF91E4
:1057B000CF910895EF92FF920F931F93CF93DF93B2
:1057C000EC017B018A01BA017DDF81110AC0CE01A3
:1057D00039DECE01DF91CF911F910F91FF90EF90B5
:1057E00008951D830C83B701888199810E94036C01
:1057F000F0CFFB0101900020E9F73197AF01461B84
:10580000570BD8CF0F931F93CF93DF9300D000D0C7
:1058100000D0CDB7DEB78C01862FF801118210823F
:1058200013821282158214824AE0BE016F5F7F4F9D
:1058300090E00E948063BE016F5F7F4FC801D9DF97
:1058400029960FB6F894DEBF0FBECDBFDF91CF9182
:105850001F910F9108950F931F93CF93DF93CDB7AF
:10586000DEB7A1970FB6F894DEBF0FBECDBF8C0197
:10587000CB01BA01F80111821082138212821582C3
:1058800014822AE0AE014F5F5F4F0E945F63BE014A
:105890006F5F7F4FC801ADDFA1960FB6F894DEBFF2
:1058A0000FBECDBFDF91CF911F910F9108950F9340
:1058B0001F93CF93DF93CDB7DEB762970FB6F894FF
:1058C000DEBF0FBECDBF8C01CB01F801118210826B
:1058D00013821282158214824AE0BE016F5F7F4FED
:1058E0000E944063BE016F5F7F4FC80182DF6296F6
:1058F0000FB6F894DEBF0FBECDBFDF91CF911F91E1
:105900000F910895EF92FF920F931F93CF93DF9320
:10591000CDB7DEB7A1970FB6F894DEBF0FBECDBFEF
:105920007C01CB01BA01F70111821082138212822D
:10593000158214828E010F5F1F4F22E044E00E9407
:10594000FD62009781F0BC01C70153DFA1960FB63D
:10595000F894DEBF0FBECDBFDF91CF911F910F91A5
:10596000FF90EF900895C7016DDDF0CFFB01DC01E2
:1059700011961C921E9213961C921E9212971596C7
:105980001C921E9214978617970741F060817181CF
:105990006115710519F0448155810CCF0895FC0102
:1059A000118210821382128215821482FB010190EF
:1059B0000020E9F73197AF01461B570BFBCECF9282
:1059C000DF92EF92FF920F931F93CF93DF936C01BF
:1059D0007B018A014617570720F48F2D7A01062F85
:1059E000182F64E173E0C601DADFC0918119D0910C
:1059F0008219EC16FD06F0F40C171D0708F4E801F7
:105A0000E0917D19F0917E19EC0FFD1F108110823D
:105A100060917D1970917E196E0D7F1DC601611513
:105A2000710591F0E6DE80917D1990917E19C80F85
:105A3000D91F1883C601DF91CF911F910F91FF905D
:105A4000EF90DF90CF900895FDDCEDCF0F931F9383
:105A5000CF93DF93CDB7DEB72C970FB6F894DEBFA8
:105A60000FBECDBF8C016A3068F0CCDEC8012C9629
:105A70000FB6F894DEBF0FBECDBFDF91CF911F915F
:105A80000F910895CE010196BDDE65E173E0CE0170
:105A9000079685DFBE016F5F7F4FCE01079679DEE7
:105AA000BC01C80163DFCE010796DEDCCE010196A2
:105AB000DBDCDCCFEF92FF920F931F93CF93DF934A
:105AC000CDB7DEB768970FB6F894DEBF0FBECDBF77
:105AD0007C0106E018E1F8016781CE010196B6DF8E
