:100000000C94C6080C94F7080C94F7080C94F708A5
:100010000C94F7080C94F7080C94F7080C94F70864
:100020000C94F7080C94F7080C94F7080C94F70854
:100030000C94F7080C94F7080C94F7080C94F70844
:100040000C94F7080C94F7080C94F7080C94F70834
:100050000C94F7080C94F7080C94F7080C946C3186
:100060000C94F7080C9436310C940C310C94F7086E
:100070000C94F7080C94F7080C94F7080C94F70804
:100080000C94F7080C94F7080C94F7080C94F708F4
:100090000C94F7080C94F7080C94F7080C94F708E4
:1000A0000C94F7080C94F7080C94F7080C94F708D4
:1000B0000C94F7080C94F7080C94F7080C94F708C4
:1000C0000C94F7080C94F7080C94F7080C94F708B4
:1000D0000C94F7080C94F7080C94F7080C94F708A4
:1000E0000C94F708072C7AA5BA6CC590DA3B936597
:1000F000FC8BBC53F810FD3C5692834DBD879D3A56
:10010000B63DCBC9BF5BBE73DA0FC93F05A84CCD66
:10011000B2D44EB93836A9020C50B9918688083C41
:10012000A6AAAA2ABE000000803F0664EC1B3C047D
:10013000BC163E3BE5B93CC93C37C29E5A3D6604FD
:1001400098083EEA69AAAA3E000000803F000040ED
:100150007A10F35A00A0724E18090010A5D4E800D6
:1001600000E87648170000E40B54020000CA9A3BEE
:10017000000000E1F5050000809698000000404274
:100180000F000000A0860100000010270000000002
:10019000E803000000006400000000000A00000006
:1001A00000000100000000002C76D888DC674F08B2
:1001B00023DFC1DFAE59E1B1B796E5E3E453C63AB8
:1001C000E651997696E8E6C28426EB898C9B62ED2F
:1001D000407C6FFCEFBC9C9F40F2BAA56FA5F490E9
:1001E000055A2AF75C936B6CF9676DC11BFCE0E460
:1001F0000D47FEF520E6B500D0ED902E03009435B6
:1002000077050080841E080000204E0A000000C808
:100210000C333333330F986E12831141EF8D211459
:10022000893BE65516CFFEE6DB18D1844B381BF729
:100230007C1D901DA4BBE424203284725E228100C8
:10024000C9F124ECA1E53D273C2F626F64793E3C67
:100250002F68746D6C3E003C6120687265663D22BB
:100260002F6E6F7468696E67223E3C627574746F9E
:100270006E20636C6173733D22627574746F6E20BF
:10028000627574746F6E32223E5265667265736871
:10029000203C2F627574746F6E3E3C2F613E3C2F84
:1002A000703E003C6120687265663D222F31392F17
:1002B0006F6E223E3C627574746F6E20636C617366
:1002C000733D22627574746F6E20627574746F6E04
:1002D000223E53544F50213C2F627574746F6E3E12
:1002E0003C2F613E3C2F703E003C61206872656689
:1002F0003D222F31382F6F6E223E3C627574746F31
:100300006E20636C6173733D22627574746F6E202E
:10031000627574746F6E223E5720646F6C3C2F625E
:100320007574746F6E3E3C2F613E003C703E3C61C4
:1003300020687265663D222F31372F6F6E223E3C5A
:10034000627574746F6E20636C6173733D226275A5
:1003500074746F6E20627574746F6E223E526F6C8F
:1003600065747920772073797069616C6E69207784
:1003700020676F72653C2F627574746F6E3E3C2F00
:10038000613E003C48333E526F6C6574793C2F48A7
:10039000333E003C2F627574746F6E3E3C2F613E9D
:1003A0003C2F703E003C6120687265663D222F3113
:1003B000342F6F6666223E3C627574746F6E2063E4
:1003C0006C6173733D22627574746F6E2062757414
:1003D000746F6E32223E53746F70205A32207A61ED
:1003E00020003C6120687265663D222F31342F6FFA
:1003F0006E223E3C627574746F6E20636C61737321
:100400003D22627574746F6E223E53746172742063
:100410005A323C2F627574746F6E3E3C2F613E3CC5
:100420002F703E003C2F627574746F6E3E3C2F61DE
:100430003E003C6120687265663D222F31332F6F8C
:100440006666223E3C627574746F6E20636C6173E5
:10045000733D22627574746F6E20627574746F6E72
:1004600032223E53746F70205A31207A6120003C52
:100470006120687265663D222F31332F6F6E223EF8
:100480003C627574746F6E20636C6173733D22629D
:100490007574746F6E223E5374617274205A313CCD
:1004A0002F627574746F6E3E3C2F613E003C2F626C
:1004B0007574746F6E3E3C2F613E003C6120687223
:1004C00065663D222F31322F6F6666223E3C627593
:1004D00074746F6E20636C6173733D226275747403
:1004E0006F6E20627574746F6E32223E53746F703B
:1004F000204C4B207A6120003C6120687265663D8B
:10050000222F31322F6F6E223E3C627574746F6EF3
:1005100020636C6173733D22627574746F6E223E4A
:100520005374617274204C4B3C2F627574746F6EFF
:100530003E3C2F613E003C6120687265663D222F83
:1005400031312F6F6666223E3C627574746F6E2087
:10055000636C6173733D22627574746F6E20627593
:1005600074746F6E32223E43796B6C20706F646CD2
:100570006577616E69652077207472616B63696568
:100580002C206E61647A69736E696A206279207AC0
:100590006174727A796D61633C2F627574746F6EE9
:1005A0003E3C2F613E003C6120687265663D222F13
:1005B00031312F6F6E223E3C627574746F6E206312
:1005C0006C6173733D22627574746F6E223E537456
:1005D0006172742063796B6C7520706F646C6577E1
:1005E000616E69613C2F627574746F6E3E3C2F6161
:1005F0003E003C6120687265663D222F31302F6FCE
:100600006E223E3C627574746F6E20636C6173730E
:100610003D22627574746F6E20223E506F646C656B
:1006200077616E6965205265637A6E653C2F6275ED
:1006300074746F6E3E3C2F613E003C6120687265B1
:10064000663D222F31302F6F6666223E3C62757404
:10065000746F6E20636C6173733D22627574746F86
:100660006E20627574746F6E32223E506F646C65DA
:1006700077616E6965204175746F3C2F6275747483
:100680006F6E3E3C2F613E003C703E3C696E707563
:100690007420747970653D636865636B626F782060
:1006A0006F6E636C69636B3D72657475726E206604
:1006B000616C736520756E636865636B65643E206D
:1006C0004465737A637A003C703E3C696E70757461
:1006D00020747970653D636865636B626F78206F25
:1006E0006E636C69636B3D72657475726E206661D2
:1006F0006C736520636865636B65643E2044657355
:100700007A637A003C48333E506F646C6577616E63
:1007100069653C2F48333E0020433C2F48353E005E
:1007200020433C2F48353E3C48353E54656D70654E
:10073000726174757261206E6F636E613A20003C65
:1007400068353E54656D70657261747572612064C0
:100750007A69656E6E613A20003C61206872656658
:100760003D222F392F6F6666223E3C627574746F8E
:100770006E20636C6173733D22627574746F6E22B8
:100780003E53544F50213C2F627574746F6E3E3C43
:100790002F613E3C2F703E003C2F627574746F6E6B
:1007A0003E3C2F613E003C6120687265663D222F11
:1007B000392F6F6E223E3C627574746F6E20636CCD
:1007C0006173733D22627574746F6E206275747408
:1007D0006F6E32223E003C6120687265663D222FBA
:1007E000392F6F6E223E3C627574746F6E20636C9D
:1007F0006173733D22627574746F6E223E313020D6
:100800006D696E2E204F6E3C2F627574746F6E3E54
:100810003C2F613E3C2F703E002743206E6F633CAF
:100820002F627574746F6E3E3C2F613E003C703ECB
:100830003C6120687265663D222F382F6F6E223E24
:100840003C627574746F6E20636C6173733D2262D9
:100850007574746F6E20627574746F6E32223E50C0
:1008600061727465722000274320647A69656E3C6A
:100870002F627574746F6E3E3C2F613E003C703E7B
:100880003C6120687265663D222F382F6F666622B4
:100890003E3C627574746F6E20636C6173733D22AD
:1008A000627574746F6E223E5061727465722000BE
:1008B0003C6120687265663D222F372F6F66662285
:1008C0003E3C627574746F6E20636C6173733D227D
:1008D000627574746F6E223E53544F50213C2F62E8
:1008E0007574746F6E3E3C2F613E3C2F703E003C31
:1008F0002F627574746F6E3E3C2F613E003C612028
:10090000687265663D222F372F6F6E223E3C6275FE
:1009100074746F6E20636C6173733D2262757474BE
:100920006F6E20627574746F6E32223E003C6120DF
:10093000687265663D222F372F6F6E223E3C6275CE
:1009400074746F6E20636C6173733D22627574748E
:100950006F6E223E3130206D696E2E204F6E3C2F1F
:10096000627574746F6E3E3C2F613E3C2F703E008A
:100970002743206E6F633C2F627574746F6E3E3C2C
:100980002F613E003C703E3C6120687265663D22EE
:100990002F362F6F6E223E3C627574746F6E20632B
:1009A0006C6173733D22627574746F6E206275742E
:1009B000746F6E32223E50696574726F2000274357
:1009C00020647A69656E3C2F627574746F6E3E3C6C
:1009D0002F613E003C703E3C6120687265663D229E
:1009E0002F362F6F6666223E3C627574746F6E20E0
:1009F000636C6173733D22627574746F6E223E5036
:100A0000696574726F200020433C2F423E3C2F48A2
:100A1000353E003C68353E54656D70657261747595
:100A20007261207A65776E6574727A6E613A203CE5
:100A3000423E003C48333E4F67727A6577616E698B
:100A4000653C2F48333E003C6120687265663D225C
:100A50002F332F6F6E223E3C627574746F6E20636D
:100A60006C6173733D22627574746F6E223E526FB7
:100A70006C6574792073746F703C2F627574746F39
:100A80006E3E3C2F613E3C2F703E003C6120687200
:100A900065663D222F342F6F6E223E3C6275747462
:100AA0006F6E20636C6173733D22627574746F6E38
:100AB000223E4F7075736320726F6C6574793C2FA2
:100AC000627574746F6E3E3C2F613E3C2F703E0029
:100AD0003C703E3C6120687265663D222F332F6F6B
:100AE0006E223E3C627574746F6E20636C6173732A
:100AF0003D22627574746F6E223E526F6C6574791C
:100B00002073746F703C2F627574746F6E3E3C2F4F
:100B1000613E003C703E3C6120687265663D222F5C
:100B2000352F6F6E223E3C627574746F6E20636C5D
:100B30006173733D22627574746F6E223E506F64F0
:100B40006E69657320726F6C6574793C2F62757481
:100B5000746F6E3E3C2F613E003C2F627574746F63
:100B60006E3E3C2F613E3C2F703E003C612068721F
:100B700065663D222F31352F6F6E223E3C627574C3
:100B8000746F6E20636C6173733D22627574746F51
:100B90006E223E536574206C69676874206C6576BC
:100BA000656C3A003C6120687265663D222F3136E3
:100BB0002F6F6666223E3C627574746F6E20636CA4
:100BC0006173733D22627574746F6E206275747404
:100BD0006F6E32223E4C696768742073656E736F66
:100BE00072206F6E3C2F627574746F6E3E3C2F6185
:100BF0003E003C6120687265663D222F31362F6FC2
:100C00006E223E3C627574746F6E20636C61737308
:100C10003D22627574746F6E223E4C696768742061
:100C200073656E736F72206F66663C2F62757474A5
:100C30006F6E3E3C2F613E003C703E3C612068720E
:100C400065663D222F322F6F6666223E3C627574C8
:100C5000746F6E20636C6173733D22627574746F80
:100C60006E20627574746F6E32223E426C696E64DF
:100C7000732054696D6572204F6E3C2F62757474D9
:100C80006F6E3E3C2F613E003C703E3C61206872BE
:100C900065663D222F322F6F6E223E3C6275747462
:100CA0006F6E20636C6173733D22627574746F6E36
:100CB000223E426C696E64732054696D6572204FE8
:100CC00066663C2F627574746F6E3E3C2F613E0009
:100CD000203C2F68353E00203C2F68353E3C68356F
:100CE0003E204C616D70792077206F67726F647A57
:100CF00069653A2000203C2F68353E00203C2F6873
:100D0000353E3C68353E2053656E736F72207377B5
:100D10006961746C613A20003A003C2F68353E3CB2
:100D200068353E205A6163686F6420736C6F6E6330
:100D3000613A20003A00203C68353E2057736368D2
:100D40006F6420736C6F6E63613A2000203C2F68E3
:100D5000353E0020676F647A696E613A200020009A
:100D60003C68353E20447A6973206A6573743A2082
:100D7000003C48333E526F6C6574793C2F48333EDB
:100D8000003C626F64793E3C48313E486F6D65209F
:100D9000436F6E74726F6C20446F6D656B204F7A79
:100DA00061726F772056302E3037413C2F48313EEC
:100DB000002E627574746F6E32207B6261636B67A4
:100DC000726F756E642D636F6C6F723A20233737C4
:100DD000383738413B7D3C2F7374796C653E3C2F2E
:100DE000686561643E00746578742D6465636F7234
:100DF0006174696F6E3A206E6F6E653B20666F6E30
:100E0000742D73697A653A20333070783B206D61B8
:100E10007267696E3A203270783B20637572736F27
:100E2000723A20706F696E7465723B7D002E627538
:100E300074746F6E207B206261636B67726F756E76
:100E4000642D636F6C6F723A20233139354236411D
:100E50003B20626F726465723A206E6F6E653B2054
:100E6000636F6C6F723A2077686974653B207061BC
:100E70006464696E673A2031367078203430707857
:100E80003B003C7374796C653E68746D6C207B200C
:100E9000666F6E742D66616D696C793A2048656C79
:100EA0007665746963613B20646973706C61793A3B
:100EB00020696E6C696E652D626C6F636B3B206D93
:100EC000617267696E3A20307078206175746F3B8B
:100ED00020746578742D616C69676E3A2063656E65
:100EE0007465723B7D003C6C696E6B2072656C3D75
:100EF0002269636F6E2220687265663D22646174A8
:100F0000613A2C223E003C686561643E3C6D65742C
:100F100061206E616D653D2276696577706F7274D0
:100F20002220636F6E74656E743D22776964746805
:100F30003D6465766963652D77696474682C206902
:100F40006E697469616C2D7363616C653D31223E1D
:100F5000003C21444F43545950452068746D6C3E09
:100F60003C68746D6C3E0000002100240027002ABC
:100F7000002D003000330001010000040107010AC8
:100F80000100002200250028002B002E0031003433
:100F90000002010000050108010B0100000A0B021C
:100FA000090C0D0E080703040100000000000000FA
:100FB0000000000000000000000000000000000031
:100FC00000000000000000121110000000000000EE
:100FD0000000000000000000000000000000000011
:100FE00000005EBCE2613FDD83C29C7E20A3FD1F4A
:100FF000419DC3217FFCA2401E5F01E3BD3E608294
:10100000DC237D9FC1421CFEA0E1BF5D0380DE3C6E
:1010100062BEE0025CDF81633D7C22C09E1D43A175
:10102000FF4618FAA427799BC584DA3866E5BB59D0
:1010300007DB856739BAE406581947A5FB7826C44B
:101040009A653BD987045AB8E6A7F91B45C6987A32
:1010500024F8A6441A99C7257B3A6486D85B05E72D
:10106000B98CD2306EEDB3510F4E10F2AC2F71939C
:10107000CD114FADF3702ECC92D38D6F31B2EC0EFB
:1010800050AFF1134DCE90722C6D33D18F0C52B006
:10109000EE326C8ED0530DEFB1F0AE4C1291CF2DDD
:1010A00073CA947628ABF517490856B4EA6937D560
:1010B0008B5709EBB536688AD495CB2977F4AA48C3
:1010C00016E9B7550B88D6346A2B7597C94A14F6BA
:1010D000A8742AC896154BA9F7B6E80A54D7896BA5
:1010E00035000020002300260029002C002F0032AC
:1010F00000000100000301060109010505050507BF
:101100000508080808020202020A0A080804040482
:1011100004010101010101010103030303030303AE
:1011200003040707070C0C0C0C0C0C0C0C0202023D
:101130000206060606060606060B0B0B0B0B0B0B30
:101140000B010210202008081020401020408002CF
:1011500001020108040201010204081020408080FD
:101160004020100804020180040201804020100881
:101170000402010804020101020408102040800159
:101180000204081020408000C631113611241FBE11
:10119000CFEFD1E2DEBFCDBF00E00CBF14E0A0E096
:1011A000B2E0E4E1FEE700E00BBF02C007900D9261
:1011B000A83FB107D9F727E0A8EFB4E001C01D921E
:1011C000AC3FB207E1F718E0C5ECD8E000E006C09C
:1011D00021970109802FFE010E949F3CC43CD1074A
:1011E00080E00807A9F70E9454330C94F93E0C9450
:1011F000000020912E0290912D029230C1F430E037
:101200002053384FC90183709927892B39F4C901BC
:1012100064E670E00E948C3C892B89F4C90160E986
:1012200071E00E948C3C892B51F08CE1089598303C
:1012300020F4917031F48EE108959095FACF8DE10C
:1012400008958FE108958F929F92AF92BF92CF92AF
:10125000DF92EF92FF92CF93DF9320912A026B01EE
:101260007C01C20ED11CE11CF11CC701B6012CE3AC
:1012700030E040E050E00E94053A49015A019601F1
:10128000C601D7FE04C0882799278C199D096CE3F5
:1012900070E00E948C3C37FD78C021E0022E000CEB
:1012A000330BDC010E94A73C645C7F4F8F4F9F4F44
:1012B0002CE330E040E050E00E94053A60932A02BF
:1012C00080912B02880E911CA11CB11CC501B40198
:1012D00028E130E040E050E00E94053A69017A01DF
:1012E0009401C40197FE04C0882799278819990999
:1012F00068E170E00E948C3C37FD49C021E0022E7D
:10130000000C330BDC010E94A73C685E7F4F8F4FBF
:101310009F4F28E130E040E050E00E94053A6093A2
:101320002B0280912C02C80ED11CE11CF11C61DF44
:1013300090E0B0E0A0E0C0922C028C159D05AE05B7
:10134000BF0594F5C1E0D4E6C81AD90AEA0AFB0A37
:1013500080912D028F5F8D30E0F480932D0249DF64
:1013600090E0B0E0A0E08C159D05AE05BF0564F3EC
:10137000C0922C02DF91CF91FF90EF90DF90CF9041
:10138000BF90AF909F908F9008952FEF87CF2FEF52
:10139000B6CFC0932D0280912E028B596D2F0E94E3
:1013A000733C90932E02DBCF1C141D041E041F04FB
:1013B0000CF3CCE0D4E680912D02815089F080932B
:1013C0002D0217DF982F9C0D90932C02C80ED11C74
:1013D000E11CF11C1C141D041E041F0464F7CACF79
:1013E000C0932D0280912E028D596D2F0E94733C67
:1013F00090932E02E6CFE0912E02F0E080912D0234
:1014000020912C02833088F1E053F84F3DE0839F18
:10141000C0011124039665E070E00E948C3C260F09
:10142000372F311D2E0F3F1FBF017595679575959D
:101430006795260F371FCF016CE97FEF0E948C3C28
:10144000260F371FCF0160E971E00E948C3CC90173
:10145000860F971F27E030E0B9010E948C3C01966F
:10146000B9010E948C3C8F5F0895845FE153F84F6F
:10147000CDCFCF93DF93C0912D02D0917006CD17C1
:1014800040F1809172068C1720F1DC1710F4C81718
:10149000A0F1B1DF482F80912C028F5F841B1816BA
:1014A000DCF467E00E947F3C8F5F082E000C990BF4
:1014B000CD1314C02091710630E0821793074CF0D1
:1014C00028173907D4F04230C4F480912B028230BF
:1014D000A0F4DF91CF91089580E0E7CF20917306CB
:1014E00030E0821793074CF02817390794F3423005
:1014F00084F780912B02823060F76091740670E06F
:1015000090E080E0DF91CF919ECE8CBD9DBD08958F
:10151000FC01818D928D08950895AF92BF92CF9274
:10152000DF92EF92FF920F931F93CF93DF936C01A3
:101530007B018B01040F151FEB015E01AE18BF0884
:10154000C017D10759F06991D601ED91FC91019036
:10155000F081E02DC6011995892B79F7C501DF913E
:10156000CF911F910F91FF90EF90DF90CF90BF90A0
:10157000AF900895FC01538D448D252F30E0842FCA
:1015800090E0821B930B541710F0CF9608950197AB
:101590000895FC01918D828D981761F0A28DAE0F98
:1015A000BF2FB11D5D968C91928D9F5F9F73928F1F
:1015B00090E008958FEF9FEF0895FC01918D828D4B
:1015C000981731F0828DE80FF11D858D90E0089518
:1015D0008FEF9FEF0895FC01918D228D892F90E070
:1015E000805C9F4F821B91098F739927089588E62D
:1015F00095E0F1DF21E0892B09F420E0822F0895A6
:10160000FC01A48DA80FB92FB11DA35ABF4F2C9177
:10161000848D90E001968F739927848FA689B7896E
:101620002C93A089B1898C91837080648C93938D65
:10163000848D981306C00288F389E02D80818F7D08
:1016400080830895EF92FF920F931F93CF93DF93C0
:10165000EC0181E0888F9B8D8C8D98131AC0E889EE
:10166000F989808185FF15C09FB7F894EE89FF89BD
:101670006083E889F98980818370806480839FBF5B
:1016800081E090E0DF91CF911F910F91FF90EF905B
:101690000895F62E0B8D10E00F5F1F4F0F7311276B
:1016A000E02E8C8D8E110BC00FB607FCFACFE889A7
:1016B000F989808185FFF5CFCE01A2DFF2CFEB8DD6
:1016C000EC0FFD2FF11DE35AFF4FF0829FB7F89406
:1016D0000B8FEA89FB8980818062D0CFCF93DF9323
:1016E000EC01888D8823B1F0AA89BB89E889F98942
:1016F0008C9185FD03C0808186FD0CC00FB607FC70
:10170000F7CF8C9185FFF2CF808185FFEDCFCE01A1
:1017100077DFEACFDF91CF91089580E090E0892BC9
:1017200021F065DF81110E94000080E090E0892BAC
:1017300049F080E090E0892B29F00E94000081119F
:101740000E94000080E090E0892B49F080E090E06A
:10175000892B29F00E94000081110E94000080E086
:1017600090E0892B49F080E090E0892B29F00E94DD
:10177000000081110C94000008958150823108F01E
:101780005AC0E82FF0E08827E753F44F8F4F0C94AE
:101790009F3CE90BED0BDB0BE10BE50B1B0CF00B9E
:1017A000F60BFA0B000C040C080C0E0C120C1B0CA4
:1017B000160C1C0C200C809180008F778093800089
:1017C0000895809180008F7DF9CF80918000877F80
:1017D000F5CF84B58F7784BD089584B58F7DFBCF19
:1017E0008091B0008F778093B00008958091B00011
:1017F0008F7DF9CF809190008F778093900008952E
:10180000809190008F7DF9CF80919000877FF5CFF8
:101810008091A0008F778093A00008958091A00010
:101820008F7DF9CF8091A000877FF5CF8091200137
:101830008F77809320010895809120018F7DF9CFCB
:1018400080912001877FF5CF1F93CF93DF93282FBF
:1018500030E0F901E556F04F8491F901EF5BFE4E5F
:10186000D491F901E550FF4EC491CC23A1F0162F7D
:10187000811183DFEC2FF0E0EE0FFF1FEF57F04FE9
:10188000A591B4918FB7F894EC91111108C0D0953F
:10189000DE23DC938FBFDF91CF911F910895DE2B64
:1018A000F8CF61E082E0D0DF8BEF94E00197F1F7B1
:1018B00060E082E0C9DF8BED9BE00197F1F70895CE
:1018C00061E082E0C1DF8BE39BE00197F1F760E02C
:1018D00082E0BADF8BE995E00197F1F70895CF93A5
:1018E000DF9390E0FC01EF5BFE4E249185509F4E0C
:1018F000FC0184918823D1F090E0880F991FFC01AE
:10190000E959F04FA591B491FC01EF57F04FC59103
:10191000D49161110EC09FB7F8948C91E22FE0959D
:101920008E238C932881E223E8839FBFDF91CF91A0
:1019300008958FB7F894EC91E22BEC938FBFF6CF1C
:101940003FB7F8948091150590911605A091170561
:10195000B091180526B5A89B05C02F3F19F0019638
:10196000A11DB11D3FBFBA2FA92F982F8827BC01F9
:10197000CD01620F711D811D911D42E0660F771F21
:10198000881F991F4A95D1F708958F929F92AF9221
:10199000BF92CF92DF92EF92FF924B015C01D0DFBA
:1019A0006B017C01CDDF6C197D098E099F09683EB2
:1019B000734081059105B0F321E0821A9108A108D6
:1019C000B10888EEC80E83E0D81EE11CF11C81141A
:1019D0009104A104B10431F7FF90EF90DF90CF9014
:1019E000BF90AF909F908F9008956AE070E080E084
:1019F00090E0CBDF61E082E027DF8BE59AE401979E
:101A0000F1F760E082E020DF8BEB97E10197F1F7DF
:101A100048DF47DF55DF45DF53DF52DF42DF41DF7D
:101A200040DF3FDF4DDF3DDF3CDF3BDF3ADF39DFCB
:101A300047DF46DF36DF35DF43DF33DF41DF40DFBF
:101A400030DF3EDF3DDF3CCF2FB7F89460911105CA
:101A50007091120580911305909114052FBF089580
:101A60000F931F93CF93DF93C82FD0E0EDDFFE01DC
:101A7000EE0FFF1FEE0FFF1FEF58F84F60837183CB
:101A800082839383CC0FDD1FCC0FDD1FC750D94F4E
:101A900041E0088119812A813B8106171707280731
:101AA000390708F440E0842FDF91CF911F910F9107
:101AB00008958F929F92AF92BF92CF92DF92EF9252
:101AC000FF920F931F93CF93DF936B017C01C42F81
:101AD000D0E0BADFFE01EE0FFF1FEE0FFF1FEF5841
:101AE000F84F60837183828393838E01000F111FEF
:101AF000000F111F0750194FF80180809180A280BC
:101B0000B380681579058A059B0508F19DDFCC0F28
:101B1000DD1FCC0FDD1FCF57D94F688379838A83B0
:101B20009B83C60ED71EE81EF91EF801C082D18223
:101B3000E282F382DF91CF911F910F91FF90EF909E
:101B4000DF90CF90BF90AF909F908F900895D50178
:101B5000C4018C0D9D1DAE1DBF1D80839183A2838A
:101B6000B383E8CFCF93DF93C82FD0E06DDFFE01C2
:101B7000EE0FFF1FEE0FFF1FE750F94F60837183D9
:101B80008283938361DFCC0FDD1FCC0FDD1FCF5726
:101B9000D94F688379838A839B83DF91CF9108959E
:101BA000DC012C911196ED91FC91F8948181822BAE
:101BB00081839281322F30959323928387E090E046
:101BC0000197F1F781818323818383E290E001977C
:101BD000F1F790817894EFECF0E03197F1F79223F0
:101BE00081E009F480E00895FC0190810180F28198
:101BF000E02D292F209560FF14C0F8948281822364
:101C000082838181892B8183A3E2B0E01197F1F770
:101C10008281982B9283789487ED90E00197F1F779
:101C20000895F8948281822382838181892B818324
:101C3000AFEFB0E01197F1F78281982B92837894FF
:101C40008FE090E0EBCFDF92EF92FF920F931F9324
:101C5000CF93DF93EC01D62EE42E08E010E0FF24B2
:101C6000F39461E08D2D8F2109F460E0CE01BCDF9B
:101C7000FF0C01501109A9F7E11010C0F894E98197
:101C8000FA8191818881809589238183E981FA8114
:101C9000928188818095892382837894DF91CF9186
:101CA0001F910F91FF90EF90DF900895FC019081BC
:101CB0000180F281E02DF8948181292F20958223E3
:101CC000818378943DE743E050E0315029F1DA0117
:101CD0001197F1F780818923C1F3F89482818223DF
:101CE00082838181892B81837894ABE7B7E0119758
:101CF000F1F7F894818182238183A3E1B1E0119708
:101D0000F1F78081982381E009F080E07894E3E6A0
:101D1000F6E03197F1F7089580E00895CF93C091F0
:101D20005206C11104C0C0E08C2FCF91089580915C
:101D30004F0690915006BADF8823A9F340E06CEC7F
:101D400080914F06909150067EDF4091530681E0CE
:101D5000482764E480914F069091500674DF74DE4A
:101D600060935406709355068093560690935706D9
:101D7000DBCFCF92DF92FF920F931F93CF93DF932E
:101D80006C01F62E80914F06909150068FDF8823CC
:101D900019F100914F061091500640E065E5C80129
:101DA00052DFE60188E0C80ED11C699140E0C8010D
:101DB0004ADFCC15DD05C9F740E06F2D80914F0655
:101DC0009091500640DF81E0DF91CF911F910F91FC
:101DD000FF90DF90CF90089580E0F6CF6F927F92D2
:101DE0008F929F92AF92BF92CF92DF92EF92FF922B
:101DF0000F931F93CF93DF93CDB7DEB76D970FB6D9
:101E0000F894DEBF0FBECDBF6EEBB3DF882309F4BD
:101E100080C080904F06909050068E010F5E1F4F3D
:101E20007E018AE1E80EF11C680138E0632E712C16
:101E3000B12CAA24A394C401B3DE8111BA28AA0C40
:101E4000A1E06A1A7108B9F7F601B1926F01EE15B7
:101E5000FF0559F799E080E0915049F0D801ED91E4
:101E60008D01E827F0E0EF51F04F8491F5CF998D87
:101E700098134FC080E1E5E3F2E0DE011196019096
:101E80000D928A95E1F78091450290914602A091CA
:101E90004702B09148028A8F9B8FAC8FBD8F009113
:101EA00051060950110BF701E00FF11F808169897C
:101EB0007A8902C0759567958A95E2F7072E000C1E
:101EC000880B990B0E94F238000F111F000F111F91
:101ED000E1E0F0E0EC0FFD1FE00FF11F2081318108
:101EE000428153810E9451396D960FB6F894DEBF3E
:101EF0000FBECDBFDF91CF911F910F91FF90EF905B
:101F0000DF90CF90BF90AF909F908F907F906F9019
:101F1000089563E373E988E893ECE6CFFC01208140
:101F20002EBD9B012150310941F051810DB407FEB6
:101F3000FDCF4EB55EBD4193F5CF61507109860F5F
:101F4000971F0DB407FEFDCF2EB5FC012083089529
:101F5000E0910C05F0910D05808190910B05892B86
:101F600080830895E0910C05F0910D05908180919A
:101F70000B0580958923808308958EBD00000DB4E4
:101F800007FEFDCF8EB50895AF92BF92CF92DF923C
:101F9000EF92FF920F931F93CF93DF9300D000D067
:101FA0001F921F92CDB7DEB78C017B016A01809131
:101FB00066058333B1F45801A40EB51EA016B10610
:101FC00009F463C0CFDF80EFD8DF812FD6DF802F09
:101FD000D4DF0F5F1F4FF70181917F01CEDFB8DFA4
:101FE000EDCF5B01A40EB51E8433A9F4BBDF1983CA
:101FF0000A838D2D80688B83CC8264E070E0CE01F3
:1020000001968CDFAE14BF0409F43EC0F701819144
:102010007F01B3DFF7CFA6DF0F3F110509F028F4EA
:1020200019820A8384E08B830CC017FD17C01982C4
:102030000A8333E0169507953A95E1F7007E0C6028
:102040000B8386E0C816D10490F5F701DE011496E3
:10205000EA15FB0599F081918D93FACFC80126E02E
:10206000969587952A95E1F7807E19830A83011555
:10207000104C10F48461D7CF8C61D5CFB6016D5F61
:102080007F4FCE0101964ADF63DFC60128960FB667
:10209000F894DEBF0FBECDBFDF91CF911F910F919E
:1020A000FF90EF90DF90CF90BF90AF90089563E0E6
:1020B00070E0CE01019632DFF70181917F015DDF93
:1020C000AE14BF04C9F7E0CFCF93DF931F92CDB713
:1020D000DEB7898341E050E0BE016F5F7F4F90E043
:1020E00080E052DF0F90DF91CF91089590E0209132
:1020F0006605233339F40C96982F990F990F990F91
:1021000080E008954896F8CFDA01E0910F05F0E0FD
:10211000FE2FEE27E60FF71F90E0982F8827A901E2
:10212000BD018E0F9F1F30CFCF93DF931F921F9261
:10213000CDB7DEB779836A8322E030E0AE014F5F2E
:102140005F4F60E170E0E0DF0F900F90DF91CF9183
:102150000895CF93DF931F921F92CDB7DEB7798397
:102160006A8322E030E0AE014F5F5F4F64E070E0D1
:10217000CBDF0F900F90DF91CF910895CF93DF9336
:102180001F92CDB7DEB720910F0530E0322F222706
:10219000260F371F90E0982F8827498341E050E0B1
:1021A000BE016F5F7F4F820F931FEEDE0F90DF91B6
:1021B000CF910895CF93DF931F92CDB7DEB7698398
:1021C000DC01ED91FC910280F381E02D41E050E0D3
:1021D000BE016F5F7F4F19950F90DF91CF910895EA
:1021E000CF93DF931F92CDB7DEB76983DC01ED910A
:1021F000FC910280F381E02D41E050E0BE016F5F71
:102200007F4F19950F90DF91CF910895FC01948530
:10221000FB018485981303C081E0983008F080E0CA
:102220000895CF93DF931F92CDB7DEB76983DC01AA
:10223000ED91FC910280F381E02D41E050E0BE0180
:102240006F5F7F4F19950F90DF91CF910895FC013B
:10225000768765870895DC01ED91FC91068CF78DFA
:10226000E02D199591E089270895862F089581E042
:102270008627089521E0FC018485883008F020E05D
:10228000822F08950895FF920F931F93CF93DF93AA
:10229000EB01FC01178A168A2A81211109C02B81C2
:1022A000211106C02C81211103C02D812223E9F0C8
:1022B00041155105D1F08A01FC01F08C80E591E0D7
:1022C00024D9AE014E5F5F4F24E030E06CE070E057
:1022D0008F2D1ADFB8018F2D27DF81E090E0DF918D
:1022E000CF911F910F91FF90089580E0F7CFFC01EF
:1022F000848595850895FC0184899589089522EC4B
:1023000032E0FC0131832083FB01408951896289DD
:102310007389FC0142835383648375830895DC01D0
:10232000ED91FC91048CF58DE02D1994089590E0C9
:1023300080E008954F925F926F927F928F929F926A
:10234000AF92BF92CF92DF92EF92FF92CF93DF9343
:10235000CDB7DEB765970FB6F894DEBF0FBECDBF21
:102360008D8B60912D02FF24FA94F60E60912C0261
:10237000EE24EA94E60E21EE3EE245E652E4609158
:1023800066067091670680916806909169060E94C2
:10239000C83A4B015C012D89222309F4D3C182E1A3
:1023A00089836F2D70E090E080E00E94F23820E099
:1023B00030E843EF51E40E9451392B013C016E2D6E
:1023C00070E090E080E00E94F2389B01AC01C30114
:1023D000B2010E94613A6B017C012981622F70E099
:1023E00090E080E00E94F23820E030E040EC51E4E0
:1023F0000E94C83A9B01AC01C701B6010E94613A34
:1024000022E43DEC4CE85CE30E9451396B017C0115
:102410000E94C53A6D837E838F839887C701B6017A
:102420000E94DE3B69877A878B879C87A70196018C
:10243000C701B6010E94613A2B013C010E94C53AD6
:102440006D877E878F87988BC301B2010E94DE3B28
:10245000698B7A8B8B8B9C8B20E030E040E450E4DE
:10246000C701B6010E9451396B017C010E94C53A37
:102470002B013C01C701B6010E94DE3B69837A83D0
:102480008B839C8324E431EC4CEC5EE36D817E8194
:102490008F8198850E9451399B01AC0164E670EBF5
:1024A00082EE9BE30E94603A6B017C0127EE32EEE4
:1024B0004FE85DE369857A858B859C850E9451395B
:1024C0009B01AC01C701B6010E94613A6B017C011E
:1024D00026E332E74DED5BE36D857E858F85988938
:1024E0000E9451399B01AC01C701B6010E94603ABC
:1024F0006B017C012DEB33EC4DE65AE369897A8957
:102500008B899C890E9451399B01AC01C701B6019E
:102510000E94613A6B017C0127E230EC40E35BE30F
:10252000C301B2010E9451399B01AC01C701B60140
:102530000E94603A6B017C012FE83CEF41EC5AE3CA
:1025400069817A818B819C810E9451399B01AC0108
:10255000C701B6010E94613A6B017C01C501B4015B
:102560000E94C53A2B013C01C701B6010E94C53A41
:1025700069837A838B839C83C501B4010E94263CC6
:102580004B015C01C701B6010E94263C6B017C0136
:1025900029813A814B815C81C301B2010E9451398A
:1025A0009B01AC0168E879E48EE69CEB0E94C83A96
:1025B0002B013C01A7019601C501B4010E945139CC
:1025C0009B01AC01C301B2010E94603A6B017C0126
:1025D0009F7720E030E040E85FE30E94DA3B181686
:1025E0000CF4B3C0C701B6010E94523A6B017C01E2
:1025F0008D89811104C0F7FAF094F7F8F094609196
:102600006A0670916B0680916C0690916D069058E9
:1026100021EE3EE245E652E40E94C83AA701960147
:102620000E94603A20E030E040E850E40E945139D6
:1026300021EE3EE245E652E40E94513920E030E0CE
:1026400044E354E40E94613A6B017C012EEA37EDC9
:1026500044EF5AE36D817E818F8198850E945139C4
:1026600022E539E44DE958E30E94613A4B015C01EF
:102670002CE233E643E05DE369857A858B859C85B2
:102680000E9451399B01AC01C501B4010E94603A1E
:102690004B015C0121EC33E74FE65CE36D857E8501
:1026A0008F8598890E9451399B01AC01C501B40105
:1026B0000E94603A4B015C0128E431E547E25DE3AA
:1026C00069897A898B899C890E9451399B01AC0167
:1026D000C501B4010E94603A24E13EE245E653E4BC
:1026E0000E9451399B01AC01C701B6010E94603ABA
:1026F0000E94303B20916E0630916F06620F731F6F
:1027000010922B0210922A0210922902072E000C1E
:10271000880B990B0E94230981E065960FB6F89407
:10272000DEBF0FBECDBFDF91CF91FF90EF90DF9066
:10273000CF90BF90AF909F908F907F906F905F9061
:102740004F90089526E029832CCE80E0E6CFCF92EB
:10275000EF92FF920F931F93CF93DF9390914B06CD
:1027600091110CC090914C06911108C090914D06AA
:10277000911104C090914E06992341F0811104C03B
:10278000411102C0653011F0CC20C1F1F22EC42FEE
:10279000D62F182F8093290260932A0240932B0290
:1027A00020932C0200932D02E0922E0281E0C2DDE4
:1027B000882351F00E94390A80912B0280934B06A6
:1027C00080912A0280934C0610932902D0932A020A
:1027D000C0932B02F0922C0200932D02E0922E0265
:1027E00080E0A8DD882351F00E94390A80912B02F5
:1027F00080934D0680912A0280934E06DF91CF91FF
:102800001F910F91FF90EF90CF900895CF93DF939A
:102810002091F0073091F107232B89F0FC01C09142
:10282000EC07D091ED0760817181CE010E94DF3EFF
:10283000009729F08C1B9D0BDF91CF9108958FEFAE
:102840009FEFFACFFB0101900020E9F73197AF012C
:10285000461B570BDC01ED91FC910280F381E02DCA
:1028600019948F929F92AF92BF92EF92FF920F9323
:102870001F93CF93DF93CDB7DEB7A1970FB6F89430
:10288000DEBF0FBECDBF7C01FA01CB0119A2223001
:1028900008F42AE08E010F5D1F4F822E912CB12C7F
:1028A000A12CBF01A50194010E94213AF901CA019E
:1028B0006A3004F5605DD8016E938D01232B242BC3
:1028C000252B79F790E080E0109719F0BD01C70142
:1028D000B9DFA1960FB6F894DEBF0FBECDBFDF9172
:1028E000CF911F910F91FF90EF90BF90AF909F906D
:1028F0008F900895695CDFCF8F929F92AF92BF92C5
:10290000CF92DF92EF92FF920F931F93CF93DF93BB
:102910007C01EB016C0182E0C80ED11C4701E5E0AF
:102920008E0E911C10E000E0F60141916F0150E025
:1029300070E060E02AE0CE0194DF5C01E881F9817B
:102940000190F081E02D6EE2CE0119958A0D9B1D5C
:10295000080F191FC814D90439F7F701458150E051
:1029600070E060E02AE0CE017CDF800F911FDF91F4
:10297000CF911F910F91FF90EF90DF90CF90BF907C
:10298000AF909F908F90089564ED72E05BCF0F93AE
:102990001F93CF93DF93EC0155DF8C01CE01F4DF61
:1029A000800F911FDF91CF911F910F910895EF92AA
:1029B000FF920F931F93CF93DF938C017B01D0E0A5
:1029C000C0E0F701EC0FFD1F6491662331F0C801F0
:1029D00028DC892B11F02196F4CFC801D5DF8C0FAC
:1029E0009D1FDF91CF911F910F91FF90EF90089560
:1029F000FC0180819181009711F00C94323660E0E7
:102A000070E0CB0108950F931F93CF93DF93EC01F8
:102A100088819981009759F02A813B8126173707D1
:102A200030F081E0DF91CF911F910F9108958B01DC
:102A30006F5F7F4F0E94EC3D009759F09983888328
:102A40001B830A832C813D81232B59F7FC011082C3
:102A5000E8CF80E0E7CFEF92FF920F931F93CF93E1
:102A6000DF936115710541F480E0DF91CF911F91F3
:102A70000F91FF90EF90089541155105A9F07B014A
:102A8000EC010C811D81040F151FB801BCDF8823E8
:102A900059F3288139818C819D81B701820F931F61
:102AA0000E94D83E1D830C8381E0DFCFCF93DF935C
:102AB000EC0188819981009711F00E94633D198291
:102AC00018821D821C821B821A82DF91CF91089589
:102AD000CF93DF93EC01FB0101900020E9F73197E0
:102AE000AF01461B570BB7DF811102C0CE01DEDFFD
:102AF000CE01DF91CF910895CF93DF93EC01FB01DD
:102B00004481558160817181A6DF811102C0CE01AF
:102B1000CDDFCE01DF91CF910895EF92FF920F9319
:102B20001F93CF93DF93EC017B018A01BA016BDF26
:102B300081110AC0CE01BADFCE01DF91CF911F9182
:102B40000F91FF90EF9008951D830C83B70188814A
:102B500099810E94D83EF0CFFB0101900020E9F757
:102B60003197AF01461B570BD8CF0F931F93CF93CD
:102B7000DF9300D000D000D0CDB7DEB78C01862F18
:102B8000F8011182108213821282158214824AE0A7
:102B9000BE016F5F7F4F90E00E947736BE016F5F8E
:102BA0007F4FC801D9DF29960FB6F894DEBF0FBE5C
:102BB000CDBFDF91CF911F910F910895EF92FF92BA
:102BC0000F931F93CF93DF93CDB7DEB7A1970FB6C7
:102BD000F894DEBF0FBECDBF7C01CB01BA01F70177
:102BE0001182108213821282158214828E010F5F6D
:102BF0001F4F22E044E00E941536009781F0BC018F
:102C0000C701AADFA1960FB6F894DEBF0FBECDBFF5
:102C1000DF91CF911F910F91FF90EF900895C70121
:102C200045DFF0CF0F931F93CF93DF93CDB7DEB780
:102C300062970FB6F894DEBF0FBECDBF8C01CB01FB
:102C4000F8011182108213821282158214824AE0E6
:102C5000BE016F5F7F4F0E945836BE016F5F7F4F8E
:102C6000C8017ADF62960FB6F894DEBF0FBECDBF03
:102C7000DF91CF911F910F910895FB01DC01119617
:102C80001C921E9213961C921E92129715961C92DD
:102C90001E9214978617970741F060817181611524
:102CA000710519F04481558138CF0895FC011182D6
:102CB00010821382128215821482FB01019000207F
:102CC000E9F73197AF01461B570B27CFCF92DF9221
:102CD000EF92FF920F931F93CF93DF936C017B01D1
:102CE0008A014617570720F48F2D7A01062F182FD7
:102CF00066ED72E0C601DADFC091F007D091F1070E
:102D0000EC16FD06F0F40C171D0708F4E801E0913D
:102D1000EC07F091ED07EC0FFD1F10811082609120
:102D2000EC077091ED076E0D7F1DC60161157105F1
:102D300091F012DF8091EC079091ED07C80FD91F39
:102D40001883C601DF91CF911F910F91FF90EF90F3
:102D5000DF90CF900895AADEEDCFFC0180819181B4
:102D6000009711F00C94633D08950F931F93CF9338
:102D7000DF93CDB7DEB72C970FB6F894DEBF0FBE4A
:102D8000CDBF8C016A3068F0F0DEC8012C960FB61A
:102D9000F894DEBF0FBECDBFDF91CF911F910F9191
:102DA0000895CE010196E1DE67ED72E0CE0107964F
:102DB0007DDFBE016F5F7F4FCE0107969DDEBC01B8
:102DC000C8015BDFCE010796C8DFCE010196C5DFE3
:102DD000DCCF8F929F92AF92BF92CF92DF92EF9211
:102DE000FF920F931F93CF93DF93CDB7DEB7689712
:102DF0000FB6F894DEBF0FBECDBF7C01062F10E0EA
:102E00000E94240DF801EE0FFF1FEE0FFF1FEF5879
:102E1000F84F6083718382839383000F111F000F2B
:102E2000111FF801E750F94F008111812281338190
:102E300058016901A61AB70AC80AD90AC601B5011C
:102E400028EE33E040E050E00E94213A49010CE3D3
:102E500010E0C901B8010E948C3CAC01C401841B84
:102E6000950BB8010E948C3C6B01CB01B8010E940C
:102E70008C3C5C01C81AD90A642FCE01019675DF1B
:102E80006A2DCE01079671DFC601B8010E948C3C05
:102E9000CE0143966ADFBE016D5E7F4FCE010D9677
:102EA000ECDE69ED72E0CE010D9612DEBE01695FC7
:102EB0007F4F22DE69ED72E00BDEBE016F5F7F4F58
:102EC0001BDEBC01C701D9DECE010D9646DFCE0167
:102ED000439643DFCE01079640DFCE0101963DDFEA
:102EE000C70168960FB6F894DEBF0FBECDBFDF9165
:102EF000CF911F910F91FF90EF90DF90CF90BF90F7
:102F0000AF909F908F900895AF92BF92CF92DF9233
:102F1000EF92FF920F931F93CF93DF9300D01F92F6
:102F2000CDB7DEB78C016B017A01809166058333E2
:102F3000C1F45B016801C40ED51EC016D10681F133
:102F400011D88FE01AD8812F18D8802F16D80F5F8C
:102F50001F4F80E012D8F50181935F010E94A80FF6
:102F6000ECCF843369F50E94B20F19830A838F2D49
:102F70008F778B83EC8264E070E0CE0101960E9433
:102F80008E0FA70170E060E0C6010E94D13EE114FF
:102F9000F10421F0B701C6010E948E0F0E94A80F14
:102FA000C7010F900F900F900F90DF91CF911F915D
:102FB0000F91FF90EF90DF90CF90BF90AF9008956A
:102FC0000E94B20F0F3F110509F030F419820A83F5
:102FD0001B8263E070E0D1CF17FD0BC019820A831A
:102FE00033E0169507953A95E1F7007E08600B836C
:102FF000F0CFC80126E0969587952A95E1F7807E67
:1030000019830A830115104C18F480618B83E1CF7A
:103010008861FCCF1F93CF93DF931F92CDB7DEB7AC
:10302000182F80E591E00E94850A812F5FD827E064
:10303000129FF0011124E25EFA4F22813381377032
:1030400041E050E0BE016F5F7F4F820F931F5CDF56
:1030500089810F90DF91CF911F910895FC01808DA0
:10306000883038F4218D328D232B19F0D3DF90E096
:1030700008958FEF9FEF0895CF93DF93FC01248590
:10308000283028F08FEF9FEFDF91CF910895EC016A
:103090000190F081E02D0084F185E02D1995892BB8
:1030A00089F38C85B7DF90E0EFCFCF93DF931F924A
:1030B000CDB7DEB741E050E0BE016F5F7F4F24DF48
:1030C00089810F90DF91CF91089590E080E0EDCF5E
:1030D000CF93DF93C4E1D0E0F8DF882361F061E0B3
:1030E00070E080E090E00E94C50C2197A9F780E095
:1030F000DF91CF91089581E0FBCF1F93CF93DF93B2
:103100001F921F92CDB7DEB760E372E080E090E0DF
:103110000E94C50C1FB7F89480910E05811127C03D
:10312000E0E3F1E18491E6E7F1E19491E82FF0E04A
:10313000EE0FFF1FE959F04FA591B491EC91E923EF
:1031400021F461E085E30E94240C61E085E30E94A4
:103150006F0C8CB580618CBD8CB580648CBD61E0DA
:1031600084E30E946F0C61E083E30E946F0C809106
:103170000E058F5F80930E051FBFE5E0F1E1E4913E
:10318000F0E0EE0FFF1FEF57F04F85919491909371
:103190000D0580930C05EBE4F1E1E491E0930B0560
:1031A00061E08AE00E946F0C0E94A80F80E591E028
:1031B0000E94850A84E38093660580E80E9464107B
:1031C00087DF882371F188E00E9464107EDF8830F9
:1031D00041F580E10E94641078DF803111F580E0D4
:1031E0000E94641072DF182F81111BC08FE190E0E4
:1031F0005CDF8330B1F480E480930F0542E06EE140
:1032000070E0812F0E94BE1042E06FE170E0812FDC
:103210000E94BE101F5F183089F781E08093670518
:103220005BC087E38093660580E80E94641050DFEE
:103230008823D9F088E00E94641047DF8830A9F421
:1032400080E10E94641041DF182F803171F480E02A
:103250000E9464103ADF811108C089E390E025DF05
:10326000843019F410930F05D8CF83E3809366055B
:1032700080E80E9464102CDF882359F180E10E94CD
:10328000641023DF803129F582E10E9464101DDF84
:103290008231F9F480E00E94641017DF811119C0B7
:1032A00084E080930F0515E51A8341E050E0BE01EC
:1032B0006E5F7F4F8BE190E00E94C40F198341E065
:1032C00050E0BE016F5F7F4F8AE190E00E94C40F23
:1032D000A4CF1092660580E00F900F90DF91CF9100
:1032E0001F910895CF92DF92EF92FF92CF93DF93D9
:1032F000CDB7DEB7C254D1090FB6F894DEBF0FBE0A
:10330000CDBFFC01428153816481758123964CAF0E
:103310005DAF6EAF7FAF239781E023968FAF23978A
:103320002396CCACDDACEEACFFAC2397CBAADCAAE9
:10333000EDAAFEAA4DA75EA76FA778AB88ABCDA478
:10334000DEA4EFA4F8A8CFA2D8A6E9A6FAA68EAB71
:10335000CBA8DCA8EDA8FEA8C9A2DAA2EBA2FCA229
:1033600022EC32E03C8B2B8B9FEF9D8B9E8B9F8BB7
:10337000188E3E872D878AA7CFA0D8A4E9A4FAA4E7
:10338000CF86D88AE98AFA8A8CA389A19AA1ABA1AF
:10339000BCA189879A87AB87BC873A8329834B83F3
:1033A0005C836D837E8380916705882309F443C025
:1033B00080E591E00E94850A46E050E063E272E019
:1033C00089E090E00E94C40F44E050E0BE016D5FD0
:1033D0007F4F8FE090E00E94C40F44E050E0BE01B8
:1033E000615F7F4F81E090E00E94C40F44E050E0B5
:1033F000BE016B5E7F4F85E090E00E94C40F81E0CC
:103400008C8789859A85AB85BC85809325069093AA
:103410002606A0932706B0932806CE5BDF4F0FB693
:10342000F894DEBF0FBECDBFDF91CF91FF90EF903C
:10343000DF90CF90089561DE882379F3B9CF209192
:103440000F0530E0322F2227620F731F90E0982F74
:103450008827860F971F29CECF93C82F462F61E06C
:1034600070E00E94BE1061E070E08C2FE8DF8111F7
:10347000FACFCF910895CF93C82F80E591E00E94B5
:10348000850A68E070E08C2FCF91E6CFCF93C82FEC
:1034900080E591E00E94850A60E170E08C2FCF9179
:1034A000DBCFCF93DF93EC01888D883018F4EEDF0B
:1034B00088E0888FDF91CF91089563E070E0BFCFFF
:1034C000CF93C82F80E591E00E94850A8C2FCF9181
:1034D000F4CFEF92FF920F931F93CF93DF937C0172
:1034E00080916605D4E0833309F0D8E006E515E065
:1034F000C0E0F801219131918F01F701848195811C
:103500002817390729F0CF5FDC13F3CF80E005C01F
:103510008C2FD6DF8431B9F781E0DF91CF911F91F5
:103520000F91FF90EF900895CF93DF93EC018C857E
:103530008830C8F4C5DF843189F0882379F0883178
:1035400069F021E08C3159F4E881F9810084F1853A
:10355000E02DCE01199521E0892B09F420E0822F7E
:10356000DF91CF91089580E0FBCFCF92DF92EF9271
:10357000FF92CF93DF93EC018C85883058F47BDF8A
:103580000E94240D6B017C018C859ADF811109C09A
:1035900088E08C87DF91CF91FF90EF90DF90CF9004
:1035A000089561E070E080E090E00E94C50C0E9408
:1035B000240DAB01BC014C195D096E097F098D8595
:1035C0009E85B0E0A0E0481759076A077B07E0F244
:1035D0008C855CDFDDCFCF93FC01C08D80E591E071
:1035E0000E94850A60E270E08C2F36DF62E070E0B6
:1035F0008C2F25DF84FD15C062E070E08C2F1FDF6B
:1036000083FF0AC048E162E070E08C2F0E94BE1088
:1036100080E090E0CF91089580E591E00E94850AD6
:10362000E5CF40E162E070E08C2F0E94BE1081E0A7
:10363000F0CFDA01E0910F05F0E0FE2FEE27E60F64
:10364000F71F90E0982F8827A901BD018E0F9F1FBB
:103650005BCC8F929F92AF92BF92CF92DF92EF920C
:10366000FF920F931F93CF93DF93CDB7DEB7609791
:103670000FB6F894DEBF0FBECDBF7C0190916605FA
:10368000911115C018E0812F60960FB6F894DEBF37
:103690000FBECDBFDF91CF911F910F91FF90EF90A3
:1036A000DF90CF90BF90AF909F908F90089508E0EB
:1036B000933309F404E06B0180E591E00E94850AF0
:1036C0009E012F5F3F4F5901490110E0812FF5DE28
:1036D000F40181934F018823B9F01F5F0113F6CFE6
:1036E00000E0F50181915F018D3149F0883139F0B9
:1036F0008A51823020F00F5F1013F3CFC3CF60E107
:1037000070E0802FA9DE102FA12EB12CF501EE0F55
:10371000FF1FEA5AFA4F1182108283EE93E001975D
:10372000F1F742E870E060E0812F0E94BE104FEF99
:1037300062E070E0812F0E94BE10B601C114D10476
:1037400091F4809121029091220201968115F0EC72
:103750009F0708F45AC0909322028093210260913F
:10376000210270912202812F0E94A91086E0E9E4D3
:10377000F2E0DE01199601900D928A95E1F7F701CA
:1037800083818F778C8784818D8785818E87A70140
:103790004E5F5F4F24E030E06CE070E0812F0E94CC
:1037A0008410B601812F0E94941026E030E0AE0113
:1037B000475F5F4F66E070E0812F0E94841061E0F8
:1037C00070E0812F49DE27E02A9DC0012B9D900DDE
:1037D00011249C01225E3A4F7901F9011182108275
:1037E00022E030E0AE01415F5F4F68E270E0812F80
:1037F00020DF8F859889982789279827F701938359
:1038000082831682158214823ECF80E090ECA3CF93
:10381000CF92DF92EF92FF920F931F93CF93DF939C
:1038200000D000D0CDB7DEB78C016B017A01FC016E
:10383000808D883008F42ADE82EC92E09A838983B6
:10384000F60182819381A481B5818B839C83AD83B2
:10385000BE83B701CE010196FCDEF801808F88306F
:10386000A0F4F586E486128E118E81E026960FB6BE
:10387000F894DEBF0FBECDBFDF91CF911F910F91A6
:10388000FF90EF90DF90CF90089580E0EFCF7F9290
:103890008F929F92AF92BF92CF92DF92EF92FF9260
:1038A0000F931F93CF93DF931F921F92CDB7DEB775
:1038B000782E8B014A01590122E030E0AE014F5FC2
:1038C0005F4F64E270E0B5DEE980FA80FE24EF2409
:1038D000FE24E00EF11E9701377040916605072D1A
:1038E00010E0433309F042C0085F1F4F102F00273C
:1038F000110F110F110FC901800F911F4733C9F12B
:10390000A9014A0D5B1D4130584098F160E078E014
:103910006B01C21AD30AA601B4010E94C40FA5010B
:103920004C195D09B4016C0D7D1DC8010E94C40FC6
:10393000EA0CFB1CF982EA8222E030E0AE014F5F24
:103940005F4F64E270E0872D0E9484100F900F900B
:10395000DF91CF911F910F91FF90EF90DF90CF906B
:10396000BF90AF909F908F907F900895005F1F4F02
:10397000BDCFA501B401DACFEF92FF921F93CF9391
:10398000DF931F921F92CDB7DEB7182F22E030E0F1
:10399000AE014F5F5F4F60E270E04BDEE980FA807E
:1039A000FE24EF24FE2422E030E0AE014F5F5F4FA3
:1039B00060E270E0812F3DDE89819A819827892716
:1039C0009827E816F90689F487E0189FF00111247A
:1039D000E25EFA4FF582E482C7010F900F90DF910B
:1039E000CF911F91FF90EF9008957C01DCCF1F9342
:1039F000CF93DF93182F80E591E00E94850A812FF5
:103A0000BBDFEC01812F59DD873121F08C3111F0C2
:103A1000D0E0C0E0CE01DF91CF911F910895CF9308
:103A2000DF93EC018C85883050F44ADD873111F04A
:103A30008C3129F48C85DBDF8115984098F3DF9178
:103A4000CF910895FC018485883008F4D0CF90E0B0
:103A500080E00895CF92DF92EF92FF921F93CF9371
:103A6000DF93182F7B01EA014130584010F0C0E08D
:103A7000D8E080E591E00E94850A812F7DDF6C010E
:103A8000812F1BDD873111F08C3101F5CC16DD065D
:103A900080F380E591E00E94850A9E01A70170E015
:103AA00060E0812FF4DE60E270E0812FD5DC62E01F
:103AB00070E0812FC4DC84FD0CC0812FFEDC8823E4
:103AC000B9F080E591E00E94850AF1CFD0E0C0E036
:103AD000E0CF40E162E070E0812F0E94BE10CE0195
:103AE000DF91CF911F91FF90EF90DF90CF900895DD
:103AF000D0E0C0E0F4CF0F931F93CF93DF938C01FE
:103B0000EA01FC018485883040F4A4DF892B39F474
:103B100081E090E0F80193838283D0E0C0E0CE01A1
:103B2000DF91CF911F910F9108950F931F93CF9322
:103B3000DF93EC01FB014481558160817181DBDF02
:103B40008C01CE010E94C414800F911FDF91CF9190
:103B50001F910F9108959F92AF92BF92CF92DF92E3
:103B6000EF92FF920F931F93CF93DF938C015B0132
:103B7000942EE52EFC01C688D788F08C80E591E074
:103B80000E94850A8F2DF8DEC92DDE2D8C179D072A
:103B900008F4EC019E01A501B6018F2D78DEF80135
:103BA000868997898C0F9D1F978B868BCE01DF911D
:103BB000CF911F910F91FF90EF90DF90CF90BF902A
:103BC000AF909F900895FF920F931F93CF93DF9331
:103BD0001F921F92CDB7DEB7F82E22E030E0AE0183
:103BE0004F5F5F4F66E270E024DD09811A81102784
:103BF0000127102722E030E0AE014F5F5F4F66E201
:103C000070E08F2D16DD89819A8198278927982762
:103C10000817190749F4C8010F900F90DF91CF9151
:103C20001F910F91FF9008958C01E4CF1F93CF93C4
:103C3000DF93182F87E0189FE0011124C25EDA4F4E
:103C400088819981009759F480E591E00E94850A66
:103C5000812FB9DF2E81821B910999838883DF919F
:103C6000CF911F9108959F92AF92BF92CF92DF9212
:103C7000EF92FF920F931F93CF93DF93EC017B01A1
:103C800080916605811121C01B821A8288EE93E023
:103C9000A0E0B0E08C839D83AE83BF8383E592E098
:103CA0009983888388E08C8788EE93E09E878D8750
:103CB000CE01DF91CF911F910F91FF90EF90DF9098
:103CC000CF90BF90AF909F90089534E0932E8333B0
:103CD00011F028E0922E86E5C82E85E0D82E10E05F
:103CE00098E0B92EA12CD6012D913D916D01F701DF
:103CF000848195812817390779F4812FE1DB082F1A
:103D0000873111F08C3129F5812F90DF892B51F506
:103D10000C3111F4812FAFDB1F5F9112E4CFA110A2
:103D200008C0D701ED91FC910084F185E02DC70119
:103D300019951B821A8288EE93E0A0E0B0E08C8394
:103D40009D83AE83BF8383E592E099838883BC869D
:103D5000ABCF843149F08111DFCFF6013297118268
:103D60001082DACFB12ED8CFAA24A394D5CF8F92C8
:103D70009F92AF92BF92CF92DF92EF92FF920F93FA
:103D80001F93CF93DF93CDB7DEB72F970FB6F8947D
:103D9000DEBF0FBECDBF5C014B017A01809166058D
:103DA0008823B1F104E0833309F008E0B501CE01C6
:103DB000019659DF86E5C82E85E0D82E10E0F60181
:103DC000219131916F01F50184819581281739077F
:103DD00041F4812F75DB873121F4A701B401812FD4
:103DE00039DE1F5F0113EBCFC7012F960FB6F89492
:103DF000DEBF0FBECDBFDF91CF911F910F91FF901E
:103E0000EF90DF90CF90BF90AF909F908F900895EC
:103E1000F12CE12CE9CFFC018485883008F406CF31
:103E200090E080E008954F925F927F928F929F92F0
:103E3000AF92BF92CF92DF92EF92FF920F931F93B8
:103E4000CF93DF931F921F92CDB7DEB7782E6B0111
:103E50004A01A82EB12C27E0829FC0011124FC0149
:103E6000E25EFA4F7F010081118180E591E00E94BE
:103E7000850A081519054CF4872DA5DEF701268162
:103E80008C01021B1109118300830115110511F525
:103E9000872D13DB843159F0882349F001E010E0CD
:103EA0008C3111F410E000E0119501951109C80161
:103EB0000F900F90DF91CF911F910F91FF90EF9096
:103EC000DF90CF90BF90AF909F908F907F905F904A
:103ED0004F900895801691060CF4840187E08A9D26
:103EE000F0018B9DF00D1124E25EFA4FE280F38029
:103EF000C114D10451F12701F7E05F22872D0E9400
:103F00007610840D951D20916605273309F452C063
:103F10009801240D351D2130384008F44BC020E0B5
:103F200038E0490184189508A401B6010E9484175D
:103F30002601480C591C6801C818D908872D0E9411
:103F40007610A601B2010E948417E00EF11E87E0F0
:103F50008A9DF0018B9DF00D1124E25EFA4FF382F1
:103F6000E28220813181201B310B318320838681C5
:103F7000800F912F911D8A3F910510F4232BE9F4B6
:103F800087E08A9DF0018B9DF00D1124E25EFA4FCF
:103F90001682F982EA8222E030E0AE014F5F5F4F85
:103FA00068E270E0872D0E94841060E470E0872D45
:103FB00053DA7DCFA801B601C6CF868378CFCF93E1
:103FC000DF93FC01218D328D2115310529F48FEF0E
:103FD0009FEFDF91CF910895EC01808D4217530739
:103FE00008F0A90120DF181619068CF7298D3A8DE3
:103FF000281B390B3A8F298FECCF0F931F93CF9348
:10400000DF931F92CDB7DEB7FC01218D328D232BBC
:1040100041F48FEF9FEF0F90DF91CF911F910F91A0
:1040200008958C0141E050E0BE016F5F7F4FFC01BD
:10403000808DF9DE1816190664F7F801818D928DCE
:104040000197928F818F898190E0E5CFCF93DF93A5
:104050001F92CDB7DEB741E050E0BE016F5F7F4FEA
:10406000FC018485E0DE1816190634F4898190E09D
:104070000F90DF91CF9108958FEF9FEFF9CFCF92FF
:10408000DF92EF92FF920F931F93CF93DF93CDB701
:10409000DEB7EE970FB6F894DEBF0FBECDBF6BE371
:1040A00076E0CE014296DFDD8E8D883010F00C94E4
:1040B000602866ED72E0CE01C3960E9456160E94FB
:1040C000240D6093470670934806809349069093A9
:1040D0004A0660930705709308058093090590933D
:1040E0000A05CE01429620DA882309F4DBC78091C5
:1040F000470690914806A0914906B0914A06409122
:104100000705509108056091090570910A05841B07
:10411000950BA60BB70B813D9740A105B10508F0A3
:10412000C1C70E94240D6093470670934806809390
:10413000490690934A06CE0142966DDE892B89F29C
:10414000CE01429683DF182F89831A8241E050E026
:10415000BE016F5F7F4F8CEE97E00E942B151A30E7
:1041600011F00C9477298FA998AD892B11F00C943C
:104170006F296BED72E0CE0142960E94C7146BEE80
:1041800072E0CE0142960E94C71462E073E0CE0155
:1041900042960E94C714CE0142960E94C41464E164
:1041A00073E0CE0101960E945616CE0101960E9440
:1041B00006148C01CE0101960E94AD1617FD19C0A0
:1041C0000AE010E00E94F50C0E94BE310E94510CE2
:1041D0000E94600C0E94510C0E94600C0E94510CC5
:1041E0000E94600C0E94510C0E94600C0150110949
:1041F00049F76FE173E0CE0101960E945616CE0199
:1042000001960E9406148C01CE0101960E94AD1603
:1042100017FD19C00AE010E00E94F50C0E94BE31A3
:104220000E94510C0E94510C0E94600C0E94600C74
:104230000E94510C0E94510C0E94600C0E94600C64
:104240000150110949F76AE273E0CE0101960E941C
:104250005616CE0101960E9406148C01CE010196DD
:104260000E94AD1617FD19C00AE010E00E94F50C7F
:104270000E94BE310E94510C0E94510C0E94510CB0
:104280000E94600C0E94510C0E94510C0E94510C23
:104290000E94600C0150110949F765E373E0CE01FB
:1042A00001960E945616CE0101960E9406148C01BA
:1042B000CE0101960E94AD1617FD03C081E08093E8
:1042C000200260E473E0CE0101960E945616CE01F2
:1042D00001960E9406148C01CE0101960E94AD1633
:1042E00017FF109220026CE473E0CE0101960E9449
:1042F0005616CE0101960E9406148C01CE0101963D
:104300000E94AD1617FD08C080911E0290911F02F9
:1043100090931D0280931C0267E573E0CE01019625
:104320000E945616CE0101960E9406148C01CE0101
:1043300001960E94AD1617FD03C08EE00E94B20DDB
:1043400063E673E0CE0101960E945616CE010196F7
:104350000E9406148C01CE0101960E94AD1617FD35
:1043600007C04EE060EC77E289E090E00E94590DD2
:104370006EE673E0CE0101960E945616CE010196BC
:104380000E9406148C01CE0101960E94AD1617FD05
:1043900003C08DE00E94B20D6AE773E0CE01019682
:1043A0000E945616CE0101960E9406148C01CE0181
:1043B00001960E94AD1617FD07C04DE060EC77E254
:1043C00089E090E00E94590D65E873E0CE01019606
:1043D0000E945616CE0101960E9406148C01CE0151
:1043E00001960E94AD1617FD03C08CE00E94B20D2D
:1043F00061E973E0CE0101960E945616CE01019646
:104400000E9406148C01CE0101960E94AD1617FD84
:1044100007C04CE060E87FE482E190E00E94590D23
:104420006CE973E0CE0101960E945616CE0101960A
:104430000E9406148C01CE0101960E94AD1617FD54
:1044400003C081E08093060567EA73E0CE01019620
:104450000E945616CE0101960E9406148C01CE01D0
:1044600001960E94AD1617FF1092060563EB73E0EC
:10447000CE0101960E945616CE0101960E940614A6
:104480008C01CE0101960E94AD1617FD03C081E09C
:1044900080931B026EEB73E0CE0101960E945616CC
:1044A000CE0101960E9406148C01CE0101960E9455
:1044B000AD1617FF10921B026AEC73E0CE01019655
:1044C0000E945616CE0101960E9406148C01CE0160
:1044D00001960E94AD1617FD03C089E00E94B20D3F
:1044E00065ED73E0CE0101960E945616CE0101964D
:1044F0000E9406148C01CE0101960E94AD1617FD94
:1045000007C049E060EC77E289E090E00E94590D35
:104510006FED73E0CE0101960E945616CE01019612
:104520000E9406148C01CE0101960E94AD1617FF61
:1045300010921A026AEE73E0CE0101960E9456169E
:10454000CE0101960E9406148C01CE0101960E94B4
:10455000AD1617FD03C081E080931A0264EF73E08B
:10456000CE0101960E945616CE0101960E940614B5
:104570008C01CE0101960E94AD1617FD03C087E0A5
:104580000E94B20D6FEF73E0CE0101960E945616A5
:10459000CE0101960E9406148C01CE0101960E9464
:1045A000AD1617FD07C047E060EC77E289E090E0C8
:1045B0000E94590D69E074E0CE0101960E945616E2
:1045C000CE0101960E9406148C01CE0101960E9434
:1045D000AD1617FF1092190264E174E0CE01019646
:1045E0000E945616CE0101960E9406148C01CE013F
:1045F00001960E94AD1617FD03C081E08093190259
:104600006EE174E0CE0101960E945616CE0101962D
:104610000E9406148C01CE0101960E94AD1617FD72
:1046200026C068E274E088E695E00E94C7140AE0BC
:1046300010E00E94F50C0E94B6310E94510C0E94BD
:10464000510C0E94510C0E94600C0E94510C0E945F
:10465000510C0E94510C0E94600C0150110949F745
:1046600045E06CED75E080E090E00E94590D66E356
:1046700074E0CE0101960E945616CE0101960E946A
:1046800006148C01CE0101960E94AD1617FD26C0BE
:1046900060E474E088E695E00E94C7140AE010E048
:1046A0000E94F50C0E94B6310E94510C0E94510CE0
:1046B0000E94600C0E94600C0E94510C0E94510CE0
:1046C0000E94600C0E94600C0150110949F744E0FF
:1046D0006CED75E080E090E00E94590D6DE474E0AF
:1046E000CE0101960E945616CE0101960E94061434
:1046F0008C01CE0101960E94AD1617FD26C067E51C
:1047000074E088E695E00E94C7140AE010E00E9479
:10471000F50C0E94B6310E94510C0E94600C0E9460
:10472000510C0E94600C0E94510C0E94600C0E946F
:10473000510C0E94600C0150110949F743E06CEDE7
:1047400075E080E090E00E94590D65E674E0CE01CE
:1047500001960E945616CE0101960E9406148C0105
:10476000CE0101960E94AD1617FD03C081E0809333
:1047700018026FE674E0CE0101960E945616CE0133
:1047800001960E9406148C01CE0101960E94AD167E
:1047900017FF109218026AE774E0CE0101960E949A
:1047A0005616CE0101960E9406148C01CE01019688
:1047B0000E94AD1617FDB1C04FE050E06BE070E015
:1047C000CE0101960E946616CE0101960E94F81451
:1047D0007093760660937506CE0101960E94AD1621
:1047E00042E150E060E170E0CE0101960E94661661
:1047F000CE0101960E94F81460937706CE010196CF
:104800000E94AD1645E150E063E170E0CE010196F3
:104810000E946616CE0101960E94F81460937806F5
:10482000CE0101960E94AD1648E150E066E170E0CD
:10483000CE0101960E946616CE0101960E94F814E0
:1048400060937A06CE0101960E94AD164BE150E0CE
:1048500069E170E0CE0101960E946616CE010196D4
:104860000E94F81460937B06CE0101960E94AD165B
:104870001092290210917B0610932A02F0907A067A
:10488000F0922B02D0907806D0922C0200917706FD
:1048900000932D02E090750680E3E80EE0922E0270
:1048A0000E94FB09813009F0ECC087E08093790613
:1048B0008CE390E090936F0680936E0685E39DED08
:1048C000A0E5B2E48093660690936706A09368061D
:1048D000B09369068AE69AE5A6EAB1E480936A068F
:1048E00090936B06A0936C06B0936D0683E0809363
:1048F000700684E0809371069AE09093720680932C
:1049000073068CE380937406CC24C3942D2D4F2D15
:10491000612F80917C060E94A71361E57FE0CE01A4
:1049200042960E94D71466E07FE0CE0142960E9434
:10493000D71466EE7EE0CE0142960E94D71462E85C
:104940007EE0CE0142960E94D7146DE27EE0CE0159
:1049500042960E94D71466EE7DE0CE0142960E94F8
:10496000D71461EB7DE0CE0142960E94D71461E836
:104970007DE0CE0142960E94D71461E77DE0CE0132
:1049800042960E94D71460E67DE0CE0142960E94D6
:10499000D71460917806CE018D960E94B51660916D
:1049A0007706CE0187960E94B51680917506909184
:1049B00076061AA219A21CA21BA21EA21DA24AE0E0
:1049C000BE016F5F7F4F0E947736BE016F5F7F4FE2
:1049D000CE0181960E94AC15BE016F5D7F4FCE0166
:1049E00001960E943D1666E874E0CE0101960E9491
:1049F0006815BE01695D7F4F0E947C1566E874E012
:104A00000E946815BE01635D7F4F0E947C15BC014A
:104A1000CE01C9960E943D16CE0101960E94AD16A8
:104A2000CE0181960E94AD16CE0187960E94AD16EA
:104A3000CE018D960E94AD16BE01675C7F4FCE0100
:104A4000429673D8CE01C9960E94AD166EE57DE000
:104A5000CE0142960E94D714E0917906E15063ECB2
:104A600074E0E73090F4F0E08827E65CFA4D8F4F71
:104A70000C949F3C43251D292029232926292929D7
:104A80002C29815013CF68E874E0CE0101960E9472
:104A90005616BE016F5F7F4FCE01429646D8CE01BB
:104AA00001960E94AD1663E57DE0CE0142960E941C
:104AB000D71460917C06CE018D960E94B516609148
:104AC0007B06CE0187960E94B51660917A06CE01CC
:104AD00001960E94B516BE016F5F7F4FCE01819691
:104AE0000E943D1669ED72E0CE0181960E94681524
:104AF000BE01695D7F4F0E947C1569ED72E00E94E6
:104B00006815BE01635D7F4F0E947C15BC01CE011C
:104B1000C9960E943D16CE0181960E94AD16CE0127
:104B200001960E94AD16CE0187960E94AD16CE0169
:104B30008D960E94AD16BE01675C7F4FCE014296F6
:104B40000E94951DCE01C9960E94AD166CE47DE0D1
:104B5000CE0142960E94D71466E37DE0CE014296D4
:104B60000E94D71460914B06CE0101960E94B515A4
:104B7000BE016F5F7F4FCE0142960E94951DCE0110
:104B800001960E94AD1664E37DE0CE0142960E943C
:104B9000D71460914C06CE0101960E94B515BE0156
:104BA0006F5F7F4FCE0142960E94951DCE01019608
:104BB0000E94AD166AE17DE0CE0142960E94D714B4
:104BC00060914D06CE0101960E94B515BE016F5F42
:104BD0007F4FCE0142960E94951DCE0101960E9404
:104BE000AD1668E17DE0CE0142960E94D714609137
:104BF0004E06CE0101960E94B515BE016F5F7F4F34
:104C0000CE0142960E94951DCE0101960E94AD16DE
:104C10006CEF7CE0CE0142960E94D71460911E0298
:104C200070911F02CE0101960E941216BE016F5FA5
:104C30007F4FCE0142960E94951DCE0101960E94A3
:104C4000AD1665EF7CE0CE0142960E94D71467ED69
:104C50007CE0CE0142960E94D7146091050570E079
:104C6000CE0101960E941216BE016F5F7F4FCE01EA
:104C700042960E94951DCE0101960E94AD1660EDF0
:104C80007CE0CE0142960E94D7148091180268E819
:104C90007CE0882311F068E37CE0CE0142960E941C
:104CA000D7148091200262EF7BE0882311F064EA40
:104CB0007BE0CE0142960E94D7146BE67BE0CE01EA
:104CC00042960E94D71460911C0270911D02CE0181
:104CD00001960E941216BE016F5F7F4FCE01429671
:104CE0000E94951DCE0101960E94AD1669E57BE0FC
:104CF000CE0142960E94D71485E00E94300D63E1F8
:104D00007BE0882311F060ED7AE0CE0142960E94AC
:104D1000D71484E00E94300D6BE87AE0882311F00C
:104D200067E47AE0CE0142960E94D71463E37AE00A
:104D3000CE0142960E94D71463E17AE0CE014296FA
:104D40000E94D7144091010550910205609103051E
:104D500070910405CE0101960E94DE15BE016F5FC1
:104D60007F4FCE0142960E94951DCE0101960E9472
:104D7000AD1667E07AE0CE0142960E94D71480918A
:104D80001902882309F46BC264ED79E0CE014296E2
:104D90000E94D7144091FD045091FE046091FF04DD
:104DA00070910005CE0101960E94DE15BE016F5F75
:104DB0007F4FCE0142960E94951DCE0101960E9422
:104DC000AD166EEB79E0CE0142960E94D71487E0D3
:104DD0000E94300D6DE279E08823F1F06DEF78E00C
:104DE000CE0142960E94D71467E0CE0101960E9440
:104DF000E916BE016F5F7F4FCE0142960E94951D5E
:104E0000CE0101960E94AD166FEE78E0CE0142967B
:104E10000E94D71460EB78E0CE0142960E94D7142E
:104E200080911A02882309F43AC26DE778E0CE0136
:104E300042960E94D7144091F9045091FA0460916F
:104E4000FB047091FC04CE0101960E94DE15BE01A8
:104E50006F5F7F4FCE0142960E94951DCE01019655
:104E60000E94AD1667E678E0CE0142960E94D71404
:104E700089E00E94300D66ED77E08823F1F066EA64
:104E800077E0CE0142960E94D71469E0CE010196E8
:104E90000E94E916BE016F5F7F4FCE0142960E94CD
:104EA000951DCE0101960E94AD1668E977E0CE010E
:104EB00042960E94D71469E577E0CE0142960E949F
:104EC000D7146FE377E0CE0142960E94D71466E1D3
:104ED000CE0101960E94B515BE016F5F7F4FCE01D6
:104EE00042960E94951DCE0101960E94AD1660E289
:104EF00077E0CE0142960E94D71462E1CE0101967E
:104F00000E94B515BE016F5F7F4FCE0142960E9491
:104F1000951DCE0101960E94AD1668E177E0CE01A5
:104F200042960E94D71464E077E0CE0142960E9438
:104F3000D7148091F80467EC76E0811102C068E82C
:104F400076E0CE0142960E94D71480911B026AE35C
:104F500076E0811102C062EF75E0CE0142960E94B8
:104F6000D7148091060566EA75E0882311F066E3A0
:104F700075E0CE0142960E94D7148CE00E94300D5D
:104F800068EF74E08823C1F06BEB74E0CE014296C9
:104F90000E94D7146CE0CE0101960E94E916BE0172
:104FA0006F5F7F4FCE0142960E94951DCE01019604
:104FB0000E94AD166DEA74E0CE0142960E94D714AD
:104FC0008DE00E94300D6FE674E08823C1F062E34B
:104FD00074E0CE0142960E94D7146DE0CE01019696
:104FE0000E94E916BE016F5F7F4FCE0142960E947C
:104FF000951DCE0101960E94AD1664E274E0CE01CB
:1050000042960E94D7148EE00E94300D62EE73E04B
:105010008823C1F065EA73E0CE0142960E94D7145E
:105020006EE0CE0101960E94E916BE016F5F7F4FD0
:10503000CE0142960E94951DCE0101960E94AD16AA
:1050400063E973E0CE0142960E94D71463E873E0EF
:10505000CE0142960E94D7146BE273E0CE014296D5
:105060000E94D71469EE72E0CE0142960E94D714D6
:1050700063EA72E0CE0142960E94D71467E572E0BF
:10508000CE0142960E94D714CE0142960E94C414CB
:1050900068E472E0CE0142960E94D714CE01429697
:1050A0000E94C41466ED72E08CEE97E00E94AC158D
:1050B000CE0142960E94B51ACE01C3960E94AD164B
:1050C0008EE00E94300D60E0811101C061E089E155
:1050D0000E94240C8DE00E94300D60E0811101C01F
:1050E00061E086E10E94240C8CE00E94300D60E0BB
:1050F000811101C061E087E10E94240C89E00E94D7
:10510000300D60E0811101C061E08CE10E94240C4F
:1051100087E00E94300D60E0811101C061E08DE107
:105120000E94240C85E00E94300D60E0811101C0D6
:1051300061E08BE10E94240C84E00E94300D60E06D
:10514000811101C061E08AE10E94240C83E00E9489
:10515000300D60E0811101C061E088E10E94240C03
:105160008091050560E0811101C061E080E20E944C
:10517000240C80910605813051F44CE060E87FE416
:1051800082E190E00E94590D82E0809306058CE058
:105190000E94300D81110EC080910605823051F4BD
:1051A0004DE060EC77E289E090E00E94590D83E0E9
:1051B000809306058DE00E94300D81110DC0809115
:1051C0000605833049F44EE060EC77E289E090E038
:1051D0000E94590D1092060580917C0620917A0656
:1051E00090914B06291394C020917B0690914C0618
:1051F00029138EC081118DC080911A0581118BC039
:1052000081E080931A054FE060E878EA82E191E05E
:105210000E94590D80911802882309F47CC067EC24
:1052200074E088E695E00E94C71445E06CED75E0F7
:1052300080E090E00E94590D6EC065E974E025CCD5
:105240006CE974E022CC62EA74E01FCC6BEA74E093
:105250001CCC62EB74E019CC69EB74E016CC64E80A
:1052600079E0CE0142960E94D7144091FD045091FE
:10527000FE046091FF0470910005CE0101960E942A
:10528000DE15BE016F5F7F4FCE0142960E94951DD5
:10529000CE0101960E94AD1660E779E094CD6DE2F3
:1052A00078E0CE0142960E94D7144091F9045091C3
:1052B000FA046091FB047091FC04CE0101960E94F7
:1052C000DE15BE016F5F7F4FCE0142960E94951D95
:1052D000CE0101960E94AD1669E178E0C5CD66ED7C
:1052E00072E0CE01C3960E94AC150C9471201D3063
:1052F00011F40C94712019831A8241E050E0BE0130
:105300006F5F7F4FCE01C3960E942B150C947120C6
:10531000811110921A0580917C0620917A06909155
:105320004D06291375C120917B0690914E062913D5
:105330006FC181116EC180911B0581116CC181E02B
:1053400080931B0580911802882369F060EE74E059
:1053500088E695E00E94C71444E06CED75E080E0BB
:1053600090E00E94590D30917A0620917C063431EC
:1053700009F06FC180917B068F3009F06AC121115D
:105380006BC180911C05811107C081E080931C05D1
:1053900090911B02911163C180914D06381312C088
:1053A00040917B0680914E0690E0059648171906BD
:1053B00049F4211107C080910505811103C081E0E6
:1053C00080930505323059F480917B068A3039F498
:1053D000211105C0809105058111109205050E94DB
:1053E000240D00917D0610917E0620917F0630915C
:1053F0008006601771078207930798F0D901C801EA
:1054000088519C4FAF4FBF4F80937D0690937E068F
:10541000A0937F06B093800680917C068F5F809377
:105420007C0680917C068C3338F080917B068F5F00
:1054300080937B0610927C0680917B068C3338F03B
:1054400080917A068F5F80937A0610927B06809116
:105450007A06883160F080917906909178069F5F96
:10546000909378068F5F8093790610927A068091E8
:105470007906883018F081E080937906809177066C
:10548000823051F4809178068D3131F483E080933D
:10549000770681E08093780680917706982F9D7F2C
:1054A000943011F0993051F4909178069F3130F09A
:1054B0008F5F8093770681E08093780680917706EE
:1054C000982F9D7F913051F0853041F099EF980FE2
:1054D000923020F08A3011F08C3051F4909178069F
:1054E000903230F08F5F8093770681E0809378066A
:1054F000809177068D3060F08091750690917606E8
:1055000021E02093770601969093760680937506A6
:10551000E090750620E3E20EC12C00917706209101
:10552000780640917A0660917B0680917C060E9405
:10553000A7130E948E0E80E192E00E94EE0E60930F
:10554000010570930205809303059093040588E09C
:1055500092E00E94EE0E6093F9047093FA04809337
:10556000FB049093FC0480E092E00E94EE0E6093B6
:10557000FD047093FE048093FF04909300058091D6
:105580007B00877F80937B0080E480937C00809108
:105590007A00806480937A0080917A0086FDFCCF47
:1055A0009091780080917900892798278927909396
:1055B0001F0280931E02E9EBFFE08491EFE5F1E129
:1055C0000491E9E1F1E11491112379F081110E9434
:1055D000BD0BE12FF0E0EE0FFF1FEF51FF4EA59145
:1055E000B491EC91E02381E009F480E08170809334
:1055F000F804EE960FB6F894DEBF0FBECDBFDF9174
:10560000CF911F910F91FF90EF90DF90CF90089571
:10561000811110921B0520911E0230911F02809172
:105620001C0290911D022817390709F09CCE8FE0CB
:105630000E94300D811197CE80912002882309F4B9
:1056400092CE4FE060E87EEE86E390E00E94590D36
:1056500079CE222309F4A0CE10921C059DCE909104
:10566000F804911199CE8093060596CEFC018485AD
:10567000883010F40C94131F90E080E008958F920E
:105680009F92AF92BF92CF92DF92EF92FF920F93D1
:105690001F93CF93DF9300D000D000D01F92CDB7DF
:1056A000DEB790916605911115C018E0812F2A96FA
:1056B0000FB6F894DEBF0FBECDBFDF91CF911F9123
:1056C0000F91FF90EF90DF90CF90BF90AF909F90A1
:1056D0008F90089528E0F22E933311F494E0F92E80
:1056E0006B01082F80E591E00E94850A9E012F5FE3
:1056F0003F4F5901490110E0812F0E945D1AF401CA
:1057000081934F018823C1F01F5FF112F5CFF12C77
:10571000F50191915F019D3149F0983139F09A512D
:10572000923020F0F3941F11F3CFBFCF60E170E00F
:105730008F2D0E942C1A1F2DE12EF12CF701EE0F58
:10574000FF1FEA5AFA4F1182108283EE93E001970D
:10575000F1F7402F70E060E0812F0E94BE104FEF04
:1057600062E070E0812F0E94BE10B601CD2889F45E
:10577000809121029091220201968115F0EC9F0701
:1057800098F19093220280932102609121027091FE
:105790002202812F0E94A91061E070E0812F0E94F7
:1057A0002C1A27E02E9DC0012F9D900D11249C01E5
:1057B000225E3A4F7901F9011182108222E030E035
:1057C000AE01475F5F4F68E270E0812F0E94191BB6
:1057D00089859A85982789279827F701938382835B
:1057E00016821582148262CF80E090ECCACF0F93AC
:1057F0001F93CF93DF93EC018B01888D883010F4D9
:105800000E94461AB80182E03ADF888F883050F44F
:105810001D870C871A8E198E81E0DF91CF911F9121
:105820000F91089580E0F9CF0F931F93CF938C01D0
:10583000FC016481758181E222DFC82F8830F8F491
:1058400080E591E00E94850A8C2F0E945D1A8331C9
:1058500031F08C2FCF911F910F910C943B1A62E085
:1058600070E08C2F0E942C1AF80184819581EC2F16
:10587000F0E0EE0FFF1FEA5AFA4F91838083CF9139
:105880001F910F910895CF92DF92EF92FF921F9395
:10589000CF93DF93EC017B016A018C85883048F45B
:1058A0000E94601A882319F08C850E943B1A88E0B8
:1058B0008C87F70182819381A481B5810097A1052E
:1058C000B10551F490E080E0DF91CF911F91FF90FE
:1058D000EF90DF90CF9008958F3F9F4FAF4FBF4F16
:1058E00089F370E060E081E2CADE182F8C8788308F
:1058F00048F780E591E00E94850AA7014E5F5F4F5F
:1059000024E030E06CE070E0812F0E948410B6014A
:10591000812F0E94941064E070E0812F0E942C1A65
:105920000E94240D6B017C018C850E94601A8731D6
:1059300011F18C3101F1882329F20E94240DAB0171
:10594000BC014C195D096E097F098D859E85B0E00B
:10595000A0E084179507A607B70738F061E070E06C
:1059600080E090E00E94C50CDFCF8C850E94461A33
:1059700088E08C87A7CF81E090E0A6CF0F931F939C
:10598000CF93DF931F921F92CDB7DEB7FC01248522
:105990002830E0F48C0180E591E00E94850A22E045
:1059A00030E0AE014F5F5F4F60E170E0F801848549
:1059B0000E94191B89819A819827892798270F901F
:1059C0000F90DF91CF911F910F91089590E080E0AB
:1059D000F6CF0F931F93CF93DF931F921F92CDB7F4
:1059E000DEB7FC0124852830E0F48C0180E591E0ED
:1059F0000E94850A22E030E0AE014F5F5F4F64E015
:105A000070E0F80184850E94191B89819A8198278A
:105A1000892798270F900F90DF91CF911F910F91B9
:105A2000089590E080E0F6CF0F931F93CF93DF931C
:105A300000D000D01F921F92CDB7DEB78C01D801E5
:105A400059964D915C915A974115510551F0ED9140
:105A5000FC91048CF58DE02D70E060E0C801199593
:105A6000EECFF801808D0E94161E892BB1F148E01F
:105A700050E0BE016F5F7F4FD80158968C910E9415
:105A8000131F18161906F4F4D801509684E0FE018D
:105A9000319601900D928A95E1F78D8190E0982FD3
:105AA00088272E81820F911DF801958B848B8F8121
:105AB000282F30E0322F22278885820F932F911DC7
:105AC000928F818F28960FB6F894DEBF0FBECDBFA0
:105AD000DF91CF911F910F91089590E080E0F2CF78
