:100000000C94FE0E0C942F0F0C942F0F0C942F0FAA
:100010000C942F0F0C942F0F0C942F0F0C942F0F68
:100020000C942F0F0C942F0F0C942F0F0C942F0F58
:100030000C942F0F0C942F0F0C942F0F0C942F0F48
:100040000C942F0F0C942F0F0C942F0F0C942F0F38
:100050000C942F0F0C942F0F0C942F0F0C94054F12
:100060000C942F0F0C94CF4E0C94A54E0C942F0F84
:100070000C942F0F0C942F0F0C942F0F0C942F0F08
:100080000C942F0F0C942F0F0C942F0F0C942F0FF8
:100090000C942F0F0C942F0F0C942F0F0C942F0FE8
:1000A0000C942F0F0C942F0F0C942F0F0C942F0FD8
:1000B0000C942F0F0C942F0F0C942F0F0C942F0FC8
:1000C0000C942F0F0C942F0F0C942F0F0C942F0FB8
:1000D0000C942F0F0C942F0F0C942F0F0C942F0FA8
:1000E0000C942F0F072C7AA5BA6CC590DA3B936558
:1000F000FC8BBC53F810FD3C5692834DBD879D3A56
:10010000B63DCBC9BF5BBE73DA0FC93F05A84CCD66
:10011000B2D44EB93836A9020C50B9918688083C41
:10012000A6AAAA2ABE000000803F0664EC1B3C047D
:10013000BC163E3BE5B93CC93C37C29E5A3D6604FD
:1001400098083EEA69AAAA3E000000803F000040ED
:100150007A10F35A00A0724E18090010A5D4E800D6
:1001600000E87648170000E40B54020000CA9A3BEE
:10017000000000E1F5050000809698000000404274
:100180000F000000A0860100000010270000000002
:10019000E803000000006400000000000A00000006
:1001A00000000100000000002C76D888DC674F08B2
:1001B00023DFC1DFAE59E1B1B796E5E3E453C63AB8
:1001C000E651997696E8E6C28426EB898C9B62ED2F
:1001D000407C6FFCEFBC9C9F40F2BAA56FA5F490E9
:1001E000055A2AF75C936B6CF9676DC11BFCE0E460
:1001F0000D47FEF520E6B500D0ED902E03009435B6
:1002000077050080841E080000204E0A000000C808
:100210000C333333330F986E12831141EF8D211459
:10022000893BE65516CFFEE6DB18D1844B381BF729
:100230007C1D901DA4BBE424203284725E228100C8
:10024000C9F124ECA1E53D273C2F626F64793E3C67
:100250002F68746D6C3E003C6120687265663D22BB
:100260002F6E6F7468696E67223E3C627574746F9E
:100270006E20636C6173733D22627574746F6E20BF
:10028000627574746F6E32223E5265667265736871
:10029000203C2F627574746F6E3E3C2F613E3C2F84
:1002A000703E003C7461626C65207374796C653DCE
:1002B0006261636B67726F756E642D636F6C6F72D2
:1002C0003A234646464646463E3C74723E3C746877
:1002D0003E4E6F2E3C2F74683E3C74683E44617401
:1002E000613C2F74683E3C74683E476F647A696E67
:1002F000613C2F74683E3C74683E4F73772E3C2FF0
:1003000074683E3C74683E54656D70313C2F74686F
:100310003E3C74683E54656D70323C2F74683E3CC0
:1003200074683E54656D70333C2F74683E3C2F7486
:10033000723E0020433C2F48353E0020433C2F486E
:10034000353E3C48353E54656D706572617475721A
:1003500061206E6F636E613A20003C68353E5465E3
:100360006D706572617475726120647A69656E6E14
:10037000613A20003C6120687265663D222F392F6A
:100380006F6666223E3C627574746F6E20636C61AA
:1003900073733D22627574746F6E223E53544F50D6
:1003A000213C2F627574746F6E3E3C2F613E3C2F72
:1003B000703E003C2F627574746F6E3E3C2F613E40
:1003C000003C6120687265663D222F392F6F6E22D6
:1003D0003E3C627574746F6E20636C6173733D2272
:1003E000627574746F6E20627574746F6E32223E23
:1003F000003C6120687265663D222F392F6F6E22A6
:100400003E3C627574746F6E20636C6173733D2241
:10041000627574746F6E223E3130206D696E2E20CD
:100420004F6E3C2F627574746F6E3E3C2F613E3C84
:100430002F703E002743206E6F633C2F62757474EB
:100440006F6E3E3C2F613E003C703E3C6120687206
:1004500065663D222F382F6F6E223E3C62757474A4
:100460006F6E20636C6173733D22627574746F6E7E
:1004700020627574746F6E32223E506172746572C0
:100480002000274320647A69656E3C2F627574747E
:100490006F6E3E3C2F613E003C703E3C61206872B6
:1004A00065663D222F382F6F6666223E3C6275746A
:1004B000746F6E20636C6173733D22627574746F28
:1004C0006E223E50617274657220003C6120687239
:1004D00065663D222F372F6F6666223E3C6275743B
:1004E000746F6E20636C6173733D22627574746FF8
:1004F0006E223E53544F50213C2F627574746F6EC0
:100500003E3C2F613E3C2F703E003C2F6275747460
:100510006F6E3E3C2F613E003C6120687265663D17
:10052000222F372F6F6E223E3C627574746F6E20DF
:10053000636C6173733D22627574746F6E206275B3
:1005400074746F6E32223E003C6120687265663DB5
:10055000222F372F6F6E223E3C627574746F6E20AF
:10056000636C6173733D22627574746F6E223E31E9
:1005700030206D696E2E204F6E3C2F627574746F43
:100580006E3E3C2F613E3C2F703E002743206E6F35
:10059000633C2F627574746F6E3E3C2F613E003C6D
:1005A000703E3C6120687265663D222F362F6F6E6B
:1005B000223E3C627574746F6E20636C6173733D90
:1005C00022627574746F6E20627574746F6E32225D
:1005D0003E50696574726F2000274320647A696514
:1005E0006E3C2F627574746F6E3E3C2F613E003C12
:1005F000703E3C6120687265663D222F362F6F6623
:1006000066223E3C627574746F6E20636C61737316
:100610003D22627574746F6E223E50696574726F0C
:1006200020003C48333E4F67727A6577616E69659A
:100630003C2F48333E003C2F627574746F6E3E3C15
:100640002F613E3C2F703E003C6120687265663D24
:10065000222F31342F6F6666223E3C627574746FB0
:100660006E20636C6173733D22627574746F6E20CB
:10067000627574746F6E32223E53746F70205A32FA
:10068000207A6120003C6120687265663D222F312E
:10069000342F6F6E223E3C627574746F6E20636CF3
:1006A0006173733D22627574746F6E223E53746180
:1006B0007274205A323C2F627574746F6E3E3C2FF8
:1006C000613E3C2F703E003C2F627574746F6E3E2D
:1006D0003C2F613E003C6120687265663D222F31EF
:1006E000332F6F6666223E3C627574746F6E2063B2
:1006F0006C6173733D22627574746F6E20627574E1
:10070000746F6E32223E53746F70205A31207A61BA
:1007100020003C6120687265663D222F31332F6FC7
:100720006E223E3C627574746F6E20636C617373ED
:100730003D22627574746F6E223E53746172742030
:100740005A313C2F627574746F6E3E3C2F613E00CF
:100750003C2F627574746F6E3E3C2F613E003C61AD
:1007600020687265663D222F31322F6F6666223E09
:100770003C627574746F6E20636C6173733D2262AA
:100780007574746F6E20627574746F6E32223E538E
:10079000746F70204C4B207A6120003C612068729D
:1007A00065663D222F31322F6F6E223E3C6275749A
:1007B000746F6E20636C6173733D22627574746F25
:1007C0006E223E5374617274204C4B3C2F627574E0
:1007D000746F6E3E3C2F613E003C6120687265661E
:1007E0003D222F31312F6F6666223E3C6275747454
:1007F0006F6E20636C6173733D22627574746F6EEB
:1008000020627574746F6E32223E43796B6C207077
:100810006F646C6577616E69652077207472616BB7
:100820006369652C206E61647A69736E696A2062FF
:1008300079207A6174727A796D61633C2F62757484
:10084000746F6E3E3C2F613E003C612068726566AD
:100850003D222F31312F6F6E223E3C627574746FD2
:100860006E20636C6173733D22627574746F6E22C7
:100870003E53746172742063796B6C7520706F6481
:100880006C6577616E69613C2F627574746F6E3E42
:100890003C2F613E003C6120687265663D222F312D
:1008A000302F6F6E223E3C627574746F6E20636CE5
:1008B0006173733D22627574746F6E20223E506FB7
:1008C000646C6577616E6965205265637A6E653C1C
:1008D0002F627574746F6E3E3C2F613E003C612048
:1008E000687265663D222F31302F6F6666223E3C6E
:1008F000627574746F6E20636C6173733D226275F0
:1009000074746F6E20627574746F6E32223E506F15
:10091000646C6577616E6965204175746F3C2F6208
:100920007574746F6E3E3C2F613E003C703E3C69B6
:100930006E70757420747970653D636865636B6271
:100940006F78206F6E636C69636B3D72657475724E
:100950006E2066616C736520756E636865636B6598
:10096000643E204465737A637A003C703E3C696E55
:1009700070757420747970653D636865636B626F30
:1009800078206F6E636C69636B3D72657475726E0F
:100990002066616C736520636865636B65643E20E7
:1009A0004465737A637A003C48333E506F646C65EB
:1009B00077616E69653C2F48333E003C6120687268
:1009C00065663D222F332F6F6E223E3C6275747434
:1009D0006F6E20636C6173733D22627574746F6E09
:1009E000223E526F6C6574792073746F703C2F6275
:1009F0007574746F6E3E3C2F613E3C2F703E003C20
:100A00006120687265663D222F342F6F6E223E3C56
:100A1000627574746F6E20636C6173733D226275CE
:100A200074746F6E223E4F7075736320726F6C65C5
:100A300074793C2F627574746F6E3E3C2F613E3C3E
:100A40002F703E003C703E3C6120687265663D221E
:100A50002F332F6F6E223E3C627574746F6E20636D
:100A60006C6173733D22627574746F6E223E526FB7
:100A70006C6574792073746F703C2F627574746F39
:100A80006E3E3C2F613E003C703E3C6120687265CA
:100A9000663D222F352F6F6E223E3C627574746F57
:100AA0006E20636C6173733D22627574746F6E2285
:100AB0003E506F646E69657320726F6C6574793C2B
:100AC0002F627574746F6E3E3C2F613E003C2F6246
:100AD0007574746F6E3E3C2F613E3C2F703E003C3F
:100AE0006120687265663D222F31352F6F6E223E80
:100AF0003C627574746F6E20636C6173733D226227
:100B00007574746F6E223E536574206C69676874E7
:100B1000206C6576656C3A003C6120687265663DC4
:100B2000222F31362F6F6666223E3C627574746FD9
:100B30006E20636C6173733D22627574746F6E20F6
:100B4000627574746F6E32223E4C696768742073EC
:100B5000656E736F72206F6E3C2F627574746F6E6A
:100B60003E3C2F613E003C6120687265663D222F4D
:100B700031362F6F6E223E3C627574746F6E206347
:100B80006C6173733D22627574746F6E223E4C69A2
:100B90006768742073656E736F72206F66663C2F92
:100BA000627574746F6E3E3C2F613E003C703E3C3B
:100BB0006120687265663D222F322F6F6666223E85
:100BC0003C627574746F6E20636C6173733D226256
:100BD0007574746F6E20627574746F6E32223E424B
:100BE0006C696E64732054696D6572204F6E3C2F82
:100BF000627574746F6E3E3C2F613E003C703E3CEB
:100C00006120687265663D222F322F6F6E223E3C56
:100C1000627574746F6E20636C6173733D226275CC
:100C200074746F6E223E426C696E64732054696DF9
:100C30006572204F66663C2F627574746F6E3E3C21
:100C40002F613E00203C2F68353E00203C2F683548
:100C50003E3C68353E204C616D70792077206F678F
:100C6000726F647A69653A2000203C2F68353E0037
:100C7000203C2F68353E3C68353E2053656E736FCF
:100C8000722073776961746C613A20003A003C2FDE
:100C900068353E3C68353E205A6163686F64207356
:100CA0006C6F6E63613A20003A00203C68353E204C
:100CB000577363686F6420736C6F6E63613A2000D2
:100CC0003C48333E526F6C6574793C2F48333E008C
:100CD0003C6120687265663D222F34302F6F6E2292
:100CE0003E3C627574746F6E20636C6173733D2259
:100CF000627574746F6E20627574746F6E223E53E9
:100D0000544F50213C2F627574746F6E3E3C2F61BE
:100D10003E3C2F703E003C6120687265663D222F8C
:100D200033392F6F6E223E3C627574746F6E206390
:100D30006C6173733D22627574746F6E206275749A
:100D4000746F6E223E5720646F6C3C2F6275747412
:100D50006F6E3E3C2F613E003C703E3C61206872ED
:100D600065663D222F33382F6F6E223E3C627574CC
:100D7000746F6E20636C6173733D22627574746F5F
:100D80006E20627574746F6E223E526F6C6574795A
:100D90002077696174726F6C61702C206C617A6964
:100DA000656E6B61207061727465722028312C321F
:100DB00029207720676F72653C2F627574746F6E9F
:100DC0003E3C2F613E003C6120687265663D222FEB
:100DD00035322F6F6E223E3C627574746F6E2063E5
:100DE0006C6173733D22627574746F6E20627574EA
:100DF000746F6E223E53544F50213C2F62757474B1
:100E00006F6E3E3C2F613E3C2F703E003C6120687F
:100E10007265663D222F35312F6F6E223E3C627522
:100E200074746F6E20636C6173733D2262757474A9
:100E30006F6E20627574746F6E223E5720646F6C03
:100E40003C2F627574746F6E3E3C2F613E003C70A7
:100E50003E3C6120687265663D222F35302F6F6EF3
:100E6000223E3C627574746F6E20636C6173733DD7
:100E700022627574746F6E20627574746F6E223E98
:100E8000526F6C657479206B7563686E6961202898
:100E90003329207720676F72653C2F627574746FF9
:100EA0006E3E3C2F613E003C6120687265663D22CB
:100EB0002F32322F6F6E223E3C627574746F6E203B
:100EC000636C6173733D22627574746F6E2062751A
:100ED00074746F6E223E53544F50213C2F627574D0
:100EE000746F6E3E3C2F613E3C2F703E003C612093
:100EF000687265663D222F32312F6F6E223E3C6252
:100F00007574746F6E20636C6173733D22627574C7
:100F1000746F6E20627574746F6E223E5720646F1A
:100F20006C3C2F627574746F6E3E3C2F613E003CCA
:100F3000703E3C6120687265663D222F32302F6F13
:100F40006E223E3C627574746F6E20636C617373C5
:100F50003D22627574746F6E20627574746F6E22B8
:100F60003E526F6C6574792073616C6F6E206F6494
:100F7000206F67726F647520283429207720676F8F
:100F800072653C2F627574746F6E3E3C2F613E003B
:100F90003C6120687265663D222F34362F6F6E22C9
:100FA0003E3C627574746F6E20636C6173733D2296
:100FB000627574746F6E20627574746F6E223E5326
:100FC000544F50213C2F627574746F6E3E3C2F61FC
:100FD0003E3C2F703E003C6120687265663D222FCA
:100FE00034352F6F6E223E3C627574746F6E2063D1
:100FF0006C6173733D22627574746F6E20627574D8
:10100000746F6E223E5720646F6C3C2F627574744F
:101010006F6E3E3C2F613E003C703E3C612068722A
:1010200065663D222F34342F6F6E223E3C6275740C
:10103000746F6E20636C6173733D22627574746F9C
:101040006E20627574746F6E223E526F6C65747997
:101050002073616C6F6E206F6420746172617375B0
:1010600020283529207720676F72653C2F627574C0
:10107000746F6E3E3C2F613E003C61206872656675
:101080003D222F33342F6F6E223E3C627574746F95
:101090006E20636C6173733D22627574746F6E2091
:1010A000627574746F6E223E53544F50213C2F6210
:1010B0007574746F6E3E3C2F613E3C2F703E003C59
:1010C0006120687265663D222F33332F6F6E223E9A
:1010D0003C627574746F6E20636C6173733D226241
:1010E0007574746F6E20627574746F6E223E572033
:1010F000646F6C3C2F627574746F6E3E3C2F613E62
:10110000003C703E3C6120687265663D222F3332A0
:101110002F6F6E223E3C627574746F6E20636C613B
:1011200073733D22627574746F6E20627574746F90
:101130006E223E526F6C6574792073616C6F6E2005
:1011400074617261732077656A7363696F77652074
:10115000283629207720676F72653C2F627574747A
:101160006F6E3E3C2F613E003C6120687265663DBB
:10117000222F35382F6F6E223E3C627574746F6E6D
:1011800020636C6173733D22627574746F6E2062AC
:101190007574746F6E223E53544F50213C2F62750C
:1011A00074746F6E3E3C2F613E3C2F703E003C617C
:1011B00020687265663D222F35372F6F6E223E3CC8
:1011C000627574746F6E20636C6173733D22627517
:1011D00074746F6E20627574746F6E223E57206453
:1011E0006F6C3C2F627574746F6E3E3C2F613E00D5
:1011F0003C703E3C6120687265663D222F35362F7B
:101200006F6E223E3C627574746F6E20636C617306
:10121000733D22627574746F6E20627574746F6EA4
:10122000223E526F6C6574792073616C6F6E20740E
:101230006172617320736C6570652028372920778F
:1012400020676F72653C2F627574746F6E3E3C2F21
:10125000613E003C6120687265663D222F31392F66
:101260006F6E223E3C627574746F6E20636C6173A6
:10127000733D22627574746F6E20627574746F6E44
:10128000223E53544F50213C2F627574746F6E3E52
:101290003C2F613E3C2F703E003C612068726566C9
:1012A0003D222F31382F6F6E223E3C627574746F71
:1012B0006E20636C6173733D22627574746F6E206F
:1012C000627574746F6E223E5720646F6C3C2F629F
:1012D0007574746F6E3E3C2F613E003C703E3C6105
:1012E00020687265663D222F31372F6F6E223E3C9B
:1012F000627574746F6E20636C6173733D226275E6
:1013000074746F6E20627574746F6E223E526F6CCF
:1013100065747920772073797069616C6E69202813
:101320003829207720676F72653C2F627574746F5F
:101330006E3E3C2F613E003C6120687265663D2236
:101340002F34332F6F6E223E3C627574746F6E20A3
:10135000636C6173733D22627574746F6E20627585
:1013600074746F6E223E53544F50213C2F6275743B
:10137000746F6E3E3C2F613E3C2F703E003C6120FE
:10138000687265663D222F34322F6F6E223E3C62BA
:101390007574746F6E20636C6173733D2262757433
:1013A000746F6E20627574746F6E223E5720646F86
:1013B0006C3C2F627574746F6E3E3C2F613E003C36
:1013C000703E3C6120687265663D222F34312F6F7C
:1013D0006E223E3C627574746F6E20636C61737331
:1013E0003D22627574746F6E20627574746F6E2224
:1013F0003E526F6C65747920707261636F776E69AD
:10140000612062616C6B6F6E20283929207720671C
:101410006F72653C2F627574746F6E3E3C2F613E37
:10142000003C6120687265663D222F33312F6F6E5C
:10143000223E3C627574746F6E20636C6173733D01
:1014400022627574746F6E20627574746F6E223EC2
:1014500053544F50213C2F627574746F6E3E3C2F75
:10146000613E3C2F703E003C6120687265663D2203
:101470002F33302F6F6E223E3C627574746F6E2076
:10148000636C6173733D22627574746F6E20627554
:1014900074746F6E223E5720646F6C3C2F627574BB
:1014A000746F6E3E3C2F613E003C703E3C61206894
:1014B0007265663D222F32392F6F6E223E3C627577
:1014C00074746F6E20636C6173733D226275747403
:1014D0006F6E20627574746F6E223E526F6C65740D
:1014E0007920707261636F776E6961206D616C65E0
:1014F0002028313029207720676F72653C2F627574
:1015000074746F6E3E3C2F613E003C6120687265D2
:10151000663D222F35352F6F6E223E3C6275747406
:101520006F6E20636C6173733D22627574746F6EAD
:1015300020627574746F6E223E53544F50213C2FBD
:10154000627574746F6E3E3C2F613E3C2F703E009E
:101550003C6120687265663D222F35342F6F6E2204
:101560003E3C627574746F6E20636C6173733D22D0
:10157000627574746F6E20627574746F6E223E575C
:1015800020646F6C3C2F627574746F6E3E3C2F61EB
:101590003E003C703E3C6120687265663D222F35FE
:1015A000332F6F6E223E3C627574746F6E20636CD5
:1015B0006173733D22627574746F6E20627574740A
:1015C0006F6E223E526F6C657479206C617A69652A
:1015D0006E6B612070696574726F2028313129202B
:1015E0007720676F72653C2F627574746F6E3E3C36
:1015F0002F613E003C6120687265663D222F3235C6
:101600002F6F6E223E3C627574746F6E20636C6146
:1016100073733D22627574746F6E20627574746F9B
:101620006E223E53544F50213C2F627574746F6E7E
:101630003E3C2F613E3C2F703E003C61206872654D
:10164000663D222F32342F6F6E223E3C62757474D9
:101650006F6E20636C6173733D22627574746F6E7C
:1016600020627574746F6E223E5720646F6C3C2F3D
:10167000627574746F6E3E3C2F613E003C703E3C60
:101680006120687265663D222F32332F6F6E223ED5
:101690003C627574746F6E20636C6173733D22627B
:1016A0007574746F6E20627574746F6E223E526F23
:1016B0006C657479204A61676F6461202831322932
:1016C000207720676F72653C2F627574746F6E3E71
:1016D0003C2F613E003C6120687265663D222F34DC
:1016E000392F6F6E223E3C627574746F6E20636C8E
:1016F0006173733D22627574746F6E2062757474C9
:101700006F6E223E53544F50213C2F627574746F9C
:101710006E3E3C2F613E3C2F703E003C6120687263
:1017200065663D222F34382F6F6E223E3C62757401
:10173000746F6E20636C6173733D22627574746F95
:101740006E20627574746F6E223E5720646F6C3C1D
:101750002F627574746F6E3E3C2F613E003C703E8C
:101760003C6120687265663D222F34372F6F6E22F0
:101770003E3C627574746F6E20636C6173733D22BE
:10178000627574746F6E20627574746F6E223E524F
:101790006F6C657479204D696B6F6C616A202831BC
:1017A0003329207720676F72653C2F627574746FE0
:1017B0006E3E3C2F613E003C48333E526F6C657478
:1017C000793C2F48333E003C6120687265663D22BB
:1017D0002F36322F6F6E223E3C627574746F6E200E
:1017E000636C6173733D22627574746F6E206275F1
:1017F00074746F6E223E4F64637A797420706172E4
:10180000616D6574726F773C2F627574746F6E3E94
:101810003C2F613E3C2F703E003C61206872656643
:101820003D222F36372F6F6E223E3C627574746FE7
:101830006E20636C6173733D22627574746F6E20E9
:10184000627574746F6E223E4F67727A6577616E4F
:1018500069653C2F627574746F6E3E3C2F613E006B
:101860003C6120687265663D222F36362F6F6E22EE
:101870003E3C627574746F6E20636C6173733D22BD
:10188000627574746F6E20627574746F6E223E5050
:101890006F646C6577616E69653C2F627574746FF7
:1018A0006E3E3C2F613E003C6120687265663D22C1
:1018B0002F36352F6F6E223E3C627574746F6E202A
:1018C000636C6173733D22627574746F6E20627510
:1018D00074746F6E223E54696D65727920726F6CFC
:1018E00065743C2F627574746F6E3E3C2F613E00D0
:1018F0003C703E3C6120687265663D222F36342F75
:101900006F6E223E3C627574746F6E20636C6173FF
:10191000733D22627574746F6E20627574746F6E9D
:10192000223E526F6C6574793C2F627574746F6ED1
:101930003E3C2F613E0020433C2F423E3C2F483529
:101940003E003C68353E54656D7065726174757219
:1019500061207A65776E6574727A6E613A203C42D6
:101960003E00203C2F68353E003A003A002055707A
:1019700074696D653A200020676F647A696E613A18
:10198000200020003C68353E20447A6973206A6557
:1019900073743A20003C626F64793E3C48313E48A3
:1019A0006F6D6520436F6E74726F6C20446F6D6550
:1019B0006B204F7A61726F772056302E3037413C62
:1019C0002F48313E002E627574746F6E32207B6238
:1019D00061636B67726F756E642D636F6C6F723AC3
:1019E00020233737383738413B7D7461626C652C72
:1019F0002074682C207464207B2020626F726465E0
:101A0000723A2031707820736F6C696420626C6167
:101A1000636B3B6D617267696E2D6C6566743A61CC
:101A200075746F3B6D617267696E2D72696768745A
:101A30003A6175746F3B7D3C2F7374796C653E3CE5
:101A40002F686561643E00746578742D6465636F0A
:101A5000726174696F6E3A206E6F6E653B20666FBF
:101A60006E742D73697A653A20333070783B206D3F
:101A7000617267696E3A203270783B2063757273C9
:101A80006F723A20706F696E7465723B7D002E62D2
:101A90007574746F6E207B206261636B67726F7503
:101AA0006E642D636F6C6F723A2023313935423684
:101AB000413B20626F726465723A206E6F6E653BC7
:101AC00020636F6C6F723A2077686974653B207091
:101AD000616464696E673A20313670782034307002
:101AE000783B003C7374796C653E68746D6C207B48
:101AF00020666F6E742D66616D696C793A20486559
:101B00006C7665746963613B20646973706C61799C
:101B10003A20696E6C696E652D626C6F636B3B2059
:101B20006D617267696E3A20307078206175746FEC
:101B30003B20746578742D616C69676E3A2063652B
:101B40006E7465723B7D003C6C696E6B2072656CD7
:101B50003D2269636F6E2220687265663D22646172
:101B600074613A2C223E003C686561643E3C6D65C0
:101B70007461206E616D653D2276696577706F7264
:101B8000742220636F6E74656E743D22776964748D
:101B9000683D6465766963652D77696474682C2097
:101BA000696E697469616C2D7363616C653D312286
:101BB0003E003C21444F43545950452068746D6C9D
:101BC0003E3C68746D6C3E007C3C3E5E2B3D3F2F7E
:101BD0005B5D3B2C2A225C000000210024002700D2
:101BE0002A002D003000330001010000040107012C
:101BF0000A0100002200250028002B002E003100E1
:101C0000340002010000050108010B0100000A0B6D
:101C100002090C0D0E08070304010000000000007B
:101C200000000000000000000000000000000000B4
:101C30000000000000000000121110000000000071
:101C40000000000000000000000000000000000094
:101C50000000005EBCE2613FDD83C29C7E20A3FDEC
:101C60001F419DC3217FFCA2401E5F01E3BD3E607A
:101C700082DC237D9FC1421CFEA0E1BF5D0380DEAC
:101C80003C62BEE0025CDF81633D7C22C09E1D435E
:101C9000A1FF4618FAA427799BC584DA3866E5BB0C
:101CA0005907DB856739BAE406581947A5FB78263A
:101CB000C49A653BD987045AB8E6A7F91B45C6986C
:101CC0007A24F8A6441A99C7257B3A6486D85B051E
:101CD000E7B98CD2306EEDB3510F4E10F2AC2F71CC
:101CE00093CD114FADF3702ECC92D38D6F31B2ECFA
:101CF0000E50AFF1134DCE90722C6D33D18F0C522C
:101D0000B0EE326C8ED0530DEFB1F0AE4C1291CFDD
:101D10002D73CA947628ABF517490856B4EA69378B
:101D2000D58B5709EBB536688AD495CB2977F4AAB9
:101D30004816E9B7550B88D6346A2B7597C94A14EB
:101D4000F6A8742AC896154BA9F7B6E80A54D7899D
:101D50006B35000020002300260029002C002F00F6
:101D60003200000100000301060109010505050517
:101D7000070508080808020202020A0A0808040403
:101D80000404010101010101010103030303030331
:101D90000303040707070C0C0C0C0C0C0C0C0202C0
:101DA000020206060606060606060B0B0B0B0B0BBD
:101DB0000B0B01021020200808102040102040804A
:101DC00002010201080402010102040810204080FF
:101DD000804020100804020180040201804020108D
:101DE00008040201080402010102040810204080D6
:101DF0000102040810204080F74FCD5911241FBE66
:101E0000CFEFD1E2DEBFCDBF00E00CBF19E0A0E014
:101E1000B2E0EEEEF5EC00E00BBF02C007900D92D1
:101E2000A63DB107D9F720E1A6EDB9E001C01D92AA
:101E3000A032B207E1F71EE0CDEFDEE000E006C021
:101E400021970109802FFE010E946560CC3FD107D8
:101E500080E00807A9F70E9467520C94E6620C9490
:101E6000000020913202909131029230C1F430E0B2
:101E70002053384FC90183709927892B39F4C90140
:101E800064E670E00E945260892B89F4C90160E920
:101E900071E00E945260892B51F08CE108959830D6
:101EA00020F4917031F48EE108959095FACF8DE190
:101EB00008958FE108958F929F92AF92BF92CF9233
:101EC000DF92EF92FF92CF93DF9320912E026B016E
:101ED0007C01C20ED11CE11CF11CC701B6012CE330
:101EE00030E040E050E00E94C15D49015A01960196
:101EF000C601D7FE04C0882799278C199D096CE379
:101F000070E00E94526037FD78C021E0022E000C84
:101F1000330BDC010E946D60645C7F4F8F4F9F4FDD
:101F20002CE330E040E050E00E94C15D60932E025F
:101F300080912F02880E911CA11CB11CC501B40117
:101F400028E130E040E050E00E94C15D69017A0183
:101F50009401C40197FE04C088279927881999091C
:101F600068E170E00E94526037FD49C021E0022E16
:101F7000000C330BDC010E946D60685E7F4F8F4F59
:101F80009F4F28E130E040E050E00E94C15D609347
:101F90002F0280913002C80ED11CE11CF11C61DFC0
:101FA00090E0B0E0A0E0C09230028C159D05AE0537
:101FB000BF0594F5C1E0D4E6C81AD90AEA0AFB0ABB
:101FC000809131028F5F8D30E0F48093310249DFE0
:101FD00090E0B0E0A0E08C159D05AE05BF0564F370
:101FE000C0923002DF91CF91FF90EF90DF90CF90C1
:101FF000BF90AF909F908F9008952FEF87CF2FEFD6
:10200000B6CFC0933102809132028B596D2F0E945E
:10201000396090933202DBCF1C141D041E041F0490
:102020000CF3CCE0D4E680913102815089F08093AA
:10203000310217DF982F9C0D90933002C80ED11CEF
:10204000E11CF11C1C141D041E041F0464F7CACFFC
:10205000C0933102809132028D596D2F0E943960F8
:1020600090933202E6CFE0913202F0E080913102AB
:1020700020913002833088F1E053F84F3DE0839F98
:10208000C0011124039665E070E00E945260260FA3
:10209000372F311D2E0F3F1FBF0175956795759521
:1020A0006795260F371FCF016CE97FEF0E945260C2
:1020B000260F371FCF0160E971E00E945260C9010D
:1020C000860F971F27E030E0B9010E945260019609
:1020D000B9010E9452608F5F0895845FE153F84F09
:1020E000CDCFCF93DF93C0913102D091940ECD1715
:1020F00040F18091960E8C1720F1DC1710F4C81770
:10210000A0F1B1DF482F809130028F5F841B181639
:10211000DCF467E00E9445608F5F082E000C990B8D
:10212000CD1314C02091950E30E0821793074CF028
:1021300028173907D4F04230C4F480912F0282303E
:10214000A0F4DF91CF91089580E0E7CF2091970E22
:1021500030E0821793074CF02817390794F3423088
:1021600084F780912F02823060F76091980E70E0C2
:1021700090E080E0DF91CF919ECECF93DF93FC0182
:102180008281938190931A0E8093190E8481958198
:10219000A681B78180931B0E90931C0EA0931D0EF9
:1021A000B0931E0E80859185A285B38580931F0E06
:1021B0009093200EA093210EB093220EDF011C9667
:1021C000CF014996C3E2DEE02D912993A817B90704
:1021D000D9F7818D928D9093310E8093300E87E1E7
:1021E0009EE0DF91CF910895FC01818D928D08953D
:1021F0000895AF92BF92CF92DF92EF92FF920F932A
:102200001F93CF93DF936C017B018B01040F151F8C
:10221000EB015E01AE18BF08C017D10759F06991F4
:10222000D601ED91FC910190F081E02DC601199548
:10223000892B79F7C501DF91CF911F910F91FF9005
:10224000EF90DF90CF90BF90AF900895FC01538D39
:10225000448D252F30E0842F90E0821B930B541780
:1022600010F0CF96089501970895FC01918D828D0D
:10227000981761F0A28DAE0FBF2FB11D5D968C91A6
:10228000928D9F5F9F73928F90E008958FEF9FEFE5
:102290000895FC01918D828D981731F0828DE80FA1
:1022A000F11D858D90E008958FEF9FEF0895FC015B
:1022B000918D228D892F90E0805C9F4F821B910928
:1022C0008F73992708958DE89CE0F1DF21E0892B39
:1022D00009F420E0822F0895FC01A48DA80FB92FE6
:1022E000B11DA35ABF4F2C91848D90E001968F733E
:1022F0009927848FA689B7892C93A089B1898C915D
:10230000837080648C93938D848D981306C00288AB
:10231000F389E02D80818F7D80830895EF92FF9275
:102320000F931F93CF93DF93EC0181E0888F9B8DF8
:102330008C8D98131AC0E889F989808185FF15C0B2
:102340009FB7F894EE89FF896083E889F9898081D5
:102350008370806480839FBF81E090E0DF91CF91A4
:102360001F910F91FF90EF900895F62E0B8D10E0C6
:102370000F5F1F4F0F731127E02E8C8D8E110BC036
:102380000FB607FCFACFE889F989808185FFF5CF80
:10239000CE01A2DFF2CFEB8DEC0FFD2FF11DE35A42
:1023A000FF4FF0829FB7F8940B8FEA89FB898081F9
:1023B0008062D0CFCF93DF93EC01888D8823B1F07A
:1023C000AA89BB89E889F9898C9185FD03C0808140
:1023D00086FD0CC00FB607FCF7CF8C9185FFF2CFBE
:1023E000808185FFEDCFCE0177DFEACFDF91CF91FE
:1023F000089580E090E0892B21F065DF81110E9433
:10240000000080E090E0892B49F080E090E0892B8B
:1024100029F00E94000081110E94000080E090E0FD
:10242000892B49F080E090E0892B29F00E94000080
:1024300081110E94000080E090E0892B49F080E04B
:1024400090E0892B29F00E94000081110C9400007B
:1024500008958150823108F05AC0E82FF0E08827B3
:10246000EB5CFD4E8F4F0C9465605512591247126C
:102470004D12511287125C12621266126C127012A7
:1024800074127A127E128712821288128C12809134
:1024900080008F77809380000895809180008F7DE9
:1024A000F9CF80918000877FF5CF84B58F7784BD89
:1024B000089584B58F7DFBCF8091B0008F77809396
:1024C000B00008958091B0008F7DF9CF8091900089
:1024D0008F77809390000895809190008F7DF9CF41
:1024E00080919000877FF5CF8091A0008F778093B7
:1024F000A00008958091A0008F7DF9CF8091A00069
:10250000877FF5CF809120018F77809320010895F8
:10251000809120018F7DF9CF80912001877FF5CFB9
:102520001F93CF93DF93282F30E0F901E45FF34E40
:102530008491F901EE54F24ED491F901E459F24E2E
:10254000C491CC23A1F0162F811183DFEC2FF0E092
:10255000EE0FFF1FEE50F44EA591B4918FB7F89493
:10256000EC91111108C0D095DE23DC938FBFDF9171
:10257000CF911F910895DE2BF8CF61E082E0D0DF8C
:102580008BEF94E00197F1F760E082E0C9DF8BED1B
:102590009BE00197F1F70895F0DFEFDFEEDFEDCF7D
:1025A00061E082E0BDDF8BE39BE00197F1F760E043
:1025B00082E0B6DF8BE995E00197F1F70895F0DF4F
:1025C000DCDFDBDFDACFD9DFEBDFD7DFD6CFE8DF49
:1025D000E7DFD3DFD2CFD1DFD0DFE2DFCECFE0DF66
:1025E000CCDFDEDFCACFC9DFDBDFDADFC6CFD8DF83
:1025F000D7DFD6DFC2CFC1DFC0DFBFDFD1CFD0DFB3
:10260000BCDFBBDFCDCFB9DFCBDFB7DFC9CFC8DFE2
:10261000C7DFB3DFC5CFB1DFB0DFC2DFC1CFC0DFFF
:10262000ACDFBEDFBDCFA9DFBBDFBADFB9CFB8DF1C
:10263000B7DFB6DFB5CFCF93DF9390E0FC01EE5468
:10264000F24E24918459924EFC0184918823D1F05A
:1026500090E0880F991FFC01E852F44EA591B491C7
:10266000FC01EE50F44EC591D49161110EC09FB79C
:10267000F8948C91E22FE0958E238C932881E223AD
:10268000E8839FBFDF91CF9108958FB7F894EC91C5
:10269000E22BEC938FBFF6CF3FB7F8948091010AFD
:1026A0009091020AA091030AB091040A26B5A89B52
:1026B00005C02F3F19F00196A11DB11D3FBFBA2FD4
:1026C000A92F982F8827BC01CD01620F711D811D94
:1026D000911D42E0660F771F881F991F4A95D1F719
:1026E00008958F929F92AF92BF92CF92DF92EF9216
:1026F000FF924B015C01D0DF6B017C01CDDF6C19D7
:102700007D098E099F09683E734081059105B0F3EC
:1027100021E0821A9108A108B10888EEC80E83E072
:10272000D81EE11CF11C81149104A104B10431F7FD
:10273000FF90EF90DF90CF90BF90AF909F908F90E1
:1027400008956AE070E080E090E0CBDF61E082E035
:10275000E7DE8BE59AE40197F1F760E082E0E0DEE6
:102760008BEB97E10197F1F708DF07DF19DF05DF52
:1027700017DF16DF02DF01DF00DFFFDE11DFFDDE26
:10278000FCDEFBDEFADEF9DE0BDF0ADFF6DEF5DE6D
:1027900007DFF3DE05DF04DFF0DE02DF01DF00CF5D
:1027A000EF92FF921F93CF93DF93CAE0D0E01FEF29
:1027B000180FE12EF12CC5DF1F30B0F4F701882788
:1027C000EB51FC4E8F4F0C946560051407140914EF
:1027D0000B140D140F1411141314151417141914C9
:1027E0001B141D141F142114D7DEC7DEC6DEC5DE80
:1027F000D7DEC3DEC2DEC1DED3DE2197E1F6DF9194
:10280000CF911F91FF90EF900895D9DEEECFDBDEE0
:10281000ECCFDDDEEACFDFDEE8CFE1DEE6CFE3DEE0
:10282000E4CFE5DEE2CFE7DEE0CFE9DEDECFEBDED0
:10283000DCCFEDDEDACFEFDED8CFF1DED6CFF3DEC0
:10284000D4CFF5DED2CFEF92FF921F93CF93DF93D9
:10285000CAE0D0E01FEF180FE12EF12C72DF1F301D
:10286000B0F4F7018827E85CFB4E8F4F0C9465604D
:1028700058145A145C145E146014621464146614C0
:1028800068146A146C146E1470147214741484DE58
:1028900074DE73DE85DE84DE70DE6FDE81DE80DE78
:1028A0002197E1F6DF91CF911F91FF90EF9008956E
:1028B00086DEEECF88DEECCF8ADEEACF8CDEE8CF94
:1028C0008EDEE6CF90DEE4CF92DEE2CF94DEE0CF84
:1028D00096DEDECF98DEDCCF9ADEDACF9CDED8CF74
:1028E0009EDED6CFA0DED4CFA2DED2CFEF92FF9273
:1028F0001F93CF93DF93CAE0D0E01FEF180FE12EB4
:10290000F12C1FDF1F30B0F4F7018827E557FB4E8D
:102910008F4F0C946560AB14AD14AF14B114B314A5
:10292000B514B714B914BB14BD14BF14C114C31427
:10293000C514C71431DE21DE33DE1FDE31DE1DDEBD
:102940002FDE1BDE2DDE2197E1F6DF91CF911F9167
:10295000FF90EF90089533DEEECF35DEECCF37DE1B
:10296000EACF39DEE8CF3BDEE6CF3DDEE4CF3FDE27
:10297000E2CF41DEE0CF43DEDECF45DEDCCF47DE17
:10298000DACF49DED8CF4BDED6CF4DDED4CF4FDE07
:10299000D2CF2FB7F8946091FD097091FE09809114
:1029A000FF099091000A2FBF08950F931F93CF93B3
:1029B000DF93C82FD0E0EDDFFE01EE0FFF1FEE0F1B
:1029C000FF1FEB56F04F6083718382839383CC0F9C
:1029D000DD1FCC0FDD1FC35ED04F41E008811981A0
:1029E0002A813B81061717072807390708F440E0BA
:1029F000842FDF91CF911F910F9108958F929F9215
:102A0000AF92BF92CF92DF92EF92FF920F931F93FC
:102A1000CF93DF936B017C01C42FD0E0BADFFE01BE
:102A2000EE0FFF1FEE0FFF1FEB56F04F6083718319
:102A3000828393838E01000F111F000F111F035E0D
:102A4000104FF80180809180A280B38068157905CD
:102A50008A059B0508F19DDFCC0FDD1FCC0FDD1F24
:102A6000CB55D14F688379838A839B83C60ED71E4B
:102A7000E81EF91EF801C082D182E282F382DF9162
:102A8000CF911F910F91FF90EF90DF90CF90BF906B
:102A9000AF909F908F900895D501C4018C0D9D1D1E
:102AA000AE1DBF1D80839183A283B383E8CFCF93F4
:102AB000DF93C82FD0E06DDFFE01EE0FFF1FEE0F9A
:102AC000FF1FE35EF04F608371838283938361DF36
:102AD000CC0FDD1FCC0FDD1FCB55D14F6883798321
:102AE0008A839B83DF91CF910895FC01DB011296CD
:102AF0008D919C9113979383828388EB92E09183CD
:102B0000808314968C911497848315968C911597D5
:102B1000858316964D915D916D917C9119974683B1
:102B20005783608771871A964D915D916D917C9165
:102B30001D9742875387648775871E964D915D91D7
:102B40006D917C91519746875787608B718B529618
:102B50008C915297828B53964D915D916D917C91A2
:102B60005697438B548B658B768B57964D915D9121
:102B70006D917C915A97478B508F618F728F5B96C6
:102B80008D919C91948F838F0895DC015996ED91DE
:102B9000FC913097B9F083899489A589B6894285DB
:102BA000538564857585841B950BA60BB70B811522
:102BB00020E89207A105B10538F08FEF9FE7A0E06C
:102BC000B0E0089590E080E00895DC0159968D9181
:102BD0009C91009739F0DC01ED91FC910480F58126
:102BE000E02D199490E080E00895CF93DF931F9239
:102BF000CDB7DEB76983DC01ED91FC910280F381F2
:102C0000E02D41E050E0BE016F5F7F4F19950F90BE
:102C1000DF91CF9108954F925F926F927F928F9242
:102C20009F92AF92BF92CF92DF92EF92FF920F935B
:102C30001F93CF93DF934B015C018091F209909138
:102C4000F309A091F409B091F50988159905AA0531
:102C5000BB0509F4C6C08CE3C82ED12CE12CF12CA5
:102C6000C501A70196010E94E75D6093050ACA01AC
:102C7000B901A70196010E94E75D6093060AC501AC
:102C8000B40120E13EE040E050E00E94E75DCA016F
:102C9000B90128E130E040E050E00E94E75D609338
:102CA000070AC501B40120E831E541E050E00E9487
:102CB000E75D69017A01CA01B9016C5F7F4F8F4FEF
:102CC0009F4F27E030E040E050E00E94E75D6F5FFB
:102CD0006093080A412C512C320140E004E610E0D8
:102CE000C0E9D1E0242F30E02E54384FF901E370D1
:102CF000FF273097F9F4C901B8010E945260892B6F
:102D000031F4C901BE010E945260892B99F48EE60C
:102D100091E0A0E0B0E0480E591E6A1E7B1ED30170
:102D2000C201AA27BB27C816D906EA06FB0638F057
:102D30004F5FD8CF8DE691E0A0E0B0E0ECCF4093BC
:102D40000B0AC90164E670E00E945260EC01C901FF
:102D500060E971E00E945260309721F42097D9F425
:102D60000097C9F04DE651E060E070E0441A550A62
:102D7000660A770AC418D508E608F708A1E8B2E0A1
:102D800020E0213069F43097E9F5209711F400979D
:102D9000C9F54DE106C04EE651E060E070E0E6CFD7
:102DA0004C9150E070E060E031E0320FC416D5067F
:102DB000E606F70640F0C41AD50AE60AF70A1196A5
:102DC000232F3C30F1F62F5F20930A0AC394C09260
:102DD000090A8092F2099092F309A092F409B09244
:102DE000F509DF91CF911F910F91FF90EF90DF9048
:102DF000CF90BF90AF909F908F907F906F905F909B
:102E00004F9008954CE1CDCFDC012C911196ED91BE
:102E1000FC91F8948181822B81839281322F3095AD
:102E20009323928387E090E00197F1F781818323D8
:102E3000818383E290E00197F1F790817894EFEC41
:102E4000F0E03197F1F7922381E009F480E00895F2
:102E5000FC0190810180F281E02D292F209560FFF7
:102E600014C0F8948281822382838181892B81839B
:102E7000A3E2B0E01197F1F78281982B92837894C6
:102E800087ED90E00197F1F70895F894828182230D
:102E900082838181892B8183AFEFB0E01197F1F7B5
:102EA0008281982B928378948FE090E0EBCFDF9231
:102EB000EF92FF920F931F93CF93DF93EC01D62EE7
:102EC000E42E08E010E0FF24F39461E08D2D8F21C3
:102ED00009F460E0CE01BCDFFF0C01501109A9F735
:102EE000E11010C0F894E981FA8191818881809580
:102EF00089238183E981FA81928188818095892360
:102F000082837894DF91CF911F910F91FF90EF9082
:102F1000DF900895FC0190810180F281E02DF8940A
:102F20008181292F20958223818378943DE743E096
:102F300050E0315029F1DA011197F1F780818923AE
:102F4000C1F3F8948281822382838181892B8183DA
:102F50007894ABE7B7E01197F1F7F8948181822379
:102F60008183A3E1B1E01197F1F78081982381E09B
:102F700009F080E07894E3E6F6E03197F1F7089500
:102F800080E00895CF93C091760EC11104C0C0E0D7
:102F90008C2FCF9108958091730E9091740EBADFAB
:102FA0008823A9F340E06CEC8091730E9091740E2D
:102FB0007EDF4091770E81E0482764E48091730EB4
:102FC0009091740E74DFE5DC6093780E7093790E47
:102FD00080937A0E90937B0EDBCFCF92DF92FF929D
:102FE0000F931F93CF93DF936C01F62E8091730E96
:102FF0009091740E8FDF882319F10091730E109158
:10300000740E40E065E5C80152DFE60188E0C80EB5
:10301000D11C699140E0C8014ADFCC15DD05C9F734
:1030200040E06F2D8091730E9091740E40DF81E02F
:10303000DF91CF911F910F91FF90DF90CF90089576
:1030400080E0F6CF6F927F928F929F92AF92BF9265
:10305000CF92DF92EF92FF920F931F93CF93DF9364
:10306000CDB7DEB76D970FB6F894DEBF0FBECDBFFC
:103070006EEBB3DF882309F480C08090730E9090CC
:10308000740E8E010F5E1F4F7E018AE1E80EF11C67
:10309000680138E0632E712CB12CAA24A394C401DA
:1030A000B3DE8111BA28AA0CA1E06A1A7108B9F737
:1030B000F601B1926F01EE15FF0559F799E080E036
:1030C000915049F0D801ED918D01E827F0E0EE5ADA
:1030D000F34E8491F5CF998D98134FC080E1E9E3C9
:1030E000F2E0DE01119601900D928A95E1F7809150
:1030F000490290914A02A0914B02B0914C028A8FF2
:103100009B8FAC8FBD8F0091750E0950110BF7018D
:10311000E00FF11F808169897A8902C075956795F2
:103120008A95E2F7072E000C880B990B0E94AE5C83
:10313000000F111F000F111FE1E0F0E0EC0FFD1F69
:10314000E00FF11F20813181428153810E940D5D8A
:103150006D960FB6F894DEBF0FBECDBFDF91CF9155
:103160001F910F91FF90EF90DF90CF90BF90AF90A5
:103170009F908F907F906F90089563E373E988E844
:1031800093ECE6CFFC0120812EBD9B01215031093B
:1031900041F051810DB407FEFDCF4EB55EBD4193A8
:1031A000F5CF61507109860F971F0DB407FEFDCF53
:1031B0002EB5FC0120830895E091EF09F091F0090C
:1031C00080819091EE09892B80830895E091EF0929
:1031D000F091F00990818091EE0980958923808398
:1031E00008958EBD00000DB407FEFDCF8EB5089585
:1031F0008FEFF7CF0F931F93CF93DF93EC01C9DBD2
:103200008B01F6DF8F3F61F0C4DB601B710B6C1725
:103210007D07B8F380E0DF91CF911F910F91089562
:1032200081E0F9CFAF92BF92CF92DF92EF92FF92FF
:103230000F931F93CF93DF9300D000D01F921F9264
:10324000CDB7DEB78C017B016A018091890A833397
:10325000B1F45801A40EB51EA016B10609F463C05E
:10326000B5DF80EFBEDF812FBCDF802FBADF0F5FBD
:103270001F4FF70181917F01B4DF9EDFEDCF5B012E
:10328000A40EB51E8433A9F4A1DF19830A838D2D02
:1032900080688B83CC8264E070E0CE01019672DF9F
:1032A000AE14BF0409F43EC0F70181917F0199DF9C
:1032B000F7CF8CDF0F3F110509F028F419820A833C
:1032C00084E08B830CC017FD17C019820A8333E09A
:1032D000169507953A95E1F7007E0C600B8386E022
:1032E000C816D10490F5F701DE011496EA15FB0526
:1032F00099F081918D93FACFC80126E09695879534
:103300002A95E1F7807E19830A830115104C10F489
:103310008461D7CF8C61D5CFB6016D5F7F4FCE0171
:10332000019630DF49DFC60128960FB6F894DEBF5C
:103330000FBECDBFDF91CF911F910F91FF90EF9006
:10334000DF90CF90BF90AF90089563E070E0CE0122
:10335000019618DFF70181917F0143DFAE14BF04AE
:10336000C9F7E0CFCF93DF931F92CDB7DEB7898344
:1033700041E050E0BE016F5F7F4F90E080E052DFA0
:103380000F90DF91CF91089590E02091890A233327
:1033900039F40C96982F990F990F990F80E00895A2
:1033A0004896F8CFDA01E091F109F0E0FE2FEE2720
:1033B000E60FF71F90E0982F8827A901BD018E0F17
:1033C0009F1F30CFCF93DF931F921F92CDB7DEB7F1
:1033D00079836A8322E030E0AE014F5F5F4F60E1A6
:1033E00070E0E0DF0F900F90DF91CF910895CF93C1
:1033F000DF931F921F92CDB7DEB779836A8322E0F5
:1034000030E0AE014F5F5F4F64E070E0CBDF0F90C4
:103410000F90DF91CF910895CF93DF931F92CDB797
:10342000DEB72091F10930E0322F2227260F371F17
:1034300090E0982F8827498341E050E0BE016F5FFC
:103440007F4F820F931FEEDE0F90DF91CF91089593
:10345000CF93DF931F92CDB7DEB76983DC01ED9187
:10346000FC910280F381E02D41E050E0BE016F5FEE
:103470007F4F19950F90DF91CF910895CF93DF93F0
:103480001F92CDB7DEB76983DC01ED91FC9102801C
:10349000F381E02D41E050E0BE016F5F7F4F199551
:1034A0000F90DF91CF910895FC019485FB018485F5
:1034B000981303C081E0983008F080E00895CF931E
:1034C000DF931F92CDB7DEB76983DC01ED91FC91EC
:1034D0000280F381E02D41E050E0BE016F5F7F4F3D
:1034E00019950F90DF91CF910895FC01768765873C
:1034F0000895DC01ED91FC91068CF78DE02D199576
:1035000091E089270895862F089581E08627089500
:1035100021E0FC018485883008F020E0822F0895A6
:10352000089561E0FC0184810E9490128091F60967
:1035300081111092F60908958CBD9DBD0895CF9319
:10354000DF93EC018091F609811108C081E080933E
:10355000F60980912A0D90912B0DEEDF60E08C81B1
:10356000DF91CF910C9490128F929F92AF92BF9265
:10357000FF920F931F93CF93DF93EC01F62E490137
:103580005A018E81882379F08F8198859C012F5F65
:103590003F4F38872F838230924010F429DEF4CFDA
:1035A000CE01BFDF1E82CE01CADF8CE291E022DEB7
:1035B0008F2D806416DE08E110E0D501C401002ED5
:1035C00004C0B695A795979587950A94D2F709DE1A
:1035D00008501109083F8FEF180779F785E9FF2098
:1035E00021F028E087E8F2128FEFFBDD10E000DE2B
:1035F0008A8787FF04C01F3F11F01F5FF8CFDF915C
:10360000CF911F910F91FF90BF90AF909F908F909F
:103610000895AF92BF92CF92DF92EF92FF920F93F5
:103620001F93CF93DF93EC016901C801820F931FB1
:103630008130924048F58E81882379F08881998184
:10364000AA81BB8184179507A607B70731F48F813C
:103650009885C816D90608F03CC0488359836A8308
:103660007B838B85833039F089E0440F551F661FBB
:10367000771F8A95D1F79A01AB0161E1CE0174DF22
:10368000882381F083E08D83CE014BDF80E0DF91E2
:10369000CF911F910F91FF90EF90DF90CF90BF904F
:1036A000AF90089576D95B01A3DD8A878F3F59F4E7
:1036B00070D96A197B096D327140B0F38FE08D8348
:1036C000CE012FDFE1CF8E3F81F418861F8281E08B
:1036D0008E838F8198858C159D0548F489DD8F81B7
:1036E0009885019698878F83F4CF8DE0E8CF6701A6
:1036F000E00EF11E7DDDF60181936F01EE15FF05F1
:10370000C9F78F819885080F191F18870F8389853E
:10371000882319F00115124090F08E81882379F0EA
:103720008F8198859C012F5F3F4F38872F83823090
:10373000924010F45DDDF4CFCE01F3DE1E8281E015
:10374000A6CFCF92DF92EF92FF920F93CF93DF93AA
:10375000EC01690182E1411551056105710591F0A6
:103760008B85833039F089E0440F551F661F771F22
:103770008A95D1F79A01AB0168E1CE01F5DE882385
:1037800019F084E08D8326C08EEF2BDD76018EEF5D
:10379000D81AF70181917F0124DDEC14FD04C9F7EB
:1037A0008FEF1FDD8FEF1DDD23DD8A878F71853061
:1037B00069F4011113C0CE01B4DE81E0DF91CF9135
:1037C0000F91FF90EF90DF90CF90089581E18D836E
:1037D000CE01A7DECE01A5DE80E0F0CF88E592E045
:1037E00009DD811102C085E1CDCF20E030E0A901E3
:1037F0006DE0CE01B9DE882311F084E1C3CFF8DC9F
:103800008111FBCFD8CF0F934091F8095091F9095E
:103810006091FA097091FB09411551056105710527
:1038200091F0082F2AE83AE080918A0C90918B0C55
:1038300088DF882349F01092F8091092F909109254
:10384000FA091092FB0981E00F9108950F93CF932D
:10385000C82F8091F709811105C0C1E08C2FCF914D
:103860000F9108954091210250912202609123020C
:10387000709124020C2F2AE83AE080918A0C9091F2
:103880008B0C5FDF811102C0C0E0E8CFCC2329F3AD
:1038900081E0B9DF8823C1F31092F709DFCF8F925F
:1038A0009F92AF92BF92EF92FF920F931F93CF938D
:1038B0004B015C01C42F8091210290912202A091C2
:1038C0002302B091240288159905AA05BB0541F190
:1038D00081E0BCDF81110BC080E0CF911F910F917F
:1038E000FF90EF90BF90AF909F908F9008958AE8DF
:1038F000E82E8AE0F82E00E012E030E020E0B5018A
:10390000A40180918A0C90918B0C83DE882321F393
:103910008092210290922202A0922302B09224026D
:103920004091F7094C2B4093F70981E0D6CF8F9255
:103930009F92AF92BF92CF92DF92EF92FF92CF937E
:103940002CE23DE030938B0C20938A0C882309F401
:103950006BC040E060E070E0CB01A1DF81110BC0E3
:1039600080E0CF91FF90EF90DF90CF90BF90AF902D
:103970009F908F9008958091480C8F7789F7809160
:10398000540C9091550CA091560CB091570C843664
:103990009105A105B10520F3C090500CD090510CB9
:1039A000E090520CF090530CC114D104E104F104E6
:1039B000B9F240E0C701B60172DF882389F2809135
:1039C000950A9091960A8115924051F6A0919A0A13
:1039D000AA2331F26091980A7091990A61157105D4
:1039E00009F4BECF2091970A222309F4B9CFA093FE
:1039F0004A0D20933C0D90E080E030E0E1E0F0E003
:103A0000C82FAF01082E02C0440F551F0A94E2F7D9
:103A10002417350769F041E0480F01968930910578
:103A200079F74093450D9CCFC12CD12C7601C1CFA5
:103A30008093450D2091A00A3091A10A50E040E00A
:103A40002115310541F42091AE0A3091AF0A409121
:103A5000B00A5091B10A20933D0D30933E0D409332
:103A60003F0D5093400D46015701860E971EA11C35
:103A7000B11C80924B0D90924C0DA0924D0DB092C6
:103A80004E0DE0919B0AF0919C0AF093510DE0934A
:103A9000500DB0E00E94DD5DDC01CB01880D991D69
:103AA000AA1DBB1D8093520D9093530DA093540DEE
:103AB000B093550D25E0EE0FFF1F2A95E1F7E15079
:103AC000FE4FEF2FFF27E6958E0F9F1FA11DB11D03
:103AD0008093460D9093470DA093480DB093490DE8
:103AE00080909D0A90909E0AB12CA12C8114910483
:103AF00041F48090AA0A9090AB0AA090AC0AB090D2
:103B0000AD0AC81AD90AEA0AFB0AC80CD91CEA1C71
:103B1000FB1C04C0F694E794D794C794CA95D2F7D7
:103B2000C092410DD092420DE092430DF092440DAF
:103B300085EFC8168FE0D806E104F10428F48CE084
:103B400080934F0D81E00DCF80E125EFC2162FEF5E
:103B5000D206E104F104A0F38091B60A9091B70A6D
:103B6000A091B80AB091B90A8093520D9093530D69
:103B7000A093540DB093550D80E2E2CF4F925F9227
:103B80006F927F928F929F92AF92BF92CF92DF926D
:103B9000EF92FF920F931F93CF93DF93EC0142308C
:103BA00051056105710590F480E0DF91CF911F917F
:103BB0000F91FF90EF90DF90CF90BF90AF909F90CC
:103BC0008F907F906F905F904F90089589859A8530
:103BD000AB85BC850196A11DB11D84179507A6076D
:103BE000B70710F3CB88DC88ED88FE888F89803199
:103BF00009F042C0BB27A72F962F852F48015901F6
:103C00002A013B01C80ED91EEA1EFB1E809121022B
:103C100090912202A0912302B0912402C816D906E5
:103C2000EA06FB0699F58F898031B9F5B301A20147
:103C3000552766277727440F551F4657554FFA01DA
:103C4000918280828091F70981608093F7098A8947
:103C5000823080F08D819E81AF81B8858C0D9D1D55
:103C6000AE1DBF1D8093F8099093F909A093FA093E
:103C7000B093FB0981E099CFDB01CA01E7E0B6957B
:103C8000A79597958795EA95D1F7B8CF40E0C701FA
:103C9000B60105DE8111C7CF87CFB301A2014F77EF
:103CA000552766277727440F551F440F551F465742
:103CB000554FFA0180829182A282B382C3CF8F9244
:103CC0009F92AF92BF92CF92DF92EF92FF920F93AB
:103CD0001F93CF93DF93FC0181859285A385B485E3
:103CE0000196A11DB11D84179507A607B70770F4AB
:103CF00080E0DF91CF911F910F91FF90EF90DF90C7
:103D0000CF90BF90AF909F908F90089583889488B4
:103D1000A588B6888789803189F5BB27A72F962F7C
:103D2000852FE9016A017B018F01BC01CD01680D7E
:103D3000791D8A1D9B1D8090210290902202A090E7
:103D40002302B090240286169706A806B90601F54C
:103D5000F8018789803109F5DD24EE24FF24F6017E
:103D6000EE0FFF1FE657F54F80819181B0E0A0E094
:103D700088839983AA83BB8381E0BBCFDB01CA011F
:103D8000C7E0B695A79597958795CA95D1F7C9CFFE
:103D900040E085DD8111DCCFABCFE894C7F8DD24AE
:103DA000EE24FF24F601EE0FFF1FEE0FFF1FE65774
:103DB000F54F80819181A281B381BF70D9CF4F929D
:103DC0005F926F927F92AF92BF92CF92DF92EF920B
:103DD000FF920F931F93CF93DF9300D01F92CDB725
:103DE000DEB78C0149835A836B837C835901C12CD4
:103DF000D12C7601412C82E0582E612C712C498106
:103E00005A816B817C819E012F5F3F4FC80157DF34
:103E1000882339F1F8018585A301920104C0220F9E
:103E2000331F441F551F8A95D2F7DA01C901C80E06
:103E3000D91EEA1EFB1E49815A816B817C818789CC
:103E4000803111F188EF9FEFAFEFBFE048175907BE
:103E50006A077B07A0F2F501C082D182E282F38279
:103E600081E00F900F900F900F90DF91CF911F91F5
:103E70000F91FF90EF90DF90CF90BF90AF907F9029
:103E80006F905F904F90089588EF9FEFA0E0B0E0B3
:103E9000DDCFCF93DF93FC012581222321F080E049
:103EA000DF91CF910895EC0180914F0D803159F54C
:103EB00082E08583178A108E118E128E8091500DAC
:103EC0009091510DB0E0A0E025E0880F991FAA1F46
:103ED000BB1F2A95D1F7838B948BA58BB68B88E378
:103EE0009DE09C8F8B8F81E08C831E821F821886C1
:103EF00019861A861B861C861D861E861F86188AB2
:103F0000198A1A8ACDCF803251F683E08583409199
:103F1000520D5091530D6091540D7091550D478B7A
:103F2000508F618F728F9F012D5E3F4F88E39DE020
:103F300046DF8111D4CFB3CF8F929F92AF92BF92C1
:103F4000CF92DF92EF92FF920F931F93CF93DF9365
:103F5000EC018D8181110EC080E0DF91CF911F9126
:103F60000F91FF90EF90DF90CF90BF90AF909F9018
:103F70008F9008950B891C892D893E890417150798
:103F80002607370748F34A015B01823031F48A86FD
:103F90009B86AC86BD8681E0E0CF81149104A104AC
:103FA000B10449F41E821F82188619861A861B8660
:103FB0001C861D86F0CF0A851B852C853D85EB8DE3
:103FC000FC8D858590E00996B901A8014150510901
:103FD00061097109082E04C0769567955795479534
:103FE0000A94D2F775016401E1E0CE1AD108E10824
:103FF000F10804C0F694E794D794C7948A95D2F751
:10400000C416D506E606F70620F0012B022B032B7B
:1040100009F58F89988DA98DBA8D8E839F83A88786
:10402000B9878E010A5F1F4FC114D104E104F10466
:1040300009F4ADCF4E815F816885798598018B8DBC
:104040009C8D3DDE91E0C91AD108E108F10881118B
:10405000EBCF82CFC41AD50AE60AF70AE2CF209145
:10406000300E3091310E2115310539F0AB01BC0114
:10407000C90162DF91E0811101C090E0892F0895AC
:104080003F924F925F926F927F928F929F92AF92E8
:10409000BF92CF92DF92EF92FF920F931F93CF9335
:1040A000DF93CDB7DEB72C970FB6F894DEBF0FBE07
:1040B000CDBF5C01DC015B968D909C905C97169661
:1040C0004D905D906D907C9019974114510461045E
:1040D000710409F467C0BFEF4B1A5B0A6B0A7B0AD5
:1040E000312CF40181859285A385B4859C01AD01B5
:1040F0002F5F3F4F4F4F5F4F29873A874B875C8732
:10410000730162011D821E821F821886F40181855F
:104110009285A385B4852D813E814F8158852817CE
:1041200039074A075B0708F054C089859A85AB8533
:10413000BC858C159D05AE05BF0550F482E0C82EE8
:10414000D12CE12CF12C92E0492E512C612C712CB8
:104150009E012F5F3F4FB701A601C401B0DD882348
:10416000C1F189819A81AB81BC81892B8A2B8B2BF0
:1041700009F1260137019FEF491A590A690A790A9C
:104180002D813E814F8158852F5F3F4F4F4F5F4FAD
:104190002D833E834F8358873FEFC31AD30AE30A28
:1041A000F30AB4CFF40140805180628073803324DD
:1041B000339497CFC414D504E604F70409F70FEF3E
:1041C0001FEF2FEF3FE0B701A601C401D7DC81113B
:1041D00019C080E02C960FB6F894DEBF0FBECDBF9D
:1041E000DF91CF911F910F91FF90EF90DF90CF90D3
:1041F000BF90AF909F908F907F906F905F904F9007
:104200003F900895D50116964D915D916D917C91E9
:104210001997411551056105710531F09701860126
:10422000C401ACDC8823A9F2D5011696CD92DD92AB
:10423000ED92FC921997332051F0D701C6010196F7
:10424000A11DB11DF40180839183A283B383F50185
:104250008789908DA18DB28D892B8A2B8B2B39F478
:104260008481C78AD08EE18EF28E80688483F501C6
:1042700084818062848381E0ADCF2F923F924F9200
:104280005F926F927F928F929F92AF92BF92CF92E6
:10429000DF92EF92FF920F931F93CF93DF9300D0A3
:1042A000CDB7DEB7FC018581811118C08FEF9FEF7C
:1042B0000F900F900F90DF91CF911F910F91FF9072
:1042C000EF90DF90CF90BF90AF909F908F907F90B6
:1042D0006F905F904F903F902F900895848180FF62
:1042E000E5CF438954896589768982859385A4853C
:1042F000B585312C212C481759076A077B0719F01F
:1043000022242394312C6F012101CE0101963C011E
:10431000DF011696BB83AA834114510409F4C2C07D
:10432000F60142855385648575854A01F1E09F2237
:10433000D6015B968D919C915C978A019B01E9E087
:104340003695279517950795EA95D1F71596EC912F
:10435000E230E1F5FC01628D738D848D958D600FE7
:10436000711F821F931FA12C22E0B22EA818B9083A
:104370004A145B0408F45201F601248126FD04C0AE
:10438000A114F2E0BF0671F4009121021091220203
:1043900020912302309124020617170728073907B6
:1043A00009F05CC040E07BDA882309F47FCFC401C8
:1043B0008657954FD3019C012A0D3B1DFC012E17FA
:1043C0003F0709F46AC041914D93F9CFDC0114967F
:1043D000BC90BA94B0228114910479F4B1100DC04C
:1043E000452B462B472B69F5F6018789908DA18DCA
:1043F000B28D86839783A087B187D6015B96ED91B6
:10440000FC915C9716966D917D918D919C91199779
:104410006250710981099109258504C0660F771FD3
:10442000881F991F2A95D2F706851785208931891B
:10443000600F711F821F931F6B0D711D811D911DD8
:1044400092CFD60116964D915D916D917C91199701
:104450002A813B8134DC8111D0CF28CF73018501C3
:104460009401AB01BC0180918A0C90918B0CD1D846
:10447000882309F41BCF6A0C7B1CF6018285938587
:10448000A485B5858A0D9B1DA11DB11D82879387CB
:10449000A487B5874A185B083FCF281B390B620EEB
:1044A000731EEBCF2A94232809F000CF898190E076
:1044B000FFCEFC01818D928D009709F0DECE8FEF4B
:1044C0009FEF08950F931F93CF93DF93EC01898D96
:1044D0009A8D10E000E0009789F0CFDE8C010F3F4D
:1044E000100761F0898D9A8DFC01428553856485A2
:1044F000758541505109610971091EDDC801DF91BF
:10450000CF911F910F9108951F93CF93DF93FC01DB
:1045100025812223C1F1162FEC01848187FF29C058
:10452000668577858089918941E0B9D9882359F1D9
:10453000EA8980E2E89FF0011124E657F54F3097B1
:1045400011F18D81823040F48B899C89AD89BE89BF
:10455000848F958FA68FB78F8F89988D938F828F39
:104560008F89988DA98DBA8DB58BA48B8C818F770F
:104570008C83111103C08C818F7E8C83812FDF91FE
:10458000CF911F9163C980E0DF91CF911F91089572
:10459000FF920F931F93CF93DF93EC018D818130B6
:1045A00041F090E080E0DF91CF911F910F91FF905B
:1045B00008958C8181FFF5CF82FD1AC000918A0C8D
:1045C00010918B0CC8010E949F1A0E94F818F82EB7
:1045D000C8010E94911A8FEFF812E3CF8C8185FFFA
:1045E00019C060E0CE0190DF8C818F7D8C83D9CFA4
:1045F0004B895C896D897E898A859B85AC85BD8563
:1046000084179507A607B707C9F2CE0195DC81117B
:10461000D5CFC7CF4091F8095091F9096091FA09B7
:104620007091FB09452B462B472B19F080E0EBD806
:10463000B8CF80618C832A853B85317080E092E021
:10464000821B930BB0CFCF93DF93EC0161E05CDF73
:10465000882311F01D8281E0DF91CF910895FC0144
:10466000818D928D009711F061E04ECF08952F92C9
:104670003F924F925F926F927F928F929F92AF92F2
:10468000BF92CF92DF92EF92FF920F931F93CF933F
:10469000DF9300D01F921F92CDB7DEB77C015B0184
:1046A000342E5D83DC0115968C911597813009F0CD
:1046B000CCC014962C9021FEC8C022FCB3C0C32CE1
:1046C000DD8022947FE027222094B22DB1702B2E22
:1046D000D7011A964D915D916D917C911D97C114F2
:1046E000D10409F425C15B968D919C915C97FC01E6
:1046F00074807A948A019B0169E036952795179515
:1047000007956A95D1F770228A01117071101FC048
:1047100001151105E1F416964D915D916D917C9115
:104720001997411551056105710509F097C0579614
:104730008D919D910D90BC91A02D0097A105B10583
:1047400009F0ADC0C7019CDC882309F47EC080E07D
:1047500092E0801B910B46018C159D0508F44C01DD
:10476000D7015B964D915C915C9716968D919D91CA
:104770000D90BC91A02D0297A109B109FA012585E0
:1047800004C0880F991FAA1FBB1F2A95D2F7468520
:10479000578560897189840F951FA61FB71F9C01DB
:1047A000AD01270D311D411D511D29013A01811413
:1047B00032E0930609F079C08091210290912202A3
:1047C000A0912302B091240284159505A605B70592
:1047D00059F48FEF9FEFDC01809321029093220226
:1047E000A0932302B0932402022D9501B301A201EC
:1047F00080918A0C90918B0C0E94A11B882329F137
:104800009EEFB91AC818D908F70182859385A48547
:10481000B585880D991DA11DB11D82879387A48739
:10482000B58756CFF7014389548965897689828592
:104830009385A485B585481759076A077B0709F44E
:104840003ECFC70179DB81113ACF81E090E0D701FB
:1048500013969C938E93129780E006C09E012F5F63
:104860003F4F2DDA811102C090E079C089819A8191
:10487000AB81BC81F701238D348DF901278948EF85
:104880005FEF60E070E0203121F048EF5FEF6FEF05
:104890007FE084179507A607B70708F053CFF70105
:1048A00086839783A087B18752CF0115110599F5AB
:1048B000D7011A964D915D916D917C911D975396FC
:1048C0008D919D910D90BC91A02D481759076A07B5
:1048D0007B0708F181E00E94261C882309F4B5CFEC
:1048E000409221025092220260922302709224028E
:1048F0008091F70981608093F709C8018657954F29
:10490000D5019C01280D391DFC012E173F0759F0D8
:104910004D914193FACF41E0C301B2010E944F1C77
:104920008111EBCF92CF281B390BA20EB31E6ACF99
:10493000F70183899489A589B68984179507A60705
:10494000B70738F48481438B548B658B768B8068F2
:104950008483F701848183FD1AC0832D9D810F908C
:104960000F900F900F900F90DF91CF911F910F91AB
:10497000FF90EF90DF90CF90BF90AF909F908F907F
:104980007F906F905F904F903F902F90089561E0DF
:10499000C701BADD882309F458CFDFCFCF93DF9367
:1049A0001F92CDB7DEB7698341E050E0BE016F5F73
:1049B0007F4F5DDE0F90DF91CF910895CF93DF930E
:1049C000EC01E98DFA8D309749F481E090E09B830A
:1049D0008A8390E080E0DF91CF9108951382128264
:1049E000898D9A8D44DEE98DFA8D22813381232BC6
:1049F00061F7F1CFFF920F931F93CF93DF93EB01FA
:104A0000FC01178A168A2A81211109C02B812111E4
:104A100006C02C81211103C02D81222301F14115F3
:104A20005105E9F08A01FC01F08C80E591E00E94DB
:104A30009C1AAE014E5F5F4F24E030E06CE070E006
:104A40008F2D0E94D219B8018F2D0E94E21981E0AA
:104A500090E0DF91CF911F910F91FF90089580E03A
:104A6000F7CFCF93CFB7F8948091ED09811127C08C
:104A7000E1EAFDE18491E7EEFDE19491E82FF0E0B9
:104A8000EE0FFF1FE852F44EA591B491EC91E9238B
:104A900021F461E085E30E94901261E085E30E94C9
:104AA0001B138CB580618CBD8CB580648CBD61E0BE
:104AB00084E30E941B1361E083E30E941B13809137
:104AC000ED098F5F8093ED09CFBFCF910895FC0171
:104AD000848595850895FC0184899589089520E051
:104AE00033E0FC0131832083FB01408951896289D5
:104AF0007389FC0142835383648375830895DC01C9
:104B0000ED91FC91048CF58DE02D1994089590E0C1
:104B100080E00895CF92DF92EF92FF921F93CF93A0
:104B2000DF93EC0180E2689FF0011124E657F54F16
:104B30009385917161F0842F827449F080E0DF9158
:104B4000CF911F91FF90EF90DF90CF900895142F99
:104B50006A8B8091210290912202A0912302B09150
:104B600024028E879F87A88BB98BC488D588F12CA7
:104B7000E12C7601DD24CC24CF8AD88EE98EFA8E02
:104B8000828D938DB0E0A0E0AC01BD014C295D2980
:104B90006E297F294F8B588F698F7A8F8385887113
:104BA000B1F4848D958DA68DB78D8B8B9C8BAD8B41
:104BB000BE8B81E08D831F701C831E821F8218862E
:104BC00019861A861B861C861D8681E0B8CF803127
:104BD00009F0B4CF9E012D5E3F4F8B8D9C8DEFD899
:104BE000882309F4ABCF84E0E5CF4F925F926F92B8
:104BF0007F928F929F92AF92BF92CF92DF92EF926D
:104C0000FF92CF93DF93CDB7DEB765970FB6F894D9
:104C1000DEBF0FBECDBF8D8B60913102FF24FA94B1
:104C2000F60E60913002EE24EA94E60E21EE3EE2AA
:104C300045E652E460918A0E70918B0E80918C0E45
:104C400090918D0E0E948E5E4B015C012D89222376
:104C500009F4D3C182E189836F2D70E090E080E098
:104C60000E94AE5C20E030E843EF51E40E940D5D0D
:104C70002B013C016E2D70E090E080E00E94AE5C64
:104C80009B01AC01C301B2010E94275E6B017C0154
:104C90002981622F70E090E080E00E94AE5C20E00D
:104CA00030E040EC51E40E948E5E9B01AC01C701F4
:104CB000B6010E94275E22E43DEC4CE85CE30E94D2
:104CC0000D5D6B017C010E948B5E6D837E838F8303
:104CD0009887C701B6010E94A45F69877A878B878E
:104CE0009C87A7019601C701B6010E94275E2B0190
:104CF0003C010E948B5E6D877E878F87988BC301F6
:104D0000B2010E94A45F698B7A8B8B8B9C8B20E015
:104D100030E040E450E4C701B6010E940D5D6B0134
:104D20007C010E948B5E2B013C01C701B6010E94F1
:104D3000A45F69837A838B839C8324E431EC4CECFD
:104D40005EE36D817E818F8198850E940D5D9B0160
:104D5000AC0164E670EB82EE9BE30E94265E6B0181
:104D60007C0127EE32EE4FE85DE369857A858B851D
:104D70009C850E940D5D9B01AC01C701B6010E949C
:104D8000275E6B017C0126E332E74DED5BE36D8529
:104D90007E858F8598890E940D5D9B01AC01C701BE
:104DA000B6010E94265E6B017C012DEB33EC4DE6D3
:104DB0005AE369897A898B899C890E940D5D9B01E0
:104DC000AC01C701B6010E94275E6B017C0127E29E
:104DD00030EC40E35BE3C301B2010E940D5D9B0137
:104DE000AC01C701B6010E94265E6B017C012FE871
:104DF0003CEF41EC5AE369817A818B819C810E946E
:104E00000D5D9B01AC01C701B6010E94275E6B01DD
:104E10007C01C501B4010E948B5E2B013C01C701DE
:104E2000B6010E948B5E69837A838B839C83C50164
:104E3000B4010E94EC5F4B015C01C701B6010E9406
:104E4000EC5F6B017C0129813A814B815C81C3015C
:104E5000B2010E940D5D9B01AC0168E879E48EE629
:104E60009CEB0E948E5E2B013C01A7019601C501BF
:104E7000B4010E940D5D9B01AC01C301B2010E940F
:104E8000265E6B017C019F7720E030E040E85FE325
:104E90000E94A05F18160CF4B3C0C701B6010E94AF
:104EA000185E6B017C018D89811104C0F7FAF094C2
:104EB000F7F8F09460918E0E70918F0E8091900EA5
:104EC0009091910E905821EE3EE245E652E40E9408
:104ED0008E5EA70196010E94265E20E030E040E849
:104EE00050E40E940D5D21EE3EE245E652E40E9450
:104EF0000D5D20E030E044E354E40E94275E6B0146
:104F00007C012EEA37ED44EF5AE36D817E818F817B
:104F100098850E940D5D22E539E44DE958E30E9431
:104F2000275E4B015C012CE233E643E05DE36985DB
:104F30007A858B859C850E940D5D9B01AC01C50126
:104F4000B4010E94265E4B015C0121EC33E74FE681
:104F50005CE36D857E858F8598890E940D5D9B0140
:104F6000AC01C501B4010E94265E4B015C0128E43E
:104F700031E547E25DE369897A898B899C890E94E2
:104F80000D5D9B01AC01C501B4010E94265E24E1C8
:104F90003EE245E653E40E940D5D9B01AC01C70172
:104FA000B6010E94265E0E94F65E2091920E30911C
:104FB000930E620F731F10922F0210922E02109206
:104FC0002D02072E000C880B990B0E945B0F81E0CD
:104FD00065960FB6F894DEBF0FBECDBFDF91CF91BF
:104FE000FF90EF90DF90CF90BF90AF909F908F9009
:104FF0007F906F905F904F90089526E029832CCE8C
:1050000080E0E6CFCF92EF92FF920F931F93CF9362
:10501000DF9390916F0E91110CC09091700E9111D1
:1050200008C09091710E911104C09091720E992355
:1050300041F0811104C0411102C0653011F0CC2053
:10504000C1F1F22EC42FD62F182F80932D0260931A
:105050002E0240932F022093300200933102E092FF
:10506000320281E0C2DD882351F00E9471108091EC
:105070002F0280936F0E80912E028093700E1093FA
:105080002D02D0932E02C0932F02F0923002009393
:105090003102E092320280E0A8DD882351F00E94C4
:1050A000711080912F028093710E80912E02809357
:1050B000720EDF91CF911F910F91FF90EF90CF90E3
:1050C00008958091300E9091310E009759F0BBDA1F
:1050D0008091300E9091310E0E9429611092310E14
:1050E0001092300E0895CF93DF93EC01888199815F
:1050F000009711F00E942961198218821D821C827A
:105100001B821A82DF91CF910895FC0180819181E9
:10511000009711F00C9429610895CF93DF932091AB
:10512000141030911510232B89F0FC01C091101040
:10513000D091111060817181CE010E94CC620097E4
:1051400029F08C1B9D0BDF91CF9108958FEF9FEF7E
:10515000FACFAF92BF92CF92DF92EF92FF920F936E
:105160001F93CF93DF9300D01F92CDB7DEB78C0192
:105170006B017A018091890A8333E9F45B0168014C
:10518000C40ED51EC016D106A9F10E94E6188FE004
:105190000E94F118812F0E94F118802F0E94F118AF
:1051A0000F5F1F4F80E00E94F118F50181935F01AE
:1051B0000E94DC18E7CF843369F50E94E618198352
:1051C0000A838F2D8F778B83EC8264E070E0CE01B1
:1051D00001960E94C218A70170E060E0C6010E941B
:1051E000A462E114F10421F0B701C6010E94C218C3
:1051F0000E94DC18C7010F900F900F900F90DF9165
:10520000CF911F910F91FF90EF90DF90CF90BF90C3
:10521000AF9008950E94E6180F3F110509F030F491
:1052200019820A831B8263E070E0D1CF17FD0BC0A7
:1052300019820A8333E0169507953A95E1F7007EC7
:1052400008600B83F0CFC80126E0969587952A95D4
:10525000E1F7807E19830A830115104C18F48061F0
:105260008B83E1CF8861FCCF1F93CF93DF931F9295
:10527000CDB7DEB7182F80E591E00E949C1A812FF0
:105280000E94C41927E0129FF0011124EF5BF54F33
:1052900022813381377041E050E0BE016F5F7F4F64
:1052A000820F931F56DF89810F90DF91CF911F915D
:1052B0000895FC01808D883038F4218D328D232BA8
:1052C00019F0D2DF90E008958FEF9FEF0895CF930C
:1052D000DF93FC012485283028F08FEF9FEFDF91CA
:1052E000CF910895EC010190F081E02D0084F185CB
:1052F000E02D1995892B89F38C85B6DF90E0EFCFEF
:10530000CF93DF931F92CDB7DEB741E050E0BE01EF
:105310006F5F7F4F1EDF89810F90DF91CF910895DE
:1053200090E080E0EDCFCF93DF93C4E1D0E0F8DFF1
:10533000882361F061E070E080E090E00E947113EA
:105340002197A9F780E0DF91CF91089581E0FBCF0D
:105350001F93CF93DF931F921F92CDB7DEB760E309
:1053600072E080E090E00E9471137BDBE6E7FDE1F4
:10537000E491F0E0EE0FFF1FEE50F44E8591949112
:105380009093F0098093EF09ECEBFDE1E491E09359
:10539000EE0961E08AE00E941B130E94DC1880E5A0
:1053A00091E00E949C1A84E38093890A80E80E941D
:1053B000B219B9DF882371F188E00E94B219B0DF19
:1053C000883041F580E10E94B219AADF803111F5E1
:1053D00080E00E94B219A4DF182F81111BC08FE159
:1053E00090E08EDF8330B1F480E48093F10942E0F5
:1053F0006EE170E0812F0E940C1A42E06FE170E0D4
:10540000812F0E940C1A1F5F183089F781E080936A
:105410008C0C5BC087E38093890A80E80E94B219F4
:1054200082DF8823D9F088E00E94B21979DF8830C2
:10543000A9F480E10E94B21973DF182F803171F452
:1054400080E00E94B2196CDF811108C089E390E00E
:1054500057DF843019F41093F109D8CF83E3809398
:10546000890A80E80E94B2195EDF882359F180E141
:105470000E94B21955DF803129F582E10E94B219EC
:105480004FDF8231F9F480E00E94B21949DF8111C7
:1054900019C084E08093F10915E51A8341E050E0DA
:1054A000BE016E5F7F4F8BE190E00E94121919835D
:1054B00041E050E0BE016F5F7F4F8AE190E00E94C3
:1054C0001219A4CF1092890A80E00F900F90DF91FB
:1054D000CF911F910895CF92DF92EF92FF920F9399
:1054E0001F93CF93DF93EC016B018A0179018091C7
:1054F0008C0C8823E9F180E591E00E949C1A46E03B
:1055000050E067E272E089E090E00E941219BE016B
:105510006E5F7F4F44E050E08FE090E00E941219F0
:10552000B8016E5F7F4F44E050E081E090E00E9460
:105530001219B7016E5F7F4F44E050E085E090E0C4
:105540000E941219F60182819381A481B581809312
:10555000950D9093960DA093970DB093980DDF91B4
:10556000CF911F910F91FF90EF90DF90CF90089512
:10557000EFDE8823A1F3BFCF2091F10930E0322F75
:105580002227620F731F90E0982F8827860F971F9E
:10559000B7CECF93C82F462F61E070E00E940C1A5F
:1055A00061E070E08C2FE8DF8111FACFCF91089590
:1055B000CF93C82F80E591E00E949C1A68E070E0CC
:1055C0008C2FCF91E6CFCF93C82F80E591E00E943A
:1055D0009C1A60E170E08C2FCF91DBCFCF93DF93EB
:1055E000EC01888D883018F4EEDF88E0888FDF9139
:1055F000CF91089563E070E0BFCFCF93C82F80E5CF
:1056000091E00E949C1A8C2FCF91F4CFEF92FF92E1
:105610000F931F93CF93DF937C018091890AD4E08D
:10562000833309F0D8E009E71AE0C0E0F8012191DE
:1056300031918F01F701848195812817390729F06D
:10564000CF5FDC13F3CF80E005C08C2FD6DF843131
:10565000B9F781E0DF91CF911F910F91FF90EF900B
:105660000895CF93DF93EC018C858830C8F4C5DFB3
:10567000843189F0882379F0883169F021E08C3118
:1056800059F4E881F9810084F185E02DCE01199566
:1056900021E0892B09F420E0822FDF91CF9108953A
:1056A00080E0FBCFCF92DF92EF92FF92CF93DF9318
:1056B000EC018C85883058F47BDF0E94C9146B01A3
:1056C0007C018C859ADF811109C088E08C87DF918D
:1056D000CF91FF90EF90DF90CF90089561E070E060
:1056E00080E090E00E9471130E94C914AB01BC01DC
:1056F0004C195D096E097F098D859E85B0E0A0E09B
:10570000481759076A077B07E0F28C855CDFDDCF1D
:10571000CF93FC01C08D80E591E00E949C1A60E26D
:1057200070E08C2F36DF62E070E08C2F25DF84FD87
:1057300015C062E070E08C2F1FDF83FF0AC048E1D4
:1057400062E070E08C2F0E940C1A80E090E0CF9114
:10575000089580E591E00E949C1AE5CF40E162E067
:1057600070E08C2F0E940C1A81E0F0CFDA01E091FA
:10577000F109F0E0FE2FEE27E60FF71F90E0982FDB
:105780008827A901BD018E0F9F1FE3CC8F929F92A6
:10579000AF92BF92CF92DF92EF92FF920F931F933F
:1057A000CF93DF93CDB7DEB760970FB6F894DEBF27
:1057B0000FBECDBF7C019091890A911115C018E0F0
:1057C000812F60960FB6F894DEBF0FBECDBFDF917C
:1057D000CF911F910F91FF90EF90DF90CF90BF90EE
:1057E000AF909F908F90089508E0933309F404E000
:1057F0006B0180E591E00E949C1A9E012F5F3F4F54
:105800005901490110E0812FF5DEF40181934F0128
:105810008823B9F01F5F0113F6CF00E0F5018191F5
:105820005F018D3149F0883139F08A51823020F0A2
:105830000F5F1013F3CFC3CF60E170E0802FA9DEBC
:10584000102FA12EB12CF501EE0FFF1FE758F54FD9
:105850001182108283EE93E00197F1F742E870E045
:1058600060E0812F0E940C1A4FEF62E070E0812F00
:105870000E940C1AB601C114D10491F48091250242
:105880009091260201968115F0EC9F0708F45AC00A
:105890009093260280932502609125027091260242
:1058A000812F0E94F71986E0EDE4F2E0DE011996FF
:1058B00001900D928A95E1F7F70183818F778C87AC
:1058C00084818D8785818E87A7014E5F5F4F24E09D
:1058D00030E06CE070E0812F0E94D219B601812F78
:1058E0000E94E21926E030E0AE01475F5F4F66E0BC
:1058F00070E0812F0E94D21961E070E0812F49DEB3
:1059000027E02A9DC0012B9D900D11249C012F5B47
:10591000354F7901F9011182108222E030E0AE01A9
:10592000415F5F4F68E270E0812F20DF8F859889AB
:10593000982789279827F7019383828316821582F7
:1059400014823ECF80E090ECA3CFCF92DF92EF9213
:10595000FF920F931F93CF93DF9300D000D0CDB76A
:10596000DEB78C016B017A01FC01808D883008F470
:105970002ADE80E093E09A838983F6018281938115
:10598000A481B5818B839C83AD83BE83B701CE0197
:105990000196FCDEF801808F8830A0F4F586E4865D
:1059A000128E118E81E026960FB6F894DEBF0FBEE0
:1059B000CDBFDF91CF911F910F91FF90EF90DF90BE
:1059C000CF90089580E0EFCF7F928F929F92AF9219
:1059D000BF92CF92DF92EF92FF920F931F93CF93DC
:1059E000DF931F921F92CDB7DEB7782E8B014A014D
:1059F000590122E030E0AE014F5F5F4F64E270E09A
:105A0000B5DEE980FA80FE24EF24FE24E00EF11ECC
:105A1000970137704091890A072D10E0433309F050
:105A200042C0085F1F4F102F0027110F110F110FD9
:105A3000C901800F911F4733C9F1A9014A0D5B1DB0
:105A40004130584098F160E078E06B01C21AD30A07
:105A5000A601B4010E941219A5014C195D09B401F7
:105A60006C0D7D1DC8010E941219EA0CFB1CF98205
:105A7000EA8222E030E0AE014F5F5F4F64E270E007
:105A8000872D0E94D2190F900F90DF91CF911F9117
:105A90000F91FF90EF90DF90CF90BF90AF909F90CD
:105AA0008F907F900895005F1F4FBDCFA501B40177
:105AB000DACFEF92FF921F93CF93DF931F921F9243
:105AC000CDB7DEB7182F22E030E0AE014F5F5F4F59
:105AD00060E270E04BDEE980FA80FE24EF24FE24D1
