:10000000A6C70000D5C70000D3C70000D1C70000B5
:10001000CFC70000CDC70000CBC70000C9C7000094
:10002000C7C70000C5C70000C3C70000C1C70000A4
:10003000BFC70000BDC70000BBC70000B9C70000B4
:10004000B7C70000B5C70000B3C70000B1C70000C4
:10005000AFC70000ADC70000ABC700000C94FA2D7D
:10006000A7C700000C94C42D0C949A2DA1C70000C2
:100070009FC700009DC700009BC7000099C70000F4
:1000800097C7000095C7000093C7000091C7000004
:100090008FC700008DC700008BC7000089C7000014
:1000A00087C7000085C7000083C7000081C7000024
:1000B0007FC700007DC700007BC7000079C7000034
:1000C00077C7000075C7000073C7000071C7000044
:1000D0006FC700006DC700006BC7000069C7000054
:1000E00067C70000072C7AA5BA6CC590DA3B936508
:1000F000FC8BBC53F810FD3C5692834DBD879D3A56
:10010000B63DCBC9BF5BBE73DA0FC93F05A84CCD66
:10011000B2D44EB93836A9020C50B9918688083C41
:10012000A6AAAA2ABE000000803F0664EC1B3C047D
:10013000BC163E3BE5B93CC93C37C29E5A3D6604FD
:1001400098083EEA69AAAA3E000000803F000040ED
:100150007A10F35A00A0724E18090010A5D4E800D6
:1001600000E87648170000E40B54020000CA9A3BEE
:10017000000000E1F5050000809698000000404274
:100180000F000000A0860100000010270000000002
:10019000E803000000006400000000000A00000006
:1001A00000000100000000002C76D888DC674F08B2
:1001B00023DFC1DFAE59E1B1B796E5E3E453C63AB8
:1001C000E651997696E8E6C28426EB898C9B62ED2F
:1001D000407C6FFCEFBC9C9F40F2BAA56FA5F490E9
:1001E000055A2AF75C936B6CF9676DC11BFCE0E460
:1001F0000D47FEF520E6B500D0ED902E03009435B6
:1002000077050080841E080000204E0A000000C808
:100210000C333333330F986E12831141EF8D211459
:10022000893BE65516CFFEE6DB18D1844B381BF729
:100230007C1D901DA4BBE424203284725E228100C8
:10024000C9F124ECA1E53D273C2F626F64793E3C67
:100250002F68746D6C3E003C6120687265663D22BB
:100260002F6E6F7468696E67223E3C627574746F9E
:100270006E20636C6173733D22627574746F6E20BF
:10028000627574746F6E32223E5265667265736871
:10029000203C2F627574746F6E3E3C2F613E3C2F84
:1002A000703E003C2F627574746F6E3E3C2F613E51
:1002B0003C2F703E003C6120687265663D222F3104
:1002C000342F6F6666223E3C627574746F6E2063D5
:1002D0006C6173733D22627574746F6E2062757405
:1002E000746F6E32223E53746F70205A32207A61DE
:1002F00020003C6120687265663D222F31342F6FEB
:100300006E223E3C627574746F6E20636C61737311
:100310003D22627574746F6E223E53746172742054
:100320005A323C2F627574746F6E3E3C2F613E3CB6
:100330002F703E003C2F627574746F6E3E3C2F61CF
:100340003E003C6120687265663D222F31332F6F7D
:100350006666223E3C627574746F6E20636C6173D6
:10036000733D22627574746F6E20627574746F6E63
:1003700032223E53746F70205A31207A6120003C43
:100380006120687265663D222F31332F6F6E223EE9
:100390003C627574746F6E20636C6173733D22628E
:1003A0007574746F6E223E5374617274205A313CBE
:1003B0002F627574746F6E3E3C2F613E003C2F625D
:1003C0007574746F6E3E3C2F613E003C6120687214
:1003D00065663D222F31322F6F6666223E3C627584
:1003E00074746F6E20636C6173733D2262757474F4
:1003F0006F6E20627574746F6E32223E53746F702C
:10040000204C4B207A6120003C6120687265663D7B
:10041000222F31322F6F6E223E3C627574746F6EE4
:1004200020636C6173733D22627574746F6E223E3B
:100430005374617274204C4B3C2F627574746F6EF0
:100440003E3C2F613E003C6120687265663D222F74
:1004500031312F6F6666223E3C627574746F6E2078
:10046000636C6173733D22627574746F6E20627584
:1004700074746F6E32223E43796B6C20706F646CC3
:100480006577616E69652077207472616B63696559
:100490002C206E61647A69736E696A206279207AB1
:1004A0006174727A796D61633C2F627574746F6EDA
:1004B0003E3C2F613E003C6120687265663D222F04
:1004C00031312F6F6E223E3C627574746F6E206303
:1004D0006C6173733D22627574746F6E223E537447
:1004E0006172742063796B6C7520706F646C6577D2
:1004F000616E69613C2F627574746F6E3E3C2F6152
:100500003E003C703E3C6120687265663D222F31A2
:10051000302F6F6E223E3C627574746F6E20636C78
:100520006173733D22627574746F6E20223E506F4A
:10053000646C6577616E6965205265637A6E653CAF
:100540002F627574746F6E3E3C2F613E003C703EAE
:100550003C6120687265663D222F31302F6F6666E0
:10056000223E3C627574746F6E20636C6173733DE0
:1005700022627574746F6E20627574746F6E3222AD
:100580003E506F646C6577616E6965204175746F6C
:100590003C2F627574746F6E3E3C2F613E003C2FA1
:1005A00048353E003C2F48353E3C68353E437A6135
:1005B0007320706F646C6577616E6961205A323A9E
:1005C00020003C2F48353E3C68353E437A6173201D
:1005D000706F646C6577616E6961205A313A2000F2
:1005E0003C68353E437A617320706F646C65776157
:1005F0006E6961204C4B3A20003C48333E506F649A
:100600006C6577616E69653C2F48333E0020433C42
:100610002F48353E0020433C2F48353E3C48353E70
:1006200054656D7065726174757261206E6F636E72
:10063000613A20003C68353E54656D7065726174A6
:1006400075726120647A69656E6E613A20003C6162
:1006500020687265663D222F392F6F6666223E3C08
:10066000627574746F6E20636C6173733D22627582
:1006700074746F6E223E53544F50213C2F62757438
:10068000746F6E3E3C2F613E3C2F703E003C2F62EB
:100690007574746F6E3E3C2F613E003C6120687241
:1006A00065663D222F392F6F6E223E3C6275747451
:1006B0006F6E20636C6173733D22627574746F6E2C
:1006C00020627574746F6E32223E003C6120687245
:1006D00065663D222F392F6F6E223E3C6275747421
:1006E0006F6E20636C6173733D22627574746F6EFC
:1006F000223E3130206D696E2E204F6E3C2F627588
:1007000074746F6E3E3C2F613E3C2F703E00274359
:10071000206E6F633C2F627574746F6E3E3C2F6168
:100720003E003C703E3C6120687265663D222F3879
:100730002F6F6E223E3C627574746F6E20636C6125
:1007400073733D22627574746F6E20627574746F7A
:100750006E32223E5061727465722000274320641D
:100760007A69656E3C2F627574746F6E3E3C2F61C2
:100770003E003C703E3C6120687265663D222F3829
:100780002F6F6666223E3C627574746F6E20636CD8
:100790006173733D22627574746F6E223E50617294
:1007A00074657220003C6120687265663D222F37B7
:1007B0002F6F6666223E3C627574746F6E20636CA8
:1007C0006173733D22627574746F6E223E53544F91
:1007D00050213C2F627574746F6E3E3C2F613E3C1D
:1007E0002F703E003C2F627574746F6E3E3C2F611B
:1007F0003E003C6120687265663D222F372F6F6E88
:10080000223E3C627574746F6E20636C6173733D3D
:1008100022627574746F6E20627574746F6E32220A
:100820003E003C6120687265663D222F372F6F6E57
:10083000223E3C627574746F6E20636C6173733D0D
:1008400022627574746F6E223E3130206D696E2E97
:10085000204F6E3C2F627574746F6E3E3C2F613E6C
:100860003C2F703E002743206E6F633C2F627574EF
:10087000746F6E3E3C2F613E003C703E3C612068D0
:100880007265663D222F362F6F6E223E3C62757474
:10089000746F6E20636C6173733D22627574746F44
:1008A0006E20627574746F6E32223E506965747288
:1008B0006F2000274320647A69656E3C2F6275744F
:1008C000746F6E3E3C2F613E003C703E3C61206880
:1008D0007265663D222F362F6F6666223E3C62753A
:1008E00074746F6E20636C6173733D2262757474EF
:1008F0006F6E223E50696574726F200020433C2F5A
:10090000423E3C2F48353E003C68353E54656D7094
:1009100065726174757261207A65776E6574727A3A
:100920006E613A203C423E003C48333E4F67727A4B
:100930006577616E69653C2F48333E003C612068F5
:100940007265663D222F332F6F6E223E3C627574B6
:10095000746F6E20636C6173733D22627574746F83
:100960006E223E526F6C6574792073746F703C2FE9
:10097000627574746F6E3E3C2F613E3C2F703E007A
:100980003C6120687265663D222F342F6F6E223ED7
:100990003C627574746F6E20636C6173733D226288
:1009A0007574746F6E223E4F7075736320726F6C36
:1009B0006574793C2F627574746F6E3E3C2F613E96
:1009C0003C2F703E003C6120687265663D222F33EB
:1009D0002F6F6E223E3C627574746F6E20636C6183
:1009E00073733D22627574746F6E223E526F6C6534
:1009F00074792073746F703C2F627574746F6E3EDF
:100A00003C2F613E003C6120687265663D222F35B7
:100A10002F6F6E223E3C627574746F6E20636C6142
:100A200073733D22627574746F6E223E506F646EF4
:100A300069657320726F6C6574793C2F627574748C
:100A40006F6E3E3C2F613E003C703E3C6120687200
:100A500065663D222F322F6F6666223E3C627574BA
:100A6000746F6E20636C6173733D22627574746F72
:100A70006E20627574746F6E32223E526F6C6574B4
:100A800079206175746F3C2F627574746F6E3E3C93
:100A90002F613E003C703E3C6120687265663D22DD
:100AA0002F322F6F6E223E3C627574746F6E20631E
:100AB0006C6173733D22627574746F6E223E526F67
:100AC0006C657479207265637A6E69653C2F627516
:100AD00074746F6E3E3C2F613E00203C2F68353EA3
:100AE000003A003C2F68353E3C68353E205A616331
:100AF000686F6420736C6F6E63613A20003A002067
:100B00003C68353E20577363686F6420736C6F6E6A
:100B100063613A2000203C2F68353E0020676F64F7
:100B20007A696E613A200020003C68353E20447AA4
:100B30006973206A6573743A20003C48333E526FF3
:100B40006C6574793C2F48333E003C626F64793E9B
:100B50003C48313E486F6D6520436F6E74726F6C18
:100B600020446F6D656B204F7A61726F773C2F4820
:100B7000313E002E627574746F6E32207B62616349
:100B80006B67726F756E642D636F6C6F723A2023A2
:100B90003737383738413B7D3C2F7374796C653E6D
:100BA0003C2F686561643E00746578742D646563EC
:100BB0006F726174696F6E3A206E6F6E653B20666E
:100BC0006F6E742D73697A653A20333070783B20EC
:100BD0006D617267696E3A203270783B206375727E
:100BE000736F723A20706F696E7465723B7D002E70
:100BF000627574746F6E207B206261636B67726FC5
:100C0000756E642D636F6C6F723A202331393542F3
:100C100036413B20626F726465723A206E6F6E657A
:100C20003B20636F6C6F723A2077686974653B2074
:100C300070616464696E673A2031367078203430B0
:100C400070783B003C7374796C653E68746D6C2001
:100C50007B20666F6E742D66616D696C793A2048F1
:100C6000656C7665746963613B20646973706C615F
:100C7000793A20696E6C696E652D626C6F636B3BAF
:100C8000206D617267696E3A2030707820617574EA
:100C90006F3B20746578742D616C69676E3A2063D0
:100CA000656E7465723B7D003C6C696E6B2072658D
:100CB0006C3D2269636F6E2220687265663D226416
:100CC0006174613A2C223E003C686561643E3C6D73
:100CD000657461206E616D653D2276696577706F20
:100CE00072742220636F6E74656E743D227769643E
:100CF00074683D6465766963652D77696474682CF2
:100D000020696E697469616C2D7363616C653D3136
:100D1000223E003C21444F43545950452068746D95
:100D20006C3E3C68746D6C3E00000021002400277E
:100D3000002A002D003000330001010000040107EB
:100D4000010A0100002200250028002B002E00319E
:100D500000340002010000050108010B0100000A37
:100D60000B02090C0D0E080703040100000000002F
:100D70000000000000000000000000000000000073
:100D80000000000000000000001211100000000030
:100D90000000000000000000000000000000000053
:100DA000000000005EBCE2613FDD83C29C7E20A3A8
:100DB000FD1F419DC3217FFCA2401E5F01E3BD3E9C
:100DC0006082DC237D9FC1421CFEA0E1BF5D0380E9
:100DD000DE3C62BEE0025CDF81633D7C22C09E1D82
:100DE00043A1FF4618FAA427799BC584DA3866E543
:100DF000BB5907DB856739BAE406581947A5FB7864
:100E000026C49A653BD987045AB8E6A7F91B45C69C
:100E1000987A24F8A6441A99C7257B3A6486D85B49
:100E200005E7B98CD2306EEDB3510F4E10F2AC2FF6
:100E30007193CD114FADF3702ECC92D38D6F31B233
:100E4000EC0E50AFF1134DCE90722C6D33D18F0C50
:100E500052B0EE326C8ED0530DEFB1F0AE4C129119
:100E6000CF2D73CA947628ABF517490856B4EA69B2
:100E700037D58B5709EBB536688AD495CB2977F4EB
:100E8000AA4816E9B7550B88D6346A2B7597C94A14
:100E900014F6A8742AC896154BA9F7B6E80A54D7D1
:100EA000896B35000020002300260029002C002F2C
:100EB00000320000010000030106010901050505DB
:100EC00005070508080808020202020A0A080804C1
:100ED00004040401010101010101010303030303EF
:100EE000030303040707070C0C0C0C0C0C0C0C027E
:100EF00002020206060606060606060B0B0B0B0B85
:100F00000B0B0B010210202008081020401020407D
:100F100080020102010804020101020408102040BD
:100F200080804020100804020180040201804020DB
:100F30001008040201080402010102040810204004
:100F400080010204081020408000442E7C321124CD
:100F50001FBECFEFD1E2DEBFCDBF00E00CBF14E07B
:100F6000A0E0B2E0EAEEF6E700E00BBF02C00790B7
:100F70000D92A635B107D9F726E0A6E5B4E001C089
:100F80001D92A43AB207E1F717E0C6EAD7E000E005
:100F900006C021970109802FFE010E940A39C53A37
:100FA000D10780E00807A9F70E94CF2F0C94643B7B
:100FB00027C820912902909128029230C1F430E094
:100FC0002053384FC90183709927892B39F4C901FF
:100FD00064E670E00E94F738892B89F4C90160E962
:100FE00071E00E94F738892B51F08CE10895983018
:100FF00020F4917031F48EE108959095FACF8DE14F
:1010000008958FE108958F929F92AF92BF92CF92F1
:10101000DF92EF92FF92CF93DF93209125026B0135
:101020007C01C20ED11CE11CF11CC701B6012CE3EE
:1010300030E040E050E00E94703649015A019601CC
:10104000C601D7FE04C0882799278C199D096CE337
:1010500070E00E94F73837FD78C021E0022E000CC6
:10106000330BDC010E941239645C7F4F8F4F9F4F1E
:101070002CE330E040E050E00E947036609325029F
:1010800080912602880E911CA11CB11CC501B401DF
:1010900028E130E040E050E00E94703669017A01BA
:1010A0009401C40197FE04C08827992788199909DB
:1010B00068E170E00E94F73837FD49C021E0022E58
:1010C000000C330BDC010E941239685E7F4F8F4F9A
:1010D0009F4F28E130E040E050E00E94703660937E
:1010E000260280912702C80ED11CE11CF11C61DF91
:1010F00090E0B0E0A0E0C09227028C159D05AE05FF
:10110000BF0594F5C1E0D4E6C81AD90AEA0AFB0A79
:10111000809128028F5F8D30E0F48093280249DFB0
:1011200090E0B0E0A0E08C159D05AE05BF0564F32E
:10113000C0922702DF91CF91FF90EF90DF90CF9088
:10114000BF90AF909F908F9008952FEF87CF2FEF94
:10115000B6CFC0932802809129028B596D2F0E942F
:10116000DE3890932902DBCF1C141D041E041F04DB
:101170000CF3CCE0D4E680912802815089F0809372
:10118000280217DF982F9C0D90932702C80ED11CC0
:10119000E11CF11C1C141D041E041F0464F7CACFBB
:1011A000C0932802809129028D596D2F0E94DE384C
:1011B00090932902E6CFE0912902F0E08091280285
:1011C00020912702833088F1E053F84F3DE0839F60
:1011D000C0011124039665E070E00E94F738260FE5
:1011E000372F311D2E0F3F1FBF01759567957595E0
:1011F0006795260F371FCF016CE97FEF0E94F73804
:10120000260F371FCF0160E971E00E94F738C9014E
:10121000860F971F27E030E0B9010E94F73801964A
:10122000B9010E94F7388F5F0895845FE153F84F4A
:10123000CDCFCF93DF93C0912802D091CC05CD17AD
:1012400040F18091CE058C1720F1DC1710F4C817FF
:10125000A0F1B1DF482F809127028F5F841B181601
:10126000DCF467E00E94EA388F5F082E000C990BCF
:10127000CD1314C02091CD0530E0821793074CF0B8
:1012800028173907D4F04230C4F480912602823006
:10129000A0F4DF91CF91089580E0E7CF2091CF05B2
:1012A00030E0821793074CF02817390794F3423047
:1012B00084F780912602823060F76091D00570E05B
:1012C00090E080E0DF91CF919ECE8CBD9DBD0895D2
:1012D000FC01818D928D08950895AF92BF92CF92B7
:1012E000DF92EF92FF920F931F93CF93DF936C01E6
:1012F0007B018B01040F151FEB015E01AE18BF08C7
:10130000C017D10759F06991D601ED91FC91019078
:10131000F081E02DC6011995892B79F7C501DF9180
:10132000CF911F910F91FF90EF90DF90CF90BF90E2
:10133000AF900895FC01538D448D252F30E0842F0C
:1013400090E0821B930B541710F0CF9608950197ED
:101350000895FC01918D828D981761F0A28DAE0FDA
:10136000BF2FB11D5D968C91928D9F5F9F73928F61
:1013700090E008958FEF9FEF0895FC01918D828D8D
:10138000981731F0828DE80FF11D858D90E008955A
:101390008FEF9FEF0895FC01918D228D892F90E0B2
:1013A000805C9F4F821B91098F739927089584EC6D
:1013B00094E0F1DF21E0892B09F420E0822F0895E9
:1013C000FC01A48DA80FB92FB11DA35ABF4F2C91BA
:1013D000848D90E001968F739927848FA689B789B1
:1013E0002C93A089B1898C91837080648C93938DA8
:1013F000848D981306C00288F389E02D80818F7D4B
:1014000080830895EF92FF920F931F93CF93DF9302
:10141000EC0181E0888F9B8D8C8D98131AC0E88930
:10142000F989808185FF15C09FB7F894EE89FF89FF
:101430006083E889F98980818370806480839FBF9D
:1014400081E090E0DF91CF911F910F91FF90EF909D
:101450000895F62E0B8D10E00F5F1F4F0F731127AD
:10146000E02E8C8D8E110BC00FB607FCFACFE889E9
:10147000F989808185FFF5CFCE01A2DFF2CFEB8D18
:10148000EC0FFD2FF11DE35AFF4FF0829FB7F89448
:101490000B8FEA89FB8980818062D0CFCF93DF9365
:1014A000EC01888D8823B1F0AA89BB89E889F98984
:1014B0008C9185FD03C0808186FD0CC00FB607FCB2
:1014C000F7CF8C9185FFF2CF808185FFEDCFCE01E4
:1014D00077DFEACFDF91CF91089580E090E0892B0C
:1014E00021F065DF81110E94000080E090E0892BEF
:1014F00049F080E090E0892B29F00E9400008111E2
:101500000E94000080E090E0892B49F080E090E0AC
:10151000892B29F00E94000081110E94000080E0C8
:1015200090E0892B49F080E090E0892B29F00E941F
:10153000000081110C9400000895282F30E0F9017B
:10154000E35AF24F9491F901ED5FF04F4491235427
:10155000314FF9012491222309F435C0992311F167
:1015600091509231F8F4E92FF0E08827E554F54FD7
:101570008F4F0C940A39EC0AF00ACD0AE40AE80A03
:10158000D20AF30AF90AFD0A030B070B0B0B110B26
:10159000150BD20A190B1F0B230B809180008F773C
:1015A00080938000E22FF0E0EE0FFF1FED5BF24F23
:1015B000A591B4918FB7F894EC91611148C0409512
:1015C0004E234C938FBF0895809180008F7DE8CF8C
:1015D00080918000877FE4CF84B58F7784BDE2CF90
:1015E00084B58F7DFBCF8091B0008F778093B00062
:1015F000D9CF8091B0008F7DF9CF809190008F7707
:1016000080939000CFCF809190008F7DF9CF809113
:101610009000877FF5CF8091A0008F778093A00006
:10162000C1CF8091A0008F7DF9CF8091A000877FEE
:10163000F5CF809120018F7780932001B3CF8091E7
:1016400020018F7DF9CF80912001877FF5CF4E2B30
:10165000B8CFCF93DF9390E0FC01ED5FF04F249182
:101660008354914FFC0184918823D1F090E0880F3E
:10167000991FFC01E75DF24FA591B491FC01ED5B70
:10168000F24FC591D49161110EC09FB7F8948C911F
:10169000E22FE0958E238C932881E223E8839FBF7D
:1016A000DF91CF9108958FB7F894EC91E22BEC93F2
:1016B0008FBFF6CF3FB7F894809171049091720478
:1016C000A0917304B091740426B5A89B05C02F3F68
:1016D00019F00196A11DB11D3FBFBA2FA92F982F58
:1016E0008827BC01CD01620F711D811D911D42E053
:1016F000660F771F881F991F4A95D1F708958F921B
:101700009F92AF92BF92CF92DF92EF92FF924B01E6
:101710005C01D0DF6B017C01CDDF6C197D098E0986
:101720009F09683E734081059105B0F321E0821A5C
:101730009108A108B10888EEC80E83E0D81EE11C0C
:10174000F11C81149104A104B10431F7FF90EF90D2
:10175000DF90CF90BF90AF909F908F9008952FB75C
:10176000F89460916D0470916E0480916F04909173
:1017700070042FBF08950F931F93CF93DF93C82F4B
:10178000D0E0EDDFFE01EE0FFF1FEE0FFF1FEB5A63
:10179000F94F6083718382839383CC0FDD1FCC0F5D
:1017A000DD1FC75ED94F41E0088119812A813B8145
:1017B000061717072807390708F440E0842FDF9140
:1017C000CF911F910F9108958F929F92AF92BF92E8
:1017D000CF92DF92EF92FF920F931F93CF93DF93FD
:1017E0006B017C01C42FD0E0BADFFE01EE0FFF1FBA
:1017F000EE0FFF1FEB5AF94F60837183828393834F
:101800008E01000F111F000F111F075E194FF80105
:1018100080809180A280B380681579058A059B0538
:1018200008F19DDFCC0FDD1FCC0FDD1FC352DA4F57
:10183000688379838A839B83C60ED71EE81EF91EB0
:10184000F801C082D182E282F382DF91CF911F91B1
:101850000F91FF90EF90DF90CF90BF90AF909F904F
:101860008F900895D501C4018C0D9D1DAE1DBF1D27
:1018700080839183A283B383E8CFCF93DF93C82F74
:10188000D0E06DDFFE01EE0FFF1FEE0FFF1FE75EE2
:10189000F94F608371838283938361DFCC0FDD1FF7
:1018A000CC0FDD1FC352DA4F688379838A839B8311
:1018B000DF91CF910895DC012C911196ED91FC916F
:1018C000F8948181822B81839281322F30959323EA
:1018D000928387E090E00197F1F7818183238183F0
:1018E00083E290E00197F1F790817894EFECF0E0DB
:1018F0003197F1F7922381E009F480E00895FC012B
:1019000090810180F281E02D292F209560FF14C085
:10191000F8948281822382838181892B8183A3E24F
:10192000B0E01197F1F78281982B9283789487ED3C
:1019300090E00197F1F70895F894828182238283E1
:101940008181892B8183AFEFB0E01197F1F782811C
:10195000982B928378948FE090E0EBCFDF92EF9218
:10196000FF920F931F93CF93DF93EC01D62EE42EBB
:1019700008E010E0FF24F39461E08D2D8F2109F43D
:1019800060E0CE01BCDFFF0C01501109A9F7E110A6
:1019900010C0F894E981FA8191818881809589232A
:1019A0008183E981FA81928188818095892382836C
:1019B0007894DF91CF911F910F91FF90EF90DF907E
:1019C0000895FC0190810180F281E02DF8948181DD
:1019D000292F20958223818378943DE743E050E0CE
:1019E000315029F1DA011197F1F780818923C1F390
:1019F000F8948281822382838181892B81837894E8
:101A0000ABE7B7E01197F1F7F894818182238183E6
:101A1000A3E1B1E01197F1F78081982381E009F00B
:101A200080E07894E3E6F6E03197F1F7089580E0FE
:101A30000895CF93C091AE05C11104C0C0E08C2FB2
:101A4000CF9108958091AB059091AC05BADF8823C2
:101A5000A9F340E06CEC8091AB059091AC057EDF82
:101A60004091AF0581E0482764E48091AB059091F7
:101A7000AC0574DF74DE6093B0057093B10580939C
:101A8000B2059093B305DBCFCF92DF92FF920F9315
:101A90001F93CF93DF936C01F62E8091AB0590914D
:101AA000AC058FDF882319F10091AB051091AC05CF
:101AB00040E065E5C80152DFE60188E0C80ED11CB0
:101AC000699140E0C8014ADFCC15DD05C9F740E067
:101AD0006F2D8091AB059091AC0540DF81E0DF91E7
:101AE000CF911F910F91FF90DF90CF90089580E0EC
:101AF000F6CF6F927F928F929F92AF92BF92CF92CA
:101B0000DF92EF92FF920F931F93CF93DF93CDB7A6
:101B1000DEB76D970FB6F894DEBF0FBECDBF6EEB8C
:101B2000B3DF882309F480C08090AB059090AC05AA
:101B30008E010F5E1F4F7E018AE1E80EF11C6801E5
:101B400038E0632E712CB12CAA24A394C401B3DE17
:101B50008111BA28AA0CA1E06A1A7108B9F7F60136
:101B6000B1926F01EE15FF0559F799E080E09150B1
:101B700049F0D801ED918D01E827F0E0ED55F24FE5
:101B80008491F5CF998D98134FC080E1E0E3F2E0A6
:101B9000DE01119601900D928A95E1F78091400245
:101BA00090914102A0914202B09143028A8F9B8F93
:101BB000AC8FBD8F0091AD050950110BF701E00FFF
:101BC000F11F808169897A8902C0759567958A9528
:101BD000E2F7072E000C880B990B0E945D35000F71
:101BE000111F000F111FE1E0F0E0EC0FFD1FE00FEF
:101BF000F11F20813181428153810E94BC356D9655
:101C00000FB6F894DEBF0FBECDBFDF91CF911F910D
:101C10000F91FF90EF90DF90CF90BF90AF909F908B
:101C20008F907F906F90089563E373E988E893EC59
:101C3000E6CFFC0120812EBD9B012150310941F0EE
:101C400051810DB407FEFDCF4EB55EBD4193F5CF7A
:101C500061507109860F971F0DB407FEFDCF2EB599
:101C6000FC0120830895E0916804F091690480816B
:101C700090916704892B80830895E0916804F09126
:101C800069049081809167048095892380830895F9
:101C90008EBD00000DB407FEFDCF8EB50895AF9246
:101CA000BF92CF92DF92EF92FF920F931F93CF9349
:101CB000DF9300D000D01F921F92CDB7DEB78C010A
:101CC0007B016A018091C2048333B1F45801A40EF0
:101CD000B51EA016B10609F463C0CFDF80EFD8DFD0
:101CE000812FD6DF802FD4DF0F5F1F4FF701819147
:101CF0007F01CEDFB8DFEDCF5B01A40EB51E8433CC
:101D0000A9F4BBDF19830A838D2D80688B83CC8275
:101D100064E070E0CE0101968CDFAE14BF0409F4DC
:101D20003EC0F70181917F01B3DFF7CFA6DF0F3F00
:101D3000110509F028F419820A8384E08B830CC012
:101D400017FD17C019820A8333E0169507953A9557
:101D5000E1F7007E0C600B8386E0C816D10490F595
:101D6000F701DE011496EA15FB0599F081918D9338
:101D7000FACFC80126E0969587952A95E1F7807EEF
:101D800019830A830115104C10F48461D7CF8C613C
:101D9000D5CFB6016D5F7F4FCE0101964ADF63DF7D
:101DA000C60128960FB6F894DEBF0FBECDBFDF91F7
:101DB000CF911F910F91FF90EF90DF90CF90BF9048
:101DC000AF90089563E070E0CE01019632DFF70135
:101DD00081917F015DDFAE14BF04C9F7E0CFCF93DF
:101DE000DF931F92CDB7DEB7898341E050E0BE019B
:101DF0006F5F7F4F90E080E052DF0F90DF91CF91D7
:101E0000089590E02091C204233339F40C96982F62
:101E1000990F990F990F80E008954896F8CFDA014D
:101E2000E0916B04F0E0FE2FEE27E60FF71F90E045
:101E3000982F8827A901BD018E0F9F1F30CFCF9308
:101E4000DF931F921F92CDB7DEB779836A8322E0BA
:101E500030E0AE014F5F5F4F60E170E0E0DF0F9078
:101E60000F90DF91CF910895CF93DF931F921F9230
:101E7000CDB7DEB779836A8322E030E0AE014F5FF1
:101E80005F4F64E070E0CBDF0F900F90DF91CF9158
:101E90000895CF93DF931F92CDB7DEB720916B04E7
:101EA00030E0322F2227260F371F90E0982F882707
:101EB000498341E050E0BE016F5F7F4F820F931F67
:101EC000EEDE0F90DF91CF910895CF93DF931F92B5
:101ED000CDB7DEB76983DC01ED91FC910280F3811F
:101EE000E02D41E050E0BE016F5F7F4F19950F90EC
:101EF000DF91CF910895CF93DF931F92CDB7DEB7D7
:101F00006983DC01ED91FC910280F381E02D41E0D9
:101F100050E0BE016F5F7F4F19950F90DF91CF9119
:101F20000895FC019485FB018485981303C081E02A
:101F3000983008F080E00895CF93DF931F92CDB7DB
:101F4000DEB76983DC01ED91FC910280F381E02D25
:101F500041E050E0BE016F5F7F4F19950F90DF9118
:101F6000CF910895FC01768765870895DC01ED9196
:101F7000FC91068CF78DE02D199591E08927089545
:101F8000862F089581E08627089521E0FC0184854D
:101F9000883008F020E0822F08950895FF920F9373
:101FA0001F93CF93DF93EB01FC01178A168A2A81D6
:101FB000211109C02B81211106C02C81211103C0E0
:101FC0002D812223E9F041155105D1F08A01FC0150
:101FD000F08C80E591E079D9AE014E5F5F4F24E04F
:101FE00030E06CE070E08F2D1ADFB8018F2D27DF15
:101FF00081E090E0DF91CF911F910F91FF900895C4
:1020000080E0F7CFFC01848595850895FC018489E3
:10201000958908952DEB32E0FC0131832083FB018B
:102020004089518962897389FC01428353836483A7
:1020300075830895DC01ED91FC91048CF58DE02D04
:102040001994089590E080E008954F925F926F9206
:102050007F928F929F92AF92BF92CF92DF92EF9238
:10206000FF92CF93DF93CDB7DEB765970FB6F894A5
:10207000DEBF0FBECDBF8D8B60912802FF24FA9486
:10208000F60E60912702EE24EA94E60E21EE3EE27F
:1020900045E652E46091C2057091C3058091C40584
:1020A0009091C5050E9433374B015C012D89222395
:1020B00009F4D3C182E189836F2D70E090E080E064
:1020C0000E945D3520E030E843EF51E40E94BC35CA
:1020D0002B013C016E2D70E090E080E00E945D35A8
:1020E0009B01AC01C301B2010E94CC366B017C01A3
:1020F0002981622F70E090E080E00E945D3520E051
:1021000030E040EC51E40E9433379B01AC01C70141
:10211000B6010E94CC3622E43DEC4CE85CE30E9420
:10212000BC356B017C010E9430376D837E838F83C9
:102130009887C701B6010E94493869877A878B87DB
:102140009C87A7019601C701B6010E94CC362B01DE
:102150003C010E9430376D877E878F87988BC30143
:10216000B2010E944938698B7A8B8B8B9C8B20E063
:1021700030E040E450E4C701B6010E94BC356B0179
:102180007C010E9430372B013C01C701B6010E943F
:10219000493869837A838B839C8324E431EC4CEC4B
:1021A0005EE36D817E818F8198850E94BC359B01A5
:1021B000AC0164E670EB82EE9BE30E94CB366B01D0
:1021C0007C0127EE32EE4FE85DE369857A858B85E9
:1021D0009C850E94BC359B01AC01C701B6010E94E1
:1021E000CC366B017C0126E332E74DED5BE36D8578
:1021F0007E858F8598890E94BC359B01AC01C70103
:10220000B6010E94CB366B017C012DEB33EC4DE621
:102210005AE369897A898B899C890E94BC359B0124
:10222000AC01C701B6010E94CC366B017C0127E2EC
:1022300030EC40E35BE3C301B2010E94BC359B017B
:10224000AC01C701B6010E94CB366B017C012FE8BF
:102250003CEF41EC5AE369817A818B819C810E9439
:10226000BC359B01AC01C701B6010E94CC366B01A5
:102270007C01C501B4010E9430372B013C01C7012C
:10228000B6010E94303769837A838B839C83C501B2
:10229000B4010E9491384B015C01C701B6010E9454
:1022A00091386B017C0129813A814B815C81C301AA
:1022B000B2010E94BC359B01AC0168E879E48EE66E
:1022C0009CEB0E9433372B013C01A7019601C5010D
:1022D000B4010E94BC359B01AC01C301B2010E9454
:1022E000CB366B017C019F7720E030E040E85FE374
:1022F0000E94453818160CF4B3C0C701B6010E94FD
:10230000BD366B017C018D89811104C0F7FAF09410
:10231000F7F8F0946091C6057091C7058091C805E3
:102320009091C905905821EE3EE245E652E40E94A4
:102330003337A70196010E94CB3620E030E040E819
:1023400050E40E94BC3521EE3EE245E652E40E9494
:10235000BC3520E030E044E354E40E94CC366B010D
:102360007C012EEA37ED44EF5AE36D817E818F8147
:1023700098850E94BC3522E539E44DE958E30E9476
:10238000CC364B015C012CE233E643E05DE369852A
:102390007A858B859C850E94BC359B01AC01C5016B
:1023A000B4010E94CB364B015C0121EC33E74FE6D0
:1023B0005CE36D857E858F8598890E94BC359B0185
:1023C000AC01C501B4010E94CB364B015C0128E48D
:1023D00031E547E25DE369897A898B899C890E94AE
:1023E000BC359B01AC01C501B4010E94CB3624E190
:1023F0003EE245E653E40E94BC359B01AC01C701B7
:10240000B6010E94CB360E949B372091CA053091BD
:10241000CB05620F731F10922602109225021092B4
:102420002402072E000C880B990B0E94030881E000
:1024300065960FB6F894DEBF0FBECDBFDF91CF918A
:10244000FF90EF90DF90CF90BF90AF909F908F90D4
:102450007F906F905F904F90089526E029832CCE57
:1024600080E0E6CFCF92EF92FF920F931F93CF932E
:10247000DF939091A70591110CC09091A80591113F
:1024800008C09091A905911104C09091AA059923C3
:1024900041F0811104C0411102C0653011F0CC201F
:1024A000C1F1F22EC42FD62F182F809324026093EF
:1024B0002502409326022093270200932802E092EF
:1024C000290281E0C2DD882351F00E941909809120
:1024D00026028093A705809125028093A80510937A
:1024E0002402D0932502C0932602F0922702009383
:1024F0002802E092290280E0A8DD882351F00E94A2
:102500001909809126028093A90580912502809364
:10251000AA05DF91CF911F910F91FF90EF90CF907F
:102520000895CF93DF932091980630919906232B3D
:1025300089F0FC01C0919406D0919506608171816B
:10254000CE010E944A3B009729F08C1B9D0BDF9126
:10255000CF9108958FEF9FEFFACFFB0101900020FC
:10256000E9F73197AF01461B570BDC01ED91FC9168
:102570000280F381E02D19948F929F92AF92BF92C7
:10258000EF92FF920F931F93CF93DF93CDB7DEB7F8
:10259000A1970FB6F894DEBF0FBECDBF7C01FA0144
:1025A000CB0119A2223008F42AE08E010F5D1F4FE3
:1025B000822E912CB12CA12CBF01A50194010E9467
:1025C0008C36F901CA016A3004F5605DD8016E935A
:1025D0008D01232B242B252B79F790E080E0109799
:1025E00019F0BD01C701B9DFA1960FB6F894DEBF9F
:1025F0000FBECDBFDF91CF911F910F91FF90EF9054
:10260000BF90AF909F908F900895695CDFCF8F92BD
:102610009F92AF92BF92CF92DF92EF92FF920F9371
:102620001F93CF93DF937C01EB016C0182E0C80E16
:10263000D11C4701E5E08E0E911C10E000E0F60190
:1026400041916F0150E070E060E02AE0CE0194DF3C
:102650005C01E881F9810190F081E02D6EE2CE010C
:1026600019958A0D9B1D080F191FC814D90439F735
:10267000F701458150E070E060E02AE0CE017CDFA8
:10268000800F911FDF91CF911F910F91FF90EF90DD
:10269000DF90CF90BF90AF909F908F9008956FEC98
:1026A00072E05BCF0F931F93CF93DF93EC0155DF65
:1026B0008C01CE01F4DF800F911FDF91CF911F912C
:1026C0000F910895EF92FF920F931F93CF93DF9393
:1026D0008C017B01D0E0C0E0F701EC0FFD1F64919D
:1026E000662331F0C80128DC892B11F02196F4CF44
:1026F000C801D5DF8C0F9D1FDF91CF911F910F91E6
:10270000FF90EF900895FC0180819181009711F076
:102710000C949D3260E070E0CB0108950F931F93FD
:10272000CF93DF93EC0188819981009759F02A813A
:102730003B812617370730F081E0DF91CF911F9161
:102740000F9108958B016F5F7F4F0E94573A00975A
:1027500059F0998388831B830A832C813D81232B25
:1027600059F7FC011082E8CF80E0E7CFEF92FF92AB
:102770000F931F93CF93DF936115710541F480E0B0
:10278000DF91CF911F910F91FF90EF900895411528
:102790005105A9F07B01EC010C811D81040F151F6F
:1027A000B801BCDF882359F3288139818C819D8150
:1027B000B701820F931F0E94433B1D830C8381E06E
:1027C000DFCFCF93DF93EC0188819981009711F0DF
:1027D0000E94CE39198218821D821C821B821A82A5
:1027E000DF91CF910895CF93DF93EC01FB0101902E
:1027F0000020E9F73197AF01461B570BB7DF811176
:1028000002C0CE01DEDFCE01DF91CF910895CF93DC
:10281000DF93EC01FB014481558160817181A6DF6A
:10282000811102C0CE01CDDFCE01DF91CF9108959D
:10283000EF92FF920F931F93CF93DF93EC017B01F5
:102840008A01BA016BDF81110AC0CE01BADFCE0165
:10285000DF91CF911F910F91FF90EF9008951D830D
:102860000C83B701888199810E94433BF0CFFB0123
:1028700001900020E9F73197AF01461B570BD8CFE5
:102880000F931F93CF93DF9300D000D000D0CDB72C
:10289000DEB78C01862FF80111821082138212821A
:1028A000158214824AE0BE016F5F7F4F90E00E9464
:1028B000E232BE016F5F7F4FC801D9DF29960FB6A4
:1028C000F894DEBF0FBECDBFDF91CF911F910F9166
:1028D00008950F931F93CF93DF93CDB7DEB7629721
:1028E0000FB6F894DEBF0FBECDBF8C01CB01F8014F
:1028F0001182108213821282158214824AE0BE0174
:102900006F5F7F4F0E94C332BE016F5F7F4FC80170
:10291000AEDF62960FB6F894DEBF0FBECDBFDF917B
:10292000CF911F910F910895EF92FF920F931F93F4
:10293000CF93DF93CDB7DEB7A1970FB6F894DEBF84
:102940000FBECDBF7C01CB01BA01F701118210820D
:1029500013821282158214828E010F5F1F4F22E0B4
:1029600044E00E948032009781F0BC01C7017FDF04
:10297000A1960FB6F894DEBF0FBECDBFDF91CF9109
:102980001F910F91FF90EF900895C7011ADFF0CFCC
:10299000FB01DC0111961C921E9213961C921E9252
:1029A000129715961C921E9214978617970741F05E
:1029B000608171816115710519F04481558138CFAD
:1029C0000895FC01118210821382128215821482F2
:1029D000FB0101900020E9F73197AF01461B570B2F
:1029E00027CFCF92DF92EF92FF920F931F93CF9357
:1029F000DF936C017B018A014617570720F48F2D66
:102A00007A01062F182F61ED72E0C601DADFC0915E
:102A10009806D0919906EC16FD06F0F40C171D07E8
:102A200008F4E801E0919406F0919506EC0FFD1F83
:102A30001081108260919406709195066E0D7F1D35
:102A4000C6016115710591F012DF80919406909195
:102A50009506C80FD91F1883C601DF91CF911F912A
:102A60000F91FF90EF90DF90CF900895AADEEDCF09
:102A7000FC0180819181009711F00C94CE3908956A
:102A80000F931F93CF93DF93CDB7DEB72C970FB67D
:102A9000F894DEBF0FBECDBF8C016A3068F0F0DE67
:102AA000C8012C960FB6F894DEBF0FBECDBFDF91E4
:102AB000CF911F910F910895CE010196E1DE62ED55
:102AC00072E0CE0107967DDFBE016F5F7F4FCE01C2
:102AD00007969DDEBC01C8015BDFCE010796C8DF0B
:102AE000CE010196C5DFDCCF8F929F92AF92BF924D
:102AF000CF92DF92EF92FF920F931F93CF93DF93CA
:102B0000CDB7DEB768970FB6F894DEBF0FBECDBF66
:102B10007C01062F10E00E94AF0BF801EE0FFF1FA3
:102B2000EE0FFF1FEB5AF94F60837183828393830B
:102B3000000F111F000F111FF801E75EF94F008110
:102B400011812281338158016901A61AB70AC80A86
:102B5000D90AC601B50128EE33E040E050E00E94FA
:102B60008C3649010CE310E0C901B8010E94F73826
:102B7000AC01C401841B950BB8010E94F7386B01AE
:102B8000CB01B8010E94F7385C01C81AD90A642F3A
:102B9000CE01019675DF6A2DCE01079671DFC60161
:102BA000B8010E94F738CE0143966ADFBE016D5E20
:102BB0007F4FCE010D96ECDE64ED72E0CE010D96F6
:102BC00012DEBE01695F7F4F22DE64ED72E00BDE34
:102BD000BE016F5F7F4F1BDEBC01C701D9DECE0196
:102BE0000D9646DFCE01439643DFCE01079640DFC8
:102BF000CE0101963DDFC70168960FB6F894DEBF9F
:102C00000FBECDBFDF91CF911F910F91FF90EF903D
:102C1000DF90CF90BF90AF909F908F900895AF922C
:102C2000BF92CF92DF92EF92FF920F931F93CF93B9
:102C3000DF9300D01F92CDB7DEB78C016B017A0114
:102C40008091C2048333C1F45B016801C40ED51EB8
:102C5000C016D10681F111D88FE01AD8812F18D86B
:102C6000802F16D80F5F1F4F80E012D8F501819397
:102C70005F010E94330EECCF843369F50E943D0E54
:102C800019830A838F2D8F778B83EC8264E070E049
:102C9000CE0101960E94190EA70170E060E0C60106
:102CA0000E943C3BE114F10421F0B701C6010E94EF
:102CB000190E0E94330EC7010F900F900F900F90C6
:102CC000DF91CF911F910F91FF90EF90DF90CF9008
:102CD000BF90AF9008950E943D0E0F3F110509F07F
:102CE00030F419820A831B8263E070E0D1CF17FDB4
:102CF0000BC019820A8333E0169507953A95E1F7E0
:102D0000007E08600B83F0CFC80126E0969587957A
:102D10002A95E1F7807E19830A830115104C18F477
:102D200080618B83E1CF8861FCCF1F93CF93DF93CA
:102D30001F92CDB7DEB7182F80E591E00E9465099C
:102D4000812F5FD827E0129FF0011124E658FB4F36
:102D500022813381377041E050E0BE016F5F7F4FC9
:102D6000820F931F5CDF89810F90DF91CF911F91BC
:102D70000895FC01808D883038F4218D328D232B0D
:102D800019F0D3DF90E008958FEF9FEF0895CF9370
:102D9000DF93FC012485283028F08FEF9FEFDF912F
:102DA000CF910895EC010190F081E02D0084F18530
:102DB000E02D1995892B89F38C85B7DF90E0EFCF53
:102DC000CF93DF931F92CDB7DEB741E050E0BE0155
:102DD0006F5F7F4F24DF89810F90DF91CF9108953E
:102DE00090E080E0EDCFCF93DF93C4E1D0E0F8DF57
:102DF000882361F061E070E080E090E00E947F0B4A
:102E00002197A9F780E0DF91CF91089581E0FBCF72
:102E10001F93CF93DF931F921F92CDB7DEB760E36E
:102E200072E080E090E00E947F0B1FB7F8948091E1
:102E30006A04811127C0E2EFFEE08491E8E3FFE03D
:102E40009491E82FF0E0EE0FFF1FE75DF24FA591A0
:102E5000B491EC91E92321F461E085E30E949D0A9D
:102E600061E085E30E94290B8CB580618CBD8CB537
:102E700080648CBD61E084E30E94290B61E083E300
:102E80000E94290B80916A048F5F80936A041FBFA0
:102E9000E7ECFEE0E491F0E0EE0FFF1FED5BF24F98
:102EA000859194919093690480936804EDE0FFE02C
:102EB000E491E093670461E08AE00E94290B0E949C
:102EC000330E80E591E00E94650984E38093C2049B
:102ED00080E80E94EF0E87DF882371F188E00E946E
:102EE000EF0E7EDF883041F580E10E94EF0E78DF43
:102EF000803111F580E00E94EF0E72DF182F8111F2
:102F00001BC08FE190E05CDF8330B1F480E48093FC
:102F10006B0442E06EE170E0812F0E94490F42E0B5
:102F20006FE170E0812F0E94490F1F5F183089F711
:102F300081E08093C3045BC087E38093C20480E890
:102F40000E94EF0E50DF8823D9F088E00E94EF0E38
:102F500047DF8830A9F480E10E94EF0E41DF182F8F
:102F6000803171F480E00E94EF0E3ADF811108C0D9
:102F700089E390E025DF843019F410936B04D8CFF7
:102F800083E38093C20480E80E94EF0E2CDF882345
:102F900059F180E10E94EF0E23DF803129F582E1B3
:102FA0000E94EF0E1DDF8231F9F480E00E94EF0EE7
:102FB00017DF811119C084E080936B0415E51A8333
:102FC00041E050E0BE016E5F7F4F8BE190E00E94D8
:102FD0004F0E198341E050E0BE016F5F7F4F8AE1E1
:102FE00090E00E944F0EA4CF1092C20480E00F9098
:102FF0000F90DF91CF911F910895CF92DF92EF92C2
:10300000FF92CF93DF93CDB7DEB7C254D1090FB68D
:10301000F894DEBF0FBECDBFFC01428153816481B5
:10302000758123964CAF5DAF6EAF7FAF239781E084
:1030300023968FAF23972396CCACDDACEEACFFACE0
:103040002397CBAADCAAEDAAFEAA4DA75EA76FA77D
:1030500078AB88ABCDA4DEA4EFA4F8A8CFA2D8A605
:10306000E9A6FAA68EABCBA8DCA8EDA8FEA8C9A25B
:10307000DAA2EBA2FCA22DEB32E03C8B2B8B9FEF74
:103080009D8B9E8B9F8B188E3E872D878AA7CFA006
:10309000D8A4E9A4FAA4CF86D88AE98AFA8A8CA3AC
:1030A00089A19AA1ABA1BCA189879A87AB87BC876C
:1030B0003A8329834B835C836D837E838091C30431
:1030C000882309F443C080E591E00E94650946E049
:1030D00050E06EE172E089E090E00E944F0E44E023
:1030E00050E0BE016D5F7F4F8FE090E00E944F0E79
:1030F00044E050E0BE01615F7F4F81E090E00E94BC
:103100004F0E44E050E0BE016B5E7F4F85E090E0E3
:103110000E944F0E81E08C8789859A85AB85BC859E
:103120008093810590938205A0938305B0938405D5
:10313000CE5BDF4F0FB6F894DEBF0FBECDBFDF9181
:10314000CF91FF90EF90DF90CF90089561DE8823BC
:1031500079F3B9CF20916B0430E0322F2227620F30
:10316000731F90E0982F8827860F971F29CECF9343
:10317000C82F462F61E070E00E94490F61E070E0C7
:103180008C2FE8DF8111FACFCF910895CF93C82F0C
:1031900080E591E00E94650968E070E08C2FCF9196
:1031A000E6CFCF93C82F80E591E00E94650960E1EA
:1031B00070E08C2FCF91DBCFCF93DF93EC01888D24
:1031C000883018F4EEDF88E0888FDF91CF91089582
:1031D00063E070E0BFCFCF93C82F80E591E00E94FD
:1031E00065098C2FCF91F4CFEF92FF920F931F932D
:1031F000CF93DF937C018091C204D4E0833309F044
:10320000D8E002EB14E0C0E0F801219131918F0188
:10321000F701848195812817390729F0CF5FDC13E6
:10322000F3CF80E005C08C2FD6DF8431B9F781E081
:10323000DF91CF911F910F91FF90EF900895CF9361
:10324000DF93EC018C858830C8F4C5DF843189F0C8
:10325000882379F0883169F021E08C3159F4E881D4
:10326000F9810084F185E02DCE01199521E0892BAB
:1032700009F420E0822FDF91CF91089580E0FBCF09
:10328000CF92DF92EF92FF92CF93DF93EC018C8588
:10329000883058F47BDF0E94AF0B6B017C018C857A
:1032A0009ADF811109C088E08C87DF91CF91FF9070
:1032B000EF90DF90CF90089561E070E080E090E0C3
:1032C0000E947F0B0E94AF0BAB01BC014C195D0942
:1032D0006E097F098D859E85B0E0A0E048175907EB
:1032E0006A077B07E0F28C855CDFDDCFCF93FC01C2
:1032F000C08D80E591E00E94650960E270E08C2F4E
:1033000036DF62E070E08C2F25DF84FD15C062E0BF
:1033100070E08C2F1FDF83FF0AC048E162E070E09D
:103320008C2F0E94490F80E090E0CF91089580E5B6
:1033300091E00E946509E5CF40E162E070E08C2FEA
:103340000E94490F81E0F0CFDA01E0916B04F0E0D8
:10335000FE2FEE27E60FF71F90E0982F8827A90190
:10336000BD018E0F9F1F5BCC8F929F92AF92BF9239
:10337000CF92DF92EF92FF920F931F93CF93DF9341
:10338000CDB7DEB760970FB6F894DEBF0FBECDBFE6
:103390007C019091C204911115C018E0812F6096B4
:1033A0000FB6F894DEBF0FBECDBFDF91CF911F9156
:1033B0000F91FF90EF90DF90CF90BF90AF909F90D4
:1033C0008F90089508E0933309F404E06B0180E5E1
:1033D00091E00E9465099E012F5F3F4F590149010D
:1033E00010E0812FF5DEF40181934F018823B9F0BD
:1033F0001F5F0113F6CF00E0F50181915F018D3170
:1034000049F0883139F08A51823020F00F5F101373
:10341000F3CFC3CF60E170E0802FA9DE102FA12E83
:10342000B12CF501EE0FFF1FEE54FB4F11821082FD
:1034300083EE93E00197F1F742E870E060E0812FBE
:103440000E94490F4FEF62E070E0812F0E94490F08
:10345000B601C114D10491F480911C0290911D0217
:1034600001968115F0EC9F0708F45AC090931D0255
:1034700080931C0260911C0270911D02812F0E949A
:10348000340F86E0E4E4F2E0DE01199601900D923B
:103490008A95E1F7F70183818F778C8784818D8707
:1034A00085818E87A7014E5F5F4F24E030E06CE09E
:1034B00070E0812F0E940F0FB601812F0E941F0F15
:1034C00026E030E0AE01475F5F4F66E070E0812F9D
:1034D0000E940F0F61E070E0812F49DE27E02A9DF6
:1034E000C0012B9D900D11249C0126583B4F790162
:1034F000F9011182108222E030E0AE01415F5F4F9E
:1035000068E270E0812F20DF8F85988998278927CE
:103510009827F701938382831682158214823ECF07
:1035200080E090ECA3CFCF92DF92EF92FF920F93C7
:103530001F93CF93DF9300D000D0CDB7DEB78C01BF
:103540006B017A01FC01808D883008F42ADE8DEB56
:1035500092E09A838983F60182819381A481B58167
:103560008B839C83AD83BE83B701CE010196FCDEC5
:10357000F801808F8830A0F4F586E486128E118ED3
:1035800081E026960FB6F894DEBF0FBECDBFDF9167
:10359000CF911F910F91FF90EF90DF90CF90089502
:1035A00080E0EFCF7F928F929F92AF92BF92CF92A7
:1035B000DF92EF92FF920F931F93CF93DF931F92AF
:1035C0001F92CDB7DEB7782E8B014A01590122E058
:1035D00030E0AE014F5F5F4F64E270E0B5DEE9803E
:1035E000FA80FE24EF24FE24E00EF11E97013770CE
:1035F0004091C204072D10E0433309F042C0085F38
:103600001F4F102F0027110F110F110FC901800F2D
:10361000911F4733C9F1A9014A0D5B1D4130584044
:1036200098F160E078E06B01C21AD30AA601B401F8
:103630000E944F0EA5014C195D09B4016C0D7D1D52
:10364000C8010E944F0EEA0CFB1CF982EA8222E0BC
:1036500030E0AE014F5F5F4F64E270E0872D0E9463
:103660000F0F0F900F90DF91CF911F910F91FF904F
:10367000EF90DF90CF90BF90AF909F908F907F9012
:103680000895005F1F4FBDCFA501B401DACFEF92BF
:10369000FF921F93CF93DF931F921F92CDB7DEB798
:1036A000182F22E030E0AE014F5F5F4F60E270E024
:1036B0004BDEE980FA80FE24EF24FE2422E030E095
:1036C000AE014F5F5F4F60E270E0812F3DDE898188
:1036D0009A81982789279827E816F90689F487E0C0
:1036E000189FF0011124E658FB4FF582E482C701D0
:1036F0000F900F90DF91CF911F91FF90EF90089561
:103700007C01DCCF1F93CF93DF93182F80E591E0EE
:103710000E946509812FBBDFEC01812F59DD8731C4
:1037200021F08C3111F0D0E0C0E0CE01DF91CF91DB
:103730001F910895CF93DF93EC018C85883050F46E
:103740004ADD873111F08C3129F48C85DBDF81155E
:10375000984098F3DF91CF910895FC0184858830DB
:1037600008F4D0CF90E080E00895CF92DF92EF92FE
:10377000FF921F93CF93DF93182F7B01EA01413013
:10378000584010F0C0E0D8E080E591E00E94650963
:10379000812F7DDF6C01812F1BDD873111F08C3192
:1037A00001F5CC16DD0680F380E591E00E94650905
:1037B0009E01A70170E060E0812FF4DE60E270E01E
:1037C000812FD5DC62E070E0812FC4DC84FD0CC069
:1037D000812FFEDC8823B9F080E591E00E94650925
:1037E000F1CFD0E0C0E0E0CF40E162E070E0812FB7
:1037F0000E94490FCE01DF91CF911F91FF90EF9072
:10380000DF90CF900895D0E0C0E0F4CF0F931F93E6
:10381000CF93DF938C01EA01FC018485883040F46A
:10382000A4DF892B39F481E090E0F801938382834F
:10383000D0E0C0E0CE01DF91CF911F910F910895AC
:103840000F931F93CF93DF93EC01FB0144815581CC
:1038500060817181DBDF8C01CE010E944F13800FEC
:10386000911FDF91CF911F910F9108959F92AF9279
:10387000BF92CF92DF92EF92FF920F931F93CF935D
:10388000DF938C015B01942EE52EFC01C688D7885E
:10389000F08C80E591E00E9465098F2DF8DEC92D3E
:1038A000DE2D8C179D0708F4EC019E01A501B601E1
:1038B0008F2D78DEF801868997898C0F9D1F978B55
:1038C000868BCE01DF91CF911F910F91FF90EF90EA
:1038D000DF90CF90BF90AF909F900895FF920F938D
:1038E0001F93CF93DF931F921F92CDB7DEB7F82EB1
:1038F00022E030E0AE014F5F5F4F66E270E024DD12
:1039000009811A8110270127102722E030E0AE013B
:103910004F5F5F4F66E270E08F2D16DD89819A81DF
:103920009827892798270817190749F4C8010F9085
:103930000F90DF91CF911F910F91FF9008958C010F
:10394000E4CF1F93CF93DF93182F87E0189FE001F8
:103950001124C658DB4F88819981009759F480E57E
:1039600091E00E946509812FB9DF2E81821B9109A8
:1039700099838883DF91CF911F9108959F92AF9291
:10398000BF92CF92DF92EF92FF920F931F93CF934C
:10399000DF93EC017B018091C204811121C01B8265
:1039A0001A8288EE93E0A0E0B0E08C839D83AE8322
:1039B000BF838EE492E09983888388E08C8788EEC9
:1039C00093E09E878D87CE01DF91CF911F910F915C
:1039D000FF90EF90DF90CF90BF90AF909F900895B1
:1039E00034E0932E833311F028E0922E82EBC82E20
:1039F00084E0D82E10E098E0B92EA12CD6012D91AC
:103A00003D916D01F701848195812817390779F47B
:103A1000812FE1DB082F873111F08C3129F5812FBF
:103A200090DF892B51F50C3111F4812FAFDB1F5F33
:103A30009112E4CFA11008C0D701ED91FC91008450
:103A4000F185E02DC70119951B821A8288EE93E05B
:103A5000A0E0B0E08C839D83AE83BF838EE492E0D0
:103A600099838883BC86ABCF843149F08111DFCF45
:103A7000F601329711821082DACFB12ED8CFAA2464
:103A8000A394D5CF8F929F92AF92BF92CF92DF92A5
:103A9000EF92FF920F931F93CF93DF93CDB7DEB7D3
:103AA0002F970FB6F894DEBF0FBECDBF5C014B0160
:103AB0007A018091C2048823B1F104E0833309F0D4
:103AC00008E0B501CE01019659DF82EBC82E84E0F3
:103AD000D82E10E0F601219131916F01F50184811A
:103AE00095812817390741F4812F75DB873121F43F
:103AF000A701B401812F39DE1F5F0113EBCFC7018E
:103B00002F960FB6F894DEBF0FBECDBFDF91CF91D9
:103B10001F910F91FF90EF90DF90CF90BF90AF90EB
:103B20009F908F900895F12CE12CE9CFFC018485C2
:103B3000883008F406CF90E080E008954F925F92BD
:103B40007F928F929F92AF92BF92CF92DF92EF922D
:103B5000FF920F931F93CF93DF931F921F92CDB7C6
:103B6000DEB7782E6B014A01A82EB12C27E0829F88
:103B7000C0011124FC01E658FB4F7F010081118137
:103B800080E591E00E946509081519054CF4872D20
:103B9000A5DEF70126818C01021B11091183008328
:103BA0000115110511F5872D13DB843159F0882398
:103BB00049F001E010E08C3111F410E000E01195C3
:103BC00001951109C8010F900F90DF91CF911F91BE
:103BD0000F91FF90EF90DF90CF90BF90AF909F90AC
:103BE0008F907F905F904F900895801691060CF40F
:103BF000840187E08A9DF0018B9DF00D1124E65829
:103C0000FB4FE280F380C114D10451F12701F7E0AA
:103C10005F22872D0E94010F840D951D2091C20403
:103C2000273309F452C09801240D351D2130384046
:103C300008F44BC020E038E0490184189508A4013D
:103C4000B6010E940F162601480C591C6801C818BD
:103C5000D908872D0E94010FA601B2010E940F16FC
:103C6000E00EF11E87E08A9DF0018B9DF00D11247E
:103C7000E658FB4FF382E28220813181201B310B19
:103C8000318320838681800F912F911D8A3F91057A
:103C900010F4232BE9F487E08A9DF0018B9DF00D51
:103CA0001124E658FB4F1682F982EA8222E030E0C6
:103CB000AE014F5F5F4F68E270E0872D0E940F0FEB
:103CC00060E470E0872D53DA7DCFA801B601C6CF3E
:103CD000868378CFCF93DF93FC01218D328D211520
:103CE000310529F48FEF9FEFDF91CF910895EC011B
:103CF000808D4217530708F0A90120DF1816190616
:103D00008CF7298D3A8D281B390B3A8F298FECCFF0
:103D10000F931F93CF93DF931F92CDB7DEB7FC01B4
:103D2000218D328D232B41F48FEF9FEF0F90DF9188
:103D3000CF911F910F9108958C0141E050E0BE0199
:103D40006F5F7F4FFC01808DF9DE1816190664F74E
:103D5000F801818D928D0197928F818F898190E0FA
:103D6000E5CFCF93DF931F92CDB7DEB741E050E0B0
:103D7000BE016F5F7F4FFC018485E0DE18161906D7
:103D800034F4898190E00F90DF91CF9108958FEF07
:103D90009FEFF9CFCF92DF92EF92FF920F931F9395
:103DA000CF93DF93CDB7DEB7EE970FB6F894DEBFB3
:103DB0000FBECDBF67E975E0CE014296DFDD8E8D87
:103DC000883008F0A8C661ED72E0CE01C3960E946B
:103DD000E1140E94AF0B6093A3057093A405809338
:103DE000A5059093A6056093630470936404809383
:103DF000650490936604CE01429621DA882309F483
:103E00007CC68091A3059091A405A091A505B091D1
:103E1000A60540916304509164046091650470911B
:103E20006604841B950BA60BB70B813D9740A1053B
:103E3000B10508F062C60E94AF0B6093A3057093B2
:103E4000A4058093A5059093A605CE0142966EDE4B
:103E5000892B89F2CE01429684DF182F89831A823A
:103E600041E050E0BE016F5F7F4F84E996E00E9421
:103E7000B6131A3009F04FC78FA998AD892B09F0F6
:103E800043C766ED72E0CE0142960E94521366EE81
:103E900072E0CE0142960E9452136DEF72E0CE01A5
:103EA00042960E945213CE0142960E944F136FE039
:103EB00073E0CE0101960E94E114CE0101960E94AA
:103EC00091128C01CE0101960E94381517FD03C096
:103ED0008EE00E943D0C6BE173E0CE0101960E94E2
:103EE000E114CE0101960E9491128C01CE0101963F
:103EF0000E94381517FD07C04EE060EC77E289E0BC
:103F000090E00E94E40B66E273E0CE0101960E940D
:103F1000E114CE0101960E9491128C01CE0101960E
:103F20000E94381517FD03C08DE00E943D0C62E32E
:103F300073E0CE0101960E94E114CE0101960E9429
:103F400091128C01CE0101960E94381517FD07C011
:103F50004DE060EC77E289E090E00E94E40B6DE3D5
:103F600073E0CE0101960E94E114CE0101960E94F9
:103F700091128C01CE0101960E94381517FD03C0E5
:103F80008CE00E943D0C69E473E0CE0101960E9432
:103F9000E114CE0101960E9491128C01CE0101968E
:103FA0000E94381517FD07C04CE060E87FE482E10D
:103FB00090E00E94E40B64E573E0CE0101960E945C
:103FC000E114CE0101960E9491128C01CE0101965E
:103FD0000E94381517FD03C081E0809362046FE5ED
:103FE00073E0CE0101960E94E114CE0101960E9479
:103FF00091128C01CE0101960E94381517FF109284
:1040000062046BE673E0CE0101960E94E114CE01DA
:1040100001960E9491128C01CE0101960E943815E2
:1040200017FD03C081E080931B0266E773E0CE01B9
:1040300001960E94E114CE0101960E9491128C011A
:10404000CE0101960E94381517FF10921B0262E8FC
:1040500073E0CE0101960E94E114CE0101960E9408
:1040600091128C01CE0101960E94381517FD03C0F4
:1040700089E00E943D0C6DE873E0CE0101960E943C
:10408000E114CE0101960E9491128C01CE0101969D
:104090000E94381517FD07C049E060EC77E289E01F
:1040A00090E00E94E40B67E973E0CE0101960E9464
:1040B000E114CE0101960E9491128C01CE0101966D
:1040C0000E94381517FF10921A0262EA73E0CE01BF
:1040D00001960E94E114CE0101960E9491128C017A
:1040E000CE0101960E94381517FD03C081E0809330
:1040F0001A026CEA73E0CE0101960E94E114CE012F
:1041000001960E9491128C01CE0101960E943815F1
:1041100017FD03C087E00E943D0C67EB73E0CE0102
:1041200001960E94E114CE0101960E9491128C0129
:10413000CE0101960E94381517FD07C047E060ECDC
:1041400077E289E090E00E94E40B61EC73E0CE013D
:1041500001960E94E114CE0101960E9491128C01F9
:10416000CE0101960E94381517FF109219026CECCF
:1041700073E0CE0101960E94E114CE0101960E94E7
:1041800091128C01CE0101960E94381517FD03C0D3
:1041900081E08093190266ED73E0CE0101960E94E2
:1041A000E114CE0101960E9491128C01CE0101967C
:1041B0000E94381517FD07C045E06CED75E080E002
:1041C00090E00E94E40B60EE73E0CE0101960E9445
:1041D000E114CE0101960E9491128C01CE0101964C
:1041E0000E94381517FD07C044E06CED75E080E0D3
:1041F00090E00E94E40B6AEE73E0CE0101960E940B
:10420000E114CE0101960E9491128C01CE0101961B
:104210000E94381517FD07C043E06CED75E080E0A3
:1042200090E00E94E40B64EF73E0CE0101960E94DF
:10423000E114CE0101960E9491128C01CE010196EB
:104240000E94381517FD03C081E0809318026EEFBD
:1042500073E0CE0101960E94E114CE0101960E9406
:1042600091128C01CE0101960E94381517FF109211
:10427000180269E074E0CE0101960E94E114CE01BB
:1042800001960E9491128C01CE0101960E94381570
:1042900017FDB1C04FE050E06BE070E0CE01019639
:1042A0000E94F114CE0101960E9483137093D205EF
:1042B0006093D105CE0101960E94381542E150E08D
:1042C00060E170E0CE0101960E94F114CE010196EA
:1042D0000E9483136093D305CE0101960E94381586
:1042E00045E150E063E170E0CE0101960E94F114D7
:1042F000CE0101960E9483136093D405CE010196EE
:104300000E94381548E150E066E170E0CE01019668
:104310000E94F114CE0101960E9483136093D6058A
:10432000CE0101960E9438154BE150E069E170E042
:10433000CE0101960E94F114CE0101960E948313D2
:104340006093D705CE0101960E9438151092240281
:104350001091D70510932502F090D605F092260211
:10436000D090D405D09227020091D3050093280263
:10437000E090D10580E3E80EE09229020E94DB087C
:10438000813009F0ECC087E08093D5058CE390E0A4
:104390009093CB058093CA0585E39DEDA0E5B2E43B
:1043A0008093C2059093C305A093C405B093C5053F
:1043B0008AE69AE5A6EAB1E48093C6059093C7051C
:1043C000A093C805B093C90583E08093CC0584E031
:1043D0008093CD059AE09093CE058093CF058CE332
:1043E0008093D005CC24C3942D2D4F2D612F809127
:1043F000D8050E94321263E17DE0CE0142960E9410
:10440000621368EC7CE0CE0142960E94621368EA77
:104410007CE0CE0142960E94621364E47CE0CE010F
:1044200042960E9462136FEE7BE0CE0142960E949C
:10443000621368EA7BE0CE0142960E94621363E752
:104440007BE0CE0142960E9462136AE47BE0CE01DB
:1044500042960E9462136AE37BE0CE0142960E947C
:10446000621369E27BE0CE0142960E946213609182
:10447000D405CE018D960E9440156091D305CE01E2
:1044800087960E9440158091D1059091D2051AA27D
:1044900019A21CA21BA21EA21DA24AE0BE016F5FB0
:1044A0007F4F0E94E232BE016F5F7F4FCE01819647
:1044B0000E943714BE016F5D7F4FCE0101960E94AE
:1044C000C81465E174E0CE0101960E94F313BE01A9
:1044D000695D7F4F0E94071465E174E00E94F31349
:1044E000BE01635D7F4F0E940714BC01CE01C996D7
:1044F0000E94C814CE0101960E943815CE01819603
:104500000E943815CE0187960E943815CE018D96EF
:104510000E943815BE01675C7F4FCE01429690D94C
:10452000CE01C9960E94381567E27BE0CE01429623
:104530000E946213E091D505E15062E574E0E73036
:1045400090F4F0E08827E855FD4D8F4F0C940A3920
:10455000B1223226352638263B263E26412681507A
:1045600013CF67E174E0CE0101960E94E114BE0111
:104570006F5F7F4FCE01429663D9CE0101960E94B4
:1045800038156CE17BE0CE0142960E946213609187
:10459000D805CE018D960E9440156091D705CE01B9
:1045A00087960E9440156091D605CE0101960E9423
:1045B0004015BE016F5F7F4FCE0181960E94C814E7
:1045C00064ED72E0CE0181960E94F313BE01695D35
:1045D0007F4F0E94071464ED72E00E94F313BE0146
:1045E000635D7F4F0E940714BC01CE01C9960E94F3
:1045F000C814CE0181960E943815CE0101960E9402
:104600003815CE0187960E943815CE018D960E94EE
:104610003815BE01675C7F4FCE01429611D9CE019D
:10462000C9960E94381565E17BE0CE0142960E9452
:1046300062136FEF7AE0CE0142960E94621360919E
:10464000A705CE0101960E944014BE016F5F7F4F07
:10465000CE014296F5D8CE0101960E9438156DEF35
:104660007AE0CE0142960E9462136091A805CE01C5
:1046700001960E944014BE016F5F7F4FCE014296AB
:10468000DFD8CE0101960E94381563EE7AE0CE01A4
:1046900042960E9462136091A905CE0101960E9484
:1046A0004014BE016F5F7F4FCE014296C9D8CE0144
:1046B00001960E94381561EE7AE0CE0142960E9482
:1046C00062136091AA05CE0101960E944014BE01BA
:1046D0006F5F7F4FCE014296B3D8CE0101960E9404
:1046E00038156AED7AE0CE0142960E9462138091FD
:1046F000180264E97AE0882311F068E47AE0CE01D8
:1047000042960E94621385E00E94BB0B65E07AE04E
:10471000882311F065EC79E0CE0142960E94621385
:1047200084E00E94BB0B60E879E0882311F06CE321
:1047300079E0CE0142960E94621368E279E0CE01F0
:1047400042960E94621368E079E0CE0142960E9490
:10475000621340915E0450915F0460916004709117
:104760006104CE0101960E949414BE016F5F7F4FD9
:10477000CE01429665D8CE0101960E9438156CEFA5
:1047800078E0CE0142960E9462138091190288233C
:1047900009F47AC269EC78E0CE0142960E94621375
:1047A00040915A0450915B0460915C0470915D04E7
:1047B000CE0101960E949414BE016F5F7F4FCE011F
:1047C00042963ED8CE0101960E94381563EB78E000
:1047D000CE0142960E94621387E00E94BB0B62E208
:1047E00078E08823E9F062EF77E0CE0142960E94FC
:1047F000621367E0CE0101960E947415BE016F5FDF
:104800007F4FCE0142961CD8CE0101960E943815EA
:1048100064EE77E0CE0142960E94621365EA77E08B
:10482000CE0142960E94621380911A02882309F4F5
:104830004BC262E777E0CE0142960E94621340913C
:104840005604509157046091580470915904CE0158
:1048500001960E949414BE016F5F7F4FCE01429675
:104860000E94201CCE0101960E9438156CE577E06D
:10487000CE0142960E94621389E00E94BB0B6BEC52
:1048800076E08823F1F06BE976E0CE0142960E9453
:10489000621369E0CE0101960E947415BE016F5F3C
:1048A0007F4FCE0142960E94201CCE0101960E94AD
:1048B00038156DE876E0CE0142960E9462136EE4F0
:1048C00076E0CE0142960E94621364E376E0CE0168
:1048D00042960E94621366E1CE0101960E94401446
:1048E000BE016F5F7F4FCE0142960E94201CCE0119
:1048F00001960E94381565E176E0CE0142960E944D
:10490000621362E1CE0101960E944014BE016F5F06
:104910007F4FCE0142960E94201CCE0101960E943C
:1049200038156DE076E0CE0142960E94621369EF81
:1049300075E0CE0142960E94621360EE75E0CE01F2
:1049400042960E94621360EB74E0CE0101960E94D1
:104950006914BE016F5F7F4FCE0142960E94201CFA
:10496000CE0101960E94381562EC75E0CE014296A8
:104970000E94621368E572E0CE0101960E946914FC
:10498000BE016F5F7F4FCE0142960E94201CCE0178
:1049900001960E94381564EA75E0CE0142960E94A5
:1049A000621368E572E0CE0101960E946914BE01AF
:1049B0006F5F7F4FCE0142960E94201CCE01019670
:1049C0000E9438156EE975E0CE0142960E9462138E
:1049D00080911B026DE475E0811102C062E075E018
:1049E000CE0142960E9462138091620466EB74E0ED
:1049F000882311F066E474E0CE0142960E946213AF
:104A00008CE00E94BB0B68E074E08823C1F06BEC83
:104A100073E0CE0142960E9462136CE0CE010196D3
:104A20000E947415BE016F5F7F4FCE0142960E94B7
:104A3000201CCE0101960E9438156DEB73E0CE016B
:104A400042960E9462138DE00E94BB0B6FE773E0F9
:104A50008823C1F062E473E0CE0142960E946213A3
:104A60006DE0CE0101960E947415BE016F5F7F4F0D
:104A7000CE0142960E94201CCE0101960E9438155C
:104A800064E373E0CE0142960E9462138EE00E94BE
:104A9000BB0B62EF72E08823C1F065EB72E0CE01E0
:104AA00042960E9462136EE0CE0101960E94741538
:104AB000BE016F5F7F4FCE0142960E94201CCE0147
:104AC00001960E94381563EA72E0CE0142960E9478
:104AD000621367E572E0CE0142960E946213CE0136
:104AE00042960E944F1368E472E0CE0142960E9403
:104AF0006213CE0142960E944F1361ED72E084E989
:104B000096E00E943714CE0142960E944019CE01D1
:104B1000C3960E9438158EE00E94BB0B60E08111A5
:104B200001C061E088E10E949D0A8DE00E94BB0BFC
:104B300060E0811101C061E087E10E949D0A8CE084
:104B40000E94BB0B60E0811101C061E086E10E9420
:104B50009D0A89E00E94BB0B60E0811101C061E009
:104B60008DE10E949D0A87E00E94BB0B60E08111ED
:104B700001C061E08CE10E949D0A85E00E94BB0BB0
:104B800060E0811101C061E08AE10E949D0A84E039
:104B90000E94BB0B60E0811101C061E08BE10E94CB
:104BA0009D0A83E00E94BB0B60E0811101C061E0BF
:104BB00089E10E949D0A80916204813051F44CE0A9
:104BC00060E87FE482E190E00E94E40B82E0809361
:104BD00062048CE00E94BB0B81110EC080916204C4
:104BE000823051F44DE060EC77E289E090E00E9481
:104BF000E40B83E0809362048DE00E94BB0B811183
:104C00000DC080916204833049F44EE060EC77E29D
:104C100089E090E00E94E40B109262048091D80534
:104C20002091D6059091A705291384C02091D7051E
:104C30009091A80529137EC081117DC080917604D2
:104C400081117BC081E080937604809118028823D3
:104C500009F473C045E06CED75E080E090E00E94DF
:104C6000E40B6BC064E274E07ECC6BE274E07BCC5E
:104C700061E374E078CC6AE374E075CC61E474E0DD
:104C800072CC68E474E06FCC69E778E0CE014296BC
:104C90000E94621340915A0450915B0460915C043D
:104CA00070915D04CE0101960E949414BE016F5F65
:104CB0007F4FCE0142960E94201CCE0101960E9499
:104CC000381565E678E084CD62E277E0CE01429661
:104CD0000E94621340915604509157046091580409
:104CE00070915904CE0101960E949414BE016F5F29
:104CF0007F4FCE0142960E94201CCE0101960E9459
:104D000038156EE077E0B4CD61ED72E0CE01C39668
:104D10000E94371470C81D3009F46DC819831A82B7
:104D200041E050E0BE016F5F7F4FCE01C3960E940D
:104D3000B61361C88111109276048091D805209134
:104D4000D6059091A90529131BC02091D7059091F4
:104D5000AA05291315C0811114C08091770481110F
:104D600012C081E08093770480911802882359F063
:104D700044E06CED75E080E090E00E94E40B03C03D
:104D80008111109277048091D8059091D6059431C5
:104D900009F0F1C09091D7059F3009F0ECC0811166
:104DA000EDC080917804811107C081E08093780480
:104DB00090911B029111E5C00E94AF0B0091D905A3
:104DC0001091DA052091DB053091DC056017710741
:104DD0008207930798F0D901C80188519C4FAF4FC3
:104DE000BF4F8093D9059093DA05A093DB05B0936C
:104DF000DC058091D8058F5F8093D8058091D80518
:104E00008C3338F08091D7058F5F8093D70510924F
:104E1000D8058091D7058C3338F08091D6058F5F07
:104E20008093D6051092D7058091D605883160F021
:104E30008091D5059091D4059F5F9093D4058F5FA5
:104E40008093D5051092D6058091D505883018F04D
:104E500081E08093D5058091D305823051F4809113
:104E6000D4058D3131F483E08093D30581E08093C4
:104E7000D4058091D305982F9D7F943011F09930FF
:104E800051F49091D4059F3130F08F5F8093D3051A
:104E900081E08093D4058091D305982F9D7F913038
:104EA00051F0853041F099EF980F923020F08A3020
:104EB00011F08C3051F49091D405903230F08F5F26
:104EC0008093D30581E08093D4058091D3058D3004
:104ED00060F08091D1059091D20521E02093D30517
:104EE00001969093D2058093D105E090D10520E3FF
:104EF000E20EC12C0091D3052091D4054091D60536
:104F00006091D7058091D8050E9432120E94190D38
:104F100080E192E00E94790D60935E0470935F04DB
:104F2000809360049093610488E092E00E94790D80
:104F300060935604709357048093580490935904D7
:104F400080E092E00E94790D60935A0470935B04B4
:104F500080935C0490935D04EE960FB6F894DEBFE8
:104F60000FBECDBFDF91CF911F910F91FF90EF90BA
:104F7000DF90CF900895882309F41ECF1092780413
:104F80001BCF8093620418CFFC018485883010F415
:104F90000C949E1D90E080E008958F929F92AF92B6
:104FA000BF92CF92DF92EF92FF920F931F93CF9316
:104FB000DF9300D000D000D01F92CDB7DEB7909124
:104FC000C204911115C018E0812F2A960FB6F894EB
:104FD000DEBF0FBECDBFDF91CF911F910F91FF902C
:104FE000EF90DF90CF90BF90AF909F908F900895FB
:104FF00028E0F22E933311F494E0F92E6B01082F80
:1050000080E591E00E9465099E012F5F3F4F5901A5
:10501000490110E0812F0E94E818F40181934F01AB
:105020008823C1F01F5FF112F5CFF12CF5019191AA
:105030005F019D3149F0983139F09A51923020F05A
:10504000F3941F11F3CFBFCF60E170E08F2D0E946A
:10505000B7181F2DE12EF12CF701EE0FFF1FEE54B4
:10506000FB4F1182108283EE93E00197F1F7402FFE
:1050700070E060E0812F0E94490F4FEF62E070E026
:10508000812F0E94490FB601CD2889F480911C021E
:1050900090911D0201968115F0EC9F0798F1909375
:1050A0001D0280931C0260911C0270911D02812FD1
:1050B0000E94340F61E070E0812F0E94B71827E052
:1050C0002E9DC0012F9D900D11249C0126583B4F11
:1050D0007901F9011182108222E030E0AE01475FD0
:1050E0005F4F68E270E0812F0E94A41989859A853C
:1050F000982789279827F701938382831682158240
:10510000148262CF80E090ECCACF0F931F93CF93AD
:10511000DF93EC018B01888D883010F40E94D11848
:10512000B80182E03ADF888F883050F41D870C8701
:105130001A8E198E81E0DF91CF911F910F91089502
:1051400080E0F9CF0F931F93CF938C01FC01648112
:10515000758181E222DFC82F8830F8F480E591E084
:105160000E9465098C2F0E94E818833131F08C2F42
:10517000CF911F910F910C94C61862E070E08C2FB4
:105180000E94B718F80184819581EC2FF0E0EE0FB2
:10519000FF1FEE54FB4F91838083CF911F910F919E
:1051A0000895CF92DF92EF92FF921F93CF93DF93F8
:1051B000EC017B016A018C85883048F40E94EB1871
:1051C000882319F08C850E94C61888E08C87F70127
:1051D00082819381A481B5810097A105B10551F425
:1051E00090E080E0DF91CF911F91FF90EF90DF90F2
:1051F000CF9008958F3F9F4FAF4FBF4F89F370E01F
:1052000060E081E2CADE182F8C87883048F780E59D
:1052100091E00E946509A7014E5F5F4F24E030E0F6
:105220006CE070E0812F0E940F0FB601812F0E9469
:105230001F0F64E070E0812F0E94B7180E94AF0B2F
:105240006B017C018C850E94EB18873111F18C3148
:1052500001F1882329F20E94AF0BAB01BC014C196C
:105260005D096E097F098D859E85B0E0A0E08417F9
:105270009507A607B70738F061E070E080E090E09E
:105280000E947F0BDFCF8C850E94D11888E08C872D
:10529000A7CF81E090E0A6CF0F931F93CF93DF932A
:1052A0001F921F92CDB7DEB7FC0124852830E0F4B1
:1052B0008C0180E591E00E94650922E030E0AE01BA
:1052C0004F5F5F4F60E170E0F80184850E94A41990
:1052D00089819A819827892798270F900F90DF91CD
:1052E000CF911F910F91089590E080E0F6CF0F933A
:1052F0001F93CF93DF931F921F92CDB7DEB7FC01B0
:1053000024852830E0F48C0180E591E00E94650955
:1053100022E030E0AE014F5F5F4F64E070E0F801E3
:1053200084850E94A41989819A81982789279827C2
:105330000F900F90DF91CF911F910F91089590E002
:1053400080E0F6CF0F931F93CF93DF9300D000D070
:105350001F921F92CDB7DEB78C01D80159964D919F
:105360005C915A974115510551F0ED91FC91048CD7
:10537000F58DE02D70E060E0C8011995EECFF801E1
:10538000808D0E94A11C892BB1F148E050E0BE0144
:105390006F5F7F4FD80158968C910E949E1D181602
:1053A0001906F4F4D801509684E0FE01319601907C
:1053B0000D928A95E1F78D8190E0982F88272E81B4
:1053C000820F911DF801958B848B8F81282F30E0FF
:1053D000322F22278885820F932F911D928F818FE4
:1053E00028960FB6F894DEBF0FBECDBFDF91CF91E8
:1053F0001F910F91089590E080E0F2CF4F925F925D
:105400006F927F928F929F92AF92BF92CF92DF92D4
:10541000EF92FF920F931F93CF93DF93CDB7DEB739
:1054200063970FB6F894DEBF0FBECDBF7C016B0152
:105430003A01FB0120E090E080E06AE03191332303
:1054400009F460C040ED430F4A3008F04CC0689F3B
:10545000A001699F500D1124CA01C097830F911DAF
:1054600037FD9A958F3F910549F340F3F70142814B
:1054700053816481758180918D0590918E05A091F5
:105480008F05B0919005481759076A077B0709F403
:105490000BC28701085F1F4F0E94AF0B6F70772709
:1054A0007C5FC80132DE813009F003C28DEB92E0EF
:1054B0009A838983F70182819381A481B5818B834B
:1054C0009C83AD83BE8345E350E0BE016F5F7F4F99
:1054D000C8010E94CE0F892BA9F5D12CC12CC8017F
:1054E0000E94DC1817C03E3209F0C0CF233009F407
:1054F000BDCFD301A20FB11D12968C932F5F90E008
:1055000080E09CCF233009F0B1CFF3018583CC2418
:10551000C394D12CC60163960FB6F894DEBF0FBEBC
:10552000CDBFDF91CF911F910F91FF90EF90DF9052
:10553000CF90BF90AF909F908F907F906F905F9033
:105540004F9008950E94AF0BF7017783668342E086
:1055500050E0B7016A5F7F4FC8010E94361C81E0AE
:1055600090E09A83898342E050E0BE016F5F7F4FF5
:10557000C8010E94361C80E091E09A83898342E052
:1055800050E0BE016F5F7F4FC8010E94361C1A8237
:10559000198242E050E0BE016F5F7F4FC8010E9458
:1055A000361C42E050E0BE016F5F7F4FC8010E9491
:1055B000361C42E050E0BE016F5F7F4FC8010E9481
:1055C000361C5601F6018081882301F16501F60140
:1055D00081912F01882311F08E32B1F446018A188F
:1055E0009B081814190474F48D8641E050E0BE0144
:1055F000635F7F4FC8010E94361CA401B501C8013A
:105600000E94361C5201DECF6201E1CF1D8641E0CF
:1056100050E0BE01635F7F4FC8010E94361CC12C61
:10562000DD24D394DA82C98242E050E0BE016F5F8C
:105630007F4FC8010E94361CDA82C98242E050E0E6
:10564000BE016F5F7F4FC8010E94361CC8010E94D7
:105650007619892B09F441CFF3E0AF2EB12C230149
:1056600022E0420E511CD4C0F70142815381648173
:105670007581808D918DA28DB38D481759076A076A
:105680007B0709F007C1848D958DC59709F002C18C
:1056900081A192A15DEFC52EDD24DA940C970CF464
:1056A000ADC04CE050E0BE016F5F7F4FC8010E946B
:1056B0006A1E8B819C819827892798279A8B898BD2
:1056C000F7014681578129813A814217530709F032
:1056D000E6C097FFE4C08F7092703BEFC32EDD24CD
:1056E000DA94892B09F08AC06F8078847624672445
:1056F00076242AEFC22EDD24DA946114710409F4B1
:105700007DC0D12CC12C8D819E8198278927982717
:10571000C816D906F8F441E050E0BE01635F7F4F40
:10572000C8010E946A1E4D85442331F050E070E0AC
:1057300060E0C8010E946A1E8D858111ECCF44E0B3
:1057400050E070E060E0C8010E946A1EFFEFCF1ACF
:10575000DF0AD9CF912C812C41E050E0BE016D5E73
:105760007F4FC8010E946A1E4B89842F807C09F0FC
:105770006BC0442331F050E070E060E0C8010E944B
:105780006A1E8B898111E8CF42E050E0BE01615F63
:105790007F4FC8010E946A1E42E050E0BE01635F75
:1057A0007F4FC8010E946A1E44E050E070E060E054
:1057B000C8010E946A1E42E050E0BE016F5E7F4F4A
:1057C000C8010E946A1E8F85988949895A89811566
:1057D000914009F042C0CD84DE84DC24CD24DC2459
:1057E00081E0C816D104C9F54115544009F049C0FB
:1057F00044E050E0B201C8010E946A1E21E0A21AF2
:10580000B10809F46CCEFFEFCF16DF0609F067CEC2
:105810000E94AF0B3B014C01C80194DD181619061C
:105820000CF422CF0E94AF0B6619770988099909F9
:10583000693873418105910548F562E370E080E0C5
:1058400090E00E947F0BE8CF41E050E070E060E024
:10585000C8010E946A1E1B8A94CF542745275427EB
:1058600070E060E0C8010E946A1EFFEF8F1A9F0A75
:105870006814790409F070CF96EFC92EDD24DA940C
:10588000BDCFE7EFCE2EDD24DA94B8CFCC24CA9476
:10589000DC2CB4CF6EEFC62EDD24DA94AFCF4CEF04
:1058A000C42EDD24DA94AACF8EEFC82EDD24DA943C
:1058B00031CED12CC12C2ECECF92DF92EF92FF921F
:1058C0000F931F93CF93DF93CDB7DEB7AF970FB68C
:1058D000F894DEBF0FBECDBF7C016A010DEB12E074
:1058E0001A8309831C861B8688EE93E0A0E0B0E053
:1058F0008D879E87AF87B88B8CE792E09A878987E0
:10590000188F0F8B198E1A8E1B8E1C8E88E089A320
:105910001BA70AA71CA61DA61EA61FA6809181056F
:1059200090918205A0918305B09184058EA39FA3D9
:10593000A8A7B9A78B839C83AD83BE8318861F82DB
:10594000AE01465D5F4FCE01019658DD8130910575
:10595000B1F4D701ED91FC910488F589E02D1DA3E8
:105960000CA38CA59DA5AEA5BFA58EA39FA3A8A79C
:10597000B9A7A601BE016C5D7F4FC7011995AF960F
:105980000FB6F894DEBF0FBECDBFDF91CF911F9150
:105990000F91FF90EF90DF90CF900895CF92DF921C
:1059A000EF92FF920F931F93CF93DF93CDB7DEB7A4
:1059B000AF970FB6F894DEBF0FBECDBF8C016B0161
:1059C0007A018DEB92E09A8389831B821C821D826F
:1059D0001E821C861B8648EE53E060E070E04D8717
:1059E0005E876F87788B2CE732E03A872987988F1C
:1059F0008F8B198E1A8E1B8E1C8E28E029A39BA7D5
:105A00008AA71CA61DA61EA61FA6D8011C968C91AF
:105A1000883060F40E94EB18882321F0F801848517
:105A20000E94C61888E0D8011C968C93809181054D
:105A300090918205A0918305B09184058EA39FA3C8
:105A4000A8A7B9A78B839C83AD83BE8318861F82CA
:105A5000AE01465D5F4FB601CE010196CFDC0097E7
:105A6000C1F0D801ED91FC910684F785E02D8DEB16
:105A700092E09DA38CA38CA59DA5AEA5BFA58EA3EA
:105A80009FA3A8A7B9A7A701BE016C5D7F4FC8015E
:105A90001995AF960FB6F894DEBF0FBECDBFDF915C
:105AA000CF911F910F91FF90EF90DF90CF900895CD
:105AB000EF92FF920F931F93CF93DF9300D01F922B
:105AC000CDB7DEB78C017B01FB0184858830A8F05F
:105AD0008DEB92E0F801918380831282138214820D
