:100000000C943C080C946D080C946D080C946D08CD
:100010000C946D080C946D080C946D080C946D088C
:100020000C946D080C946D080C946D080C946D087C
:100030000C946D080C946D080C946D080C946D086C
:100040000C946D080C946D080C946D080C946D085C
:100050000C946D080C946D080C946D080C94092F89
:100060000C946D080C94D32E0C94A92E0C946D084E
:100070000C946D080C946D080C946D080C946D082C
:100080000C946D080C946D080C946D080C946D081C
:100090000C946D080C946D080C946D080C946D080C
:1000A0000C946D080C946D080C946D080C946D08FC
:1000B0000C946D080C946D080C946D080C946D08EC
:1000C0000C946D080C946D080C946D080C946D08DC
:1000D0000C946D080C946D080C946D08FEC700001C
:1000E000FCC70000072C7AA5BA6CC590DA3B936573
:1000F000FC8BBC53F810FD3C5692834DBD879D3A56
:10010000B63DCBC9BF5BBE73DA0FC93F05A84CCD66
:10011000B2D44EB93836A9020C50B9918688083C41
:10012000A6AAAA2ABE000000803F0664EC1B3C047D
:10013000BC163E3BE5B93CC93C37C29E5A3D6604FD
:1001400098083EEA69AAAA3E000000803F000040ED
:100150007A10F35A00A0724E18090010A5D4E800D6
:1001600000E87648170000E40B54020000CA9A3BEE
:10017000000000E1F5050000809698000000404274
:100180000F000000A0860100000010270000000002
:10019000E803000000006400000000000A00000006
:1001A00000000100000000002C76D888DC674F08B2
:1001B00023DFC1DFAE59E1B1B796E5E3E453C63AB8
:1001C000E651997696E8E6C28426EB898C9B62ED2F
:1001D000407C6FFCEFBC9C9F40F2BAA56FA5F490E9
:1001E000055A2AF75C936B6CF9676DC11BFCE0E460
:1001F0000D47FEF520E6B500D0ED902E03009435B6
:1002000077050080841E080000204E0A000000C808
:100210000C333333330F986E12831141EF8D211459
:10022000893BE65516CFFEE6DB18D1844B381BF729
:100230007C1D901DA4BBE424203284725E228100C8
:10024000C9F124ECA1E53D273C2F626F64793E3C67
:100250002F68746D6C3E003C6120687265663D22BB
:100260002F6E6F7468696E67223E3C627574746F9E
:100270006E20636C6173733D22627574746F6E20BF
:10028000627574746F6E32223E5265667265736871
:10029000203C2F627574746F6E3E3C2F613E3C2F84
:1002A000703E003C2F627574746F6E3E3C2F613E51
:1002B0003C2F703E003C6120687265663D222F3104
:1002C000342F6F6666223E3C627574746F6E2063D5
:1002D0006C6173733D22627574746F6E2062757405
:1002E000746F6E32223E53746F70205A32207A61DE
:1002F00020003C6120687265663D222F31342F6FEB
:100300006E223E3C627574746F6E20636C61737311
:100310003D22627574746F6E223E53746172742054
:100320005A323C2F627574746F6E3E3C2F613E3CB6
:100330002F703E003C2F627574746F6E3E3C2F61CF
:100340003E003C6120687265663D222F31332F6F7D
:100350006666223E3C627574746F6E20636C6173D6
:10036000733D22627574746F6E20627574746F6E63
:1003700032223E53746F70205A31207A6120003C43
:100380006120687265663D222F31332F6F6E223EE9
:100390003C627574746F6E20636C6173733D22628E
:1003A0007574746F6E223E5374617274205A313CBE
:1003B0002F627574746F6E3E3C2F613E003C2F625D
:1003C0007574746F6E3E3C2F613E003C6120687214
:1003D00065663D222F31322F6F6666223E3C627584
:1003E00074746F6E20636C6173733D2262757474F4
:1003F0006F6E20627574746F6E32223E53746F702C
:10040000204C4B207A6120003C6120687265663D7B
:10041000222F31322F6F6E223E3C627574746F6EE4
:1004200020636C6173733D22627574746F6E223E3B
:100430005374617274204C4B3C2F627574746F6EF0
:100440003E3C2F613E003C6120687265663D222F74
:1004500031312F6F6666223E3C627574746F6E2078
:10046000636C6173733D22627574746F6E20627584
:1004700074746F6E32223E43796B6C20706F646CC3
:100480006577616E69652077207472616B63696559
:100490002C206E61647A69736E696A206279207AB1
:1004A0006174727A796D61633C2F627574746F6EDA
:1004B0003E3C2F613E003C6120687265663D222F04
:1004C00031312F6F6E223E3C627574746F6E206303
:1004D0006C6173733D22627574746F6E223E537447
:1004E0006172742063796B6C7520706F646C6577D2
:1004F000616E69613C2F627574746F6E3E3C2F6152
:100500003E003C6120687265663D222F31302F6FBE
:100510006E223E3C627574746F6E20636C617373FF
:100520003D22627574746F6E20223E506F646C655C
:1005300077616E6965205265637A6E653C2F6275DE
:1005400074746F6E3E3C2F613E003C6120687265A2
:10055000663D222F31302F6F6666223E3C627574F5
:10056000746F6E20636C6173733D22627574746F77
:100570006E20627574746F6E32223E506F646C65CB
:1005800077616E6965204175746F3C2F6275747474
:100590006F6E3E3C2F613E003C703E3C696E707554
:1005A0007420747970653D636865636B626F782051
:1005B0006F6E636C69636B3D72657475726E2066F5
:1005C000616C73653B20756E636865636B65643E43
:1005D000204465737A637A003C703E3C696E7075A6
:1005E0007420747970653D636865636B626F782011
:1005F0006F6E636C69636B3D72657475726E2066B5
:10060000616C73653B20636865636B65643E204481
:1006100065737A637A003C48333E506F646C65774B
:10062000616E69653C2F48333E0020433C2F4835BE
:100630003E0020433C2F48353E3C48353E54656DD6
:100640007065726174757261206E6F636E613A20BD
:10065000003C68353E54656D7065726174757261F9
:1006600020647A69656E6E613A20003C6120687290
:1006700065663D222F392F6F6666223E3C62757497
:10068000746F6E20636C6173733D22627574746F56
:100690006E223E53544F50213C2F627574746F6E1E
:1006A0003E3C2F613E3C2F703E003C2F62757474BF
:1006B0006F6E3E3C2F613E003C6120687265663D76
:1006C000222F392F6F6E223E3C627574746F6E203C
:1006D000636C6173733D22627574746F6E20627512
:1006E00074746F6E32223E003C6120687265663D14
:1006F000222F392F6F6E223E3C627574746F6E200C
:10070000636C6173733D22627574746F6E223E3147
:1007100030206D696E2E204F6E3C2F627574746FA1
:100720006E3E3C2F613E3C2F703E002743206E6F93
:10073000633C2F627574746F6E3E3C2F613E003CCB
:10074000703E3C6120687265663D222F382F6F6EC7
:10075000223E3C627574746F6E20636C6173733DEE
:1007600022627574746F6E20627574746F6E3222BB
:100770003E5061727465722000274320647A696577
:100780006E3C2F627574746F6E3E3C2F613E003C70
:10079000703E3C6120687265663D222F382F6F667F
:1007A00066223E3C627574746F6E20636C61737375
:1007B0003D22627574746F6E223E50617274657270
:1007C00020003C6120687265663D222F372F6F66DE
:1007D00066223E3C627574746F6E20636C61737345
:1007E0003D22627574746F6E223E53544F50213C0B
:1007F0002F627574746F6E3E3C2F613E3C2F703ECD
:10080000003C2F627574746F6E3E3C2F613E003C5D
:100810006120687265663D222F372F6F6E223E3C45
:10082000627574746F6E20636C6173733D226275C0
:1008300074746F6E20627574746F6E32223E003C69
:100840006120687265663D222F372F6F6E223E3C15
:10085000627574746F6E20636C6173733D22627590
:1008600074746F6E223E3130206D696E2E204F6E93
:100870003C2F627574746F6E3E3C2F613E3C2F704E
:100880003E002743206E6F633C2F627574746F6E59
:100890003E3C2F613E003C703E3C612068726566C4
:1008A0003D222F362F6F6E223E3C627574746F6E40
:1008B00020636C6173733D22627574746F6E206285
:1008C0007574746F6E32223E50696574726F2000C9
:1008D000274320647A69656E3C2F627574746F6E6D
:1008E0003E3C2F613E003C703E3C61206872656674
:1008F0003D222F362F6F6666223E3C627574746F00
:100900006E20636C6173733D22627574746F6E2226
:100910003E50696574726F200020433C2F423E3C7C
:100920002F48353E003C68353E54656D70657261F8
:1009300074757261207A65776E6574727A6E613A49
:10094000203C423E003C48333E4F67727A657761F7
:100950006E69653C2F48333E003C612068726566D5
:100960003D222F332F6F6E223E3C627574746F6E82
:1009700020636C6173733D22627574746F6E223EE6
:10098000526F6C6574792073746F703C2F6275744C
:10099000746F6E3E3C2F613E3C2F703E003C6120E8
:1009A000687265663D222F342F6F6E223E3C627561
:1009B00074746F6E20636C6173733D22627574741E
:1009C0006F6E223E4F7075736320726F6C65747921
:1009D0003C2F627574746F6E3E3C2F613E3C2F70ED
:1009E0003E003C703E3C6120687265663D222F33BC
:1009F0002F6F6E223E3C627574746F6E20636C6163
:100A000073733D22627574746F6E223E526F6C6513
:100A100074792073746F703C2F627574746F6E3EBE
:100A20003C2F613E003C703E3C6120687265663D33
:100A3000222F352F6F6E223E3C627574746F6E20CC
:100A4000636C6173733D22627574746F6E223E50E5
:100A50006F646E69657320726F6C6574793C2F6288
:100A60007574746F6E3E3C2F613E003C2F6275744E
:100A7000746F6E3E3C2F613E3C2F703E003C612007
:100A8000687265663D222F31352F6F6E223E3C62C3
:100A90007574746F6E20636C6173733D226275743C
:100AA000746F6E223E536574206C69676874206CA5
:100AB0006576656C3A003C6120687265663D222F60
:100AC00031362F6F6666223E3C627574746F6E20FD
:100AD000636C6173733D22627574746F6E2062750E
:100AE00074746F6E32223E4C696768742073656E51
:100AF000736F72206F6E3C2F627574746F6E3E3C24
:100B00002F613E003C6120687265663D222F3136C0
:100B10002F6F6E223E3C627574746F6E20636C6141
:100B200073733D22627574746F6E223E4C69676800
:100B3000742073656E736F72206F66663C2F6275EA
:100B400074746F6E3E3C2F613E003C703E3C6120F1
:100B5000687265663D222F322F6F6666223E3C62C8
:100B60007574746F6E20636C6173733D226275746B
:100B7000746F6E20627574746F6E32223E426C69BF
:100B80006E64732054696D6572204F6E3C2F6275E0
:100B900074746F6E3E3C2F613E003C703E3C6120A1
:100BA000687265663D222F322F6F6E223E3C627561
:100BB00074746F6E20636C6173733D22627574741C
:100BC0006F6E223E426C696E64732054696D65726B
:100BD000204F66663C2F627574746F6E3E3C2F61C9
:100BE0003E00203C2F68353E00203C2F68353E3CBF
:100BF00068353E2053656E736F7220737769617438
:100C00006C613A20003A003C2F68353E3C68353E26
:100C1000205A6163686F6420736C6F6E63613A2061
:100C2000003A00203C68353E20577363686F6420AB
:100C3000736C6F6E63613A2000203C2F68353E0074
:100C400020676F647A696E613A200020003C683545
:100C50003E20447A6973206A6573743A20003C48E8
:100C6000333E526F6C6574793C2F48333E003C62D2
:100C70006F64793E3C48313E486F6D6520436F6E2E
:100C800074726F6C20446F6D656B204F7A61726F68
:100C9000772056302E3037413C2F48313E002E62AF
:100CA0007574746F6E32207B6261636B67726F75EF
:100CB0006E642D636F6C6F723A2023373738373884
:100CC000413B7D3C2F7374796C653E3C2F686561B8
:100CD000643E00746578742D6465636F7261746935
:100CE0006F6E3A206E6F6E653B20666F6E742D736B
:100CF000697A653A20333070783B206D617267699C
:100D00006E3A203270783B20637572736F723A20AE
:100D1000706F696E7465723B7D002E627574746FBE
:100D20006E207B206261636B67726F756E642D63EA
:100D30006F6C6F723A20233139354236413B206265
:100D40006F726465723A206E6F6E653B20636F6CE4
:100D50006F723A2077686974653B207061646469DA
:100D60006E673A203136707820343070783B003C22
:100D70007374796C653E68746D6C207B20666F6E51
:100D8000742D66616D696C793A2048656C7665747E
:100D90006963613B20646973706C61793A20696EA4
:100DA0006C696E652D626C6F636B3B206D61726761
:100DB000696E3A20307078206175746F3B207465DD
:100DC00078742D616C69676E3A2063656E74657224
:100DD0003B7D003C6C696E6B2072656C3D226963E3
:100DE0006F6E2220687265663D22646174613A2CE0
:100DF000223E003C686561643E3C6D657461206E16
:100E0000616D653D2276696577706F72742220632B
:100E10006F6E74656E743D2277696474683D6465B5
:100E2000766963652D77696474682C20696E6974CE
:100E300069616C2D7363616C653D31223E003C211C
:100E4000444F43545950452068746D6C3E3C68745F
:100E50006D6C3E0000002100240027002A002D00B8
:100E60003000330001010000040107010A01000005
:100E70002200250028002B002E0031003400020142
:100E80000000050108010B0100000A0B02090C0D0E
:100E90000E0807030401000000000000000000002D
:100EA0000000000000000000000000000000000042
:100EB00000000000121110000000000000000000FF
:100EC0000000000000000000000000000000005EC4
:100ED000BCE2613FDD83C29C7E20A3FD1F419DC318
:100EE000217FFCA2401E5F01E3BD3E6082DC237DCA
:100EF0009FC1421CFEA0E1BF5D0380DE3C62BEE0FC
:100F0000025CDF81633D7C22C09E1D43A1FF461829
:100F1000FAA427799BC584DA3866E5BB5907DB85D7
:100F20006739BAE406581947A5FB7826C49A653B89
:100F3000D987045AB8E6A7F91B45C6987A24F8A6BB
:100F4000441A99C7257B3A6486D85B05E7B98CD2E9
:100F5000306EEDB3510F4E10F2AC2F7193CD114F97
:100F6000ADF3702ECC92D38D6F31B2EC0E50AFF149
:100F7000134DCE90722C6D33D18F0C52B0EE326C7B
:100F80008ED0530DEFB1F0AE4C1291CF2D73CA94A9
:100F90007628ABF517490856B4EA6937D58B570957
:100FA000EBB536688AD495CB2977F4AA4816E9B709
:100FB000550B88D6346A2B7597C94A14F6A8742A3B
:100FC000C896154BA9F7B6E80A54D7896B350000C7
:100FD00020002300260029002C002F0032000001F1
:100FE00000000301060109010505050507050808BC
:100FF0000808020202020A0A0808040404040101A3
:1010000001010101010103030303030303030407B7
:1010100007070C0C0C0C0C0C0C0C0202020206064E
:101020000606060606060B0B0B0B0B0B0B0B010241
:1010300010202008081020401020408002010201EA
:1010400008040201010204081020408080402010A2
:1010500008040201800402018040201008040201FB
:101060000804020101020408102040800102040863
:1010700010204080532F8B3311241FBECFEFD1E2BD
:10108000DEBFCDBF00E00CBF14E0A0E0B2E0E8E0BE
:10109000F9E700E00BBF02C007900D92A439B10739
:1010A000D9F726E0A4E9B4E001C01D92A33EB2073F
:1010B000E1F718E0CBE3D8E000E006C02197010992
:1010C000802FFE010E94193ACA33D10780E0080739
:1010D000A9F70E94DE300C94733C0C940000209120
:1010E0002E0290912D029230C1F430E02053384FFF
:1010F000C90183709927892B39F4C90164E670E02E
:101100000E94063A892B89F4C90160E971E00E94C6
:10111000063A892B51F08CE10895983020F49170B3
:1011200031F48EE108959095FACF8DE108958FE125
:1011300008958F929F92AF92BF92CF92DF92EF92DB
:10114000FF92CF93DF9320912A026B017C01C20EA4
:10115000D11CE11CF11CC701B6012CE330E040E0DA
:1011600050E00E947F3749015A019601C601D7FE1F
:1011700004C0882799278C199D096CE370E00E94B0
:10118000063A37FD78C021E0022E000C330BDC015B
:101190000E94213A645C7F4F8F4F9F4F2CE330E0D9
:1011A00040E050E00E947F3760932A0280912B023A
:1011B000880E911CA11CB11CC501B40128E130E0CE
:1011C00040E050E00E947F3769017A019401C40138
:1011D00097FE04C0882799278819990968E170E06B
:1011E0000E94063A37FD49C021E0022E000C330B65
:1011F000DC010E94213A685E7F4F8F4F9F4F28E1AC
:1012000030E040E050E00E947F3760932B028091F5
:101210002C02C80ED11CE11CF11C61DF90E0B0E093
:10122000A0E0C0922C028C159D05AE05BF0594F57B
:10123000C1E0D4E6C81AD90AEA0AFB0A80912D0255
:101240008F5F8D30E0F480932D0249DF90E0B0E0B5
:10125000A0E08C159D05AE05BF0564F3C0922C027D
:10126000DF91CF91FF90EF90DF90CF90BF90AF9044
:101270009F908F9008952FEF87CF2FEFB6CFC09319
:101280002D0280912E028B596D2F0E94ED39909383
:101290002E02DBCF1C141D041E041F040CF3CCE033
:1012A000D4E680912D02815089F080932D0217DFC2
:1012B000982F9C0D90932C02C80ED11CE11CF11CA0
:1012C0001C141D041E041F0464F7CACFC0932D0212
:1012D00080912E028D596D2F0E94ED3990932E0230
:1012E000E6CFE0912E02F0E080912D0220912C02B9
:1012F000833088F1E053F84F3DE0839FC001112413
:10130000039665E070E00E94063A260F372F311DE4
:101310002E0F3F1FBF017595679575956795260F31
:10132000371FCF016CE97FEF0E94063A260F371F67
:10133000CF0160E971E00E94063AC901860F971F4C
:1013400027E030E0B9010E94063A0196B9010E94F7
:10135000063A8F5F0895845FE153F84FCDCFCF9366
:10136000DF93C0912D02D0910B06CD1740F18091F3
:101370000D068C1720F1DC1710F4C817A0F1B1DFAF
:10138000482F80912C028F5F841B1816DCF467E0D5
:101390000E94F9398F5F082E000C990BCD1314C0F1
:1013A00020910C0630E0821793074CF0281739077C
:1013B000D4F04230C4F480912B028230A0F4DF914B
:1013C000CF91089580E0E7CF20910E0630E082179C
:1013D00093074CF02817390794F3423084F7809133
:1013E0002B02823060F760910F0670E090E080E0A1
:1013F000DF91CF919ECE8CBD9DBD0895FC01818D66
:10140000928D08950895AF92BF92CF92DF92EF929E
:10141000FF920F931F93CF93DF936C017B018B019E
:10142000040F151FEB015E01AE18BF08C017D107EE
:1014300059F06991D601ED91FC910190F081E02D78
:10144000C6011995892B79F7C501DF91CF911F91BD
:101450000F91FF90EF90DF90CF90BF90AF900895E5
:10146000FC01538D448D252F30E0842F90E0821BAA
:10147000930B541710F0CF96089501970895FC012F
:10148000918D828D981761F0A28DAE0FBF2FB11D87
:101490005D968C91928D9F5F9F73928F90E00895DF
:1014A0008FEF9FEF0895FC01918D828D981731F099
:1014B000828DE80FF11D858D90E008958FEF9FEFED
:1014C0000895FC01918D228D892F90E0805C9F4FC3
:1014D000821B91098F739927089583E095E0F1DFCE
:1014E00021E0892B09F420E0822F0895FC01A48DCE
:1014F000A80FB92FB11DA35ABF4F2C91848D90E036
:1015000001968F739927848FA689B7892C93A08918
:10151000B1898C91837080648C93938D848D9813A2
:1015200006C00288F389E02D80818F7D8083089535
:10153000EF92FF920F931F93CF93DF93EC0181E023
:10154000888F9B8D8C8D98131AC0E889F9898081CA
:1015500085FF15C09FB7F894EE89FF896083E889FD
:10156000F98980818370806480839FBF81E090E0EF
:10157000DF91CF911F910F91FF90EF900895F62E7C
:101580000B8D10E00F5F1F4F0F731127E02E8C8D16
:101590008E110BC00FB607FCFACFE889F98980815C
:1015A00085FFF5CFCE01A2DFF2CFEB8DEC0FFD2F43
:1015B000F11DE35AFF4FF0829FB7F8940B8FEA8931
:1015C000FB8980818062D0CFCF93DF93EC01888D3F
:1015D0008823B1F0AA89BB89E889F9898C9185FDB6
:1015E00003C0808186FD0CC00FB607FCF7CF8C913D
:1015F00085FFF2CF808185FFEDCFCE0177DFEACF87
:10160000DF91CF91089580E090E0892B21F065DF94
:1016100081110E94000080E090E0892B49F080E079
:1016200090E0892B29F00E94000081110E940000A7
:1016300080E090E0892B49F080E090E0892B29F050
:101640000E94000081110E94000080E090E0892B40
:1016500049F080E090E0892B29F00E940000811180
:101660000C9400000895282F30E0F901E857F14F5D
:101670009491F901E25DFF4E44912851304FF901F8
:101680002491222309F435C0992311F1915092310C
:10169000F8F4E92FF0E08827EF5AF44F8F4F0C94BD
:1016A000193A820B860B630B7A0B7E0B680B890B46
:1016B0008F0B930B990B9D0BA10BA70BAB0B680B1F
:1016C000AF0BB50BB90B809180008F7780938000B2
:1016D000E22FF0E0EE0FFF1FE259F14FA591B49118
:1016E0008FB7F894EC91611148C040954E234C930C
:1016F0008FBF0895809180008F7DE8CF809180001A
:10170000877FE4CF84B58F7784BDE2CF84B58F7DAA
:10171000FBCF8091B0008F778093B000D9CF8091BC
:10172000B0008F7DF9CF809190008F7780939000EB
:10173000CFCF809190008F7DF9CF80919000877FEF
:10174000F5CF8091A0008F778093A000C1CF8091CA
:10175000A0008F7DF9CF8091A000877FF5CF809189
:1017600020018F7780932001B3CF809120018F7D5E
:10177000F9CF80912001877FF5CF4E2BB8CFCF9343
:10178000DF9390E0FC01E25DFF4E24918851904F81
:10179000FC0184918823D1F090E0880F991FFC010F
:1017A000EC5AF14FA591B491FC01E259F14FC5916A
:1017B000D49161110EC09FB7F8948C91E22FE095FF
:1017C0008E238C932881E223E8839FBFDF91CF9102
:1017D00008958FB7F894EC91E22BEC938FBFF6CF7E
:1017E00020917B00982F9870277F922B90937B00FD
:1017F0008770806480937C0080917A0080648093FD
:101800007A0080917A0086FDFCCF809178009091DB
:10181000790008953FB7F8948091B0049091B10495
:10182000A091B204B091B30426B5A89B05C02F3F88
:1018300019F00196A11DB11D3FBFBA2FA92F982FF6
:101840008827BC01CD01620F711D811D911D42E0F1
:10185000660F771F881F991F4A95D1F708958F92B9
:101860009F92AF92BF92CF92DF92EF92FF924B0185
:101870005C01D0DF6B017C01CDDF6C197D098E0925
:101880009F09683E734081059105B0F321E0821AFB
:101890009108A108B10888EEC80E83E0D81EE11CAB
:1018A000F11C81149104A104B10431F7FF90EF9071
:1018B000DF90CF90BF90AF909F908F9008952FB7FB
:1018C000F8946091AC047091AD048091AE04909155
:1018D000AF042FBF08950F931F93CF93DF93C82FAB
:1018E000D0E0EDDFFE01EE0FFF1FEE0FFF1FEC5605
:1018F000F94F6083718382839383CC0FDD1FCC0FFC
:10190000DD1FC85AD94F41E0088119812A813B81E6
:10191000061717072807390708F440E0842FDF91DE
:10192000CF911F910F9108958F929F92AF92BF9286
:10193000CF92DF92EF92FF920F931F93CF93DF939B
:101940006B017C01C42FD0E0BADFFE01EE0FFF1F58
:10195000EE0FFF1FEC56F94F6083718382839383F0
:101960008E01000F111F000F111F085A194FF801A7
:1019700080809180A280B380681579058A059B05D7
:1019800008F19DDFCC0FDD1FCC0FDD1FC45ED94FEA
:10199000688379838A839B83C60ED71EE81EF91E4F
:1019A000F801C082D182E282F382DF91CF911F9150
:1019B0000F91FF90EF90DF90CF90BF90AF909F90EE
:1019C0008F900895D501C4018C0D9D1DAE1DBF1DC6
:1019D00080839183A283B383E8CFCF93DF93C82F13
:1019E000D0E06DDFFE01EE0FFF1FEE0FFF1FE85A84
:1019F000F94F608371838283938361DFCC0FDD1F96
:101A0000CC0FDD1FC45ED94F688379838A839B83A3
:101A1000DF91CF910895DC012C911196ED91FC910D
:101A2000F8948181822B81839281322F3095932388
:101A3000928387E090E00197F1F78181832381838E
:101A400083E290E00197F1F790817894EFECF0E079
:101A50003197F1F7922381E009F480E00895FC01C9
:101A600090810180F281E02D292F209560FF14C024
:101A7000F8948281822382838181892B8183A3E2EE
:101A8000B0E01197F1F78281982B9283789487EDDB
:101A900090E00197F1F70895F89482818223828380
:101AA0008181892B8183AFEFB0E01197F1F78281BB
:101AB000982B928378948FE090E0EBCFDF92EF92B7
:101AC000FF920F931F93CF93DF93EC01D62EE42E5A
:101AD00008E010E0FF24F39461E08D2D8F2109F4DC
:101AE00060E0CE01BCDFFF0C01501109A9F7E11045
:101AF00010C0F894E981FA819181888180958923C9
:101B00008183E981FA81928188818095892382830A
:101B10007894DF91CF911F910F91FF90EF90DF901C
:101B20000895FC0190810180F281E02DF89481817B
:101B3000292F20958223818378943DE743E050E06C
:101B4000315029F1DA011197F1F780818923C1F32E
:101B5000F8948281822382838181892B8183789486
:101B6000ABE7B7E01197F1F7F89481818223818385
:101B7000A3E1B1E01197F1F78081982381E009F0AA
:101B800080E07894E3E6F6E03197F1F7089580E09D
:101B90000895CF93C091ED05C11104C0C0E08C2F12
:101BA000CF9108958091EA059091EB05BADF8823E3
:101BB000A9F340E06CEC8091EA059091EB057EDFA3
:101BC0004091EE0581E0482764E48091EA05909118
:101BD000EB0574DF74DE6093EF057093F00580937E
:101BE000F1059093F205DBCFCF92DF92FF920F9336
:101BF0001F93CF93DF936C01F62E8091EA059091AD
:101C0000EB058FDF882319F10091EA051091EB05B0
:101C100040E065E5C80152DFE60188E0C80ED11C4E
:101C2000699140E0C8014ADFCC15DD05C9F740E005
:101C30006F2D8091EA059091EB0540DF81E0DF9107
:101C4000CF911F910F91FF90DF90CF90089580E08A
:101C5000F6CF6F927F928F929F92AF92BF92CF9268
:101C6000DF92EF92FF920F931F93CF93DF93CDB745
:101C7000DEB76D970FB6F894DEBF0FBECDBF6EEB2B
:101C8000B3DF882309F480C08090EA059090EB05CB
:101C90008E010F5E1F4F7E018AE1E80EF11C680184
:101CA00038E0632E712CB12CAA24A394C401B3DEB6
:101CB0008111BA28AA0CA1E06A1A7108B9F7F601D5
:101CC000B1926F01EE15FF0559F799E080E0915050
:101CD00049F0D801ED918D01E827F0E0E253F14F92
:101CE0008491F5CF998D98134FC080E1E5E3F2E040
:101CF000DE01119601900D928A95E1F780914502DF
:101D000090914602A0914702B09148028A8F9B8F22
:101D1000AC8FBD8F0091EC050950110BF701E00F5E
:101D2000F11F808169897A8902C0759567958A95C6
:101D3000E2F7072E000C880B990B0E946C36000FFF
:101D4000111F000F111FE1E0F0E0EC0FFD1FE00F8D
:101D5000F11F20813181428153810E94CB366D96E3
:101D60000FB6F894DEBF0FBECDBFDF91CF911F91AC
:101D70000F91FF90EF90DF90CF90BF90AF909F902A
:101D80008F907F906F90089563E373E988E893ECF8
:101D9000E6CFFC0120812EBD9B012150310941F08D
:101DA00051810DB407FEFDCF4EB55EBD4193F5CF19
:101DB00061507109860F971F0DB407FEFDCF2EB538
:101DC000FC0120830895E091A704F091A80480818C
:101DD0009091A604892B80830895E091A704F09147
:101DE000A80490818091A60480958923808308951A
:101DF0008EBD00000DB407FEFDCF8EB50895AF92E5
:101E0000BF92CF92DF92EF92FF920F931F93CF93E7
:101E1000DF9300D000D01F921F92CDB7DEB78C01A8
:101E20007B016A01809101058333B1F45801A40E4E
:101E3000B51EA016B10609F463C0CFDF80EFD8DF6E
:101E4000812FD6DF802FD4DF0F5F1F4FF7018191E5
:101E50007F01CEDFB8DFEDCF5B01A40EB51E84336A
:101E6000A9F4BBDF19830A838D2D80688B83CC8214
:101E700064E070E0CE0101968CDFAE14BF0409F47B
:101E80003EC0F70181917F01B3DFF7CFA6DF0F3F9F
:101E9000110509F028F419820A8384E08B830CC0B1
:101EA00017FD17C019820A8333E0169507953A95F6
:101EB000E1F7007E0C600B8386E0C816D10490F534
:101EC000F701DE011496EA15FB0599F081918D93D7
:101ED000FACFC80126E0969587952A95E1F7807E8E
:101EE00019830A830115104C10F48461D7CF8C61DB
:101EF000D5CFB6016D5F7F4FCE0101964ADF63DF1C
:101F0000C60128960FB6F894DEBF0FBECDBFDF9195
:101F1000CF911F910F91FF90EF90DF90CF90BF90E6
:101F2000AF90089563E070E0CE01019632DFF701D3
:101F300081917F015DDFAE14BF04C9F7E0CFCF937D
:101F4000DF931F92CDB7DEB7898341E050E0BE0139
:101F50006F5F7F4F90E080E052DF0F90DF91CF9175
:101F6000089590E020910105233339F40C96982FC1
:101F7000990F990F990F80E008954896F8CFDA01EC
:101F8000E091AA04F0E0FE2FEE27E60FF71F90E0A5
:101F9000982F8827A901BD018E0F9F1F30CFCF93A7
:101FA000DF931F921F92CDB7DEB779836A8322E059
:101FB00030E0AE014F5F5F4F60E170E0E0DF0F9017
:101FC0000F90DF91CF910895CF93DF931F921F92CF
:101FD000CDB7DEB779836A8322E030E0AE014F5F90
:101FE0005F4F64E070E0CBDF0F900F90DF91CF91F7
:101FF0000895CF93DF931F92CDB7DEB72091AA0447
:1020000030E0322F2227260F371F90E0982F8827A5
:10201000498341E050E0BE016F5F7F4F820F931F05
:10202000EEDE0F90DF91CF910895CF93DF931F9253
:10203000CDB7DEB76983DC01ED91FC910280F381BD
:10204000E02D41E050E0BE016F5F7F4F19950F908A
:10205000DF91CF910895CF93DF931F92CDB7DEB775
:102060006983DC01ED91FC910280F381E02D41E078
:1020700050E0BE016F5F7F4F19950F90DF91CF91B8
:102080000895FC019485FB018485981303C081E0C9
:10209000983008F080E00895CF93DF931F92CDB77A
:1020A000DEB76983DC01ED91FC910280F381E02DC4
:1020B00041E050E0BE016F5F7F4F19950F90DF91B7
:1020C000CF910895FC01768765870895DC01ED9135
:1020D000FC91068CF78DE02D199591E089270895E4
:1020E000862F089581E08627089521E0FC018485EC
:1020F000883008F020E0822F08950895FF920F9312
:102100001F93CF93DF93EB01FC01178A168A2A8174
:10211000211109C02B81211106C02C81211103C07E
:102120002D812223E9F041155105D1F08A01FC01EE
:10213000F08C80E591E05FD9AE014E5F5F4F24E007
:1021400030E06CE070E08F2D1ADFB8018F2D27DFB3
:1021500081E090E0DF91CF911F910F91FF90089562
:1021600080E0F7CFFC01848595850895FC01848982
:102170009589089522EC32E0FC0131832083FB0134
:102180004089518962897389FC0142835383648346
:1021900075830895DC01ED91FC91048CF58DE02DA3
:1021A0001994089590E080E008954F925F926F92A5
:1021B0007F928F929F92AF92BF92CF92DF92EF92D7
:1021C000FF92CF93DF93CDB7DEB765970FB6F89444
:1021D000DEBF0FBECDBF8D8B60912D02FF24FA9420
:1021E000F60E60912C02EE24EA94E60E21EE3EE219
:1021F00045E652E460910106709102068091030663
:10220000909104060E9442384B015C012D892223E3
:1022100009F4D3C182E189836F2D70E090E080E002
:102220000E946C3620E030E843EF51E40E94CB3648
:102230002B013C016E2D70E090E080E00E946C3636
:102240009B01AC01C301B2010E94DB376B017C0131
:102250002981622F70E090E080E00E946C3620E0DF
:1022600030E040EC51E40E9442389B01AC01C701D0
:10227000B6010E94DB3722E43DEC4CE85CE30E94AF
:10228000CB366B017C010E943F386D837E838F8348
:102290009887C701B6010E94583969877A878B876A
:1022A0009C87A7019601C701B6010E94DB372B016D
:1022B0003C010E943F386D877E878F87988BC301D2
:1022C000B2010E945839698B7A8B8B8B9C8B20E0F2
:1022D00030E040E450E4C701B6010E94CB366B0108
:1022E0007C010E943F382B013C01C701B6010E94CE
:1022F000583969837A838B839C8324E431EC4CECDA
:102300005EE36D817E818F8198850E94CB369B0133
:10231000AC0164E670EB82EE9BE30E94DA376B015E
:102320007C0127EE32EE4FE85DE369857A858B8587
:102330009C850E94CB369B01AC01C701B6010E946F
:10234000DB376B017C0126E332E74DED5BE36D8506
:102350007E858F8598890E94CB369B01AC01C70191
:10236000B6010E94DA376B017C012DEB33EC4DE6B0
:102370005AE369897A898B899C890E94CB369B01B3
:10238000AC01C701B6010E94DB376B017C0127E27B
:1023900030EC40E35BE3C301B2010E94CB369B010A
:1023A000AC01C701B6010E94DA376B017C012FE84E
:1023B0003CEF41EC5AE369817A818B819C810E94D8
:1023C000CB369B01AC01C701B6010E94DB376B0124
:1023D0007C01C501B4010E943F382B013C01C701BB
:1023E000B6010E943F3869837A838B839C83C50141
:1023F000B4010E94A0394B015C01C701B6010E94E3
:10240000A0396B017C0129813A814B815C81C30138
:10241000B2010E94CB369B01AC0168E879E48EE6FC
:102420009CEB0E9442382B013C01A7019601C5019B
:10243000B4010E94CB369B01AC01C301B2010E94E2
:10244000DA376B017C019F7720E030E040E85FE302
:102450000E94543918160CF4B3C0C701B6010E948B
:10246000CC376B017C018D89811104C0F7FAF0949F
:10247000F7F8F094609105067091060680910706C2
:1024800090910806905821EE3EE245E652E40E9403
:102490004238A70196010E94DA3720E030E040E898
:1024A00050E40E94CB3621EE3EE245E652E40E9423
:1024B000CB3620E030E044E354E40E94DB376B018C
:1024C0007C012EEA37ED44EF5AE36D817E818F81E6
:1024D00098850E94CB3622E539E44DE958E30E9405
:1024E000DB374B015C012CE233E643E05DE36985B9
:1024F0007A858B859C850E94CB369B01AC01C501FA
:10250000B4010E94DA374B015C0121EC33E74FE65E
:102510005CE36D857E858F8598890E94CB369B0113
:10252000AC01C501B4010E94DA374B015C0128E41B
:1025300031E547E25DE369897A898B899C890E944C
:10254000CB369B01AC01C501B4010E94DA3724E10E
:102550003EE245E653E40E94CB369B01AC01C70145
:10256000B6010E94DA370E94AA38209109063091FC
:102570000A06620F731F10922B0210922A02109209
:102580002902072E000C880B990B0E94990881E004
:1025900065960FB6F894DEBF0FBECDBFDF91CF9129
:1025A000FF90EF90DF90CF90BF90AF909F908F9073
:1025B0007F906F905F904F90089526E029832CCEF6
:1025C00080E0E6CFCF92EF92FF920F931F93CF93CD
:1025D000DF939091E60591110CC09091E705911160
:1025E00008C09091E805911104C09091E9059923E4
:1025F00041F0811104C0411102C0653011F0CC20BE
:10260000C1F1F22EC42FD62F182F80932902609388
:102610002A0240932B0220932C0200932D02E09279
:102620002E0281E0C2DD882351F00E94AF09809123
:102630002B028093E60580912A028093E705109390
:102640002902D0932A02C0932B02F0922C0200930D
:102650002D02E0922E0280E0A8DD882351F00E9436
:10266000AF0980912B028093E80580912A02809324
:10267000E905DF91CF911F910F91FF90EF90CF90DF
:102680000895CF93DF932091D7063091D806232B5E
:1026900089F0FC01C091D306D091D406608171818C
:1026A000CE010E94593C009729F08C1B9D0BDF91B5
:1026B000CF9108958FEF9FEFFACFFB01019000209B
:1026C000E9F73197AF01461B570BDC01ED91FC9107
:1026D0000280F381E02D19948F929F92AF92BF9266
:1026E000EF92FF920F931F93CF93DF93CDB7DEB797
:1026F000A1970FB6F894DEBF0FBECDBF7C01FA01E3
:10270000CB0119A2223008F42AE08E010F5D1F4F81
:10271000822E912CB12CA12CBF01A50194010E9405
:102720009B37F901CA016A3004F5605DD8016E93E8
:102730008D01232B242B252B79F790E080E0109737
:1027400019F0BD01C701B9DFA1960FB6F894DEBF3D
:102750000FBECDBFDF91CF911F910F91FF90EF90F2
:10276000BF90AF909F908F900895695CDFCF8F925C
:102770009F92AF92BF92CF92DF92EF92FF920F9310
:102780001F93CF93DF937C01EB016C0182E0C80EB5
:10279000D11C4701E5E08E0E911C10E000E0F6012F
:1027A00041916F0150E070E060E02AE0CE0194DFDB
:1027B0005C01E881F9810190F081E02D6EE2CE01AB
:1027C00019958A0D9B1D080F191FC814D90439F7D4
:1027D000F701458150E070E060E02AE0CE017CDF47
:1027E000800F911FDF91CF911F910F91FF90EF907C
:1027F000DF90CF90BF90AF909F908F90089564ED41
:1028000072E05BCF0F931F93CF93DF93EC0155DF03
:102810008C01CE01F4DF800F911FDF91CF911F91CA
:102820000F910895EF92FF920F931F93CF93DF9331
:102830008C017B01D0E0C0E0F701EC0FFD1F64913B
:10284000662331F0C80128DC892B11F02196F4CFE2
:10285000C801D5DF8C0F9D1FDF91CF911F910F9184
:10286000FF90EF900895FC0180819181009711F015
:102870000C94AC3360E070E0CB0108950F931F938C
:10288000CF93DF93EC0188819981009759F02A81D9
:102890003B812617370730F081E0DF91CF911F9100
:1028A0000F9108958B016F5F7F4F0E94663B0097E9
:1028B00059F0998388831B830A832C813D81232BC4
:1028C00059F7FC011082E8CF80E0E7CFEF92FF924A
:1028D0000F931F93CF93DF936115710541F480E04F
:1028E000DF91CF911F910F91FF90EF9008954115C7
:1028F0005105A9F07B01EC010C811D81040F151F0E
:10290000B801BCDF882359F3288139818C819D81EE
:10291000B701820F931F0E94523C1D830C8381E0FC
:10292000DFCFCF93DF93EC0188819981009711F07D
:102930000E94DD3A198218821D821C821B821A8233
:10294000DF91CF910895CF93DF93EC01FB010190CC
:102950000020E9F73197AF01461B570BB7DF811114
:1029600002C0CE01DEDFCE01DF91CF910895CF937B
:10297000DF93EC01FB014481558160817181A6DF09
:10298000811102C0CE01CDDFCE01DF91CF9108953C
:10299000EF92FF920F931F93CF93DF93EC017B0194
:1029A0008A01BA016BDF81110AC0CE01BADFCE0104
:1029B000DF91CF911F910F91FF90EF9008951D83AC
:1029C0000C83B701888199810E94523CF0CFFB01B2
:1029D00001900020E9F73197AF01461B570BD8CF84
:1029E0000F931F93CF93DF9300D000D000D0CDB7CB
:1029F000DEB78C01862FF8011182108213821282B9
:102A0000158214824AE0BE016F5F7F4F90E00E9402
:102A1000F133BE016F5F7F4FC801D9DF29960FB632
:102A2000F894DEBF0FBECDBFDF91CF911F910F9104
:102A30000895EF92FF920F931F93CF93DF93CDB73B
:102A4000DEB7A1970FB6F894DEBF0FBECDBF7C01F5
:102A5000CB01BA01F7011182108213821282158212
:102A600014828E010F5F1F4F22E044E00E948F33DB
:102A7000009781F0BC01C701AADFA1960FB6F894B8
:102A8000DEBF0FBECDBFDF91CF911F910F91FF90A1
:102A9000EF900895C70145DFF0CF0F931F93CF93B9
:102AA000DF93CDB7DEB762970FB6F894DEBF0FBEE7
:102AB000CDBF8C01CB01F8011182108213821282EA
:102AC000158214824AE0BE016F5F7F4F0E94D233AD
:102AD000BE016F5F7F4FC8017ADF62960FB6F89430
:102AE000DEBF0FBECDBFDF91CF911F910F91089533
:102AF000FB01DC0111961C921E9213961C921E92F1
:102B0000129715961C921E9214978617970741F0FC
:102B1000608171816115710519F04481558138CF4B
:102B20000895FC0111821082138212821582148290
:102B3000FB0101900020E9F73197AF01461B570BCD
:102B400027CFCF92DF92EF92FF920F931F93CF93F5
:102B5000DF936C017B018A014617570720F48F2D04
:102B60007A01062F182F66ED72E0C601DADFC091F8
:102B7000D706D091D806EC16FD06F0F40C171D0709
:102B800008F4E801E091D306F091D406EC0FFD1FA4
:102B9000108110826091D3067091D4066E0D7F1D56
:102BA000C6016115710591F012DF8091D3069091F5
:102BB000D406C80FD91F1883C601DF91CF911F918A
:102BC0000F91FF90EF90DF90CF900895AADEEDCFA8
:102BD000FC0180819181009711F00C94DD3A0895F9
:102BE0000F931F93CF93DF93CDB7DEB72C970FB61C
:102BF000F894DEBF0FBECDBF8C016A3068F0F0DE06
:102C0000C8012C960FB6F894DEBF0FBECDBFDF9182
:102C1000CF911F910F910895CE010196E1DE67EDEE
:102C200072E0CE0107967DDFBE016F5F7F4FCE0160
:102C300007969DDEBC01C8015BDFCE010796C8DFA9
:102C4000CE010196C5DFDCCF8F929F92AF92BF92EB
:102C5000CF92DF92EF92FF920F931F93CF93DF9368
:102C6000CDB7DEB768970FB6F894DEBF0FBECDBF05
:102C70007C01062F10E00E945F0CF801EE0FFF1F91
:102C8000EE0FFF1FEC56F94F6083718382839383AD
:102C9000000F111F000F111FF801E85AF94F0081B2
:102CA00011812281338158016901A61AB70AC80A25
:102CB000D90AC601B50128EE33E040E050E00E9499
:102CC0009B3749010CE310E0C901B8010E94063AA4
:102CD000AC01C401841B950BB8010E94063A6B013C
:102CE000CB01B8010E94063A5C01C81AD90A642FC8
:102CF000CE01019675DF6A2DCE01079671DFC60100
:102D0000B8010E94063ACE0143966ADFBE016D5EAD
:102D10007F4FCE010D96ECDE69ED72E0CE010D968F
:102D200012DEBE01695F7F4F22DE69ED72E00BDECD
:102D3000BE016F5F7F4F1BDEBC01C701D9DECE0134
:102D40000D9646DFCE01439643DFCE01079640DF66
:102D5000CE0101963DDFC70168960FB6F894DEBF3D
:102D60000FBECDBFDF91CF911F910F91FF90EF90DC
:102D7000DF90CF90BF90AF909F908F900895AF92CB
:102D8000BF92CF92DF92EF92FF920F931F93CF9358
:102D9000DF9300D01F92CDB7DEB78C016B017A01B3
:102DA000809101058333C1F45B016801C40ED51E17
:102DB000C016D10681F111D88FE01AD8812F18D80A
:102DC000802F16D80F5F1F4F80E012D8F501819336
:102DD0005F010E94E30EECCF843369F50E94ED0E93
:102DE00019830A838F2D8F778B83EC8264E070E0E8
:102DF000CE0101960E94C90EA70170E060E0C601F5
:102E00000E944B3CE114F10421F0B701C6010E947D
:102E1000C90E0E94E30EC7010F900F900F900F9004
:102E2000DF91CF911F910F91FF90EF90DF90CF90A6
:102E3000BF90AF9008950E94ED0E0F3F110509F06D
:102E400030F419820A831B8263E070E0D1CF17FD52
:102E50000BC019820A8333E0169507953A95E1F77E
:102E6000007E08600B83F0CFC80126E09695879519
:102E70002A95E1F7807E19830A830115104C18F416
:102E800080618B83E1CF8861FCCF1F93CF93DF9369
:102E90001F92CDB7DEB7182F80E591E00E94FB09A5
:102EA000812F5FD827E0129FF0011124E754FB4FD8
:102EB00022813381377041E050E0BE016F5F7F4F68
:102EC000820F931F5CDF89810F90DF91CF911F915B
:102ED0000895FC01808D883038F4218D328D232BAC
:102EE00019F0D3DF90E008958FEF9FEF0895CF930F
:102EF000DF93FC012485283028F08FEF9FEFDF91CE
:102F0000CF910895EC010190F081E02D0084F185CE
:102F1000E02D1995892B89F38C85B7DF90E0EFCFF1
:102F2000CF93DF931F92CDB7DEB741E050E0BE01F3
:102F30006F5F7F4F24DF89810F90DF91CF910895DC
:102F400090E080E0EDCFCF93DF93C4E1D0E0F8DFF5
:102F5000882361F061E070E080E090E00E942F0C37
:102F60002197A9F780E0DF91CF91089581E0FBCF11
:102F70001F93CF93DF931F921F92CDB7DEB760E30D
:102F800072E080E090E00E942F0C1FB7F8948091CF
:102F9000A904811127C0EDE1F0E18491E3E6F0E1BD
:102FA0009491E82FF0E0EE0FFF1FEC5AF14FA5913E
:102FB000B491EC91E92321F461E085E30E94330BA5
:102FC00061E085E30E94BF0B8CB580618CBD8CB540
:102FD00080648CBD61E084E30E94BF0B61E083E309
:102FE0000E94BF0B8091A9048F5F8093A9041FBF2B
:102FF000E2EFFFE0E491F0E0EE0FFF1FE259F14F46
:10300000859194919093A8048093A704E8E3F0E15C
:10301000E491E093A60461E08AE00E94BF0B0E9465
:10302000E30E80E591E00E94FB0984E380930105B3
:1030300080E80E949F0F87DF882371F188E00E945B
:103040009F0F7EDF883041F580E10E949F0F78DF7F
:10305000803111F580E00E949F0F72DF182F8111DF
:103060001BC08FE190E05CDF8330B1F480E480939B
:10307000AA0442E06EE170E0812F0E94F90F42E065
:103080006FE170E0812F0E94F90F1F5F183089F700
:1030900081E0809302055BC087E38093010580E8AF
:1030A0000E949F0F50DF8823D9F088E00E949F0F75
:1030B00047DF8830A9F480E10E949F0F41DF182F7D
:1030C000803171F480E00E949F0F3ADF811108C0C7
:1030D00089E390E025DF843019F41093AA04D8CF57
:1030E00083E38093010580E80E949F0F2CDF8823F3
:1030F00059F180E10E949F0F23DF803129F582E1A1
:103100000E949F0F1DDF8231F9F480E00E949F0F23
:1031100017DF811119C084E08093AA0415E51A8392
:1031200041E050E0BE016E5F7F4F8BE190E00E9476
:10313000FF0E198341E050E0BE016F5F7F4F8AE1CF
:1031400090E00E94FF0EA4CF1092010580E00F9046
:103150000F90DF91CF911F910895CF92DF92EF9260
:10316000FF92CF93DF93CDB7DEB7C254D1090FB62C
:10317000F894DEBF0FBECDBFFC0142815381648154
:10318000758123964CAF5DAF6EAF7FAF239781E023
:1031900023968FAF23972396CCACDDACEEACFFAC7F
:1031A0002397CBAADCAAEDAAFEAA4DA75EA76FA71C
:1031B00078AB88ABCDA4DEA4EFA4F8A8CFA2D8A6A4
:1031C000E9A6FAA68EABCBA8DCA8EDA8FEA8C9A2FA
:1031D000DAA2EBA2FCA222EC32E03C8B2B8B9FEF1D
:1031E0009D8B9E8B9F8B188E3E872D878AA7CFA0A5
:1031F000D8A4E9A4FAA4CF86D88AE98AFA8A8CA34B
:1032000089A19AA1ABA1BCA189879A87AB87BC870A
:103210003A8329834B835C836D837E83809102058F
:10322000882309F443C080E591E00E94FB0946E051
:1032300050E063E272E089E090E00E94FF0E44E01B
:1032400050E0BE016D5F7F4F8FE090E00E94FF0E67
:1032500044E050E0BE01615F7F4F81E090E00E945A
:10326000FF0E44E050E0BE016B5E7F4F85E090E0D2
:103270000E94FF0E81E08C8789859A85AB85BC858D
:103280008093C0059093C105A093C205B093C30578
:10329000CE5BDF4F0FB6F894DEBF0FBECDBFDF9120
:1032A000CF91FF90EF90DF90CF90089561DE88235B
:1032B00079F3B9CF2091AA0430E0322F2227620F90
:1032C000731F90E0982F8827860F971F29CECF93E2
:1032D000C82F462F61E070E00E94F90F61E070E0B6
:1032E0008C2FE8DF8111FACFCF910895CF93C82FAB
:1032F00080E591E00E94FB0968E070E08C2FCF919F
:10330000E6CFCF93C82F80E591E00E94FB0960E1F2
:1033100070E08C2FCF91DBCFCF93DF93EC01888DC2
:10332000883018F4EEDF88E0888FDF91CF91089520
:1033300063E070E0BFCFCF93C82F80E591E00E949B
:10334000FB098C2FCF91F4CFEF92FF920F931F9335
:10335000CF93DF937C0180910105D4E0833309F0A2
:10336000D8E001EF14E0C0E0F801219131918F0124
:10337000F701848195812817390729F0CF5FDC1385
:10338000F3CF80E005C08C2FD6DF8431B9F781E020
:10339000DF91CF911F910F91FF90EF900895CF9300
:1033A000DF93EC018C858830C8F4C5DF843189F067
:1033B000882379F0883169F021E08C3159F4E88173
:1033C000F9810084F185E02DCE01199521E0892B4A
:1033D00009F420E0822FDF91CF91089580E0FBCFA8
:1033E000CF92DF92EF92FF92CF93DF93EC018C8527
:1033F000883058F47BDF0E945F0C6B017C018C8568
:103400009ADF811109C088E08C87DF91CF91FF900E
:10341000EF90DF90CF90089561E070E080E090E061
:103420000E942F0C0E945F0CAB01BC014C195D097E
:103430006E097F098D859E85B0E0A0E04817590789
:103440006A077B07E0F28C855CDFDDCFCF93FC0160
:10345000C08D80E591E00E94FB0960E270E08C2F56
:1034600036DF62E070E08C2F25DF84FD15C062E05E
:1034700070E08C2F1FDF83FF0AC048E162E070E03C
:103480008C2F0E94F90F80E090E0CF91089580E5A5
:1034900091E00E94FB09E5CF40E162E070E08C2FF3
:1034A0000E94F90F81E0F0CFDA01E091AA04F0E088
:1034B000FE2FEE27E60FF71F90E0982F8827A9012F
:1034C000BD018E0F9F1F5BCC8F929F92AF92BF92D8
:1034D000CF92DF92EF92FF920F931F93CF93DF93E0
:1034E000CDB7DEB760970FB6F894DEBF0FBECDBF85
:1034F0007C0190910105911115C018E0812F609613
:103500000FB6F894DEBF0FBECDBFDF91CF911F91F4
:103510000F91FF90EF90DF90CF90BF90AF909F9072
:103520008F90089508E0933309F404E06B0180E57F
:1035300091E00E94FB099E012F5F3F4F5901490115
:1035400010E0812FF5DEF40181934F018823B9F05B
:103550001F5F0113F6CF00E0F50181915F018D310E
:1035600049F0883139F08A51823020F00F5F101312
:10357000F3CFC3CF60E170E0802FA9DE102FA12E22
:10358000B12CF501EE0FFF1FEF50FB4F118210829F
:1035900083EE93E00197F1F742E870E060E0812F5D
:1035A0000E94F90F4FEF62E070E0812F0E94F90F47
:1035B000B601C114D10491F48091210290912202AC
:1035C00001968115F0EC9F0708F45AC090932202EF
:1035D000809321026091210270912202812F0E942A
:1035E000E40F86E0E9E4F2E0DE01199601900D9225
:1035F0008A95E1F7F70183818F778C8784818D87A6
:1036000085818E87A7014E5F5F4F24E030E06CE03C
:1036100070E0812F0E94BF0FB601812F0E94CF0F53
:1036200026E030E0AE01475F5F4F66E070E0812F3B
:103630000E94BF0F61E070E0812F49DE27E02A9DE4
:10364000C0012B9D900D11249C0127543B4F790103
:10365000F9011182108222E030E0AE01415F5F4F3C
:1036600068E270E0812F20DF8F859889982789276D
:103670009827F701938382831682158214823ECFA6
:1036800080E090ECA3CFCF92DF92EF92FF920F9366
:103690001F93CF93DF9300D000D0CDB7DEB78C015E
:1036A0006B017A01FC01808D883008F42ADE82ECFF
:1036B00092E09A838983F60182819381A481B58106
:1036C0008B839C83AD83BE83B701CE010196FCDE64
:1036D000F801808F8830A0F4F586E486128E118E72
:1036E00081E026960FB6F894DEBF0FBECDBFDF9106
:1036F000CF911F910F91FF90EF90DF90CF900895A1
:1037000080E0EFCF7F928F929F92AF92BF92CF9245
:10371000DF92EF92FF920F931F93CF93DF931F924D
:103720001F92CDB7DEB7782E8B014A01590122E0F6
:1037300030E0AE014F5F5F4F64E270E0B5DEE980DC
:10374000FA80FE24EF24FE24E00EF11E970137706C
:1037500040910105072D10E0433309F042C0085F96
:103760001F4F102F0027110F110F110FC901800FCC
:10377000911F4733C9F1A9014A0D5B1D41305840E3
:1037800098F160E078E06B01C21AD30AA601B40197
:103790000E94FF0EA5014C195D09B4016C0D7D1D41
:1037A000C8010E94FF0EEA0CFB1CF982EA8222E0AB
:1037B00030E0AE014F5F5F4F64E270E0872D0E9402
:1037C000BF0F0F900F90DF91CF911F910F91FF903E
:1037D000EF90DF90CF90BF90AF909F908F907F90B1
:1037E0000895005F1F4FBDCFA501B401DACFEF925E
:1037F000FF921F93CF93DF931F921F92CDB7DEB737
:10380000182F22E030E0AE014F5F5F4F60E270E0C2
:103810004BDEE980FA80FE24EF24FE2422E030E033
:10382000AE014F5F5F4F60E270E0812F3DDE898126
:103830009A81982789279827E816F90689F487E05E
:10384000189FF0011124E754FB4FF582E482C70171
:103850000F900F90DF91CF911F91FF90EF900895FF
:103860007C01DCCF1F93CF93DF93182F80E591E08D
:103870000E94FB09812FBBDFEC01812F59DD8731CD
:1038800021F08C3111F0D0E0C0E0CE01DF91CF917A
:103890001F910895CF93DF93EC018C85883050F40D
:1038A0004ADD873111F08C3129F48C85DBDF8115FD
:1038B000984098F3DF91CF910895FC01848588307A
:1038C00008F4D0CF90E080E00895CF92DF92EF929D
:1038D000FF921F93CF93DF93182F7B01EA014130B2
:1038E000584010F0C0E0D8E080E591E00E94FB096C
:1038F000812F7DDF6C01812F1BDD873111F08C3131
:1039000001F5CC16DD0680F380E591E00E94FB090D
:103910009E01A70170E060E0812FF4DE60E270E0BC
:10392000812FD5DC62E070E0812FC4DC84FD0CC007
:10393000812FFEDC8823B9F080E591E00E94FB092D
:10394000F1CFD0E0C0E0E0CF40E162E070E0812F55
:103950000E94F90FCE01DF91CF911F91FF90EF9060
:10396000DF90CF900895D0E0C0E0F4CF0F931F9385
:10397000CF93DF938C01EA01FC018485883040F409
:10398000A4DF892B39F481E090E0F80193838283EE
:10399000D0E0C0E0CE01DF91CF911F910F9108954B
:1039A0000F931F93CF93DF93EC01FB01448155816B
:1039B00060817181DBDF8C01CE010E94FF13800FDB
:1039C000911FDF91CF911F910F9108959F92AF9218
:1039D000BF92CF92DF92EF92FF920F931F93CF93FC
:1039E000DF938C015B01942EE52EFC01C688D788FD
:1039F000F08C80E591E00E94FB098F2DF8DEC92D47
:103A0000DE2D8C179D0708F4EC019E01A501B6017F
:103A10008F2D78DEF801868997898C0F9D1F978BF3
:103A2000868BCE01DF91CF911F910F91FF90EF9088
:103A3000DF90CF90BF90AF909F900895FF920F932B
:103A40001F93CF93DF931F921F92CDB7DEB7F82E4F
:103A500022E030E0AE014F5F5F4F66E270E024DDB0
:103A600009811A8110270127102722E030E0AE01DA
:103A70004F5F5F4F66E270E08F2D16DD89819A817E
:103A80009827892798270817190749F4C8010F9024
:103A90000F90DF91CF911F910F91FF9008958C01AE
:103AA000E4CF1F93CF93DF93182F87E0189FE00197
:103AB0001124C754DB4F88819981009759F480E520
:103AC00091E00E94FB09812FB9DF2E81821B9109B1
:103AD00099838883DF91CF911F9108959F92AF9230
:103AE000BF92CF92DF92EF92FF920F931F93CF93EB
:103AF000DF93EC017B0180910105811121C01B82C4
:103B00001A8288EE93E0A0E0B0E08C839D83AE83C0
:103B1000BF8383E592E09983888388E08C8788EE71
:103B200093E09E878D87CE01DF91CF911F910F91FA
:103B3000FF90EF90DF90CF90BF90AF909F9008954F
:103B400034E0932E833311F028E0922E81EFC82EBB
:103B500084E0D82E10E098E0B92EA12CD6012D914A
:103B60003D916D01F701848195812817390779F41A
:103B7000812FE1DB082F873111F08C3129F5812F5E
:103B800090DF892B51F50C3111F4812FAFDB1F5FD2
:103B90009112E4CFA11008C0D701ED91FC910084EF
:103BA000F185E02DC70119951B821A8288EE93E0FA
:103BB000A0E0B0E08C839D83AE83BF8383E592E079
:103BC00099838883BC86ABCF843149F08111DFCFE4
:103BD000F601329711821082DACFB12ED8CFAA2403
:103BE000A394D5CF8F929F92AF92BF92CF92DF9244
:103BF000EF92FF920F931F93CF93DF93CDB7DEB772
:103C00002F970FB6F894DEBF0FBECDBF5C014B01FE
:103C10007A01809101058823B1F104E0833309F032
:103C200008E0B501CE01019659DF81EFC82E84E08E
:103C3000D82E10E0F601219131916F01F5018481B8
:103C400095812817390741F4812F75DB873121F4DD
:103C5000A701B401812F39DE1F5F0113EBCFC7012C
:103C60002F960FB6F894DEBF0FBECDBFDF91CF9178
:103C70001F910F91FF90EF90DF90CF90BF90AF908A
:103C80009F908F900895F12CE12CE9CFFC01848561
:103C9000883008F406CF90E080E008954F925F925C
:103CA0007F928F929F92AF92BF92CF92DF92EF92CC
:103CB000FF920F931F93CF93DF931F921F92CDB765
:103CC000DEB7782E6B014A01A82EB12C27E0829F27
:103CD000C0011124FC01E754FB4F7F0100811181D9
:103CE00080E591E00E94FB09081519054CF4872D29
:103CF000A5DEF70126818C01021B110911830083C7
:103D00000115110511F5872D13DB843159F0882336
:103D100049F001E010E08C3111F410E000E0119561
:103D200001951109C8010F900F90DF91CF911F915C
:103D30000F91FF90EF90DF90CF90BF90AF909F904A
:103D40008F907F905F904F900895801691060CF4AD
:103D5000840187E08A9DF0018B9DF00D1124E754CA
:103D6000FB4FE280F380C114D10451F12701F7E049
:103D70005F22872D0E94B10F840D951D20910105B2
:103D8000273309F452C09801240D351D21303840E5
:103D900008F44BC020E038E0490184189508A401DC
:103DA000B6010E94BF162601480C591C6801C818AC
:103DB000D908872D0E94B10FA601B2010E94BF163B
:103DC000E00EF11E87E08A9DF0018B9DF00D11241D
:103DD000E754FB4FF382E28220813181201B310BBB
:103DE000318320838681800F912F911D8A3F910519
:103DF00010F4232BE9F487E08A9DF0018B9DF00DF0
:103E00001124E754FB4F1682F982EA8222E030E067
:103E1000AE014F5F5F4F68E270E0872D0E94BF0FD9
:103E200060E470E0872D53DA7DCFA801B601C6CFDC
:103E3000868378CFCF93DF93FC01218D328D2115BE
:103E4000310529F48FEF9FEFDF91CF910895EC01B9
:103E5000808D4217530708F0A90120DF18161906B4
:103E60008CF7298D3A8D281B390B3A8F298FECCF8F
:103E70000F931F93CF93DF931F92CDB7DEB7FC0153
:103E8000218D328D232B41F48FEF9FEF0F90DF9127
:103E9000CF911F910F9108958C0141E050E0BE0138
:103EA0006F5F7F4FFC01808DF9DE1816190664F7ED
:103EB000F801818D928D0197928F818F898190E099
:103EC000E5CFCF93DF931F92CDB7DEB741E050E04F
:103ED000BE016F5F7F4FFC018485E0DE1816190676
:103EE00034F4898190E00F90DF91CF9108958FEFA6
:103EF0009FEFF9CFCF92DF92EF92FF920F931F9334
:103F0000CF93DF93CDB7DEB7EE970FB6F894DEBF51
:103F10000FBECDBF66ED75E0CE014296DFDD8E8D22
:103F2000883008F0EDC666ED72E0CE01C3960E94BF
:103F300091150E945F0C6093E2057093E3058093F6
:103F4000E4059093E5056093A2047093A304809325
:103F5000A4049093A504CE01429621DA882309F4A3
:103F6000C1C68091E2059091E305A091E405B0916E
:103F7000E5054091A2045091A3046091A4047091BE
:103F8000A504841B950BA60BB70B813D9740A1059B
:103F9000B10508F0A7C60E945F0C6093E20570931C
:103FA000E3058093E4059093E505CE0142966EDE2D
:103FB000892B89F2CE01429684DF182F89831A82D9
:103FC00041E050E0BE016F5F7F4F83ED96E00E94BD
:103FD00066141A3009F09AC78FA998AD892B09F099
:103FE0008EC76BED72E0CE0142960E9402146BEE1A
:103FF00072E0CE0142960E94021462E073E0CE01AC
:1040000042960E940214CE0142960E94FF1364E180
:1040100073E0CE0101960E949115CE0101960E9497
:1040200041138C01CE0101960E94E81517FD03C0D3
:1040300081E0809320026FE173E0CE0101960E943F
:104040009115CE0101960E9441138C01CE0101967B
:104050000E94E81517FF109220026BE273E0CE0178
:1040600001960E949115CE0101960E9441138C0188
:10407000CE0101960E94E81517FD08C080911E022E
:1040800090911F0290931D0280931C0266E373E0DF
:10409000CE0101960E949115CE0101960E94411316
:1040A0008C01CE0101960E94E81517FD03C08EE039
:1040B0000E94ED0C62E473E0CE0101960E9491151E
:1040C000CE0101960E9441138C01CE0101960E94FF
:1040D000E81517FD07C04EE060EC77E289E090E05C
:1040E0000E94940C6DE473E0CE0101960E9491153C
:1040F000CE0101960E9441138C01CE0101960E94CF
:10410000E81517FD03C08DE00E94ED0C69E573E032
:10411000CE0101960E949115CE0101960E94411395
:104120008C01CE0101960E94E81517FD07C04DE0F5
:1041300060EC77E289E090E00E94940C64E673E022
:10414000CE0101960E949115CE0101960E94411365
:104150008C01CE0101960E94E81517FD03C08CE08A
:104160000E94ED0C60E773E0CE0101960E9491156C
:10417000CE0101960E9441138C01CE0101960E944E
:10418000E81517FD07C04CE060E87FE482E190E0AD
:104190000E94940C6BE773E0CE0101960E9491158A
:1041A000CE0101960E9441138C01CE0101960E941E
:1041B000E81517FD03C081E08093A10466E873E071
:1041C000CE0101960E949115CE0101960E944113E5
:1041D0008C01CE0101960E94E81517FF1092A104F0
:1041E00062E973E0CE0101960E949115CE0101961D
:1041F0000E9441138C01CE0101960E94E81517FD23
:1042000003C081E080931B026DE973E0CE0101964B
:104210000E949115CE0101960E9441138C01CE019E
:1042200001960E94E81517FF10921B0269EA73E0DD
:10423000CE0101960E949115CE0101960E94411374
:104240008C01CE0101960E94E81517FD03C089E09C
:104250000E94ED0C64EB73E0CE0101960E94911573
:10426000CE0101960E9441138C01CE0101960E945D
:10427000E81517FD07C049E060EC77E289E090E0BF
:104280000E94940C6EEB73E0CE0101960E94911592
:10429000CE0101960E9441138C01CE0101960E942D
:1042A000E81517FF10921A0269EC73E0CE0101962F
:1042B0000E949115CE0101960E9441138C01CE01FE
:1042C00001960E94E81517FD03C081E080931A0251
:1042D00063ED73E0CE0101960E949115CE01019627
:1042E0000E9441138C01CE0101960E94E81517FD32
:1042F00003C087E00E94ED0C6EED73E0CE010196E5
:104300000E949115CE0101960E9441138C01CE01AD
:1043100001960E94E81517FD07C047E060EC77E2C0
:1043200089E090E00E94940C68EE73E0CE01019663
:104330000E949115CE0101960E9441138C01CE017D
:1043400001960E94E81517FF1092190263EF73E0BF
:10435000CE0101960E949115CE0101960E94411353
:104360008C01CE0101960E94E81517FD03C081E083
:10437000809319026DEF73E0CE0101960E949115B2
:10438000CE0101960E9441138C01CE0101960E943C
:10439000E81517FD07C045E06CED75E080E090E0A2
:1043A0000E94940C67E074E0CE0101960E94911582
:1043B000CE0101960E9441138C01CE0101960E940C
:1043C000E81517FD07C044E06CED75E080E090E073
:1043D0000E94940C61E174E0CE0101960E94911557
:1043E000CE0101960E9441138C01CE0101960E94DC
:1043F000E81517FD07C043E06CED75E080E090E044
:104400000E94940C6BE174E0CE0101960E9491151C
:10441000CE0101960E9441138C01CE0101960E94AB
:10442000E81517FD03C081E08093180265E274E08F
:10443000CE0101960E949115CE0101960E94411372
:104440008C01CE0101960E94E81517FF1092180208
:1044500060E374E0CE0101960E949115CE010196B1
:104460000E9441138C01CE0101960E94E81517FDB0
:10447000B1C04FE050E06BE070E0CE0101960E94C9
:10448000A115CE0101960E9433147093110660931A
:104490001006CE0101960E94E81542E150E060E16D
:1044A00070E0CE0101960E94A115CE0101960E94F6
:1044B000331460931206CE0101960E94E81545E17F
:1044C00050E063E170E0CE0101960E94A115CE019B
:1044D00001960E94331460931306CE0101960E9448
:1044E000E81548E150E066E170E0CE0101960E94D7
:1044F000A115CE0101960E94331460931506CE01DA
:1045000001960E94E8154BE150E069E170E0CE01B0
:1045100001960E94A115CE0101960E94331460936A
:104520001606CE0101960E94E815109229021091FC
:10453000160610932A02F0901506F0922B02D090E6
:104540001306D0922C020091120600932D02E090E7
:10455000100680E3E80EE0922E020E94710981307D
:1045600009F0ECC087E0809314068CE390E0909310
:104570000A068093090685E39DEDA0E5B2E48093E9
:10458000010690930206A0930306B09304068AE600
:104590009AE5A6EAB1E48093050690930606A093F7
:1045A0000706B093080683E080930B0684E08093AF
:1045B0000C069AE090930D0680930E068CE3809390
:1045C0000F06CC24C3942D2D4F2D612F80911706FB
:1045D0000E94E2126EE37EE0CE0142960E94121427
:1045E00063EF7DE0CE0142960E94121463ED7DE000
:1045F000CE0142960E9412146FE67DE0CE014296F3
:104600000E9412146AE17DE0CE0142960E941214CB
:1046100063ED7CE0CE0142960E9412146EE97CE0CC
:10462000CE0142960E9412146EE67CE0CE014296C4
:104630000E9412146EE57CE0CE0142960E94121494
:104640006DE47CE0CE0142960E9412146091130644
:10465000CE018D960E94F01560911206CE018796CC
:104660000E94F01580911006909111061AA219A2CD
:104670001CA21BA21EA21DA24AE0BE016F5F7F4FBB
:104680000E94F133BE016F5F7F4FCE0181960E9481
:10469000E714BE016F5D7F4FCE0101960E94781531
:1046A0006CE374E0CE0101960E94A314BE01695D23
:1046B0007F4F0E94B7146CE374E00E94A314BE0104
:1046C000635D7F4F0E94B714BC01CE01C9960E9462
:1046D0007815CE0101960E94E815CE0181960E94C0
:1046E000E815CE0187960E94E815CE018D960E94AE
:1046F000E815BE01675C7F4FCE01429651D9CE01CD
:10470000C9960E94E8156BE47CE0CE0142960E94B7
:104710001214E0911406E15069E774E0E73090F478
:10472000F0E08827E956FC4D8F4F0C94193AA023EE
:104730002D2730273327362739273C27815013CFA1
:104740006EE374E0CE0101960E949115BE016F5F89
:104750007F4FCE01429624D9CE0101960E94E815E2
:1047600060E47CE0CE0142960E941214609117062C
:10477000CE018D960E94F01560911606CE018796A7
:104780000E94F01560911506CE0101960E94F01569
:10479000BE016F5F7F4FCE0181960E94781569ED53
:1047A00072E0CE0181960E94A314BE01695D7F4F25
:1047B0000E94B71469ED72E00E94A314BE01635D0C
:1047C0007F4F0E94B714BC01CE01C9960E94781594
:1047D000CE0181960E94E815CE0101960E94E8154F
:1047E000CE0187960E94E815CE018D960E94E815AD
:1047F000BE01675C7F4FCE014296D2D8CE01C996EA
:104800000E94E81569E37CE0CE0142960E941214F2
:1048100063E27CE0CE0142960E9412146091E605AC
:10482000CE0101960E94F014BE016F5F7F4FCE0152
:104830004296B6D8CE0101960E94E81561E27CE06E
:10484000CE0142960E9412146091E705CE010196B6
:104850000E94F014BE016F5F7F4FCE014296A0D838
:10486000CE0101960E94E81567E07CE0CE014296F9
:104870000E9412146091E805CE0101960E94F01486
:10488000BE016F5F7F4FCE0142968AD8CE0101965E
:104890000E94E81565E07CE0CE0142960E94121469
:1048A0006091E905CE0101960E94F014BE016F5F90
:1048B0007F4FCE01429674D8CE0101960E94E81532
:1048C00069EE7BE0CE0142960E94121460911E02B6
:1048D00070911F02CE0101960E944D15BE016F5FBF
:1048E0007F4FCE0142965CD8CE0101960E94E8151A
:1048F00062EE7BE0CE0142960E9412148091180273
:104900006AE97BE0882311F06AE47BE0CE014296FD
:104910000E9412148091200264E07BE0882311F051
:1049200066EB7AE0CE0142960E9412146DE77AE0BF
:10493000CE0142960E94121460911C0270911D02D9
:10494000CE0101960E944D15BE016F5F7F4FCE01D3
:10495000429626D8CE0101960E94E8156BE67AE0D1
:10496000CE0142960E94121485E00E946B0C65E213
:104970007AE0882311F062EE79E0CE0142960E943F
:10498000121484E00E946B0C6DE979E0882311F029
:1049900069E579E0CE0142960E94121465E479E05F
:1049A000CE0142960E94121465E279E0CE01429651
:1049B0000E94121440919D0450919E0460919F04A6
:1049C0007091A004CE0101960E941915BE016F5F7F
:1049D0007F4FCE0142960E94D01CCE0101960E94CC
:1049E000E81569E179E0CE0142960E9412148091A7
:1049F0001902882309F443C266EE78E0CE0142969C
:104A00000E9412144091990450919A0460919B0461
:104A100070919C04CE0101960E941915BE016F5F32
:104A20007F4FCE0142960E94D01CCE0101960E947B
:104A3000E81560ED78E0CE0142960E94121487E0FE
:104A40000E946B0C6FE378E08823F1F06FE078E070
:104A5000CE0142960E94121467E0CE0101960E9498
:104A60002416BE016F5F7F4FCE0142960E94D01C7C
:104A7000CE0101960E94E81561E078E0CE014296F1
:104A80000E94121462EC77E0CE0142960E9412144A
:104A900080911A02882309F412C26FE877E0CE01F0
:104AA00042960E9412144091950450919604609190
:104AB000970470919804CE0101960E941915BE01C9
:104AC0006F5F7F4FCE0142960E94D01CCE010196AF
:104AD0000E94E81569E777E0CE0142960E94121421
:104AE00089E00E946B0C68EE76E08823F1F068EBB9
:104AF00076E0CE0142960E94121469E0CE01019642
:104B00000E942416BE016F5F7F4FCE0142960E9425
:104B1000D01CCE0101960E94E8156AEA76E0CE012B
:104B200042960E9412146BE676E0CE0142960E94F5
:104B3000121461E576E0CE0142960E94121466E1FD
:104B4000CE0101960E94F014BE016F5F7F4FCE012F
:104B500042960E94D01CCE0101960E94E81562E3A5
:104B600076E0CE0142960E94121462E1CE010196D7
:104B70000E94F014BE016F5F7F4FCE0142960E94EB
:104B8000D01CCE0101960E94E8156AE276E0CE01C3
:104B900042960E94121466E176E0CE0142960E948F
:104BA00012148091940468ED75E0811102C068E9E7
:104BB00075E0CE0142960E94121480911B026AE4B5
:104BC00075E0811102C062E075E0CE0142960E945C
:104BD00012148091A10466EB74E0882311F066E45E
:104BE00074E0CE0142960E9412148CE00E946B0C7D
:104BF00068E074E08823C1F06BEC73E0CE0142966C
:104C00000E9412146CE0CE0101960E942416BE018F
:104C10006F5F7F4FCE0142960E94D01CCE0101965D
:104C20000E94E8156DEB73E0CE0142960E941214CB
:104C30008DE00E946B0C6FE773E08823C1F062E4A3
:104C400073E0CE0142960E9412146DE0CE010196EF
:104C50000E942416BE016F5F7F4FCE0142960E94D4
:104C6000D01CCE0101960E94E81564E373E0CE01EA
:104C700042960E9412148EE00E946B0C62EF72E06A
:104C80008823C1F065EB72E0CE0142960E941214B7
:104C90006EE0CE0101960E942416BE016F5F7F4F29
:104CA000CE0142960E94D01CCE0101960E94E815CA
:104CB00063EA72E0CE0142960E94121467E572E048
:104CC000CE0142960E941214CE0142960E94FF131A
:104CD00068E472E0CE0142960E941214CE01429620
:104CE0000E94FF1366ED72E083ED96E00E94E714E8
:104CF000CE0142960E94F019CE01C3960E94E8159B
:104D00008EE00E946B0C60E0811101C061E089E1DE
:104D10000E94330B8DE00E946B0C60E0811101C09A
:104D200061E086E10E94330B8CE00E946B0C60E036
:104D3000811101C061E087E10E94330B89E00E948C
:104D40006B0C60E0811101C061E08CE10E94330BCB
:104D500087E00E946B0C60E0811101C061E08DE191
:104D60000E94330B85E00E946B0C60E0811101C052
:104D700061E08BE10E94330B84E00E946B0C60E0E9
:104D8000811101C061E08AE10E94330B83E00E943F
:104D90006B0C60E0811101C061E088E10E94330B7F
:104DA0008091A104813051F44CE060E87FE482E11D
:104DB00090E00E94940C82E08093A1048CE00E9419
:104DC0006B0C81110EC08091A104823051F44DE032
:104DD00060EC77E289E090E00E94940C83E080939D
:104DE000A1048DE00E946B0C81110DC08091A10483
:104DF000833049F44EE060EC77E289E090E00E9475
:104E0000940C1092A10480911706209115069091A0
:104E1000E60529138AC0209116069091E70529130B
:104E200084C0811183C08091B504811181C06DE778
:104E300074E083E095E00E94021481E08093B50461
:104E400080911802882309F473C045E06CED75E089
:104E500080E090E00E94940C6BC06BE474E072CC34
:104E600062E574E06FCC68E574E06CCC61E674E0F8
:104E700069CC68E674E066CC6FE674E063CC66E902
:104E800078E0CE0142960E9412144091990450910C
:104E90009A0460919B0470919C04CE0101960E943B
:104EA0001915BE016F5F7F4FCE0142960E94D01C44
:104EB000CE0101960E94E81562E878E0BCCD6FE370
:104EC00077E0CE0142960E941214409195045091D1
:104ED00096046091970470919804CE0101960E9407
:104EE0001915BE016F5F7F4FCE0142960E94D01C04
:104EF000CE0101960E94E8156BE277E0EDCD66EDFC
:104F000072E0CE01C3960E94E71425C81D3009F453
:104F100022C819831A8241E050E0BE016F5F7F4FC3
:104F2000CE01C3960E94661416C881111092B50472
:104F300080911706209115069091E80529131BC052
:104F4000209116069091E905291315C0811114C00E
:104F50008091B604811112C081E08093B6048091E3
:104F60001802882359F044E06CED75E080E090E091
:104F70000E94940C03C081111092B6048091170610
:104F800090911506943109F001C1909116069F3059
:104F900009F0FCC08111FDC08091B704811107C0E8
:104FA00081E08093B70490911B029111F5C00E949B
:104FB0005F0C009118061091190620911A06309185
:104FC0001B06601771078207930798F0D901C80183
:104FD00088519C4FAF4FBF4F80931806909319068E
:104FE000A0931A06B0931B06809117068F5F8093DB
:104FF0001706809117068C3338F0809116068F5F64
:105000008093160610921706809116068C3338F09E
:10501000809115068F5F8093150610921606809179
:105020001506883160F080911406909113069F5FF9
:10503000909313068F5F809314061092150680914B
:105040001406883018F081E08093140680911206CF
:10505000823051F4809113068D3131F483E08093D6
:10506000120681E08093130680911206982F9D7F8F
:10507000943011F0993051F4909113069F3130F033
:105080008F5F8093120681E0809313068091120651
:10509000982F9D7F913051F0853041F099EF980F16
:1050A000923020F08A3011F08C3051F49091130638
:1050B000903230F08F5F8093120681E08093130668
:1050C000809112068D3060F080911006909111064B
:1050D00021E020931206019690931106809310060A
:1050E000E090100620E3E20EC12C00911206209100
:1050F00013064091150660911606809117060E94CE
:10510000E2120E94C90D80E192E00E94290E609394
:105110009D0470939E0480939F049093A00488E064
:1051200092E00E94290E60939504709396048093F8
:1051300097049093980480E092E00E94290E609377
:10514000990470939A0480939B0490939C0480E04C
:105150000E94F00B90931F0280931E028EE10E942A
:10516000F00B21E0892B09F420E020939404EE96C3
:105170000FB6F894DEBF0FBECDBFDF91CF911F9168
:105180000F91FF90EF90DF90CF900895882309F45E
:105190000ECF1092B7040BCF90919404911107CFCA
:1051A0008093A10404CFFC018485883010F40C9412
:1051B0004E1E90E080E008958F929F92AF92BF9232
:1051C000CF92DF92EF92FF920F931F93CF93DF93D3
:1051D00000D000D000D01F92CDB7DEB7909101056E
:1051E000911115C018E0812F2A960FB6F894DEBFF2
:1051F0000FBECDBFDF91CF911F910F91FF90EF9028
:10520000DF90CF90BF90AF909F908F90089528E04F
:10521000F22E933311F494E0F92E6B01082F80E500
:1052200091E00E94FB099E012F5F3F4F5901490108
:1052300010E0812F0E949819F40181934F01882377
:10524000C1F01F5FF112F5CFF12CF50191915F01D3
:105250009D3149F0983139F09A51923020F0F39411
:105260001F11F3CFBFCF60E170E08F2D0E9467194F
:105270001F2DE12EF12CF701EE0FFF1FEF50FB4F1A
:105280001182108283EE93E00197F1F7402F70E0D6
:1052900060E0812F0E94F90F4FEF62E070E0812FF4
:1052A0000E94F90FB601CD2889F4809121029091D6
:1052B000220201968115F0EC9F0798F1909322024B
:1052C000809321026091210270912202812F0E941D
:1052D000E40F61E070E0812F0E94671927E02E9DA6
:1052E000C0012F9D900D11249C0127543B4F790143
:1052F000F9011182108222E030E0AE01475F5F4F7A
:1053000068E270E0812F0E94541A89859A85982757
:1053100089279827F7019383828316821582148246
:1053200062CF80E090ECCACF0F931F93CF93DF93AF
:10533000EC018B01888D883010F40E948119B8012E
:1053400082E03ADF888F883050F41D870C871A8EF0
:10535000198E81E0DF91CF911F910F91089580E028
:10536000F9CF0F931F93CF938C01FC01648175815A
:1053700081E222DFC82F8830F8F480E591E00E94B6
:10538000FB098C2F0E949819833131F08C2FCF911B
:105390001F910F910C94761962E070E08C2F0E949F
:1053A0006719F80184819581EC2FF0E0EE0FFF1F63
:1053B000EF50FB4F91838083CF911F910F91089500
:1053C000CF92DF92EF92FF921F93CF93DF93EC0186
:1053D0007B016A018C85883048F40E949B198823E0
:1053E00019F08C850E94761988E08C87F7018281FC
:1053F0009381A481B5810097A105B10551F490E096
:1054000080E0DF91CF911F91FF90EF90DF90CF90E0
:1054100008958F3F9F4FAF4FBF4F89F370E060E01B
:1054200081E2CADE182F8C87883048F780E591E04A
:105430000E94FB09A7014E5F5F4F24E030E06CE063
:1054400070E0812F0E94BF0FB601812F0E94CF0F05
:1054500064E070E0812F0E9467190E945F0C6B016D
:105460007C018C850E949B19873111F18C3101F1EF
:10547000882329F20E945F0CAB01BC014C195D0925
:105480006E097F098D859E85B0E0A0E084179507A1
:10549000A607B70738F061E070E080E090E00E9476
:1054A0002F0CDFCF8C850E94811988E08C87A7CFD5
:1054B00081E090E0A6CF0F931F93CF93DF931F92CD
:1054C0001F92CDB7DEB7FC0124852830E0F48C01B3
:1054D00080E591E00E94FB0922E030E0AE014F5FE1
:1054E0005F4F60E170E0F80184850E94541A898161
:1054F0009A819827892798270F900F90DF91CF9155
:105500001F910F91089590E080E0F6CF0F931F93C5
:10551000CF93DF931F921F92CDB7DEB7FC01248596
:105520002830E0F48C0180E591E00E94FB0922E044
:1055300030E0AE014F5F5F4F64E070E0F8018485BA
:105540000E94541A89819A819827892798270F9059
:105550000F90DF91CF911F910F91089590E080E01F
:10556000F6CF0F931F93CF93DF9300D000D01F92FD
:105570001F92CDB7DEB78C01D80159964D915C9141
:105580005A974115510551F0ED91FC91048CF58D20
:10559000E02D70E060E0C8011995EECFF801808D34
:1055A0000E94511D892BB1F148E050E0BE016F5FB0
:1055B0007F4FD80158968C910E944E1E18161906DE
:1055C000F4F4D801509684E0FE01319601900D92DA
:1055D0008A95E1F78D8190E0982F88272E81820FA0
:1055E000911DF801958B848B8F81282F30E0322F0D
:1055F00022278885820F932F911D928F818F289665
:105600000FB6F894DEBF0FBECDBFDF91CF911F91D3
:105610000F91089590E080E0F2CF4F925F926F92E9
:105620007F928F929F92AF92BF92CF92DF92EF9232
:10563000FF920F931F93CF93DF93CDB7DEB763979E
:105640000FB6F894DEBF0FBECDBF7C016B013A01EF
:10565000FB0120E090E080E06AE03191332309F41F
:1056600060C040ED430F4A3008F04CC0689FA00175
:10567000699F500D1124CA01C097830F911D37FDFA
:105680009A958F3F910549F340F3F7014281538189
:10569000648175818091CC059091CD05A091CE0556
:1056A000B091CF05481759076A077B0709F40BC269
:1056B0008701085F1F4F0E945F0C6F7077277C5F28
:1056C000C80132DE813009F003C282EC92E09A8395
:1056D0008983F70182819381A481B5818B839C8327
:1056E000AD83BE8345E350E0BE016F5F7F4FC801CD
:1056F0000E947E10892BA9F5D12CC12CC8010E94D3
:105700008C1917C03E3209F0C0CF233009F4BDCF49
:10571000D301A20FB11D12968C932F5F90E080E011
:105720009CCF233009F0B1CFF3018583CC24C394FF
:10573000D12CC60163960FB6F894DEBF0FBECDBF65
:10574000DF91CF911F910F91FF90EF90DF90CF905D
:10575000BF90AF909F908F907F906F905F904F9091
:1057600008950E945F0CF7017783668342E050E062
:10577000B7016A5F7F4FC8010E94E61C81E090E09C
:105780009A83898342E050E0BE016F5F7F4FC8017A
:105790000E94E61C80E091E09A83898342E050E019
:1057A000BE016F5F7F4FC8010E94E61C1A821982FA
:1057B00042E050E0BE016F5F7F4FC8010E94E61CCF
:1057C00042E050E0BE016F5F7F4FC8010E94E61CBF
:1057D00042E050E0BE016F5F7F4FC8010E94E61CAF
:1057E0005601F6018081882301F16501F60181915E
:1057F0002F01882311F08E32B1F446018A189B08DC
:105800001814190474F48D8641E050E0BE01635F02
:105810007F4FC8010E94E61CA401B501C8010E9487
:10582000E61C5201DECF6201E1CF1D8641E050E06F
:10583000BE01635F7F4FC8010E94E61CC12CDD24BE
:10584000D394DA82C98242E050E0BE016F5F7F4F9D
:10585000C8010E94E61CDA82C98242E050E0BE0123
:105860006F5F7F4FC8010E94E61CC8010E94261A84
:10587000892B09F441CFF3E0AF2EB12C230122E0B4
:10588000420E511CD4C0F70142815381648175815D
:10589000808D918DA28DB38D481759076A077B07BC
:1058A00009F007C1848D958DC59709F002C181A1CA
:1058B00092A15DEFC52EDD24DA940C970CF4ADC0F7
:1058C0004CE050E0BE016F5F7F4FC8010E941A1F7D
:1058D0008B819C819827892798279A8B898BF70140
:1058E0004681578129813A814217530709F0E6C062
:1058F00097FFE4C08F7092703BEFC32EDD24DA94E3
:10590000892B09F08AC06F807884762467247624F6
:105910002AEFC22EDD24DA946114710409F47DC0EB
:10592000D12CC12C8D819E81982789279827C81654
:10593000D906F8F441E050E0BE01635F7F4FC80133
:105940000E941A1F4D85442331F050E070E060E062
:10595000C8010E941A1F8D858111ECCF44E050E0F0
:1059600070E060E0C8010E941A1FFFEFCF1ADF0A43
:10597000D9CF912C812C41E050E0BE016D5E7F4F6C
:10598000C8010E941A1F4B89842F807C09F06BC0CC
:10599000442331F050E070E060E0C8010E941A1F1B
:1059A0008B898111E8CF42E050E0BE01615F7F4FFB
:1059B000C8010E941A1F42E050E0BE01635F7F4FA2
:1059C000C8010E941A1F44E050E070E060E0C80186
:1059D0000E941A1F42E050E0BE016F5E7F4FC80177
:1059E0000E941A1F8F85988949895A89811591408B
:1059F00009F042C0CD84DE84DC24CD24DC2481E0A7
:105A0000C816D104C9F54115544009F049C044E015
:105A100050E0B201C8010E941A1F21E0A21AB10889
:105A200009F46CCEFFEFCF16DF0609F067CE0E94B7
:105A30005F0C3B014C01C80194DD181619060CF4EB
:105A400022CF0E945F0C6619770988099909693885
:105A500073418105910548F562E370E080E090E0D4
:105A60000E942F0CE8CF41E050E070E060E0C801F8
:105A70000E941A1F1B8A94CF54274527542770E091
:105A800060E0C8010E941A1FFFEF8F1A9F0A681476
:105A9000790409F070CF96EFC92EDD24DA94BDCFDA
:105AA000E7EFCE2EDD24DA94B8CFCC24CA94DC2CD8
:105AB000B4CF6EEFC62EDD24DA94AFCF4CEFC42EF8
:105AC000DD24DA94AACF8EEFC82EDD24DA9431CE0D
:105AD000D12CC12C2ECECF92DF92EF92FF920F935A
