:100000000C943B080C946C080C946C080C946C08D1
:100010000C946C080C946C080C946C080C946C0890
:100020000C946C080C946C080C946C080C946C0880
:100030000C946C080C946C080C946C080C946C0870
:100040000C946C080C946C080C946C080C946C0860
:100050000C946C080C946C080C946C080C944A2F4B
:100060000C946C080C94142F0C94EA2E0C946C08CD
:100070000C946C080C946C080C946C080C946C0830
:100080000C946C080C946C080C946C080C946C0820
:100090000C946C080C946C080C946C080C946C0810
:1000A0000C946C080C946C080C946C080C946C0800
:1000B0000C946C080C946C080C946C080C946C08F0
:1000C0000C946C080C946C080C946C080C946C08E0
:1000D0000C946C080C946C080C946C08FDC7000020
:1000E000FBC70000072C7AA5BA6CC590DA3B936574
:1000F000FC8BBC53F810FD3C5692834DBD879D3A56
:10010000B63DCBC9BF5BBE73DA0FC93F05A84CCD66
:10011000B2D44EB93836A9020C50B9918688083C41
:10012000A6AAAA2ABE000000803F0664EC1B3C047D
:10013000BC163E3BE5B93CC93C37C29E5A3D6604FD
:1001400098083EEA69AAAA3E000000803F000040ED
:100150007A10F35A00A0724E18090010A5D4E800D6
:1001600000E87648170000E40B54020000CA9A3BEE
:10017000000000E1F5050000809698000000404274
:100180000F000000A0860100000010270000000002
:10019000E803000000006400000000000A00000006
:1001A00000000100000000002C76D888DC674F08B2
:1001B00023DFC1DFAE59E1B1B796E5E3E453C63AB8
:1001C000E651997696E8E6C28426EB898C9B62ED2F
:1001D000407C6FFCEFBC9C9F40F2BAA56FA5F490E9
:1001E000055A2AF75C936B6CF9676DC11BFCE0E460
:1001F0000D47FEF520E6B500D0ED902E03009435B6
:1002000077050080841E080000204E0A000000C808
:100210000C333333330F986E12831141EF8D211459
:10022000893BE65516CFFEE6DB18D1844B381BF729
:100230007C1D901DA4BBE424203284725E228100C8
:10024000C9F124ECA1E53D273C2F626F64793E3C67
:100250002F68746D6C3E003C6120687265663D22BB
:100260002F6E6F7468696E67223E3C627574746F9E
:100270006E20636C6173733D22627574746F6E20BF
:10028000627574746F6E32223E5265667265736871
:10029000203C2F627574746F6E3E3C2F613E3C2F84
:1002A000703E003C2F627574746F6E3E3C2F613E51
:1002B0003C2F703E003C6120687265663D222F3104
:1002C000342F6F6666223E3C627574746F6E2063D5
:1002D0006C6173733D22627574746F6E2062757405
:1002E000746F6E32223E53746F70205A32207A61DE
:1002F00020003C6120687265663D222F31342F6FEB
:100300006E223E3C627574746F6E20636C61737311
:100310003D22627574746F6E223E53746172742054
:100320005A323C2F627574746F6E3E3C2F613E3CB6
:100330002F703E003C2F627574746F6E3E3C2F61CF
:100340003E003C6120687265663D222F31332F6F7D
:100350006666223E3C627574746F6E20636C6173D6
:10036000733D22627574746F6E20627574746F6E63
:1003700032223E53746F70205A31207A6120003C43
:100380006120687265663D222F31332F6F6E223EE9
:100390003C627574746F6E20636C6173733D22628E
:1003A0007574746F6E223E5374617274205A313CBE
:1003B0002F627574746F6E3E3C2F613E003C2F625D
:1003C0007574746F6E3E3C2F613E003C6120687214
:1003D00065663D222F31322F6F6666223E3C627584
:1003E00074746F6E20636C6173733D2262757474F4
:1003F0006F6E20627574746F6E32223E53746F702C
:10040000204C4B207A6120003C6120687265663D7B
:10041000222F31322F6F6E223E3C627574746F6EE4
:1004200020636C6173733D22627574746F6E223E3B
:100430005374617274204C4B3C2F627574746F6EF0
:100440003E3C2F613E003C6120687265663D222F74
:1004500031312F6F6666223E3C627574746F6E2078
:10046000636C6173733D22627574746F6E20627584
:1004700074746F6E32223E43796B6C20706F646CC3
:100480006577616E69652077207472616B63696559
:100490002C206E61647A69736E696A206279207AB1
:1004A0006174727A796D61633C2F627574746F6EDA
:1004B0003E3C2F613E003C6120687265663D222F04
:1004C00031312F6F6E223E3C627574746F6E206303
:1004D0006C6173733D22627574746F6E223E537447
:1004E0006172742063796B6C7520706F646C6577D2
:1004F000616E69613C2F627574746F6E3E3C2F6152
:100500003E003C6120687265663D222F31302F6FBE
:100510006E223E3C627574746F6E20636C617373FF
:100520003D22627574746F6E20223E506F646C655C
:1005300077616E6965205265637A6E653C2F6275DE
:1005400074746F6E3E3C2F613E003C6120687265A2
:10055000663D222F31302F6F6666223E3C627574F5
:10056000746F6E20636C6173733D22627574746F77
:100570006E20627574746F6E32223E506F646C65CB
:1005800077616E6965204175746F3C2F6275747474
:100590006F6E3E3C2F613E003C703E3C696E707554
:1005A0007420747970653D636865636B626F782051
:1005B0006F6E636C69636B3D72657475726E2066F5
:1005C000616C736520756E636865636B65643E205E
:1005D0004465737A637A003C703E3C696E70757452
:1005E00020747970653D636865636B626F78206F16
:1005F0006E636C69636B3D72657475726E206661C3
:100600006C736520636865636B65643E2044657345
:100610007A637A003C48333E506F646C6577616E54
:1006200069653C2F48333E0020433C2F48353E004F
:1006300020433C2F48353E3C48353E54656D70653F
:10064000726174757261206E6F636E613A20003C56
:1006500068353E54656D70657261747572612064B1
:100660007A69656E6E613A20003C61206872656649
:100670003D222F392F6F6666223E3C627574746F7F
:100680006E20636C6173733D22627574746F6E22A9
:100690003E53544F50213C2F627574746F6E3E3C34
:1006A0002F613E3C2F703E003C2F627574746F6E5C
:1006B0003E3C2F613E003C6120687265663D222F02
:1006C000392F6F6E223E3C627574746F6E20636CBE
:1006D0006173733D22627574746F6E2062757474F9
:1006E0006F6E32223E003C6120687265663D222FAB
:1006F000392F6F6E223E3C627574746F6E20636C8E
:100700006173733D22627574746F6E223E313020C6
:100710006D696E2E204F6E3C2F627574746F6E3E45
:100720003C2F613E3C2F703E002743206E6F633CA0
:100730002F627574746F6E3E3C2F613E003C703EBC
:100740003C6120687265663D222F382F6F6E223E15
:100750003C627574746F6E20636C6173733D2262CA
:100760007574746F6E20627574746F6E32223E50B1
:1007700061727465722000274320647A69656E3C5B
:100780002F627574746F6E3E3C2F613E003C703E6C
:100790003C6120687265663D222F382F6F666622A5
:1007A0003E3C627574746F6E20636C6173733D229E
:1007B000627574746F6E223E5061727465722000AF
:1007C0003C6120687265663D222F372F6F66662276
:1007D0003E3C627574746F6E20636C6173733D226E
:1007E000627574746F6E223E53544F50213C2F62D9
:1007F0007574746F6E3E3C2F613E3C2F703E003C22
:100800002F627574746F6E3E3C2F613E003C612018
:10081000687265663D222F372F6F6E223E3C6275EF
:1008200074746F6E20636C6173733D2262757474AF
:100830006F6E20627574746F6E32223E003C6120D0
:10084000687265663D222F372F6F6E223E3C6275BF
:1008500074746F6E20636C6173733D22627574747F
:100860006F6E223E3130206D696E2E204F6E3C2F10
:10087000627574746F6E3E3C2F613E3C2F703E007B
:100880002743206E6F633C2F627574746F6E3E3C1D
:100890002F613E003C703E3C6120687265663D22DF
:1008A0002F362F6F6E223E3C627574746F6E20631C
:1008B0006C6173733D22627574746F6E206275741F
:1008C000746F6E32223E50696574726F2000274348
:1008D00020647A69656E3C2F627574746F6E3E3C5D
:1008E0002F613E003C703E3C6120687265663D228F
:1008F0002F362F6F6666223E3C627574746F6E20D1
:10090000636C6173733D22627574746F6E223E5026
:10091000696574726F200020433C2F423E3C2F4893
:10092000353E003C68353E54656D70657261747586
:100930007261207A65776E6574727A6E613A203CD6
:10094000423E003C48333E4F67727A6577616E697C
:10095000653C2F48333E003C6120687265663D224D
:100960002F332F6F6E223E3C627574746F6E20635E
:100970006C6173733D22627574746F6E223E526FA8
:100980006C6574792073746F703C2F627574746F2A
:100990006E3E3C2F613E3C2F703E003C61206872F1
:1009A00065663D222F342F6F6E223E3C6275747453
:1009B0006F6E20636C6173733D22627574746F6E29
:1009C000223E4F7075736320726F6C6574793C2F93
:1009D000627574746F6E3E3C2F613E3C2F703E001A
:1009E0003C703E3C6120687265663D222F332F6F5C
:1009F0006E223E3C627574746F6E20636C6173731B
:100A00003D22627574746F6E223E526F6C6574790C
:100A10002073746F703C2F627574746F6E3E3C2F40
:100A2000613E003C703E3C6120687265663D222F4D
:100A3000352F6F6E223E3C627574746F6E20636C4E
:100A40006173733D22627574746F6E223E506F64E1
:100A50006E69657320726F6C6574793C2F62757472
:100A6000746F6E3E3C2F613E003C2F627574746F54
:100A70006E3E3C2F613E3C2F703E003C6120687210
:100A800065663D222F31352F6F6E223E3C627574B4
:100A9000746F6E20636C6173733D22627574746F42
:100AA0006E223E536574206C69676874206C6576AD
:100AB000656C3A003C6120687265663D222F3136D4
:100AC0002F6F6666223E3C627574746F6E20636C95
:100AD0006173733D22627574746F6E2062757474F5
:100AE0006F6E32223E4C696768742073656E736F57
:100AF00072206F6E3C2F627574746F6E3E3C2F6176
:100B00003E003C6120687265663D222F31362F6FB2
:100B10006E223E3C627574746F6E20636C617373F9
:100B20003D22627574746F6E223E4C696768742052
:100B300073656E736F72206F66663C2F6275747496
:100B40006F6E3E3C2F613E003C703E3C61206872FF
:100B500065663D222F322F6F6666223E3C627574B9
:100B6000746F6E20636C6173733D22627574746F71
:100B70006E20627574746F6E32223E426C696E64D0
:100B8000732054696D6572204F6E3C2F62757474CA
:100B90006F6E3E3C2F613E003C703E3C61206872AF
:100BA00065663D222F322F6F6E223E3C6275747453
:100BB0006F6E20636C6173733D22627574746F6E27
:100BC000223E426C696E64732054696D6572204FD9
:100BD00066663C2F627574746F6E3E3C2F613E00FA
:100BE000203C2F68353E00203C2F68353E3C683560
:100BF0003E2053656E736F722073776961746C6108
:100C00003A20003A003C2F68353E3C68353E205A79
:100C10006163686F6420736C6F6E63613A20003AA1
:100C200000203C68353E20577363686F6420736C06
:100C30006F6E63613A2000203C2F68353E002067CC
:100C40006F647A696E613A200020003C68353E206E
:100C5000447A6973206A6573743A20003C48333ED5
:100C6000526F6C6574793C2F48333E003C626F6470
:100C7000793E3C48313E486F6D6520436F6E74721B
:100C80006F6C20446F6D656B204F7A61726F7720B7
:100C900056302E3037413C2F48313E002E6275745D
:100CA000746F6E32207B6261636B67726F756E6406
:100CB0002D636F6C6F723A20233737383738413BDA
:100CC0007D3C2F7374796C653E3C2F686561643E92
:100CD00000746578742D6465636F726174696F6EFA
:100CE0003A206E6F6E653B20666F6E742D73697A65
:100CF000653A20333070783B206D617267696E3AD7
:100D0000203270783B20637572736F723A20706F77
:100D1000696E7465723B7D002E627574746F6E200F
:100D20007B206261636B67726F756E642D636F6C9D
:100D30006F723A20233139354236413B20626F725F
:100D40006465723A206E6F6E653B20636F6C6F72E4
:100D50003A2077686974653B2070616464696E67E6
:100D60003A203136707820343070783B003C737410
:100D7000796C653E68746D6C207B20666F6E742D97
:100D800066616D696C793A2048656C766574696353
:100D9000613B20646973706C61793A20696E6C699B
:100DA0006E652D626C6F636B3B206D617267696E5F
:100DB0003A20307078206175746F3B2074657874C8
:100DC0002D616C69676E3A2063656E7465723B7D58
:100DD000003C6C696E6B2072656C3D2269636F6EBE
:100DE0002220687265663D22646174613A2C223E5D
:100DF000003C686561643E3C6D657461206E616DA8
:100E0000653D2276696577706F72742220636F6E1C
:100E100074656E743D2277696474683D64657669B3
:100E200063652D77696474682C20696E69746961E3
:100E30006C2D7363616C653D31223E003C21444F53
:100E400043545950452068746D6C3E3C68746D6C19
:100E50003E0000002100240027002A002D00300061
:100E6000330001010000040107010A010000220013
:100E7000250028002B002E00310034000201000064
:100E8000050108010B0100000A0B02090C0D0E08F8
:100E90000703040100000000000000000000000043
:100EA0000000000000000000000000000000000042
:100EB00000001211100000000000000000000000FF
:100EC000000000000000000000000000005EBCE226
:100ED000613FDD83C29C7E20A3FD1F419DC3217F16
:100EE000FCA2401E5F01E3BD3E6082DC237D9FC10A
:100EF000421CFEA0E1BF5D0380DE3C62BEE0025CFE
:100F0000DF81633D7C22C09E1D43A1FF4618FAA4E9
:100F100027799BC584DA3866E5BB5907DB856739D5
:100F2000BAE406581947A5FB7826C49A653BD987C9
:100F3000045AB8E6A7F91B45C6987A24F8A6441ABD
:100F400099C7257B3A6486D85B05E7B98CD2306EA9
:100F5000EDB3510F4E10F2AC2F7193CD114FADF395
:100F6000702ECC92D38D6F31B2EC0E50AFF1134D89
:100F7000CE90722C6D33D18F0C52B0EE326C8ED07D
:100F8000530DEFB1F0AE4C1291CF2D73CA94762869
:100F9000ABF517490856B4EA6937D58B5709EBB555
:100FA00036688AD495CB2977F4AA4816E9B7550B49
:100FB00088D6346A2B7597C94A14F6A8742AC8963D
:100FC000154BA9F7B6E80A54D7896B350000200005
:100FD0002300260029002C002F0032000001000011
:100FE00003010601090105050505070508080808AC
:100FF000020202020A0A08080404040401010101B1
:1010000001010101030303030303030304070707AB
:101010000C0C0C0C0C0C0C0C020202020606060650
:10102000060606060B0B0B0B0B0B0B0B010210201D
:10103000200808102040102040800201020108040E
:1010400002010102040810204080804020100804A2
:1010500002018004020180402010080402010804FB
:10106000020101020408102040800102040810203F
:101070004080942FCF3311241FBECFEFD1E2DEBFCB
:10108000CDBF00E00CBF14E0A0E0B2E0E0E9F9E77A
:1010900000E00BBF02C007900D92AA3AB107D9F742
:1010A00027E0AAEAB4E001C01D92AD3AB207E1F729
:1010B00018E0CAE3D8E000E006C021970109802FBC
:1010C000FE010E945D3AC933D10780E00807A9F705
:1010D0000E9422310C94B73C0C94000020912E0207
:1010E00090912D029230C1F430E02053384FC90165
:1010F00083709927892B39F4C90164E670E00E9456
:101100004A3A892B89F4C90160E971E00E944A3AA0
:10111000892B51F08CE10895983020F4917031F4CE
:101120008EE108959095FACF8DE108958FE10895AD
:101130008F929F92AF92BF92CF92DF92EF92FF92E7
:10114000CF93DF9320912A026B017C01C20ED11C48
:10115000E11CF11CC701B6012CE330E040E050E097
:101160000E94C33749015A019601C601D7FE04C047
:10117000882799278C199D096CE370E00E944A3AF0
:1011800037FD78C021E0022E000C330BDC010E94F9
:10119000653A645C7F4F8F4F9F4F2CE330E040E017
:1011A00050E00E94C33760932A0280912B02880E80
:1011B000911CA11CB11CC501B40128E130E040E044
:1011C00050E00E94C33769017A019401C40197FE7F
:1011D00004C0882799278819990968E170E00E945E
:1011E0004A3A37FD49C021E0022E000C330BDC01E6
:1011F0000E94653A685E7F4F8F4F9F4F28E130E035
:1012000040E050E00E94C33760932B0280912C0293
:10121000C80ED11CE11CF11C61DF90E0B0E0A0E041
:10122000C0922C028C159D05AE05BF0594F5C1E05A
:10123000D4E6C81AD90AEA0AFB0A80912D028F5F08
:101240008D30E0F480932D0249DF90E0B0E0A0E023
:101250008C159D05AE05BF0564F3C0922C02DF918D
:10126000CF91FF90EF90DF90CF90BF90AF909F9085
:101270008F9008952FEF87CF2FEFB6CFC0932D0219
:1012800080912E028B596D2F0E94313A90932E023D
:10129000DBCF1C141D041E041F040CF3CCE0D4E6A9
:1012A00080912D02815089F080932D0217DF982FB5
:1012B0009C0D90932C02C80ED11CE11CF11C1C1437
:1012C0001D041E041F0464F7CACFC0932D02809131
:1012D0002E028D596D2F0E94313A90932E02E6CF47
:1012E000E0912E02F0E080912D0220912C028330BB
:1012F00088F1E053F84F3DE0839FC001112403962D
:1013000065E070E00E944A3A260F372F311D2E0FFC
:101310003F1FBF017595679575956795260F371F18
:10132000CF016CE97FEF0E944A3A260F371FCF01A9
:1013300060E971E00E944A3AC901860F971F27E0D1
:1013400030E0B9010E944A3A0196B9010E944A3A36
:101350008F5F0895845FE153F84FCDCFCF93DF9334
:10136000C0912D02D0912106CD1740F18091230626
:101370008C1720F1DC1710F4C817A0F1B1DF482F4B
:1013800080912C028F5F841B1816DCF467E00E94AA
:101390003D3A8F5F082E000C990BCD1314C020919D
:1013A000220630E0821793074CF028173907D4F053
:1013B0004230C4F480912B028230A0F4DF91CF91AF
:1013C000089580E0E7CF2091240630E0821793074C
:1013D0004CF02817390794F3423084F780912B02A0
:1013E000823060F76091250670E090E080E0DF9148
:1013F000CF919ECE8CBD9DBD0895FC01818D928DB7
:1014000008950895AF92BF92CF92DF92EF92FF922C
:101410000F931F93CF93DF936C017B018B01040F1C
:10142000151FEB015E01AE18BF08C017D10759F0B8
:101430006991D601ED91FC910190F081E02DC601FA
:101440001995892B79F7C501DF91CF911F910F91E4
:10145000FF90EF90DF90CF90BF90AF900895FC0188
:10146000538D448D252F30E0842F90E0821B930B09
:10147000541710F0CF96089501970895FC01918DAF
:10148000828D981761F0A28DAE0FBF2FB11D5D96B2
:101490008C91928D9F5F9F73928F90E008958FEF54
:1014A0009FEF0895FC01918D828D981731F0828D08
:1014B000E80FF11D858D90E008958FEF9FEF08955F
:1014C000FC01918D228D892F90E0805C9F4F821BC3
:1014D00091098F739927089589E195E0F1DF21E063
:1014E000892B09F420E0822F0895FC01A48DA80F18
:1014F000B92FB11DA35ABF4F2C91848D90E0019656
:101500008F739927848FA689B7892C93A089B18975
:101510008C91837080648C93938D848D981306C016
:101520000288F389E02D80818F7D80830895EF927A
:10153000FF920F931F93CF93DF93EC0181E0888F8D
:101540009B8D8C8D98131AC0E889F989808185FF5D
:1015500015C09FB7F894EE89FF896083E889F989FF
:1015600080818370806480839FBF81E090E0DF9101
:10157000CF911F910F91FF90EF900895F62E0B8D54
:1015800010E00F5F1F4F0F731127E02E8C8D8E110F
:101590000BC00FB607FCFACFE889F989808185FF77
:1015A000F5CFCE01A2DFF2CFEB8DEC0FFD2FF11DB9
:1015B000E35AFF4FF0829FB7F8940B8FEA89FB89BB
:1015C00080818062D0CFCF93DF93EC01888D882318
:1015D000B1F0AA89BB89E889F9898C9185FD03C09E
:1015E000808186FD0CC00FB607FCF7CF8C9185FF7C
:1015F000F2CF808185FFEDCFCE0177DFEACFDF919B
:10160000CF91089580E090E0892B21F065DF811172
:101610000E94000080E090E0892B49F080E090E09B
:10162000892B29F00E94000081110E94000080E0B7
:1016300090E0892B49F080E090E0892B29F00E940E
:10164000000081110E94000080E090E0892B49F0A9
:1016500080E090E0892B29F00E94000081110C9419
:10166000000008958150823108F05AC0E82FF0E060
:101670008827E25CF44F8F4F0C945D3A5E0B620B4F
:10168000500B560B5A0B900B650B6B0B6F0B750BBE
:10169000790B7D0B830B870B900B8B0B910B950BB1
:1016A000809180008F7780938000089580918000E2
:1016B0008F7DF9CF80918000877FF5CF84B58F77BC
:1016C00084BD089584B58F7DFBCF8091B0008F7766
:1016D0008093B00008958091B0008F7DF9CF809104
:1016E00090008F77809390000895809190008F7D77
:1016F000F9CF80919000877FF5CF8091A0008F7700
:101700008093A00008958091A0008F7DF9CF8091F3
:10171000A000877FF5CF809120018F7780932001F3
:101720000895809120018F7DF9CF80912001877FDE
:10173000F5CF1F93CF93DF93282F30E0F901EA57BD
:10174000F14F8491F901E45DFF4ED491F901EA5122
:10175000F04FC491CC23A1F0162F811183DFEC2F21
:10176000F0E0EE0FFF1FE459F14FA591B4918FB750
:10177000F894EC91111108C0D095DE23DC938FBF53
:10178000DF91CF911F910895DE2BF8CFCF93DF9398
:1017900090E0FC01E45DFF4E24918A51904FFC01E2
:1017A00084918823D1F090E0880F991FFC01EE5AB4
:1017B000F14FA591B491FC01E459F14FC591D49139
:1017C00061110EC09FB7F8948C91E22FE0958E23A3
:1017D0008C932881E223E8839FBFDF91CF91089506
:1017E0008FB7F894EC91E22BEC938FBFF6CF3FB715
:1017F000F8948091C6049091C704A091C804B09158
:10180000C90426B5A89B05C02F3F19F00196A11D5C
:10181000B11D3FBFBA2FA92F982F8827BC01CD013A
:10182000620F711D811D911D42E0660F771F881F99
:10183000991F4A95D1F708958F929F92AF92BF92C8
:10184000CF92DF92EF92FF924B015C01D0DF6B01F0
:101850007C01CDDF6C197D098E099F09683E7340BC
:1018600081059105B0F321E0821A9108A108B10821
:1018700088EEC80E83E0D81EE11CF11C811491048F
:10188000A104B10431F7FF90EF90DF90CF90BF90AB
:10189000AF909F908F9008952FB7F8946091C204F5
:1018A0007091C3048091C4049091C5042FBF089522
:1018B0000F931F93CF93DF93C82FD0E0EDDFFE018E
:1018C000EE0FFF1FEE0FFF1FEE5DF84F6083718379
:1018D00082839383CC0FDD1FCC0FDD1FC655D94FFC
:1018E00041E0088119812A813B81061717072807E3
:1018F000390708F440E0842FDF91CF911F910F91B9
:1019000008958F929F92AF92BF92CF92DF92EF9203
:10191000FF920F931F93CF93DF936B017C01C42F32
:10192000D0E0BADFFE01EE0FFF1FEE0FFF1FEE5DEE
:10193000F84F60837183828393838E01000F111FA0
:10194000000F111F0655194FF80180809180A28069
:10195000B380681579058A059B0508F19DDFCC0FDA
:10196000DD1FCC0FDD1FCE5CD94F688379838A835E
:101970009B83C60ED71EE81EF91EF801C082D182D5
:10198000E282F382DF91CF911F910F91FF90EF9050
:10199000DF90CF90BF90AF909F908F900895D5012A
:1019A000C4018C0D9D1DAE1DBF1D80839183A2833C
:1019B000B383E8CFCF93DF93C82FD0E06DDFFE0174
:1019C000EE0FFF1FEE0FFF1FE655F94F6083718387
:1019D0008283938361DFCC0FDD1FCC0FDD1FCE5CD4
:1019E000D94F688379838A839B83DF91CF91089550
:1019F000DC012C911196ED91FC91F8948181822B60
:101A000081839281322F30959323928387E090E0F7
:101A10000197F1F781818323818383E290E001972D
:101A2000F1F790817894EFECF0E03197F1F79223A1
:101A300081E009F480E00895FC0190810180F28149
:101A4000E02D292F209560FF14C0F8948281822315
:101A500082838181892B8183A3E2B0E01197F1F722
:101A60008281982B9283789487ED90E00197F1F72B
:101A70000895F8948281822382838181892B8183D6
:101A8000AFEFB0E01197F1F78281982B92837894B1
:101A90008FE090E0EBCFDF92EF92FF920F931F93D6
:101AA000CF93DF93EC01D62EE42E08E010E0FF2464
:101AB000F39461E08D2D8F2109F460E0CE01BCDF4D
:101AC000FF0C01501109A9F7E11010C0F894E98149
:101AD000FA8191818881809589238183E981FA81C6
:101AE000928188818095892382837894DF91CF9138
:101AF0001F910F91FF90EF90DF900895FC0190816E
:101B00000180F281E02DF8948181292F2095822394
:101B1000818378943DE743E050E0315029F1DA01C8
:101B20001197F1F780818923C1F3F8948281822390
:101B300082838181892B81837894ABE7B7E0119709
:101B4000F1F7F894818182238183A3E1B1E01197B9
:101B5000F1F78081982381E009F080E07894E3E652
:101B6000F6E03197F1F7089580E00895CF93C091A2
:101B70000306C11104C0C0E08C2FCF91089580915D
:101B8000000690910106BADF8823A9F340E06CECCF
:101B900080910006909101067EDF4091040681E06D
:101BA000482764E4809100069091010674DF74DE9A
:101BB00060930506709306068093070690930806C7
:101BC000DBCFCF92DF92FF920F931F93CF93DF93E0
:101BD0006C01F62E80910006909101068FDF88231C
:101BE00019F1009100061091010640E065E5C80179
:101BF00052DFE60188E0C80ED11C699140E0C801BF
:101C00004ADFCC15DD05C9F740E06F2D8091000655
:101C10009091010640DF81E0DF91CF911F910F91FC
:101C2000FF90DF90CF90089580E0F6CF6F927F9283
:101C30008F929F92AF92BF92CF92DF92EF92FF92DC
:101C40000F931F93CF93DF93CDB7DEB76D970FB68A
:101C5000F894DEBF0FBECDBF6EEBB3DF882309F46F
:101C600080C080900006909001068E010F5E1F4F8D
:101C70007E018AE1E80EF11C680138E0632E712CC8
:101C8000B12CAA24A394C401B3DE8111BA28AA0CF2
:101C9000A1E06A1A7108B9F7F601B1926F01EE1569
:101CA000FF0559F799E080E0915049F0D801ED9196
:101CB0008D01E827F0E0E453F14F8491F5CF998D41
:101CC00098134FC080E1E5E3F2E0DE011196019048
:101CD0000D928A95E1F78091450290914602A0917C
:101CE0004702B09148028A8F9B8FAC8FBD8F0091C5
:101CF00002060950110BF701E00FF11F808169897D
:101D00007A8902C0759567958A95E2F7072E000CCF
:101D1000880B990B0E94B036000F111F000F111F86
:101D2000E1E0F0E0EC0FFD1FE00FF11F20813181B9
:101D3000428153810E940F376D960FB6F894DEBF33
:101D40000FBECDBFDF91CF911F910F91FF90EF900C
:101D5000DF90CF90BF90AF909F908F907F906F90CB
:101D6000089563E373E988E893ECE6CFFC012081F2
:101D70002EBD9B012150310941F051810DB407FE68
:101D8000FDCF4EB55EBD4193F5CF61507109860F11
:101D9000971F0DB407FEFDCF2EB5FC0120830895DB
:101DA000E091BD04F091BE0480819091BC04892B28
:101DB00080830895E091BD04F091BE0490818091EC
:101DC000BC0480958923808308958EBD00000DB4E6
:101DD00007FEFDCF8EB50895AF92BF92CF92DF92EE
:101DE000EF92FF920F931F93CF93DF9300D000D019
:101DF0001F921F92CDB7DEB78C017B016A018091E3
:101E000017058333B1F45801A40EB51EA016B10610
:101E100009F463C0CFDF80EFD8DF812FD6DF802FBA
:101E2000D4DF0F5F1F4FF70181917F01CEDFB8DF55
:101E3000EDCF5B01A40EB51E8433A9F4BBDF19837B
:101E40000A838D2D80688B83CC8264E070E0CE01A4
:101E500001968CDFAE14BF0409F43EC0F7018191F6
:101E60007F01B3DFF7CFA6DF0F3F110509F028F49C
:101E700019820A8384E08B830CC017FD17C0198276
:101E80000A8333E0169507953A95E1F7007E0C60DA
:101E90000B8386E0C816D10490F5F701DE01149695
:101EA000EA15FB0599F081918D93FACFC80126E0E0
:101EB000969587952A95E1F7807E19830A83011507
:101EC000104C10F48461D7CF8C61D5CFB6016D5F13
:101ED0007F4FCE0101964ADF63DFC60128960FB619
:101EE000F894DEBF0FBECDBFDF91CF911F910F9150
:101EF000FF90EF90DF90CF90BF90AF90089563E098
:101F000070E0CE01019632DFF70181917F015DDF44
:101F1000AE14BF04C9F7E0CFCF93DF931F92CDB7C4
:101F2000DEB7898341E050E0BE016F5F7F4F90E0F4
:101F300080E052DF0F90DF91CF91089590E02091E3
:101F40001705233339F40C96982F990F990F990F91
:101F500080E008954896F8CFDA01E091C004F0E0FF
:101F6000FE2FEE27E60FF71F90E0982F8827A90194
:101F7000BD018E0F9F1F30CFCF93DF931F921F9213
:101F8000CDB7DEB779836A8322E030E0AE014F5FE0
:101F90005F4F60E170E0E0DF0F900F90DF91CF9135
:101FA0000895CF93DF931F921F92CDB7DEB7798349
:101FB0006A8322E030E0AE014F5F5F4F64E070E083
:101FC000CBDF0F900F90DF91CF910895CF93DF93E8
:101FD0001F92CDB7DEB72091C00430E0322F222708
:101FE000260F371F90E0982F8827498341E050E063
:101FF000BE016F5F7F4F820F931FEEDE0F90DF9168
:10200000CF910895CF93DF931F92CDB7DEB7698349
:10201000DC01ED91FC910280F381E02D41E050E084
:10202000BE016F5F7F4F19950F90DF91CF9108959B
:10203000CF93DF931F92CDB7DEB76983DC01ED91BB
:10204000FC910280F381E02D41E050E0BE016F5F22
:102050007F4F19950F90DF91CF910895FC019485E2
:10206000FB018485981303C081E0983008F080E07C
:102070000895CF93DF931F92CDB7DEB76983DC015C
:10208000ED91FC910280F381E02D41E050E0BE0132
:102090006F5F7F4F19950F90DF91CF910895FC01ED
:1020A000768765870895DC01ED91FC91068CF78DAC
:1020B000E02D199591E089270895862F089581E0F4
:1020C0008627089521E0FC018485883008F020E00F
:1020D000822F08950895FF920F931F93CF93DF935C
:1020E000EB01FC01178A168A2A81211109C02B8174
:1020F000211106C02C81211103C02D812223E9F07A
:1021000041155105D1F08A01FC01F08C80E591E088
:1021100071D9AE014E5F5F4F24E030E06CE070E0BB
:102120008F2D1ADFB8018F2D27DF81E090E0DF913E
:10213000CF911F910F91FF90089580E0F7CFFC01A0
:10214000848595850895FC0184899589089522ECFC
:1021500032E0FC0131832083FB014089518962898F
:102160007389FC0142835383648375830895DC0182
:10217000ED91FC91048CF58DE02D1994089590E07B
:1021800080E008954F925F926F927F928F929F921C
:10219000AF92BF92CF92DF92EF92FF92CF93DF93F5
:1021A000CDB7DEB765970FB6F894DEBF0FBECDBFD3
:1021B0008D8B60912D02FF24FA94F60E60912C0213
:1021C000EE24EA94E60E21EE3EE245E652E460910A
:1021D0001706709118068091190690911A060E94B0
:1021E00086384B015C012D89222309F4D3C182E199
:1021F00089836F2D70E090E080E00E94B03620E08F
:1022000030E843EF51E40E940F372B013C016E2D63
:1022100070E090E080E00E94B0369B01AC01C30109
:10222000B2010E941F386B017C012981622F70E08E
:1022300090E080E00E94B03620E030E040EC51E4D5
:102240000E9486389B01AC01C701B6010E941F386D
:1022500022E43DEC4CE85CE30E940F376B017C010B
:102260000E9483386D837E838F839887C701B60170
:102270000E949C3969877A878B879C87A701960182
:10228000C701B6010E941F382B013C010E94833810
:102290006D877E878F87988BC301B2010E949C391E
:1022A000698B7A8B8B8B9C8B20E030E040E450E490
:1022B000C701B6010E940F376B017C010E94833871
:1022C0002B013C01C701B6010E949C3969837A83C6
:1022D0008B839C8324E431EC4CEC5EE36D817E8146
:1022E0008F8198850E940F379B01AC0164E670EBEB
:1022F00082EE9BE30E941E386B017C0127EE32EEDA
:102300004FE85DE369857A858B859C850E940F3750
:102310009B01AC01C701B6010E941F386B017C0113
:1023200026E332E74DED5BE36D857E858F859889E9
:102330000E940F379B01AC01C701B6010E941E38F5
:102340006B017C012DEB33EC4DE65AE369897A8908
:102350008B899C890E940F379B01AC01C701B60194
:102360000E941F386B017C0127E230EC40E35BE305
:10237000C301B2010E940F379B01AC01C701B60136
:102380000E941E386B017C012FE83CEF41EC5AE3C0
:1023900069817A818B819C810E940F379B01AC01FE
:1023A000C701B6010E941F386B017C01C501B40151
:1023B0000E9483382B013C01C701B6010E9483387B
:1023C00069837A838B839C83C501B4010E94E439BD
:1023D0004B015C01C701B6010E94E4396B017C012D
:1023E00029813A814B815C81C301B2010E940F3780
:1023F0009B01AC0168E879E48EE69CEB0E9486388C
:102400002B013C01A7019601C501B4010E940F37C1
:102410009B01AC01C301B2010E941E386B017C011B
:102420009F7720E030E040E85FE30E94983918167B
:102430000CF4B3C0C701B6010E9410386B017C01D7
:102440008D89811104C0F7FAF094F7F8F094609147
:102450001B0670911C0680911D0690911E069058D7
:1024600021EE3EE245E652E40E948638A70196013D
:102470000E941E3820E030E040E850E40E940F3710
:1024800021EE3EE245E652E40E940F3720E030E0C4
:1024900044E354E40E941F386B017C012EEA37EDBF
:1024A00044EF5AE36D817E818F8198850E940F37BA
:1024B00022E539E44DE958E30E941F384B015C01E5
:1024C0002CE233E643E05DE369857A858B859C8564
:1024D0000E940F379B01AC01C501B4010E941E3858
:1024E0004B015C0121EC33E74FE65CE36D857E85B3
:1024F0008F8598890E940F379B01AC01C501B401FB
:102500000E941E384B015C0128E431E547E25DE39F
:1025100069897A898B899C890E940F379B01AC015C
:10252000C501B4010E941E3824E13EE245E653E4B1
:102530000E940F379B01AC01C701B6010E941E38F3
:102540000E94EE3820911F0630912006620F731F03
:1025500010922B0210922A0210922902072E000CD0
:10256000880B990B0E94980881E065960FB6F89445
:10257000DEBF0FBECDBFDF91CF91FF90EF90DF9018
:10258000CF90BF90AF909F908F907F906F905F9013
:102590004F90089526E029832CCE80E0E6CFCF929D
:1025A000EF92FF920F931F93CF93DF939091FC05CF
:1025B00091110CC09091FD05911108C09091FE05FC
:1025C000911104C09091FF05992341F0811104C03D
:1025D000411102C0653011F0CC20C1F1F22EC42FA0
:1025E000D62F182F8093290260932A0240932B0242
:1025F00020932C0200932D02E0922E0281E0C2DD96
:10260000882351F00E94AE0980912B028093FC0533
:1026100080912A028093FD0510932902D0932A020B
:10262000C0932B02F0922C0200932D02E0922E0216
:1026300080E0A8DD882351F00E94AE0980912B0232
:102640008093FE0580912A028093FF05DF91CF9150
:102650001F910F91FF90EF90CF900895CF93DF934C
:102660002091A1073091A207232B89F0FC01C09192
:102670009D07D0919E0760817181CE010E949D3C93
:10268000009729F08C1B9D0BDF91CF9108958FEF60
:102690009FEFFACFFB0101900020E9F73197AF01DE
:1026A000461B570BDC01ED91FC910280F381E02D7C
:1026B00019948F929F92AF92BF92EF92FF920F93D5
:1026C0001F93CF93DF93CDB7DEB7A1970FB6F894E2
:1026D000DEBF0FBECDBF7C01FA01CB0119A22230B3
:1026E00008F42AE08E010F5D1F4F822E912CB12C31
:1026F000A12CBF01A50194010E94DF37F901CA0195
:102700006A3004F5605DD8016E938D01232B242B74
:10271000252B79F790E080E0109719F0BD01C701F3
:10272000B9DFA1960FB6F894DEBF0FBECDBFDF9123
:10273000CF911F910F91FF90EF90BF90AF909F901E
:102740008F900895695CDFCF8F929F92AF92BF9276
:10275000CF92DF92EF92FF920F931F93CF93DF936D
:102760007C01EB016C0182E0C80ED11C4701E5E061
:102770008E0E911C10E000E0F60141916F0150E0D7
:1027800070E060E02AE0CE0194DF5C01E881F9812D
:102790000190F081E02D6EE2CE0119958A0D9B1D0E
:1027A000080F191FC814D90439F7F701458150E003
:1027B00070E060E02AE0CE017CDF800F911FDF91A6
:1027C000CF911F910F91FF90EF90DF90CF90BF902E
:1027D000AF909F908F90089564ED72E05BCF0F9360
:1027E0001F93CF93DF93EC0155DF8C01CE01F4DF13
:1027F000800F911FDF91CF911F910F910895EF925C
:10280000FF920F931F93CF93DF938C017B01D0E056
:10281000C0E0F701EC0FFD1F6491662331F0C801A1
:1028200028DC892B11F02196F4CFC801D5DF8C0F5D
:102830009D1FDF91CF911F910F91FF90EF90089511
:10284000FC0180819181009711F00C94F03360E0DD
:1028500070E0CB0108950F931F93CF93DF93EC01AA
:1028600088819981009759F02A813B812617370783
:1028700030F081E0DF91CF911F910F9108958B018E
:102880006F5F7F4F0E94AA3B009759F0998388831E
:102890001B830A832C813D81232B59F7FC01108275
:1028A000E8CF80E0E7CFEF92FF920F931F93CF9393
:1028B000DF936115710541F480E0DF91CF911F91A5
:1028C0000F91FF90EF90089541155105A9F07B01FC
:1028D000EC010C811D81040F151FB801BCDF88239A
:1028E00059F3288139818C819D81B701820F931F13
:1028F0000E94963C1D830C8381E0DFCFCF93DF9352
:10290000EC0188819981009711F00E94213B198286
:1029100018821D821C821B821A82DF91CF9108953A
:10292000CF93DF93EC01FB0101900020E9F7319791
:10293000AF01461B570BB7DF811102C0CE01DEDFAE
:10294000CE01DF91CF910895CF93DF93EC01FB018E
:102950004481558160817181A6DF811102C0CE0161
:10296000CDDFCE01DF91CF910895EF92FF920F93CB
:102970001F93CF93DF93EC017B018A01BA016BDFD8
:1029800081110AC0CE01BADFCE01DF91CF911F9134
:102990000F91FF90EF9008951D830C83B7018881FC
:1029A00099810E94963CF0CFFB0101900020E9F74D
:1029B0003197AF01461B570BD8CF0F931F93CF937F
:1029C000DF9300D000D000D0CDB7DEB78C01862FCA
:1029D000F8011182108213821282158214824AE059
:1029E000BE016F5F7F4F90E00E943534BE016F5F84
:1029F0007F4FC801D9DF29960FB6F894DEBF0FBE0E
:102A0000CDBFDF91CF911F910F910895EF92FF926B
:102A10000F931F93CF93DF93CDB7DEB7A1970FB678
:102A2000F894DEBF0FBECDBF7C01CB01BA01F70128
:102A30001182108213821282158214828E010F5F1E
:102A40001F4F22E044E00E94D333009781F0BC0185
:102A5000C701AADFA1960FB6F894DEBF0FBECDBFA7
:102A6000DF91CF911F910F91FF90EF900895C701D3
:102A700045DFF0CF0F931F93CF93DF93CDB7DEB732
:102A800062970FB6F894DEBF0FBECDBF8C01CB01AD
:102A9000F8011182108213821282158214824AE098
:102AA000BE016F5F7F4F0E941634BE016F5F7F4F84
:102AB000C8017ADF62960FB6F894DEBF0FBECDBFB5
:102AC000DF91CF911F910F910895FB01DC011196C9
:102AD0001C921E9213961C921E92129715961C928F
:102AE0001E9214978617970741F0608171816115D6
:102AF000710519F04481558138CF0895FC01118288
:102B000010821382128215821482FB010190002030
:102B1000E9F73197AF01461B570B27CFCF92DF92D2
:102B2000EF92FF920F931F93CF93DF936C017B0182
:102B30008A014617570720F48F2D7A01062F182F88
:102B400066ED72E0C601DADFC091A107D091A2075D
:102B5000EC16FD06F0F40C171D0708F4E801E091EF
:102B60009D07F0919E07EC0FFD1F10811082609170
:102B70009D0770919E076E0D7F1DC6016115710541
:102B800091F012DF80919D0790919E07C80FD91F89
:102B90001883C601DF91CF911F910F91FF90EF90A5
:102BA000DF90CF900895AADEEDCFFC018081918166
:102BB000009711F00C94213B08950F931F93CF932E
:102BC000DF93CDB7DEB72C970FB6F894DEBF0FBEFC
:102BD000CDBF8C016A3068F0F0DEC8012C960FB6CC
:102BE000F894DEBF0FBECDBFDF91CF911F910F9143
:102BF0000895CE010196E1DE67ED72E0CE01079601
:102C00007DDFBE016F5F7F4FCE0107969DDEBC0169
:102C1000C8015BDFCE010796C8DFCE010196C5DF94
:102C2000DCCF8F929F92AF92BF92CF92DF92EF92C2
:102C3000FF920F931F93CF93DF93CDB7DEB76897C3
:102C40000FB6F894DEBF0FBECDBF7C01062F10E09B
:102C50000E944C0CF801EE0FFF1FEE0FFF1FEE5D00
:102C6000F84F6083718382839383000F111F000FDD
:102C7000111FF801E655F94F00811181228133813E
:102C800058016901A61AB70AC80AD90AC601B501CE
:102C900028EE33E040E050E00E94DF3749010CE3CA
:102CA00010E0C901B8010E944A3AAC01C401841B7A
:102CB000950BB8010E944A3A6B01CB01B8010E9402
:102CC0004A3A5C01C81AD90A642FCE01019675DF11
:102CD0006A2DCE01079671DFC601B8010E944A3AFB
:102CE000CE0143966ADFBE016D5E7F4FCE010D9629
:102CF000ECDE69ED72E0CE010D9612DEBE01695F79
:102D00007F4F22DE69ED72E00BDEBE016F5F7F4F09
:102D10001BDEBC01C701D9DECE010D9646DFCE0118
:102D2000439643DFCE01079640DFCE0101963DDF9B
:102D3000C70168960FB6F894DEBF0FBECDBFDF9116
:102D4000CF911F910F91FF90EF90DF90CF90BF90A8
:102D5000AF909F908F900895AF92BF92CF92DF92E5
:102D6000EF92FF920F931F93CF93DF9300D01F92A8
:102D7000CDB7DEB78C016B017A01809117058333E3
:102D8000C1F45B016801C40ED51EC016D10681F1E5
:102D900011D88FE01AD8812F18D8802F16D80F5F3E
:102DA0001F4F80E012D8F50181935F010E94D00E81
:102DB000ECCF843369F50E94DA0E19830A838F2DD4
:102DC0008F778B83EC8264E070E0CE0101960E94E5
:102DD000B60EA70170E060E0C6010E948F3CE114CE
:102DE000F10421F0B701C6010E94B60E0E94D00E78
:102DF000C7010F900F900F900F90DF91CF911F910F
:102E00000F91FF90EF90DF90CF90BF90AF9008951B
:102E10000E94DA0E0F3F110509F030F419820A837F
:102E20001B8263E070E0D1CF17FD0BC019820A83CB
:102E300033E0169507953A95E1F7007E08600B831D
:102E4000F0CFC80126E0969587952A95E1F7807E18
:102E500019830A830115104C18F480618B83E1CF2C
:102E60008861FCCF1F93CF93DF931F92CDB7DEB75E
:102E7000182F80E591E00E94FA09812F5FD827E0A2
:102E8000129FF0011124E153FB4F228133813770EF
:102E900041E050E0BE016F5F7F4F820F931F5CDF08
:102EA00089810F90DF91CF911F910895FC01808D52
:102EB000883038F4218D328D232B19F0D3DF90E048
:102EC00008958FEF9FEF0895CF93DF93FC01248542
:102ED000283028F08FEF9FEFDF91CF910895EC011C
:102EE0000190F081E02D0084F185E02D1995892B6A
:102EF00089F38C85B7DF90E0EFCFCF93DF931F92FC
:102F0000CDB7DEB741E050E0BE016F5F7F4F24DFF9
:102F100089810F90DF91CF91089590E080E0EDCF0F
:102F2000CF93DF93C4E1D0E0F8DF882361F061E064
:102F300070E080E090E00E941C0C2197A9F780E0EF
:102F4000DF91CF91089581E0FBCF1F93CF93DF9363
:102F50001F921F92CDB7DEB760E372E080E090E091
:102F60000E941C0C1FB7F8948091BF04811127C0E8
:102F7000EBE1F0E18491E1E6F0E19491E82FF0E0FB
:102F8000EE0FFF1FEE5AF14FA591B491EC91E9239A
:102F900021F461E085E30E94990B61E085E30E94E2
:102FA000C60B8CB580618CBD8CB580648CBD61E036
:102FB00084E30E94C60B61E083E30E94C60B80910C
:102FC000BF048F5F8093BF041FBFE0EFFFE0E49179
:102FD000F0E0EE0FFF1FE459F14F8591949190932B
:102FE000BE048093BD04E6E3F0E1E491E093BC0409
:102FF00061E08AE00E94C60B0E94D00E80E591E05D
:103000000E94FA0984E38093170580E80E948C0FE0
:1030100087DF882371F188E00E948C0F7EDF883083
:1030200041F580E10E948C0F78DF803111F580E05E
:103030000E948C0F72DF182F81111BC08FE190E06E
:103040005CDF8330B1F480E48093C00442E06EE141
:1030500070E0812F0E94E60F42E06FE170E0812F67
:103060000E94E60F1F5F183089F781E080931805F2
:103070005BC087E38093170580E80E948C0F50DFC8
:103080008823D9F088E00E948C0F47DF8830A9F4AC
:1030900080E10E948C0F41DF182F803171F480E0B5
:1030A0000E948C0F3ADF811108C089E390E025DF90
:1030B000843019F41093C004D8CF83E380931705AC
:1030C00080E80E948C0F2CDF882359F180E10E9458
:1030D0008C0F23DF803129F582E10E948C0F1DDFE8
:1030E0008231F9F480E00E948C0F17DF811119C042
:1030F00084E08093C00415E51A8341E050E0BE01EE
:103100006E5F7F4F8BE190E00E94EC0E198341E0EF
:1031100050E0BE016F5F7F4F8AE190E00E94EC0EAD
:10312000A4CF1092170580E00F900F90DF91CF9100
:103130001F910895CF92DF92EF92FF92CF93DF938A
:10314000CDB7DEB7C254D1090FB6F894DEBF0FBEBB
:10315000CDBFFC01428153816481758123964CAFC0
:103160005DAF6EAF7FAF239781E023968FAF23973C
:103170002396CCACDDACEEACFFAC2397CBAADCAA9B
:10318000EDAAFEAA4DA75EA76FA778AB88ABCDA42A
:10319000DEA4EFA4F8A8CFA2D8A6E9A6FAA68EAB23
:1031A000CBA8DCA8EDA8FEA8C9A2DAA2EBA2FCA2DB
:1031B00022EC32E03C8B2B8B9FEF9D8B9E8B9F8B69
:1031C000188E3E872D878AA7CFA0D8A4E9A4FAA499
:1031D000CF86D88AE98AFA8A8CA389A19AA1ABA161
:1031E000BCA189879A87AB87BC873A8329834B83A5
:1031F0005C836D837E8380911805882309F443C026
:1032000080E591E00E94FA0946E050E063E272E056
:1032100089E090E00E94EC0E44E050E0BE016D5F5A
:103220007F4F8FE090E00E94EC0E44E050E0BE0142
:10323000615F7F4F81E090E00E94EC0E44E050E03F
:10324000BE016B5E7F4F85E090E00E94EC0E81E056
:103250008C8789859A85AB85BC858093D6059093AC
:10326000D705A093D805B093D905CE5BDF4F0FB635
:10327000F894DEBF0FBECDBFDF91CF91FF90EF90EE
:10328000DF90CF90089561DE882379F3B9CF209144
:10329000C00430E0322F2227620F731F90E0982F76
:1032A0008827860F971F29CECF93C82F462F61E01E
:1032B00070E00E94E60F61E070E08C2FE8DF811182
:1032C000FACFCF910895CF93C82F80E591E00E9467
:1032D000FA0968E070E08C2FCF91E6CFCF93C82F2A
:1032E00080E591E00E94FA0960E170E08C2FCF91B7
:1032F000DBCFCF93DF93EC01888D883018F4EEDFBD
:1033000088E0888FDF91CF91089563E070E0BFCFB0
:10331000CF93C82F80E591E00E94FA098C2FCF91BE
:10332000F4CFEF92FF920F931F93CF93DF937C0123
:1033300080911705D4E0833309F0D8E007E015E069
:10334000C0E0F801219131918F01F70184819581CD
:103350002817390729F0CF5FDC13F3CF80E005C0D1
:103360008C2FD6DF8431B9F781E0DF91CF911F91A7
:103370000F91FF90EF900895CF93DF93EC018C8530
:103380008830C8F4C5DF843189F0882379F088312A
:1033900069F021E08C3159F4E881F9810084F185EC
:1033A000E02DCE01199521E0892B09F420E0822F30
:1033B000DF91CF91089580E0FBCFCF92DF92EF9223
:1033C000FF92CF93DF93EC018C85883058F47BDF3C
:1033D0000E944C0C6B017C018C859ADF811109C025
:1033E00088E08C87DF91CF91FF90EF90DF90CF90B6
:1033F000089561E070E080E090E00E941C0C0E9463
:103400004C0CAB01BC014C195D096E097F098D851F
:103410009E85B0E0A0E0481759076A077B07E0F2F5
:103420008C855CDFDDCFCF93FC01C08D80E591E022
:103430000E94FA0960E270E08C2F36DF62E070E0F3
:103440008C2F25DF84FD15C062E070E08C2F1FDF1C
:1034500083FF0AC048E162E070E08C2F0E94E60F13
:1034600080E090E0CF91089580E591E00E94FA0914
:10347000E5CF40E162E070E08C2F0E94E60F81E032
:10348000F0CFDA01E091C004F0E0FE2FEE27E60F66
:10349000F71F90E0982F8827A901BD018E0F9F1F6D
:1034A0005BCC8F929F92AF92BF92CF92DF92EF92BE
:1034B000FF920F931F93CF93DF93CDB7DEB7609743
:1034C0000FB6F894DEBF0FBECDBF7C0190911705FB
:1034D000911115C018E0812F60960FB6F894DEBFE9
:1034E0000FBECDBFDF91CF911F910F91FF90EF9055
:1034F000DF90CF90BF90AF909F908F90089508E09D
:10350000933309F404E06B0180E591E00E94FA092D
:103510009E012F5F3F4F5901490110E0812FF5DED9
:10352000F40181934F018823B9F01F5F0113F6CF97
:1035300000E0F50181915F018D3149F0883139F06A
:103540008A51823020F00F5F1013F3CFC3CF60E1B8
:1035500070E0802FA9DE102FA12EB12CF501EE0F07
:10356000FF1FE95FFA4F1182108283EE93E001970B
:10357000F1F742E870E060E0812F0E94E60F4FEF24
:1035800062E070E0812F0E94E60FB601C114D10401
:1035900091F4809121029091220201968115F0EC24
:1035A0009F0708F45AC090932202809321026091F1
:1035B000210270912202812F0E94D10F86E0E9E45E
:1035C000F2E0DE01199601900D928A95E1F7F7017C
:1035D00083818F778C8784818D8785818E87A701F2
:1035E0004E5F5F4F24E030E06CE070E0812F0E947E
:1035F000AC0FB601812F0E94BC0F26E030E0AE0177
:10360000475F5F4F66E070E0812F0E94AC0F61E082
:1036100070E0812F49DE27E02A9DC0012B9D900D8F
:1036200011249C0121533B4F7901F9011182108231
:1036300022E030E0AE01415F5F4F68E270E0812F31
:1036400020DF8F859889982789279827F70193830A
:1036500082831682158214823ECF80E090ECA3CF45
:10366000CF92DF92EF92FF920F931F93CF93DF934E
:1036700000D000D0CDB7DEB78C016B017A01FC0120
:10368000808D883008F42ADE82EC92E09A83898368
:10369000F60182819381A481B5818B839C83AD8364
:1036A000BE83B701CE010196FCDEF801808F883021
:1036B000A0F4F586E486128E118E81E026960FB670
:1036C000F894DEBF0FBECDBFDF91CF911F910F9158
:1036D000FF90EF90DF90CF90089580E0EFCF7F9242
:1036E0008F929F92AF92BF92CF92DF92EF92FF9212
:1036F0000F931F93CF93DF931F921F92CDB7DEB727
:10370000782E8B014A01590122E030E0AE014F5F73
:103710005F4F64E270E0B5DEE980FA80FE24EF24BA
:10372000FE24E00EF11E9701377040911705072D1A
:1037300010E0433309F042C0085F1F4F102F0027ED
:10374000110F110F110FC901800F911F4733C9F1DC
:10375000A9014A0D5B1D4130584098F160E078E0C6
:103760006B01C21AD30AA601B4010E94EC0EA50196
:103770004C195D09B4016C0D7D1DC8010E94EC0E51
:10378000EA0CFB1CF982EA8222E030E0AE014F5FD6
:103790005F4F64E270E0872D0E94AC0F0F900F9096
:1037A000DF91CF911F910F91FF90EF90DF90CF901D
:1037B000BF90AF909F908F907F900895005F1F4FB4
:1037C000BDCFA501B401DACFEF92FF921F93CF9343
:1037D000DF931F921F92CDB7DEB7182F22E030E0A3
:1037E000AE014F5F5F4F60E270E04BDEE980FA8030
:1037F000FE24EF24FE2422E030E0AE014F5F5F4F55
:1038000060E270E0812F3DDE89819A8198278927C7
:103810009827E816F90689F487E0189FF00111242B
:10382000E153FB4FF582E482C7010F900F90DF91C7
:10383000CF911F91FF90EF9008957C01DCCF1F93F3
:10384000CF93DF93182F80E591E00E94FA09812F32
:10385000BBDFEC01812F59DD873121F08C3111F074
:10386000D0E0C0E0CE01DF91CF911F910895CF93BA
:10387000DF93EC018C85883050F44ADD873111F0FC
:103880008C3129F48C85DBDF8115984098F3DF912A
:10389000CF910895FC018485883008F4D0CF90E062
:1038A00080E00895CF92DF92EF92FF921F93CF9323
:1038B000DF93182F7B01EA014130584010F0C0E03F
:1038C000D8E080E591E00E94FA09812F7DDF6C014C
:1038D000812F1BDD873111F08C3101F5CC16DD060F
:1038E00080F380E591E00E94FA099E01A70170E053
:1038F00060E0812FF4DE60E270E0812FD5DC62E0D1
:1039000070E0812FC4DC84FD0CC0812FFEDC882395
:10391000B9F080E591E00E94FA09F1CFD0E0C0E073
:10392000E0CF40E162E070E0812F0E94E60FCE011F
:10393000DF91CF911F91FF90EF90DF90CF9008958E
:10394000D0E0C0E0F4CF0F931F93CF93DF938C01AF
:10395000EA01FC018485883040F4A4DF892B39F426
:1039600081E090E0F80193838283D0E0C0E0CE0153
:10397000DF91CF911F910F9108950F931F93CF93D4
:10398000DF93EC01FB014481558160817181DBDFB4
:103990008C01CE010E94EC13800F911FDF91CF911B
:1039A0001F910F9108959F92AF92BF92CF92DF9295
:1039B000EF92FF920F931F93CF93DF938C015B01E4
:1039C000942EE52EFC01C688D788F08C80E591E026
:1039D0000E94FA098F2DF8DEC92DDE2D8C179D0768
:1039E00008F4EC019E01A501B6018F2D78DEF801E7
:1039F000868997898C0F9D1F978B868BCE01DF91CF
:103A0000CF911F910F91FF90EF90DF90CF90BF90DB
:103A1000AF909F900895FF920F931F93CF93DF93E2
:103A20001F921F92CDB7DEB7F82E22E030E0AE0134
:103A30004F5F5F4F66E270E024DD09811A81102735
:103A40000127102722E030E0AE014F5F5F4F66E2B2
:103A500070E08F2D16DD89819A8198278927982714
:103A60000817190749F4C8010F900F90DF91CF9103
:103A70001F910F91FF9008958C01E4CF1F93CF9376
:103A8000DF93182F87E0189FE0011124C153DB4F0B
:103A900088819981009759F480E591E00E94FA09A4
:103AA000812FB9DF2E81821B910999838883DF9151
:103AB000CF911F9108959F92AF92BF92CF92DF92C4
:103AC000EF92FF920F931F93CF93DF93EC017B0153
:103AD00080911705811121C01B821A8288EE93E024
:103AE000A0E0B0E08C839D83AE83BF8383E592E04A
:103AF0009983888388E08C8788EE93E09E878D8702
:103B0000CE01DF91CF911F910F91FF90EF90DF9049
:103B1000CF90BF90AF909F90089534E0932E833361
:103B200011F028E0922E87E0C82E85E0D82E10E014
:103B300098E0B92EA12CD6012D913D916D01F70190
:103B4000848195812817390779F4812FE1DB082FCB
:103B5000873111F08C3129F5812F90DF892B51F5B8
:103B60000C3111F4812FAFDB1F5F9112E4CFA11054
:103B700008C0D701ED91FC910084F185E02DC701CB
:103B800019951B821A8288EE93E0A0E0B0E08C8346
:103B90009D83AE83BF8383E592E099838883BC864F
:103BA000ABCF843149F08111DFCFF601329711821A
:103BB0001082DACFB12ED8CFAA24A394D5CF8F927A
:103BC0009F92AF92BF92CF92DF92EF92FF920F93AC
:103BD0001F93CF93DF93CDB7DEB72F970FB6F8942F
:103BE000DEBF0FBECDBF5C014B017A01809117058E
:103BF0008823B1F104E0833309F008E0B501CE0178
:103C0000019659DF87E0C82E85E0D82E10E0F60136
:103C1000219131916F01F501848195812817390730
:103C200041F4812F75DB873121F4A701B401812F85
:103C300039DE1F5F0113EBCFC7012F960FB6F89443
:103C4000DEBF0FBECDBFDF91CF911F910F91FF90CF
:103C5000EF90DF90CF90BF90AF909F908F9008959E
:103C6000F12CE12CE9CFFC018485883008F406CFE3
:103C700090E080E008954F925F927F928F929F92A2
:103C8000AF92BF92CF92DF92EF92FF920F931F936A
:103C9000CF93DF931F921F92CDB7DEB7782E6B01C3
:103CA0004A01A82EB12C27E0829FC0011124FC01FB
:103CB000E153FB4F7F010081118180E591E00E947B
:103CC000FA09081519054CF4872DA5DEF7012681A0
:103CD0008C01021B1109118300830115110511F5D7
:103CE000872D13DB843159F0882349F001E010E07F
:103CF0008C3111F410E000E0119501951109C80113
:103D00000F900F90DF91CF911F910F91FF90EF9047
:103D1000DF90CF90BF90AF909F908F907F905F90FB
:103D20004F900895801691060CF4840187E08A9DD7
:103D3000F0018B9DF00D1124E153FB4FE280F380E5
:103D4000C114D10451F12701F7E05F22872D0E94B1
:103D50009E0F840D951D20911705273309F452C03D
:103D60009801240D351D2130384008F44BC020E067
:103D700038E0490184189508A401B6010E94AC16E8
:103D80002601480C591C6801C818D908872D0E94C3
:103D90009E0FA601B2010E94AC16E00EF11E87E054
:103DA0008A9DF0018B9DF00D1124E153FB4FF382AE
:103DB000E28220813181201B310B31832083868177
:103DC000800F912F911D8A3F910510F4232BE9F468
:103DD00087E08A9DF0018B9DF00D1124E153FB4F8C
:103DE0001682F982EA8222E030E0AE014F5F5F4F37
:103DF00068E270E0872D0E94AC0F60E470E0872DD0
:103E000053DA7DCFA801B601C6CF868378CFCF9392
:103E1000DF93FC01218D328D2115310529F48FEFBF
:103E20009FEFDF91CF910895EC01808D42175307EA
:103E300008F0A90120DF181619068CF7298D3A8D94
:103E4000281B390B3A8F298FECCF0F931F93CF93F9
:103E5000DF931F92CDB7DEB7FC01218D328D232B6E
:103E600041F48FEF9FEF0F90DF91CF911F910F9152
:103E700008958C0141E050E0BE016F5F7F4FFC016F
:103E8000808DF9DE1816190664F7F801818D928D80
:103E90000197928F818F898190E0E5CFCF93DF9357
:103EA0001F92CDB7DEB741E050E0BE016F5F7F4F9C
:103EB000FC018485E0DE1816190634F4898190E04F
:103EC0000F90DF91CF9108958FEF9FEFF9CFCF92B1
:103ED000DF92EF92FF920F931F93CF93DF93CDB7B3
:103EE000DEB7EE970FB6F894DEBF0FBECDBF6CEE17
:103EF00075E0CE014296DFDD8E8D883008F0EDC68C
:103F000066ED72E0CE01C3960E947E150E944C0CB5
:103F10006093F8057093F9058093FA059093FB057B
:103F20006093B8047093B9048093BA049093BB046F
:103F3000CE01429621DA882309F4C1C68091F805A2
:103F40009091F905A091FA05B091FB054091B80454
:103F50005091B9046091BA047091BB04841B950B15
:103F6000A60BB70B813D9740A105B10508F0A7C688
:103F70000E944C0C6093F8057093F9058093FA0544
:103F80009093FB05CE0142966EDE892B89F2CE011D
:103F9000429684DF182F89831A8241E050E0BE01E7
:103FA0006F5F7F4F8DE997E00E9453141A3009F03C
:103FB000A1C78FA998AD892B09F095C76BED72E069
:103FC000CE0142960E94EF136BEE72E0CE01429654
:103FD0000E94EF1362E073E0CE0142960E94EF135D
:103FE000CE0142960E94EC1364E173E0CE0101968B
:103FF0000E947E15CE0101960E942E138C01CE01E7
:1040000001960E94D51517FD03C081E08093200220
:104010006FE173E0CE0101960E947E15CE010196FC
:104020000E942E138C01CE0101960E94D51517FF18
:10403000109220026BE273E0CE0101960E947E1581
:10404000CE0101960E942E138C01CE0101960E9492
:10405000D51517FD08C080911E0290911F02909304
:104060001D0280931C0266E373E0CE0101960E945C
:104070007E15CE0101960E942E138C01CE01019671
:104080000E94D51517FD03C08EE00E94DA0C62E491
:1040900073E0CE0101960E947E15CE0101960E942A
:1040A0002E138C01CE0101960E94D51517FD07C075
:1040B0004EE060EC77E289E090E00E94810C6DE4D4
:1040C00073E0CE0101960E947E15CE0101960E94FA
:1040D0002E138C01CE0101960E94D51517FD03C049
:1040E0008DE00E94DA0C69E573E0CE0101960E9432
:1040F0007E15CE0101960E942E138C01CE010196F1
:104100000E94D51517FD07C04DE060EC77E289E00D
:1041100090E00E94810C64E673E0CE0101960E945B
:104120007E15CE0101960E942E138C01CE010196C0
:104130000E94D51517FD03C08CE00E94DA0C60E7E1
:1041400073E0CE0101960E947E15CE0101960E9479
:104150002E138C01CE0101960E94D51517FD07C0C4
:104160004CE060E87FE482E190E00E94810C6BE724
:1041700073E0CE0101960E947E15CE0101960E9449
:104180002E138C01CE0101960E94D51517FD03C098
:1041900081E08093B70466E873E0CE0101960E9447
:1041A0007E15CE0101960E942E138C01CE01019640
:1041B0000E94D51517FF1092B70462E973E0CE0193
:1041C00001960E947E15CE0101960E942E138C014D
:1041D000CE0101960E94D51517FD03C081E08093A2
:1041E0001B026DE973E0CE0101960E947E15CE019F
:1041F00001960E942E138C01CE0101960E94D515C6
:1042000017FF10921B0269EA73E0CE0101960E942B
:104210007E15CE0101960E942E138C01CE010196CF
:104220000E94D51517FD03C089E00E94DA0C64EBEB
:1042300073E0CE0101960E947E15CE0101960E9488
:104240002E138C01CE0101960E94D51517FD07C0D3
:1042500049E060EC77E289E090E00E94810C6EEB2F
:1042600073E0CE0101960E947E15CE0101960E9458
:104270002E138C01CE0101960E94D51517FF1092C6
:104280001A0269EC73E0CE0101960E947E15CE0100
:1042900001960E942E138C01CE0101960E94D51525
:1042A00017FD03C081E080931A0263ED73E0CE0135
:1042B00001960E947E15CE0101960E942E138C015C
:1042C000CE0101960E94D51517FD03C087E00E941C
:1042D000DA0C6EED73E0CE0101960E947E15CE01E0
:1042E00001960E942E138C01CE0101960E94D515D5
:1042F00017FD07C047E060EC77E289E090E00E949C
:10430000810C68EE73E0CE0101960E947E15CE010D
:1043100001960E942E138C01CE0101960E94D515A4
:1043200017FF1092190263EF73E0CE0101960E940D
:104330007E15CE0101960E942E138C01CE010196AE
:104340000E94D51517FD03C081E0809319026DEF1F
:1043500073E0CE0101960E947E15CE0101960E9467
:104360002E138C01CE0101960E94D51517FD07C0B2
:1043700045E06CED75E080E090E00E94810C67E024
:1043800074E0CE0101960E947E15CE0101960E9436
:104390002E138C01CE0101960E94D51517FD07C082
:1043A00044E06CED75E080E090E00E94810C61E1FA
:1043B00074E0CE0101960E947E15CE0101960E9406
:1043C0002E138C01CE0101960E94D51517FD07C052
:1043D00043E06CED75E080E090E00E94810C6BE1C1
:1043E00074E0CE0101960E947E15CE0101960E94D6
:1043F0002E138C01CE0101960E94D51517FD03C026
:1044000081E08093180265E274E0CE0101960E947B
:104410007E15CE0101960E942E138C01CE010196CD
:104420000E94D51517FF1092180260E374E0CE01C8
:1044300001960E947E15CE0101960E942E138C01DA
:10444000CE0101960E94D51517FDB1C04FE050E096
:104450006BE070E0CE0101960E948E15CE010196B0
:104460000E9420147093270660932606CE010196C1
:104470000E94D51542E150E060E170E0CE01019666
:104480000E948E15CE0101960E942014609328068A
:10449000CE0101960E94D51545E150E063E170E040
:1044A000CE0101960E948E15CE0101960E94201425
:1044B00060932906CE0101960E94D51548E150E08F
:1044C00066E170E0CE0101960E948E15CE01019644
:1044D0000E94201460932B06CE0101960E94D515F0
:1044E0004BE150E069E170E0CE0101960E948E152B
:1044F000CE0101960E94201460932C06CE010196F5
:104500000E94D5151092290210912C0610932A02B0
:10451000F0902B06F0922B02D0902906D0922C021C
:104520000091280600932D02E090260680E3E80E15
:10453000E0922E020E947009813009F0ECC087E001
:1045400080932A068CE390E09093200680931F06C8
:1045500085E39DEDA0E5B2E48093170690931806DD
:10456000A0931906B0931A068AE69AE5A6EAB1E482
:1045700080931B0690931C06A0931D06B0931E0605
:1045800083E08093210684E0809322069AE0909352
:104590002306809324068CE380932506CC24C394C1
:1045A0002D2D4F2D612F80912D060E94CF126CE38F
:1045B0007EE0CE0142960E94FF1361EF7DE0CE01C6
:1045C00042960E94FF1361ED7DE0CE0142960E946B
:1045D000FF136DE67DE0CE0142960E94FF1368E175
:1045E0007DE0CE0142960E94FF1361ED7CE0CE019A
:1045F00042960E94FF136CE97CE0CE0142960E9435
:10460000FF136CE67CE0CE0142960E94FF136CE53E
:104610007CE0CE0142960E94FF136BE47CE0CE0169
:1046200042960E94FF1360912906CE018D960E944A
:10463000DD1560912806CE0187960E94DD158091D8
:104640002606909127061AA219A21CA21BA21EA23E
:104650001DA24AE0BE016F5F7F4F0E943534BE014C
:104660006F5F7F4FCE0181960E94D414BE016F5DB3
:104670007F4FCE0101960E9465156CE374E0CE0178
:1046800001960E949014BE01695D7F4F0E94A414A0
:104690006CE374E00E949014BE01635D7F4F0E9442
:1046A000A414BC01CE01C9960E946515CE010196E5
:1046B0000E94D515CE0181960E94D515CE01879610
:1046C0000E94D515CE018D960E94D515BE01675C5E
:1046D0007F4FCE01429651D9CE01C9960E94D51581
:1046E00069E47CE0CE0142960E94FF13E0912A0625
:1046F000E15069E774E0E73090F4F0E08827EC5788
:10470000FC4D8F4F0C945D3A8D23212724272727BA
:104710002A272D273027815013CF6EE374E0CE0176
:1047200001960E947E15BE016F5F7F4FCE014296BB
:1047300024D9CE0101960E94D5156EE37CE0CE010E
:1047400042960E94FF1360912D06CE018D960E9425
:10475000DD1560912C06CE0187960E94DD156091D3
:104760002B06CE0101960E94DD15BE016F5F7F4FC3
:10477000CE0181960E94651569ED72E0CE018196A9
:104780000E949014BE01695D7F4F0E94A41469EDE0
:1047900072E00E949014BE01635D7F4F0E94A414DA
:1047A000BC01CE01C9960E946515CE0181960E947A
:1047B000D515CE0101960E94D515CE0187960E948F
:1047C000D515CE018D960E94D515BE01675C7F4F31
:1047D000CE014296D2D8CE01C9960E94D51567E384
:1047E0007CE0CE0142960E94FF1361E27CE0CE01A4
:1047F00042960E94FF136091FC05CE0101960E9433
:10480000DD14BE016F5F7F4FCE014296B6D8CE0158
:1048100001960E94D5156FE17CE0CE0142960E9480
:10482000FF136091FD05CE0101960E94DD14BE01CB
:104830006F5F7F4FCE014296A0D8CE0101960E94B5
:10484000D51565E07CE0CE0142960E94FF13609191
:10485000FE05CE0101960E94DD14BE016F5F7F4F01
:10486000CE0142968AD8CE0101960E94D51563E00A
:104870007CE0CE0142960E94FF136091FF05CE01BD
:1048800001960E94DD14BE016F5F7F4FCE014296FC
:1048900074D8CE0101960E94D51567EE7BE0CE015B
:1048A00042960E94FF1360911E0270911F02CE017A
:1048B00001960E943A15BE016F5F7F4FCE0142966E
:1048C0005CD8CE0101960E94D51560EE7BE0CE014A
:1048D00042960E94FF138091180268E97BE08823CA
:1048E00011F068E47BE0CE0142960E94FF138091B4
:1048F000200262E07BE0882311F064EB7AE0CE01D5
:1049000042960E94FF136BE77AE0CE0142960E9426
:10491000FF1360911C0270911D02CE0101960E944E
:104920003A15BE016F5F7F4FCE01429626D8CE0169
:1049300001960E94D51569E67AE0CE0142960E9462
:10494000FF1385E00E94580C63E27AE0882311F09F
:1049500060EE79E0CE0142960E94FF1384E00E944F
:10496000580C6BE979E0882311F067E579E0CE0116
:1049700042960E94FF1363E479E0CE0142960E94C2
:10498000FF1363E279E0CE0142960E94FF1340914B
:10499000B3045091B4046091B5047091B604CE0193
:1049A00001960E940615BE016F5F7F4FCE014296B1
:1049B0000E94BD1CCE0101960E94D51567E179E0E9
:1049C000CE0142960E94FF1380911902882309F4B8
:1049D0004AC264EE78E0CE0142960E94FF134091F5
:1049E000AF045091B0046091B1047091B204CE0153
:1049F00001960E940615BE016F5F7F4FCE01429661
:104A00000E94BD1CCE0101960E94D5156EEC78E087
:104A1000CE0142960E94FF1387E00E94580C6DE37E
:104A200078E08823F1F06DE078E0CE0142960E94B4
:104A3000FF1367E0CE0101960E941116BE016F5F61
:104A40007F4FCE0142960E94BD1CCE0101960E946E
:104A5000D5156FEF77E0CE0142960E94FF1360EC10
:104A600077E0CE0142960E94FF1380911A028823BC
:104A700009F419C26DE877E0CE0142960E94FF1357
:104A80004091AB045091AC046091AD047091AE04C0
:104A9000CE0101960E940615BE016F5F7F4FCE01C9
:104AA00042960E94BD1CCE0101960E94D51567E773
:104AB00077E0CE0142960E94FF1389E00E94580CD5
:104AC00066EE76E08823F1F066EB76E0CE01429662
:104AD0000E94FF1369E0CE0101960E941116BE01EB
:104AE0006F5F7F4FCE0142960E94BD1CCE010196A2
:104AF0000E94D51568EA76E0CE0142960E94FF1327
:104B000069E676E0CE0142960E94FF136FE476E0FC
:104B1000CE0142960E94FF1366E1CE0101960E94EB
:104B2000DD14BE016F5F7F4FCE0142960E94BD1C17
:104B3000CE0101960E94D51560E376E0CE01429643
:104B40000E94FF1362E1CE0101960E94DD14BE01B6
:104B50006F5F7F4FCE0142960E94BD1CCE01019631
:104B60000E94D51568E276E0CE0142960E94FF13BE
:104B700064E176E0CE0142960E94FF138091AA0480
:104B800067ED75E0811102C068E975E0CE014296DB
:104B90000E94FF1380911B026AE475E0811102C03C
:104BA00062E075E0CE0142960E94FF138091B70447
:104BB00066EB74E0882311F066E474E0CE0142965F
:104BC0000E94FF138CE00E94580C68E074E0882378
:104BD000C1F06BEC73E0CE0142960E94FF136CE0D3
:104BE000CE0101960E941116BE016F5F7F4FCE016C
:104BF00042960E94BD1CCE0101960E94D5156DEB18
:104C000073E0CE0142960E94FF138DE00E94580C83
:104C10006FE773E08823C1F062E473E0CE0142964F
:104C20000E94FF136DE0CE0101960E941116BE0195
:104C30006F5F7F4FCE0142960E94BD1CCE01019650
:104C40000E94D51564E373E0CE0142960E94FF13E3
:104C50008EE00E94580C62EF72E08823C1F065EB91
:104C600072E0CE0142960E94FF136EE0CE010196E3
:104C70000E941116BE016F5F7F4FCE0142960E94C7
:104C8000BD1CCE0101960E94D51563EA72E0CE01EB
:104C900042960E94FF1367E572E0CE0142960E94A1
:104CA000FF13CE0142960E94EC1368E472E0CE013D
:104CB00042960E94FF13CE0142960E94EC1366EDCD
:104CC00072E08DE997E00E94D414CE0142960E94D2
:104CD000DD19CE01C3960E94D5158EE00E94580CB6
:104CE00060E0811101C061E089E10E94990B8DE0D3
:104CF0000E94580C60E0811101C061E086E10E94D1
:104D0000990B8CE00E94580C60E0811101C061E0B9
:104D100087E10E94990B89E00E94580C60E08111A4
:104D200001C061E08CE10E94990B87E00E94580C61
:104D300060E0811101C061E08DE10E94990B85E086
:104D40000E94580C60E0811101C061E08BE10E947B
:104D5000990B84E00E94580C60E0811101C061E071
:104D60008AE10E94990B83E00E94580C60E0811157
:104D700001C061E088E10E94990B8091B704813005
:104D800051F44CE060E87FE482E190E00E94810C05
:104D900082E08093B7048CE00E94580C81110EC011
:104DA0008091B704823051F44DE060EC77E289E005
:104DB00090E00E94810C83E08093B7048DE00E9414
:104DC000580C81110DC08091B704833049F44EE036
:104DD00060EC77E289E090E00E94810C1092B704C9
:104DE00080912D0620912B069091FC05291391C0EE
:104DF00020912C069091FD0529138BC081118AC04A
:104E00008091CB04811188C06DE774E089E195E061
:104E10000E94EF1381E08093CB044FE060E878EAD2
:104E200082E191E00E94810C80911802882309F4AC
:104E300073C045E06CED75E080E090E00E94810C6D
:104E40006BC06BE474E06BCC62E574E068CC68E541
:104E500074E065CC61E674E062CC68E674E05FCC37
:104E60006FE674E05CCC64E978E0CE0142960E9483
:104E7000FF134091AF045091B0046091B104709160
:104E8000B204CE0101960E940615BE016F5F7F4FEE
:104E9000CE0142960E94BD1CCE0101960E94D515FE
:104EA00060E878E0B5CD6DE377E0CE0142960E94F0
:104EB000FF134091AB045091AC046091AD0470912C
:104EC000AE04CE0101960E940615BE016F5F7F4FB2
:104ED000CE0142960E94BD1CCE0101960E94D515BE
:104EE00069E277E0E6CD66ED72E0CE01C3960E94FE
:104EF000D4141EC81D3009F41BC819831A8241E05E
:104F000050E0BE016F5F7F4FCE01C3960E945314E5
:104F10000FC881111092CB0480912D0620912B0691
:104F20009091FE0529134CC120912C069091FF050C
:104F3000291346C1811145C18091CC04811143C11F
:104F400081E08093CC0480911802882339F044E0FA
:104F50006CED75E080E090E00E94810C80912D0660
:104F600090912B06943109F052C190912C069F30FC
:104F700009F04DC181114EC18091CD04811107C04E
:104F800081E08093CD0490911B02911146C10E9453
:104F90004C0C00912E0610912F0620913006309176
:104FA0003106601771078207930798F0D901C8018D
:104FB00088519C4FAF4FBF4F80932E0690932F0682
:104FC000A0933006B093310680912D068F5F8093B9
:104FD0002D0680912D068C3338F080912C068F5F42
:104FE00080932C0610922D0680912C068C3338F07D
:104FF00080912B068F5F80932B0610922C06809158
:105000002B06883160F080912A06909129069F5FD7
:10501000909329068F5F80932A0610922B06809129
:105020002A06883018F081E080932A0680912806AD
:10503000823051F4809129068D3131F483E08093E0
:10504000280681E08093290680912806982F9D7F6D
:10505000943011F0993051F4909129069F3130F03D
:105060008F5F8093280681E080932906809128062F
:10507000982F9D7F913051F0853041F099EF980F36
:10508000923020F08A3011F08C3051F49091290642
:10509000903230F08F5F8093280681E0809329065C
:1050A000809128068D3060F0809126069091270629
:1050B00021E02093280601969093270680932606E8
:1050C000E090260620E3E20EC12C009128062091F4
:1050D000290640912B0660912C0680912D060E9496
:1050E000CF120E94B60D80E192E00E94160E6093EE
:1050F000B3047093B4048093B5049093B60488E02D
:1051000092E00E94160E6093AB047093AC048093FF
:10511000AD049093AE0480E092E00E94160E60937E
:10512000AF047093B0048093B1049093B204809163
:105130007B00877F80937B0080E480937C0080915C
:105140007A00806480937A0080917A0086FDFCCF9B
:1051500090917800809179008927982789279093EA
:105160001F0280931E02E4EAFEE08491EAE4F0E18B
:105170000491E4E0F0E11491112379F081110E948F
:10518000320BE12FF0E0EE0FFF1FE453F04FA5913B
:10519000B491EC91E02381E009F480E08170809388
:1051A000AA04EE960FB6F894DEBF0FBECDBFDF9116
:1051B000CF911F910F91FF90EF90DF90CF900895C6
:1051C00081111092CC0420911E0230911F02809117
:1051D0001C0290911D022817390709F0BFCE8FE0FD
:1051E0000E94580C8111BACE80912002882309F4C4
:1051F000B5CE64E974E089E195E00E94EF134FE0D9
:1052000060E87EEE86E390E00E94810C9CCE8823CD
:1052100009F4BDCE1092CD04BACE9091AA0491119A
:10522000B6CE8093B704B3CEFC018485883010F4E9
:105230000C943B1E90E080E008958F929F92AF9275
:10524000BF92CF92DF92EF92FF920F931F93CF9373
:10525000DF9300D000D000D01F92CDB7DEB7909181
:105260001705911115C018E0812F2A960FB6F894F2
:10527000DEBF0FBECDBFDF91CF911F910F91FF9089
:10528000EF90DF90CF90BF90AF909F908F90089558
:1052900028E0F22E933311F494E0F92E6B01082FDD
:1052A00080E591E00E94FA099E012F5F3F4F59016E
:1052B000490110E0812F0E948519F40181934F016B
:1052C0008823C1F01F5FF112F5CFF12CF501919108
:1052D0005F019D3149F0983139F09A51923020F0B8
:1052E000F3941F11F3CFBFCF60E170E08F2D0E94C8
:1052F00054191F2DE12EF12CF701EE0FFF1FE95F6E
:10530000FA4F1182108283EE93E00197F1F7402F5C
:1053100070E060E0812F0E94E60F4FEF62E070E0E6
:10532000812F0E94E60FB601CD2889F480912102D9
:105330009091220201968115F0EC9F0798F19093CD
:105340002202809321026091210270912202812F1A
:105350000E94D10F61E070E0812F0E94541927E074
:105360002E9DC0012F9D900D11249C0121533B4F78
:105370007901F9011182108222E030E0AE01475F2D
:105380005F4F68E270E0812F0E94411A89859A85FB
:10539000982789279827F70193838283168215829D
:1053A000148262CF80E090ECCACF0F931F93CF930B
:1053B000DF93EC018B01888D883010F40E946E1908
:1053C000B80182E03ADF888F883050F41D870C875F
:1053D0001A8E198E81E0DF91CF911F910F91089560
:1053E00080E0F9CF0F931F93CF938C01FC01648170
:1053F000758181E222DFC82F8830F8F480E591E0E2
:105400000E94FA098C2F0E948519833131F08C2F6C
:10541000CF911F910F910C94631962E070E08C2F73
:105420000E945419F80184819581EC2FF0E0EE0F71
:10543000FF1FE95FFA4F91838083CF911F910F91F6
:105440000895CF92DF92EF92FF921F93CF93DF9355
:10545000EC017B016A018C85883048F40E94881930
:10546000882319F08C850E94631988E08C87F701E6
:1054700082819381A481B5810097A105B10551F482
:1054800090E080E0DF91CF911F91FF90EF90DF904F
:10549000CF9008958F3F9F4FAF4FBF4F89F370E07C
:1054A00060E081E2CADE182F8C87883048F780E5FB
:1054B00091E00E94FA09A7014E5F5F4F24E030E0BF
:1054C0006CE070E0812F0E94AC0FB601812F0E942A
:1054D000BC0F64E070E0812F0E9454190E944C0CB4
:1054E0006B017C018C850E948819873111F18C3108
:1054F00001F1882329F20E944C0CAB01BC014C192C
:105500005D096E097F098D859E85B0E0A0E0841756
:105510009507A607B70738F061E070E080E090E0FB
:105520000E941C0CDFCF8C850E946E1988E08C874E
:10553000A7CF81E090E0A6CF0F931F93CF93DF9387
:105540001F921F92CDB7DEB7FC0124852830E0F40E
:105550008C0180E591E00E94FA0922E030E0AE0182
:105560004F5F5F4F60E170E0F80184850E94411A4F
:1055700089819A819827892798270F900F90DF912A
:10558000CF911F910F91089590E080E0F6CF0F9397
:105590001F93CF93DF931F921F92CDB7DEB7FC010D
:1055A00024852830E0F48C0180E591E00E94FA091E
:1055B00022E030E0AE014F5F5F4F64E070E0F80141
:1055C00084850E94411A89819A8198278927982782
:1055D0000F900F90DF91CF911F910F91089590E060
:1055E00080E0F6CF0F931F93CF93DF9300D000D0CE
:1055F0001F921F92CDB7DEB78C01D80159964D91FD
:105600005C915A974115510551F0ED91FC91048C34
:10561000F58DE02D70E060E0C8011995EECFF8013E
:10562000808D0E943E1D892BB1F148E050E0BE0103
:105630006F5F7F4FD80158968C910E943B1E1816C1
:105640001906F4F4D801509684E0FE0131960190D9
:105650000D928A95E1F78D8190E0982F88272E8111
:10566000820F911DF801958B848B8F81282F30E05C
:10567000322F22278885820F932F911D928F818F41
:1056800028960FB6F894DEBF0FBECDBFDF91CF9145
:105690001F910F91089590E080E0F2CF4F925F92BA
:1056A0006F927F928F929F92AF92BF92CF92DF9232
:1056B000EF92FF920F931F93CF93DF93CDB7DEB797
:1056C00063970FB6F894DEBF0FBECDBF7C016B01B0
:1056D0003A01FB0120E090E080E06AE03191332361
:1056E00009F460C040ED430F4A3008F04CC0689F99
:1056F000A001699F500D1124CA01C097830F911D0D
:1057000037FD9A958F3F910549F340F3F7014281A8
:105710005381648175818091E2059091E305A091A8
:10572000E405B091E505481759076A077B0709F4B6
:105730000BC28701085F1F4F0E944C0C6F707727C8
:105740007C5FC80132DE813009F003C282EC92E056
:105750009A838983F70182819381A481B5818B83A8
:105760009C83AD83BE8345E350E0BE016F5F7F4FF6
:10577000C8010E946B10892BA9F5D12CC12CC8013E
:105780000E94791917C03E3209F0C0CF233009F4C6
:10579000BDCFD301A20FB11D12968C932F5F90E065
:1057A00080E09CCF233009F0B1CFF3018583CC2476
:1057B000C394D12CC60163960FB6F894DEBF0FBE1A
:1057C000CDBFDF91CF911F910F91FF90EF90DF90B0
:1057D000CF90BF90AF909F908F907F906F905F9091
:1057E0004F9008950E944C0CF7017783668342E046
:1057F00050E0B7016A5F7F4FC8010E94D31C81E06F
:1058000090E09A83898342E050E0BE016F5F7F4F52
:10581000C8010E94D31C80E091E09A83898342E012
:1058200050E0BE016F5F7F4FC8010E94D31C1A82F7
:10583000198242E050E0BE016F5F7F4FC8010E94B5
:10584000D31C42E050E0BE016F5F7F4FC8010E9451
:10585000D31C42E050E0BE016F5F7F4FC8010E9441
:10586000D31C5601F6018081882301F16501F60100
:1058700081912F01882311F08E32B1F446018A18EC
:105880009B081814190474F48D8641E050E0BE01A1
:10589000635F7F4FC8010E94D31CA401B501C801FA
:1058A0000E94D31C5201DECF6201E1CF1D8641E090
:1058B00050E0BE01635F7F4FC8010E94D31CC12C22
:1058C000DD24D394DA82C98242E050E0BE016F5FEA
:1058D0007F4FC8010E94D31CDA82C98242E050E0A7
:1058E000BE016F5F7F4FC8010E94D31CC8010E9498
:1058F000131A892B09F441CFF3E0AF2EB12C230109
:1059000022E0420E511CD4C0F701428153816481D0
:105910007581808D918DA28DB38D481759076A07C7
:105920007B0709F007C1848D958DC59709F002C1E9
:1059300081A192A15DEFC52EDD24DA940C970CF4C1
:10594000ADC04CE050E0BE016F5F7F4FC8010E94C8
:10595000071F8B819C819827892798279A8B898B91
:10596000F7014681578129813A814217530709F08F
:10597000E6C097FFE4C08F7092703BEFC32EDD242A
:10598000DA94892B09F08AC06F80788476246724A2
:1059900076242AEFC22EDD24DA946114710409F40E
:1059A0007DC0D12CC12C8D819E8198278927982775
:1059B000C816D906F8F441E050E0BE01635F7F4F9E
:1059C000C8010E94071F4D85442331F050E070E06C
:1059D00060E0C8010E94071F8D858111ECCF44E073
:1059E00050E070E060E0C8010E94071FFFEFCF1A8F
:1059F000DF0AD9CF912C812C41E050E0BE016D5ED1
:105A00007F4FC8010E94071F4B89842F807C09F0BB
:105A10006BC0442331F050E070E060E0C8010E94A8
:105A2000071F8B898111E8CF42E050E0BE01615F22
:105A30007F4FC8010E94071F42E050E0BE01635F34
:105A40007F4FC8010E94071F44E050E070E060E013
:105A5000C8010E94071F42E050E0BE016F5E7F4F09
:105A6000C8010E94071F8F85988949895A89811525
:105A7000914009F042C0CD84DE84DC24CD24DC24B6
:105A800081E0C816D104C9F54115544009F049C058
:105A900044E050E0B201C8010E94071F21E0A21AB1
:105AA000B10809F46CCEFFEFCF16DF0609F067CE20
:105AB0000E944C0C3B014C01C80194DD18161906DC
:105AC0000CF422CF0E944C0C6619770988099909B9
:105AD000693873418105910548F562E370E080E023
