:100000000C9400080C9431080C9431080C943108BD
:100010000C9431080C9431080C9431080C9431087C
:100020000C9431080C9431080C9431080C9431086C
:100030000C9431080C9431080C9431080C9431085C
:100040000C9431080C9431080C9431080C9431084C
:100050000C9431080C9431080C9431080C94A92E9E
:100060000C9431080C94732E0C94492EFAC700009E
:10007000F8C70000F6C70000F4C70000F2C7000090
:10008000F0C70000EEC70000ECC70000EAC70000A0
:10009000E8C70000E6C70000E4C70000E2C70000B0
:1000A000E0C70000DEC70000DCC70000DAC70000C0
:1000B000D8C70000D6C70000D4C70000D2C70000D0
:1000C000D0C70000CEC70000CCC70000CAC70000E0
:1000D000C8C70000C6C70000C4C70000C2C70000F0
:1000E000C0C70000072C7AA5BA6CC590DA3B9365AF
:1000F000FC8BBC53F810FD3C5692834DBD879D3A56
:10010000B63DCBC9BF5BBE73DA0FC93F05A84CCD66
:10011000B2D44EB93836A9020C50B9918688083C41
:10012000A6AAAA2ABE000000803F0664EC1B3C047D
:10013000BC163E3BE5B93CC93C37C29E5A3D6604FD
:1001400098083EEA69AAAA3E000000803F000040ED
:100150007A10F35A00A0724E18090010A5D4E800D6
:1001600000E87648170000E40B54020000CA9A3BEE
:10017000000000E1F5050000809698000000404274
:100180000F000000A0860100000010270000000002
:10019000E803000000006400000000000A00000006
:1001A00000000100000000002C76D888DC674F08B2
:1001B00023DFC1DFAE59E1B1B796E5E3E453C63AB8
:1001C000E651997696E8E6C28426EB898C9B62ED2F
:1001D000407C6FFCEFBC9C9F40F2BAA56FA5F490E9
:1001E000055A2AF75C936B6CF9676DC11BFCE0E460
:1001F0000D47FEF520E6B500D0ED902E03009435B6
:1002000077050080841E080000204E0A000000C808
:100210000C333333330F986E12831141EF8D211459
:10022000893BE65516CFFEE6DB18D1844B381BF729
:100230007C1D901DA4BBE424203284725E228100C8
:10024000C9F124ECA1E53D273C2F626F64793E3C67
:100250002F68746D6C3E003C6120687265663D22BB
:100260002F6E6F7468696E67223E3C627574746F9E
:100270006E20636C6173733D22627574746F6E20BF
:10028000627574746F6E32223E5265667265736871
:10029000203C2F627574746F6E3E3C2F613E3C2F84
:1002A000703E003C2F627574746F6E3E3C2F613E51
:1002B0003C2F703E003C6120687265663D222F3104
:1002C000342F6F6666223E3C627574746F6E2063D5
:1002D0006C6173733D22627574746F6E2062757405
:1002E000746F6E32223E53746F70205A32207A61DE
:1002F00020003C6120687265663D222F31342F6FEB
:100300006E223E3C627574746F6E20636C61737311
:100310003D22627574746F6E223E53746172742054
:100320005A323C2F627574746F6E3E3C2F613E3CB6
:100330002F703E003C2F627574746F6E3E3C2F61CF
:100340003E003C6120687265663D222F31332F6F7D
:100350006666223E3C627574746F6E20636C6173D6
:10036000733D22627574746F6E20627574746F6E63
:1003700032223E53746F70205A31207A6120003C43
:100380006120687265663D222F31332F6F6E223EE9
:100390003C627574746F6E20636C6173733D22628E
:1003A0007574746F6E223E5374617274205A313CBE
:1003B0002F627574746F6E3E3C2F613E003C2F625D
:1003C0007574746F6E3E3C2F613E003C6120687214
:1003D00065663D222F31322F6F6666223E3C627584
:1003E00074746F6E20636C6173733D2262757474F4
:1003F0006F6E20627574746F6E32223E53746F702C
:10040000204C4B207A6120003C6120687265663D7B
:10041000222F31322F6F6E223E3C627574746F6EE4
:1004200020636C6173733D22627574746F6E223E3B
:100430005374617274204C4B3C2F627574746F6EF0
:100440003E3C2F613E003C6120687265663D222F74
:1004500031312F6F6666223E3C627574746F6E2078
:10046000636C6173733D22627574746F6E20627584
:1004700074746F6E32223E43796B6C20706F646CC3
:100480006577616E69652077207472616B63696559
:100490002C206E61647A69736E696A206279207AB1
:1004A0006174727A796D61633C2F627574746F6EDA
:1004B0003E3C2F613E003C6120687265663D222F04
:1004C00031312F6F6E223E3C627574746F6E206303
:1004D0006C6173733D22627574746F6E223E537447
:1004E0006172742063796B6C7520706F646C6577D2
:1004F000616E69613C2F627574746F6E3E3C2F6152
:100500003E003C703E3C6120687265663D222F31A2
:10051000302F6F6E223E3C627574746F6E20636C78
:100520006173733D22627574746F6E20223E506F4A
:10053000646C6577616E6965205265637A6E653CAF
:100540002F627574746F6E3E3C2F613E003C703EAE
:100550003C6120687265663D222F31302F6F6666E0
:10056000223E3C627574746F6E20636C6173733DE0
:1005700022627574746F6E20627574746F6E3222AD
:100580003E506F646C6577616E6965204175746F6C
:100590003C2F627574746F6E3E3C2F613E003C4888
:1005A000333E506F646C6577616E69653C2F4833EC
:1005B0003E0020433C2F48353E0020433C2F483529
:1005C0003E3C48353E54656D70657261747572616C
:1005D000206E6F636E613A20003C68353E54656D55
:1005E000706572617475726120647A69656E6E619E
:1005F0003A20003C6120687265663D222F392F6FDA
:100600006666223E3C627574746F6E20636C617323
:10061000733D22627574746F6E223E53544F5021A5
:100620003C2F627574746F6E3E3C2F613E3C2F70A0
:100630003E003C2F627574746F6E3E3C2F613E002D
:100640003C6120687265663D222F392F6F6E223E15
:100650003C627574746F6E20636C6173733D2262CB
:100660007574746F6E20627574746F6E32223E0002
:100670003C6120687265663D222F392F6F6E223EE5
:100680003C627574746F6E20636C6173733D22629B
:100690007574746F6E223E3130206D696E2E204F5E
:1006A0006E3C2F627574746F6E3E3C2F613E3C2F22
:1006B000703E002743206E6F633C2F627574746F29
:1006C0006E3E3C2F613E003C703E3C61206872658E
:1006D000663D222F382F6F6E223E3C627574746F18
:1006E0006E20636C6173733D22627574746F6E204B
:1006F000627574746F6E32223E506172746572203E
:1007000000274320647A69656E3C2F627574746FAC
:100710006E3E3C2F613E003C703E3C61206872653D
:10072000663D222F382F6F6666223E3C62757474D8
:100730006F6E20636C6173733D22627574746F6EAB
:10074000223E50617274657220003C6120687265BF
:10075000663D222F372F6F6666223E3C62757474A9
:100760006F6E20636C6173733D22627574746F6E7B
:10077000223E53544F50213C2F627574746F6E3E6D
:100780003C2F613E3C2F703E003C2F627574746FAD
:100790006E3E3C2F613E003C6120687265663D22E2
:1007A0002F372F6F6E223E3C627574746F6E20631C
:1007B0006C6173733D22627574746F6E2062757420
:1007C000746F6E32223E003C6120687265663D2285
:1007D0002F372F6F6E223E3C627574746F6E2063EC
:1007E0006C6173733D22627574746F6E223E31309A
:1007F000206D696E2E204F6E3C2F627574746F6E83
:100800003E3C2F613E3C2F703E002743206E6F63BD
:100810003C2F627574746F6E3E3C2F613E003C70DD
:100820003E3C6120687265663D222F362F6F6E2236
:100830003E3C627574746F6E20636C6173733D220D
:10084000627574746F6E20627574746F6E32223EBE
:1008500050696574726F2000274320647A69656E61
:100860003C2F627574746F6E3E3C2F613E003C708D
:100870003E3C6120687265663D222F362F6F6666AA
:10088000223E3C627574746F6E20636C6173733DBD
:1008900022627574746F6E223E50696574726F20A7
:1008A0000020433C2F423E3C2F48353E003C6835FB
:1008B0003E54656D7065726174757261207A6577FA
:1008C0006E6574727A6E613A203C423E003C483359
:1008D0003E4F67727A6577616E69653C2F48333E9B
:1008E000003C6120687265663D222F332F6F6E22B7
:1008F0003E3C627574746F6E20636C6173733D224D
:10090000627574746F6E223E526F6C6574792073D9
:10091000746F703C2F627574746F6E3E3C2F613E35
:100920003C2F703E003C6120687265663D222F348A
:100930002F6F6E223E3C627574746F6E20636C6123
:1009400073733D22627574746F6E223E4F707573BF
:100950006320726F6C6574793C2F627574746F6E6E
:100960003E3C2F613E3C2F703E003C703E3C61207F
:10097000687265663D222F332F6F6E223E3C627592
:1009800074746F6E20636C6173733D22627574744E
:100990006F6E223E526F6C6574792073746F703C79
:1009A0002F627574746F6E3E3C2F613E003C703E4A
:1009B0003C6120687265663D222F352F6F6E223EA6
:1009C0003C627574746F6E20636C6173733D226258
:1009D0007574746F6E223E506F646E696573207219
:1009E0006F6C6574793C2F627574746F6E3E3C2F2A
:1009F000613E003C2F627574746F6E3E3C2F613E09
:100A00003C2F703E003C6120687265663D222F31AC
:100A1000352F6F6E223E3C627574746F6E20636C6E
:100A20006173733D22627574746F6E223E536574F8
:100A3000206C69676874206C6576656C3A003C616F
:100A400020687265663D222F31362F6F6666223E22
:100A50003C627574746F6E20636C6173733D2262C7
:100A60007574746F6E20627574746F6E32223E4CB2
:100A7000696768742073656E736F72206F6E3C2FA8
:100A8000627574746F6E3E3C2F613E003C6120685D
:100A90007265663D222F31362F6F6E223E3C6275A5
:100AA00074746F6E20636C6173733D22627574742D
:100AB0006F6E223E4C696768742073656E736F7247
:100AC000206F66663C2F627574746F6E3E3C2F61BA
:100AD0003E003C703E3C6120687265663D222F32CC
:100AE0002F6F6666223E3C627574746F6E20636C75
:100AF0006173733D22627574746F6E2062757474D5
:100B00006F6E32223E426C696E64732054696D656B
:100B100072204F6E3C2F627574746F6E3E3C2F6175
:100B20003E003C703E3C6120687265663D222F327B
:100B30002F6F6E223E3C627574746F6E20636C6121
:100B400073733D22627574746F6E223E426C696EDF
:100B500064732054696D6572204F66663C2F627520
:100B600074746F6E3E3C2F613E00203C2F68353E12
:100B700000203C2F68353E3C68353E2053656E733F
:100B80006F722073776961746C613A20003A003C9F
:100B90002F68353E3C68353E205A6163686F64209B
:100BA000736C6F6E63613A20003A00203C68353EFA
:100BB00020577363686F6420736C6F6E63613A20B3
:100BC00000203C2F68353E0020676F647A696E61B3
:100BD0003A200020003C68353E20447A6973206A40
:100BE0006573743A20003C48333E526F6C657479EB
:100BF0003C2F48333E003C626F64793E3C48313EB6
:100C0000486F6D6520436F6E74726F6C20446F6D1A
:100C1000656B204F7A61726F772056302E303741E6
:100C20003C2F48313E002E627574746F6E32207B0B
:100C30006261636B67726F756E642D636F6C6F7248
:100C40003A20233737383738413B7D3C2F7374794E
:100C50006C653E3C2F686561643E00746578742D58
:100C60006465636F726174696F6E3A206E6F6E6552
:100C70003B20666F6E742D73697A653A203330704D
:100C8000783B206D617267696E3A203270783B2044
:100C9000637572736F723A20706F696E7465723B20
:100CA0007D002E627574746F6E207B206261636BB1
:100CB00067726F756E642D636F6C6F723A202331AB
:100CC00039354236413B20626F726465723A206E5C
:100CD0006F6E653B20636F6C6F723A207768697442
:100CE000653B2070616464696E673A2031367078C4
:100CF00020343070783B003C7374796C653E6874C6
:100D00006D6C207B20666F6E742D66616D696C79E9
:100D10003A2048656C7665746963613B2064697349
:100D2000706C61793A20696E6C696E652D626C6FCA
:100D3000636B3B206D617267696E3A20307078207A
:100D40006175746F3B20746578742D616C69676E92
:100D50003A2063656E7465723B7D003C6C696E6B16
:100D60002072656C3D2269636F6E22206872656631
:100D70003D22646174613A2C223E003C68656164E6
:100D80003E3C6D657461206E616D653D22766965DE
:100D900077706F72742220636F6E74656E743D227B
:100DA00077696474683D6465766963652D77696405
:100DB00074682C20696E697469616C2D7363616C51
:100DC000653D31223E003C21444F4354595045205B
:100DD00068746D6C3E3C68746D6C3E0000002100D0
:100DE000240027002A002D003000330001010000FC
:100DF000040107010A0100002200250028002B0041
:100E00002E003100340002010000050108010B0131
:100E100000000A0B02090C0D0E0807030401000074
:100E200000000000000000000000000000000000C2
:100E3000000000000000000000000000121110007F
:100E400000000000000000000000000000000000A2
:100E5000000000000000005EBCE2613FDD83C29C38
:100E60007E20A3FD1F419DC3217FFCA2401E5F0188
:100E7000E3BD3E6082DC237D9FC1421CFEA0E1BF3A
:100E80005D0380DE3C62BEE0025CDF81633D7C226C
:100E9000C09E1D43A1FF4618FAA427799BC584DA9A
:100EA0003866E5BB5907DB856739BAE40658194748
:100EB000A5FB7826C49A653BD987045AB8E6A7F9FA
:100EC0001B45C6987A24F8A6441A99C7257B3A642C
:100ED00086D85B05E7B98CD2306EEDB3510F4E105A
:100EE000F2AC2F7193CD114FADF3702ECC92D38D08
:100EF0006F31B2EC0E50AFF1134DCE90722C6D33BA
:100F0000D18F0C52B0EE326C8ED0530DEFB1F0AEEB
:100F10004C1291CF2D73CA947628ABF51749085619
:100F2000B4EA6937D58B5709EBB536688AD495CBC7
:100F30002977F4AA4816E9B7550B88D6346A2B7579
:100F400097C94A14F6A8742AC896154BA9F7B6E8AB
:100F50000A54D7896B3500002000230026002900A1
:100F60002C002F00320000010000030106010901DE
:100F700005050505070508080808020202020A0A15
:100F80000808040404040101010101010101030333
:100F9000030303030303040707070C0C0C0C0C0CDE
:100FA0000C0C0202020206060606060606060B0BDB
:100FB0000B0B0B0B0B0B010210202008081020401C
:100FC000102040800201020108040201010204080D
:100FD000102040808040201008040201800402019B
:100FE00080402010080402010804020101020408E4
:100FF000102040800102040810204080F32E2B3383
:1010000011241FBECFEFD1E2DEBFCDBF00E00CBF89
:1010100014E0A0E0B2E0E8E4F8E700E00BBF02C0B3
:1010200007900D92AE37B107D9F726E0AEE7B4E0EE
:1010300001C01D92AC3CB207E1F717E0CFEFD7E05B
:1010400000E006C021970109802FFE010E94B939F6
:10105000CE3FD10780E00807A9F70E947E300C94AC
:10106000133C0C94000020912E0290912D0292309E
:10107000C1F430E02053384FC90183709927892B80
:1010800039F4C90164E670E00E94A639892B89F41D
:10109000C90160E971E00E94A639892B51F08CE109
:1010A0000895983020F4917031F48EE10895909570
:1010B000FACF8DE108958FE108958F929F92AF92BC
:1010C000BF92CF92DF92EF92FF92CF93DF93209166
:1010D0002A026B017C01C20ED11CE11CF11CC7016C
:1010E000B6012CE330E040E050E00E941F37490198
:1010F0005A019601C601D7FE04C0882799278C198A
:101100009D096CE370E00E94A63937FD78C021E0AC
:10111000022E000C330BDC010E94C139645C7F4F4E
:101120008F4F9F4F2CE330E040E050E00E941F378C
:1011300060932A0280912B02880E911CA11CB11C85
:10114000C501B40128E130E040E050E00E941F37C3
:1011500069017A019401C40197FE04C08827992788
:101160008819990968E170E00E94A63937FD49C0E5
:1011700021E0022E000C330BDC010E94C139685EB5
:101180007F4F8F4F9F4F28E130E040E050E00E94BA
:101190001F3760932B0280912C02C80ED11CE11CDA
:1011A000F11C61DF90E0B0E0A0E0C0922C028C1551
:1011B0009D05AE05BF0594F5C1E0D4E6C81AD90A6D
:1011C000EA0AFB0A80912D028F5F8D30E0F4809354
:1011D0002D0249DF90E0B0E0A0E08C159D05AE0542
:1011E000BF0564F3C0922C02DF91CF91FF90EF9086
:1011F000DF90CF90BF90AF909F908F9008952FEF8A
:1012000087CF2FEFB6CFC0932D0280912E028B593E
:101210006D2F0E948D3990932E02DBCF1C141D047C
:101220001E041F040CF3CCE0D4E680912D02815003
:1012300089F080932D0217DF982F9C0D90932C023C
:10124000C80ED11CE11CF11C1C141D041E041F043B
:1012500064F7CACFC0932D0280912E028D596D2F55
:101260000E948D3990932E02E6CFE0912E02F0E09D
:1012700080912D0220912C02833088F1E053F84FA9
:101280003DE0839FC0011124039665E070E00E9459
:10129000A639260F372F311D2E0F3F1FBF01759521
:1012A000679575956795260F371FCF016CE97FEF1E
:1012B0000E94A639260F371FCF0160E971E00E9416
:1012C000A639C901860F971F27E030E0B9010E94B7
:1012D000A6390196B9010E94A6398F5F0895845FEF
:1012E000E153F84FCDCFCF93DF93C0912D02D09132
:1012F000F405CD1740F18091F6058C1720F1DC172D
:1013000010F4C817A0F1B1DF482F80912C028F5F35
:10131000841B1816DCF467E00E9499398F5F082E51
:10132000000C990BCD1314C02091F50530E0821705
:1013300093074CF028173907D4F04230C4F4809159
:101340002B028230A0F4DF91CF91089580E0E7CFA7
:101350002091F70530E0821793074CF028173907E2
:1013600094F3423084F780912B02823060F76091D1
:10137000F80570E090E080E0DF91CF919ECE8CBDCB
:101380009DBD0895FC01818D928D08950895AF92C1
:10139000BF92CF92DF92EF92FF920F931F93CF9362
:1013A000DF936C017B018B01040F151FEB015E01C4
:1013B000AE18BF08C017D10759F06991D601ED9159
:1013C000FC910190F081E02DC6011995892B79F7E8
:1013D000C501DF91CF911F910F91FF90EF90DF90AA
:1013E000CF90BF90AF900895FC01538D448D252F71
:1013F00030E0842F90E0821B930B541710F0CF96AF
:10140000089501970895FC01918D828D981761F0E0
:10141000A28DAE0FBF2FB11D5D968C91928D9F5FF7
:101420009F73928F90E008958FEF9FEF0895FC01D6
:10143000918D828D981731F0828DE80FF11D858D89
:1014400090E008958FEF9FEF0895FC01918D228D1C
:10145000892F90E0805C9F4F821B91098F739927A1
:1014600008958CEE94E0F1DF21E0892B09F420E06F
:10147000822F0895FC01A48DA80FB92FB11DA35A86
:10148000BF4F2C91848D90E001968F739927848FA4
:10149000A689B7892C93A089B1898C9183708064C7
:1014A0008C93938D848D981306C00288F389E02D68
:1014B00080818F7D80830895EF92FF920F931F9319
:1014C000CF93DF93EC0181E0888F9B8D8C8D9813F7
:1014D0001AC0E889F989808185FF15C09FB7F89403
:1014E000EE89FF896083E889F9898081837080644F
:1014F00080839FBF81E090E0DF91CF911F910F919A
:10150000FF90EF900895F62E0B8D10E00F5F1F4FA8
:101510000F731127E02E8C8D8E110BC00FB607FCB8
:10152000FACFE889F989808185FFF5CFCE01A2DF66
:10153000F2CFEB8DEC0FFD2FF11DE35AFF4FF08240
:101540009FB7F8940B8FEA89FB8980818062D0CFA6
:10155000CF93DF93EC01888D8823B1F0AA89BB89F2
:10156000E889F9898C9185FD03C0808186FD0CC0D6
:101570000FB607FCF7CF8C9185FFF2CF808185FFF6
:10158000EDCFCE0177DFEACFDF91CF91089580E0F4
:1015900090E0892B21F065DF81110E94000080E03E
:1015A00090E0892B49F080E090E0892B29F00E949F
:1015B000000081110E94000080E090E0892B49F03A
:1015C00080E090E0892B29F00E94000081110E94A8
:1015D000000080E090E0892B49F080E090E0892BCA
:1015E00029F00E94000081110C9400000895282F1A
:1015F00030E0F901E05FF14F9491F901EA54F04FC6
:1016000044912059304FF9012491222309F435C027
:10161000992311F191509231F8F4E92FF0E08827E5
:10162000EB5EF44F8F4F0C94B939460B4A0B270BE6
:101630003E0B420B2C0B4D0B530B570B5D0B610BF1
:10164000650B6B0B6F0B2C0B730B790B7D0B809168
:1016500080008F7780938000E22FF0E0EE0FFF1F75
:10166000EA50F24FA591B4918FB7F894EC916111C3
:1016700048C040954E234C938FBF089580918000C1
:101680008F7DE8CF80918000877FE4CF84B58F770E
:1016900084BDE2CF84B58F7DFBCF8091B0008F7782
:1016A0008093B000D9CF8091B0008F7DF9CF809129
:1016B00090008F7780939000CFCF809190008F7DA6
:1016C000F9CF80919000877FF5CF8091A0008F7730
:1016D0008093A000C1CF8091A0008F7DF9CF809131
:1016E000A000877FF5CF809120018F778093200124
:1016F000B3CF809120018F7DF9CF80912001877F2A
:10170000F5CF4E2BB8CFCF93DF9390E0FC01EA5496
:10171000F04F24918059904FFC0184918823D1F09F
:1017200090E0880F991FFC01E452F24FA591B4910B
:10173000FC01EA50F24FC591D49161110EC09FB7E0
:10174000F8948C91E22FE0958E238C932881E223EC
:10175000E8839FBFDF91CF9108958FB7F894EC9104
:10176000E22BEC938FBFF6CF3FB7F89480919904AA
:1017700090919A04A0919B04B0919C0426B5A89BDB
:1017800005C02F3F19F00196A11DB11D3FBFBA2F13
:10179000A92F982F8827BC01CD01620F711D811DD3
:1017A000911D42E0660F771F881F991F4A95D1F758
:1017B00008958F929F92AF92BF92CF92DF92EF9255
:1017C000FF924B015C01D0DF6B017C01CDDF6C1916
:1017D0007D098E099F09683E734081059105B0F32C
:1017E00021E0821A9108A108B10888EEC80E83E0B2
:1017F000D81EE11CF11C81149104A104B10431F73D
:10180000FF90EF90DF90CF90BF90AF909F908F9020
:1018100008952FB7F8946091950470919604809183
:101820009704909198042FBF08950F931F93CF931F
:10183000DF93C82FD0E0EDDFFE01EE0FFF1FEE0FAC
:10184000FF1FE358F94F6083718382839383CC0F2A
:10185000DD1FCC0FDD1FCF5BD94F41E0088119811F
:101860002A813B81061717072807390708F440E04B
:10187000842FDF91CF911F910F9108958F929F92A6
:10188000AF92BF92CF92DF92EF92FF920F931F938E
:10189000CF93DF936B017C01C42FD0E0BADFFE0150
:1018A000EE0FFF1FEE0FFF1FE358F94F60837183A8
:1018B000828393838E01000F111F000F111F0F5B96
:1018C000194FF80180809180A280B3806815790556
:1018D0008A059B0508F19DDFCC0FDD1FCC0FDD1FB6
:1018E000CB5FD94F688379838A839B83C60ED71ECB
:1018F000E81EF91EF801C082D182E282F382DF91F4
:10190000CF911F910F91FF90EF90DF90CF90BF90FC
:10191000AF909F908F900895D501C4018C0D9D1DAF
:10192000AE1DBF1D80839183A283B383E8CFCF9385
:10193000DF93C82FD0E06DDFFE01EE0FFF1FEE0F2B
:10194000FF1FEF5BF94F608371838283938361DFB5
:10195000CC0FDD1FCC0FDD1FCB5FD94F68837983A0
:101960008A839B83DF91CF910895DC012C9111969E
:10197000ED91FC91F8948181822B81839281322FA9
:1019800030959323928387E090E00197F1F781816E
:101990008323818383E290E00197F1F7908178942B
:1019A000EFECF0E03197F1F7922381E009F480E069
:1019B0000895FC0190810180F281E02D292F20956E
:1019C00060FF14C0F8948281822382838181892BF5
:1019D0008183A3E2B0E01197F1F78281982B928383
:1019E000789487ED90E00197F1F70895F89482815B
:1019F000822382838181892B8183AFEFB0E01197AD
:101A0000F1F78281982B928378948FE090E0EBCF6E
:101A1000DF92EF92FF920F931F93CF93DF93EC012E
:101A2000D62EE42E08E010E0FF24F39461E08D2D23
:101A30008F2109F460E0CE01BCDFFF0C01501109D9
:101A4000A9F7E11010C0F894E981FA8191818881A9
:101A5000809589238183E981FA81928188818095AB
:101A6000892382837894DF91CF911F910F91FF900A
:101A7000EF90DF900895FC0190810180F281E02DCC
:101A8000F8948181292F20958223818378943DE7E2
:101A900043E050E0315029F1DA011197F1F78081EC
:101AA0008923C1F3F8948281822382838181892BE7
:101AB00081837894ABE7B7E01197F1F7F8948181CF
:101AC00082238183A3E1B1E01197F1F7808198230C
:101AD00081E009F080E07894E3E6F6E03197F1F7F1
:101AE000089580E00895CF93C091D605C11104C038
:101AF000C0E08C2FCF9108958091D3059091D405AB
:101B0000BADF8823A9F340E06CEC8091D305909173
:101B1000D4057EDF4091D70581E0482764E48091B9
:101B2000D3059091D40574DF74DE6093D80570936B
:101B3000D9058093DA059093DB05DBCFCF92DF9256
:101B4000FF920F931F93CF93DF936C01F62E80913A
:101B5000D3059091D4058FDF882319F10091D30527
:101B60001091D40540E065E5C80152DFE60188E048
:101B7000C80ED11C699140E0C8014ADFCC15DD05D3
:101B8000C9F740E06F2D8091D3059091D40540DFD7
:101B900081E0DF91CF911F910F91FF90DF90CF9067
:101BA000089580E0F6CF6F927F928F929F92AF92CE
:101BB000BF92CF92DF92EF92FF920F931F93CF933A
:101BC000DF93CDB7DEB76D970FB6F894DEBF0FBECB
:101BD000CDBF6EEBB3DF882309F480C08090D305BE
:101BE0009090D4058E010F5E1F4F7E018AE1E80EB2
:101BF000F11C680138E0632E712CB12CAA24A39447
:101C0000C401B3DE8111BA28AA0CA1E06A1A7108D6
:101C1000B9F7F601B1926F01EE15FF0559F799E09A
:101C200080E0915049F0D801ED918D01E827F0E076
:101C3000EA5AF14F8491F5CF998D98134FC080E106
:101C4000E5E3F2E0DE01119601900D928A95E1F74D
:101C50008091450290914602A0914702B0914802BE
:101C60008A8F9B8FAC8FBD8F0091D5050950110BCA
:101C7000F701E00FF11F808169897A8902C07595AB
:101C800067958A95E2F7072E000C880B990B0E9446
:101C90000C36000F111F000F111FE1E0F0E0EC0FF8
:101CA000FD1FE00FF11F20813181428153810E948D
:101CB0006B366D960FB6F894DEBF0FBECDBFDF91C9
:101CC000CF911F910F91FF90EF90DF90CF90BF9039
:101CD000AF909F908F907F906F90089563E373E92A
:101CE00088E893ECE6CFFC0120812EBD9B012150BA
:101CF000310941F051810DB407FEFDCF4EB55EBDF7
:101D00004193F5CF61507109860F971F0DB407FEFF
:101D1000FDCF2EB5FC0120830895E0919004F09151
:101D20009104808190918F04892B80830895E091A4
:101D30009004F0919104908180918F048095892383
:101D4000808308958EBD00000DB407FEFDCF8EB5D3
:101D50000895AF92BF92CF92DF92EF92FF920F93CE
:101D60001F93CF93DF9300D000D01F921F92CDB767
:101D7000DEB78C017B016A018091EA048333B1F400
:101D80005801A40EB51EA016B10609F463C0CFDF3A
:101D900080EFD8DF812FD6DF802FD4DF0F5F1F4F7A
:101DA000F70181917F01CEDFB8DFEDCF5B01A40E9B
:101DB000B51E8433A9F4BBDF19830A838D2D806897
:101DC0008B83CC8264E070E0CE0101968CDFAE1490
:101DD000BF0409F43EC0F70181917F01B3DFF7CF63
:101DE000A6DF0F3F110509F028F419820A8384E069
:101DF0008B830CC017FD17C019820A8333E0169538
:101E000007953A95E1F7007E0C600B8386E0C816D3
:101E1000D10490F5F701DE011496EA15FB0599F05F
:101E200081918D93FACFC80126E0969587952A95E2
:101E3000E1F7807E19830A830115104C10F4846148
:101E4000D7CF8C61D5CFB6016D5F7F4FCE010196A4
:101E50004ADF63DFC60128960FB6F894DEBF0FBED7
:101E6000CDBFDF91CF911F910F91FF90EF90DF9049
:101E7000CF90BF90AF90089563E070E0CE010196DF
:101E800032DFF70181917F015DDFAE14BF04C9F736
:101E9000E0CFCF93DF931F92CDB7DEB7898341E0C8
:101EA00050E0BE016F5F7F4F90E080E052DF0F9007
:101EB000DF91CF91089590E02091EA04233339F423
:101EC0000C96982F990F990F990F80E008954896D6
:101ED000F8CFDA01E0919304F0E0FE2FEE27E60F51
:101EE000F71F90E0982F8827A901BD018E0F9F1F33
:101EF00030CFCF93DF931F921F92CDB7DEB7798398
:101F00006A8322E030E0AE014F5F5F4F60E170E036
:101F1000E0DF0F900F90DF91CF910895CF93DF9383
:101F20001F921F92CDB7DEB779836A8322E030E03B
:101F3000AE014F5F5F4F64E070E0CBDF0F900F901A
:101F4000DF91CF910895CF93DF931F92CDB7DEB786
:101F50002091930430E0322F2227260F371F90E084
:101F6000982F8827498341E050E0BE016F5F7F4F83
:101F7000820F931FEEDE0F90DF91CF910895CF93E4
:101F8000DF931F92CDB7DEB76983DC01ED91FC9141
:101F90000280F381E02D41E050E0BE016F5F7F4F92
:101FA00019950F90DF91CF910895CF93DF931F92F2
:101FB000CDB7DEB76983DC01ED91FC910280F3813E
:101FC000E02D41E050E0BE016F5F7F4F19950F900B
:101FD000DF91CF910895FC019485FB0184859813CE
:101FE00003C081E0983008F080E00895CF93DF933C
:101FF0001F92CDB7DEB76983DC01ED91FC910280C1
:10200000F381E02D41E050E0BE016F5F7F4F1995F5
:102010000F90DF91CF910895FC0176876587089531
:10202000DC01ED91FC91068CF78DE02D199591E086
:1020300089270895862F089581E08627089521E055
:10204000FC018485883008F020E0822F08950895EF
:10205000FF920F931F93CF93DF93EB01FC01178A3D
:10206000168A2A81211109C02B81211106C02C81D9
:10207000211103C02D812223E9F041155105D1F032
:102080008A01FC01F08C80E591E079D9AE014E5FC8
:102090005F4F24E030E06CE070E08F2D1ADFB80174
:1020A0008F2D27DF81E090E0DF91CF911F910F917D
:1020B000FF90089580E0F7CFFC0184859585089511
:1020C000FC0184899589089522EC32E0FC0131837A
:1020D0002083FB014089518962897389FC01428315
:1020E0005383648375830895DC01ED91FC91048C26
:1020F000F58DE02D1994089590E080E008954F92B9
:102100005F926F927F928F929F92AF92BF92CF9287
:10211000DF92EF92FF92CF93DF93CDB7DEB7659753
:102120000FB6F894DEBF0FBECDBF8D8B60912D0230
:10213000FF24FA94F60E60912C02EE24EA94E60E47
:1021400021EE3EE245E652E46091EA057091EB052E
:102150008091EC059091ED050E94E2374B015C0106
:102160002D89222309F4D3C182E189836F2D70E088
:1021700090E080E00E940C3620E030E843EF51E42C
:102180000E946B362B013C016E2D70E090E080E0E8
:102190000E940C369B01AC01C301B2010E947B3747
:1021A0006B017C012981622F70E090E080E00E9449
:1021B0000C3620E030E040EC51E40E94E2379B0115
:1021C000AC01C701B6010E947B3722E43DEC4CE82C
:1021D0005CE30E946B366B017C010E94DF376D83EC
:1021E0007E838F839887C701B6010E94F83869877C
:1021F0007A878B879C87A7019601C701B6010E9449
:102200007B372B013C010E94DF376D877E878F87EC
:10221000988BC301B2010E94F838698B7A8B8B8B43
:102220009C8B20E030E040E450E4C701B6010E94FE
:102230006B366B017C010E94DF372B013C01C7012B
:10224000B6010E94F83869837A838B839C8324E4E7
:1022500031EC4CEC5EE36D817E818F8198850E942C
:102260006B369B01AC0164E670EB82EE9BE30E944F
:102270007A376B017C0127EE32EE4FE85DE369852A
:102280007A858B859C850E946B369B01AC01C701CA
:10229000B6010E947B376B017C0126E332E74DEDEE
:1022A0005BE36D857E858F8598890E946B369B01E7
:1022B000AC01C701B6010E947A376B017C012DEB9E
:1022C00033EC4DE65AE369897A898B899C890E94AF
:1022D0006B369B01AC01C701B6010E947B376B01D5
:1022E0007C0127E230EC40E35BE3C301B2010E94D2
:1022F0006B369B01AC01C701B6010E947A376B01B6
:102300007C012FE83CEF41EC5AE369817A818B81B3
:102310009C810E946B369B01AC01C701B6010E94F3
:102320007B376B017C01C501B4010E94DF372B01B3
:102330003C01C701B6010E94DF3769837A838B8332
:102340009C83C501B4010E9440394B015C01C70167
:10235000B6010E9440396B017C0129813A814B8191
:102360005C81C301B2010E946B369B01AC0168E83D
:1023700079E48EE69CEB0E94E2372B013C01A70139
:102380009601C501B4010E946B369B01AC01C301EB
:10239000B2010E947A376B017C019F7720E030E028
:1023A00040E85FE30E94F43818160CF4B3C0C7018C
:1023B000B6010E946C376B017C018D89811104C0CC
:1023C000F7FAF094F7F8F0946091EE057091EF054C
:1023D0008091F0059091F105905821EE3EE245E69E
:1023E00052E40E94E237A70196010E947A3720E06A
:1023F00030E040E850E40E946B3621EE3EE245E6D4
:1024000052E40E946B3620E030E044E354E40E9442
:102410007B376B017C012EEA37ED44EF5AE36D8187
:102420007E818F8198850E946B3622E539E44DE9E3
:1024300058E30E947B374B015C012CE233E643E01A
:102440005DE369857A858B859C850E946B369B014F
:10245000AC01C501B4010E947A374B015C0121EC4B
:1024600033E74FE65CE36D857E858F8598890E9412
:102470006B369B01AC01C501B4010E947A374B0158
:102480005C0128E431E547E25DE369897A898B895B
:102490009C890E946B369B01AC01C501B4010E946E
:1024A0007A3724E13EE245E653E40E946B369B0115
:1024B000AC01C701B6010E947A370E944A382091C8
:1024C000F2053091F305620F731F10922B021092E8
:1024D0002A0210922902072E000C880B990B0E94E9
:1024E0005D0881E065960FB6F894DEBF0FBECDBFE4
:1024F000DF91CF91FF90EF90DF90CF90BF90AF90A2
:102500009F908F907F906F905F904F90089526E0FE
:1025100029832CCE80E0E6CFCF92EF92FF920F93EB
:102520001F93CF93DF939091CF0591110CC09091A1
:10253000D005911108C09091D105911104C09091DE
:10254000D205992341F0811104C0411102C06530C8
:1025500011F0CC20C1F1F22EC42FD62F182F80936A
:10256000290260932A0240932B0220932C020093AD
:102570002D02E0922E0281E0C2DD882351F00E94FC
:10258000730980912B028093CF0580912A0280935A
:10259000D00510932902D0932A02C0932B02F09207
:1025A0002C0200932D02E0922E0280E0A8DD882309
:1025B00051F00E94730980912B028093D105809184
:1025C0002A028093D205DF91CF911F910F91FF9046
:1025D000EF90CF900895CF93DF932091C006309174
:1025E000C106232B89F0FC01C091BC06D091BD0629
:1025F00060817181CE010E94F93B009729F08C1B0C
:102600009D0BDF91CF9108958FEF9FEFFACFFB01E4
:1026100001900020E9F73197AF01461B570BDC0111
:10262000ED91FC910280F381E02D19948F929F929D
:10263000AF92BF92EF92FF920F931F93CF93DF93CE
:10264000CDB7DEB7A1970FB6F894DEBF0FBECDBFF2
:102650007C01FA01CB0119A2223008F42AE08E0194
:102660000F5D1F4F822E912CB12CA12CBF01A50113
:1026700094010E943B37F901CA016A3004F5605D9C
:10268000D8016E938D01232B242B252B79F790E015
:1026900080E0109719F0BD01C701B9DFA1960FB610
:1026A000F894DEBF0FBECDBFDF91CF911F910F9188
:1026B000FF90EF90BF90AF909F908F900895695CCE
:1026C000DFCF8F929F92AF92BF92CF92DF92EF9225
:1026D000FF920F931F93CF93DF937C01EB016C016B
:1026E00082E0C80ED11C4701E5E08E0E911C10E07F
:1026F00000E0F60141916F0150E070E060E02AE0F7
:10270000CE0194DF5C01E881F9810190F081E02D38
:102710006EE2CE0119958A0D9B1D080F191FC81472
:10272000D90439F7F701458150E070E060E02AE014
:10273000CE017CDF800F911FDF91CF911F910F9110
:10274000FF90EF90DF90CF90BF90AF909F908F90D1
:10275000089564ED72E05BCF0F931F93CF93DF93E7
:10276000EC0155DF8C01CE01F4DF800F911FDF916A
:10277000CF911F910F910895EF92FF920F931F93A6
:10278000CF93DF938C017B01D0E0C0E0F701EC0F29
:10279000FD1F6491662331F0C80128DC892B11F0FC
:1027A0002196F4CFC801D5DF8C0F9D1FDF91CF910B
:1027B0001F910F91FF90EF900895FC01808191810E
:1027C000009711F00C944C3360E070E0CB01089559
:1027D0000F931F93CF93DF93EC018881998100972A
:1027E00059F02A813B812617370730F081E0DF91CD
:1027F000CF911F910F9108958B016F5F7F4F0E94C2
:10280000063B009759F0998388831B830A832C81A8
:102810003D81232B59F7FC011082E8CF80E0E7CF00
:10282000EF92FF920F931F93CF93DF936115710582
:1028300041F480E0DF91CF911F910F91FF90EF90D5
:10284000089541155105A9F07B01EC010C811D8112
:10285000040F151FB801BCDF882359F32881398183
:102860008C819D81B701820F931F0E94F23B1D83D3
:102870000C8381E0DFCFCF93DF93EC0188819981D6
:10288000009711F00E947D3A198218821D821C82E5
:102890001B821A82DF91CF910895CF93DF93EC01D1
:1028A000FB0101900020E9F73197AF01461B570B60
:1028B000B7DF811102C0CE01DEDFCE01DF91CF9103
:1028C0000895CF93DF93EC01FB0144815581608132
:1028D0007181A6DF811102C0CE01CDDFCE01DF9173
:1028E000CF910895EF92FF920F931F93CF93DF93B1
:1028F000EC017B018A01BA016BDF81110AC0CE01B4
:10290000BADFCE01DF91CF911F910F91FF90EF9031
:1029100008951D830C83B701888199810E94F23B41
:10292000F0CFFB0101900020E9F73197AF01461B82
:10293000570BD8CF0F931F93CF93DF9300D000D0C6
:1029400000D0CDB7DEB78C01862FF801118210823E
:1029500013821282158214824AE0BE016F5F7F4F9C
:1029600090E00E949133BE016F5F7F4FC801D9DFB5
:1029700029960FB6F894DEBF0FBECDBFDF91CF9181
:102980001F910F910895EF92FF920F931F93CF9392
:10299000DF93CDB7DEB7A1970FB6F894DEBF0FBEB9
:1029A000CDBF7C01CB01BA01F701118210821382E5
:1029B0001282158214828E010F5F1F4F22E044E0C5
:1029C0000E942F33009781F0BC01C701AADFA196B6
:1029D0000FB6F894DEBF0FBECDBFDF91CF911F9130
:1029E0000F91FF90EF900895C70145DFF0CF0F934F
:1029F0001F93CF93DF93CDB7DEB762970FB6F894EE
:102A0000DEBF0FBECDBF8C01CB01F8011182108259
:102A100013821282158214824AE0BE016F5F7F4FDB
:102A20000E947233BE016F5F7F4FC8017ADF6296EA
:102A30000FB6F894DEBF0FBECDBFDF91CF911F91CF
:102A40000F910895FB01DC0111961C921E921396C2
:102A50001C921E92129715961C921E92149786171E
:102A6000970741F0608171816115710519F044810A
:102A7000558138CF0895FC01118210821382128291
:102A800015821482FB0101900020E9F73197AF0114
:102A9000461B570B27CFCF92DF92EF92FF920F93F7
:102AA0001F93CF93DF936C017B018A014617570771
:102AB00020F48F2D7A01062F182F66ED72E0C601E3
:102AC000DADFC091C006D091C106EC16FD06F0F425
:102AD0000C171D0708F4E801E091BC06F091BD0653
:102AE000EC0FFD1F108110826091BC067091BD0635
:102AF0006E0D7F1DC6016115710591F012DF809189
:102B0000BC069091BD06C80FD91F1883C601DF917E
:102B1000CF911F910F91FF90EF90DF90CF9008958C
:102B2000AADEEDCFFC0180819181009711F00C9419
:102B30007D3A08950F931F93CF93DF93CDB7DEB700
:102B40002C970FB6F894DEBF0FBECDBF8C016A3054
:102B500068F0F0DEC8012C960FB6F894DEBF0FBE09
:102B6000CDBFDF91CF911F910F910895CE010196B6
:102B7000E1DE67ED72E0CE0107967DDFBE016F5F9B
:102B80007F4FCE0107969DDEBC01C8015BDFCE0101
:102B90000796C8DFCE010196C5DFDCCF8F929F92EA
:102BA000AF92BF92CF92DF92EF92FF920F931F935B
:102BB000CF93DF93CDB7DEB768970FB6F894DEBF3B
:102BC0000FBECDBF7C01062F10E00E94090CF8015A
:102BD000EE0FFF1FEE0FFF1FE358F94F6083718365
:102BE00082839383000F111F000F111FF801EF5B09
:102BF000F94F008111812281338158016901A61AA0
:102C0000B70AC80AD90AC601B50128EE33E040E088
:102C100050E00E943B3749010CE310E0C901B801C4
:102C20000E94A639AC01C401841B950BB8010E9417
:102C3000A6396B01CB01B8010E94A6395C01C81A04
:102C4000D90A642FCE01019675DF6A2DCE01079651
:102C500071DFC601B8010E94A639CE0143966ADF32
:102C6000BE016D5E7F4FCE010D96ECDE69ED72E028
:102C7000CE010D9612DEBE01695F7F4F22DE69ED47
:102C800072E00BDEBE016F5F7F4F1BDEBC01C70130
:102C9000D9DECE010D9646DFCE01439643DFCE014D
:102CA000079640DFCE0101963DDFC70168960FB65B
:102CB000F894DEBF0FBECDBFDF91CF911F910F9172
:102CC000FF90EF90DF90CF90BF90AF909F908F904C
:102CD0000895AF92BF92CF92DF92EF92FF920F933F
:102CE0001F93CF93DF9300D01F92CDB7DEB78C0137
:102CF0006B017A018091EA048333C1F45B016801BE
:102D0000C40ED51EC016D10681F111D88FE01AD895
:102D1000812F18D8802F16D80F5F1F4F80E012D850
:102D2000F50181935F010E948D0EECCF843369F52C
:102D30000E94970E19830A838F2D8F778B83EC82E5
:102D400064E070E0CE0101960E94730EA70170E06E
:102D500060E0C6010E94EB3BE114F10421F0B701F1
:102D6000C6010E94730E0E948D0EC7010F900F9036
:102D70000F900F90DF91CF911F910F91FF90EF90E7
:102D8000DF90CF90BF90AF9008950E94970E0F3FB5
:102D9000110509F030F419820A831B8263E070E0A8
:102DA000D1CF17FD0BC019820A8333E01695079522
:102DB0003A95E1F7007E08600B83F0CFC80126E06A
:102DC000969587952A95E1F7807E19830A830115E8
:102DD000104C18F480618B83E1CF8861FCCF1F9386
:102DE000CF93DF931F92CDB7DEB7182F80E591E028
:102DF0000E94BF09812F5FD827E0129FF0011124A4
:102E0000EE55FB4F22813381377041E050E0BE0127
:102E10006F5F7F4F820F931F5CDF89810F90DF917F
:102E2000CF911F910895FC01808D883038F4218D59
:102E3000328D232B19F0D3DF90E008958FEF9FEFB1
:102E40000895CF93DF93FC012485283028F08FEF7D
:102E50009FEFDF91CF910895EC010190F081E02D7B
:102E60000084F185E02D1995892B89F38C85B7DFD6
:102E700090E0EFCFCF93DF931F92CDB7DEB741E065
:102E800050E0BE016F5F7F4F24DF89810F90DF919B
:102E9000CF91089590E080E0EDCFCF93DF93C4E130
:102EA000D0E0F8DF882361F061E070E080E090E03E
:102EB0000E94D90B2197A9F780E0DF91CF91089567
:102EC00081E0FBCF1F93CF93DF931F921F92CDB76B
:102ED000DEB760E372E080E090E00E94D90B1FB79C
:102EE000F89480919204811127C0E5EAFFE0849173
:102EF000EBEEFFE09491E82FF0E0EE0FFF1FE452BD
:102F0000F24FA591B491EC91E92321F461E085E3BE
:102F10000E94F70A61E085E30E94830B8CB5806113
:102F20008CBD8CB580648CBD61E084E30E94830B12
:102F300061E083E30E94830B809192048F5F809312
:102F400092041FBFEAE7FFE0E491F0E0EE0FFF1FFD
:102F5000EA50F24F8591949190939104809390045C
:102F6000E0ECFFE0E491E0938F0461E08AE00E94EE
:102F7000830B0E948D0E80E591E00E94BF0984E3DF
:102F80008093EA0480E80E94490F87DF882371F16B
:102F900088E00E94490F7EDF883041F580E10E9481
:102FA000490F78DF803111F580E00E94490F72DF10
:102FB000182F81111BC08FE190E05CDF8330B1F4EA
:102FC00080E48093930442E06EE170E0812F0E94E0
:102FD000A30F42E06FE170E0812F0E94A30F1F5FFB
:102FE000183089F781E08093EB045BC087E380931E
:102FF000EA0480E80E94490F50DF8823D9F088E076
:103000000E94490F47DF8830A9F480E10E94490FF0
:1030100041DF182F803171F480E00E94490F3ADFC0
:10302000811108C089E390E025DF843019F4109302
:103030009304D8CF83E38093EA0480E80E94490F89
:103040002CDF882359F180E10E94490F23DF803172
:1030500029F582E10E94490F1DDF8231F9F480E0F9
:103060000E94490F17DF811119C084E080939304F7
:1030700015E51A8341E050E0BE016E5F7F4F8BE1A2
:1030800090E00E94A90E198341E050E0BE016F5FFD
:103090007F4F8AE190E00E94A90EA4CF1092EA042B
:1030A00080E00F900F90DF91CF911F910895CF9204
:1030B000DF92EF92FF92CF93DF93CDB7DEB7C2548A
:1030C000D1090FB6F894DEBF0FBECDBFFC0142811F
:1030D00053816481758123964CAF5DAF6EAF7FAF36
:1030E000239781E023968FAF23972396CCACDDAC5A
:1030F000EEACFFAC2397CBAADCAAEDAAFEAA4DA7A3
:103100005EA76FA778AB88ABCDA4DEA4EFA4F8A828
:10311000CFA2D8A6E9A6FAA68EABCBA8DCA8EDA8CC
:10312000FEA8C9A2DAA2EBA2FCA222EC32E03C8B00
:103130002B8B9FEF9D8B9E8B9F8B188E3E872D87B1
:103140008AA7CFA0D8A4E9A4FAA4CF86D88AE98A0E
:10315000FA8A8CA389A19AA1ABA1BCA189879A877D
:10316000AB87BC873A8329834B835C836D837E83E3
:103170008091EB04882309F443C080E591E00E942C
:10318000BF0946E050E063E272E089E090E00E940F
:10319000A90E44E050E0BE016D5F7F4F8FE090E0EC
:1031A0000E94A90E44E050E0BE01615F7F4F81E0C4
:1031B00090E00E94A90E44E050E0BE016B5E7F4F9C
:1031C00085E090E00E94A90E81E08C8789859A8530
:1031D000AB85BC858093A9059093AA05A093AB0508
:1031E000B093AC05CE5BDF4F0FB6F894DEBF0FBED9
:1031F000CDBFDF91CF91FF90EF90DF90CF900895FA
:1032000061DE882379F3B9CF2091930430E0322F27
:103210002227620F731F90E0982F8827860F971F31
:1032200029CECF93C82F462F61E070E00E94A30FF4
:1032300061E070E08C2FE8DF8111FACFCF91089523
:10324000CF93C82F80E591E00E94BF0968E070E04D
:103250008C2FCF91E6CFCF93C82F80E591E00E94CD
:10326000BF0960E170E08C2FCF91DBCFCF93DF936C
:10327000EC01888D883018F4EEDF88E0888FDF91CC
:10328000CF91089563E070E0BFCFCF93C82F80E562
:1032900091E00E94BF098C2FCF91F4CFEF92FF9263
:1032A0000F931F93CF93DF937C018091EA04D4E0C6
:1032B000833309F0D8E00AED14E0C0E0F801219171
:1032C00031918F01F701848195812817390729F001
:1032D000CF5FDC13F3CF80E005C08C2FD6DF8431C5
:1032E000B9F781E0DF91CF911F910F91FF90EF909F
:1032F0000895CF93DF93EC018C858830C8F4C5DF47
:10330000843189F0882379F0883169F021E08C31AB
:1033100059F4E881F9810084F185E02DCE011995F9
:1033200021E0892B09F420E0822FDF91CF910895CD
:1033300080E0FBCFCF92DF92EF92FF92CF93DF93AB
:10334000EC018C85883058F47BDF0E94090C6B01FE
:103350007C018C859ADF811109C088E08C87DF9120
:10336000CF91FF90EF90DF90CF90089561E070E0F3
:1033700080E090E00E94D90B0E94090CAB01BC01D7
:103380004C195D096E097F098D859E85B0E0A0E02E
:10339000481759076A077B07E0F28C855CDFDDCFB1
:1033A000CF93FC01C08D80E591E00E94BF0960E2EF
:1033B00070E08C2F36DF62E070E08C2F25DF84FD1B
:1033C00015C062E070E08C2F1FDF83FF0AC048E168
:1033D00062E070E08C2F0E94A30F80E090E0CF911C
:1033E000089580E591E00E94BF09E5CF40E162E0E9
:1033F00070E08C2F0E94A30F81E0F0CFDA01E09102
:103400009304F0E0FE2FEE27E60FF71F90E0982FD1
:103410008827A901BD018E0F9F1F5BCC8F929F92C1
:10342000AF92BF92CF92DF92EF92FF920F931F93D2
:10343000CF93DF93CDB7DEB760970FB6F894DEBFBA
:103440000FBECDBF7C019091EA04911115C018E028
:10345000812F60960FB6F894DEBF0FBECDBFDF910F
:10346000CF911F910F91FF90EF90DF90CF90BF9081
:10347000AF909F908F90089508E0933309F404E093
:103480006B0180E591E00E94BF099E012F5F3F4FD5
:103490005901490110E0812FF5DEF40181934F01BC
:1034A0008823B9F01F5F0113F6CF00E0F501819189
:1034B0005F018D3149F0883139F08A51823020F036
:1034C0000F5F1013F3CFC3CF60E170E0802FA9DE50
:1034D000102FA12EB12CF501EE0FFF1FE652FB4F6E
:1034E0001182108283EE93E00197F1F742E870E0D9
:1034F00060E0812F0E94A30F4FEF62E070E0812F08
:103500000E94A30FB601C114D10491F4809121024D
:103510009091220201968115F0EC9F0708F45AC0A1
:1035200090932202809321026091210270912202E5
:10353000812F0E948E0F86E0E9E4F2E0DE01199609
:1035400001900D928A95E1F7F70183818F778C873F
:1035500084818D8785818E87A7014E5F5F4F24E030
:1035600030E06CE070E0812F0E94690FB601812F7E
:103570000E94790F26E030E0AE01475F5F4F66E0C2
:1035800070E0812F0E94690F61E070E0812F49DEB9
:1035900027E02A9DC0012B9D900D11249C012E55E2
:1035A0003B4F7901F9011182108222E030E0AE0137
:1035B000415F5F4F68E270E0812F20DF8F8598893F
:1035C000982789279827F70193838283168215828B
:1035D00014823ECF80E090ECA3CFCF92DF92EF92A7
:1035E000FF920F931F93CF93DF9300D000D0CDB7FE
:1035F000DEB78C016B017A01FC01808D883008F404
:103600002ADE82EC92E09A838983F601828193819B
:10361000A481B5818B839C83AD83BE83B701CE012A
:103620000196FCDEF801808F8830A0F4F586E486F0
:10363000128E118E81E026960FB6F894DEBF0FBE73
:10364000CDBFDF91CF911F910F91FF90EF90DF9051
:10365000CF90089580E0EFCF7F928F929F92AF92AC
:10366000BF92CF92DF92EF92FF920F931F93CF936F
:10367000DF931F921F92CDB7DEB7782E8B014A01E0
:10368000590122E030E0AE014F5F5F4F64E270E02D
:10369000B5DEE980FA80FE24EF24FE24E00EF11E60
:1036A000970137704091EA04072D10E0433309F089
:1036B00042C0085F1F4F102F0027110F110F110F6D
:1036C000C901800F911F4733C9F1A9014A0D5B1D44
:1036D0004130584098F160E078E06B01C21AD30A9B
:1036E000A601B4010E94A90EA5014C195D09B401FF
:1036F0006C0D7D1DC8010E94A90EEA0CFB1CF9820D
:10370000EA8222E030E0AE014F5F5F4F64E270E09A
:10371000872D0E94690F0F900F90DF91CF911F911D
:103720000F91FF90EF90DF90CF90BF90AF909F9060
:103730008F907F900895005F1F4FBDCFA501B4010A
:10374000DACFEF92FF921F93CF93DF931F921F92D6
:10375000CDB7DEB7182F22E030E0AE014F5F5F4FEC
:1037600060E270E04BDEE980FA80FE24EF24FE2464
:1037700022E030E0AE014F5F5F4F60E270E0812FEA
:103780003DDE89819A81982789279827E816F906CE
:1037900089F487E0189FF0011124EE55FB4FF58264
:1037A000E482C7010F900F90DF91CF911F91FF909E
:1037B000EF9008957C01DCCF1F93CF93DF93182FF8
:1037C00080E591E00E94BF09812FBBDFEC01812FD2
:1037D00059DD873121F08C3111F0D0E0C0E0CE010D
:1037E000DF91CF911F910895CF93DF93EC018C85EA
:1037F000883050F44ADD873111F08C3129F48C8502
:10380000DBDF8115984098F3DF91CF910895FC019B
:103810008485883008F4D0CF90E080E00895CF927E
:10382000DF92EF92FF921F93CF93DF93182F7B01CC
:10383000EA014130584010F0C0E0D8E080E591E066
:103840000E94BF09812F7DDF6C01812F1BDD873135
:1038500011F08C3101F5CC16DD0680F380E591E0A6
:103860000E94BF099E01A70170E060E0812FF4DE95
:1038700060E270E0812FD5DC62E070E0812FC4DC73
:1038800084FD0CC0812FFEDC8823B9F080E591E037
:103890000E94BF09F1CFD0E0C0E0E0CF40E162E09C
:1038A00070E0812F0E94A30FCE01DF91CF911F9175
:1038B000FF90EF90DF90CF900895D0E0C0E0F4CF7C
:1038C0000F931F93CF93DF938C01EA01FC01848552
:1038D000883040F4A4DF892B39F481E090E0F801CE
:1038E00093838283D0E0C0E0CE01DF91CF911F911E
:1038F0000F9108950F931F93CF93DF93EC01FB017A
:103900004481558160817181DBDF8C01CE010E9491
:10391000A913800F911FDF91CF911F910F910895EF
:103920009F92AF92BF92CF92DF92EF92FF920F934E
:103930001F93CF93DF938C015B01942EE52EFC0146
:10394000C688D788F08C80E591E00E94BF098F2D52
:10395000F8DEC92DDE2D8C179D0708F4EC019E01C1
:10396000A501B6018F2D78DEF801868997898C0F25
:103970009D1F978B868BCE01DF91CF911F910F9169
:10398000FF90EF90DF90CF90BF90AF909F90089501
:10399000FF920F931F93CF93DF931F921F92CDB788
:1039A000DEB7F82E22E030E0AE014F5F5F4F66E2F7
:1039B00070E024DD09811A8110270127102722E0F9
:1039C00030E0AE014F5F5F4F66E270E08F2D16DD95
:1039D00089819A819827892798270817190749F418
:1039E000C8010F900F90DF91CF911F910F91FF9021
:1039F00008958C01E4CF1F93CF93DF93182F87E0B6
:103A0000189FE0011124CE55DB4F888199810097E2
:103A100059F480E591E00E94BF09812FB9DF2E8122
:103A2000821B910999838883DF91CF911F9108951B
:103A30009F92AF92BF92CF92DF92EF92FF920F933D
:103A40001F93CF93DF93EC017B018091EA048111F6
:103A500021C01B821A8288EE93E0A0E0B0E08C8344
:103A60009D83AE83BF8383E592E09983888388E05A
:103A70008C8788EE93E09E878D87CE01DF91CF9172
:103A80001F910F91FF90EF90DF90CF90BF90AF907C
:103A90009F90089534E0932E833311F028E0922E06
:103AA0008AEDC82E84E0D82E10E098E0B92EA12C23
:103AB000D6012D913D916D01F701848195812817E3
:103AC000390779F4812FE1DB082F873111F08C3130
:103AD00029F5812F90DF892B51F50C3111F4812FBD
:103AE000AFDB1F5F9112E4CFA11008C0D701ED91A9
:103AF000FC910084F185E02DC70119951B821A8283
:103B000088EE93E0A0E0B0E08C839D83AE83BF831A
:103B100083E592E099838883BC86ABCF843149F0FA
:103B20008111DFCFF601329711821082DACFB12EE8
:103B3000D8CFAA24A394D5CF8F929F92AF92BF9251
:103B4000CF92DF92EF92FF920F931F93CF93DF9369
:103B5000CDB7DEB72F970FB6F894DEBF0FBECDBF3F
:103B60005C014B017A018091EA048823B1F104E001
:103B7000833309F008E0B501CE01019659DF8AEDE3
:103B8000C82E84E0D82E10E0F601219131916F010A
:103B9000F501848195812817390741F4812F75DB60
:103BA000873121F4A701B401812F39DE1F5F011392
:103BB000EBCFC7012F960FB6F894DEBF0FBECDBF77
:103BC000DF91CF911F910F91FF90EF90DF90CF90F9
:103BD000BF90AF909F908F900895F12CE12CE9CF8A
:103BE000FC018485883008F406CF90E080E00895D9
:103BF0004F925F927F928F929F92AF92BF92CF929D
:103C0000DF92EF92FF920F931F93CF93DF931F9258
:103C10001F92CDB7DEB7782E6B014A01A82EB12CCA
:103C200027E0829FC0011124FC01EE55FB4F7F016C
:103C30000081118180E591E00E94BF0908151905F6
:103C40004CF4872DA5DEF70126818C01021B11099A
:103C5000118300830115110511F5872D13DB8431C4
:103C600059F0882349F001E010E08C3111F410E0A4
:103C700000E0119501951109C8010F900F90DF9197
:103C8000CF911F910F91FF90EF90DF90CF90BF9059
:103C9000AF909F908F907F905F904F900895801687
:103CA00091060CF4840187E08A9DF0018B9DF00D54
:103CB0001124EE55FB4FE280F380C114D10451F181
:103CC0002701F7E05F22872D0E945B0F840D951D71
:103CD0002091EA04273309F452C09801240D351DC0
:103CE0002130384008F44BC020E038E04901841806
:103CF0009508A401B6010E9469162601480C591CBA
:103D00006801C818D908872D0E945B0FA601B2016F
:103D10000E946916E00EF11E87E08A9DF0018B9DDE
:103D2000F00D1124EE55FB4FF382E28220813181A8
:103D3000201B310B318320838681800F912F911DB1
:103D40008A3F910510F4232BE9F487E08A9DF00166
:103D50008B9DF00D1124EE55FB4F1682F982EA82FD
:103D600022E030E0AE014F5F5F4F68E270E0872DE8
:103D70000E94690F60E470E0872D53DA7DCFA801BF
:103D8000B601C6CF868378CFCF93DF93FC01218D18
:103D9000328D2115310529F48FEF9FEFDF91CF91FF
:103DA0000895EC01808D4217530708F0A90120DF28
:103DB000181619068CF7298D3A8D281B390B3A8F66
:103DC000298FECCF0F931F93CF93DF931F92CDB723
:103DD000DEB7FC01218D328D232B41F48FEF9FEF55
:103DE0000F90DF91CF911F910F9108958C0141E0C9
:103DF00050E0BE016F5F7F4FFC01808DF9DE181629
:103E0000190664F7F801818D928D0197928F818F49
:103E1000898190E0E5CFCF93DF931F92CDB7DEB7D6
:103E200041E050E0BE016F5F7F4FFC018485E0DE22
:103E30001816190634F4898190E00F90DF91CF9124
:103E400008958FEF9FEFF9CFCF92DF92EF92FF921D
:103E50000F931F93CF93DF93CDB7DEB7EE970FB6D7
:103E6000F894DEBF0FBECDBF6FEB75E0CE0142967A
:103E7000DFDD8E8D883008F0E1C666ED72E0CE01A0
:103E8000C3960E943B150E94090C6093CB0570936A
:103E9000CC058093CD059093CE0560938B047093F1
:103EA0008C0480938D0490938E04CE01429621DA87
:103EB000882309F4B5C68091CB059091CC05A091DB
:103EC000CD05B091CE0540918B0450918C0460914A
:103ED0008D0470918E04841B950BA60BB70B813D4E
:103EE0009740A105B10508F09BC60E94090C60939C
:103EF000CB057093CC058093CD059093CE05CE0174
:103F000042966EDE892B89F2CE01429684DF182F0D
:103F100089831A8241E050E0BE016F5F7F4F8CEBD6
:103F200096E00E9410141A3009F088C78FA998AD46
:103F3000892B09F07CC76BED72E0CE0142960E949E
:103F4000AC136BEE72E0CE0142960E94AC1362E0BD
:103F500073E0CE0142960E94AC13CE0142960E94BD
:103F6000A91364E173E0CE0101960E943B15CE01D6
:103F700001960E94EB128C01CE0101960E949215CF
:103F800017FD03C081E0809320026FE173E0CE0152
:103F900001960E943B15CE0101960E94EB128C0106
:103FA000CE0101960E94921517FF109220026BE23B
:103FB00073E0CE0101960E943B15CE0101960E944E
:103FC000EB128C01CE0101960E94921517FD08C0DC
:103FD00080911E0290911F0290931D0280931C02FB
:103FE00066E373E0CE0101960E943B15CE01019677
:103FF0000E94EB128C01CE0101960E94921517FDD2
:1040000003C08EE00E94970C62E473E0CE0101963B
:104010000E943B15CE0101960E94EB128C01CE014D
:1040200001960E94921517FD07C04EE060EC77E202
:1040300089E090E00E943E0C6DE473E0CE010196B1
:104040000E943B15CE0101960E94EB128C01CE011D
:1040500001960E94921517FD03C08DE00E94970CF7
:1040600069E573E0CE0101960E943B15CE010196F1
:104070000E94EB128C01CE0101960E94921517FD51
:1040800007C04DE060EC77E289E090E00E943E0CD2
:1040900064E673E0CE0101960E943B15CE010196C5
:1040A0000E94EB128C01CE0101960E94921517FD21
:1040B00003C08CE00E94970C60E773E0CE0101968C
:1040C0000E943B15CE0101960E94EB128C01CE019D
:1040D00001960E94921517FD07C04CE060E87FE44E
:1040E00082E190E00E943E0C6BE773E0CE01019606
:1040F0000E943B15CE0101960E94EB128C01CE016D
:1041000001960E94921517FD03C081E080938A04F6
:1041100066E873E0CE0101960E943B15CE01019640
:104120000E94EB128C01CE0101960E94921517FF9E
:1041300010928A0462E973E0CE0101960E943B1559
:10414000CE0101960E94EB128C01CE0101960E94D5
:10415000921517FD03C081E080931B026DE973E0A7
:10416000CE0101960E943B15CE0101960E94EB12F2
:104170008C01CE0101960E94921517FF10921B022E
:1041800069EA73E0CE0101960E943B15CE010196CB
:104190000E94EB128C01CE0101960E94921517FD30
:1041A00003C089E00E94970C64EB73E0CE01019696
:1041B0000E943B15CE0101960E94EB128C01CE01AC
:1041C00001960E94921517FD07C049E060EC77E266
:1041D00089E090E00E943E0C6EEB73E0CE01019608
:1041E0000E943B15CE0101960E94EB128C01CE017C
:1041F00001960E94921517FF10921A0269EC73E063
:10420000CE0101960E943B15CE0101960E94EB1251
:104210008C01CE0101960E94921517FD03C081E02A
:1042200080931A0263ED73E0CE0101960E943B1564
:10423000CE0101960E94EB128C01CE0101960E94E4
:10424000921517FD03C087E00E94970C6EED73E096
:10425000CE0101960E943B15CE0101960E94EB1201
:104260008C01CE0101960E94921517FD07C047E010
:1042700060EC77E289E090E00E943E0C68EE73E02B
:10428000CE0101960E943B15CE0101960E94EB12D1
:104290008C01CE0101960E94921517FF109219020F
:1042A00063EF73E0CE0101960E943B15CE010196AB
:1042B0000E94EB128C01CE0101960E94921517FD0F
:1042C00003C081E0809319026DEF73E0CE01019687
:1042D0000E943B15CE0101960E94EB128C01CE018B
:1042E00001960E94921517FD07C045E06CED75E040
:1042F00080E090E00E943E0C67E074E0CE01019601
:104300000E943B15CE0101960E94EB128C01CE015A
:1043100001960E94921517FD07C044E06CED75E010
:1043200080E090E00E943E0C61E174E0CE010196D5
:104330000E943B15CE0101960E94EB128C01CE012A
:1043400001960E94921517FD07C043E06CED75E0E1
:1043500080E090E00E943E0C6BE174E0CE0101969B
:104360000E943B15CE0101960E94EB128C01CE01FA
:1043700001960E94921517FD03C081E080931802F8
:1043800065E274E0CE0101960E943B15CE010196D4
:104390000E94EB128C01CE0101960E94921517FF2C
:1043A0001092180260E374E0CE0101960E943B1562
:1043B000CE0101960E94EB128C01CE0101960E9463
:1043C000921517FDB1C04FE050E06BE070E0CE01F8
:1043D00001960E944B15CE0101960E94DD13709349
:1043E000FA056093F905CE0101960E94921542E10B
:1043F00050E060E170E0CE0101960E944B15CE01C5
:1044000001960E94DD136093FB05CE0101960E9488
:10441000921545E150E063E170E0CE0101960E9403
:104420004B15CE0101960E94DD136093FC05CE0171
:1044300001960E94921548E150E066E170E0CE01DD
:1044400001960E944B15CE0101960E94DD136093E8
:10445000FE05CE0101960E9492154BE150E069E104
:1044600070E0CE0101960E944B15CE0101960E948C
:10447000DD136093FF05CE0101960E949215109204
:1044800029021091FF0510932A02F090FE05F09288
:104490002B02D090FC05D0922C020091FB050093DA
:1044A0002D02E090F90580E3E80EE0922E020E94D2
:1044B0003509813009F0ECC087E08093FD058CE37D
:1044C00090E09093F3058093F20585E39DEDA0E5E0
:1044D000B2E48093EA059093EB05A093EC05B093CA
:1044E000ED058AE69AE5A6EAB1E48093EE0590939D
:1044F000EF05A093F005B093F10583E08093F405F8
:1045000084E08093F5059AE09093F6058093F70593
:104510008CE38093F805CC24C3942D2D4F2D612F6F
:10452000809100060E948C1266EC7DE0CE014296DE
:104530000E94BC136BE77DE0CE0142960E94BC1343
:104540006BE57DE0CE0142960E94BC1367EF7CE0F4
:10455000CE0142960E94BC1362EA7CE0CE014296F4
:104560000E94BC136BE57CE0CE0142960E94BC1316
:1045700066E27CE0CE0142960E94BC1366EF7BE0CF
:10458000CE0142960E94BC1366EE7BE0CE014296BD
:104590000E94BC1365ED7BE0CE0142960E94BC13E5
:1045A0006091FC05CE018D960E949A156091FB05E5
:1045B000CE0187960E949A158091F9059091FA058F
:1045C0001AA219A21CA21BA21EA21DA24AE0BE0191
:1045D0006F5F7F4F0E949133BE016F5F7F4FCE01AF
:1045E00081960E949114BE016F5D7F4FCE010196AE
:1045F0000E9422156CE374E0CE0101960E944D14D6
:10460000BE01695D7F4F0E9461146CE374E00E94FB
:104610004D14BE01635D7F4F0E946114BC01CE0149
:10462000C9960E942215CE0101960E949215CE01D4
:1046300081960E949215CE0187960E949215CE0116
:104640008D960E949215BE01675C7F4FCE01429607
:1046500051D9CE01C9960E94921563ED7BE0CE013F
:1046600042960E94BC13E091FD05E15069E774E0B9
:10467000E73090F4F0E08827EF5BFC4D8F4F0C940F
:10468000B9394A23C526C826CB26CE26D126D4261C
:10469000815013CF6EE374E0CE0101960E943B156A
:1046A000BE016F5F7F4FCE01429624D9CE010196A5
:1046B0000E94921568EC7BE0CE0142960E94BC13EA
:1046C00060910006CE018D960E949A156091FF05BB
:1046D000CE0187960E949A156091FE05CE01019643
:1046E0000E949A15BE016F5F7F4FCE0181960E9496
:1046F000221569ED72E0CE0181960E944D14BE0133
:10470000695D7F4F0E94611469ED72E00E944D1453
:10471000BE01635D7F4F0E946114BC01CE01C9964A
:104720000E942215CE0181960E949215CE0101961B
:104730000E949215CE0187960E949215CE018D9609
:104740000E949215BE01675C7F4FCE014296D2D87F
:10475000CE01C9960E94921561EC7BE0CE01429693
:104760000E94BC136BEA7BE0CE0142960E94BC1310
:104770006091CF05CE0101960E949A14BE016F5F31
:104780007F4FCE014296B6D8CE0101960E94921577
:1047900069EA7BE0CE0142960E94BC136091D0058D
:1047A000CE0101960E949A14BE016F5F7F4FCE0129
:1047B0004296A0D8CE0101960E9492156FE87BE048
:1047C000CE0142960E94BC136091D105CE010196A4
:1047D0000E949A14BE016F5F7F4FCE0142968AD825
:1047E000CE0101960E9492156DE87BE0CE014296C3
:1047F0000E94BC136091D205CE0101960E949A14CA
:10480000BE016F5F7F4FCE01429674D8CE010196F4
:104810000E94921561E77BE0CE0142960E94BC1394
:1048200060911E0270911F02CE0101960E94F71442
:10483000BE016F5F7F4FCE0142965CD8CE010196DC
:104840000E9492156AE67BE0CE0142960E94BC135C
:104850008091180262E27BE0882311F062ED7AE039
:10486000CE0142960E94BC13809120026CE87AE04F
:10487000882311F06EE37AE0CE0142960E94BC13C9
:1048800065E07AE0CE0142960E94BC1360911C0262
:1048900070911D02CE0101960E94F714BE016F5F58
:1048A0007F4FCE01429626D8CE0101960E949215E6
:1048B00063EF79E0CE0142960E94BC1385E00E942E
:1048C000150C6DEA79E0882311F06AE679E0CE01F3
:1048D00042960E94BC1384E00E94150C65E279E0C8
:1048E000882311F061EE78E0CE0142960E94BC135D
:1048F0006DEC78E0CE0142960E94BC136DEA78E040
:10490000CE0142960E94BC134091860450918704C8
:104910006091880470918904CE0101960E94C314AD
:10492000BE016F5F7F4FCE0142960E947A1CCE017E
:1049300001960E94921561EA78E0CE0142960E94AB
:10494000BC1380911902882309F431C26EE678E025
:10495000CE0142960E94BC13409182045091830480
:104960006091840470918504CE0101960E94C31465
:10497000BE016F5F7F4FCE0142960E947A1CCE012E
:1049800001960E94921568E578E0CE0142960E9459
:10499000BC1387E00E94150C67EC77E08823F1F0E8
:1049A00067E977E0CE0142960E94BC1367E0CE0132
:1049B00001960E94CE15BE016F5F7F4FCE014296D9
:1049C0000E947A1CCE0101960E94921569E877E058
:1049D000CE0142960E94BC136AE477E0CE01429673
:1049E0000E94BC1380911A02882309F400C267E177
:1049F00077E0CE0142960E94BC1340917E04509114
:104A00007F046091800470918104CE0101960E9420
:104A1000C314BE016F5F7F4FCE0142960E947A1C85
:104A2000CE0101960E94921561E077E0CE01429698
:104A30000E94BC1389E00E94150C60E776E0882391
:104A4000F1F060E476E0CE0142960E94BC1369E08A
:104A5000CE0101960E94CE15BE016F5F7F4FCE0141
:104A600042960E947A1CCE0101960E94921562E342
:104A700076E0CE0142960E94BC1363EF75E0CE0152
:104A800042960E94BC1369ED75E0CE0142960E94E9
:104A9000BC1366E1CE0101960E949A14BE016F5FBD
:104AA0007F4FCE0142960E947A1CCE0101960E9451
:104AB00092156AEB75E0CE0142960E94BC1362E14A
:104AC000CE0101960E949A14BE016F5F7F4FCE0106
:104AD00042960E947A1CCE0101960E94921562EBCA
:104AE00075E0CE0142960E94BC136EE975E0CE01DE
:104AF00042960E94BC1380911B026DE475E0811107
:104B000002C062E075E0CE0142960E94BC13809123
:104B10008A0466EB74E0882311F066E474E0CE0149
:104B200042960E94BC138CE00E94150C68E074E071
:104B30008823C1F06BEC73E0CE0142960E94BC1357
:104B40006CE0CE0101960E94CE15BE016F5F7F4FD3
:104B5000CE0142960E947A1CCE0101960E949215C7
:104B60006DEB73E0CE0142960E94BC138DE00E9473
:104B7000150C6FE773E08823C1F062E473E0CE01A7
:104B800042960E94BC136DE0CE0101960E94CE15A4
:104B9000BE016F5F7F4FCE0142960E947A1CCE010C
:104BA00001960E94921564E373E0CE0142960E9442
:104BB000BC138EE00E94150C62EF72E08823C1F0F6
:104BC00065EB72E0CE0142960E94BC136EE0CE010E
:104BD00001960E94CE15BE016F5F7F4FCE014296B7
:104BE0000E947A1CCE0101960E94921563EA72E03F
:104BF000CE0142960E94BC1367E572E0CE01429658
:104C00000E94BC13CE0142960E94A91368E472E090
:104C1000CE0142960E94BC13CE0142960E94A91377
:104C200066ED72E08CEB96E00E949114CE01429604
:104C30000E949A19CE01C3960E9492158EE00E949E
:104C4000150C60E0811101C061E089E10E94F70A62
:104C50008DE00E94150C60E0811101C061E086E1E9
:104C60000E94F70A8CE00E94150C60E0811101C0DF
:104C700061E087E10E94F70A89E00E94150C60E07C
:104C8000811101C061E08CE10E94F70A87E00E9477
:104C9000150C60E0811101C061E08DE10E94F70A0E
:104CA00085E00E94150C60E0811101C061E08BE19C
:104CB0000E94F70A84E00E94150C60E0811101C097
:104CC00061E08AE10E94F70A83E00E94150C60E02F
:104CD000811101C061E088E10E94F70A80918A0495
:104CE000813051F44CE060E87FE482E190E00E9482
:104CF0003E0C82E080938A048CE00E94150C8111A6
:104D00000EC080918A04823051F44DE060EC77E26D
:104D100089E090E00E943E0C83E080938A048DE05D
:104D20000E94150C81110DC080918A04833049F4D2
:104D30004EE060EC77E289E090E00E943E0C109239
:104D40008A04809100062091FE059091CF052913D9
:104D500084C02091FF059091D00529137EC0811158
:104D60007DC080919E0481117BC081E080939E0470
:104D700080911802882309F473C045E06CED75E05A
:104D800080E090E00E943E0C6BC06BE474E084CC49
:104D900062E574E081CC68E574E07ECC61E674E0A5
:104DA0007BCC68E674E078CC6FE674E075CC6EE19D
:104DB00078E0CE0142960E94BC134091820450914B
:104DC00083046091840470918504CE0101960E9451
:104DD000C314BE016F5F7F4FCE0142960E947A1CC2
:104DE000CE0101960E9492156AE078E0CECD67EC84
:104DF00076E0CE0142960E94BC1340917E04509111
:104E00007F046091800470918104CE0101960E941C
:104E1000C314BE016F5F7F4FCE0142960E947A1C81
:104E2000CE0101960E94921563EB76E0FFCD66ED10
:104E300072E0CE01C3960E94911437C81D3009F468
:104E400034C819831A8241E050E0BE016F5F7F4F82
:104E5000CE01C3960E94101428C8811110929E049E
:104E6000809100062091FE059091D10529131BC069
:104E70002091FF059091D205291315C0811114C00E
:104E800080919F04811112C081E080939F048091E2
:104E90001802882359F044E06CED75E080E090E062
:104EA0000E943E0C03C0811110929F048091000665
:104EB0009091FE05943109F00DC19091FF059F304E
:104EC00009F008C1811109C18091A004811107C0B6
:104ED00081E08093A00490911B02911101C10E9476
:104EE000090C0091010610910206209103063091F1
:104EF0000406601771078207930798F0D901C8016B
:104F000088519C4FAF4FBF4F80930106909302068C
:104F1000A0930306B0930406809100068F5F8093F0
:104F20000006809100068C3338F08091FF058F5F7A
:104F30008093FF05109200068091FF058C3338F0B6
:104F40008091FE058F5F8093FE051092FF05809192
:104F5000FE05883160F08091FD059091FC059F5F12
:104F60009093FC058F5F8093FD051092FE05809164
:104F7000FD05883018F081E08093FD058091FB05E8
:104F8000823051F48091FC058D3131F483E08093BF
:104F9000FB0581E08093FC058091FB05982F9D7FA8
:104FA000943011F0993051F49091FC059F3130F01C
:104FB0008F5F8093FB0581E08093FC058091FB056A
:104FC000982F9D7F913051F0853041F099EF980FE7
:104FD000923020F08A3011F08C3051F49091FC0521
:104FE000903230F08F5F8093FB0581E08093FC0569
:104FF0008091FB058D3060F08091F9059091FA0564
:1050000021E02093FB0501969093FA058093F90522
:10501000E090F90520E3E20EC12C0091FB05209100
:10502000FC054091FE056091FF05809100060E94FD
:105030008C120E94730D80E192E00E94D30D609368
:10504000860470938704809388049093890488E091
:1050500092E00E94D30D60937E0470937F0480934E
:1050600080049093810480E092E00E94D30D6093CD
:1050700082047093830480938404909385048091C8
:105080007B00877F80937B0080E480937C0080910D
:105090007A00806480937A0080917A0086FDFCCF4C
:1050A000909178008091790089279827892790939B
:1050B0001F0280931E02EE960FB6F894DEBF0FBE5D
:1050C000CDBFDF91CF911F910F91FF90EF90DF90B7
:1050D000CF900895882309F402CF1092A004FFCE48
:1050E00080938A04FCCEFC018485883010F40C94F3
:1050F000F81D90E080E008958F929F92AF92BF924A
:10510000CF92DF92EF92FF920F931F93CF93DF9393
:1051100000D000D000D01F92CDB7DEB79091EA0446
:10512000911115C018E0812F2A960FB6F894DEBFB2
:105130000FBECDBFDF91CF911F910F91FF90EF90E8
:10514000DF90CF90BF90AF909F908F90089528E010
:10515000F22E933311F494E0F92E6B01082F80E5C1
:1051600091E00E94BF099E012F5F3F4F5901490105
:1051700010E0812F0E944219F40181934F0188238E
:10518000C1F01F5FF112F5CFF12CF50191915F0194
:105190009D3149F0983139F09A51923020F0F394D2
:1051A0001F11F3CFBFCF60E170E08F2D0E94111966
:1051B0001F2DE12EF12CF701EE0FFF1FE652FB4FE2
:1051C0001182108283EE93E00197F1F7402F70E097
:1051D00060E0812F0E94A30F4FEF62E070E0812F0B
:1051E0000E94A30FB601CD2889F4809121029091ED
:1051F000220201968115F0EC9F0798F1909322020C
:10520000809321026091210270912202812F0E94DD
:105210008E0F61E070E0812F0E94111927E02E9D12
:10522000C0012F9D900D11249C012E553B4F7901FB
:10523000F9011182108222E030E0AE01475F5F4F3A
:1052400068E270E0812F0E94FE1989859A8598276F
:1052500089279827F7019383828316821582148207
:1052600062CF80E090ECCACF0F931F93CF93DF9370
:10527000EC018B01888D883010F40E942B19B80145
:1052800082E03ADF888F883050F41D870C871A8EB1
:10529000198E81E0DF91CF911F910F91089580E0E9
:1052A000F9CF0F931F93CF938C01FC01648175811B
:1052B00081E222DFC82F8830F8F480E591E00E9477
:1052C000BF098C2F0E944219833131F08C2FCF916E
:1052D0001F910F910C94201962E070E08C2F0E94B6
:1052E0001119F80184819581EC2FF0E0EE0FFF1F7A
:1052F000E652FB4F91838083CF911F910F910895C8
:10530000CF92DF92EF92FF921F93CF93DF93EC0146
:105310007B016A018C85883048F40E9445198823F6
:1053200019F08C850E94201988E08C87F701828112
:105330009381A481B5810097A105B10551F490E056
:1053400080E0DF91CF911F91FF90EF90DF90CF90A1
:1053500008958F3F9F4FAF4FBF4F89F370E060E0DC
:1053600081E2CADE182F8C87883048F780E591E00B
:105370000E94BF09A7014E5F5F4F24E030E06CE060
:1053800070E0812F0E94690FB601812F0E94790F72
:1053900064E070E0812F0E9411190E94090C6B01DA
:1053A0007C018C850E944519873111F18C3101F106
:1053B000882329F20E94090CAB01BC014C195D093C
:1053C0006E097F098D859E85B0E0A0E08417950762
:1053D000A607B70738F061E070E080E090E00E9437
:1053E000D90BDFCF8C850E942B1988E08C87A7CF43
:1053F00081E090E0A6CF0F931F93CF93DF931F928E
:105400001F92CDB7DEB7FC0124852830E0F48C0173
:1054100080E591E00E94BF0922E030E0AE014F5FDD
:105420005F4F60E170E0F80184850E94FE19898178
:105430009A819827892798270F900F90DF91CF9115
:105440001F910F91089590E080E0F6CF0F931F9386
:10545000CF93DF931F921F92CDB7DEB7FC01248557
:105460002830E0F48C0180E591E00E94BF0922E041
:1054700030E0AE014F5F5F4F64E070E0F80184857B
:105480000E94FE1989819A819827892798270F9071
:105490000F90DF91CF911F910F91089590E080E0E0
:1054A000F6CF0F931F93CF93DF9300D000D01F92BE
:1054B0001F92CDB7DEB78C01D80159964D915C9102
:1054C0005A974115510551F0ED91FC91048CF58DE1
:1054D000E02D70E060E0C8011995EECFF801808DF5
:1054E0000E94FB1C892BB1F148E050E0BE016F5FC8
:1054F0007F4FD80158968C910E94F81D18161906F6
:10550000F4F4D801509684E0FE01319601900D929A
:105510008A95E1F78D8190E0982F88272E81820F60
:10552000911DF801958B848B8F81282F30E0322FCD
:1055300022278885820F932F911D928F818F289625
:105540000FB6F894DEBF0FBECDBFDF91CF911F9194
:105550000F91089590E080E0F2CF4F925F926F92AA
:105560007F928F929F92AF92BF92CF92DF92EF92F3
:10557000FF920F931F93CF93DF93CDB7DEB763975F
:105580000FB6F894DEBF0FBECDBF7C016B013A01B0
:10559000FB0120E090E080E06AE03191332309F4E0
:1055A00060C040ED430F4A3008F04CC0689FA00136
:1055B000699F500D1124CA01C097830F911D37FDBB
:1055C0009A958F3F910549F340F3F701428153814A
:1055D000648175818091B5059091B605A091B7055C
:1055E000B091B805481759076A077B0709F40BC241
:1055F0008701085F1F4F0E94090C6F7077277C5F3F
:10560000C80132DE813009F003C282EC92E09A8355
:105610008983F70182819381A481B5818B839C83E7
:10562000AD83BE8345E350E0BE016F5F7F4FC8018D
:105630000E942810892BA9F5D12CC12CC8010E94E9
:10564000361917C03E3209F0C0CF233009F4BDCF60
:10565000D301A20FB11D12968C932F5F90E080E0D2
:105660009CCF233009F0B1CFF3018583CC24C394C0
:10567000D12CC60163960FB6F894DEBF0FBECDBF26
:10568000DF91CF911F910F91FF90EF90DF90CF901E
:10569000BF90AF909F908F907F906F905F904F9052
:1056A00008950E94090CF7017783668342E050E079
:1056B000B7016A5F7F4FC8010E94901C81E090E0B3
:1056C0009A83898342E050E0BE016F5F7F4FC8013B
:1056D0000E94901C80E091E09A83898342E050E030
:1056E000BE016F5F7F4FC8010E94901C1A82198211
:1056F00042E050E0BE016F5F7F4FC8010E94901CE6
:1057000042E050E0BE016F5F7F4FC8010E94901CD5
:1057100042E050E0BE016F5F7F4FC8010E94901CC5
:105720005601F6018081882301F16501F60181911E
:105730002F01882311F08E32B1F446018A189B089C
:105740001814190474F48D8641E050E0BE01635FC3
:105750007F4FC8010E94901CA401B501C8010E949E
:10576000901C5201DECF6201E1CF1D8641E050E086
:10577000BE01635F7F4FC8010E94901CC12CDD24D5
:10578000D394DA82C98242E050E0BE016F5F7F4F5E
:10579000C8010E94901CDA82C98242E050E0BE013A
:1057A0006F5F7F4FC8010E94901CC8010E94D019F2
:1057B000892B09F441CFF3E0AF2EB12C230122E075
:1057C000420E511CD4C0F70142815381648175811E
:1057D000808D918DA28DB38D481759076A077B077D
:1057E00009F007C1848D958DC59709F002C181A18B
:1057F00092A15DEFC52EDD24DA940C970CF4ADC0B8
:105800004CE050E0BE016F5F7F4FC8010E94C41E94
:105810008B819C819827892798279A8B898BF70100
:105820004681578129813A814217530709F0E6C022
:1058300097FFE4C08F7092703BEFC32EDD24DA94A3
:10584000892B09F08AC06F807884762467247624B7
:105850002AEFC22EDD24DA946114710409F47DC0AC
:10586000D12CC12C8D819E81982789279827C81615
:10587000D906F8F441E050E0BE01635F7F4FC801F4
:105880000E94C41E4D85442331F050E070E060E07A
:10589000C8010E94C41E8D858111ECCF44E050E008
:1058A00070E060E0C8010E94C41EFFEFCF1ADF0A5B
:1058B000D9CF912C812C41E050E0BE016D5E7F4F2D
:1058C000C8010E94C41E4B89842F807C09F06BC0E4
:1058D000442331F050E070E060E0C8010E94C41E33
:1058E0008B898111E8CF42E050E0BE01615F7F4FBC
:1058F000C8010E94C41E42E050E0BE01635F7F4FBA
:10590000C8010E94C41E44E050E070E060E0C8019D
:105910000E94C41E42E050E0BE016F5E7F4FC8018E
:105920000E94C41E8F85988949895A8981159140A2
:1059300009F042C0CD84DE84DC24CD24DC2481E067
:10594000C816D104C9F54115544009F049C044E0D6
:1059500050E0B201C8010E94C41E21E0A21AB108A1
:1059600009F46CCEFFEFCF16DF0609F067CE0E9478
:10597000090C3B014C01C80194DD181619060CF402
:1059800022CF0E94090C661977098809990969389C
:1059900073418105910548F562E370E080E090E095
:1059A0000E94D90BE8CF41E050E070E060E0C80110
:1059B0000E94C41E1B8A94CF54274527542770E0A9
:1059C00060E0C8010E94C41EFFEF8F1A9F0A68148E
:1059D000790409F070CF96EFC92EDD24DA94BDCF9B
:1059E000E7EFCE2EDD24DA94B8CFCC24CA94DC2C99
:1059F000B4CF6EEFC62EDD24DA94AFCF4CEFC42EB9
:105A0000DD24DA94AACF8EEFC82EDD24DA9431CECD
:105A1000D12CC12C2ECECF92DF92EF92FF920F931A
:105A20001F93CF93DF93CDB7DEB7AF970FB6F89440
:105A3000DEBF0FBECDBF7C016A0102EC12E01A830B
:105A400009831C861B8688EE93E0A0E0B0E08D877A
:105A50009E87AF87B88B81E892E09A878987188FF5
:105A60000F8B198E1A8E1B8E1C8E88E089A31BA7A4
:105A70000AA71CA61DA61EA61FA68091A905909187
:105A8000AA05A091AB05B091AC058EA39FA3A8A7D2
:105A9000B9A78B839C83AD83BE8318861F82AE011A
:105AA000465D5F4FCE01019658DD81309105B1F41E
:105AB000D701ED91FC910488F589E02D1DA30CA37D
:105AC0008CA59DA5AEA5BFA58EA39FA3A8A7B9A78A
:105AD000A601BE016C5D7F4FC7011995AF960FB649
