:100000000C944E080C947F080C947F080C947F0885
:100010000C947F080C947F080C947F080C947F0844
:100020000C947F080C947F080C947F080C947F0834
:100030000C947F080C947F080C947F080C947F0824
:100040000C947F080C947F080C947F080C947F0814
:100050000C947F080C947F080C947F080C949D2FBF
:100060000C947F080C94672F0C943D2F0C947F0800
:100070000C947F080C947F080C947F080C947F08E4
:100080000C947F080C947F080C947F080C947F08D4
:100090000C947F080C947F080C947F080C947F08C4
:1000A0000C947F080C947F080C947F080C947F08B4
:1000B0000C947F080C947F080C947F080C947F08A4
:1000C0000C947F080C947F080C947F080C947F0894
:1000D0000C947F080C947F080C947F080C947F0884
:1000E0000C947F08072C7AA5BA6CC590DA3B93650F
:1000F000FC8BBC53F810FD3C5692834DBD879D3A56
:10010000B63DCBC9BF5BBE73DA0FC93F05A84CCD66
:10011000B2D44EB93836A9020C50B9918688083C41
:10012000A6AAAA2ABE000000803F0664EC1B3C047D
:10013000BC163E3BE5B93CC93C37C29E5A3D6604FD
:1001400098083EEA69AAAA3E000000803F000040ED
:100150007A10F35A00A0724E18090010A5D4E800D6
:1001600000E87648170000E40B54020000CA9A3BEE
:10017000000000E1F5050000809698000000404274
:100180000F000000A0860100000010270000000002
:10019000E803000000006400000000000A00000006
:1001A00000000100000000002C76D888DC674F08B2
:1001B00023DFC1DFAE59E1B1B796E5E3E453C63AB8
:1001C000E651997696E8E6C28426EB898C9B62ED2F
:1001D000407C6FFCEFBC9C9F40F2BAA56FA5F490E9
:1001E000055A2AF75C936B6CF9676DC11BFCE0E460
:1001F0000D47FEF520E6B500D0ED902E03009435B6
:1002000077050080841E080000204E0A000000C808
:100210000C333333330F986E12831141EF8D211459
:10022000893BE65516CFFEE6DB18D1844B381BF729
:100230007C1D901DA4BBE424203284725E228100C8
:10024000C9F124ECA1E53D273C2F626F64793E3C67
:100250002F68746D6C3E003C6120687265663D22BB
:100260002F6E6F7468696E67223E3C627574746F9E
:100270006E20636C6173733D22627574746F6E20BF
:10028000627574746F6E32223E5265667265736871
:10029000203C2F627574746F6E3E3C2F613E3C2F84
:1002A000703E003C2F627574746F6E3E3C2F613E51
:1002B0003C2F703E003C6120687265663D222F3104
:1002C000342F6F6666223E3C627574746F6E2063D5
:1002D0006C6173733D22627574746F6E2062757405
:1002E000746F6E32223E53746F70205A32207A61DE
:1002F00020003C6120687265663D222F31342F6FEB
:100300006E223E3C627574746F6E20636C61737311
:100310003D22627574746F6E223E53746172742054
:100320005A323C2F627574746F6E3E3C2F613E3CB6
:100330002F703E003C2F627574746F6E3E3C2F61CF
:100340003E003C6120687265663D222F31332F6F7D
:100350006666223E3C627574746F6E20636C6173D6
:10036000733D22627574746F6E20627574746F6E63
:1003700032223E53746F70205A31207A6120003C43
:100380006120687265663D222F31332F6F6E223EE9
:100390003C627574746F6E20636C6173733D22628E
:1003A0007574746F6E223E5374617274205A313CBE
:1003B0002F627574746F6E3E3C2F613E003C2F625D
:1003C0007574746F6E3E3C2F613E003C6120687214
:1003D00065663D222F31322F6F6666223E3C627584
:1003E00074746F6E20636C6173733D2262757474F4
:1003F0006F6E20627574746F6E32223E53746F702C
:10040000204C4B207A6120003C6120687265663D7B
:10041000222F31322F6F6E223E3C627574746F6EE4
:1004200020636C6173733D22627574746F6E223E3B
:100430005374617274204C4B3C2F627574746F6EF0
:100440003E3C2F613E003C6120687265663D222F74
:1004500031312F6F6666223E3C627574746F6E2078
:10046000636C6173733D22627574746F6E20627584
:1004700074746F6E32223E43796B6C20706F646CC3
:100480006577616E69652077207472616B63696559
:100490002C206E61647A69736E696A206279207AB1
:1004A0006174727A796D61633C2F627574746F6EDA
:1004B0003E3C2F613E003C6120687265663D222F04
:1004C00031312F6F6E223E3C627574746F6E206303
:1004D0006C6173733D22627574746F6E223E537447
:1004E0006172742063796B6C7520706F646C6577D2
:1004F000616E69613C2F627574746F6E3E3C2F6152
:100500003E003C6120687265663D222F31302F6FBE
:100510006E223E3C627574746F6E20636C617373FF
:100520003D22627574746F6E20223E506F646C655C
:1005300077616E6965205265637A6E653C2F6275DE
:1005400074746F6E3E3C2F613E003C6120687265A2
:10055000663D222F31302F6F6666223E3C627574F5
:10056000746F6E20636C6173733D22627574746F77
:100570006E20627574746F6E32223E506F646C65CB
:1005800077616E6965204175746F3C2F6275747474
:100590006F6E3E3C2F613E003C703E3C696E707554
:1005A0007420747970653D636865636B626F782051
:1005B0006F6E636C69636B3D72657475726E2066F5
:1005C000616C736520756E636865636B65643E205E
:1005D0004465737A637A003C703E3C696E70757452
:1005E00020747970653D636865636B626F78206F16
:1005F0006E636C69636B3D72657475726E206661C3
:100600006C736520636865636B65643E2044657345
:100610007A637A003C48333E506F646C6577616E54
:1006200069653C2F48333E0020433C2F48353E004F
:1006300020433C2F48353E3C48353E54656D70653F
:10064000726174757261206E6F636E613A20003C56
:1006500068353E54656D70657261747572612064B1
:100660007A69656E6E613A20003C61206872656649
:100670003D222F392F6F6666223E3C627574746F7F
:100680006E20636C6173733D22627574746F6E22A9
:100690003E53544F50213C2F627574746F6E3E3C34
:1006A0002F613E3C2F703E003C2F627574746F6E5C
:1006B0003E3C2F613E003C6120687265663D222F02
:1006C000392F6F6E223E3C627574746F6E20636CBE
:1006D0006173733D22627574746F6E2062757474F9
:1006E0006F6E32223E003C6120687265663D222FAB
:1006F000392F6F6E223E3C627574746F6E20636C8E
:100700006173733D22627574746F6E223E313020C6
:100710006D696E2E204F6E3C2F627574746F6E3E45
:100720003C2F613E3C2F703E002743206E6F633CA0
:100730002F627574746F6E3E3C2F613E003C703EBC
:100740003C6120687265663D222F382F6F6E223E15
:100750003C627574746F6E20636C6173733D2262CA
:100760007574746F6E20627574746F6E32223E50B1
:1007700061727465722000274320647A69656E3C5B
:100780002F627574746F6E3E3C2F613E003C703E6C
:100790003C6120687265663D222F382F6F666622A5
:1007A0003E3C627574746F6E20636C6173733D229E
:1007B000627574746F6E223E5061727465722000AF
:1007C0003C6120687265663D222F372F6F66662276
:1007D0003E3C627574746F6E20636C6173733D226E
:1007E000627574746F6E223E53544F50213C2F62D9
:1007F0007574746F6E3E3C2F613E3C2F703E003C22
:100800002F627574746F6E3E3C2F613E003C612018
:10081000687265663D222F372F6F6E223E3C6275EF
:1008200074746F6E20636C6173733D2262757474AF
:100830006F6E20627574746F6E32223E003C6120D0
:10084000687265663D222F372F6F6E223E3C6275BF
:1008500074746F6E20636C6173733D22627574747F
:100860006F6E223E3130206D696E2E204F6E3C2F10
:10087000627574746F6E3E3C2F613E3C2F703E007B
:100880002743206E6F633C2F627574746F6E3E3C1D
:100890002F613E003C703E3C6120687265663D22DF
:1008A0002F362F6F6E223E3C627574746F6E20631C
:1008B0006C6173733D22627574746F6E206275741F
:1008C000746F6E32223E50696574726F2000274348
:1008D00020647A69656E3C2F627574746F6E3E3C5D
:1008E0002F613E003C703E3C6120687265663D228F
:1008F0002F362F6F6666223E3C627574746F6E20D1
:10090000636C6173733D22627574746F6E223E5026
:10091000696574726F200020433C2F423E3C2F4893
:10092000353E003C68353E54656D70657261747586
:100930007261207A65776E6574727A6E613A203CD6
:10094000423E003C48333E4F67727A6577616E697C
:10095000653C2F48333E003C6120687265663D224D
:100960002F332F6F6E223E3C627574746F6E20635E
:100970006C6173733D22627574746F6E223E526FA8
:100980006C6574792073746F703C2F627574746F2A
:100990006E3E3C2F613E3C2F703E003C61206872F1
:1009A00065663D222F342F6F6E223E3C6275747453
:1009B0006F6E20636C6173733D22627574746F6E29
:1009C000223E4F7075736320726F6C6574793C2F93
:1009D000627574746F6E3E3C2F613E3C2F703E001A
:1009E0003C703E3C6120687265663D222F332F6F5C
:1009F0006E223E3C627574746F6E20636C6173731B
:100A00003D22627574746F6E223E526F6C6574790C
:100A10002073746F703C2F627574746F6E3E3C2F40
:100A2000613E003C703E3C6120687265663D222F4D
:100A3000352F6F6E223E3C627574746F6E20636C4E
:100A40006173733D22627574746F6E223E506F64E1
:100A50006E69657320726F6C6574793C2F62757472
:100A6000746F6E3E3C2F613E003C2F627574746F54
:100A70006E3E3C2F613E3C2F703E003C6120687210
:100A800065663D222F31352F6F6E223E3C627574B4
:100A9000746F6E20636C6173733D22627574746F42
:100AA0006E223E536574206C69676874206C6576AD
:100AB000656C3A003C6120687265663D222F3136D4
:100AC0002F6F6666223E3C627574746F6E20636C95
:100AD0006173733D22627574746F6E2062757474F5
:100AE0006F6E32223E4C696768742073656E736F57
:100AF00072206F6E3C2F627574746F6E3E3C2F6176
:100B00003E003C6120687265663D222F31362F6FB2
:100B10006E223E3C627574746F6E20636C617373F9
:100B20003D22627574746F6E223E4C696768742052
:100B300073656E736F72206F66663C2F6275747496
:100B40006F6E3E3C2F613E003C703E3C61206872FF
:100B500065663D222F322F6F6666223E3C627574B9
:100B6000746F6E20636C6173733D22627574746F71
:100B70006E20627574746F6E32223E426C696E64D0
:100B8000732054696D6572204F6E3C2F62757474CA
:100B90006F6E3E3C2F613E003C703E3C61206872AF
:100BA00065663D222F322F6F6E223E3C6275747453
:100BB0006F6E20636C6173733D22627574746F6E27
:100BC000223E426C696E64732054696D6572204FD9
:100BD00066663C2F627574746F6E3E3C2F613E00FA
:100BE000203C2F68353E00203C2F68353E3C683560
:100BF0003E204C616D70792077206F67726F647A48
:100C000069653A2000203C2F68353E00203C2F6863
:100C1000353E3C68353E2053656E736F72207377A6
:100C20006961746C613A20003A003C2F68353E3CA3
:100C300068353E205A6163686F6420736C6F6E6321
:100C4000613A20003A00203C68353E2057736368C3
:100C50006F6420736C6F6E63613A2000203C2F68D4
:100C6000353E0020676F647A696E613A200020008B
:100C70003C68353E20447A6973206A6573743A2073
:100C8000003C48333E526F6C6574793C2F48333ECC
:100C9000003C626F64793E3C48313E486F6D652090
:100CA000436F6E74726F6C20446F6D656B204F7A6A
:100CB00061726F772056302E3037413C2F48313EDD
:100CC000002E627574746F6E32207B6261636B6795
:100CD000726F756E642D636F6C6F723A20233737B5
:100CE000383738413B7D3C2F7374796C653E3C2F1F
:100CF000686561643E00746578742D6465636F7225
:100D00006174696F6E3A206E6F6E653B20666F6E20
:100D1000742D73697A653A20333070783B206D61A9
:100D20007267696E3A203270783B20637572736F18
:100D3000723A20706F696E7465723B7D002E627529
:100D400074746F6E207B206261636B67726F756E67
:100D5000642D636F6C6F723A20233139354236410E
:100D60003B20626F726465723A206E6F6E653B2045
:100D7000636F6C6F723A2077686974653B207061AD
:100D80006464696E673A2031367078203430707848
:100D90003B003C7374796C653E68746D6C207B20FD
:100DA000666F6E742D66616D696C793A2048656C6A
:100DB0007665746963613B20646973706C61793A2C
:100DC00020696E6C696E652D626C6F636B3B206D84
:100DD000617267696E3A20307078206175746F3B7C
:100DE00020746578742D616C69676E3A2063656E56
:100DF0007465723B7D003C6C696E6B2072656C3D66
:100E00002269636F6E2220687265663D2264617498
:100E1000613A2C223E003C686561643E3C6D65741D
:100E200061206E616D653D2276696577706F7274C1
:100E30002220636F6E74656E743D227769647468F6
:100E40003D6465766963652D77696474682C2069F3
:100E50006E697469616C2D7363616C653D31223E0E
:100E6000003C21444F43545950452068746D6C3EFA
:100E70003C68746D6C3E0000002100240027002AAD
:100E8000002D003000330001010000040107010AB9
:100E90000100002200250028002B002E0031003424
:100EA0000002010000050108010B0100000A0B020D
:100EB000090C0D0E080703040100000000000000EB
:100EC0000000000000000000000000000000000022
:100ED00000000000000000121110000000000000DF
:100EE0000000000000000000000000000000000002
:100EF00000005EBCE2613FDD83C29C7E20A3FD1F3B
:100F0000419DC3217FFCA2401E5F01E3BD3E608284
:100F1000DC237D9FC1421CFEA0E1BF5D0380DE3C5F
:100F200062BEE0025CDF81633D7C22C09E1D43A166
:100F3000FF4618FAA427799BC584DA3866E5BB59C1
:100F400007DB856739BAE406581947A5FB7826C43C
:100F50009A653BD987045AB8E6A7F91B45C6987A23
:100F600024F8A6441A99C7257B3A6486D85B05E71E
:100F7000B98CD2306EEDB3510F4E10F2AC2F71938D
:100F8000CD114FADF3702ECC92D38D6F31B2EC0EEC
:100F900050AFF1134DCE90722C6D33D18F0C52B0F7
:100FA000EE326C8ED0530DEFB1F0AE4C1291CF2DCE
:100FB00073CA947628ABF517490856B4EA6937D551
:100FC0008B5709EBB536688AD495CB2977F4AA48B4
:100FD00016E9B7550B88D6346A2B7597C94A14F6AB
:100FE000A8742AC896154BA9F7B6E80A54D7896B96
:100FF00035000020002300260029002C002F00329D
:1010000000000100000301060109010505050507AF
:101010000508080808020202020A0A080804040473
:10102000040101010101010101030303030303039F
:1010300003040707070C0C0C0C0C0C0C0C0202022E
:101040000206060606060606060B0B0B0B0B0B0B21
:101050000B010210202008081020401020408002C0
:1010600001020108040201010204081020408080EE
:101070004020100804020180040201804020100872
:10108000040201080402010102040810204080014A
:101090000204081020408000E72F323411241FBEC4
:1010A000CFEFD1E2DEBFCDBF00E00CBF14E0A0E087
:1010B000B2E0E6E5FAE700E00BBF02C007900D9250
:1010C000AE37B107D9F727E0AEE7B4E001C01D9213
:1010D000A238B207E1F718E0CDE4D8E000E006C09E
:1010E00021970109802FFE010E94C03ACC34D1071C
:1010F00080E00807A9F70E9475310C941A3D0C9402
:10110000000020912E0290912D029230C1F430E027
:101110002053384FC90183709927892B39F4C901AD
:1011200064E670E00E94AD3A892B89F4C90160E958
:1011300071E00E94AD3A892B51F08CE1089598300E
:1011400020F4917031F48EE108959095FACF8DE1FD
:1011500008958FE108958F929F92AF92BF92CF92A0
:10116000DF92EF92FF92CF93DF9320912A026B01DF
:101170007C01C20ED11CE11CF11CC701B6012CE39D
:1011800030E040E050E00E94263849015A019601C3
:10119000C601D7FE04C0882799278C199D096CE3E6
:1011A00070E00E94AD3A37FD78C021E0022E000CBD
:1011B000330BDC010E94C83A645C7F4F8F4F9F4F16
:1011C0002CE330E040E050E00E94263860932A0291
:1011D00080912B02880E911CA11CB11CC501B40189
:1011E00028E130E040E050E00E94263869017A01B1
:1011F0009401C40197FE04C088279927881999098A
:1012000068E170E00E94AD3A37FD49C021E0022E4E
:10121000000C330BDC010E94C83A685E7F4F8F4F91
:101220009F4F28E130E040E050E00E942638609374
:101230002B0280912C02C80ED11CE11CF11C61DF35
:1012400090E0B0E0A0E0C0922C028C159D05AE05A8
:10125000BF0594F5C1E0D4E6C81AD90AEA0AFB0A28
:1012600080912D028F5F8D30E0F480932D0249DF55
:1012700090E0B0E0A0E08C159D05AE05BF0564F3DD
:10128000C0922C02DF91CF91FF90EF90DF90CF9032
:10129000BF90AF909F908F9008952FEF87CF2FEF43
:1012A000B6CFC0932D0280912E028B596D2F0E94D4
:1012B000943A90932E02DBCF1C141D041E041F04CD
:1012C0000CF3CCE0D4E680912D02815089F080931C
:1012D0002D0217DF982F9C0D90932C02C80ED11C65
:1012E000E11CF11C1C141D041E041F0464F7CACF6A
:1012F000C0932D0280912E028D596D2F0E94943A39
:1013000090932E02E6CFE0912E02F0E080912D0224
:1013100020912C02833088F1E053F84F3DE0839F09
:10132000C0011124039665E070E00E94AD3A260FDB
:10133000372F311D2E0F3F1FBF017595679575958E
:101340006795260F371FCF016CE97FEF0E94AD3AFA
:10135000260F371FCF0160E971E00E94AD3AC90145
:10136000860F971F27E030E0B9010E94AD3A019641
:10137000B9010E94AD3A8F5F0895845FE153F84F41
:10138000CDCFCF93DF93C0912D02D091F605CD172D
:1013900040F18091F8058C1720F1DC1710F4C81784
:1013A000A0F1B1DF482F80912C028F5F841B1816AB
:1013B000DCF467E00E94A03A8F5F082E000C990BC6
:1013C000CD1314C02091F70530E0821793074CF03D
:1013D00028173907D4F04230C4F480912B028230B0
:1013E000A0F4DF91CF91089580E0E7CF2091F90537
:1013F00030E0821793074CF02817390794F34230F6
:1014000084F780912B02823060F76091FA0570E0DA
:1014100090E080E0DF91CF919ECE8CBD9DBD089580
:10142000FC01818D928D08950895AF92BF92CF9265
:10143000DF92EF92FF920F931F93CF93DF936C0194
:101440007B018B01040F151FEB015E01AE18BF0875
:10145000C017D10759F06991D601ED91FC91019027
:10146000F081E02DC6011995892B79F7C501DF912F
:10147000CF911F910F91FF90EF90DF90CF90BF9091
:10148000AF900895FC01538D448D252F30E0842FBB
:1014900090E0821B930B541710F0CF96089501979C
:1014A0000895FC01918D828D981761F0A28DAE0F89
:1014B000BF2FB11D5D968C91928D9F5F9F73928F10
:1014C00090E008958FEF9FEF0895FC01918D828D3C
:1014D000981731F0828DE80FF11D858D90E0089509
:1014E0008FEF9FEF0895FC01918D228D892F90E061
:1014F000805C9F4F821B91098F73992708958EEE10
:1015000094E0F1DF21E0892B09F420E0822F089597
:10151000FC01A48DA80FB92FB11DA35ABF4F2C9168
:10152000848D90E001968F739927848FA689B7895F
:101530002C93A089B1898C91837080648C93938D56
:10154000848D981306C00288F389E02D80818F7DF9
:1015500080830895EF92FF920F931F93CF93DF93B1
:10156000EC0181E0888F9B8D8C8D98131AC0E889DF
:10157000F989808185FF15C09FB7F894EE89FF89AE
:101580006083E889F98980818370806480839FBF4C
:1015900081E090E0DF91CF911F910F91FF90EF904C
:1015A0000895F62E0B8D10E00F5F1F4F0F7311275C
:1015B000E02E8C8D8E110BC00FB607FCFACFE88998
:1015C000F989808185FFF5CFCE01A2DFF2CFEB8DC7
:1015D000EC0FFD2FF11DE35AFF4FF0829FB7F894F7
:1015E0000B8FEA89FB8980818062D0CFCF93DF9314
:1015F000EC01888D8823B1F0AA89BB89E889F98933
:101600008C9185FD03C0808186FD0CC00FB607FC60
:10161000F7CF8C9185FFF2CF808185FFEDCFCE0192
:1016200077DFEACFDF91CF91089580E090E0892BBA
:1016300021F065DF81110E94000080E090E0892B9D
:1016400049F080E090E0892B29F00E940000811190
:101650000E94000080E090E0892B49F080E090E05B
:10166000892B29F00E94000081110E94000080E077
:1016700090E0892B49F080E090E0892B29F00E94CE
:10168000000081110C94000008958150823108F00F
:101690005AC0E82FF0E08827EF5AF44F8F4F0C9490
:1016A000C03A710B750B630B690B6D0BA30B780BB9
:1016B0007E0B820B880B8C0B900B960B9A0BA30B5B
:1016C0009E0BA40BA80B809180008F7780938000E5
:1016D0000895809180008F7DF9CF80918000877F71
:1016E000F5CF84B58F7784BD089584B58F7DFBCF0A
:1016F0008091B0008F778093B00008958091B00002
:101700008F7DF9CF809190008F778093900008951E
:10171000809190008F7DF9CF80919000877FF5CFE9
:101720008091A0008F778093A00008958091A00001
:101730008F7DF9CF8091A000877FF5CF8091200128
:101740008F77809320010895809120018F7DF9CFBC
:1017500080912001877FF5CF1F93CF93DF93282FB0
:1017600030E0F901E555F14F8491F901EF5AFF4E50
:10177000D491F901E55FFF4EC491CC23A1F0162F5F
:10178000811183DFEC2FF0E0EE0FFF1FEF56F14FDA
:10179000A591B4918FB7F894EC91111108C0D09530
:1017A000DE23DC938FBFDF91CF911F910895DE2B55
:1017B000F8CFCF93DF9390E0FC01EF5AFF4E2491D6
:1017C000855F9F4EFC0184918823D1F090E0880FC3
:1017D000991FFC01E958F14FA591B491FC01EF5616
:1017E000F14FC591D49161110EC09FB7F8948C91BF
:1017F000E22FE0958E238C932881E223E8839FBF1C
:10180000DF91CF9108958FB7F894EC91E22BEC9390
:101810008FBFF6CF3FB7F89480919B0490919C04C2
:10182000A0919D04B0919E0426B5A89B05C02F3FB2
:1018300019F00196A11DB11D3FBFBA2FA92F982FF6
:101840008827BC01CD01620F711D811D911D42E0F1
:10185000660F771F881F991F4A95D1F708958F92B9
:101860009F92AF92BF92CF92DF92EF92FF924B0185
:101870005C01D0DF6B017C01CDDF6C197D098E0925
:101880009F09683E734081059105B0F321E0821AFB
:101890009108A108B10888EEC80E83E0D81EE11CAB
:1018A000F11C81149104A104B10431F7FF90EF9071
:1018B000DF90CF90BF90AF909F908F9008952FB7FB
:1018C000F894609197047091980480919904909194
:1018D0009A042FBF08950F931F93CF93DF93C82FC0
:1018E000D0E0EDDFFE01EE0FFF1FEE0FFF1FE9500E
:1018F000F94F6083718382839383CC0FDD1FCC0FFC
:10190000DD1FC158D94F41E0088119812A813B81EF
:10191000061717072807390708F440E0842FDF91DE
:10192000CF911F910F9108958F929F92AF92BF9286
:10193000CF92DF92EF92FF920F931F93CF93DF939B
:101940006B017C01C42FD0E0BADFFE01EE0FFF1F58
:10195000EE0FFF1FE950F94F6083718382839383F9
:101960008E01000F111F000F111F0158194FF801B0
:1019700080809180A280B380681579058A059B05D7
:1019800008F19DDFCC0FDD1FCC0FDD1FC95FD94FE4
:10199000688379838A839B83C60ED71EE81EF91E4F
:1019A000F801C082D182E282F382DF91CF911F9150
:1019B0000F91FF90EF90DF90CF90BF90AF909F90EE
:1019C0008F900895D501C4018C0D9D1DAE1DBF1DC6
:1019D00080839183A283B383E8CFCF93DF93C82F13
:1019E000D0E06DDFFE01EE0FFF1FEE0FFF1FE1588D
:1019F000F94F608371838283938361DFCC0FDD1F96
:101A0000CC0FDD1FC95FD94F688379838A839B839D
:101A1000DF91CF910895DC012C911196ED91FC910D
:101A2000F8948181822B81839281322F3095932388
:101A3000928387E090E00197F1F78181832381838E
:101A400083E290E00197F1F790817894EFECF0E079
:101A50003197F1F7922381E009F480E00895FC01C9
:101A600090810180F281E02D292F209560FF14C024
:101A7000F8948281822382838181892B8183A3E2EE
:101A8000B0E01197F1F78281982B9283789487EDDB
:101A900090E00197F1F70895F89482818223828380
:101AA0008181892B8183AFEFB0E01197F1F78281BB
:101AB000982B928378948FE090E0EBCFDF92EF92B7
:101AC000FF920F931F93CF93DF93EC01D62EE42E5A
:101AD00008E010E0FF24F39461E08D2D8F2109F4DC
:101AE00060E0CE01BCDFFF0C01501109A9F7E11045
:101AF00010C0F894E981FA819181888180958923C9
:101B00008183E981FA81928188818095892382830A
:101B10007894DF91CF911F910F91FF90EF90DF901C
:101B20000895FC0190810180F281E02DF89481817B
:101B3000292F20958223818378943DE743E050E06C
:101B4000315029F1DA011197F1F780818923C1F32E
:101B5000F8948281822382838181892B8183789486
:101B6000ABE7B7E01197F1F7F89481818223818385
:101B7000A3E1B1E01197F1F78081982381E009F0AA
:101B800080E07894E3E6F6E03197F1F7089580E09D
:101B90000895CF93C091D805C11104C0C0E08C2F27
:101BA000CF9108958091D5059091D605BADF88230D
:101BB000A9F340E06CEC8091D5059091D6057EDFCD
:101BC0004091D90581E0482764E48091D505909142
:101BD000D60574DF74DE6093DA057093DB058093BD
:101BE000DC059093DD05DBCFCF92DF92FF920F9360
:101BF0001F93CF93DF936C01F62E8091D5059091C2
:101C0000D6058FDF882319F10091D5051091D605EF
:101C100040E065E5C80152DFE60188E0C80ED11C4E
:101C2000699140E0C8014ADFCC15DD05C9F740E005
:101C30006F2D8091D5059091D60540DF81E0DF9131
:101C4000CF911F910F91FF90DF90CF90089580E08A
:101C5000F6CF6F927F928F929F92AF92BF92CF9268
:101C6000DF92EF92FF920F931F93CF93DF93CDB745
:101C7000DEB76D970FB6F894DEBF0FBECDBF6EEB2B
:101C8000B3DF882309F480C08090D5059090D605F5
:101C90008E010F5E1F4F7E018AE1E80EF11C680184
:101CA00038E0632E712CB12CAA24A394C401B3DEB6
:101CB0008111BA28AA0CA1E06A1A7108B9F7F601D5
:101CC000B1926F01EE15FF0559F799E080E0915050
:101CD00049F0D801ED918D01E827F0E0EF50F14F88
:101CE0008491F5CF998D98134FC080E1E5E3F2E040
:101CF000DE01119601900D928A95E1F780914502DF
:101D000090914602A0914702B09148028A8F9B8F22
:101D1000AC8FBD8F0091D7050950110BF701E00F73
:101D2000F11F808169897A8902C0759567958A95C6
:101D3000E2F7072E000C880B990B0E941337000F57
:101D4000111F000F111FE1E0F0E0EC0FFD1FE00F8D
:101D5000F11F20813181428153810E9472376D963B
:101D60000FB6F894DEBF0FBECDBFDF91CF911F91AC
:101D70000F91FF90EF90DF90CF90BF90AF909F902A
:101D80008F907F906F90089563E373E988E893ECF8
:101D9000E6CFFC0120812EBD9B012150310941F08D
:101DA00051810DB407FEFDCF4EB55EBD4193F5CF19
:101DB00061507109860F971F0DB407FEFDCF2EB538
:101DC000FC0120830895E0919204F09193048081B6
:101DD00090919104892B80830895E0919204F09171
:101DE0009304908180919104809589238083089544
:101DF0008EBD00000DB407FEFDCF8EB50895AF92E5
:101E0000BF92CF92DF92EF92FF920F931F93CF93E7
:101E1000DF9300D000D01F921F92CDB7DEB78C01A8
:101E20007B016A018091EC048333B1F45801A40E64
:101E3000B51EA016B10609F463C0CFDF80EFD8DF6E
:101E4000812FD6DF802FD4DF0F5F1F4FF7018191E5
:101E50007F01CEDFB8DFEDCF5B01A40EB51E84336A
:101E6000A9F4BBDF19830A838D2D80688B83CC8214
:101E700064E070E0CE0101968CDFAE14BF0409F47B
:101E80003EC0F70181917F01B3DFF7CFA6DF0F3F9F
:101E9000110509F028F419820A8384E08B830CC0B1
:101EA00017FD17C019820A8333E0169507953A95F6
:101EB000E1F7007E0C600B8386E0C816D10490F534
:101EC000F701DE011496EA15FB0599F081918D93D7
:101ED000FACFC80126E0969587952A95E1F7807E8E
:101EE00019830A830115104C10F48461D7CF8C61DB
:101EF000D5CFB6016D5F7F4FCE0101964ADF63DF1C
:101F0000C60128960FB6F894DEBF0FBECDBFDF9195
:101F1000CF911F910F91FF90EF90DF90CF90BF90E6
:101F2000AF90089563E070E0CE01019632DFF701D3
:101F300081917F015DDFAE14BF04C9F7E0CFCF937D
:101F4000DF931F92CDB7DEB7898341E050E0BE0139
:101F50006F5F7F4F90E080E052DF0F90DF91CF9175
:101F6000089590E02091EC04233339F40C96982FD7
:101F7000990F990F990F80E008954896F8CFDA01EC
:101F8000E0919504F0E0FE2FEE27E60FF71F90E0BA
:101F9000982F8827A901BD018E0F9F1F30CFCF93A7
:101FA000DF931F921F92CDB7DEB779836A8322E059
:101FB00030E0AE014F5F5F4F60E170E0E0DF0F9017
:101FC0000F90DF91CF910895CF93DF931F921F92CF
:101FD000CDB7DEB779836A8322E030E0AE014F5F90
:101FE0005F4F64E070E0CBDF0F900F90DF91CF91F7
:101FF0000895CF93DF931F92CDB7DEB7209195045C
:1020000030E0322F2227260F371F90E0982F8827A5
:10201000498341E050E0BE016F5F7F4F820F931F05
:10202000EEDE0F90DF91CF910895CF93DF931F9253
:10203000CDB7DEB76983DC01ED91FC910280F381BD
:10204000E02D41E050E0BE016F5F7F4F19950F908A
:10205000DF91CF910895CF93DF931F92CDB7DEB775
:102060006983DC01ED91FC910280F381E02D41E078
:1020700050E0BE016F5F7F4F19950F90DF91CF91B8
:102080000895FC019485FB018485981303C081E0C9
:10209000983008F080E00895CF93DF931F92CDB77A
:1020A000DEB76983DC01ED91FC910280F381E02DC4
:1020B00041E050E0BE016F5F7F4F19950F90DF91B7
:1020C000CF910895FC01768765870895DC01ED9135
:1020D000FC91068CF78DE02D199591E089270895E4
:1020E000862F089581E08627089521E0FC018485EC
:1020F000883008F020E0822F08950895FF920F9312
:102100001F93CF93DF93EB01FC01178A168A2A8174
:10211000211109C02B81211106C02C81211103C07E
:102120002D812223E9F041155105D1F08A01FC01EE
:10213000F08C80E591E071D9AE014E5F5F4F24E0F5
:1021400030E06CE070E08F2D1ADFB8018F2D27DFB3
:1021500081E090E0DF91CF911F910F91FF90089562
:1021600080E0F7CFFC01848595850895FC01848982
:102170009589089522EC32E0FC0131832083FB0134
:102180004089518962897389FC0142835383648346
:1021900075830895DC01ED91FC91048CF58DE02DA3
:1021A0001994089590E080E008954F925F926F92A5
:1021B0007F928F929F92AF92BF92CF92DF92EF92D7
:1021C000FF92CF93DF93CDB7DEB765970FB6F89444
:1021D000DEBF0FBECDBF8D8B60912D02FF24FA9420
:1021E000F60E60912C02EE24EA94E60E21EE3EE219
:1021F00045E652E46091EC057091ED058091EE05A5
:102200009091EF050E94E9384B015C012D89222352
:1022100009F4D3C182E189836F2D70E090E080E002
:102220000E94133720E030E843EF51E40E947237F8
:102230002B013C016E2D70E090E080E00E9413378E
:102240009B01AC01C301B2010E9482386B017C0189
:102250002981622F70E090E080E00E94133720E037
:1022600030E040EC51E40E94E9389B01AC01C70129
:10227000B6010E94823822E43DEC4CE85CE30E9407
:1022800072376B017C010E94E6386D837E838F83F9
:102290009887C701B6010E94FF3969877A878B87C3
:1022A0009C87A7019601C701B6010E9482382B01C5
:1022B0003C010E94E6386D877E878F87988BC3012B
:1022C000B2010E94FF39698B7A8B8B8B9C8B20E04B
:1022D00030E040E450E4C701B6010E9472376B0160
:1022E0007C010E94E6382B013C01C701B6010E9427
:1022F000FF3969837A838B839C8324E431EC4CEC33
:102300005EE36D817E818F8198850E9472379B018B
:10231000AC0164E670EB82EE9BE30E9481386B01B6
:102320007C0127EE32EE4FE85DE369857A858B8587
:102330009C850E9472379B01AC01C701B6010E94C7
:1023400082386B017C0126E332E74DED5BE36D855E
:102350007E858F8598890E9472379B01AC01C701E9
:10236000B6010E9481386B017C012DEB33EC4DE608
:102370005AE369897A898B899C890E9472379B010B
:10238000AC01C701B6010E9482386B017C0127E2D3
:1023900030EC40E35BE3C301B2010E9472379B0162
:1023A000AC01C701B6010E9481386B017C012FE8A6
:1023B0003CEF41EC5AE369817A818B819C810E94D8
:1023C00072379B01AC01C701B6010E9482386B01D4
:1023D0007C01C501B4010E94E6382B013C01C70114
:1023E000B6010E94E63869837A838B839C83C5019A
:1023F000B4010E94473A4B015C01C701B6010E943B
:10240000473A6B017C0129813A814B815C81C30190
:10241000B2010E9472379B01AC0168E879E48EE654
:102420009CEB0E94E9382B013C01A7019601C501F4
:10243000B4010E9472379B01AC01C301B2010E943A
:1024400081386B017C019F7720E030E040E85FE35A
:102450000E94FB3918160CF4B3C0C701B6010E94E4
:1024600073386B017C018D89811104C0F7FAF094F7
:10247000F7F8F0946091F0057091F1058091F20504
:102480009091F305905821EE3EE245E652E40E9419
:10249000E938A70196010E94813820E030E040E849
:1024A00050E40E94723721EE3EE245E652E40E947B
:1024B000723720E030E044E354E40E9482386B013C
:1024C0007C012EEA37ED44EF5AE36D817E818F81E6
:1024D00098850E94723722E539E44DE958E30E945D
:1024E00082384B015C012CE233E643E05DE3698511
:1024F0007A858B859C850E9472379B01AC01C50152
:10250000B4010E9481384B015C0121EC33E74FE6B6
:102510005CE36D857E858F8598890E9472379B016B
:10252000AC01C501B4010E9481384B015C0128E473
:1025300031E547E25DE369897A898B899C890E944C
:1025400072379B01AC01C501B4010E94813824E1BE
:102550003EE245E653E40E9472379B01AC01C7019D
:10256000B6010E9481380E9451392091F4053091C2
:10257000F505620F731F10922B0210922A0210921F
:102580002902072E000C880B990B0E94AB0881E0F2
:1025900065960FB6F894DEBF0FBECDBFDF91CF9129
:1025A000FF90EF90DF90CF90BF90AF909F908F9073
:1025B0007F906F905F904F90089526E029832CCEF6
:1025C00080E0E6CFCF92EF92FF920F931F93CF93CD
:1025D000DF939091D10591110CC09091D20591118A
:1025E00008C09091D305911104C09091D40599230E
:1025F00041F0811104C0411102C0653011F0CC20BE
:10260000C1F1F22EC42FD62F182F80932902609388
:102610002A0240932B0220932C0200932D02E09279
:102620002E0281E0C2DD882351F00E94C109809111
:102630002B028093D10580912A028093D2051093BA
:102640002902D0932A02C0932B02F0922C0200930D
:102650002D02E0922E0280E0A8DD882351F00E9436
:10266000C10980912B028093D30580912A02809327
:10267000D405DF91CF911F910F91FF90EF90CF90F4
:102680000895CF93DF932091760730917707232B1E
:1026900089F0FC01C0917207D0917307608171814C
:1026A000CE010E94003D009729F08C1B9D0BDF910D
:1026B000CF9108958FEF9FEFFACFFB01019000209B
:1026C000E9F73197AF01461B570BDC01ED91FC9107
:1026D0000280F381E02D19948F929F92AF92BF9266
:1026E000EF92FF920F931F93CF93DF93CDB7DEB797
:1026F000A1970FB6F894DEBF0FBECDBF7C01FA01E3
:10270000CB0119A2223008F42AE08E010F5D1F4F81
:10271000822E912CB12CA12CBF01A50194010E9405
:102720004238F901CA016A3004F5605DD8016E9340
:102730008D01232B242B252B79F790E080E0109737
:1027400019F0BD01C701B9DFA1960FB6F894DEBF3D
:102750000FBECDBFDF91CF911F910F91FF90EF90F2
:10276000BF90AF909F908F900895695CDFCF8F925C
:102770009F92AF92BF92CF92DF92EF92FF920F9310
:102780001F93CF93DF937C01EB016C0182E0C80EB5
:10279000D11C4701E5E08E0E911C10E000E0F6012F
:1027A00041916F0150E070E060E02AE0CE0194DFDB
:1027B0005C01E881F9810190F081E02D6EE2CE01AB
:1027C00019958A0D9B1D080F191FC814D90439F7D4
:1027D000F701458150E070E060E02AE0CE017CDF47
:1027E000800F911FDF91CF911F910F91FF90EF907C
:1027F000DF90CF90BF90AF909F908F90089564ED41
:1028000072E05BCF0F931F93CF93DF93EC0155DF03
:102810008C01CE01F4DF800F911FDF91CF911F91CA
:102820000F910895EF92FF920F931F93CF93DF9331
:102830008C017B01D0E0C0E0F701EC0FFD1F64913B
:10284000662331F0C80128DC892B11F02196F4CFE2
:10285000C801D5DF8C0F9D1FDF91CF911F910F9184
:10286000FF90EF900895FC0180819181009711F015
:102870000C94533460E070E0CB0108950F931F93E4
:10288000CF93DF93EC0188819981009759F02A81D9
:102890003B812617370730F081E0DF91CF911F9100
:1028A0000F9108958B016F5F7F4F0E940D3C009741
:1028B00059F0998388831B830A832C813D81232BC4
:1028C00059F7FC011082E8CF80E0E7CFEF92FF924A
:1028D0000F931F93CF93DF936115710541F480E04F
:1028E000DF91CF911F910F91FF90EF9008954115C7
:1028F0005105A9F07B01EC010C811D81040F151F0E
:10290000B801BCDF882359F3288139818C819D81EE
:10291000B701820F931F0E94F93C1D830C8381E055
:10292000DFCFCF93DF93EC0188819981009711F07D
:102930000E94843B198218821D821C821B821A828B
:10294000DF91CF910895CF93DF93EC01FB010190CC
:102950000020E9F73197AF01461B570BB7DF811114
:1029600002C0CE01DEDFCE01DF91CF910895CF937B
:10297000DF93EC01FB014481558160817181A6DF09
:10298000811102C0CE01CDDFCE01DF91CF9108953C
:10299000EF92FF920F931F93CF93DF93EC017B0194
:1029A0008A01BA016BDF81110AC0CE01BADFCE0104
:1029B000DF91CF911F910F91FF90EF9008951D83AC
:1029C0000C83B701888199810E94F93CF0CFFB010B
:1029D00001900020E9F73197AF01461B570BD8CF84
:1029E0000F931F93CF93DF9300D000D000D0CDB7CB
:1029F000DEB78C01862FF8011182108213821282B9
:102A0000158214824AE0BE016F5F7F4F90E00E9402
:102A10009834BE016F5F7F4FC801D9DF29960FB68A
:102A2000F894DEBF0FBECDBFDF91CF911F910F9104
:102A30000895EF92FF920F931F93CF93DF93CDB73B
:102A4000DEB7A1970FB6F894DEBF0FBECDBF7C01F5
:102A5000CB01BA01F7011182108213821282158212
:102A600014828E010F5F1F4F22E044E00E94363433
:102A7000009781F0BC01C701AADFA1960FB6F894B8
:102A8000DEBF0FBECDBFDF91CF911F910F91FF90A1
:102A9000EF900895C70145DFF0CF0F931F93CF93B9
:102AA000DF93CDB7DEB762970FB6F894DEBF0FBEE7
:102AB000CDBF8C01CB01F8011182108213821282EA
:102AC000158214824AE0BE016F5F7F4F0E94793405
:102AD000BE016F5F7F4FC8017ADF62960FB6F89430
:102AE000DEBF0FBECDBFDF91CF911F910F91089533
:102AF000FB01DC0111961C921E9213961C921E92F1
:102B0000129715961C921E9214978617970741F0FC
:102B1000608171816115710519F04481558138CF4B
:102B20000895FC0111821082138212821582148290
:102B3000FB0101900020E9F73197AF01461B570BCD
:102B400027CFCF92DF92EF92FF920F931F93CF93F5
:102B5000DF936C017B018A014617570720F48F2D04
:102B60007A01062F182F66ED72E0C601DADFC091F8
:102B70007607D0917707EC16FD06F0F40C171D07C9
:102B800008F4E801E0917207F0917307EC0FFD1F64
:102B90001081108260917207709173076E0D7F1D16
:102BA000C6016115710591F012DF80917207909155
:102BB0007307C80FD91F1883C601DF91CF911F91EA
:102BC0000F91FF90EF90DF90CF900895AADEEDCFA8
:102BD000FC0180819181009711F00C94843B089551
:102BE0000F931F93CF93DF93CDB7DEB72C970FB61C
:102BF000F894DEBF0FBECDBF8C016A3068F0F0DE06
:102C0000C8012C960FB6F894DEBF0FBECDBFDF9182
:102C1000CF911F910F910895CE010196E1DE67EDEE
:102C200072E0CE0107967DDFBE016F5F7F4FCE0160
:102C300007969DDEBC01C8015BDFCE010796C8DFA9
:102C4000CE010196C5DFDCCF8F929F92AF92BF92EB
:102C5000CF92DF92EF92FF920F931F93CF93DF9368
:102C6000CDB7DEB768970FB6F894DEBF0FBECDBF05
:102C70007C01062F10E00E945F0CF801EE0FFF1F91
:102C8000EE0FFF1FE950F94F6083718382839383B6
:102C9000000F111F000F111FF801E158F94F0081BB
:102CA00011812281338158016901A61AB70AC80A25
:102CB000D90AC601B50128EE33E040E050E00E9499
:102CC000423849010CE310E0C901B8010E94AD3A55
:102CD000AC01C401841B950BB8010E94AD3A6B0195
:102CE000CB01B8010E94AD3A5C01C81AD90A642F21
:102CF000CE01019675DF6A2DCE01079671DFC60100
:102D0000B8010E94AD3ACE0143966ADFBE016D5E06
:102D10007F4FCE010D96ECDE69ED72E0CE010D968F
:102D200012DEBE01695F7F4F22DE69ED72E00BDECD
:102D3000BE016F5F7F4F1BDEBC01C701D9DECE0134
:102D40000D9646DFCE01439643DFCE01079640DF66
:102D5000CE0101963DDFC70168960FB6F894DEBF3D
:102D60000FBECDBFDF91CF911F910F91FF90EF90DC
:102D7000DF90CF90BF90AF909F908F900895AF92CB
:102D8000BF92CF92DF92EF92FF920F931F93CF9358
:102D9000DF9300D01F92CDB7DEB78C016B017A01B3
:102DA0008091EC048333C1F45B016801C40ED51E2D
:102DB000C016D10681F111D88FE01AD8812F18D80A
:102DC000802F16D80F5F1F4F80E012D8F501819336
:102DD0005F010E94E30EECCF843369F50E94ED0E93
:102DE00019830A838F2D8F778B83EC8264E070E0E8
:102DF000CE0101960E94C90EA70170E060E0C601F5
:102E00000E94F23CE114F10421F0B701C6010E94D6
:102E1000C90E0E94E30EC7010F900F900F900F9004
:102E2000DF91CF911F910F91FF90EF90DF90CF90A6
:102E3000BF90AF9008950E94ED0E0F3F110509F06D
:102E400030F419820A831B8263E070E0D1CF17FD52
:102E50000BC019820A8333E0169507953A95E1F77E
:102E6000007E08600B83F0CFC80126E09695879519
:102E70002A95E1F7807E19830A830115104C18F416
:102E800080618B83E1CF8861FCCF1F93CF93DF9369
:102E90001F92CDB7DEB7182F80E591E00E940D0A92
:102EA000812F5FD827E0129FF0011124EC55FB4FD2
:102EB00022813381377041E050E0BE016F5F7F4F68
:102EC000820F931F5CDF89810F90DF91CF911F915B
:102ED0000895FC01808D883038F4218D328D232BAC
:102EE00019F0D3DF90E008958FEF9FEF0895CF930F
:102EF000DF93FC012485283028F08FEF9FEFDF91CE
:102F0000CF910895EC010190F081E02D0084F185CE
:102F1000E02D1995892B89F38C85B7DF90E0EFCFF1
:102F2000CF93DF931F92CDB7DEB741E050E0BE01F3
:102F30006F5F7F4F24DF89810F90DF91CF910895DC
:102F400090E080E0EDCFCF93DF93C4E1D0E0F8DFF5
:102F5000882361F061E070E080E090E00E942F0C37
:102F60002197A9F780E0DF91CF91089581E0FBCF11
:102F70001F93CF93DF931F921F92CDB7DEB760E30D
:102F800072E080E090E00E942F0C1FB7F8948091CF
:102F90009404811127C0E0E4F0E18491E6E8F0E1D7
:102FA0009491E82FF0E0EE0FFF1FE958F14FA59143
:102FB000B491EC91E92321F461E085E30E94AC0B2C
:102FC00061E085E30E94D90B8CB580618CBD8CB526
:102FD00080648CBD61E084E30E94D90B61E083E3EF
:102FE0000E94D90B809194048F5F809394041FBF3B
:102FF000E5E1F0E1E491F0E0EE0FFF1FEF56F14F55
:10300000859194919093930480939204EBE5F0E181
:10301000E491E093910461E08AE00E94D90B0E9460
:10302000E30E80E591E00E940D0A84E38093EC04B6
:1030300080E80E949F0F87DF882371F188E00E945B
:103040009F0F7EDF883041F580E10E949F0F78DF7F
:10305000803111F580E00E949F0F72DF182F8111DF
:103060001BC08FE190E05CDF8330B1F480E480939B
:10307000950442E06EE170E0812F0E94F90F42E07A
:103080006FE170E0812F0E94F90F1F5F183089F700
:1030900081E08093ED045BC087E38093EC0480E8DB
:1030A0000E949F0F50DF8823D9F088E00E949F0F75
:1030B00047DF8830A9F480E10E949F0F41DF182F7D
:1030C000803171F480E00E949F0F3ADF811108C0C7
:1030D00089E390E025DF843019F410939504D8CF6C
:1030E00083E38093EC0480E80E949F0F2CDF882309
:1030F00059F180E10E949F0F23DF803129F582E1A1
:103100000E949F0F1DDF8231F9F480E00E949F0F23
:1031100017DF811119C084E08093950415E51A83A7
:1031200041E050E0BE016E5F7F4F8BE190E00E9476
:10313000FF0E198341E050E0BE016F5F7F4F8AE1CF
:1031400090E00E94FF0EA4CF1092EC0480E00F905C
:103150000F90DF91CF911F910895CF92DF92EF9260
:10316000FF92CF93DF93CDB7DEB7C254D1090FB62C
:10317000F894DEBF0FBECDBFFC0142815381648154
:10318000758123964CAF5DAF6EAF7FAF239781E023
:1031900023968FAF23972396CCACDDACEEACFFAC7F
:1031A0002397CBAADCAAEDAAFEAA4DA75EA76FA71C
:1031B00078AB88ABCDA4DEA4EFA4F8A8CFA2D8A6A4
:1031C000E9A6FAA68EABCBA8DCA8EDA8FEA8C9A2FA
:1031D000DAA2EBA2FCA222EC32E03C8B2B8B9FEF1D
:1031E0009D8B9E8B9F8B188E3E872D878AA7CFA0A5
:1031F000D8A4E9A4FAA4CF86D88AE98AFA8A8CA34B
:1032000089A19AA1ABA1BCA189879A87AB87BC870A
:103210003A8329834B835C836D837E838091ED04A5
:10322000882309F443C080E591E00E940D0A46E03E
:1032300050E063E272E089E090E00E94FF0E44E01B
:1032400050E0BE016D5F7F4F8FE090E00E94FF0E67
:1032500044E050E0BE01615F7F4F81E090E00E945A
:10326000FF0E44E050E0BE016B5E7F4F85E090E0D2
:103270000E94FF0E81E08C8789859A85AB85BC858D
:103280008093AB059093AC05A093AD05B093AE05CC
:10329000CE5BDF4F0FB6F894DEBF0FBECDBFDF9120
:1032A000CF91FF90EF90DF90CF90089561DE88235B
:1032B00079F3B9CF2091950430E0322F2227620FA5
:1032C000731F90E0982F8827860F971F29CECF93E2
:1032D000C82F462F61E070E00E94F90F61E070E0B6
:1032E0008C2FE8DF8111FACFCF910895CF93C82FAB
:1032F00080E591E00E940D0A68E070E08C2FCF918C
:10330000E6CFCF93C82F80E591E00E940D0A60E1DF
:1033100070E08C2FCF91DBCFCF93DF93EC01888DC2
:10332000883018F4EEDF88E0888FDF91CF91089520
:1033300063E070E0BFCFCF93C82F80E591E00E949B
:103340000D0A8C2FCF91F4CFEF92FF920F931F9322
:10335000CF93DF937C018091EC04D4E0833309F0B8
:10336000D8E00CED14E0C0E0F801219131918F011B
:10337000F701848195812817390729F0CF5FDC1385
:10338000F3CF80E005C08C2FD6DF8431B9F781E020
:10339000DF91CF911F910F91FF90EF900895CF9300
:1033A000DF93EC018C858830C8F4C5DF843189F067
:1033B000882379F0883169F021E08C3159F4E88173
:1033C000F9810084F185E02DCE01199521E0892B4A
:1033D00009F420E0822FDF91CF91089580E0FBCFA8
:1033E000CF92DF92EF92FF92CF93DF93EC018C8527
:1033F000883058F47BDF0E945F0C6B017C018C8568
:103400009ADF811109C088E08C87DF91CF91FF900E
:10341000EF90DF90CF90089561E070E080E090E061
:103420000E942F0C0E945F0CAB01BC014C195D097E
:103430006E097F098D859E85B0E0A0E04817590789
:103440006A077B07E0F28C855CDFDDCFCF93FC0160
:10345000C08D80E591E00E940D0A60E270E08C2F43
:1034600036DF62E070E08C2F25DF84FD15C062E05E
:1034700070E08C2F1FDF83FF0AC048E162E070E03C
:103480008C2F0E94F90F80E090E0CF91089580E5A5
:1034900091E00E940D0AE5CF40E162E070E08C2FE0
:1034A0000E94F90F81E0F0CFDA01E0919504F0E09D
:1034B000FE2FEE27E60FF71F90E0982F8827A9012F
:1034C000BD018E0F9F1F5BCC8F929F92AF92BF92D8
:1034D000CF92DF92EF92FF920F931F93CF93DF93E0
:1034E000CDB7DEB760970FB6F894DEBF0FBECDBF85
:1034F0007C019091EC04911115C018E0812F609629
:103500000FB6F894DEBF0FBECDBFDF91CF911F91F4
:103510000F91FF90EF90DF90CF90BF90AF909F9072
:103520008F90089508E0933309F404E06B0180E57F
:1035300091E00E940D0A9E012F5F3F4F5901490102
:1035400010E0812FF5DEF40181934F018823B9F05B
:103550001F5F0113F6CF00E0F50181915F018D310E
:1035600049F0883139F08A51823020F00F5F101312
:10357000F3CFC3CF60E170E0802FA9DE102FA12E22
:10358000B12CF501EE0FFF1FE452FB4F11821082A8
:1035900083EE93E00197F1F742E870E060E0812F5D
:1035A0000E94F90F4FEF62E070E0812F0E94F90F47
:1035B000B601C114D10491F48091210290912202AC
:1035C00001968115F0EC9F0708F45AC090932202EF
:1035D000809321026091210270912202812F0E942A
:1035E000E40F86E0E9E4F2E0DE01199601900D9225
:1035F0008A95E1F7F70183818F778C8784818D87A6
:1036000085818E87A7014E5F5F4F24E030E06CE03C
:1036100070E0812F0E94BF0FB601812F0E94CF0F53
:1036200026E030E0AE01475F5F4F66E070E0812F3B
:103630000E94BF0F61E070E0812F49DE27E02A9DE4
:10364000C0012B9D900D11249C012C553B4F7901FD
:10365000F9011182108222E030E0AE01415F5F4F3C
:1036600068E270E0812F20DF8F859889982789276D
:103670009827F701938382831682158214823ECFA6
:1036800080E090ECA3CFCF92DF92EF92FF920F9366
:103690001F93CF93DF9300D000D0CDB7DEB78C015E
:1036A0006B017A01FC01808D883008F42ADE82ECFF
:1036B00092E09A838983F60182819381A481B58106
:1036C0008B839C83AD83BE83B701CE010196FCDE64
:1036D000F801808F8830A0F4F586E486128E118E72
:1036E00081E026960FB6F894DEBF0FBECDBFDF9106
:1036F000CF911F910F91FF90EF90DF90CF900895A1
:1037000080E0EFCF7F928F929F92AF92BF92CF9245
:10371000DF92EF92FF920F931F93CF93DF931F924D
:103720001F92CDB7DEB7782E8B014A01590122E0F6
:1037300030E0AE014F5F5F4F64E270E0B5DEE980DC
:10374000FA80FE24EF24FE24E00EF11E970137706C
:103750004091EC04072D10E0433309F042C0085FAC
:103760001F4F102F0027110F110F110FC901800FCC
:10377000911F4733C9F1A9014A0D5B1D41305840E3
:1037800098F160E078E06B01C21AD30AA601B40197
:103790000E94FF0EA5014C195D09B4016C0D7D1D41
:1037A000C8010E94FF0EEA0CFB1CF982EA8222E0AB
:1037B00030E0AE014F5F5F4F64E270E0872D0E9402
:1037C000BF0F0F900F90DF91CF911F910F91FF903E
:1037D000EF90DF90CF90BF90AF909F908F907F90B1
:1037E0000895005F1F4FBDCFA501B401DACFEF925E
:1037F000FF921F93CF93DF931F921F92CDB7DEB737
:10380000182F22E030E0AE014F5F5F4F60E270E0C2
:103810004BDEE980FA80FE24EF24FE2422E030E033
:10382000AE014F5F5F4F60E270E0812F3DDE898126
:103830009A81982789279827E816F90689F487E05E
:10384000189FF0011124EC55FB4FF582E482C7016B
:103850000F900F90DF91CF911F91FF90EF900895FF
:103860007C01DCCF1F93CF93DF93182F80E591E08D
:103870000E940D0A812FBBDFEC01812F59DD8731BA
:1038800021F08C3111F0D0E0C0E0CE01DF91CF917A
:103890001F910895CF93DF93EC018C85883050F40D
:1038A0004ADD873111F08C3129F48C85DBDF8115FD
:1038B000984098F3DF91CF910895FC01848588307A
:1038C00008F4D0CF90E080E00895CF92DF92EF929D
:1038D000FF921F93CF93DF93182F7B01EA014130B2
:1038E000584010F0C0E0D8E080E591E00E940D0A59
:1038F000812F7DDF6C01812F1BDD873111F08C3131
:1039000001F5CC16DD0680F380E591E00E940D0AFA
:103910009E01A70170E060E0812FF4DE60E270E0BC
:10392000812FD5DC62E070E0812FC4DC84FD0CC007
:10393000812FFEDC8823B9F080E591E00E940D0A1A
:10394000F1CFD0E0C0E0E0CF40E162E070E0812F55
:103950000E94F90FCE01DF91CF911F91FF90EF9060
:10396000DF90CF900895D0E0C0E0F4CF0F931F9385
:10397000CF93DF938C01EA01FC018485883040F409
:10398000A4DF892B39F481E090E0F80193838283EE
:10399000D0E0C0E0CE01DF91CF911F910F9108954B
:1039A0000F931F93CF93DF93EC01FB01448155816B
:1039B00060817181DBDF8C01CE010E94FF13800FDB
:1039C000911FDF91CF911F910F9108959F92AF9218
:1039D000BF92CF92DF92EF92FF920F931F93CF93FC
:1039E000DF938C015B01942EE52EFC01C688D788FD
:1039F000F08C80E591E00E940D0A8F2DF8DEC92D34
:103A0000DE2D8C179D0708F4EC019E01A501B6017F
:103A10008F2D78DEF801868997898C0F9D1F978BF3
:103A2000868BCE01DF91CF911F910F91FF90EF9088
:103A3000DF90CF90BF90AF909F900895FF920F932B
:103A40001F93CF93DF931F921F92CDB7DEB7F82E4F
:103A500022E030E0AE014F5F5F4F66E270E024DDB0
:103A600009811A8110270127102722E030E0AE01DA
:103A70004F5F5F4F66E270E08F2D16DD89819A817E
:103A80009827892798270817190749F4C8010F9024
:103A90000F90DF91CF911F910F91FF9008958C01AE
:103AA000E4CF1F93CF93DF93182F87E0189FE00197
:103AB0001124CC55DB4F88819981009759F480E51A
:103AC00091E00E940D0A812FB9DF2E81821B91099E
:103AD00099838883DF91CF911F9108959F92AF9230
:103AE000BF92CF92DF92EF92FF920F931F93CF93EB
:103AF000DF93EC017B018091EC04811121C01B82DA
:103B00001A8288EE93E0A0E0B0E08C839D83AE83C0
:103B1000BF8383E592E09983888388E08C8788EE71
:103B200093E09E878D87CE01DF91CF911F910F91FA
:103B3000FF90EF90DF90CF90BF90AF909F9008954F
:103B400034E0932E833311F028E0922E8CEDC82EB2
:103B500084E0D82E10E098E0B92EA12CD6012D914A
:103B60003D916D01F701848195812817390779F41A
:103B7000812FE1DB082F873111F08C3129F5812F5E
:103B800090DF892B51F50C3111F4812FAFDB1F5FD2
:103B90009112E4CFA11008C0D701ED91FC910084EF
:103BA000F185E02DC70119951B821A8288EE93E0FA
:103BB000A0E0B0E08C839D83AE83BF8383E592E079
:103BC00099838883BC86ABCF843149F08111DFCFE4
:103BD000F601329711821082DACFB12ED8CFAA2403
:103BE000A394D5CF8F929F92AF92BF92CF92DF9244
:103BF000EF92FF920F931F93CF93DF93CDB7DEB772
:103C00002F970FB6F894DEBF0FBECDBF5C014B01FE
:103C10007A018091EC048823B1F104E0833309F048
:103C200008E0B501CE01019659DF8CEDC82E84E085
:103C3000D82E10E0F601219131916F01F5018481B8
:103C400095812817390741F4812F75DB873121F4DD
:103C5000A701B401812F39DE1F5F0113EBCFC7012C
:103C60002F960FB6F894DEBF0FBECDBFDF91CF9178
:103C70001F910F91FF90EF90DF90CF90BF90AF908A
:103C80009F908F900895F12CE12CE9CFFC01848561
:103C9000883008F406CF90E080E008954F925F925C
:103CA0007F928F929F92AF92BF92CF92DF92EF92CC
:103CB000FF920F931F93CF93DF931F921F92CDB765
:103CC000DEB7782E6B014A01A82EB12C27E0829F27
:103CD000C0011124FC01EC55FB4F7F0100811181D3
:103CE00080E591E00E940D0A081519054CF4872D16
:103CF000A5DEF70126818C01021B110911830083C7
:103D00000115110511F5872D13DB843159F0882336
:103D100049F001E010E08C3111F410E000E0119561
:103D200001951109C8010F900F90DF91CF911F915C
:103D30000F91FF90EF90DF90CF90BF90AF909F904A
:103D40008F907F905F904F900895801691060CF4AD
:103D5000840187E08A9DF0018B9DF00D1124EC55C4
:103D6000FB4FE280F380C114D10451F12701F7E049
:103D70005F22872D0E94B10F840D951D2091EC04C8
:103D8000273309F452C09801240D351D21303840E5
:103D900008F44BC020E038E0490184189508A401DC
:103DA000B6010E94BF162601480C591C6801C818AC
:103DB000D908872D0E94B10FA601B2010E94BF163B
:103DC000E00EF11E87E08A9DF0018B9DF00D11241D
:103DD000EC55FB4FF382E28220813181201B310BB5
:103DE000318320838681800F912F911D8A3F910519
:103DF00010F4232BE9F487E08A9DF0018B9DF00DF0
:103E00001124EC55FB4F1682F982EA8222E030E061
:103E1000AE014F5F5F4F68E270E0872D0E94BF0FD9
:103E200060E470E0872D53DA7DCFA801B601C6CFDC
:103E3000868378CFCF93DF93FC01218D328D2115BE
:103E4000310529F48FEF9FEFDF91CF910895EC01B9
:103E5000808D4217530708F0A90120DF18161906B4
:103E60008CF7298D3A8D281B390B3A8F298FECCF8F
:103E70000F931F93CF93DF931F92CDB7DEB7FC0153
:103E8000218D328D232B41F48FEF9FEF0F90DF9127
:103E9000CF911F910F9108958C0141E050E0BE0138
:103EA0006F5F7F4FFC01808DF9DE1816190664F7ED
:103EB000F801818D928D0197928F818F898190E099
:103EC000E5CFCF93DF931F92CDB7DEB741E050E04F
:103ED000BE016F5F7F4FFC018485E0DE1816190676
:103EE00034F4898190E00F90DF91CF9108958FEFA6
:103EF0009FEFF9CFCF92DF92EF92FF920F931F9334
:103F0000CF93DF93CDB7DEB7EE970FB6F894DEBF51
:103F10000FBECDBF61EC75E0CE014296DFDD8E8D28
:103F2000883008F00AC766ED72E0CE01C3960E94A1
:103F300091150E945F0C6093CD057093CE05809320
:103F4000CF059093D00560938D0470938E04809379
:103F50008F0490939004CE01429621DA882309F4CD
:103F6000DEC68091CD059091CE05A091CF05B09190
:103F7000D00540918D0450918E0460918F04709112
:103F80009004841B950BA60BB70B813D9740A105B0
:103F9000B10508F0C4C60E945F0C6093CD05709314
:103FA000CE058093CF059093D005CE0142966EDE6C
:103FB000892B89F2CE01429684DF182F89831A82D9
:103FC00041E050E0BE016F5F7F4F82E797E00E94C3
:103FD00066141A3009F0C2C78FA998AD892B09F071
:103FE000B5C76BED72E0CE0142960E9402146BEEF3
:103FF00072E0CE0142960E94021462E073E0CE01AC
:1040000042960E940214CE0142960E94FF1364E180
:1040100073E0CE0101960E949115CE0101960E9497
:1040200041138C01CE0101960E94E81517FD03C0D3
:1040300081E0809320026FE173E0CE0101960E943F
:104040009115CE0101960E9441138C01CE0101967B
:104050000E94E81517FF109220026BE273E0CE0178
:1040600001960E949115CE0101960E9441138C0188
:10407000CE0101960E94E81517FD08C080911E022E
:1040800090911F0290931D0280931C0266E373E0DF
:10409000CE0101960E949115CE0101960E94411316
:1040A0008C01CE0101960E94E81517FD03C08EE039
:1040B0000E94ED0C62E473E0CE0101960E9491151E
:1040C000CE0101960E9441138C01CE0101960E94FF
:1040D000E81517FD07C04EE060EC77E289E090E05C
:1040E0000E94940C6DE473E0CE0101960E9491153C
:1040F000CE0101960E9441138C01CE0101960E94CF
:10410000E81517FD03C08DE00E94ED0C69E573E032
:10411000CE0101960E949115CE0101960E94411395
:104120008C01CE0101960E94E81517FD07C04DE0F5
:1041300060EC77E289E090E00E94940C64E673E022
:10414000CE0101960E949115CE0101960E94411365
:104150008C01CE0101960E94E81517FD03C08CE08A
:104160000E94ED0C60E773E0CE0101960E9491156C
:10417000CE0101960E9441138C01CE0101960E944E
:10418000E81517FD07C04CE060E87FE482E190E0AD
:104190000E94940C6BE773E0CE0101960E9491158A
:1041A000CE0101960E9441138C01CE0101960E941E
:1041B000E81517FD03C081E080938C0466E873E086
:1041C000CE0101960E949115CE0101960E944113E5
:1041D0008C01CE0101960E94E81517FF10928C0405
:1041E00062E973E0CE0101960E949115CE0101961D
:1041F0000E9441138C01CE0101960E94E81517FD23
:1042000003C081E080931B026DE973E0CE0101964B
:104210000E949115CE0101960E9441138C01CE019E
:1042200001960E94E81517FF10921B0269EA73E0DD
:10423000CE0101960E949115CE0101960E94411374
:104240008C01CE0101960E94E81517FD03C089E09C
:104250000E94ED0C64EB73E0CE0101960E94911573
:10426000CE0101960E9441138C01CE0101960E945D
:10427000E81517FD07C049E060EC77E289E090E0BF
:104280000E94940C6EEB73E0CE0101960E94911592
:10429000CE0101960E9441138C01CE0101960E942D
:1042A000E81517FF10921A0269EC73E0CE0101962F
:1042B0000E949115CE0101960E9441138C01CE01FE
:1042C00001960E94E81517FD03C081E080931A0251
:1042D00063ED73E0CE0101960E949115CE01019627
:1042E0000E9441138C01CE0101960E94E81517FD32
:1042F00003C087E00E94ED0C6EED73E0CE010196E5
:104300000E949115CE0101960E9441138C01CE01AD
:1043100001960E94E81517FD07C047E060EC77E2C0
:1043200089E090E00E94940C68EE73E0CE01019663
:104330000E949115CE0101960E9441138C01CE017D
:1043400001960E94E81517FF1092190263EF73E0BF
:10435000CE0101960E949115CE0101960E94411353
:104360008C01CE0101960E94E81517FD03C081E083
:10437000809319026DEF73E0CE0101960E949115B2
:10438000CE0101960E9441138C01CE0101960E943C
:10439000E81517FD07C045E06CED75E080E090E0A2
:1043A0000E94940C67E074E0CE0101960E94911582
:1043B000CE0101960E9441138C01CE0101960E940C
:1043C000E81517FD07C044E06CED75E080E090E073
:1043D0000E94940C61E174E0CE0101960E94911557
:1043E000CE0101960E9441138C01CE0101960E94DC
:1043F000E81517FD07C043E06CED75E080E090E044
:104400000E94940C6BE174E0CE0101960E9491151C
:10441000CE0101960E9441138C01CE0101960E94AB
:10442000E81517FD03C081E08093180265E274E08F
:10443000CE0101960E949115CE0101960E94411372
:104440008C01CE0101960E94E81517FF1092180208
:1044500060E374E0CE0101960E949115CE010196B1
:104460000E9441138C01CE0101960E94E81517FDB0
:10447000B1C04FE050E06BE070E0CE0101960E94C9
:10448000A115CE0101960E9433147093FC05609330
:10449000FB05CE0101960E94E81542E150E060E183
:1044A00070E0CE0101960E94A115CE0101960E94F6
:1044B00033146093FD05CE0101960E94E81545E195
:1044C00050E063E170E0CE0101960E94A115CE019B
:1044D00001960E9433146093FE05CE0101960E945E
:1044E000E81548E150E066E170E0CE0101960E94D7
:1044F000A115CE0101960E94331460930006CE01EF
:1045000001960E94E8154BE150E069E170E0CE01B0
:1045100001960E94A115CE0101960E94331460936A
:104520000106CE0101960E94E81510922902109111
:10453000010610932A02F0900006F0922B02D09010
:10454000FE05D0922C020091FD0500932D02E09013
:10455000FB0580E3E80EE0922E020E948309813081
:1045600009F0ECC087E08093FF058CE390E0909326
:10457000F5058093F40585E39DEDA0E5B2E4809315
:10458000EC059093ED05A093EE05B093EF058AE658
:104590009AE5A6EAB1E48093F0059093F105A09323
:1045A000F205B093F30583E08093F60584E08093F1
:1045B000F7059AE09093F8058093F9058CE38093D2
:1045C000FA05CC24C3942D2D4F2D612F8091020626
:1045D0000E94E21261E67EE0CE0142960E94121431
:1045E00066E17EE0CE0142960E94121466EF7DE005
:1045F000CE0142960E94121462E97DE0CE014296FD
:104600000E9412146DE37DE0CE0142960E941214C6
:1046100066EF7CE0CE0142960E94121461EC7CE0D1
:10462000CE0142960E94121461E97CE0CE014296CE
:104630000E94121461E87CE0CE0142960E9412149E
:1046400060E77CE0CE0142960E9412146091FE0564
:10465000CE018D960E94F0156091FD05CE018796E2
:104660000E94F0158091FB059091FC051AA219A2F9
:104670001CA21BA21EA21DA24AE0BE016F5F7F4FBB
:104680000E949834BE016F5F7F4FCE0181960E94D9
:10469000E714BE016F5D7F4FCE0101960E94781531
:1046A0006CE374E0CE0101960E94A314BE01695D23
:1046B0007F4F0E94B7146CE374E00E94A314BE0104
:1046C000635D7F4F0E94B714BC01CE01C9960E9462
:1046D0007815CE0101960E94E815CE0181960E94C0
:1046E000E815CE0187960E94E815CE018D960E94AE
:1046F000E815BE01675C7F4FCE01429651D9CE01CD
:10470000C9960E94E8156EE67CE0CE0142960E94B2
:104710001214E091FF05E15069E774E0E73090F48E
:10472000F0E08827E956FC4D8F4F0C94C03AA02347
:10473000542757275A275D2760276327815013CFB7
:104740006EE374E0CE0101960E949115BE016F5F89
:104750007F4FCE01429624D9CE0101960E94E815E2
:1047600063E67CE0CE0142960E941214609102063C
:10477000CE018D960E94F01560910106CE018796BC
:104780000E94F01560910006CE0101960E94F0157E
:10479000BE016F5F7F4FCE0181960E94781569ED53
:1047A00072E0CE0181960E94A314BE01695D7F4F25
:1047B0000E94B71469ED72E00E94A314BE01635D0C
:1047C0007F4F0E94B714BC01CE01C9960E94781594
:1047D000CE0181960E94E815CE0101960E94E8154F
:1047E000CE0187960E94E815CE018D960E94E815AD
:1047F000BE01675C7F4FCE014296D2D8CE01C996EA
:104800000E94E8156CE57CE0CE0142960E941214ED
:1048100066E47CE0CE0142960E9412146091D105BC
:10482000CE0101960E94F014BE016F5F7F4FCE0152
:104830004296B6D8CE0101960E94E81564E47CE069
:10484000CE0142960E9412146091D205CE010196CB
:104850000E94F014BE016F5F7F4FCE014296A0D838
:10486000CE0101960E94E8156AE27CE0CE014296F4
:104870000E9412146091D305CE0101960E94F0149B
:10488000BE016F5F7F4FCE0142968AD8CE0101965E
:104890000E94E81568E27CE0CE0142960E94121464
:1048A0006091D405CE0101960E94F014BE016F5FA5
:1048B0007F4FCE01429674D8CE0101960E94E81532
:1048C0006CE07CE0CE0142960E94121460911E02C0
:1048D00070911F02CE0101960E944D15BE016F5FBF
:1048E0007F4FCE0142965CD8CE0101960E94E8151A
:1048F00065E07CE0CE0142960E94121467EE7BE0F8
:10490000CE0142960E94121460918B0470E0CE0199
:1049100001960E944D15BE016F5F7F4FCE014296FA
:104920003FD8CE0101960E94E81560EE7BE0CE01F3
:1049300042960E9412148091180268E97BE0882355
:1049400011F068E47BE0CE0142960E94121480913F
:10495000200262E07BE0882311F064EB7AE0CE0174
:1049600042960E9412146BE77AE0CE0142960E94B2
:10497000121460911C0270911D02CE0101960E94DA
:104980004D15BE016F5F7F4FCE01429609D8CE0113
:1049900001960E94E81569E67AE0CE0142960E94EF
:1049A000121485E00E946B0C63E27AE0882311F018
:1049B00060EE79E0CE0142960E94121484E00E94DB
:1049C0006B0C6BE979E0882311F067E579E0CE01A3
:1049D00042960E94121463E479E0CE0142960E944E
:1049E000121463E279E0CE0142960E9412144091C3
:1049F0008704509188046091890470918A04CE01E3
:104A000001960E941915BE016F5F7F4FCE0142963D
:104A10000E94D01CCE0101960E94E81567E179E062
:104A2000CE0142960E94121480911902882309F443
:104A30004DC264EE78E0CE0142960E94121440917D
:104A40008304509184046091850470918604CE01A2
:104A500001960E941915BE016F5F7F4FCE014296ED
:104A60000E94D01CCE0101960E94E8156EEC78E001
:104A7000CE0142960E94121487E00E946B0C6DE3F7
:104A800078E08823F1F06DE078E0CE0142960E9454
:104A9000121467E0CE0101960E942416BE016F5FDA
:104AA0007F4FCE0142960E94D01CCE0101960E94FB
:104AB000E8156FEF77E0CE0142960E94121460EC89
:104AC00077E0CE0142960E94121480911A02882348
:104AD00009F41CC26DE877E0CE0142960E941214E0
:104AE00040917F0450918004609181047091820410
:104AF000CE0101960E941915BE016F5F7F4FCE0156
:104B000042960E94D01CCE0101960E94E81567E7EC
:104B100077E0CE0142960E94121489E00E946B0C4D
:104B200066EE76E08823F1F066EB76E0CE01429601
:104B30000E94121469E0CE0101960E942416BE0163
:104B40006F5F7F4FCE0142960E94D01CCE0101962E
:104B50000E94E81568EA76E0CE0142960E9412149F
:104B600069E676E0CE0142960E9412146FE476E088
:104B7000CE0142960E94121466E1CE0101960E9477
:104B8000F014BE016F5F7F4FCE0142960E94D01C91
:104B9000CE0101960E94E81560E376E0CE014296D0
:104BA0000E94121462E1CE0101960E94F014BE012F
:104BB0006F5F7F4FCE0142960E94D01CCE010196BE
:104BC0000E94E81568E276E0CE0142960E94121437
:104BD00064E176E0CE0142960E94121480917E0438
:104BE00067ED75E0811102C068E975E0CE0142967B
:104BF0000E94121480911B026AE475E0811102C0C8
:104C000062E075E0CE0142960E94121480918C04FD
:104C100066EB74E0882311F066E474E0CE014296FE
:104C20000E9412148CE00E946B0C68E074E08823F0
:104C3000C1F06BEC73E0CE0142960E9412146CE05E
:104C4000CE0101960E942416BE016F5F7F4FCE01F8
:104C500042960E94D01CCE0101960E94E8156DEB91
:104C600073E0CE0142960E9412148DE00E946B0CFC
:104C70006FE773E08823C1F062E473E0CE014296EF
:104C80000E9412146DE0CE0101960E942416BE010E
:104C90006F5F7F4FCE0142960E94D01CCE010196DD
:104CA0000E94E81564E373E0CE0142960E9412145C
:104CB0008EE00E946B0C62EF72E08823C1F065EB1E
:104CC00072E0CE0142960E9412146EE0CE0101966F
:104CD0000E942416BE016F5F7F4FCE0142960E9454
:104CE000D01CCE0101960E94E81563EA72E0CE0165
:104CF00042960E94121467E572E0CE0142960E942D
:104D00001214CE0142960E94FF1368E472E0CE01B5
:104D100042960E941214CE0142960E94FF1366ED45
:104D200072E082E797E00E94E714CE0142960E946B
:104D3000F019CE01C3960E94E8158EE00E946B0C1C
:104D400060E0811101C061E089E10E94AC0B8DE05F
:104D50000E946B0C60E0811101C061E086E10E945D
:104D6000AC0B8CE00E946B0C60E0811101C061E033
:104D700087E10E94AC0B89E00E946B0C60E081111E
:104D800001C061E08CE10E94AC0B87E00E946B0CDB
:104D900060E0811101C061E08DE10E94AC0B85E013
:104DA0000E946B0C60E0811101C061E08BE10E9408
:104DB000AC0B84E00E946B0C60E0811101C061E0EB
:104DC0008AE10E94AC0B83E00E946B0C60E08111D1
:104DD00001C061E088E10E94AC0B80918B0460E02F
:104DE000811101C061E080E20E94AC0B80918C04D3
:104DF000813051F44CE060E87FE482E190E00E9471
:104E0000940C82E080938C048CE00E946B0C8111E6
:104E10000EC080918C04823051F44DE060EC77E25A
:104E200089E090E00E94940C83E080938C048DE0F4
:104E30000E946B0C81110DC080918C04833049F469
:104E40004EE060EC77E289E090E00E94940C1092D2
:104E50008C0480910206209100069091D1052913BF
:104E60008EC0209101069091D205291388C081112E
:104E700087C08091A004811185C081E08093A00447
:104E80004FE060E878EA82E191E00E94940C809122
:104E90001802882309F476C045E06CED75E080E0E7
:104EA00090E00E94940C6EC06BE474E04BCC62E521
:104EB00074E048CC68E574E045CC61E674E042CC2F
:104EC00068E674E03FCC6FE674E03CCC64E978E0DF
:104ED000CE0142960E9412144091830450918404A2
:104EE0006091850470918604CE0101960E94191587
:104EF000BE016F5F7F4FCE0142960E94D01CCE0153
:104F000001960E94E81560E878E0B2CD6DE377E0A5
:104F1000CE0142960E94121440917F045091800469
:104F20006091810470918204CE0101960E9419154E
:104F3000BE016F5F7F4FCE0142960E94D01CCE0112
:104F400001960E94E81569E277E0E3CD66ED72E034
:104F5000CE01C3960E94E7140C94AB1F1D3011F4D0
:104F60000C94AB1F19831A8241E050E0BE016F5FC1
:104F70007F4FCE01C3960E9466140C94AB1F811123
:104F80001092A00480910206209100069091D30512
:104F900029136FC1209101069091D405291369C18D
:104FA000811168C18091A104811166C181E0809363
:104FB000A10480911802882339F044E06CED75E07B
:104FC00080E090E00E94940C30910006209102064F
:104FD000343109F06FC1809101068F3009F06AC148
:104FE00021116BC18091A204811107C081E08093DF
:104FF000A20490911B02911163C18091D3053813D3
:1050000012C0409101068091D40590E005964817A2
:10501000190649F4211107C080918B04811103C046
:1050200081E080938B04323059F4809101068A30FC
:1050300039F4211105C080918B04811110928B04E9
:105040000E945F0C00910306109104062091050652
:1050500030910606601771078207930798F0D9010F
:10506000C80188519C4FAF4FBF4F80930306909368
:105070000406A0930506B0930606809102068F5F92
:1050800080930206809102068C3338F080910106ED
:105090008F5F8093010610920206809101068C3387
:1050A00038F0809100068F5F809300061092010611
:1050B00080910006883160F08091FF059091FE0597
:1050C0009F5F9093FE058F5F8093FF05109200060F
:1050D0008091FF05883018F081E08093FF05809172
:1050E000FD05823051F48091FE058D3131F483E06D
:1050F0008093FD0581E08093FE058091FD05982F4A
:105100009D7F943011F0993051F49091FE059F31BC
:1051100030F08F5F8093FD0581E08093FE058091E4
:10512000FD05982F9D7F913051F0853041F099EF2A
:10513000980F923020F08A3011F08C3051F4909119
:10514000FE05903230F08F5F8093FD0581E0809303
:10515000FE058091FD058D3060F08091FB059091FA
:10516000FC0521E02093FD0501969093FC058093BA
:10517000FB05E090FB0520E3E20EC12C0091FD054C
:105180002091FE0540910006609101068091020683
:105190000E94E2120E94C90D80E192E00E94290E55
:1051A00060938704709388048093890490938A04A1
:1051B00088E092E00E94290E60937F04709380043F
:1051C000809381049093820480E092E00E94290EF3
:1051D0006093830470938404809385049093860481
:1051E00080917B00877F80937B0080E480937C00AC
:1051F00080917A00806480937A0080917A0086FDA5
:10520000FCCF909178008091790089279827892791
:1052100090931F0280931E02E9ECFEE08491EFE67A
:10522000F0E10491E9E2F0E11491112379F08111A8
:105230000E94450BE12FF0E0EE0FFF1FEF50F04F03
:10524000A591B491EC91E02381E009F480E08170B4
:1052500080937E04EE960FB6F894DEBF0FBECDBFEE
:10526000DF91CF911F910F91FF90EF90DF90CF9042
:10527000089581111092A10420911E0230911F0205
:1052800080911C0290911D022817390709F09CCECD
:105290008FE00E946B0C811197CE809120028823B1
:1052A00009F492CE4FE060E87EEE86E390E00E9443
:1052B000940C7FCE222309F4A0CE1092A2049DCE9E
:1052C00090917E04911199CE80938C0496CEFC012E
:1052D0008485883010F40C944E1E90E080E0089590
:1052E0008F929F92AF92BF92CF92DF92EF92FF92F6
:1052F0000F931F93CF93DF9300D000D000D01F9265
:10530000CDB7DEB79091EC04911115C018E0812F54
:105310002A960FB6F894DEBF0FBECDBFDF91CF91B6
:105320001F910F91FF90EF90DF90CF90BF90AF90C3
:105330009F908F90089528E0F22E933311F494E01B
:10534000F92E6B01082F80E591E00E940D0A9E0165
:105350002F5F3F4F5901490110E0812F0E9498199A
:10536000F40181934F018823C1F01F5FF112F5CF43
:10537000F12CF50191915F019D3149F0983139F09F
:105380009A51923020F0F3941F11F3CFBFCF60E118
:1053900070E08F2D0E9467191F2DE12EF12CF7016F
:1053A000EE0FFF1FE452FB4F1182108283EE93E059
:1053B0000197F1F7402F70E060E0812F0E94F90F14
:1053C0004FEF62E070E0812F0E94F90FB601CD2807
:1053D00089F4809121029091220201968115F0ECCE
:1053E0009F0798F1909322028093210260912102FD
:1053F00070912202812F0E94E40F61E070E0812F02
:105400000E94671927E02E9DC0012F9D900D112449
:105410009C012C553B4F7901F9011182108222E049
:1054200030E0AE01475F5F4F68E270E0812F0E947D
:10543000541A89859A85982789279827F701938395
:10544000828316821582148262CF80E090ECCACFEC
:105450000F931F93CF93DF93EC018B01888D8830DE
:1054600010F40E948119B80182E03ADF888F8830F9
:1054700050F41D870C871A8E198E81E0DF91CF9131
:105480001F910F91089580E0F9CF0F931F93CF9351
:105490008C01FC016481758181E222DFC82F883094
:1054A000F8F480E591E00E940D0A8C2F0E94981973
:1054B000833131F08C2FCF911F910F910C9476197D
:1054C00062E070E08C2F0E946719F8018481958159
:1054D000EC2FF0E0EE0FFF1FE452FB4F918380832F
:1054E000CF911F910F910895CF92DF92EF92FF928B
:1054F0001F93CF93DF93EC017B016A018C85883089
:1055000048F40E949B19882319F08C850E94761913
:1055100088E08C87F70182819381A481B58100970F
:10552000A105B10551F490E080E0DF91CF911F918A
:10553000FF90EF90DF90CF9008958F3F9F4FAF4F38
:10554000BF4F89F370E060E081E2CADE182F8C87DC
:10555000883048F780E591E00E940D0AA7014E5F70
:105560005F4F24E030E06CE070E0812F0E94BF0FBD
:10557000B601812F0E94CF0F64E070E0812F0E945E
:1055800067190E945F0C6B017C018C850E949B193E
:10559000873111F18C3101F1882329F20E945F0CCF
:1055A000AB01BC014C195D096E097F098D859E8593
:1055B000B0E0A0E084179507A607B70738F061E0D0
:1055C00070E080E090E00E942F0CDFCF8C850E947D
:1055D000811988E08C87A7CF81E090E0A6CF0F9358
:1055E0001F93CF93DF931F921F92CDB7DEB7FC01BD
:1055F00024852830E0F48C0180E591E00E940D0ABA
:1056000022E030E0AE014F5F5F4F60E170E0F801F3
:1056100084850E94541A89819A819827892798271E
:105620000F900F90DF91CF911F910F91089590E00F
:1056300080E0F6CF0F931F93CF93DF931F921F92BB
:10564000CDB7DEB7FC0124852830E0F48C0180E57D
:1056500091E00E940D0A22E030E0AE014F5F5F4F03
:1056600064E070E0F80184850E94541A89819A816F
:105670009827892798270F900F90DF91CF911F913E
:105680000F91089590E080E0F6CF0F931F93CF9392
:10569000DF9300D000D01F921F92CDB7DEB78C01F0
:1056A000D80159964D915C915A974115510551F089
:1056B000ED91FC91048CF58DE02D70E060E0C80167
:1056C0001995EECFF801808D0E94511D892BB1F103
:1056D00048E050E0BE016F5F7F4FD80158968C9133
:1056E0000E944E1E18161906F4F4D801509684E054
:1056F000FE01319601900D928A95E1F78D8190E03F
:10570000982F88272E81820F911DF801958B848B0D
:105710008F81282F30E0322F22278885820F932F08
:10572000911D928F818F28960FB6F894DEBF0FBE21
:10573000CDBFDF91CF911F910F91089590E080E050
:10574000F2CF4F925F926F927F928F929F92AF9221
:10575000BF92CF92DF92EF92FF920F931F93CF935E
:10576000DF93CDB7DEB763970FB6F894DEBF0FBEF9
:10577000CDBF7C016B013A01FB0120E090E080E0AD
:105780006AE03191332309F460C040ED430F4A30A1
:1057900008F04CC0689FA001699F500D1124CA01F8
:1057A000C097830F911D37FD9A958F3F910549F35F
:1057B00040F3F70142815381648175818091B7057F
:1057C0009091B805A091B905B091BA05481759074D
:1057D0006A077B0709F40BC28701085F1F4F0E940D
:1057E0005F0C6F7077277C5FC80132DE813009F073
:1057F00003C282EC92E09A838983F70182819381CC
:10580000A481B5818B839C83AD83BE8345E350E047
:10581000BE016F5F7F4FC8010E947E10892BA9F5E2
:10582000D12CC12CC8010E948C1917C03E3209F03E
:10583000C0CF233009F4BDCFD301A20FB11D129602
:105840008C932F5F90E080E09CCF233009F0B1CFA4
:10585000F3018583CC24C394D12CC60163960FB683
:10586000F894DEBF0FBECDBFDF91CF911F910F9196
:10587000FF90EF90DF90CF90BF90AF909F908F9070
:105880007F906F905F904F9008950E945F0CF7019A
:105890007783668342E050E0B7016A5F7F4FC801BB
:1058A0000E94E61C81E090E09A83898342E050E008
:1058B000BE016F5F7F4FC8010E94E61C80E091E04F
:1058C0009A83898342E050E0BE016F5F7F4FC80139
:1058D0000E94E61C1A82198242E050E0BE016F5F0E
:1058E0007F4FC8010E94E61C42E050E0BE016F5F9E
:1058F0007F4FC8010E94E61C42E050E0BE016F5F8E
:105900007F4FC8010E94E61C5601F6018081882362
:1059100001F16501F60181912F01882311F08E328A
:10592000B1F446018A189B081814190474F48D8682
:1059300041E050E0BE01635F7F4FC8010E94E61C5A
:10594000A401B501C8010E94E61C5201DECF62012C
:10595000E1CF1D8641E050E0BE01635F7F4FC8018B
:105960000E94E61CC12CDD24D394DA82C98242E075
:1059700050E0BE016F5F7F4FC8010E94E61CDA82D3
:10598000C98242E050E0BE016F5F7F4FC8010E94B4
:10599000E61CC8010E94261A892B09F441CFF3E0C6
:1059A000AF2EB12C230122E0420E511CD4C0F701CE
:1059B0004281538164817581808D918DA28DB38DDB
:1059C000481759076A077B0709F007C1848D958D31
:1059D000C59709F002C181A192A15DEFC52EDD241A
:1059E000DA940C970CF4ADC04CE050E0BE016F5F50
:1059F0007F4FC8010E941A1F8B819C81982789279D
:105A000098279A8B898BF7014681578129813A81A2
:105A10004217530709F0E6C097FFE4C08F709270F9
:105A20003BEFC32EDD24DA94892B09F08AC06F8006
:105A300078847624672476242AEFC22EDD24DA9433
:105A40006114710409F47DC0D12CC12C8D819E811B
:105A5000982789279827C816D906F8F441E050E01E
:105A6000BE01635F7F4FC8010E941A1F4D8544230A
:105A700031F050E070E060E0C8010E941A1F8D858F
:105A80008111ECCF44E050E070E060E0C8010E947A
:105A90001A1FFFEFCF1ADF0AD9CF912C812C41E0DA
:105AA00050E0BE016D5E7F4FC8010E941A1F4B89F6
:105AB000842F807C09F06BC0442331F050E070E00B
:105AC00060E0C8010E941A1F8B898111E8CF42E073
:105AD00050E0BE01615F7F4FC8010E941A1F42E083
