:10000000D0C700000C940208FDC70000FBC7000029
:10001000F9C70000F7C70000F5C70000F3C70000EC
:10002000F1C70000EFC70000EDC70000EBC70000FC
:10003000E9C70000E7C70000E5C70000E3C700000C
:10004000E1C70000DFC70000DDC70000DBC700001C
:10005000D9C70000D7C70000D5C700000C94602E98
:10006000D1C700000C942A2E0C94002ECBC70000A0
:10007000C9C70000C7C70000C5C70000C3C700004C
:10008000C1C70000BFC70000BDC70000BBC700005C
:10009000B9C70000B7C70000B5C70000B3C700006C
:1000A000B1C70000AFC70000ADC70000ABC700007C
:1000B000A9C70000A7C70000A5C70000A3C700008C
:1000C000A1C700009FC700009DC700009BC700009C
:1000D00099C7000097C7000095C7000093C70000AC
:1000E00091C70000072C7AA5BA6CC590DA3B9365DE
:1000F000FC8BBC53F810FD3C5692834DBD879D3A56
:10010000B63DCBC9BF5BBE73DA0FC93F05A84CCD66
:10011000B2D44EB93836A9020C50B9918688083C41
:10012000A6AAAA2ABE000000803F0664EC1B3C047D
:10013000BC163E3BE5B93CC93C37C29E5A3D6604FD
:1001400098083EEA69AAAA3E000000803F000040ED
:100150007A10F35A00A0724E18090010A5D4E800D6
:1001600000E87648170000E40B54020000CA9A3BEE
:10017000000000E1F5050000809698000000404274
:100180000F000000A0860100000010270000000002
:10019000E803000000006400000000000A00000006
:1001A00000000100000000002C76D888DC674F08B2
:1001B00023DFC1DFAE59E1B1B796E5E3E453C63AB8
:1001C000E651997696E8E6C28426EB898C9B62ED2F
:1001D000407C6FFCEFBC9C9F40F2BAA56FA5F490E9
:1001E000055A2AF75C936B6CF9676DC11BFCE0E460
:1001F0000D47FEF520E6B500D0ED902E03009435B6
:1002000077050080841E080000204E0A000000C808
:100210000C333333330F986E12831141EF8D211459
:10022000893BE65516CFFEE6DB18D1844B381BF729
:100230007C1D901DA4BBE424203284725E228100C8
:10024000C9F124ECA1E53D273C2F626F64793E3C67
:100250002F68746D6C3E003C6120687265663D22BB
:100260002F6E6F7468696E67223E3C627574746F9E
:100270006E20636C6173733D22627574746F6E20BF
:10028000627574746F6E32223E5265667265736871
:10029000203C2F627574746F6E3E3C2F613E3C2F84
:1002A000703E003C2F627574746F6E3E3C2F613E51
:1002B0003C2F703E003C6120687265663D222F3104
:1002C000342F6F6666223E3C627574746F6E2063D5
:1002D0006C6173733D22627574746F6E2062757405
:1002E000746F6E32223E53746F70205A32207A61DE
:1002F00020003C6120687265663D222F31342F6FEB
:100300006E223E3C627574746F6E20636C61737311
:100310003D22627574746F6E223E53746172742054
:100320005A323C2F627574746F6E3E3C2F613E3CB6
:100330002F703E003C2F627574746F6E3E3C2F61CF
:100340003E003C6120687265663D222F31332F6F7D
:100350006666223E3C627574746F6E20636C6173D6
:10036000733D22627574746F6E20627574746F6E63
:1003700032223E53746F70205A31207A6120003C43
:100380006120687265663D222F31332F6F6E223EE9
:100390003C627574746F6E20636C6173733D22628E
:1003A0007574746F6E223E5374617274205A313CBE
:1003B0002F627574746F6E3E3C2F613E003C2F625D
:1003C0007574746F6E3E3C2F613E003C6120687214
:1003D00065663D222F31322F6F6666223E3C627584
:1003E00074746F6E20636C6173733D2262757474F4
:1003F0006F6E20627574746F6E32223E53746F702C
:10040000204C4B207A6120003C6120687265663D7B
:10041000222F31322F6F6E223E3C627574746F6EE4
:1004200020636C6173733D22627574746F6E223E3B
:100430005374617274204C4B3C2F627574746F6EF0
:100440003E3C2F613E003C6120687265663D222F74
:1004500031312F6F6666223E3C627574746F6E2078
:10046000636C6173733D22627574746F6E20627584
:1004700074746F6E32223E43796B6C20706F646CC3
:100480006577616E69652077207472616B63696559
:100490002C206E61647A69736E696A206279207AB1
:1004A0006174727A796D61633C2F627574746F6EDA
:1004B0003E3C2F613E003C6120687265663D222F04
:1004C00031312F6F6E223E3C627574746F6E206303
:1004D0006C6173733D22627574746F6E223E537447
:1004E0006172742063796B6C7520706F646C6577D2
:1004F000616E69613C2F627574746F6E3E3C2F6152
:100500003E003C703E3C6120687265663D222F31A2
:10051000302F6F6E223E3C627574746F6E20636C78
:100520006173733D22627574746F6E20223E506F4A
:10053000646C6577616E6965205265637A6E653CAF
:100540002F627574746F6E3E3C2F613E003C703EAE
:100550003C6120687265663D222F31302F6F6666E0
:10056000223E3C627574746F6E20636C6173733DE0
:1005700022627574746F6E20627574746F6E3222AD
:100580003E506F646C6577616E6965204175746F6C
:100590003C2F627574746F6E3E3C2F613E003C2FA1
:1005A00048353E003C2F48353E3C68353E437A6135
:1005B0007320706F646C6577616E6961205A323A9E
:1005C00020003C2F48353E3C68353E437A6173201D
:1005D000706F646C6577616E6961205A313A2000F2
:1005E0003C68353E437A617320706F646C65776157
:1005F0006E6961204C4B3A20003C48333E506F649A
:100600006C6577616E69653C2F48333E0020433C42
:100610002F48353E0020433C2F48353E3C48353E70
:1006200054656D7065726174757261206E6F636E72
:10063000613A20003C68353E54656D7065726174A6
:1006400075726120647A69656E6E613A20003C6162
:1006500020687265663D222F392F6F6666223E3C08
:10066000627574746F6E20636C6173733D22627582
:1006700074746F6E223E53544F50213C2F62757438
:10068000746F6E3E3C2F613E3C2F703E003C2F62EB
:100690007574746F6E3E3C2F613E003C6120687241
:1006A00065663D222F392F6F6E223E3C6275747451
:1006B0006F6E20636C6173733D22627574746F6E2C
:1006C00020627574746F6E32223E003C6120687245
:1006D00065663D222F392F6F6E223E3C6275747421
:1006E0006F6E20636C6173733D22627574746F6EFC
:1006F000223E3130206D696E2E204F6E3C2F627588
:1007000074746F6E3E3C2F613E3C2F703E00274359
:10071000206E6F633C2F627574746F6E3E3C2F6168
:100720003E003C703E3C6120687265663D222F3879
:100730002F6F6E223E3C627574746F6E20636C6125
:1007400073733D22627574746F6E20627574746F7A
:100750006E32223E5061727465722000274320641D
:100760007A69656E3C2F627574746F6E3E3C2F61C2
:100770003E003C703E3C6120687265663D222F3829
:100780002F6F6666223E3C627574746F6E20636CD8
:100790006173733D22627574746F6E223E50617294
:1007A00074657220003C6120687265663D222F37B7
:1007B0002F6F6666223E3C627574746F6E20636CA8
:1007C0006173733D22627574746F6E223E53544F91
:1007D00050213C2F627574746F6E3E3C2F613E3C1D
:1007E0002F703E003C2F627574746F6E3E3C2F611B
:1007F0003E003C6120687265663D222F372F6F6E88
:10080000223E3C627574746F6E20636C6173733D3D
:1008100022627574746F6E20627574746F6E32220A
:100820003E003C6120687265663D222F372F6F6E57
:10083000223E3C627574746F6E20636C6173733D0D
:1008400022627574746F6E223E3130206D696E2E97
:10085000204F6E3C2F627574746F6E3E3C2F613E6C
:100860003C2F703E002743206E6F633C2F627574EF
:10087000746F6E3E3C2F613E003C703E3C612068D0
:100880007265663D222F362F6F6E223E3C62757474
:10089000746F6E20636C6173733D22627574746F44
:1008A0006E20627574746F6E32223E506965747288
:1008B0006F2000274320647A69656E3C2F6275744F
:1008C000746F6E3E3C2F613E003C703E3C61206880
:1008D0007265663D222F362F6F6666223E3C62753A
:1008E00074746F6E20636C6173733D2262757474EF
:1008F0006F6E223E50696574726F200020433C2F5A
:10090000423E3C2F48353E003C68353E54656D7094
:1009100065726174757261207A65776E6574727A3A
:100920006E613A203C423E003C48333E4F67727A4B
:100930006577616E69653C2F48333E003C612068F5
:100940007265663D222F332F6F6E223E3C627574B6
:10095000746F6E20636C6173733D22627574746F83
:100960006E223E526F6C6574792073746F703C2FE9
:10097000627574746F6E3E3C2F613E3C2F703E007A
:100980003C6120687265663D222F342F6F6E223ED7
:100990003C627574746F6E20636C6173733D226288
:1009A0007574746F6E223E4F7075736320726F6C36
:1009B0006574793C2F627574746F6E3E3C2F613E96
:1009C0003C2F703E003C6120687265663D222F33EB
:1009D0002F6F6E223E3C627574746F6E20636C6183
:1009E00073733D22627574746F6E223E526F6C6534
:1009F00074792073746F703C2F627574746F6E3EDF
:100A00003C2F613E003C6120687265663D222F35B7
:100A10002F6F6E223E3C627574746F6E20636C6142
:100A200073733D22627574746F6E223E506F646EF4
:100A300069657320726F6C6574793C2F627574748C
:100A40006F6E3E3C2F613E003C703E3C6120687200
:100A500065663D222F322F6F6666223E3C627574BA
:100A6000746F6E20636C6173733D22627574746F72
:100A70006E20627574746F6E32223E526F6C6574B4
:100A800079206175746F3C2F627574746F6E3E3C93
:100A90002F613E003C703E3C6120687265663D22DD
:100AA0002F322F6F6E223E3C627574746F6E20631E
:100AB0006C6173733D22627574746F6E223E526F67
:100AC0006C657479207265637A6E69653C2F627516
:100AD00074746F6E3E3C2F613E003C2F62757474DF
:100AE0006F6E3E3C2F613E003C703E3C6120687260
:100AF00065663D222F31352F6F6666223E3C62755A
:100B000074746F6E20636C6173733D2262757474CC
:100B10006F6E20627574746F6E32223E526F6C6518
:100B20007479206175746F00203C2F68353E003A5F
:100B3000003C2F68353E3C68353E205A6163686F43
:100B40006420736C6F6E63613A20003A00203C6849
:100B5000353E20577363686F6420736C6F6E6361FA
:100B60003A2000203C2F68353E0020676F647A6988
:100B70006E613A200020003C68353E20447A69735B
:100B8000206A6573743A20003C48333E526F6C65AE
:100B900074793C2F48333E003C626F64793E3C4898
:100BA000313E486F6D6520436F6E74726F6C2044E8
:100BB0006F6D656B204F7A61726F772056302E30E3
:100BC00037413C2F48313E002E627574746F6E328F
:100BD000207B6261636B67726F756E642D636F6CEF
:100BE0006F723A20233737383738413B7D3C2F73BB
:100BF00074796C653E3C2F686561643E007465786D
:100C0000742D6465636F726174696F6E3A206E6FE4
:100C10006E653B20666F6E742D73697A653A20337A
:100C20003070783B206D617267696E3A203270785F
:100C30003B20637572736F723A20706F696E7465D2
:100C4000723B7D002E627574746F6E207B20626132
:100C5000636B67726F756E642D636F6C6F723A2091
:100C6000233139354236413B20626F726465723AF6
:100C7000206E6F6E653B20636F6C6F723A207768F1
:100C80006974653B2070616464696E673A2031362F
:100C9000707820343070783B003C7374796C653E1A
:100CA00068746D6C207B20666F6E742D66616D6953
:100CB0006C793A2048656C7665746963613B2064A1
:100CC0006973706C61793A20696E6C696E652D622A
:100CD0006C6F636B3B206D617267696E3A20307098
:100CE00078206175746F3B20746578742D616C6930
:100CF000676E3A2063656E7465723B7D003C6C697B
:100D00006E6B2072656C3D2269636F6E2220687283
:100D100065663D22646174613A2C223E003C686540
:100D200061643E3C6D657461206E616D653D227647
:100D3000696577706F72742220636F6E74656E746C
:100D40003D2277696474683D6465766963652D77D3
:100D5000696474682C20696E697469616C2D7363B1
:100D6000616C653D31223E003C21444F4354595053
:100D7000452068746D6C3E3C68746D6C3E000000EC
:100D80002100240027002A002D003000330001013B
:100D90000000040107010A010000220025002800CC
:100DA0002B002E0031003400020100000501080173
:100DB0000B0100000A0B02090C0D0E0807030401C9
:100DC0000000000000000000000000000000000023
:100DD00000000000000000000000000000001211F0
:100DE00010000000000000000000000000000000F3
:100DF0000000000000000000005EBCE2613FDD83F7
:100E0000C29C7E20A3FD1F419DC3217FFCA2401EEA
:100E10005F01E3BD3E6082DC237D9FC1421CFEA0DA
:100E2000E1BF5D0380DE3C62BEE0025CDF81633DCA
:100E30007C22C09E1D43A1FF4618FAA427799BC5BA
:100E400084DA3866E5BB5907DB856739BAE40658AA
:100E50001947A5FB7826C49A653BD987045AB8E69A
:100E6000A7F91B45C6987A24F8A6441A99C7257B8A
:100E70003A6486D85B05E7B98CD2306EEDB3510F7A
:100E80004E10F2AC2F7193CD114FADF3702ECC926A
:100E9000D38D6F31B2EC0E50AFF1134DCE90722C5A
:100EA0006D33D18F0C52B0EE326C8ED0530DEFB14A
:100EB000F0AE4C1291CF2D73CA947628ABF517493A
:100EC0000856B4EA6937D58B5709EBB536688AD42A
:100ED00095CB2977F4AA4816E9B7550B88D6346A1A
:100EE0002B7597C94A14F6A8742AC896154BA9F70A
:100EF000B6E80A54D7896B3500002000230026008D
:100F000029002C002F00320000010000030106011F
:100F1000090105050505070508080808020202027F
:100F20000A0A080804040404010101010101010185
:100F30000303030303030303040707070C0C0C0C50
:100F40000C0C0C0C02020202060606060606060639
:100F50000B0B0B0B0B0B0B0B0102102020080810C6
:100F60002040102040800201020108040201010219
:100F700004081020408080402010080402018004F2
:100F8000020180402010080402010804020101024D
:100F90000408102040800102040810204080AA2E7E
:100FA000E23211241FBECFEFD1E2DEBFCDBF00E0A1
:100FB0000CBF14E0A0E0B2E0E6EBF7E700E00BBF07
:100FC00002C007900D92A835B107D9F726E0A8E531
:100FD000B4E001C01D92A63AB207E1F717E0C0EDF8
:100FE000D7E000E006C021970109802FFE010E9492
:100FF0007039CF3CD10780E00807A9F70E9435304F
:101000000C94CA3B0C94000020912B0290912A0270
:101010009230C1F430E02053384FC90183709927D2
:10102000892B39F4C90164E670E00E945D39892B8F
:1010300089F4C90160E971E00E945D39892B51F0A2
:101040008CE10895983020F4917031F48EE1089588
:101050009095FACF8DE108958FE108958F929F9238
:10106000AF92BF92CF92DF92EF92FF92CF93DF9336
:10107000209127026B017C01C20ED11CE11CF11CE6
:10108000C701B6012CE330E040E050E00E94D636C4
:1010900049015A019601C601D7FE04C08827992745
:1010A0008C199D096CE370E00E945D3937FD78C0B2
:1010B00021E0022E000C330BDC010E947839645CC5
:1010C0007F4F8F4F9F4F2CE330E040E050E00E9475
:1010D000D6366093270280912802880E911CA11CAD
:1010E000B11CC501B40128E130E040E050E00E94AD
:1010F000D63669017A019401C40197FE04C088279D
:1011000099278819990968E170E00E945D3937FDD7
:1011100049C021E0022E000C330BDC010E9478391B
:10112000685E7F4F8F4F9F4F28E130E040E050E0F6
:101130000E94D6366093280280912902C80ED11CE5
:10114000E11CF11C61DF90E0B0E0A0E0C092290258
:101150008C159D05AE05BF0594F5C1E0D4E6C81A0F
:10116000D90AEA0AFB0A80912A028F5F8D30E0F4E7
:1011700080932A0249DF90E0B0E0A0E08C159D0545
:10118000AE05BF0564F3C0922902DF91CF91FF90B5
:10119000EF90DF90CF90BF90AF909F908F90089589
:1011A0002FEF87CF2FEFB6CFC0932A0280912B026B
:1011B0008B596D2F0E94443990932B02DBCF1C1466
:1011C0001D041E041F040CF3CCE0D4E680912A0217
:1011D000815089F080932A0217DF982F9C0D9093FD
:1011E0002902C80ED11CE11CF11C1C141D041E0494
:1011F0001F0464F7CACFC0932A0280912B028D5935
:101200006D2F0E94443990932B02E6CFE0912B0280
:10121000F0E080912A0220912902833088F1E05386
:10122000F84F3DE0839FC0011124039665E070E014
:101230000E945D39260F372F311D2E0F3F1FBF0132
:101240007595679575956795260F371FCF016CE9E2
:101250007FEF0E945D39260F371FCF0160E971E0F3
:101260000E945D39C901860F971F27E030E0B90160
:101270000E945D390196B9010E945D398F5F089522
:10128000845FE153F84FCDCFCF93DF93C0912A0213
:10129000D091CE05CD1740F18091D0058C1720F16B
:1012A000DC1710F4C817A0F1B1DF482F8091290294
:1012B0008F5F841B1816DCF467E00E9450398F5F43
:1012C000082E000C990BCD1314C02091CF0530E0EF
:1012D000821793074CF028173907D4F04230C4F432
:1012E000809128028230A0F4DF91CF91089580E0B0
:1012F000E7CF2091D10530E0821793074CF02817F3
:10130000390794F3423084F780912802823060F7E5
:101310006091D20570E090E080E0DF91CF919ECEA9
:101320008CBD9DBD0895FC01818D928D0895089519
:10133000AF92BF92CF92DF92EF92FF920F931F93E3
:10134000CF93DF936C017B018B01040F151FEB0121
:101350005E01AE18BF08C017D10759F06991D601D8
:10136000ED91FC910190F081E02DC6011995892B3A
:1013700079F7C501DF91CF911F910F91FF90EF9009
:10138000DF90CF90BF90AF900895FC01538D448DB6
:10139000252F30E0842F90E0821B930B541710F020
:1013A000CF96089501970895FC01918D828D98172D
:1013B00061F0A28DAE0FBF2FB11D5D968C91928D05
:1013C0009F5F9F73928F90E008958FEF9FEF089536
:1013D000FC01918D828D981731F0828DE80FF11DFF
:1013E000858D90E008958FEF9FEF0895FC01918D1A
:1013F000228D892F90E0805C9F4F821B91098F7313
:101400009927089586EC94E0F1DF21E0892B09F417
:1014100020E0822F0895FC01A48DA80FB92FB11DE3
:10142000A35ABF4F2C91848D90E001968F7399271A
:10143000848FA689B7892C93A089B1898C918370F8
:1014400080648C93938D848D981306C00288F389F1
:10145000E02D80818F7D80830895EF92FF920F931E
:101460001F93CF93DF93EC0181E0888F9B8D8C8D50
:1014700098131AC0E889F989808185FF15C09FB744
:10148000F894EE89FF896083E889F9898081837007
:10149000806480839FBF81E090E0DF91CF911F91B6
:1014A0000F91FF90EF900895F62E0B8D10E00F5FD7
:1014B0001F4F0F731127E02E8C8D8E110BC00FB6AE
:1014C00007FCFACFE889F989808185FFF5CFCE0145
:1014D000A2DFF2CFEB8DEC0FFD2FF11DE35AFF4F92
:1014E000F0829FB7F8940B8FEA89FB898081806234
:1014F000D0CFCF93DF93EC01888D8823B1F0AA89F8
:10150000BB89E889F9898C9185FD03C0808186FDBE
:101510000CC00FB607FCF7CF8C9185FFF2CF80810E
:1015200085FFEDCFCE0177DFEACFDF91CF91089530
:1015300080E090E0892B21F065DF81110E9400009E
:1015400080E090E0892B49F080E090E0892B29F041
:101550000E94000081110E94000080E090E0892B31
:1015600049F080E090E0892B29F00E940000811171
:101570000E94000080E090E0892B49F080E090E03C
:10158000892B29F00E94000081110C94000008951D
:10159000282F30E0F901EE54F24F9491F901E85A06
:1015A000F04F44912E5E304FF9012491222309F42B
:1015B00035C0992311F191509231F8F4E92FF0E000
:1015C0008827EA51F54F8F4F0C947039170B1B0B7E
:1015D000F80A0F0B130BFD0A1E0B240B280B2E0B06
:1015E000320B360B3C0B400BFD0A440B4A0B4E0BE7
:1015F000809180008F7780938000E22FF0E0EE0FE3
:10160000FF1FE856F24FA591B4918FB7F894EC9173
:10161000611148C040954E234C938FBF089580912F
:1016200080008F7DE8CF80918000877FE4CF84B5F4
:101630008F7784BDE2CF84B58F7DFBCF8091B000E2
:101640008F778093B000D9CF8091B0008F7DF9CF94
:10165000809190008F7780939000CFCF8091900001
:101660008F7DF9CF80919000877FF5CF8091A0008A
:101670008F778093A000C1CF8091A0008F7DF9CF9C
:101680008091A000877FF5CF809120018F77809394
:101690002001B3CF809120018F7DF9CF809120016F
:1016A000877FF5CF4E2BB8CFCF93DF9390E0FC012F
:1016B000E85AF04F24918E5E904FFC01849188236C
:1016C000D1F090E0880F991FFC01E258F24FA591EC
:1016D000B491FC01E856F24FC591D49161110EC04E
:1016E0009FB7F8948C91E22FE0958E238C932881FC
:1016F000E223E8839FBFDF91CF9108958FB7F894DD
:10170000EC91E22BEC938FBFF6CF3FB7F89480912A
:10171000730490917404A0917504B091760426B579
:10172000A89B05C02F3F19F00196A11DB11D3FBF19
:10173000BA2FA92F982F8827BC01CD01620F711DE8
:10174000811D911D42E0660F771F881F991F4A95E2
:10175000D1F708958F929F92AF92BF92CF92DF926E
:10176000EF92FF924B015C01D0DF6B017C01CDDF7A
:101770006C197D098E099F09683E734081059105AA
:10178000B0F321E0821A9108A108B10888EEC80ED2
:1017900083E0D81EE11CF11C81149104A104B10462
:1017A00031F7FF90EF90DF90CF90BF90AF909F9078
:1017B0008F9008952FB7F89460916F047091700422
:1017C00080917104909172042FBF08950F931F931D
:1017D000CF93DF93C82FD0E0EDDFFE01EE0FFF1FA8
:1017E000EE0FFF1FE95AF94F608371838283938361
:1017F000CC0FDD1FCC0FDD1FC55ED94F41E0088146
:1018000019812A813B81061717072807390708F431
:1018100040E0842FDF91CF911F910F9108958F9217
:101820009F92AF92BF92CF92DF92EF92FF920F936F
:101830001F93CF93DF936B017C01C42FD0E0BADFFD
:10184000FE01EE0FFF1FEE0FFF1FE95AF94F6083F5
:101850007183828393838E01000F111F000F111F6C
:10186000055E194FF80180809180A280B3806815D1
:1018700079058A059B0508F19DDFCC0FDD1FCC0F94
:10188000DD1FC152DA4F688379838A839B83C60E3A
:10189000D71EE81EF91EF801C082D182E282F382CF
:1018A000DF91CF911F910F91FF90EF90DF90CF903C
:1018B000BF90AF909F908F900895D501C4018C0D7B
:1018C0009D1DAE1DBF1D80839183A283B383E8CF8E
:1018D000CF93DF93C82FD0E06DDFFE01EE0FFF1F27
:1018E000EE0FFF1FE55EF94F608371838283938360
:1018F00061DFCC0FDD1FCC0FDD1FC152DA4F6883D3
:1019000079838A839B83DF91CF910895DC012C91A9
:101910001196ED91FC91F8948181822B81839281C3
:10192000322F30959323928387E090E00197F1F76F
:1019300081818323818383E290E00197F1F7908195
:101940007894EFECF0E03197F1F7922381E009F41D
:1019500080E00895FC0190810180F281E02D292F23
:10196000209560FF14C0F894828182238283818154
:10197000892B8183A3E2B0E01197F1F78281982B44
:101980009283789487ED90E00197F1F70895F894A9
:101990008281822382838181892B8183AFEFB0E0B2
:1019A0001197F1F78281982B928378948FE090E0E1
:1019B000EBCFDF92EF92FF920F931F93CF93DF93C2
:1019C000EC01D62EE42E08E010E0FF24F39461E051
:1019D0008D2D8F2109F460E0CE01BCDFFF0C01509A
:1019E0001109A9F7E11010C0F894E981FA819181F9
:1019F0008881809589238183E981FA819281888118
:101A00008095892382837894DF91CF911F910F91E4
:101A1000FF90EF90DF900895FC0190810180F281AA
:101A2000E02DF8948181292F209582238183789459
:101A30003DE743E050E0315029F1DA011197F1F729
:101A400080818923C1F3F8948281822382838181FA
:101A5000892B81837894ABE7B7E01197F1F7F8947D
:101A6000818182238183A3E1B1E01197F1F7808125
:101A7000982381E009F080E07894E3E6F6E031977E
:101A8000F1F7089580E00895CF93C091B005C1119A
:101A900004C0C0E08C2FCF9108958091AD05909146
:101AA000AE05BADF8823A9F340E06CEC8091AD0568
:101AB0009091AE057EDF4091B10581E0482764E456
:101AC0008091AD059091AE0574DF74DE6093B20530
:101AD0007093B3058093B4059093B505DBCFCF9297
:101AE000DF92FF920F931F93CF93DF936C01F62E3B
:101AF0008091AD059091AE058FDF882319F100919B
:101B0000AD051091AE0540E065E5C80152DFE60184
:101B100088E0C80ED11C699140E0C8014ADFCC15AD
:101B2000DD05C9F740E06F2D8091AD059091AE05C0
:101B300040DF81E0DF91CF911F910F91FF90DF9007
:101B4000CF90089580E0F6CF6F927F928F929F9210
:101B5000AF92BF92CF92DF92EF92FF920F931F93BB
:101B6000CF93DF93CDB7DEB76D970FB6F894DEBF96
:101B70000FBECDBF6EEBB3DF882309F480C0809029
:101B8000AD059090AE058E010F5E1F4F7E018AE17C
:101B9000E80EF11C680138E0632E712CB12CAA24E8
:101BA000A394C401B3DE8111BA28AA0CA1E06A1A79
:101BB0007108B9F7F601B1926F01EE15FF0559F7FB
:101BC00099E080E0915049F0D801ED918D01E8272E
:101BD000F0E0E850F24F8491F5CF998D98134FC003
:101BE00080E1E2E3F2E0DE01119601900D928A9528
:101BF000E1F78091420290914302A0914402B0919A
:101C000045028A8F9B8FAC8FBD8F0091AF05095025
:101C1000110BF701E00FF11F808169897A8902C0F9
:101C2000759567958A95E2F7072E000C880B990B3E
:101C30000E94C335000F111F000F111FE1E0F0E0FB
:101C4000EC0FFD1FE00FF11F208131814281538194
:101C50000E9422366D960FB6F894DEBF0FBECDBF40
:101C6000DF91CF911F910F91FF90EF90DF90CF9078
:101C7000BF90AF909F908F907F906F90089563E397
:101C800073E988E893ECE6CFFC0120812EBD9B012F
:101C90002150310941F051810DB407FEFDCF4EB501
:101CA0005EBD4193F5CF61507109860F971F0DB44A
:101CB00007FEFDCF2EB5FC0120830895E0916A0454
:101CC000F0916B04808190916904892B8083089541
:101CD000E0916A04F0916B04908180916904809591
:101CE0008923808308958EBD00000DB407FEFDCFCB
:101CF0008EB50895AF92BF92CF92DF92EF92FF928E
:101D00000F931F93CF93DF9300D000D01F921F92A9
:101D1000CDB7DEB78C017B016A018091C4048333A7
:101D2000B1F45801A40EB51EA016B10609F463C0A3
:101D3000CFDF80EFD8DF812FD6DF802FD4DF0F5F9A
:101D40001F4FF70181917F01CEDFB8DFEDCF5B013F
:101D5000A40EB51E8433A9F4BBDF19830A838D2D2D
:101D600080688B83CC8264E070E0CE0101968CDFCA
:101D7000AE14BF0409F43EC0F70181917F01B3DFC7
:101D8000F7CFA6DF0F3F110509F028F419820A8367
:101D900084E08B830CC017FD17C019820A8333E0DF
:101DA000169507953A95E1F7007E0C600B8386E067
:101DB000C816D10490F5F701DE011496EA15FB056B
:101DC00099F081918D93FACFC80126E09695879579
:101DD0002A95E1F7807E19830A830115104C10F4CF
:101DE0008461D7CF8C61D5CFB6016D5F7F4FCE01B7
:101DF00001964ADF63DFC60128960FB6F894DEBF6E
:101E00000FBECDBFDF91CF911F910F91FF90EF904B
:101E1000DF90CF90BF90AF90089563E070E0CE0167
:101E2000019632DFF70181917F015DDFAE14BF04BF
:101E3000C9F7E0CFCF93DF931F92CDB7DEB7898389
:101E400041E050E0BE016F5F7F4F90E080E052DFE5
:101E50000F90DF91CF91089590E02091C404233337
:101E600039F40C96982F990F990F990F80E00895E7
:101E70004896F8CFDA01E0916D04F0E0FE2FEE27EE
:101E8000E60FF71F90E0982F8827A901BD018E0F5C
:101E90009F1F30CFCF93DF931F921F92CDB7DEB736
:101EA00079836A8322E030E0AE014F5F5F4F60E1EB
:101EB00070E0E0DF0F900F90DF91CF910895CF9306
:101EC000DF931F921F92CDB7DEB779836A8322E03A
:101ED00030E0AE014F5F5F4F64E070E0CBDF0F900A
:101EE0000F90DF91CF910895CF93DF931F92CDB7DD
:101EF000DEB720916D0430E0322F2227260F371FE6
:101F000090E0982F8827498341E050E0BE016F5F41
:101F10007F4F820F931FEEDE0F90DF91CF910895D8
:101F2000CF93DF931F92CDB7DEB76983DC01ED91CC
:101F3000FC910280F381E02D41E050E0BE016F5F33
:101F40007F4F19950F90DF91CF910895CF93DF9335
:101F50001F92CDB7DEB76983DC01ED91FC91028061
:101F6000F381E02D41E050E0BE016F5F7F4F199596
:101F70000F90DF91CF910895FC019485FB0184853A
:101F8000981303C081E0983008F080E00895CF9363
:101F9000DF931F92CDB7DEB76983DC01ED91FC9131
:101FA0000280F381E02D41E050E0BE016F5F7F4F82
:101FB00019950F90DF91CF910895FC017687658781
:101FC0000895DC01ED91FC91068CF78DE02D1995BB
:101FD00091E089270895862F089581E08627089546
:101FE00021E0FC018485883008F020E0822F0895EC
:101FF0000895FF920F931F93CF93DF93EB01FC01A2
:10200000178A168A2A81211109C02B81211106C045
:102010002C81211103C02D812223E9F041155105A6
:10202000D1F08A01FC01F08C80E591E079D9AE0114
:102030004E5F5F4F24E030E06CE070E08F2D1ADFE0
:10204000B8018F2D27DF81E090E0DF91CF911F91C4
:102050000F91FF90089580E0F7CFFC01848595856E
:102060000895FC018489958908952FEB32E0FC01E5
:1020700031832083FB014089518962897389FC0186
:1020800042835383648375830895DC01ED91FC9151
:10209000048CF58DE02D1994089590E080E008956A
:1020A0004F925F926F927F928F929F92AF92BF9268
:1020B000CF92DF92EF92FF92CF93DF93CDB7DEB74F
:1020C00065970FB6F894DEBF0FBECDBF8D8B6091C4
:1020D0002A02FF24FA94F60E60912902EE24EA9473
:1020E000E60E21EE3EE245E652E46091C4057091B1
:1020F000C5058091C6059091C7050E9499374B018F
:102100005C012D89222309F4D3C182E189836F2DDB
:1021100070E090E080E00E94C33520E030E843EFBB
:1021200051E40E9422362B013C016E2D70E090E0BC
:1021300080E00E94C3359B01AC01C301B2010E9443
:1021400032376B017C012981622F70E090E080E0E2
:102150000E94C33520E030E040EC51E40E94993702
:102160009B01AC01C701B6010E94323722E43DEC6D
:102170004CE85CE30E9422366B017C010E9496379A
:102180006D837E838F839887C701B6010E94AF3825
:1021900069877A878B879C87A7019601C701B6015B
:1021A0000E9432372B013C010E9496376D877E8753
:1021B0008F87988BC301B2010E94AF38698B7A8BED
:1021C0008B8B9C8B20E030E040E450E4C701B601EB
:1021D0000E9422366B017C010E9496372B013C0144
:1021E000C701B6010E94AF3869837A838B839C83D1
:1021F00024E431EC4CEC5EE36D817E818F81988527
:102200000E9422369B01AC0164E670EB82EE9BE3F8
:102210000E9431376B017C0127EE32EE4FE85DE31F
:1022200069857A858B859C850E9422369B01AC014D
:10223000C701B6010E9432376B017C0126E332E709
:102240004DED5BE36D857E858F8598890E942236F2
:102250009B01AC01C701B6010E9431376B017C01C3
:102260002DEB33EC4DE65AE369897A898B899C8999
:102270000E9422369B01AC01C701B6010E94323791
:102280006B017C0127E230EC40E35BE3C301B20168
:102290000E9422369B01AC01C701B6010E94313772
:1022A0006B017C012FE83CEF41EC5AE369817A81B4
:1022B0008B819C810E9422369B01AC01C701B60133
:1022C0000E9432376B017C01C501B4010E94963730
:1022D0002B013C01C701B6010E94963769837A83BE
:1022E0008B839C83C501B4010E94F7384B015C01CC
:1022F000C701B6010E94F7386B017C0129813A8140
:102300004B815C81C301B2010E9422369B01AC016A
:1023100068E879E48EE69CEB0E9499372B013C013A
:10232000A7019601C501B4010E9422369B01AC01B0
:10233000C301B2010E9431376B017C019F7720E01D
:1023400030E040E85FE30E94AB3818160CF4B3C0ED
:10235000C701B6010E9423376B017C018D89811171
:1023600004C0F7FAF094F7F8F0946091C805709102
:10237000C9058091CA059091CB05905821EE3EE2A7
:1023800045E652E40E949937A70196010E94313731
:1023900020E030E040E850E40E94223621EE3EE2A8
:1023A00045E652E40E94223620E030E044E354E463
:1023B0000E9432376B017C012EEA37ED44EF5AE37D
:1023C0006D817E818F8198850E94223622E539E4D5
:1023D0004DE958E30E9432374B015C012CE233E6B1
:1023E00043E05DE369857A858B859C850E94223672
:1023F0009B01AC01C501B4010E9431374B015C0166
:1024000021EC33E74FE65CE36D857E858F85988907
:102410000E9422369B01AC01C501B4010E943137F4
:102420004B015C0128E431E547E25DE369897A8983
:102430008B899C890E9422369B01AC01C501B401A5
:102440000E94313724E13EE245E653E40E94223601
:102450009B01AC01C701B6010E9431370E940138CF
:102460002091CC053091CD05620F731F1092280288
:102470001092270210922602072E000C880B990B4F
:102480000E942E0881E065960FB6F894DEBF0FBE5D
:10249000CDBFDF91CF91FF90EF90DF90CF90BF90B5
:1024A000AF909F908F907F906F905F904F90089526
:1024B00026E029832CCE80E0E6CFCF92EF92FF92E8
:1024C0000F931F93CF93DF939091A90591110CC0A7
:1024D0009091AA05911108C09091AB05911104C08B
:1024E0009091AC05992341F0811104C0411102C0C3
:1024F000653011F0CC20C1F1F22EC42FD62F182F49
:102500008093260260932702409328022093290299
:1025100000932A02E0922B0281E0C2DD882351F071
:102520000E944409809128028093A9058091270286
:102530008093AA0510932602D0932702C093280205
:10254000F092290200932A02E0922B0280E0A8DD9B
:10255000882351F00E944409809128028093AB05A2
:10256000809127028093AC05DF91CF911F910F914D
:10257000FF90EF90CF900895CF93DF9320919A062C
:1025800030919B06232B89F0FC01C0919606D091D7
:10259000970660817181CE010E94B03B009729F0BF
:1025A0008C1B9D0BDF91CF9108958FEF9FEFFACF9A
:1025B000FB0101900020E9F73197AF01461B570B53
:1025C000DC01ED91FC910280F381E02D19948F9252
:1025D0009F92AF92BF92EF92FF920F931F93CF9370
:1025E000DF93CDB7DEB7A1970FB6F894DEBF0FBE6D
:1025F000CDBF7C01FA01CB0119A2223008F42AE0F8
:102600008E010F5D1F4F822E912CB12CA12CBF018A
:10261000A50194010E94F236F901CA016A3004F55D
:10262000605DD8016E938D01232B242B252B79F728
:1026300090E080E0109719F0BD01C701B9DFA196C5
:102640000FB6F894DEBF0FBECDBFDF91CF911F91C3
:102650000F91FF90EF90BF90AF909F908F90089553
:10266000695CDFCF8F929F92AF92BF92CF92DF9241
:10267000EF92FF920F931F93CF93DF937C01EB01B7
:102680006C0182E0C80ED11C4701E5E08E0E911C62
:1026900010E000E0F60141916F0150E070E060E071
:1026A0002AE0CE0194DF5C01E881F9810190F0819C
:1026B000E02D6EE2CE0119958A0D9B1D080F191FA2
:1026C000C814D90439F7F701458150E070E060E0A3
:1026D0002AE0CE017CDF800F911FDF91CF911F9107
:1026E0000F91FF90EF90DF90CF90BF90AF909F90B1
:1026F0008F90089561ED72E05BCF0F931F93CF939E
:10270000DF93EC0155DF8C01CE01F4DF800F911FC8
:10271000DF91CF911F910F910895EF92FF920F9348
:102720001F93CF93DF938C017B01D0E0C0E0F701D2
:10273000EC0FFD1F6491662331F0C80128DC892B62
:1027400011F02196F4CFC801D5DF8C0F9D1FDF91CA
:10275000CF911F910F91FF90EF900895FC01808120
:102760009181009711F00C94033360E070E0CB018D
:1027700008950F931F93CF93DF93EC018881998184
:10278000009759F02A813B812617370730F081E006
:10279000DF91CF911F910F9108958B016F5F7F4F54
:1027A0000E94BD3A009759F0998388831B830A835E
:1027B0002C813D81232B59F7FC011082E8CF80E06A
:1027C000E7CFEF92FF920F931F93CF93DF936115A3
:1027D000710541F480E0DF91CF911F910F91FF903F
:1027E000EF90089541155105A9F07B01EC010C8192
:1027F0001D81040F151FB801BCDF882359F3288100
:1028000039818C819D81B701820F931F0E94A93B62
:102810001D830C8381E0DFCFCF93DF93EC018881B0
:102820009981009711F00E94343A198218821D8212
:102830001C821B821A82DF91CF910895CF93DF9380
:10284000EC01FB0101900020E9F73197AF01461B35
:10285000570BB7DF811102C0CE01DEDFCE01DF9161
:10286000CF910895CF93DF93EC01FB014481558113
:1028700060817181A6DF811102C0CE01CDDFCE0162
:10288000DF91CF910895EF92FF920F931F93CF9313
:10289000DF93EC017B018A01BA016BDF81110AC071
:1028A000CE01BADFCE01DF91CF911F910F91FF9042
:1028B000EF9008951D830C83B701888199810E9450
:1028C000A93BF0CFFB0101900020E9F73197AF0160
:1028D000461B570BD8CF0F931F93CF93DF9300D096
:1028E00000D000D0CDB7DEB78C01862FF801118261
:1028F000108213821282158214824AE0BE016F5F39
:102900007F4F90E00E944833BE016F5F7F4FC80148
:10291000D9DF29960FB6F894DEBF0FBECDBFDF9189
:10292000CF911F910F9108950F931F93CF93DF9332
:10293000CDB7DEB762970FB6F894DEBF0FBECDBF3E
:102940008C01CB01F8011182108213821282158250
:1029500014824AE0BE016F5F7F4F0E942933BE019F
:102960006F5F7F4FC801AEDF62960FB6F894DEBF8F
:102970000FBECDBFDF91CF911F910F910895EF92C0
:10298000FF920F931F93CF93DF93CDB7DEB7A1973D
:102990000FB6F894DEBF0FBECDBF7C01CB01BA01EC
:1029A000F7011182108213821282158214828E0125
:1029B0000F5F1F4F22E044E00E94E632009781F053
:1029C000BC01C7017FDFA1960FB6F894DEBF0FBE32
:1029D000CDBFDF91CF911F910F91FF90EF900895A0
:1029E000C7011ADFF0CFFB01DC0111961C921E9289
:1029F00013961C921E92129715961C921E92149773
:102A00008617970741F0608171816115710519F092
:102A10004481558138CF0895FC01118210821382C0
:102A2000128215821482FB0101900020E9F7319790
:102A3000AF01461B570B27CFCF92DF92EF92FF9249
:102A40000F931F93CF93DF936C017B018A0146178D
:102A5000570720F48F2D7A01062F182F63ED72E0AF
:102A6000C601DADFC0919A06D0919B06EC16FD06EE
:102A7000F0F40C171D0708F4E801E0919606F091B8
:102A80009706EC0FFD1F10811082609196067091E1
:102A900097066E0D7F1DC6016115710591F012DF5D
:102AA0008091960690919706C80FD91F1883C6018A
:102AB000DF91CF911F910F91FF90EF90DF90CF901A
:102AC0000895AADEEDCFFC0180819181009711F07D
:102AD0000C94343A08950F931F93CF93DF93CDB79F
:102AE000DEB72C970FB6F894DEBF0FBECDBF8C01BA
:102AF0006A3068F0F0DEC8012C960FB6F894DEBF9D
:102B00000FBECDBFDF91CF911F910F910895CE01E0
:102B10000196E1DE64ED72E0CE0107967DDFBE0135
:102B20006F5F7F4FCE0107969DDEBC01C8015BDF62
:102B3000CE010796C8DFCE010196C5DFDCCF8F92AC
:102B40009F92AF92BF92CF92DF92EF92FF920F933C
:102B50001F93CF93DF93CDB7DEB768970FB6F89486
:102B6000DEBF0FBECDBF7C01062F10E00E94DA0B46
:102B7000F801EE0FFF1FEE0FFF1FE95AF94F6083B8
:102B8000718382839383000F111F000F111FF801BF
:102B9000E55EF94F0081118122813381580169017D
:102BA000A61AB70AC80AD90AC601B50128EE33E049
:102BB00040E050E00E94F23649010CE310E0C90108
:102BC000B8010E945D39AC01C401841B950BB801AA
:102BD0000E945D396B01CB01B8010E945D395C0137
:102BE000C81AD90A642FCE01019675DF6A2DCE016D
:102BF000079671DFC601B8010E945D39CE01439688
:102C00006ADFBE016D5E7F4FCE010D96ECDE66ED94
:102C100072E0CE010D9612DEBE01695F7F4F22DEAB
:102C200066ED72E00BDEBE016F5F7F4F1BDEBC0105
:102C3000C701D9DECE010D9646DFCE01439643DFB4
:102C4000CE01079640DFCE0101963DDFC7016896B1
:102C50000FB6F894DEBF0FBECDBFDF91CF911F91AD
:102C60000F91FF90EF90DF90CF90BF90AF909F902B
:102C70008F900895AF92BF92CF92DF92EF92FF9222
:102C80000F931F93CF93DF9300D01F92CDB7DEB782
:102C90008C016B017A018091C4048333C1F45B0120
:102CA0006801C40ED51EC016D10681F111D88FE07F
:102CB0001AD8812F18D8802F16D80F5F1F4F80E0A9
:102CC00012D8F50181935F010E945E0EECCF843330
:102CD00069F50E94680E19830A838F2D8F778B8385
:102CE000EC8264E070E0CE0101960E94440EA701E0
:102CF00070E060E0C6010E94A23BE114F10421F003
:102D0000B701C6010E94440E0E945E0EC7010F90DB
:102D10000F900F900F90DF91CF911F910F91FF9027
:102D2000EF90DF90CF90BF90AF9008950E94680E13
:102D30000F3F110509F030F419820A831B8263E00A
:102D400070E0D1CF17FD0BC019820A8333E01695CE
:102D500007953A95E1F7007E08600B83F0CFC80134
:102D600026E0969587952A95E1F7807E19830A8358
:102D70000115104C18F480618B83E1CF8861FCCF82
:102D80001F93CF93DF931F92CDB7DEB7182F80E547
:102D900091E00E949009812F5FD827E0129FF001F7
:102DA0001124E458FB4F22813381377041E050E019
:102DB000BE016F5F7F4F820F931F5CDF89810F9091
:102DC000DF91CF911F910895FC01808D883038F4F8
:102DD000218D328D232B19F0D3DF90E008958FEFF2
:102DE0009FEF0895CF93DF93FC012485283028F0CE
:102DF0008FEF9FEFDF91CF910895EC010190F0816B
:102E0000E02D0084F185E02D1995892B89F38C85BF
:102E1000B7DF90E0EFCFCF93DF931F92CDB7DEB750
:102E200041E050E0BE016F5F7F4F24DF89810F904A
:102E3000DF91CF91089590E080E0EDCFCF93DF93C5
:102E4000C4E1D0E0F8DF882361F061E070E080E069
:102E500090E00E94AA0B2197A9F780E0DF91CF9123
:102E6000089581E0FBCF1F93CF93DF931F921F92B2
:102E7000CDB7DEB760E372E080E090E00E94AA0B7D
:102E80001FB7F89480916C04811127C0E7E4FFE03C
:102E90008491EDE8FFE09491E82FF0E0EE0FFF1F42
:102EA000E258F24FA591B491EC91E92321F461E04D
:102EB00085E30E94C80A61E085E30E94540B8CB54B
:102EC00080618CBD8CB580648CBD61E084E30E9420
:102ED000540B61E083E30E94540B80916C048F5F7C
:102EE00080936C041FBFECE1FFE0E491F0E0EE0F93
:102EF000FF1FE856F24F8591949190936B04809355
:102F00006A04E2E6FFE0E491E093690461E08AE0AC
:102F10000E94540B0E945E0E80E591E00E94900991
:102F200084E38093C40480E80E941A0F87DF88231B
:102F300071F188E00E941A0F7EDF883041F580E150
:102F40000E941A0F78DF803111F580E00E941A0F7D
:102F500072DF182F81111BC08FE190E05CDF83309E
:102F6000B1F480E480936D0442E06EE170E0812F63
:102F70000E94740F42E06FE170E0812F0E94740F95
:102F80001F5F183089F781E08093C5045BC087E339
:102F90008093C40480E80E941A0F50DF8823D9F080
:102FA00088E00E941A0F47DF8830A9F480E10E9470
:102FB0001A0F41DF182F803171F480E00E941A0F40
:102FC0003ADF811108C089E390E025DF843019F4ED
:102FD00010936D04D8CF83E38093C40480E80E94EB
:102FE0001A0F2CDF882359F180E10E941A0F23DF8A
:102FF000803129F582E10E941A0F1DDF8231F9F438
:1030000080E00E941A0F17DF811119C084E08093BD
:103010006D0415E51A8341E050E0BE016E5F7F4FFD
:103020008BE190E00E947A0E198341E050E0BE01EE
:103030006F5F7F4F8AE190E00E947A0EA4CF1092DA
:10304000C40480E00F900F90DF91CF911F910895FD
:10305000CF92DF92EF92FF92CF93DF93CDB7DEB79F
:10306000C254D1090FB6F894DEBF0FBECDBFFC012C
:10307000428153816481758123964CAF5DAF6EAF01
:103080007FAF239781E023968FAF23972396CCAC15
:10309000DDACEEACFFAC2397CBAADCAAEDAAFEAA6E
:1030A0004DA75EA76FA778AB88ABCDA4DEA4EFA435
:1030B000F8A8CFA2D8A6E9A6FAA68EABCBA8DCA822
:1030C000EDA8FEA8C9A2DAA2EBA2FCA22FEB32E087
:1030D0003C8B2B8B9FEF9D8B9E8B9F8B188E3E87FF
:1030E0002D878AA7CFA0D8A4E9A4FAA4CF86D88A2E
:1030F000E98AFA8A8CA389A19AA1ABA1BCA189878C
:103100009A87AB87BC873A8329834B835C836D8323
:103110007E838091C504882309F443C080E591E053
:103120000E94900946E050E060E272E089E090E0A1
:103130000E947A0E44E050E0BE016D5F7F4F8FE049
:1031400090E00E947A0E44E050E0BE01615F7F4F44
:1031500081E090E00E947A0E44E050E0BE016B5E98
:103160007F4F85E090E00E947A0E81E08C87898510
:103170009A85AB85BC858093830590938405A09345
:103180008505B0938605CE5BDF4F0FB6F894DEBFA2
:103190000FBECDBFDF91CF91FF90EF90DF90CF902A
:1031A000089561DE882379F3B9CF20916D0430E072
:1031B000322F2227620F731F90E0982F8827860FE7
:1031C000971F29CECF93C82F462F61E070E00E9451
:1031D000740F61E070E08C2FE8DF8111FACFCF919E
:1031E0000895CF93C82F80E591E00E94900968E090
:1031F00070E08C2FCF91E6CFCF93C82F80E591E080
:103200000E94900960E170E08C2FCF91DBCFCF93CB
:10321000DF93EC01888D883018F4EEDF88E0888F2A
:10322000DF91CF91089563E070E0BFCFCF93C82FB7
:1032300080E591E00E9490098C2FCF91F4CFEF921E
:10324000FF920F931F93CF93DF937C018091C4046F
:10325000D4E0833309F0D8E004EB14E0C0E0F801D7
:10326000219131918F01F7018481958128173907C8
:1032700029F0CF5FDC13F3CF80E005C08C2FD6DFC1
:103280008431B9F781E0DF91CF911F910F91FF90C9
:10329000EF900895CF93DF93EC018C858830C8F4CC
:1032A000C5DF843189F0882379F0883169F021E025
:1032B0008C3159F4E881F9810084F185E02DCE014B
:1032C000199521E0892B09F420E0822FDF91CF911D
:1032D000089580E0FBCFCF92DF92EF92FF92CF93E1
:1032E000DF93EC018C85883058F47BDF0E94DA0B89
:1032F0006B017C018C859ADF811109C088E08C8785
:10330000DF91CF91FF90EF90DF90CF90089561E033
:1033100070E080E090E00E94AA0B0E94DA0BAB0103
:10332000BC014C195D096E097F098D859E85B0E051
:10333000A0E0481759076A077B07E0F28C855CDF3D
:10334000DDCFCF93FC01C08D80E591E00E94900914
:1033500060E270E08C2F36DF62E070E08C2F25DFBA
:1033600084FD15C062E070E08C2F1FDF83FF0AC070
:1033700048E162E070E08C2F0E94740F80E090E0E2
:10338000CF91089580E591E00E949009E5CF40E15A
:1033900062E070E08C2F0E94740F81E0F0CFDA01C0
:1033A000E0916D04F0E0FE2FEE27E60FF71F90E0AE
:1033B000982F8827A901BD018E0F9F1F5BCC8F928C
:1033C0009F92AF92BF92CF92DF92EF92FF920F93B4
:1033D0001F93CF93DF93CDB7DEB760970FB6F89406
:1033E000DEBF0FBECDBF7C019091C404911115C00A
:1033F00018E0812F60960FB6F894DEBF0FBECDBFE8
:10340000DF91CF911F910F91FF90EF90DF90CF90C0
:10341000BF90AF909F908F90089508E0933309F488
:1034200004E06B0180E591E00E9490099E012F5F0E
:103430003F4F5901490110E0812FF5DEF4018193DE
:103440004F018823B9F01F5F0113F6CF00E0F501AB
:1034500081915F018D3149F0883139F08A51823094
:1034600020F00F5F1013F3CFC3CF60E170E0802F27
:10347000A9DE102FA12EB12CF501EE0FFF1FEC5489
:10348000FB4F1182108283EE93E00197F1F742E83F
:1034900070E060E0812F0E94740F4FEF62E070E0F7
:1034A000812F0E94740FB601C114D10491F4809150
:1034B0001E0290911F0201968115F0EC9F0708F4FF
:1034C0005AC090931F0280931E0260911E02709159
:1034D0001F02812F0E945F0F86E0E6E4F2E0DE012A
:1034E000199601900D928A95E1F7F70183818F7704
:1034F0008C8784818D8785818E87A7014E5F5F4F82
:1035000024E030E06CE070E0812F0E943A0FB601B9
:10351000812F0E944A0F26E030E0AE01475F5F4FE7
:1035200066E070E0812F0E943A0F61E070E0812F29
:1035300049DE27E02A9DC0012B9D900D11249C019E
:1035400024583B4F7901F9011182108222E030E0CA
:10355000AE01415F5F4F68E270E0812F20DF8F8511
:103560009889982789279827F70193838283168261
:10357000158214823ECF80E090ECA3CFCF92DF92F1
:10358000EF92FF920F931F93CF93DF9300D000D061
:10359000CDB7DEB78C016B017A01FC01808D8830DC
:1035A00008F42ADE8FEB92E09A838983F601828108
:1035B0009381A481B5818B839C83AD83BE83B70146
:1035C000CE010196FCDEF801808F8830A0F4F586EC
:1035D000E486128E118E81E026960FB6F894DEBF37
:1035E0000FBECDBFDF91CF911F910F91FF90EF9054
:1035F000DF90CF90089580E0EFCF7F928F929F92DF
:10360000AF92BF92CF92DF92EF92FF920F931F93F0
:10361000CF93DF931F921F92CDB7DEB7782E8B0129
:103620004A01590122E030E0AE014F5F5F4F64E292
:1036300070E0B5DEE980FA80FE24EF24FE24E00E7F
:10364000F11E970137704091C404072D10E04333F9
:1036500009F042C0085F1F4F102F0027110F110FF4
:10366000110FC901800F911F4733C9F1A9014A0DFC
:103670005B1D4130584098F160E078E06B01C21A60
:10368000D30AA601B4010E947A0EA5014C195D0966
:10369000B4016C0D7D1DC8010E947A0EEA0CFB1C62
:1036A000F982EA8222E030E0AE014F5F5F4F64E2D0
:1036B00070E0872D0E943A0F0F900F90DF91CF910D
:1036C0001F910F91FF90EF90DF90CF90BF90AF9040
:1036D0009F908F907F900895005F1F4FBDCFA501F1
:1036E000B401DACFEF92FF921F93CF93DF931F9233
:1036F0001F92CDB7DEB7182F22E030E0AE014F5F4A
:103700005F4F60E270E04BDEE980FA80FE24EF2438
:10371000FE2422E030E0AE014F5F5F4F60E270E0D8
:10372000812F3DDE89819A81982789279827E8167D
:10373000F90689F487E0189FF0011124E458FB4F43
:10374000F582E482C7010F900F90DF91CF911F9116
:10375000FF90EF9008957C01DCCF1F93CF93DF9310
:10376000182F80E591E00E949009812FBBDFEC01CA
:10377000812F59DD873121F08C3111F0D0E0C0E08C
:10378000CE01DF91CF911F910895CF93DF93EC018C
:103790008C85883050F44ADD873111F08C3129F462
:1037A0008C85DBDF8115984098F3DF91CF910895E8
:1037B000FC018485883008F4D0CF90E080E0089543
:1037C000CF92DF92EF92FF921F93CF93DF93182F48
:1037D0007B01EA014130584010F0C0E0D8E080E5BC
:1037E00091E00E949009812F7DDF6C01812F1BDD0C
:1037F000873111F08C3101F5CC16DD0680F380E5C0
:1038000091E00E9490099E01A70170E060E0812F85
:10381000F4DE60E270E0812FD5DC62E070E0812FA1
:10382000C4DC84FD0CC0812FFEDC8823B9F080E568
:1038300091E00E949009F1CFD0E0C0E0E0CF40E1FC
:1038400062E070E0812F0E94740FCE01DF91CF9172
:103850001F91FF90EF90DF90CF900895D0E0C0E0EF
:10386000F4CF0F931F93CF93DF938C01EA01FC01F8
:103870008485883040F4A4DF892B39F481E090E01E
:10388000F80193838283D0E0C0E0CE01DF91CF9135
:103890001F910F9108950F931F93CF93DF93EC0126
:1038A000FB014481558160817181DBDF8C01CE0198
:1038B0000E947A13800F911FDF91CF911F910F917A
:1038C00008959F92AF92BF92CF92DF92EF92FF92B4
:1038D0000F931F93CF93DF938C015B01942EE52E02
:1038E000FC01C688D788F08C80E591E00E949009A1
:1038F0008F2DF8DEC92DDE2D8C179D0708F4EC0105
:103900009E01A501B6018F2D78DEF8018689978981
:103910008C0F9D1F978B868BCE01DF91CF911F91CE
:103920000F91FF90EF90DF90CF90BF90AF909F905E
:103930000895FF920F931F93CF93DF931F921F92CF
:10394000CDB7DEB7F82E22E030E0AE014F5F5F4F1B
:1039500066E270E024DD09811A8110270127102713
:1039600022E030E0AE014F5F5F4F66E270E08F2DE6
:1039700016DD89819A8198278927982708171907C2
:1039800049F4C8010F900F90DF91CF911F910F91D3
:10399000FF9008958C01E4CF1F93CF93DF93182FEE
:1039A00087E0189FE0011124C458DB4F888199817A
:1039B000009759F480E591E00E949009812FB9DFCA
:1039C0002E81821B910999838883DF91CF911F916A
:1039D00008959F92AF92BF92CF92DF92EF92FF92A3
:1039E0000F931F93CF93DF93EC017B018091C4046D
:1039F000811121C01B821A8288EE93E0A0E0B0E022
:103A00008C839D83AE83BF8380E592E09983888316
:103A100088E08C8788EE93E09E878D87CE01DF91CA
:103A2000CF911F910F91FF90EF90DF90CF90BF90BB
:103A3000AF909F90089534E0932E833311F028E0E7
:103A4000922E84EBC82E84E0D82E10E098E0B92E98
:103A5000A12CD6012D913D916D01F70184819581B5
:103A60002817390779F4812FE1DB082F873111F00E
:103A70008C3129F5812F90DF892B51F50C3111F410
:103A8000812FAFDB1F5F9112E4CFA11008C0D701D7
:103A9000ED91FC910084F185E02DC70119951B8201
:103AA0001A8288EE93E0A0E0B0E08C839D83AE8321
:103AB000BF8380E592E099838883BC86ABCF843155
:103AC00049F08111DFCFF601329711821082DACFEF
:103AD000B12ED8CFAA24A394D5CF8F929F92AF9224
:103AE000BF92CF92DF92EF92FF920F931F93CF93EB
:103AF000DF93CDB7DEB72F970FB6F894DEBF0FBEBA
:103B0000CDBF5C014B017A018091C4048823B1F1DF
:103B100004E0833309F008E0B501CE01019659DFD6
:103B200084EBC82E84E0D82E10E0F601219131916B
:103B30006F01F501848195812817390741F4812FA0
:103B400075DB873121F4A701B401812F39DE1F5FB6
:103B50000113EBCFC7012F960FB6F894DEBF0FBE4F
:103B6000CDBFDF91CF911F910F91FF90EF90DF902C
:103B7000CF90BF90AF909F908F900895F12CE12C43
:103B8000E9CFFC018485883008F406CF90E080E01E
:103B900008954F925F927F928F929F92AF92BF92C1
:103BA000CF92DF92EF92FF920F931F93CF93DF9309
:103BB0001F921F92CDB7DEB7782E6B014A01A82E57
:103BC000B12C27E0829FC0011124FC01E458FB4F77
:103BD0007F010081118180E591E00E949009081524
:103BE00019054CF4872DA5DEF70126818C01021BF7
:103BF0001109118300830115110511F5872D13DBC0
:103C0000843159F0882349F001E010E08C3111F43F
:103C100010E000E0119501951109C8010F900F9077
:103C2000DF91CF911F910F91FF90EF90DF90CF9098
:103C3000BF90AF909F908F907F905F904F9008952E
:103C4000801691060CF4840187E08A9DF0018B9D1B
:103C5000F00D1124E458FB4FE280F380C114D1042D
:103C600051F12701F7E05F22872D0E942C0F840D70
:103C7000951D2091C404273309F452C09801240DE6
:103C8000351D2130384008F44BC020E038E04901B0
:103C900084189508A401B6010E943A162601480C22
:103CA000591C6801C818D908872D0E942C0FA6013D
:103CB000B2010E943A16E00EF11E87E08A9DF001E3
:103CC0008B9DF00D1124E458FB4FF382E28220819A
:103CD0003181201B310B318320838681800F912F0E
:103CE000911D8A3F910510F4232BE9F487E08A9D0A
:103CF000F0018B9DF00D1124E458FB4F1682F982E0
:103D0000EA8222E030E0AE014F5F5F4F68E270E090
:103D1000872D0E943A0F60E470E0872D53DA7DCF43
:103D2000A801B601C6CF868378CFCF93DF93FC017D
:103D3000218D328D2115310529F48FEF9FEFDF9111
:103D4000CF910895EC01808D4217530708F0A90127
:103D500020DF181619068CF7298D3A8D281B390B90
:103D60003A8F298FECCF0F931F93CF93DF931F923E
:103D7000CDB7DEB7FC01218D328D232B41F48FEFBF
:103D80009FEF0F90DF91CF911F910F9108958C01BC
:103D900041E050E0BE016F5F7F4FFC01808DF9DE96
:103DA0001816190664F7F801818D928D0197928F8C
:103DB000818F898190E0E5CFCF93DF931F92CDB7BC
:103DC000DEB741E050E0BE016F5F7F4FFC018485AC
:103DD000E0DE1816190634F4898190E00F90DF9127
:103DE000CF9108958FEF9FEFF9CFCF92DF92EF92AF
:103DF000FF920F931F93CF93DF93CDB7DEB7EE976C
:103E00000FB6F894DEBF0FBECDBF69E975E0CE01F5
:103E10004296DFDD8E8D883008F0C7C663ED72E014
:103E2000CE01C3960E940C150E94DA0B6093A50583
:103E30007093A6058093A7059093A80560936504E9
:103E4000709366048093670490936804CE01429651
:103E500021DA882309F49BC68091A5059091A605D7
:103E6000A091A705B091A805409165045091660402
:103E70006091670470916804841B950BA60BB70BC7
:103E8000813D9740A105B10508F081C60E94DA0B7B
:103E90006093A5057093A6058093A7059093A80548
:103EA000CE0142966EDE892B89F2CE01429684DFE6
:103EB000182F89831A8241E050E0BE016F5F7F4F67
:103EC00086E996E00E94E1131A3009F06EC78FA9C7
:103ED00098AD892B09F062C768ED72E0CE01429679
:103EE0000E947D1368EE72E0CE0142960E947D131F
:103EF0006FEF72E0CE0142960E947D13CE01429692
:103F00000E947A1361E173E0CE0101960E940C15C4
:103F1000CE0101960E94BC128C01CE0101960E9436
:103F2000631517FD03C08EE00E94680C6DE173E01D
:103F3000CE0101960E940C15CE0101960E94BC1282
:103F40008C01CE0101960E94631517FD07C04EE05B
:103F500060EC77E289E090E00E940F0C68E273E089
:103F6000CE0101960E940C15CE0101960E94BC1252
:103F70008C01CE0101960E94631517FD03C08DE0F0
:103F80000E94680C64E373E0CE0101960E940C1558
:103F9000CE0101960E94BC128C01CE0101960E94B6
:103FA000631517FD07C04DE060EC77E289E090E013
:103FB0000E940F0C6FE373E0CE0101960E940C1576
:103FC000CE0101960E94BC128C01CE0101960E9486
:103FD000631517FD03C08CE00E94680C6BE473E06E
:103FE000CE0101960E940C15CE0101960E94BC12D2
:103FF0008C01CE0101960E94631517FD07C04CE0AD
:1040000060E87FE482E190E00E940F0C66E573E0D7
:10401000CE0101960E940C15CE0101960E94BC12A1
:104020008C01CE0101960E94631517FD03C081E04B
:104030008093640461E673E0CE0101960E940C1542
:10404000CE0101960E94BC128C01CE0101960E9405
:10405000631517FF109264046DE673E0CE010196BC
:104060000E940C15CE0101960E94BC128C01CE015B
:1040700001960E94631517FD03C081E080931D0225
:1040800068E773E0CE0101960E940C15CE010196FF
:104090000E94BC128C01CE0101960E94631517FF8D
:1040A00010921D0264E873E0CE0101960E940C1587
:1040B000CE0101960E94BC128C01CE0101960E9495
:1040C000631517FD03C089E00E94680C6FE873E078
:1040D000CE0101960E940C15CE0101960E94BC12E1
:1040E0008C01CE0101960E94631517FD07C049E0BF
:1040F00060EC77E289E090E00E940F0C69E973E0E0
:10410000CE0101960E940C15CE0101960E94BC12B0
:104110008C01CE0101960E94631517FF10921C02BC
:1041200064EA73E0CE0101960E940C15CE0101965F
:104130000E94BC128C01CE0101960E94631517FDEE
:1041400003C081E080931C026EEA73E0CE01019609
:104150000E940C15CE0101960E94BC128C01CE016A
:1041600001960E94631517FD03C087E00E94680C4A
:1041700069EB73E0CE0101960E940C15CE01019609
:104180000E94BC128C01CE0101960E94631517FD9E
:1041900007C047E060EC77E289E090E00E940F0CF6
:1041A00063EC73E0CE0101960E940C15CE010196DE
:1041B0000E94BC128C01CE0101960E94631517FF6C
:1041C00010921B026EEC73E0CE0101960E940C155A
:1041D000CE0101960E94BC128C01CE0101960E9474
:1041E000631517FD03C081E080931B0268ED73E047
:1041F000CE0101960E940C15CE0101960E94BC12C0
:104200008C01CE0101960E94631517FD07C045E0A1
:104210006CED75E080E090E00E940F0C62EE73E0C0
:10422000CE0101960E940C15CE0101960E94BC128F
:104230008C01CE0101960E94631517FD07C044E072
:104240006CED75E080E090E00E940F0C6CEE73E086
:10425000CE0101960E940C15CE0101960E94BC125F
:104260008C01CE0101960E94631517FD07C043E043
:104270006CED75E080E090E00E940F0C66EF73E05B
:10428000CE0101960E940C15CE0101960E94BC122F
:104290008C01CE0101960E94631517FD03C081E0D9
:1042A00080931A0260E074E0CE0101960E940C1522
:1042B000CE0101960E94BC128C01CE0101960E9493
:1042C000631517FF10921A026BE074E0CE0101969D
:1042D0000E940C15CE0101960E94BC128C01CE01E9
:1042E00001960E94631517FDB1C04FE050E06BE0EE
:1042F00070E0CE0101960E941C15CE0101960E942D
:10430000AE137093D4056093D305CE0101960E943D
:10431000631542E150E060E170E0CE0101960E9439
:104320001C15CE0101960E94AE136093D505CE01F7
:1043300001960E94631545E150E063E170E0CE0113
:1043400001960E941C15CE0101960E94AE13609347
:10435000D605CE0101960E94631548E150E066E162
:1043600070E0CE0101960E941C15CE0101960E94BC
:10437000AE136093D805CE0101960E9463154BE100
:1043800050E069E170E0CE0101960E941C15CE015B
:1043900001960E94AE136093D905CE0101960E944A
:1043A0006315109226021091D90510932702F09000
:1043B000D805F0922802D090D605D092290200911B
:1043C000D50500932A02E090D30580E3E80EE09241
:1043D0002B020E940609813009F0ECC087E080932F
:1043E000D7058CE390E09093CD058093CC0585E3D1
:1043F0009DEDA0E5B2E48093C4059093C505A0931C
:10440000C605B093C7058AE69AE5A6EAB1E48093AB
:10441000C8059093C905A093CA05B093CB0583E066
:104420008093CE0584E08093CF059AE09093D005E9
:104430008093D1058CE38093D205CC24C3942D2D99
:104440004F2D612F8091DA050E945D1268E67DE0B4
:10445000CE0142960E948D136DE17DE0CE01429621
:104460000E948D136DEF7CE0CE0142960E948D1369
:1044700069E97CE0CE0142960E948D1364E47CE001
:10448000CE0142960E948D136DEF7BE0CE014296E5
:104490000E948D1368EC7BE0CE0142960E948D1342
:1044A00068E97BE0CE0142960E948D1368E87BE0CC
:1044B000CE0142960E948D1367E77BE0CE014296C3
:1044C0000E948D136091D605CE018D960E946B15CA
:1044D0006091D505CE0187960E946B158091D3051A
:1044E0009091D4051AA219A21CA21BA21EA21DA261
:1044F0004AE0BE016F5F7F4F0E944833BE016F5F8D
:104500007F4FCE0181960E946214BE016F5D7F4F86
:10451000CE0101960E94F31467E174E0CE0101968A
:104520000E941E14BE01695D7F4F0E94321467E134
:1045300074E00E941E14BE01635D7F4F0E9432141E
:10454000BC01CE01C9960E94F314CE0101960E94CF
:104550006315CE0181960E946315CE0187960E9455
:104560006315CE018D960E946315BE01675C7F4F77
:10457000CE01429690D9CE01C9960E94631565E797
:104580007BE0CE0142960E948D13E091D705E15069
:1045900064E574E0E73090F4F0E08827ED52FD4DDB
:1045A0008F4F0C947039DC227C267F26822685264C
:1045B00088268B26815013CF69E174E0CE010196E5
:1045C0000E940C15BE016F5F7F4FCE01429663D9EA
:1045D000CE0101960E9463156AE67BE0CE01429609
:1045E0000E948D136091DA05CE018D960E946B15A5
:1045F0006091D905CE0187960E946B156091D80510
:10460000CE0101960E946B15BE016F5F7F4FCE01F8
:1046100081960E94F31466ED72E0CE0181960E94AD
:104620001E14BE01695D7F4F0E94321466ED72E078
:104630000E941E14BE01635D7F4F0E943214BC01B4
:10464000CE01C9960E94F314CE0181960E94631593
:10465000CE0101960E946315CE0187960E946315D4
:10466000CE018D960E946315BE01675C7F4FCE011F
:10467000429611D9CE01C9960E94631563E67BE08C
:10468000CE0142960E948D136DE47BE0CE014296EE
:104690000E948D136091A905CE0101960E946B14B2
:1046A000BE016F5F7F4FCE014296F5D8CE010196D5
:1046B0000E9463156BE47BE0CE0142960E948D134D
:1046C0006091AA05CE0101960E946B14BE016F5F36
:1046D0007F4FCE014296DFD8CE0101960E9463152E
:1046E00061E37BE0CE0142960E948D136091AB05A1
:1046F000CE0101960E946B14BE016F5F7F4FCE0109
:104700004296C9D8CE0101960E9463156FE27BE004
:10471000CE0142960E948D136091AC05CE010196A8
:104720000E946B14BE016F5F7F4FCE014296B3D8DB
:10473000CE0101960E94631568E27BE0CE014296AD
:104740000E948D1368EE7AE0CE0142960E948D138E
:104750006091180270911902CE0101960E94941482
:10476000BE016F5F7F4FCE01429695D8CE01019674
:104770000E9463156AED7AE0CE0142960E948D1385
:1047800080911A0264E97AE0882311F068E47AE003
:10479000CE0142960E948D1385E00E94E60B65E0F3
:1047A0007AE0882311F065EC79E0CE0142960E9410
:1047B0008D1384E00E94E60B60E879E0882311F015
:1047C0006CE379E0CE0142960E948D1368E279E0B5
:1047D000CE0142960E948D1368E079E0CE014296A8
:1047E0000E948D13409160045091610460916204B5
:1047F00070916304CE0101960E94BF14BE016F5FE9
:104800007F4FCE01429647D8CE0101960E94631594
:104810006CEF78E0CE0142960E948D1380911B02CE
:10482000882309F47BC269EC78E0CE0142960E94AD
:104830008D1340915C0450915D0460915E04709111
:104840005F04CE0101960E94BF14BE016F5F7F4FCF
:10485000CE01429620D8CE0101960E94631563EBEB
:1048600078E0CE0142960E948D1387E00E94E60B0D
:1048700062E278E08823F1F062EF77E0CE014296C1
:104880000E948D1367E0CE0101960E949F15BE0124
:104890006F5F7F4FCE0142960E944B1CCE01019666
:1048A0000E94631564EE77E0CE0142960E948D135C
:1048B00065EA77E0CE0142960E948D1380911C023A
:1048C000882309F44BC262E777E0CE0142960E944A
:1048D0008D13409158045091590460915A0470917D
:1048E0005B04CE0101960E94BF14BE016F5F7F4F33
:1048F000CE0142960E944B1CCE0101960E94631588
:104900006CE577E0CE0142960E948D1389E00E940B
:10491000E60B6BEC76E08823F1F06BE976E0CE01F4
:1049200042960E948D1369E0CE0101960E949F1568
:10493000BE016F5F7F4FCE0142960E944B1CCE019D
:1049400001960E9463156DE876E0CE0142960E94C2
:104950008D136EE476E0CE0142960E948D1364E3DF
:1049600076E0CE0142960E948D1366E1CE0101965B
:104970000E946B14BE016F5F7F4FCE0142960E9472
:104980004B1CCE0101960E94631565E176E0CE01D5
:1049900042960E948D1362E1CE0101960E946B1433
:1049A000BE016F5F7F4FCE0142960E944B1CCE012D
:1049B00001960E9463156DE076E0CE0142960E945A
:1049C0008D1369EF75E0CE0142960E948D1360EE63
:1049D00075E0CE0142960E948D1360EB74E0CE012B
:1049E00001960E949414BE016F5F7F4FCE014296E4
:1049F0000E944B1CCE0101960E94631562EC75E08B
:104A0000CE0142960E948D1368E572E0CE010196B8
:104A10000E949414BE016F5F7F4FCE0142960E94A8
:104A20004B1CCE0101960E94631564EA75E0CE012D
:104A300042960E948D1368E572E0CE0101960E94B5
:104A40009414BE016F5F7F4FCE0142960E944B1CB3
:104A5000CE0101960E9463156EE975E0CE01429683
:104A60000E948D1380911D026DE475E0811102C0DA
:104A700062E075E0CE0142960E948D13809164043D
:104A800066EB74E0882311F066E474E0CE01429690
:104A90000E948D138CE00E94E60B68E074E088238E
:104AA000C1F06BEC73E0CE0142960E948D136CE076
:104AB000CE0101960E949F15BE016F5F7F4FCE0110
:104AC00042960E944B1CCE0101960E9463156DEB2D
:104AD00073E0CE0142960E948D138DE00E94E60B9A
:104AE0006FE773E08823C1F062E473E0CE01429681
:104AF0000E948D136DE0CE0101960E949F15BE01AC
:104B00006F5F7F4FCE0142960E944B1CCE010196F3
:104B10000E94631564E373E0CE0142960E948D13F8
:104B20008EE00E94E60B62EF72E08823C1F065EB35
:104B300072E0CE0142960E948D136EE0CE01019686
:104B40000E949F15BE016F5F7F4FCE0142960E946B
:104B50004B1CCE0101960E94631563EA72E0CE0100
:104B600042960E948D1367E572E0CE0142960E9444
:104B70008D13CE0142960E947A1368E472E0CE0152
:104B800042960E948D13CE0142960E947A1363EDE5
:104B900072E086E996E00E946214CE0142960E947D
:104BA0006B19CE01C3960E9463158EE00E94E60B3E
:104BB00060E0811101C061E089E10E94C80A8DE0D6
:104BC0000E94E60B60E0811101C061E086E10E9475
:104BD000C80A8CE00E94E60B60E0811101C061E030
:104BE00087E10E94C80A89E00E94E60B60E081111B
:104BF00001C061E08CE10E94C80A87E00E94E60BD8
:104C000060E0811101C061E08DE10E94C80A85E089
:104C10000E94E60B60E0811101C061E08BE10E941F
:104C2000C80A84E00E94E60B60E0811101C061E0E7
:104C30008AE10E94C80A83E00E94E60B60E08111CD
:104C400001C061E088E10E94C80A8091640481305B
:104C500051F44CE060E87FE482E190E00E940F0CA8
:104C600082E0809364048CE00E94E60B81110EC008
:104C700080916404823051F44DE060EC77E289E089
:104C800090E00E940F0C83E0809364048DE00E940A
:104C9000E60B81110DC080916404833049F44EE02D
:104CA00060EC77E289E090E00E940F0C10926404BF
:104CB0008091DA052091D8059091A905291384C027
:104CC0002091D9059091AA0529137EC081117DC03C
:104CD0008091780481117BC081E080937804809179
:104CE0001A02882309F473C045E06CED75E080E09A
:104CF00090E00E940F0C6BC066E274E05FCC6DE246
:104D000074E05CCC63E374E059CC6CE374E056CCA3
:104D100063E474E053CC6AE474E050CC69E778E073
:104D2000CE0142960E948D1340915C0450915D0427
:104D300060915E0470915F04CE0101960E94BF14E1
:104D4000BE016F5F7F4FCE0142960E944B1CCE0189
:104D500001960E94631565E678E083CD62E277E014
:104D6000CE0142960E948D134091580450915904EF
:104D700060915A0470915B04CE0101960E94BF14A9
:104D8000BE016F5F7F4FCE0142960E944B1CCE0149
:104D900001960E9463156EE077E0B4CD63ED72E09A
:104DA000CE01C3960E94621451C81D3009F44EC84A
:104DB00019831A8241E050E0BE016F5F7F4FCE0140
:104DC000C3960E94E11342C8811110927804809129
:104DD000DA052091D8059091AB0529131BC02091CD
:104DE000D9059091AC05291315C0811114C080918B
:104DF0007904811112C081E08093790480911A02B4
:104E0000882359F044E06CED75E080E090E00E946A
:104E10000F0C03C08111109279048091DA059091F2
:104E2000D805943109F00DC19091D9059F3009F052
:104E300008C1811109C180917A04811107C081E004
:104E400080937A0490911D02911101C10E94DA0BA6
:104E50000091DB051091DC052091DD053091DE0528
:104E6000601771078207930798F0D901C80188512C
:104E70009C4FAF4FBF4F8093DB059093DC05A09311
:104E8000DD05B093DE058091DA058F5F8093DA054A
:104E90008091DA058C3338F08091D9058F5F80934B
:104EA000D9051092DA058091D9058C3338F08091BC
:104EB000D8058F5F8093D8051092D9058091D805C9
:104EC000883160F08091D7059091D6059F5F9093CF
:104ED000D6058F5F8093D7051092D8058091D705AE
:104EE000883018F081E08093D7058091D505823015
:104EF00051F48091D6058D3131F483E08093D5054E
:104F000081E08093D6058091D505982F9D7F9430C0
:104F100011F0993051F49091D6059F3130F08F5FA8
:104F20008093D50581E08093D6058091D505982F93
:104F30009D7F913051F0853041F099EF980F92307C
:104F400020F08A3011F08C3051F49091D6059032D7
:104F500030F08F5F8093D50581E08093D6058091F6
:104F6000D5058D3060F08091D3059091D40521E076
:104F70002093D50501969093D4058093D305E090B6
:104F8000D30520E3E20EC12C0091D5052091D60572
:104F90004091D8056091D9058091DA050E945D1293
:104FA0000E94440D80E192E00E94A40D6093600491
:104FB00070936104809362049093630488E092E0AC
:104FC0000E94A40D609358047093590480935A046E
:104FD00090935B0480E092E00E94A40D60935C04D7
:104FE00070935D0480935E0490935F0480917B00D6
:104FF000877F80937B0080E480937C0080917A009F
:10500000806480937A0080917A0086FDFCCF909135
:105010007800809179008927982789279093190231
:1050200080931802EE960FB6F894DEBF0FBECDBF88
:10503000DF91CF911F910F91FF90EF90DF90CF9074
:105040000895882309F402CF10927A04FFCE80934A
:105050006404FCCEFC018485883010F40C94C91DD6
:1050600090E080E008958F929F92AF92BF92CF928E
:10507000DF92EF92FF920F931F93CF93DF9300D0B5
:1050800000D000D01F92CDB7DEB79091C40491112B
:1050900015C018E0812F2A960FB6F894DEBF0FBE18
:1050A000CDBFDF91CF911F910F91FF90EF90DF90D7
:1050B000CF90BF90AF909F908F90089528E0F22EF0
:1050C000933311F494E0F92E6B01082F80E591E001
:1050D0000E9490099E012F5F3F4F5901490110E046
:1050E000812F0E941319F40181934F018823C1F08D
:1050F0001F5FF112F5CFF12CF50191915F019D3108
:1051000049F0983139F09A51923020F0F3941F1100
:10511000F3CFBFCF60E170E08F2D0E94E2181F2D0A
:10512000E12EF12CF701EE0FFF1FEC54FB4F118223
:10513000108283EE93E00197F1F7402F70E060E07A
:10514000812F0E94740F4FEF62E070E0812F0E9468
:10515000740FB601CD2889F480911E0290911F0230
:1051600001968115F0EC9F0798F190931F028093B0
:105170001E0260911E0270911F02812F0E945F0F1C
:1051800061E070E0812F0E94E21827E02E9DC001AF
:105190002F9D900D11249C0124583B4F7901F9015A
:1051A0001182108222E030E0AE01475F5F4F68E27B
:1051B00070E0812F0E94CF1989859A8598278927C9
:1051C0009827F7019383828316821582148262CF17
:1051D00080E090ECCACF0F931F93CF93DF93EC0145
:1051E0008B01888D883010F40E94FC18B80182E091
:1051F0003ADF888F883050F41D870C871A8E198EFD
:1052000081E0DF91CF911F910F91089580E0F9CF58
:105210000F931F93CF938C01FC016481758181E210
:1052200022DFC82F8830F8F480E591E00E949009D1
:105230008C2F0E941319833131F08C2FCF911F9145
:105240000F910C94F11862E070E08C2F0E94E2182C
:10525000F80184819581EC2FF0E0EE0FFF1FEC54F4
:10526000FB4F91838083CF911F910F910895CF922F
:10527000DF92EF92FF921F93CF93DF93EC017B01BC
:105280006A018C85883048F40E941619882319F029
:105290008C850E94F11888E08C87F70182819381C8
:1052A000A481B5810097A105B10551F490E080E09B
:1052B000DF91CF911F91FF90EF90DF90CF900895F5
:1052C0008F3F9F4FAF4FBF4F89F370E060E081E2A7
:1052D000CADE182F8C87883048F780E591E00E945D
:1052E0009009A7014E5F5F4F24E030E06CE070E072
:1052F000812F0E943A0FB601812F0E944A0F64E06D
:1053000070E0812F0E94E2180E94DA0B6B017C0191
:105310008C850E941619873111F18C3101F1882397
:1053200029F20E94DA0BAB01BC014C195D096E0930
:105330007F098D859E85B0E0A0E084179507A607BC
:10534000B70738F061E070E080E090E00E94AA0BBF
:10535000DFCF8C850E94FC1888E08C87A7CF81E086
:1053600090E0A6CF0F931F93CF93DF931F921F92CE
:10537000CDB7DEB7FC0124852830E0F48C0180E550
:1053800091E00E94900922E030E0AE014F5F5F4F54
:1053900060E170E0F80184850E94CF1989819A81CB
:1053A0009827892798270F900F90DF91CF911F9111
:1053B0000F91089590E080E0F6CF0F931F93CF9365
:1053C000DF931F921F92CDB7DEB7FC0124852830F2
:1053D000E0F48C0180E591E00E94900922E030E049
:1053E000AE014F5F5F4F64E070E0F80184850E947A
:1053F000CF1989819A819827892798270F900F9034
:10540000DF91CF911F910F91089590E080E0F6CF4A
:105410000F931F93CF93DF9300D000D01F921F9262
:10542000CDB7DEB78C01D80159964D915C915A9752
:105430004115510551F0ED91FC91048CF58DE02D55
:1054400070E060E0C8011995EECFF801808D0E94F0
:10545000CC1C892BB1F148E050E0BE016F5F7F4F5B
:10546000D80158968C910E94C91D18161906F4F49B
:10547000D801509684E0FE01319601900D928A95F4
:10548000E1F78D8190E0982F88272E81820F911D62
:10549000F801958B848B8F81282F30E0322F2227C3
:1054A0008885820F932F911D928F818F28960FB63A
:1054B000F894DEBF0FBECDBFDF91CF911F910F914A
:1054C000089590E080E0F2CF4F925F926F927F92CA
:1054D0008F929F92AF92BF92CF92DF92EF92FF9204
:1054E0000F931F93CF93DF93CDB7DEB763970FB6BC
:1054F000F894DEBF0FBECDBF7C016B013A01FB010A
:1055000020E090E080E06AE03191332309F460C04C
:1055100040ED430F4A3008F04CC0689FA001699FDE
:10552000500D1124CA01C097830F911D37FD9A9524
:105530008F3F910549F340F3F70142815381648124
:10554000758180918F0590919005A0919105B09102
:105550009205481759076A077B0709F40BC28701B0
:10556000085F1F4F0E94DA0B6F7077277C5FC801BE
:1055700032DE813009F003C28FEB92E09A83898397
:10558000F70182819381A481B5818B839C83AD8354
:10559000BE8345E350E0BE016F5F7F4FC8010E94AC
:1055A000F90F892BA9F5D12CC12CC8010E9407192C
:1055B00017C03E3209F0C0CF233009F4BDCFD3016C
:1055C000A20FB11D12968C932F5F90E080E09CCFCC
:1055D000233009F0B1CFF3018583CC24C394D12CBF
:1055E000C60163960FB6F894DEBF0FBECDBFDF9144
:1055F000CF911F910F91FF90EF90DF90CF90BF90D0
:10560000AF909F908F907F906F905F904F90089594
:105610000E94DA0BF7017783668342E050E0B7011E
:105620006A5F7F4FC8010E94611C81E090E09A830D
:10563000898342E050E0BE016F5F7F4FC8010E9446
:10564000611C80E091E09A83898342E050E0BE01D2
:105650006F5F7F4FC8010E94611C1A82198242E06D
:1056600050E0BE016F5F7F4FC8010E94611C42E0A5
:1056700050E0BE016F5F7F4FC8010E94611C42E095
:1056800050E0BE016F5F7F4FC8010E94611C560150
:10569000F6018081882301F16501F60181912F01D6
:1056A000882311F08E32B1F446018A189B08181431
:1056B000190474F48D8641E050E0BE01635F7F4FB2
:1056C000C8010E94611CA401B501C8010E94611CAF
:1056D0005201DECF6201E1CF1D8641E050E0BE0104
:1056E000635F7F4FC8010E94611CC12CDD24D394ED
:1056F000DA82C98242E050E0BE016F5F7F4FC8018D
:105700000E94611CDA82C98242E050E0BE016F5FF4
:105710007F4FC8010E94611CC8010E94A119892BFA
:1057200009F441CFF3E0AF2EB12C230122E0420E69
:10573000511CD4C0F7014281538164817581808DF1
:10574000918DA28DB38D481759076A077B0709F021
:1057500007C1848D958DC59709F002C181A192A1E1
:105760005DEFC52EDD24DA940C970CF4ADC04CE04F
:1057700050E0BE016F5F7F4FC8010E94951E8B8174
:105780009C819827892798279A8B898BF7014681D6
:10579000578129813A814217530709F0E6C097FFE4
:1057A000E4C08F7092703BEFC32EDD24DA94892B16
:1057B00009F08AC06F8078847624672476242AEFE3
:1057C000C22EDD24DA946114710409F47DC0D12C59
:1057D000C12C8D819E81982789279827C816D906C4
:1057E000F8F441E050E0BE01635F7F4FC8010E94C2
:1057F000951E4D85442331F050E070E060E0C80113
:105800000E94951E8D858111ECCF44E050E070E040
:1058100060E0C8010E94951EFFEFCF1ADF0AD9CFC2
:10582000912C812C41E050E0BE016D5E7F4FC8019C
:105830000E94951E4B89842F807C09F06BC0442305
:1058400031F050E070E060E0C8010E94951E8B8945
:105850008111E8CF42E050E0BE01615F7F4FC80197
:105860000E94951E42E050E0BE01635F7F4FC80179
:105870000E94951E44E050E070E060E0C8010E9484
:10588000951E42E050E0BE016F5E7F4FC8010E944E
:10589000951E8F85988949895A898115914009F00B
:1058A00042C0CD84DE84DC24CD24DC2481E0C81613
:1058B000D104C9F54115544009F049C044E050E015
:1058C000B201C8010E94951E21E0A21AB10809F494
:1058D0006CCEFFEFCF16DF0609F067CE0E94DA0B21
:1058E0003B014C01C80194DD181619060CF422CFB7
:1058F0000E94DA0B6619770988099909693873419A
:105900008105910548F562E370E080E090E00E9437
:10591000AA0BE8CF41E050E070E060E0C8010E94CF
:10592000951E1B8A94CF54274527542770E060E0CA
:10593000C8010E94951EFFEF8F1A9F0A6814790410
:1059400009F070CF96EFC92EDD24DA94BDCFE7EFD2
:10595000CE2EDD24DA94B8CFCC24CA94DC2CB4CF7C
:105960006EEFC62EDD24DA94AFCF4CEFC42EDD24CB
:10597000DA94AACF8EEFC82EDD24DA9431CED12C62
:10598000C12C2ECECF92DF92EF92FF920F931F93F6
:10599000CF93DF93CDB7DEB7AF970FB6F894DEBFE6
:1059A0000FBECDBF7C016A010FEB12E01A830983A1
:1059B0001C861B8688EE93E0A0E0B0E08D879E8772
:1059C000AF87B88B8EE792E09A878987188F0F8B05
:1059D000198E1A8E1B8E1C8E88E089A31BA70AA71E
:1059E0001CA61DA61EA61FA6809183059091840566
:1059F000A0918505B09186058EA39FA3A8A7B9A7FE
:105A00008B839C83AD83BE8318861F82AE01465D67
:105A10005F4FCE01019658DD81309105B1F4D70179
:105A2000ED91FC910488F589E02D1DA30CA38CA5B4
:105A30009DA5AEA5BFA58EA39FA3A8A7B9A7A601A4
:105A4000BE016C5D7F4FC7011995AF960FB6F894F4
:105A5000DEBF0FBECDBFDF91CF911F910F91FF90A1
:105A6000EF90DF90CF900895CF92DF92EF92FF9268
:105A70000F931F93CF93DF93CDB7DEB7AF970FB6DA
:105A8000F894DEBF0FBECDBF8C016B017A018FEBA6
:105A900092E09A8389831B821C821D821E821C864F
:105AA0001B8648EE53E060E070E04D875E876F87AD
:105AB000788B2EE732E03A872987988F8F8B198E63
:105AC0001A8E1B8E1C8E28E029A39BA78AA71CA6D2
:105AD0001DA61EA61FA6D8011C968C91883060F4C6
