:100000000C94C90D0C94FA0D0C94FA0D0C94FA0D85
:100010000C94FA0D0C94FA0D0C94FA0D0C94FA0D44
:100020000C94FA0D0C94FA0D0C94FA0D0C94FA0D34
:100030000C94FA0D0C94FA0D0C94FA0D0C94FA0D24
:100040000C94FA0D0C94FA0D0C94FA0D0C94FA0D14
:100050000C94FA0D0C94FA0D0C94FA0D0C94043ACD
:100060000C94FA0D0C94CE390C94A4390C94FA0D1E
:100070000C94FA0D0C94FA0D0C94FA0D0C94FA0DE4
:100080000C94FA0D0C94FA0D0C94FA0D0C94FA0DD4
:100090000C94FA0D0C94FA0D0C94FA0D0C94FA0DC4
:1000A0000C94FA0D0C94FA0D0C94FA0D0C94FA0DB4
:1000B0000C94FA0D0C94FA0D0C94FA0D0C94FA0DA4
:1000C0000C94FA0D0C94FA0D0C94FA0D0C94FA0D94
:1000D0000C94FA0D0C94FA0D0C94FA0D0C94FA0D84
:1000E0000C94FA0D072C7AA5BA6CC590DA3B93658F
:1000F000FC8BBC53F810FD3C5692834DBD879D3A56
:10010000B63DCBC9BF5BBE73DA0FC93F05A84CCD66
:10011000B2D44EB93836A9020C50B9918688083C41
:10012000A6AAAA2ABE000000803F0664EC1B3C047D
:10013000BC163E3BE5B93CC93C37C29E5A3D6604FD
:1001400098083EEA69AAAA3E000000803F000040ED
:100150007A10F35A00A0724E18090010A5D4E800D6
:1001600000E87648170000E40B54020000CA9A3BEE
:10017000000000E1F5050000809698000000404274
:100180000F000000A0860100000010270000000002
:10019000E803000000006400000000000A00000006
:1001A00000000100000000002C76D888DC674F08B2
:1001B00023DFC1DFAE59E1B1B796E5E3E453C63AB8
:1001C000E651997696E8E6C28426EB898C9B62ED2F
:1001D000407C6FFCEFBC9C9F40F2BAA56FA5F490E9
:1001E000055A2AF75C936B6CF9676DC11BFCE0E460
:1001F0000D47FEF520E6B500D0ED902E03009435B6
:1002000077050080841E080000204E0A000000C808
:100210000C333333330F986E12831141EF8D211459
:10022000893BE65516CFFEE6DB18D1844B381BF729
:100230007C1D901DA4BBE424203284725E228100C8
:10024000C9F124ECA1E53D273C2F626F64793E3C67
:100250002F68746D6C3E003C6120687265663D22BB
:100260002F6E6F7468696E67223E3C627574746F9E
:100270006E20636C6173733D22627574746F6E20BF
:10028000627574746F6E32223E5265667265736871
:10029000203C2F627574746F6E3E3C2F613E3C2F84
:1002A000703E003C6120687265663D222F34302F1D
:1002B0006F6E223E3C627574746F6E20636C617366
:1002C000733D22627574746F6E20627574746F6E04
:1002D000223E53544F50213C2F627574746F6E3E12
:1002E0003C2F613E3C2F703E003C61206872656689
:1002F0003D222F33392F6F6E223E3C627574746F2E
:100300006E20636C6173733D22627574746F6E202E
:10031000627574746F6E223E5720646F6C3C2F625E
:100320007574746F6E3E3C2F613E003C703E3C61C4
:1003300020687265663D222F33382F6F6E223E3C57
:10034000627574746F6E20636C6173733D226275A5
:1003500074746F6E20627574746F6E223E526F6C8F
:100360006574792077696174726F6C61702C206C90
:10037000617A69656E6B61207061727465722028A4
:10038000312C3229207720676F72653C2F6275749B
:10039000746F6E3E3C2F613E003C61206872656662
:1003A0003D222F35322F6F6E223E3C627574746F82
:1003B0006E20636C6173733D22627574746F6E207E
:1003C000627574746F6E223E53544F50213C2F62FD
:1003D0007574746F6E3E3C2F613E3C2F703E003C46
:1003E0006120687265663D222F35312F6F6E223E87
:1003F0003C627574746F6E20636C6173733D22622E
:100400007574746F6E20627574746F6E223E57201F
:10041000646F6C3C2F627574746F6E3E3C2F613E4E
:10042000003C703E3C6120687265663D222F35308D
:100430002F6F6E223E3C627574746F6E20636C6128
:1004400073733D22627574746F6E20627574746F7D
:100450006E223E526F6C657479206B7563686E69AD
:100460006120283329207720676F72653C2F6275E1
:1004700074746F6E3E3C2F613E003C612068726573
:10048000663D222F32322F6F6E223E3C62757474AD
:100490006F6E20636C6173733D22627574746F6E4E
:1004A00020627574746F6E223E53544F50213C2F5E
:1004B000627574746F6E3E3C2F613E3C2F703E003F
:1004C0003C6120687265663D222F32312F6F6E22AB
:1004D0003E3C627574746F6E20636C6173733D2271
:1004E000627574746F6E20627574746F6E223E57FD
:1004F00020646F6C3C2F627574746F6E3E3C2F618C
:100500003E003C703E3C6120687265663D222F32A1
:10051000302F6F6E223E3C627574746F6E20636C78
:100520006173733D22627574746F6E2062757474AA
:100530006F6E223E526F6C6574792073616C6F6EC2
:10054000206F64206F67726F6475202834292077CC
:1005500020676F72653C2F627574746F6E3E3C2F1E
:10056000613E003C6120687265663D222F34362F63
:100570006F6E223E3C627574746F6E20636C6173A3
:10058000733D22627574746F6E20627574746F6E41
:10059000223E53544F50213C2F627574746F6E3E4F
:1005A0003C2F613E3C2F703E003C612068726566C6
:1005B0003D222F34352F6F6E223E3C627574746F6E
:1005C0006E20636C6173733D22627574746F6E206C
:1005D000627574746F6E223E5720646F6C3C2F629C
:1005E0007574746F6E3E3C2F613E003C703E3C6102
:1005F00020687265663D222F34342F6F6E223E3C98
:10060000627574746F6E20636C6173733D226275E2
:1006100074746F6E20627574746F6E223E526F6CCC
:100620006574792073616C6F6E206F6420746172E1
:1006300061737520283529207720676F72653C2FFC
:10064000627574746F6E3E3C2F613E003C612068A1
:100650007265663D222F33342F6F6E223E3C6275E9
:1006600074746F6E20636C6173733D226275747471
:100670006F6E20627574746F6E223E53544F50211A
:100680003C2F627574746F6E3E3C2F613E3C2F7040
:100690003E003C6120687265663D222F33332F6F28
:1006A0006E223E3C627574746F6E20636C6173736E
:1006B0003D22627574746F6E20627574746F6E2261
:1006C0003E5720646F6C3C2F627574746F6E3E3CB5
:1006D0002F613E003C703E3C6120687265663D22A1
:1006E0002F33322F6F6E223E3C627574746F6E2012
:1006F000636C6173733D22627574746F6E206275F2
:1007000074746F6E223E526F6C6574792073616CE5
:100710006F6E2074617261732077656A7363696FAD
:10072000776520283629207720676F72653C2F6215
:100730007574746F6E3E3C2F613E003C61206872A0
:1007400065663D222F35382F6F6E223E3C627574F0
:10075000746F6E20636C6173733D22627574746F85
:100760006E20627574746F6E223E53544F50213C5C
:100770002F627574746F6E3E3C2F613E3C2F703E4D
:10078000003C6120687265663D222F35372F6F6E01
:10079000223E3C627574746F6E20636C6173733DAE
:1007A00022627574746F6E20627574746F6E223E6F
:1007B0005720646F6C3C2F627574746F6E3E3C2FD3
:1007C000613E003C703E3C6120687265663D222FB0
:1007D00035362F6F6E223E3C627574746F6E2063E7
:1007E0006C6173733D22627574746F6E20627574F0
:1007F000746F6E223E526F6C6574792073616C6FFA
:100800006E20746172617320736C65706520283787
:1008100029207720676F72653C2F627574746F6E44
:100820003E3C2F613E003C6120687265663D222F90
:1008300031392F6F6E223E3C627574746F6E206387
:100840006C6173733D22627574746F6E206275748F
:10085000746F6E223E53544F50213C2F6275747456
:100860006F6E3E3C2F613E3C2F703E003C61206825
:100870007265663D222F31382F6F6E223E3C6275C5
:1008800074746F6E20636C6173733D22627574744F
:100890006F6E20627574746F6E223E5720646F6CA9
:1008A0003C2F627574746F6E3E3C2F613E003C704D
:1008B0003E3C6120687265663D222F31372F6F6E96
:1008C000223E3C627574746F6E20636C6173733D7D
:1008D00022627574746F6E20627574746F6E223E3E
:1008E000526F6C65747920772073797069616C6ED2
:1008F0006920283829207720676F72653C2F627540
:1009000074746F6E3E3C2F613E003C6120687265DE
:10091000663D222F34332F6F6E223E3C6275747415
:100920006F6E20636C6173733D22627574746F6EB9
:1009300020627574746F6E223E53544F50213C2FC9
:10094000627574746F6E3E3C2F613E3C2F703E00AA
:100950003C6120687265663D222F34322F6F6E2213
:100960003E3C627574746F6E20636C6173733D22DC
:10097000627574746F6E20627574746F6E223E5768
:1009800020646F6C3C2F627574746F6E3E3C2F61F7
:100990003E003C703E3C6120687265663D222F340B
:1009A000312F6F6E223E3C627574746F6E20636CE3
:1009B0006173733D22627574746F6E206275747416
:1009C0006F6E223E526F6C65747920707261636F36
:1009D000776E69612062616C6B6F6E202839292007
:1009E0007720676F72653C2F627574746F6E3E3C42
:1009F0002F613E003C6120687265663D222F3331D5
:100A00002F6F6E223E3C627574746F6E20636C6152
:100A100073733D22627574746F6E20627574746FA7
:100A20006E223E53544F50213C2F627574746F6E8A
:100A30003E3C2F613E3C2F703E003C612068726559
:100A4000663D222F33302F6F6E223E3C62757474E8
:100A50006F6E20636C6173733D22627574746F6E88
:100A600020627574746F6E223E5720646F6C3C2F49
:100A7000627574746F6E3E3C2F613E003C703E3C6C
:100A80006120687265663D222F32392F6F6E223EDB
:100A90003C627574746F6E20636C6173733D226287
:100AA0007574746F6E20627574746F6E223E526F2F
:100AB0006C65747920707261636F776E6961206D07
:100AC000616C652028313029207720676F72653C82
:100AD0002F627574746F6E3E3C2F613E003C612046
:100AE000687265663D222F35352F6F6E223E3C625F
:100AF0007574746F6E20636C6173733D22627574DC
:100B0000746F6E20627574746F6E223E53544F5032
:100B1000213C2F627574746F6E3E3C2F613E3C2FFA
:100B2000703E003C6120687265663D222F35342F8F
:100B30006F6E223E3C627574746F6E20636C6173DD
:100B4000733D22627574746F6E20627574746F6E7B
:100B5000223E5720646F6C3C2F627574746F6E3E3A
:100B60003C2F613E003C703E3C6120687265663DF2
:100B7000222F35332F6F6E223E3C627574746F6E78
:100B800020636C6173733D22627574746F6E2062B2
:100B90007574746F6E223E526F6C657479206C614F
:100BA0007A69656E6B612070696574726F20283197
:100BB0003129207720676F72653C2F627574746FDE
:100BC0006E3E3C2F613E003C6120687265663D22AE
:100BD0002F32352F6F6E223E3C627574746F6E201B
:100BE000636C6173733D22627574746F6E206275FD
:100BF00074746F6E223E53544F50213C2F627574B3
:100C0000746F6E3E3C2F613E3C2F703E003C612075
:100C1000687265663D222F32342F6F6E223E3C6231
:100C20007574746F6E20636C6173733D22627574AA
:100C3000746F6E20627574746F6E223E5720646FFD
:100C40006C3C2F627574746F6E3E3C2F613E003CAD
:100C5000703E3C6120687265663D222F32332F6FF3
:100C60006E223E3C627574746F6E20636C617373A8
:100C70003D22627574746F6E20627574746F6E229B
:100C80003E526F6C657479204A61676F64612028F9
:100C9000313229207720676F72653C2F627574743A
:100CA0006F6E3E3C2F613E003C6120687265663D80
:100CB000222F34392F6F6E223E3C627574746F6E32
:100CC00020636C6173733D22627574746F6E206271
:100CD0007574746F6E223E53544F50213C2F6275D1
:100CE00074746F6E3E3C2F613E3C2F703E003C6141
:100CF00020687265663D222F34382F6F6E223E3C8D
:100D0000627574746F6E20636C6173733D226275DB
:100D100074746F6E20627574746F6E223E57206417
:100D20006F6C3C2F627574746F6E3E3C2F613E0099
:100D30003C703E3C6120687265663D222F34372F3F
:100D40006F6E223E3C627574746F6E20636C6173CB
:100D5000733D22627574746F6E20627574746F6E69
:100D6000223E526F6C657479204D696B6F6C616ABD
:100D70002028313329207720676F72653C2F6275F8
:100D800074746F6E3E3C2F613E003C48333E526FA0
:100D90006C6574793C2F48333E003C2F6275747447
:100DA0006F6E3E3C2F613E3C2F703E003C612068E0
:100DB0007265663D222F31342F6F6666223E3C629B
:100DC0007574746F6E20636C6173733D2262757409
:100DD000746F6E20627574746F6E32223E53746F3E
:100DE00070205A32207A6120003C6120687265666A
:100DF0003D222F31342F6F6E223E3C627574746F2A
:100E00006E20636C6173733D22627574746F6E2221
:100E10003E5374617274205A323C2F627574746F41
:100E20006E3E3C2F613E3C2F703E003C2F6275743D
:100E3000746F6E3E3C2F613E003C612068726566B7
:100E40003D222F31332F6F6666223E3C62757474EB
:100E50006F6E20636C6173733D22627574746F6E84
:100E600020627574746F6E32223E53746F70205A14
:100E700031207A6120003C6120687265663D222F36
:100E800031332F6F6E223E3C627574746F6E206337
:100E90006C6173733D22627574746F6E223E53747D
:100EA000617274205A313C2F627574746F6E3E3CCF
:100EB0002F613E003C2F627574746F6E3E3C2F6153
:100EC0003E003C6120687265663D222F31322F6FF3
:100ED0006666223E3C627574746F6E20636C61734B
:100EE000733D22627574746F6E20627574746F6ED8
:100EF00032223E53746F70204C4B207A6120003CAC
:100F00006120687265663D222F31322F6F6E223E5E
:100F10003C627574746F6E20636C6173733D226202
:100F20007574746F6E223E5374617274204C4B3C26
:100F30002F627574746F6E3E3C2F613E003C6120E1
:100F4000687265663D222F31312F6F6666223E3C06
:100F5000627574746F6E20636C6173733D22627589
:100F600074746F6E20627574746F6E32223E4379B2
:100F70006B6C20706F646C6577616E69652077209B
:100F80007472616B6369652C206E61647A69736E3B
:100F9000696A206279207A6174727A796D61633C42
:100FA0002F627574746F6E3E3C2F613E003C612071
:100FB000687265663D222F31312F6F6E223E3C6292
:100FC0007574746F6E20636C6173733D2262757407
:100FD000746F6E223E53746172742063796B6C750A
:100FE00020706F646C6577616E69613C2F62757407
:100FF000746F6E3E3C2F613E003C612068726566F6
:101000003D222F31302F6F6E223E3C627574746F1B
:101010006E20636C6173733D22627574746F6E2011
:10102000223E506F646C6577616E6965205265631E
:101030007A6E653C2F627574746F6E3E3C2F613E14
:10104000003C6120687265663D222F31302F6F664B
:1010500066223E3C627574746F6E20636C617373BC
:101060003D22627574746F6E20627574746F6E3297
:10107000223E506F646C6577616E696520417574BE
:101080006F3C2F627574746F6E3E3C2F613E003C66
:10109000703E3C696E70757420747970653D63684C
:1010A00065636B626F78206F6E636C69636B3D7212
:1010B000657475726E2066616C736520756E636809
:1010C00065636B65643E204465737A637A003C70A7
:1010D0003E3C696E70757420747970653D63686517
:1010E000636B626F78206F6E636C69636B3D7265D2
:1010F0007475726E2066616C736520636865636BDE
:1011000065643E204465737A637A003C48333E5000
:101110006F646C6577616E69653C2F48333E0020D3
:10112000433C2F48353E0020433C2F48353E3C4849
:10113000353E54656D7065726174757261206E6FB5
:10114000636E613A20003C68353E54656D7065728F
:10115000617475726120647A69656E6E613A20000F
:101160003C6120687265663D222F392F6F666622CA
:101170003E3C627574746F6E20636C6173733D22C4
:10118000627574746F6E223E53544F50213C2F622F
:101190007574746F6E3E3C2F613E3C2F703E003C78
:1011A0002F627574746F6E3E3C2F613E003C61206F
:1011B000687265663D222F392F6F6E223E3C627544
:1011C00074746F6E20636C6173733D226275747406
:1011D0006F6E20627574746F6E32223E003C612027
:1011E000687265663D222F392F6F6E223E3C627514
:1011F00074746F6E20636C6173733D2262757474D6
:101200006F6E223E3130206D696E2E204F6E3C2F66
:10121000627574746F6E3E3C2F613E3C2F703E00D1
:101220002743206E6F633C2F627574746F6E3E3C73
:101230002F613E003C703E3C6120687265663D2235
:101240002F382F6F6E223E3C627574746F6E206370
:101250006C6173733D22627574746F6E2062757475
:10126000746F6E32223E50617274657220002743A3
:1012700020647A69656E3C2F627574746F6E3E3CB3
:101280002F613E003C703E3C6120687265663D22E5
:101290002F382F6F6666223E3C627574746F6E2025
:1012A000636C6173733D22627574746F6E223E507D
:1012B000617274657220003C6120687265663D222F
:1012C0002F372F6F6666223E3C627574746F6E20F6
:1012D000636C6173733D22627574746F6E223E534A
:1012E000544F50213C2F627574746F6E3E3C2F61D9
:1012F0003E3C2F703E003C2F627574746F6E3E3C16
:101300002F613E003C6120687265663D222F372FB9
:101310006F6E223E3C627574746F6E20636C6173F5
:10132000733D22627574746F6E20627574746F6E93
:1013300032223E003C6120687265663D222F372FC5
:101340006F6E223E3C627574746F6E20636C6173C5
:10135000733D22627574746F6E223E3130206D6968
:101360006E2E204F6E3C2F627574746F6E3E3C2F54
:10137000613E3C2F703E002743206E6F633C2F621E
:101380007574746F6E3E3C2F613E003C703E3C6154
:1013900020687265663D222F362F6F6E223E3C62BA
:1013A0007574746F6E20636C6173733D2262757423
:1013B000746F6E20627574746F6E32223E50696570
:1013C00074726F2000274320647A69656E3C2F6237
:1013D0007574746F6E3E3C2F613E003C703E3C6104
:1013E00020687265663D222F362F6F6666223E3C6E
:1013F000627574746F6E20636C6173733D226275E5
:1014000074746F6E223E50696574726F20002043C1
:101410003C2F423E3C2F48353E003C68353E5465EB
:101420006D7065726174757261207A65776E65742E
:10143000727A6E613A203C423E003C48333E4F6730
:10144000727A6577616E69653C2F48333E003C6176
:1014500020687265663D222F332F6F6E223E3C62FC
:101460007574746F6E20636C6173733D2262757462
:10147000746F6E223E526F6C6574792073746F7056
:101480003C2F627574746F6E3E3C2F613E3C2F7032
:101490003E003C6120687265663D222F342F6F6EDE
:1014A000223E3C627574746F6E20636C6173733D91
:1014B00022627574746F6E223E4F70757363207272
:1014C0006F6C6574793C2F627574746F6E3E3C2F3F
:1014D000613E3C2F703E003C703E3C61206872656E
:1014E000663D222F332F6F6E223E3C627574746FFF
:1014F0006E20636C6173733D22627574746F6E222B
:101500003E526F6C6574792073746F703C2F6275F6
:1015100074746F6E3E3C2F613E003C703E3C612017
:10152000687265663D222F352F6F6E223E3C6275D4
:1015300074746F6E20636C6173733D226275747492
:101540006F6E223E506F646E69657320726F6C65BA
:1015500074793C2F627574746F6E3E3C2F613E004F
:101560003C2F627574746F6E3E3C2F613E3C2F7051
:101570003E003C6120687265663D222F31352F6F39
:101580006E223E3C627574746F6E20636C6173737F
:101590003D22627574746F6E223E536574206C69CF
:1015A000676874206C6576656C3A003C61206872EF
:1015B00065663D222F31362F6F6666223E3C62758E
:1015C00074746F6E20636C6173733D226275747402
:1015D0006F6E20627574746F6E32223E4C6967685C
:1015E000742073656E736F72206F6E3C2F6275741A
:1015F000746F6E3E3C2F613E003C612068726566F0
:101600003D222F31362F6F6E223E3C627574746F0F
:101610006E20636C6173733D22627574746F6E2209
:101620003E4C696768742073656E736F72206F66D5
:10163000663C2F627574746F6E3E3C2F613E003CB9
:10164000703E3C6120687265663D222F322F6F66C6
:1016500066223E3C627574746F6E20636C617373B6
:101660003D22627574746F6E20627574746F6E3291
:10167000223E426C696E64732054696D6572204F1E
:101680006E3C2F627574746F6E3E3C2F613E003C61
:10169000703E3C6120687265663D222F322F6F6E6E
:1016A000223E3C627574746F6E20636C6173733D8F
:1016B00022627574746F6E223E426C696E64732090
:1016C00054696D6572204F66663C2F627574746F45
:1016D0006E3E3C2F613E00203C2F68353E00203C92
:1016E0002F68353E3C68353E204C616D707920771F
:1016F000206F67726F647A69653A2000203C2F681A
:10170000353E00203C2F68353E3C68353E20536511
:101710006E736F722073776961746C613A20003A5E
:10172000003C2F68353E3C68353E205A6163686F47
:101730006420736C6F6E63613A20003A00203C684D
:10174000353E20577363686F6420736C6F6E6361FE
:101750003A2000203C2F68353E0020676F647A698C
:101760006E613A200020003C68353E20447A69735F
:10177000206A6573743A20003C48333E526F6C65B2
:1017800074793C2F48333E003C626F64793E3C489C
:10179000313E486F6D6520436F6E74726F6C2044EC
:1017A0006F6D656B204F7A61726F772056302E30E7
:1017B00037413C2F48313E002E627574746F6E3293
:1017C000207B6261636B67726F756E642D636F6CF3
:1017D0006F723A20233737383738413B7D3C2F73BF
:1017E00074796C653E3C2F686561643E0074657871
:1017F000742D6465636F726174696F6E3A206E6FE9
:101800006E653B20666F6E742D73697A653A20337E
:101810003070783B206D617267696E3A2032707863
:101820003B20637572736F723A20706F696E7465D6
:10183000723B7D002E627574746F6E207B20626136
:10184000636B67726F756E642D636F6C6F723A2095
:10185000233139354236413B20626F726465723AFA
:10186000206E6F6E653B20636F6C6F723A207768F5
:101870006974653B2070616464696E673A20313633
:10188000707820343070783B003C7374796C653E1E
:1018900068746D6C207B20666F6E742D66616D6957
:1018A0006C793A2048656C7665746963613B2064A5
:1018B0006973706C61793A20696E6C696E652D622E
:1018C0006C6F636B3B206D617267696E3A2030709C
:1018D00078206175746F3B20746578742D616C6934
:1018E000676E3A2063656E7465723B7D003C6C697F
:1018F0006E6B2072656C3D2269636F6E2220687288
:1019000065663D22646174613A2C223E003C686544
:1019100061643E3C6D657461206E616D653D22764B
:10192000696577706F72742220636F6E74656E7470
:101930003D2277696474683D6465766963652D77D7
:10194000696474682C20696E697469616C2D7363B5
:10195000616C653D31223E003C21444F4354595057
:10196000452068746D6C3E3C68746D6C3E000000F0
:101970002100240027002A002D003000330001013F
:101980000000040107010A010000220025002800D0
:101990002B002E0031003400020100000501080177
:1019A0000B0100000A0B02090C0D0E0807030401CD
:1019B0000000000000000000000000000000000027
:1019C00000000000000000000000000000001211F4
:1019D00010000000000000000000000000000000F7
:1019E0000000000000000000005EBCE2613FDD83FB
:1019F000C29C7E20A3FD1F419DC3217FFCA2401EEF
:101A00005F01E3BD3E6082DC237D9FC1421CFEA0DE
:101A1000E1BF5D0380DE3C62BEE0025CDF81633DCE
:101A20007C22C09E1D43A1FF4618FAA427799BC5BE
:101A300084DA3866E5BB5907DB856739BAE40658AE
:101A40001947A5FB7826C49A653BD987045AB8E69E
:101A5000A7F91B45C6987A24F8A6441A99C7257B8E
:101A60003A6486D85B05E7B98CD2306EEDB3510F7E
:101A70004E10F2AC2F7193CD114FADF3702ECC926E
:101A8000D38D6F31B2EC0E50AFF1134DCE90722C5E
:101A90006D33D18F0C52B0EE326C8ED0530DEFB14E
:101AA000F0AE4C1291CF2D73CA947628ABF517493E
:101AB0000856B4EA6937D58B5709EBB536688AD42E
:101AC00095CB2977F4AA4816E9B7550B88D6346A1E
:101AD0002B7597C94A14F6A8742AC896154BA9F70E
:101AE000B6E80A54D7896B35000020002300260091
:101AF00029002C002F003200000100000301060124
:101B00000901050505050705080808080202020283
:101B10000A0A080804040404010101010101010189
:101B20000303030303030303040707070C0C0C0C54
:101B30000C0C0C0C0202020206060606060606063D
:101B40000B0B0B0B0B0B0B0B0102102020080810CA
:101B5000204010204080020102010804020101021D
:101B600004081020408080402010080402018004F6
:101B70000201804020100804020108040201010251
:101B800004081020408001020408102040808B3B94
:101B9000384211241FBECFEFD1E2DEBFCDBF00E03F
:101BA0000CBF17E0A0E0B2E0E2E6F6E900E00BBF10
:101BB00002C007900D92A43AB107D9F72BE0A4EA2E
:101BC000B7E001C01D92A031B207E1F71DE0C8ECFB
:101BD000DDE000E006C021970109802FFE010E9490
:101BE000C648C73CD10780E00807A9F70E94643DBA
:101BF0000C94204B0C94000020912E0290912D0209
:101C00009230C1F430E02053384FC90183709927D6
:101C1000892B39F4C90164E670E00E94B348892B2E
:101C200089F4C90160E971E00E94B348892B51F041
:101C30008CE10895983020F4917031F48EE108958C
:101C40009095FACF8DE108958FE108958F929F923C
:101C5000AF92BF92CF92DF92EF92FF92CF93DF933A
:101C600020912A026B017C01C20ED11CE11CF11CE7
:101C7000C701B6012CE330E040E050E00E942C4662
:101C800049015A019601C601D7FE04C08827992749
:101C90008C199D096CE370E00E94B34837FD78C051
:101CA00021E0022E000C330BDC010E94CE48645C64
:101CB0007F4F8F4F9F4F2CE330E040E050E00E9479
:101CC0002C4660932A0280912B02880E911CA11C45
:101CD000B11CC501B40128E130E040E050E00E94B1
:101CE0002C4669017A019401C40197FE04C088273B
:101CF00099278819990968E170E00E94B34837FD77
:101D000049C021E0022E000C330BDC010E94CE48BA
:101D1000685E7F4F8F4F9F4F28E130E040E050E0FA
:101D20000E942C4660932B0280912C02C80ED11C7D
:101D3000E11CF11C61DF90E0B0E0A0E0C0922C0259
:101D40008C159D05AE05BF0594F5C1E0D4E6C81A13
:101D5000D90AEA0AFB0A80912D028F5F8D30E0F4E8
:101D600080932D0249DF90E0B0E0A0E08C159D0546
:101D7000AE05BF0564F3C0922C02DF91CF91FF90B6
:101D8000EF90DF90CF90BF90AF909F908F9008958D
:101D90002FEF87CF2FEFB6CFC0932D0280912E0269
:101DA0008B596D2F0E949A4890932E02DBCF1C1402
:101DB0001D041E041F040CF3CCE0D4E680912D0218
:101DC000815089F080932D0217DF982F9C0D9093FE
:101DD0002C02C80ED11CE11CF11C1C141D041E0495
:101DE0001F0464F7CACFC0932D0280912E028D5933
:101DF0006D2F0E949A4890932E02E6CFE0912E021A
:101E0000F0E080912D0220912C02833088F1E05384
:101E1000F84F3DE0839FC0011124039665E070E018
:101E20000E94B348260F372F311D2E0F3F1FBF01D1
:101E30007595679575956795260F371FCF016CE9E6
:101E40007FEF0E94B348260F371FCF0160E971E092
:101E50000E94B348C901860F971F27E030E0B901FF
:101E60000E94B3480196B9010E94B3488F5F08955C
:101E7000845FE153F84FCDCFCF93DF93C0912D0214
:101E8000D0918409CD1740F1809186098C1720F1FB
:101E9000DC1710F4C817A0F1B1DF482F80912C0295
:101EA0008F5F841B1816DCF467E00E94A6488F5FE2
:101EB000082E000C990BCD1314C02091850930E039
:101EC000821793074CF028173907D4F04230C4F436
:101ED00080912B028230A0F4DF91CF91089580E0B1
:101EE000E7CF2091870930E0821793074CF028173D
:101EF000390794F3423084F780912B02823060F7E7
:101F00006091880970E090E080E0DF91CF919ECEF3
:101F10008CBD9DBD0895FC01818D928D089508951D
:101F2000AF92BF92CF92DF92EF92FF920F931F93E7
:101F3000CF93DF936C017B018B01040F151FEB0125
:101F40005E01AE18BF08C017D10759F06991D601DC
:101F5000ED91FC910190F081E02DC6011995892B3E
:101F600079F7C501DF91CF911F910F91FF90EF900D
:101F7000DF90CF90BF90AF900895FC01538D448DBA
:101F8000252F30E0842F90E0821B930B541710F024
:101F9000CF96089501970895FC01918D828D981731
:101FA00061F0A28DAE0FBF2FB11D5D968C91928D09
:101FB0009F5F9F73928F90E008958FEF9FEF08953A
:101FC000FC01918D828D981731F0828DE80FF11D03
:101FD000858D90E008958FEF9FEF0895FC01918D1E
:101FE000228D892F90E0805C9F4F821B91098F7317
:101FF000992708958FE498E0F1DF21E0892B09F417
:1020000020E0822F0895FC01A48DA80FB92FB11DE7
:10201000A35ABF4F2C91848D90E001968F7399271E
:10202000848FA689B7892C93A089B1898C918370FC
:1020300080648C93938D848D981306C00288F389F5
:10204000E02D80818F7D80830895EF92FF920F9322
:102050001F93CF93DF93EC0181E0888F9B8D8C8D54
:1020600098131AC0E889F989808185FF15C09FB748
:10207000F894EE89FF896083E889F989808183700B
:10208000806480839FBF81E090E0DF91CF911F91BA
:102090000F91FF90EF900895F62E0B8D10E00F5FDB
:1020A0001F4F0F731127E02E8C8D8E110BC00FB6B2
:1020B00007FCFACFE889F989808185FFF5CFCE0149
:1020C000A2DFF2CFEB8DEC0FFD2FF11DE35AFF4F96
:1020D000F0829FB7F8940B8FEA89FB898081806238
:1020E000D0CFCF93DF93EC01888D8823B1F0AA89FC
:1020F000BB89E889F9898C9185FD03C0808186FDC3
:102100000CC00FB607FCF7CF8C9185FFF2CF808112
:1021100085FFEDCFCE0177DFEACFDF91CF91089534
:1021200080E090E0892B21F065DF81110E940000A2
:1021300080E090E0892B49F080E090E0892B29F045
:102140000E94000081110E94000080E090E0892B35
:1021500049F080E090E0892B29F00E940000811175
:102160000E94000080E090E0892B49F080E090E040
:10217000892B29F00E94000081110C940000089521
:102180008150823108F05AC0E82FF0E08827E453EC
:10219000FF4E8F4F0C94C648EC10F010DE10E41088
:1021A000E8101E11F310F910FD10031107110B11A7
:1021B000111115111E1119111F1123118091800089
:1021C0008F77809380000895809180008F7DF9CF74
:1021D00080918000877FF5CF84B58F7784BD089587
:1021E00084B58F7DFBCF8091B0008F778093B00056
:1021F00008958091B0008F7DF9CF809190008F7706
:10220000809390000895809190008F7DF9CF809108
:102210009000877FF5CF8091A0008F778093A000FA
:1022200008958091A0008F7DF9CF8091A000877FD5
:10223000F5CF809120018F778093200108958091C0
:1022400020018F7DF9CF80912001877FF5CF1F93EB
:10225000CF93DF93282F30E0F901EE55F64E8491AD
:10226000F901E85BF44ED491F901EE5FF44EC491AC
:10227000CC23A1F0162F811183DFEC2FF0E0EE0FBD
:10228000FF1FE857F64EA591B4918FB7F894EC91E3
:10229000111108C0D095DE23DC938FBFDF91CF9161
:1022A0001F910895DE2BF8CF61E082E0D0DF8BEF45
:1022B00094E00197F1F760E082E0C9DF8BED9BE0ED
:1022C0000197F1F70895F0DFEFDFEEDFEDCF61E08A
:1022D00082E0BDDF8BE39BE00197F1F760E082E0F5
:1022E000B6DF8BE995E00197F1F70895F0DFDCDFC9
:1022F000DBDFDACFD9DFEBDFD7DFD6CFE8DFE7DF11
:10230000D3DFD2CFD1DFD0DFE2DFCECFE0DFCCDF53
:10231000DEDFCACFC9DFDBDFDADFC6CFD8DFD7DF4A
:10232000D6DFC2CFC1DFC0DFBFDFD1CFD0DFBCDFA0
:10233000BBDFCDCFB9DFCBDFB7DFC9CFC8DFC7DFAA
:10234000B3DFC5CFB1DFB0DFC2DFC1CFC0DFACDFED
:10235000BEDFBDCFA9DFBBDFBADFB9CFB8DFB7DFE4
:10236000B6DFB5CFCF93DF9390E0FC01E85BF44E8E
:1023700024918E5F944EFC0184918823D1F090E0EB
:10238000880F991FFC01E259F64EA591B491FC010A
:10239000E857F64EC591D49161110EC09FB7F894DD
:1023A0008C91E22FE0958E238C932881E223E883A1
:1023B0009FBFDF91CF9108958FB7F894EC91E22BF6
:1023C000EC938FBFF6CF3FB7F8948091C5079091FB
:1023D000C607A091C707B091C80726B5A89B05C03E
:1023E0002F3F19F00196A11DB11D3FBFBA2FA92F94
:1023F000982F8827BC01CD01620F711D811D911D91
:1024000042E0660F771F881F991F4A95D1F70895FC
:102410008F929F92AF92BF92CF92DF92EF92FF92F4
:102420004B015C01D0DF6B017C01CDDF6C197D09B4
:102430008E099F09683E734081059105B0F321E044
:10244000821A9108A108B10888EEC80E83E0D81E50
:10245000E11CF11C81149104A104B10431F7FF9037
:10246000EF90DF90CF90BF90AF909F908F900895A6
:102470006AE070E080E090E0CBDF61E082E0E7DEE0
:102480008BE59AE40197F1F760E082E0E0DE8BEB08
:1024900097E10197F1F708DF07DF19DF05DF17DFA5
:1024A00016DF02DF01DF00DFFFDE11DFFDDEFCDE15
:1024B000FBDEFADEF9DE0BDF0ADFF6DEF5DE07DF34
:1024C000F3DE05DF04DFF0DE02DF01DF00CFEF9295
:1024D000FF921F93CF93DF93CAE0D0E01FEF180F56
:1024E000E12EF12CC5DF1F30B0F4F7018827E45846
:1024F000FD4E8F4F0C94C6489C129E12A012A21241
:10250000A412A612A812AA12AC12AE12B012B212E3
:10251000B412B612B812D7DEC7DEC6DEC5DED7DE0D
:10252000C3DEC2DEC1DED3DE2197E1F6DF91CF91BB
:102530001F91FF90EF900895D9DEEECFDBDEECCF58
:10254000DDDEEACFDFDEE8CFE1DEE6CFE3DEE4CFBB
:10255000E5DEE2CFE7DEE0CFE9DEDECFEBDEDCCFAB
:10256000EDDEDACFEFDED8CFF1DED6CFF3DED4CF9B
:10257000F5DED2CFEF92FF921F93CF93DF93CAE0A5
:10258000D0E01FEF180FE12EF12C72DF1F30B0F4F6
:10259000F7018827E153FD4E8F4F0C94C648EF1288
:1025A000F112F312F512F712F912FB12FD12FF12DB
:1025B000011303130513071309130B1384DE74DED1
:1025C00073DE85DE84DE70DE6FDE81DE80DE2197E5
:1025D000E1F6DF91CF911F91FF90EF90089586DE95
:1025E000EECF88DEECCF8ADEEACF8CDEE8CF8EDE5F
:1025F000E6CF90DEE4CF92DEE2CF94DEE0CF96DE4F
:10260000DECF98DEDCCF9ADEDACF9CDED8CF9EDE3E
:10261000D6CFA0DED4CFA2DED2CFEF92FF921F930F
:10262000CF93DF93CAE0D0E01FEF180FE12EF12C1B
:102630001FDF1F30B0F4F7018827EE5DFC4E8F4F8F
:102640000C94C64842134413461348134A134C13C0
:102650004E13501352135413561358135A135C133A
:102660005E1331DE21DE33DE1FDE31DE1DDE2FDEC6
:102670001BDE2DDE2197E1F6DF91CF911F91FF90B8
:10268000EF90089533DEEECF35DEECCF37DEEACFC4
:1026900039DEE8CF3BDEE6CF3DDEE4CF3FDEE2CF02
:1026A00041DEE0CF43DEDECF45DEDCCF47DEDACFF2
:1026B00049DED8CF4BDED6CF4DDED4CF4FDED2CFE2
:1026C0002FB7F8946091C1077091C2078091C3073A
:1026D0009091C4072FBF08950F931F93CF93DF935B
:1026E000C82FD0E0EDDFFE01EE0FFF1FEE0FFF1F42
:1026F000EB57F54F6083718382839383CC0FDD1F8B
:10270000CC0FDD1FC35FD54F41E0088119812A81BD
:102710003B81061717072807390708F440E0842F84
:10272000DF91CF911F910F9108958F929F92AF9259
:10273000BF92CF92DF92EF92FF920F931F93CF93AE
:10274000DF936B017C01C42FD0E0BADFFE01EE0FF6
:10275000FF1FEE0FFF1FEB57F54F608371838283DE
:1027600093838E01000F111F000F111F035F154F80
:10277000F80180809180A280B380681579058A0570
:102780009B0508F19DDFCC0FDD1FCC0FDD1FCB5665
:10279000D64F688379838A839B83C60ED71EE81E33
:1027A000F91EF801C082D182E282F382DF91CF91DB
:1027B0001F910F91FF90EF90DF90CF90BF90AF905F
:1027C0009F908F900895D501C4018C0D9D1DAE1D65
:1027D000BF1D80839183A283B383E8CFCF93DF9320
:1027E000C82FD0E06DDFFE01EE0FFF1FEE0FFF1FC1
:1027F000E35FF54F608371838283938361DFCC0F46
:10280000DD1FCC0FDD1FCB56D64F688379838A83BB
:102810009B83DF91CF910895DC012C911196ED916E
:10282000FC91F8948181822B81839281322F3095A3
:102830009323928387E090E00197F1F781818323CE
:10284000818383E290E00197F1F790817894EFEC37
:10285000F0E03197F1F7922381E009F480E00895E8
:10286000FC0190810180F281E02D292F209560FFED
:1028700014C0F8948281822382838181892B818391
:10288000A3E2B0E01197F1F78281982B92837894BC
:1028900087ED90E00197F1F70895F8948281822303
:1028A00082838181892B8183AFEFB0E01197F1F7AB
:1028B0008281982B928378948FE090E0EBCFDF9227
:1028C000EF92FF920F931F93CF93DF93EC01D62EDD
:1028D000E42E08E010E0FF24F39461E08D2D8F21B9
:1028E00009F460E0CE01BCDFFF0C01501109A9F72B
:1028F000E11010C0F894E981FA8191818881809576
:1029000089238183E981FA81928188818095892355
:1029100082837894DF91CF911F910F91FF90EF9078
:10292000DF900895FC0190810180F281E02DF89400
:102930008181292F20958223818378943DE743E08C
:1029400050E0315029F1DA011197F1F780818923A4
:10295000C1F3F8948281822382838181892B8183D0
:102960007894ABE7B7E01197F1F7F894818182236F
:102970008183A3E1B1E01197F1F78081982381E091
:1029800009F080E07894E3E6F6E03197F1F70895F6
:1029900080E00895CF93C0916609C11104C0C0E0E2
:1029A0008C2FCF9108958091630990916409BADFCB
:1029B0008823A9F340E06CEC80916309909164094D
:1029C0007EDF4091670981E0482764E480916309D4
:1029D0009091640974DF74DE6093680970936909EB
:1029E00080936A0990936B09DBCFCF92DF92FF92BD
:1029F0000F931F93CF93DF936C01F62E80916309A1
:102A0000909164098FDF882319F100916309109177
:102A1000640940E065E5C80152DFE60188E0C80EC0
:102A2000D11C699140E0C8014ADFCC15DD05C9F72A
:102A300040E06F2D809163099091640940DF81E04F
:102A4000DF91CF911F910F91FF90DF90CF9008956C
:102A500080E0F6CF6F927F928F929F92AF92BF925B
:102A6000CF92DF92EF92FF920F931F93CF93DF935A
:102A7000CDB7DEB76D970FB6F894DEBF0FBECDBFF2
:102A80006EEBB3DF882309F480C0809063099090D7
:102A900064098E010F5E1F4F7E018AE1E80EF11C72
:102AA000680138E0632E712CB12CAA24A394C401D0
:102AB000B3DE8111BA28AA0CA1E06A1A7108B9F72D
:102AC000F601B1926F01EE15FF0559F799E080E02C
:102AD000915049F0D801ED918D01E827F0E0E851DF
:102AE000F64E8491F5CF998D98134FC080E1E5E3C0
:102AF000F2E0DE01119601900D928A95E1F7809146
:102B0000450290914602A0914702B09148028A8FF7
:102B10009B8FAC8FBD8F009165090950110BF70198
:102B2000E00FF11F808169897A8902C075956795E8
:102B30008A95E2F7072E000C880B990B0E94194525
:102B4000000F111F000F111FE1E0F0E0EC0FFD1F5F
:102B5000E00FF11F20813181428153810E9478452D
:102B60006D960FB6F894DEBF0FBECDBFDF91CF914B
:102B70001F910F91FF90EF90DF90CF90BF90AF909B
:102B80009F908F907F906F90089563E373E988E83A
:102B900093ECE6CFFC0120812EBD9B012150310931
:102BA00041F051810DB407FEFDCF4EB55EBD41939E
:102BB000F5CF61507109860F971F0DB407FEFDCF49
:102BC0002EB5FC0120830895E091B807F091B90774
:102BD00080819091B707892B80830895E091B80791
:102BE000F091B90790818091B70780958923808300
:102BF00008958EBD00000DB407FEFDCF8EB508957B
:102C0000AF92BF92CF92DF92EF92FF920F931F93FA
:102C1000CF93DF9300D000D01F921F92CDB7DEB7C5
:102C20008C017B016A0180914D088333B1F4580116
:102C3000A40EB51EA016B10609F463C0CFDF80EF65
:102C4000D8DF812FD6DF802FD4DF0F5F1F4FF70132
:102C500081917F01CEDFB8DFEDCF5B01A40EB51E01
:102C60008433A9F4BBDF19830A838D2D80688B839D
:102C7000CC8264E070E0CE0101968CDFAE14BF041C
:102C800009F43EC0F70181917F01B3DFF7CFA6DFE2
:102C90000F3F110509F028F419820A8384E08B8321
:102CA0000CC017FD17C019820A8333E016950795EB
:102CB0003A95E1F7007E0C600B8386E0C816D104DC
:102CC00090F5F701DE011496EA15FB0599F0819164
:102CD0008D93FACFC80126E0969587952A95E1F75E
:102CE000807E19830A830115104C10F48461D7CFBC
:102CF0008C61D5CFB6016D5F7F4FCE0101964ADF63
:102D000063DFC60128960FB6F894DEBF0FBECDBFB5
:102D1000DF91CF911F910F91FF90EF90DF90CF90B7
:102D2000BF90AF90089563E070E0CE01019632DF6E
:102D3000F70181917F015DDFAE14BF04C9F7E0CFD9
:102D4000CF93DF931F92CDB7DEB7898341E050E088
:102D5000BE016F5F7F4F90E080E052DF0F90DF9108
:102D6000CF91089590E020914D08233339F40C96CB
:102D7000982F990F990F990F80E008954896F8CFF2
:102D8000DA01E091BB07F0E0FE2FEE27E60FF71F18
:102D900090E0982F8827A901BD018E0F9F1F30CF8B
:102DA000CF93DF931F921F92CDB7DEB779836A83EB
:102DB00022E030E0AE014F5F5F4F60E170E0E0DFA6
:102DC0000F900F90DF91CF910895CF93DF931F92D3
:102DD0001F92CDB7DEB779836A8322E030E0AE017F
:102DE0004F5F5F4F64E070E0CBDF0F900F90DF919B
:102DF000CF910895CF93DF931F92CDB7DEB7209187
:102E0000BB0730E0322F2227260F371F90E0982F84
:102E10008827498341E050E0BE016F5F7F4F820FFA
:102E2000931FEEDE0F90DF91CF910895CF93DF9344
:102E30001F92CDB7DEB76983DC01ED91FC91028072
:102E4000F381E02D41E050E0BE016F5F7F4F1995A7
:102E50000F90DF91CF910895CF93DF931F92CDB75D
:102E6000DEB76983DC01ED91FC910280F381E02DF6
:102E700041E050E0BE016F5F7F4F19950F90DF91E9
:102E8000CF910895FC019485FB018485981303C0BC
:102E900081E0983008F080E00895CF93DF931F928F
:102EA000CDB7DEB76983DC01ED91FC910280F3813F
:102EB000E02D41E050E0BE016F5F7F4F19950F900C
:102EC000DF91CF910895FC01768765870895DC0135
:102ED000ED91FC91068CF78DE02D199591E08927F5
:102EE0000895862F089581E08627089521E0FC014A
:102EF0008485883008F020E0822F08950895FF929D
:102F00000F931F93CF93DF93EB01FC01178A168A6F
:102F10002A81211109C02B81211106C02C81211188
:102F200003C02D812223F1F041155105D9F08A010A
:102F3000FC01F08C80E591E00E94880FAE014E5FAD
:102F40005F4F24E030E06CE070E08F2D19DFB801B6
:102F50008F2D26DF81E090E0DF91CF911F910F91BF
:102F6000FF90089580E0F7CFFC0184859585089552
:102F7000FC018489958908952EED32E0FC013183AE
:102F80002083FB014089518962897389FC01428356
:102F90005383648375830895DC01ED91FC91048C67
:102FA000F58DE02D1994089590E080E008954F92FA
:102FB0005F926F927F928F929F92AF92BF92CF92C9
:102FC000DF92EF92FF92CF93DF93CDB7DEB7659795
:102FD0000FB6F894DEBF0FBECDBF8D8B60912D0272
:102FE000FF24FA94F60E60912C02EE24EA94E60E89
:102FF00021EE3EE245E652E460917A0970917B0948
:1030000080917C0990917D090E94EF464B015C0103
:103010002D89222309F4D3C182E189836F2D70E0C9
:1030200090E080E00E94194520E030E843EF51E451
:103030000E9478452B013C016E2D70E090E080E00D
:103040000E9419459B01AC01C301B2010E94884650
:103050006B017C012981622F70E090E080E00E948A
:10306000194520E030E040EC51E40E94EF469B011E
:10307000AC01C701B6010E94884622E43DEC4CE851
:103080005CE30E9478456B017C010E94EC466D83F5
:103090007E838F839887C701B6010E9405486987A0
:1030A0007A878B879C87A7019601C701B6010E948A
:1030B00088462B013C010E94EC466D877E878F87F6
:1030C000988BC301B2010E940548698B7A8B8B8B68
:1030D0009C8B20E030E040E450E4C701B6010E9440
:1030E00078456B017C010E94EC462B013C01C70135
:1030F000B6010E94054869837A838B839C8324E40C
:1031000031EC4CEC5EE36D817E818F8198850E946D
:1031100078459B01AC0164E670EB82EE9BE30E9474
:1031200087466B017C0127EE32EE4FE85DE369854F
:103130007A858B859C850E9478459B01AC01C701EF
:10314000B6010E9488466B017C0126E332E74DED13
:103150005BE36D857E858F8598890E9478459B010C
:10316000AC01C701B6010E9487466B017C012DEBC3
:1031700033EC4DE65AE369897A898B899C890E94F0
:1031800078459B01AC01C701B6010E9488466B01DE
:103190007C0127E230EC40E35BE3C301B2010E9413
:1031A00078459B01AC01C701B6010E9487466B01BF
:1031B0007C012FE83CEF41EC5AE369817A818B81F5
:1031C0009C810E9478459B01AC01C701B6010E9419
:1031D00088466B017C01C501B4010E94EC462B01BD
:1031E0003C01C701B6010E94EC4669837A838B8358
:1031F0009C83C501B4010E944D484B015C01C7018D
:10320000B6010E944D486B017C0129813A814B81B6
:103210005C81C301B2010E9478459B01AC0168E862
:1032200079E48EE69CEB0E94EF462B013C01A7015E
:103230009601C501B4010E9478459B01AC01C30110
:10324000B2010E9487466B017C019F7720E030E04D
:1032500040E85FE30E94014818160CF4B3C0C701B0
:10326000B6010E9479466B017C018D89811104C0F1
:10327000F7FAF094F7F8F09460917E0970917F0965
:103280008091800990918109905821EE3EE245E6B7
:1032900052E40E94EF46A70196010E94874620E073
:1032A00030E040E850E40E94784521EE3EE245E6F9
:1032B00052E40E94784520E030E044E354E40E9468
:1032C00088466B017C012EEA37ED44EF5AE36D81AD
:1032D0007E818F8198850E94784522E539E44DE909
:1032E00058E30E9488464B015C012CE233E643E040
:1032F0005DE369857A858B859C850E9478459B0175
:10330000AC01C501B4010E9487464B015C0121EC70
:1033100033E74FE65CE36D857E858F8598890E9453
:1033200078459B01AC01C501B4010E9487464B0161
:103330005C0128E431E547E25DE369897A898B899C
:103340009C890E9478459B01AC01C501B4010E9493
:10335000874624E13EE245E653E40E9478459B011E
:10336000AC01C701B6010E9487460E9457472091D1
:10337000820930918309620F731F10922B02109201
:103380002A0210922902072E000C880B990B0E942A
:10339000260E81E065960FB6F894DEBF0FBECDBF56
:1033A000DF91CF91FF90EF90DF90CF90BF90AF90E3
:1033B0009F908F907F906F905F904F90089526E040
:1033C00029832CCE80E0E6CFCF92EF92FF920F932D
:1033D0001F93CF93DF9390915F0991110CC090914F
:1033E0006009911108C090916109911104C09091F8
:1033F0006209992341F0811104C0411102C0653076
:1034000011F0CC20C1F1F22EC42FD62F182F8093AB
:10341000290260932A0240932B0220932C020093EE
:103420002D02E0922E0281E0C2DD882351F00E943D
:103430003C0F80912B0280935F0980912A02809338
:10344000600910932902D0932A02C0932B02F092B4
:103450002C0200932D02E0922E0280E0A8DD88234A
:1034600051F00E943C0F80912B0280936109809162
:103470002A0280936209DF91CF911F910F91FF90F3
:10348000EF90CF900895CF93DF932091040B30916C
:10349000050B232B89F0FC01C091000BD091010B8F
:1034A00060817181CE010E94064B009729F08C1B30
:1034B0009D0BDF91CF9108958FEF9FEFFACFAF92E1
:1034C000BF92CF92DF92EF92FF920F931F93CF9311
:1034D000DF9300D01F92CDB7DEB78C016B017A016C
:1034E00080914D088333B9F45B016801C40ED51E89
:1034F000C016D10659F172DB8FE07BDB812F79DBBF
:10350000802F77DB0F5F1F4F80E073DBF501819326
:103510005F015ADBEDCF843349F560DB19830A8301
:103520008F2D8F778B83EC8264E070E0CE01019663
:1035300031DBA70170E060E0C6010E94F84AE114A7
:10354000F10419F0B701C60125DB3EDBC7010F907E
:103550000F900F900F90DF91CF911F910F91FF90DF
:10356000EF90DF90CF90BF90AF90089537DB0F3F83
:10357000110509F030F419820A831B8263E070E0C0
:10358000D5CF17FD0BC019820A8333E01695079536
:103590003A95E1F7007E08600B83F0CFC80126E082
:1035A000969587952A95E1F7807E19830A83011500
:1035B000104C18F480618B83E1CF8861FCCF1F939E
:1035C000CF93DF931F92CDB7DEB7182F80E591E040
:1035D0000E94880F812FC6DB27E0129FF001112483
:1035E000EB5FF74F22813381377041E050E0BE013D
:1035F0006F5F7F4F820F931F62DF89810F90DF9192
:10360000CF911F910895FC01808D883038F4218D71
:10361000328D232B19F0D3DF90E008958FEF9FEFC9
:103620000895CF93DF93FC012485283028F08FEF95
:103630009FEFDF91CF910895EC010190F081E02D93
:103640000084F185E02D1995892B89F38C85B7DFEE
:1036500090E0EFCFCF93DF931F92CDB7DEB741E07D
:1036600050E0BE016F5F7F4F2ADF89810F90DF91AD
:10367000CF91089590E080E0EDCFCF93DF93C4E148
:10368000D0E0F8DF882361F061E070E080E090E056
:103690000E9408122197A9F780E0DF91CF91089549
:1036A00081E0FBCF1F93CF93DF931F921F92CDB783
:1036B000DEB760E372E080E090E00E9408121FB77E
:1036C000F8948091BA07811127C0E7E3FBE1849168
:1036D000EDE7FBE19491E82FF0E0EE0FFF1FE259D8
:1036E000F64EA591B491EC91E92321F461E085E3D4
:1036F0000E94271161E085E30E94B2118CB58061C0
:103700008CBD8CB580648CBD61E084E30E94B211F5
:1037100061E083E30E94B2118091BA078F5F8093CA
:10372000BA071FBFECE0FBE1E491F0E0EE0FFF1FF2
:10373000E857F64E859194919093B9078093B80716
:10374000E2E5FBE1E491E093B70761E08AE00E94E3
:10375000B2113ADA80E591E00E94880F84E3809309
:103760004D0880E8EDDA89DF882349F188E0E8DA5E
:1037700081DF883021F580E1E3DA7CDF8031F9F404
:1037800080E0DEDA77DF182F811119C08FE190E039
:1037900061DF8330A1F480E48093BB0742E06EE1F7
:1037A00070E0812F27DB42E06FE170E0812F22DBA8
:1037B0001F5F183099F781E080934E0851C087E36E
:1037C00080934D0880E8BCDA58DF8823C1F088E098
:1037D000B7DA50DF883099F480E1B2DA4BDF182F86
:1037E000803169F480E0ACDA45DF811108C089E3FB
:1037F00090E030DF843019F41093BB07DCCF83E313
:1038000080934D0880E89CDA38DF882331F180E12D
:1038100097DA30DF803109F582E192DA2BDF8231ED
:10382000E1F480E08DDA26DF811117C084E0809317
:10383000BB0715E51A8341E050E0BE016E5F7F4F84
:103840008BE190E0DDD9198341E050E0BE016F5F6C
:103850007F4F8AE190E0D4D9AECF10924D0880E03E
:103860000F900F90DF91CF911F910895CF92DF922B
:10387000EF92FF920F931F93CF93DF93EC016B01B5
:103880008A01790180914E088823C9F180E591E091
:103890000E94880F46E050E063E272E089E090E029
:1038A000AFD9BE016E5F7F4F44E050E08FE090E003
:1038B000A7D9B8016E5F7F4F44E050E081E090E00F
:1038C0009FD9B7016E5F7F4F44E050E085E090E004
:1038D00097D9F60182819381A481B58180930C09E7
:1038E00090930D09A0930E09B0930F09DF91CF912A
:1038F0001F910F91FF90EF90DF90CF900895D2DE4F
:103900008823A1F3C3CF2091BB0730E0322F2227B9
:10391000620F731F90E0982F8827860F971F9ACE0B
:10392000CF93C82F462F61E070E064DA61E070E069
:103930008C2FE9DF8111FACFCF910895CF93C82F53
:1039400080E591E00E94880F68E070E08C2FCF91B5
:10395000E7CFCF93C82F80E591E00E94880F60E108
:1039600070E08C2FCF91DCCFCF93DF93EC01888D6B
:10397000883018F4EEDF88E0888FDF91CF910895CA
:1039800063E070E0C0CFCF93C82F80E591E00E9444
:10399000880F8C2FCF91F4CFEF92FF920F931F934C
:1039A000CF93DF937C0180914D08D4E0833309F0FD
:1039B000D8E00DE318E0C0E0F801219131918F01CA
:1039C000F701848195812817390729F0CF5FDC132F
:1039D000F3CF80E005C08C2FD6DF8431B9F781E0CA
:1039E000DF91CF911F910F91FF90EF900895CF93AA
:1039F000DF93EC018C858830C8F4C5DF843189F011
:103A0000882379F0883169F021E08C3159F4E8811C
:103A1000F9810084F185E02DCE01199521E0892BF3
:103A200009F420E0822FDF91CF91089580E0FBCF51
:103A3000CF92DF92EF92FF92CF93DF93EC018C85D0
:103A4000883058F47BDF0E9460136B017C018C8509
:103A50009ADF811109C088E08C87DF91CF91FF90B8
:103A6000EF90DF90CF90089561E070E080E090E00B
:103A70000E9408120E946013AB01BC014C195D0941
:103A80006E097F098D859E85B0E0A0E04817590733
:103A90006A077B07E0F28C855CDFDDCFCF93FC010A
:103AA000C08D80E591E00E94880F60E270E08C2F6D
:103AB00037DF62E070E08C2F26DF84FD14C062E007
:103AC00070E08C2F20DF83FF09C048E162E070E0E6
:103AD0008C2F90D980E090E0CF91089580E591E01F
:103AE0000E94880FE6CF40E162E070E08C2F82D91F
:103AF00081E0F1CFDA01E091BB07F0E0FE2FEE2785
:103B0000E60FF71F90E0982F8827A901BD018E0FBF
:103B10009F1FD5CC8F929F92AF92BF92CF92DF9290
:103B2000EF92FF920F931F93CF93DF93CDB7DEB742
:103B300060970FB6F894DEBF0FBECDBF7C019091A9
:103B40004D08911115C018E0812F60960FB6F894BA
:103B5000DEBF0FBECDBFDF91CF911F910F91FF90C0
:103B6000EF90DF90CF90BF90AF909F908F9008958F
:103B700008E0933309F404E06B0180E591E00E94D2
:103B8000880F9E012F5F3F4F5901490110E0812F9F
:103B9000F7DEF40181934F018823B9F01F5F011311
:103BA000F6CF00E0F50181915F018D3149F0883158
:103BB00039F08A51823020F00F5F1013F3CFC3CF5A
:103BC00060E170E0802FACDE102FA12EB12CF5014A
:103BD000EE0FFF1FE35CF74F1182108283EE93E03C
:103BE0000197F1F742E870E060E0812F03D94FEFD1
:103BF00062E070E0812FFED8B601C114D10491F4C7
:103C0000809121029091220201968115F0EC9F078C
:103C100008F456C090932202809321026091210201
:103C200070912202812FD1D886E0E9E4F2E0DE0132
:103C3000199601900D928A95E1F7F70183818F77AC
:103C40008C8784818D8785818E87A7014E5F5F4F2A
:103C500024E030E06CE070E0812F92D8B601812F33
:103C60009FD826E030E0AE01475F5F4F66E070E02E
:103C7000812F86D861E070E0812F52DE27E02A9DF7
:103C8000C0012B9D900D11249C012B5F374F7901B2
:103C9000F9011182108222E030E0AE01415F5F4FF6
:103CA00068E270E0812F26DF8F8598899827892721
:103CB0009827F7019383828316821582148244CF5A
:103CC00080E090ECA7CFCF92DF92EF92FF920F931C
:103CD0001F93CF93DF9300D000D0CDB7DEB78C0118
:103CE0006B017A01FC01808D883008F432DE8EEDA4
:103CF00092E09A838983F60182819381A481B581C0
:103D00008B839C83AD83BE83B701CE01019602DF16
:103D1000F801808F8830A0F4F586E486128E118E2B
:103D200081E026960FB6F894DEBF0FBECDBFDF91BF
:103D3000CF911F910F91FF90EF90DF90CF9008955A
:103D400080E0EFCF7F928F929F92AF92BF92CF92FF
:103D5000DF92EF92FF920F931F93CF93DF931F9207
:103D60001F92CDB7DEB7782E8B014A01590122E0B0
:103D700030E0AE014F5F5F4F64E270E0BBDEE98090
:103D8000FA80FE24EF24FE24E00EF11E9701377026
:103D900040914D08072D10E0433309F042C0085F01
:103DA0001F4F102F0027110F110F110FC901800F86
:103DB000911F4733C9F1A9014A0D5B1D413058409D
:103DC00098F160E078E06B01C21AD30AA601B40151
:103DD0000E940016A5014C195D09B4016C0D7D1DF2
:103DE000C8010E940016EA0CFB1CF982EA8222E05C
:103DF00030E0AE014F5F5F4F64E270E0872D0E94BC
:103E0000C0160F900F90DF91CF911F910F91FF90EF
:103E1000EF90DF90CF90BF90AF909F908F907F906A
:103E20000895005F1F4FBDCFA501B401DACFEF9217
:103E3000FF921F93CF93DF931F921F92CDB7DEB7F0
:103E4000182F22E030E0AE014F5F5F4F60E270E07C
:103E500051DEE980FA80FE24EF24FE2422E030E0E7
:103E6000AE014F5F5F4F60E270E0812F43DE8981DA
:103E70009A81982789279827E816F90689F487E018
:103E8000189FF0011124EB5FF74FF582E482C70120
:103E90000F900F90DF91CF911F91FF90EF900895B9
:103EA0007C01DCCF1F93CF93DF93182F80E591E047
:103EB0000E94880F812FBBDFEC01812F61DD8731EC
:103EC00021F08C3111F0D0E0C0E0CE01DF91CF9134
:103ED0001F910895CF93DF93EC018C85883050F4C7
:103EE00052DD873111F08C3129F48C85DBDF8115AF
:103EF000984098F3DF91CF910895FC018485883034
:103F000008F4D0CF90E080E00895CF92DF92EF9256
:103F1000FF921F93CF93DF93182F7B01EA0141306B
:103F2000584010F0C0E0D8E080E591E00E94880F92
:103F3000812F7DDF6C01812F23DD873111F08C31E2
:103F400001F5CC16DD0680F380E591E00E94880F34
:103F50009E01A70170E060E0812FF4DE60E270E076
:103F6000812FDEDC62E070E0812FCDDC84FD0CC0AF
:103F7000812F06DD8823B9F080E591E00E94880F4B
:103F8000F1CFD0E0C0E0E0CF40E162E070E0812F0F
:103F90000E94FA16CE01DF91CF911F91FF90EF9012
:103FA000DF90CF900895D0E0C0E0F4CF0F931F933F
:103FB000CF93DF938C01EA01FC018485883040F4C3
:103FC000A4DF892B39F481E090E0F80193838283A8
:103FD000D0E0C0E0CE01DF91CF911F910F91089505
:103FE0009F92AF92BF92CF92DF92EF92FF920F9388
:103FF0001F93CF93DF938C015B01942EE52EFC0180
:10400000C688D788F08C80E591E00E94880F8F2DBC
:104010000EDFC92DDE2D8C179D0708F4EC019E01E3
:10402000A501B6018F2D8EDEF801868997898C0F48
:104030009D1F978B868BCE01DF91CF911F910F91A2
:10404000FF90EF90DF90CF90BF90AF909F9008953A
:10405000FF920F931F93CF93DF931F921F92CDB7C1
:10406000DEB7F82E22E030E0AE014F5F5F4F66E230
:1040700070E040DD09811A8110270127102722E016
:1040800030E0AE014F5F5F4F66E270E08F2D32DDB2
:1040900089819A819827892798270817190749F451
:1040A000C8010F900F90DF91CF911F910F91FF905A
:1040B00008958C01E4CF1F93CF93DF93182F87E0EF
:1040C000189FE0011124CB5FD74F88819981009719
:1040D00059F480E591E00E94880F812FB9DF2E818D
:1040E000821B910999838883DF91CF911F91089555
:1040F0009F92AF92BF92CF92DF92EF92FF920F9377
:104100001F93CF93DF93EC017B0180914D088111C8
:1041100021C01B821A8288EE93E0A0E0B0E08C837D
:104120009D83AE83BF8383E592E09983888388E093
:104130008C8788EE93E09E878D87CE01DF91CF91AB
:104140001F910F91FF90EF90DF90CF90BF90AF90B5
:104150009F90089534E0932E833311F028E0922E3F
:104160008DE3C82E88E0D82E10E098E0B92EA12C5F
:10417000D6012D913D916D01F7018481958128171C
:10418000390779F4812FFFDB082F873111F08C314B
:1041900029F5812F90DF892B51F50C3111F4812FF6
:1041A000CDDB1F5F9112E4CFA11008C0D701ED91C4
:1041B000FC910084F185E02DC70119951B821A82BC
:1041C00088EE93E0A0E0B0E08C839D83AE83BF8354
:1041D00083E592E099838883BC86ABCF843149F034
:1041E0008111DFCFF601329711821082DACFB12E22
:1041F000D8CFAA24A394D5CF8F929F92AF92BF928B
:10420000CF92DF92EF92FF920F931F93CF93DF93A2
:10421000CDB7DEB72F970FB6F894DEBF0FBECDBF78
:104220005C014B017A0180914D088823B1F104E0D3
:10423000833309F008E0B501CE01019659DF8DE323
:10424000C82E88E0D82E10E0F601219131916F013F
:10425000F501848195812817390741F4812F93DB7B
:10426000873121F4A701B401812F4FDE1F5F0113B5
:10427000EBCFC7012F960FB6F894DEBF0FBECDBFB0
:10428000DF91CF911F910F91FF90EF90DF90CF9032
:10429000BF90AF909F908F900895F12CE12CE9CFC3
:1042A000FC018485883008F406CF90E080E0089512
:1042B0004F925F927F928F929F92AF92BF92CF92D6
:1042C000DF92EF92FF920F931F93CF93DF931F9292
:1042D0001F92CDB7DEB7782E6B014A01A82EB12C04
:1042E00027E0829FC0011124FC01EB5FF74F7F01A3
:1042F0000081118180E591E00E94880F0815190561
:104300004CF4872DA5DEF70126818C01021B1109D3
:10431000118300830115110511F5872D31DB8431DF
:1043200059F0882349F001E010E08C3111F410E0DD
:1043300000E0119501951109C8010F900F90DF91D0
:10434000CF911F910F91FF90EF90DF90CF90BF9092
:10435000AF909F908F907F905F904F9008958016C0
:1043600091060CF4840187E08A9DF0018B9DF00D8D
:104370001124EB5FF74FE280F380C114D10441F1C7
:104380002701F7E05F22872D0E94B216840D951D4C
:1043900020914D08273309F450C09801240D351D94
:1043A0002130384008F449C020E038E04901841841
:1043B0009508A401B60183D82601480C591C680150
:1043C000C818D908872D0E94B216A601B20177D865
:1043D000E00EF11E87E08A9DF0018B9DF00D112407
:1043E000EB5FF74FF382E28220813181201B310B9A
:1043F000318320838681800F912F911D8A3F910503
:1044000010F4232BE9F487E08A9DF0018B9DF00DD9
:104410001124EB5FF74F1682F982EA8222E030E046
:10442000AE014F5F5F4F68E270E0872D0E94C016BB
:1044300060E470E0872D74DA7FCFA801B601C7CFA2
:1044400086837ACFCF93DF93FC01218D328D2115A6
:10445000310529F48FEF9FEFDF91CF910895EC01A3
:10446000808D4217530708F0A90122DF181619069C
:104470008CF7298D3A8D281B390B3A8F298FECCF79
:104480000F931F93CF93DF931F92CDB7DEB7FC013D
:10449000218D328D232B41F48FEF9FEF0F90DF9111
:1044A000CF911F910F9108958C0141E050E0BE0122
:1044B0006F5F7F4FFC01808DFBDE1816190664F7D5
:1044C000F801818D928D0197928F818F898190E083
:1044D000E5CFCF93DF931F92CDB7DEB741E050E039
:1044E000BE016F5F7F4FFC018485E2DE181619065E
:1044F00034F4898190E00F90DF91CF9108958FEF90
:104500009FEFF9CFFC018485883008F4D1CE90E08C
:1045100080E008958F929F92AF92BF92CF92DF92E8
:10452000EF92FF920F931F93CF93DF9300D000D0B1
:1045300000D01F92CDB7DEB790914D08911115C0F4
:1045400018E0812F2A960FB6F894DEBF0FBECDBFBC
:10455000DF91CF911F910F91FF90EF90DF90CF905F
:10456000BF90AF909F908F90089528E0F22E9333E4
:1045700011F494E0F92E6B01082F80E591E00E9480
:10458000880F9E012F5F3F4F5901490110E0812F95
:10459000F7D9F40181934F018823B9F01F5FF1121D
:1045A000F6CFF12CF50191915F019D3149F09831E1
:1045B00039F09A51923020F0F3941F11F3CFC0CF0D
:1045C00060E170E08F2DACD91F2DE12EF12CF701A9
:1045D000EE0FFF1FE35CF74F1182108283EE93E032
:1045E0000197F1F7402F70E060E0812F0E94FA16EA
:1045F0004FEF62E070E0812F0E94FA16B601CD28DD
:1046000089F4809121029091220201968115F0ECAB
:104610009F0788F1909322028093210260912102EA
:1046200070912202812F0E94E51661E070E0812FD7
:1046300077D927E02E9DC0012F9D900D11249C015C
:104640002B5F374F7901F9011182108222E030E0AF
:10465000AE01475F5F4F68E270E0812F4BDA8985DA
:104660009A85982789279827F70193838283168252
:104670001582148266CF80E090ECCCCF0F931F930D
:10468000CF93DF93EC018B01888D883008F461D9DA
:10469000B80182E03FDF888F883050F41D870C8797
:1046A0001A8E198E81E0DF91CF911F910F9108959D
:1046B00080E0F9CF0F931F93CF938C01FC016481AD
:1046C000758181E227DFC82F8830E0F480E591E032
:1046D0000E94880F8C2F54D9833129F08C2FCF91D1
:1046E0001F910F912BC962E070E08C2F19D9F8014E
:1046F00084819581EC2FF0E0EE0FFF1FE35CF74F14
:1047000091838083CF911F910F910895CF92DF9273
:10471000EF92FF921F93CF93DF93EC017B016A012D
:104720008C85883038F42FD9882311F08C8506D9F0
:1047300088E08C87F70182819381A481B5810097FD
:10474000A105B10551F490E080E0DF91CF911F9178
:10475000FF90EF90DF90CF9008958F3F9F4FAF4F26
:10476000BF4F89F370E060E081E2D4DE182F8C87C0
:10477000883048F780E591E00E94880FA7014E5FDE
:104780005F4F24E030E06CE070E0812F0E94C016A3
:10479000B601812F0E94D01664E070E0812FC0D84E
:1047A0000E9460136B017C018C85EDD8873109F183
:1047B0008C31F9F0882339F20E946013AB01BC01FF
:1047C0004C195D096E097F098D859E85B0E0A0E0DA
:1047D00084179507A607B70738F061E070E080E01E
:1047E00090E00E940812E0CF8C85B3D888E08C87D7
:1047F000AACF81E090E0A9CF0F931F93CF93DF93CF
:104800001F921F92CDB7DEB7FC0124852830D8F463
:104810008C0180E591E00E94880F22E030E0AE013B
:104820004F5F5F4F60E170E0F801848563D9898153
:104830009A819827892798270F900F90DF91CF9121
:104840001F910F91089590E080E0F6CF0F931F9392
:10485000CF93DF931F921F92CDB7DEB7FC01248563
:104860002830D8F48C0180E591E00E94880F22E086
:1048700030E0AE014F5F5F4F64E070E0F801848587
:1048800039D989819A819827892798270F900F9085
:10489000DF91CF911F910F91089590E080E0F6CFC6
:1048A000FB0101900020E9F73197AF01461B570B40
:1048B000DC01ED91FC910280F381E02D19948F923F
:1048C0009F92AF92BF92EF92FF920F931F93CF935D
:1048D000DF93CDB7DEB7A1970FB6F894DEBF0FBE5A
:1048E000CDBF7C01FA01CB0119A2223008F42AE0E5
:1048F0008E010F5D1F4F822E912CB12CA12CBF0178
:10490000A50194010E944846F901CA016A3004F5E4
:10491000605DD8016E938D01232B242B252B79F715
:1049200090E080E0109719F0BD01C701B9DFA196B2
:104930000FB6F894DEBF0FBECDBFDF91CF911F91B0
:104940000F91FF90EF90BF90AF909F908F90089540
:10495000695CDFCF8F929F92AF92BF92CF92DF922E
:10496000EF92FF920F931F93CF93DF937C01EB01A4
:104970006C0182E0C80ED11C4701E5E08E0E911C4F
:1049800010E000E0F60141916F0150E070E060E05E
:104990002AE0CE0194DF5C01E881F9810190F08189
:1049A000E02D6EE2CE0119958A0D9B1D080F191F8F
:1049B000C814D90439F7F701458150E070E060E090
:1049C0002AE0CE017CDF800F911FDF91CF911F91F4
:1049D0000F91FF90EF90DF90CF90BF90AF909F909E
:1049E0008F900895BC018FE498E05ACF60EF72E099
:1049F00057CF0F931F93CF93DF93EC0151DF8C01BF
:104A0000CE01F4DF800F911FDF91CF911F910F91A5
:104A100008950F931F93CF93DF93EC01FB01448123
:104A2000558160817181C2DA8C01CE01DFDF800F98
:104A3000911FDF91CF911F910F910895EF92FF92F7
:104A40000F931F93CF93DF938C017B01D0E0C0E0E5
:104A5000F701EC0FFD1F6491662339F0C8010E9435
:104A60004D17892B11F02196F3CFC801BFDF8C0FB2
:104A70009D1FDF91CF911F910F91FF90EF900895AF
:104A8000FC0180819181009711F00C94594260E003
:104A900070E0CB0108950F931F93CF93DF93EC0148
:104AA00088819981009759F02A813B812617370721
:104AB00030F081E0DF91CF911F910F9108958B012C
:104AC0006F5F7F4F0E94134A009759F09983888344
:104AD0001B830A832C813D81232B59F7FC01108213
:104AE000E8CF80E0E7CFEF92FF920F931F93CF9331
:104AF000DF936115710541F480E0DF91CF911F9143
:104B00000F91FF90EF90089541155105A9F07B0199
:104B1000EC010C811D81040F151FB801BCDF882337
:104B200059F3288139818C819D81B701820F931FB0
:104B30000E94FF4A1D830C8381E0DFCFCF93DF9378
:104B4000EC0188819981009711F00E948A491982AD
:104B500018821D821C821B821A82DF91CF910895D8
:104B6000CF93DF93EC01FB0101900020E9F731972F
:104B7000AF01461B570BB7DF811102C0CE01DEDF4C
:104B8000CE01DF91CF910895CF93DF93EC01FB012C
:104B90004481558160817181A6DF811102C0CE01FF
:104BA000CDDFCE01DF91CF910895EF92FF920F9369
:104BB0001F93CF93DF93EC017B018A01BA016BDF76
:104BC00081110AC0CE01BADFCE01DF91CF911F91D2
:104BD0000F91FF90EF9008951D830C83B70188819A
:104BE00099810E94FF4AF0CFFB0101900020E9F774
:104BF0003197AF01461B570BD8CF0F931F93CF931D
:104C0000DF9300D000D000D0CDB7DEB78C01862F67
:104C1000F8011182108213821282158214824AE0F6
:104C2000BE016F5F7F4F90E00E949E42BE016F5FAA
:104C30007F4FC801D9DF29960FB6F894DEBF0FBEAB
:104C4000CDBFDF91CF911F910F910895EF92FF9209
:104C50000F931F93CF93DF93CDB7DEB7A1970FB616
:104C6000F894DEBF0FBECDBF7C01CB01BA01F701C6
:104C70001182108213821282158214828E010F5FBC
:104C80001F4F22E044E00E943C42009781F0BC01AB
:104C9000C701AADFA1960FB6F894DEBF0FBECDBF45
:104CA000DF91CF911F910F91FF90EF900895C70171
:104CB00045DFF0CF0F931F93CF93DF93CDB7DEB7D0
:104CC00062970FB6F894DEBF0FBECDBF8C01CB014B
:104CD000F8011182108213821282158214824AE036
:104CE000BE016F5F7F4F0E947F42BE016F5F7F4FAB
:104CF000C8017ADF62960FB6F894DEBF0FBECDBF53
:104D0000DF91CF911F910F910895FB01DC01119666
:104D10001C921E9213961C921E92129715961C922C
:104D20001E9214978617970741F060817181611573
:104D3000710519F04481558138CF0895FC01118225
:104D400010821382128215821482FB0101900020CE
:104D5000E9F73197AF01461B570B27CFCF92DF9270
:104D6000EF92FF920F931F93CF93DF936C017B0120
:104D70008A014617570720F48F2D7A01062F182F26
:104D800062EF72E0C601DADFC091040BD091050B2F
:104D9000EC16FD06F0F40C171D0708F4E801E0918D
:104DA000000BF091010BEC0FFD1F10811082609140
:104DB000000B7091010B6E0D7F1DC6016115710511
:104DC00091F012DF8091000B9091010BC80FD91F59
:104DD0001883C601DF91CF911F910F91FF90EF9043
:104DE000DF90CF900895AADEEDCFFC018081918104
:104DF000009711F00C948A4908950F931F93CF9355
:104E0000DF93CDB7DEB72C970FB6F894DEBF0FBE99
:104E1000CDBF8C016A3068F0F0DEC8012C960FB669
:104E2000F894DEBF0FBECDBFDF91CF911F910F91E0
:104E30000895CE010196E1DE63EF72E0CE010796A0
:104E40007DDFBE016F5F7F4FCE0107969DDEBC0107
:104E5000C8015BDFCE010796C8DFCE010196C5DF32
:104E6000DCCF8F929F92AF92BF92CF92DF92EF9260
:104E7000FF920F931F93CF93DF93CDB7DEB7689761
:104E80000FB6F894DEBF0FBECDBF7C01062F10E039
:104E90000E946013F801EE0FFF1FEE0FFF1FEB578C
:104EA000F54F6083718382839383000F111F000F7E
:104EB000111FF801E35FF54F0081118122813381D9
:104EC00058016901A61AB70AC80AD90AC601B5016C
:104ED00028EE33E040E050E00E94484649010CE3F0
:104EE00010E0C901B8010E94B348AC01C401841BA1
:104EF000950BB8010E94B3486B01CB01B8010E9429
:104F0000B3485C01C81AD90A642FCE01019675DF37
:104F10006A2DCE01079671DFC601B8010E94B34821
:104F2000CE0143966ADFBE016D5E7F4FCE010D96C6
:104F3000ECDE63E977E0CE010D9612DEBE01695F1B
:104F40007F4F22DE63E977E00BDEBE016F5F7F4FAC
:104F50001BDEBC01C701D9DECE010D9646DFCE01B6
:104F6000439643DFCE01079640DFCE0101963DDF39
:104F7000C70168960FB6F894DEBF0FBECDBFDF91B4
:104F8000CF911F910F91FF90EF90DF90CF90BF9046
:104F9000AF909F908F900895CF92DF92EF92FF9203
:104FA0000F931F93CF93DF93CDB7DEB7EE970FB676
:104FB000F894DEBF0FBECDBF62E279E0CE0142962B
:104FC00097D88E8D883010F00C94D53262EF72E055
:104FD000CE01C396B3DE0E94601360935B097093A9
:104FE0005C0980935D0990935E096093B3077093A9
:104FF000B4078093B5079093B607CE0142960E94FE
:10500000F71C882311F40C94C73280915B099091AE
:105010005C09A0915D09B0915E094091B307509180
:10502000B4076091B5077091B607841B950BA60B6A
:10503000B70B813D9740A105B10510F00C94C73224
:105040000E94601360935B0970935C0980935D0913
:1050500090935E09CE01429623D9892B71F2CE013D
:10506000429637DA182F89831A8241E050E0BE0158
:105070006F5F7F4F80E09BE036DD1A3011F00C94BB
:10508000EC338FA998AD892B11F00C94E43365EFC4
:1050900072E0CE014296ADDC65E073E0CE0142964F
:1050A000A8DC6CE173E0CE014296A3DCCE0142960F
:1050B0009DDC6EE273E0CE01019640DECE010196EA
:1050C0000E94431A8C01CE0101968FDE17FD03C0AA
:1050D0008FE00E940D1369E373E0CE0101962EDE8E
:1050E000CE0101960E94431A8C01CE0101967DDE0D
:1050F00017FD03C08FE00E94BA1264E473E0CE0192
:1051000001961CDECE0101960E94431A8C01CE014D
:1051100001966BDE17FD03C08FE00E9467126FE4FB
:1051200073E0CE0101960ADECE0101960E94431A79
:105130008C01CE01019659DE17FD03C08EE00E945E
:105140000D136AE573E0CE010196F8DDCE010196FC
:105150000E94431A8C01CE01019647DE17FD03C061
:105160008EE00E94BA1265E673E0CE010196E6DD9C
:10517000CE0101960E94431A8C01CE01019635DEC4
:1051800017FD03C08EE00E94671260E773E0CE0156
:105190000196D4DDCE0101960E94431A8C01CE0106
:1051A000019623DE17FD03C08DE00E940D136BE70F
:1051B00073E0CE010196C2DDCE0101960E94431A32
:1051C0008C01CE01019611DE17FD03C08DE00E9417
:1051D000BA1266E873E0CE010196B0DDCE01019609
:1051E0000E94431A8C01CE010196FFDD17FD03C01A
:1051F0008DE00E94671261E973E0CE0101969EDDA9
:10520000CE0101960E94431A8C01CE010196EDDD7C
:1052100017FD03C08CE00E940D136CE973E0CE0112
:1052200001968CDDCE0101960E94431A8C01CE01BD
:105230000196DBDD17FD03C08CE00E94BA1267EA1D
:1052400073E0CE0101967ADDCE0101960E94431AE9
:105250008C01CE010196C9DD17FD03C08CE00E94D0
:10526000671262EB73E0CE01019668DDCE01019614
:105270000E94431A8C01CE010196B7DD17FD03C0D1
:105280008BE00E940D136DEB73E0CE01019656DDAD
:10529000CE0101960E94431A8C01CE010196A5DD34
:1052A00017FD03C08BE00E94BA1268EC73E0CE01D8
:1052B000019644DDCE0101960E94431A8C01CE0175
:1052C000019693DD17FD03C08BE00E94671263ED2A
:1052D00073E0CE01019632DDCE0101960E94431AA1
:1052E0008C01CE01019681DD17FD03C08AE00E948A
:1052F0000D136EED73E0CE01019620DDCE01019617
:105300000E94431A8C01CE0101966FDD17FD03C088
:105310008AE00E94BA1269EE73E0CE0101960EDDBA
:10532000CE0101960E94431A8C01CE0101965DDDEB
:1053300017FD03C08AE00E94671264EF73E0CE019C
:105340000196FCDCCE0101960E94431A8C01CE012D
:1053500001964BDD17FD03C089E00E940D136FEF2E
:1053600073E0CE010196EADCCE0101960E94431A59
:105370008C01CE01019639DD17FD03C089E00E9442
:10538000BA126AE074E0CE010196D8DCCE01019633
:105390000E94431A8C01CE01019627DD17FD03C040
:1053A00089E00E94671265E174E0CE010196C6DCD7
:1053B000CE0101960E94431A8C01CE01019615DDA3
:1053C00017FD03C088E00E940D1360E274E0CE0177
:1053D0000196B4DCCE0101960E94431A8C01CE01E5
:1053E000019603DD17FD03C088E00E94BA126BE24C
:1053F00074E0CE010196A2DCCE0101960E94431A10
:105400008C01CE010196F1DC17FD03C088E00E94FB
:10541000671266E374E0CE01019690DCCE0101963E
:105420000E94431A8C01CE010196DFDC17FD03C0F8
:1054300087E00E940D1361E474E0CE0101967EDCEA
:10544000CE0101960E94431A8C01CE010196CDDC5B
:1054500017FD03C087E00E94BA126CE474E0CE012D
:1054600001966CDCCE0101960E94431A8C01CE019C
:105470000196BBDC17FD03C087E00E94671267E559
:1054800074E0CE0101965ADCCE0101960E94431AC7
:105490008C01CE010196A9DC17FD03C086E00E94B5
:1054A0000D1362E674E0CE01019648DCCE01019650
:1054B0000E94431A8C01CE01019697DC17FD03C0B0
:1054C00086E00E94BA126DE674E0CE01019636DCE9
:1054D000CE0101960E94431A8C01CE01019685DC13
:1054E00017FD03C086E00E94671268E774E0CE01F2
:1054F000019624DCCE0101960E94431A8C01CE0154
:10550000019673DC17FD03C085E00E940D1363E86C
:1055100074E0CE01019612DCCE0101960E94431A7E
:105520008C01CE01019661DC17FD03C085E00E946D
:10553000BA126EE874E0CE01019600DCCE0101964D
:105540000E94431A8C01CE0101964FDC17FD03C067
:1055500085E00E94671269E974E0CE010196EEDBF6
:10556000CE0101960E94431A8C01CE0101963DDCCA
:1055700017FD03C084E00E940D1364EA74E0CE01BD
:105580000196DCDBCE0101960E94431A8C01CE010C
:1055900001962BDC17FD03C084E00E94BA126FEA6B
:1055A00074E0CE010196CADBCE0101960E94431A37
:1055B0008C01CE01019619DC17FD03C084E00E9426
:1055C00067126AEB74E0CE010196B8DBCE0101965A
:1055D0000E94431A8C01CE01019607DC17FD03C01F
:1055E00083E00E940D1365EC74E0CE010196A6DB0A
:1055F000CE0101960E94431A8C01CE010196F5DB83
:1056000017FD03C083E00E94BA1260ED74E0CE0182
:10561000019694DBCE0101960E94431A8C01CE01C3
:105620000196E3DB17FD03C083E00E9467126BED78
:1056300074E0CE01019682DBCE0101960E94431AEE
:105640008C01CE010196D1DB17FD03C082E00E94E0
:105650000D1366EE74E0CE01019670DBCE0101966B
:105660000E94431A8C01CE010196BFDB17FD03C0D7
:1056700082E00E94BA1261EF74E0CE0101965EDB17
:10568000CE0101960E94431A8C01CE010196ADDB3A
:1056900017FD03C082E00E9467126CEF74E0CE0138
:1056A00001964CDBCE0101960E94431A8C01CE017B
:1056B00001969BDB17FD03C081E00E940D1367E09C
:1056C00075E0CE0101963ADBCE0101960E94431AA5
:1056D0008C01CE01019689DB17FD03C081E00E9499
:1056E000BA1262E175E0CE01019628DBCE01019687
:1056F0000E94431A8C01CE01019677DB17FD03C08F
:1057000081E00E9467126DE175E0CE01019616DB23
:10571000CE0101960E94431A8C01CE01019665DBF1
:1057200017FD03C081E08093200268E275E0CE019E
:10573000019604DBCE0101960E94431A8C01CE0132
:10574000019653DB17FF1092200264E375E0CE014F
:105750000196F4DACE0101960E94431A8C01CE0123
:10576000019643DB17FD08C080911E0290911F0235
:1057700090931D0280931C026FE375E0CE010196A9
:10578000DDDACE0101960E94431A8C01CE0101960A
:105790002CDB17FD03C08EE00E94EE136BE475E076
:1057A000CE010196CBDACE0101960E94431A8C01FC
:1057B000CE0101961ADB17FD07C04EE060EC77E2E0
:1057C00089E090E00E94951366E575E0CE010196B0
:1057D000B5DACE0101960E94431A8C01CE010196E2
:1057E00004DB17FD03C08DE00E94EE1362E675E056
:1057F000CE010196A3DACE0101960E94431A8C01D4
:10580000CE010196F2DA17FD07C04DE060EC77E2B9
:1058100089E090E00E9495136DE675E0CE01019657
:105820008DDACE0101960E94431A8C01CE010196B9
:10583000DCDA17FD03C08CE00E94EE1369E775E027
:10584000CE0101967BDACE0101960E94431A8C01AB
:10585000CE010196CADA17FD07C04CE060E87FE48C
:1058600082E190E00E94951364E875E0CE01019614
:1058700065DACE0101960E94431A8C01CE01019691
:10588000B4DA17FD03C081E08093B2076FE875E0DA
:10589000CE01019653DACE0101960E94431A8C0183
:1058A000CE010196A2DA17FF1092B2076BE975E0FC
:1058B000CE01019643DACE0101960E94431A8C0173
:1058C000CE01019692DA17FD03C081E080931B029E
:1058D00066EA75E0CE01019631DACE0101960E94AA
:1058E000431A8C01CE01019680DA17FF10921B0239
:1058F00062EB75E0CE01019621DACE0101960E949D
:10590000431A8C01CE01019670DA17FD03C089E0BD
:105910000E94EE136DEB75E0CE0101960FDACE0119
:1059200001960E94431A8C01CE0101965EDA17FDA2
:1059300007C049E060EC77E289E090E00E949513AF
:1059400067EC75E0CE010196F9D9CE0101960E946F
:10595000431A8C01CE01019648DA17FF10921A0201
:1059600062ED75E0CE010196E9D9CE0101960E9463
:10597000431A8C01CE01019638DA17FD03C081E08D
:1059800080931A026CED75E0CE010196D7D9CE0155
:1059900001960E94431A8C01CE01019626DA17FD6A
:1059A00003C087E00E94EE1367EE75E0CE0101961A
:1059B000C5D9CE0101960E94431A8C01CE010196F1
:1059C00014DA17FD07C047E060EC77E289E090E069
:1059D0000E94951361EF75E0CE010196AFD9CE011B
:1059E00001960E94431A8C01CE010196FED917FF41
:1059F000109219026CEF75E0CE0101969FD9CE018D
:105A000001960E94431A8C01CE010196EED917FD32
:105A100003C081E08093190266E076E0CE01019632
:105A20008DD9CE0101960E94431A8C01CE010196B8
:105A3000DCD917FD10C060E176E08FE498E00E94A9
:105A4000F92480E00E94671245E06CED75E080E08B
:105A500090E00E9495136EE176E0CE0101966ED93A
:105A6000CE0101960E94431A8C01CE010196BDD948
:105A700017FD10C068E276E08FE498E00E94F924F8
:105A800080E00E94BA1244E06CED75E080E090E0A6
:105A90000E94951365E376E0CE0101964FD9CE01C1
:105AA00001960E94431A8C01CE0101969ED917FDE2
:105AB00010C06FE376E08FE498E00E94F92480E064
:105AC0000E940D1343E06CED75E080E090E00E94D1
:105AD00095136DE476E0CE01019630D9CE010196A2
